{
  "_format": "hh-sol-artifact-1",
  "contractName": "BorrowerOperations",
  "sourceName": "contracts/BorrowerOperations.sol",
  "abi": [
    {
      "anonymous": false,
      "inputs": [
        {
          "indexed": false,
          "internalType": "address",
          "name": "_activePoolAddress",
          "type": "address"
        }
      ],
      "name": "ActivePoolAddressChanged",
      "type": "event"
    },
    {
      "anonymous": false,
      "inputs": [
        {
          "indexed": false,
          "internalType": "address",
          "name": "_collSurplusPoolAddress",
          "type": "address"
        }
      ],
      "name": "CollSurplusPoolAddressChanged",
      "type": "event"
    },
    {
      "anonymous": false,
      "inputs": [
        {
          "indexed": false,
          "internalType": "address",
          "name": "_defaultPoolAddress",
          "type": "address"
        }
      ],
      "name": "DefaultPoolAddressChanged",
      "type": "event"
    },
    {
      "anonymous": false,
      "inputs": [
        {
          "indexed": false,
          "internalType": "address",
          "name": "_feeDistributorAddress",
          "type": "address"
        }
      ],
      "name": "FeeDistributorAddressChanged",
      "type": "event"
    },
    {
      "anonymous": false,
      "inputs": [
        {
          "indexed": false,
          "internalType": "address",
          "name": "_gasPoolAddress",
          "type": "address"
        }
      ],
      "name": "GasPoolAddressChanged",
      "type": "event"
    },
    {
      "anonymous": false,
      "inputs": [
        {
          "indexed": true,
          "internalType": "address",
          "name": "previousOwner",
          "type": "address"
        },
        {
          "indexed": true,
          "internalType": "address",
          "name": "newOwner",
          "type": "address"
        }
      ],
      "name": "OwnershipTransferred",
      "type": "event"
    },
    {
      "anonymous": false,
      "inputs": [
        {
          "indexed": false,
          "internalType": "address",
          "name": "_newPriceFeedAddress",
          "type": "address"
        }
      ],
      "name": "PriceFeedAddressChanged",
      "type": "event"
    },
    {
      "anonymous": false,
      "inputs": [
        {
          "indexed": false,
          "internalType": "address",
          "name": "_sortedTrovesAddress",
          "type": "address"
        }
      ],
      "name": "SortedTrovesAddressChanged",
      "type": "event"
    },
    {
      "anonymous": false,
      "inputs": [
        {
          "indexed": false,
          "internalType": "address",
          "name": "_stabilityPoolAddress",
          "type": "address"
        }
      ],
      "name": "StabilityPoolAddressChanged",
      "type": "event"
    },
    {
      "anonymous": false,
      "inputs": [
        {
          "indexed": true,
          "internalType": "address",
          "name": "_borrower",
          "type": "address"
        },
        {
          "indexed": false,
          "internalType": "uint256",
          "name": "arrayIndex",
          "type": "uint256"
        }
      ],
      "name": "TroveCreated",
      "type": "event"
    },
    {
      "anonymous": false,
      "inputs": [
        {
          "indexed": false,
          "internalType": "address",
          "name": "_newTroveManagerAddress",
          "type": "address"
        }
      ],
      "name": "TroveManagerAddressChanged",
      "type": "event"
    },
    {
      "anonymous": false,
      "inputs": [
        {
          "indexed": true,
          "internalType": "address",
          "name": "_borrower",
          "type": "address"
        },
        {
          "indexed": false,
          "internalType": "uint256",
          "name": "_debt",
          "type": "uint256"
        },
        {
          "indexed": false,
          "internalType": "uint256",
          "name": "_coll",
          "type": "uint256"
        },
        {
          "indexed": false,
          "internalType": "uint256",
          "name": "stake",
          "type": "uint256"
        },
        {
          "indexed": false,
          "internalType": "enum BorrowerOperations.BorrowerOperation",
          "name": "operation",
          "type": "uint8"
        }
      ],
      "name": "TroveUpdated",
      "type": "event"
    },
    {
      "anonymous": false,
      "inputs": [
        {
          "indexed": false,
          "internalType": "address",
          "name": "_zeroStakingAddress",
          "type": "address"
        }
      ],
      "name": "ZEROStakingAddressChanged",
      "type": "event"
    },
    {
      "anonymous": false,
      "inputs": [
        {
          "indexed": true,
          "internalType": "address",
          "name": "_borrower",
          "type": "address"
        },
        {
          "indexed": false,
          "internalType": "uint256",
          "name": "_ZUSDFee",
          "type": "uint256"
        }
      ],
      "name": "ZUSDBorrowingFeePaid",
      "type": "event"
    },
    {
      "anonymous": false,
      "inputs": [
        {
          "indexed": false,
          "internalType": "address",
          "name": "_zusdTokenAddress",
          "type": "address"
        }
      ],
      "name": "ZUSDTokenAddressChanged",
      "type": "event"
    },
    {
      "inputs": [],
      "name": "BORROWING_FEE_FLOOR",
      "outputs": [
        {
          "internalType": "uint256",
          "name": "",
          "type": "uint256"
        }
      ],
      "stateMutability": "view",
      "type": "function"
    },
    {
      "inputs": [],
      "name": "DECIMAL_PRECISION",
      "outputs": [
        {
          "internalType": "uint256",
          "name": "",
          "type": "uint256"
        }
      ],
      "stateMutability": "view",
      "type": "function"
    },
    {
      "inputs": [],
      "name": "MIN_NET_DEBT",
      "outputs": [
        {
          "internalType": "uint256",
          "name": "",
          "type": "uint256"
        }
      ],
      "stateMutability": "view",
      "type": "function"
    },
    {
      "inputs": [],
      "name": "NAME",
      "outputs": [
        {
          "internalType": "string",
          "name": "",
          "type": "string"
        }
      ],
      "stateMutability": "view",
      "type": "function"
    },
    {
      "inputs": [],
      "name": "ZUSD_GAS_COMPENSATION",
      "outputs": [
        {
          "internalType": "uint256",
          "name": "",
          "type": "uint256"
        }
      ],
      "stateMutability": "view",
      "type": "function"
    },
    {
      "inputs": [],
      "name": "_100pct",
      "outputs": [
        {
          "internalType": "uint256",
          "name": "",
          "type": "uint256"
        }
      ],
      "stateMutability": "view",
      "type": "function"
    },
    {
      "inputs": [],
      "name": "activePool",
      "outputs": [
        {
          "internalType": "contract IActivePool",
          "name": "",
          "type": "address"
        }
      ],
      "stateMutability": "view",
      "type": "function"
    },
    {
      "inputs": [
        {
          "internalType": "address",
          "name": "_upperHint",
          "type": "address"
        },
        {
          "internalType": "address",
          "name": "_lowerHint",
          "type": "address"
        }
      ],
      "name": "addColl",
      "outputs": [],
      "stateMutability": "payable",
      "type": "function"
    },
    {
      "inputs": [
        {
          "internalType": "uint256",
          "name": "_maxFeePercentage",
          "type": "uint256"
        },
        {
          "internalType": "uint256",
          "name": "_collWithdrawal",
          "type": "uint256"
        },
        {
          "internalType": "uint256",
          "name": "_ZUSDChange",
          "type": "uint256"
        },
        {
          "internalType": "bool",
          "name": "_isDebtIncrease",
          "type": "bool"
        },
        {
          "internalType": "address",
          "name": "_upperHint",
          "type": "address"
        },
        {
          "internalType": "address",
          "name": "_lowerHint",
          "type": "address"
        }
      ],
      "name": "adjustNueTrove",
      "outputs": [],
      "stateMutability": "payable",
      "type": "function"
    },
    {
      "inputs": [
        {
          "internalType": "uint256",
          "name": "_maxFeePercentage",
          "type": "uint256"
        },
        {
          "internalType": "uint256",
          "name": "_collWithdrawal",
          "type": "uint256"
        },
        {
          "internalType": "uint256",
          "name": "_ZUSDChange",
          "type": "uint256"
        },
        {
          "internalType": "bool",
          "name": "_isDebtIncrease",
          "type": "bool"
        },
        {
          "internalType": "address",
          "name": "_upperHint",
          "type": "address"
        },
        {
          "internalType": "address",
          "name": "_lowerHint",
          "type": "address"
        }
      ],
      "name": "adjustTrove",
      "outputs": [],
      "stateMutability": "payable",
      "type": "function"
    },
    {
      "inputs": [],
      "name": "claimCollateral",
      "outputs": [],
      "stateMutability": "nonpayable",
      "type": "function"
    },
    {
      "inputs": [],
      "name": "closeNueTrove",
      "outputs": [],
      "stateMutability": "nonpayable",
      "type": "function"
    },
    {
      "inputs": [],
      "name": "closeTrove",
      "outputs": [],
      "stateMutability": "nonpayable",
      "type": "function"
    },
    {
      "inputs": [],
      "name": "defaultPool",
      "outputs": [
        {
          "internalType": "contract IDefaultPool",
          "name": "",
          "type": "address"
        }
      ],
      "stateMutability": "view",
      "type": "function"
    },
    {
      "inputs": [],
      "name": "feeDistributor",
      "outputs": [
        {
          "internalType": "contract IFeeDistributor",
          "name": "",
          "type": "address"
        }
      ],
      "stateMutability": "view",
      "type": "function"
    },
    {
      "inputs": [
        {
          "internalType": "uint256",
          "name": "_debt",
          "type": "uint256"
        }
      ],
      "name": "getCompositeDebt",
      "outputs": [
        {
          "internalType": "uint256",
          "name": "",
          "type": "uint256"
        }
      ],
      "stateMutability": "view",
      "type": "function"
    },
    {
      "inputs": [],
      "name": "getEntireSystemColl",
      "outputs": [
        {
          "internalType": "uint256",
          "name": "entireSystemColl",
          "type": "uint256"
        }
      ],
      "stateMutability": "view",
      "type": "function"
    },
    {
      "inputs": [],
      "name": "getEntireSystemDebt",
      "outputs": [
        {
          "internalType": "uint256",
          "name": "entireSystemDebt",
          "type": "uint256"
        }
      ],
      "stateMutability": "view",
      "type": "function"
    },
    {
      "inputs": [],
      "name": "getOwner",
      "outputs": [
        {
          "internalType": "address",
          "name": "_owner",
          "type": "address"
        }
      ],
      "stateMutability": "view",
      "type": "function"
    },
    {
      "inputs": [],
      "name": "liquityBaseParams",
      "outputs": [
        {
          "internalType": "contract ILiquityBaseParams",
          "name": "",
          "type": "address"
        }
      ],
      "stateMutability": "view",
      "type": "function"
    },
    {
      "inputs": [],
      "name": "masset",
      "outputs": [
        {
          "internalType": "contract IMasset",
          "name": "",
          "type": "address"
        }
      ],
      "stateMutability": "view",
      "type": "function"
    },
    {
      "inputs": [
        {
          "internalType": "address",
          "name": "_borrower",
          "type": "address"
        },
        {
          "internalType": "address",
          "name": "_upperHint",
          "type": "address"
        },
        {
          "internalType": "address",
          "name": "_lowerHint",
          "type": "address"
        }
      ],
      "name": "moveETHGainToTrove",
      "outputs": [],
      "stateMutability": "payable",
      "type": "function"
    },
    {
      "inputs": [
        {
          "internalType": "uint256",
          "name": "_maxFeePercentage",
          "type": "uint256"
        },
        {
          "internalType": "uint256",
          "name": "_ZUSDAmount",
          "type": "uint256"
        },
        {
          "internalType": "address",
          "name": "_upperHint",
          "type": "address"
        },
        {
          "internalType": "address",
          "name": "_lowerHint",
          "type": "address"
        }
      ],
      "name": "openNueTrove",
      "outputs": [],
      "stateMutability": "payable",
      "type": "function"
    },
    {
      "inputs": [
        {
          "internalType": "uint256",
          "name": "_maxFeePercentage",
          "type": "uint256"
        },
        {
          "internalType": "uint256",
          "name": "_ZUSDAmount",
          "type": "uint256"
        },
        {
          "internalType": "address",
          "name": "_upperHint",
          "type": "address"
        },
        {
          "internalType": "address",
          "name": "_lowerHint",
          "type": "address"
        }
      ],
      "name": "openTrove",
      "outputs": [],
      "stateMutability": "payable",
      "type": "function"
    },
    {
      "inputs": [],
      "name": "priceFeed",
      "outputs": [
        {
          "internalType": "contract IPriceFeed",
          "name": "",
          "type": "address"
        }
      ],
      "stateMutability": "view",
      "type": "function"
    },
    {
      "inputs": [
        {
          "internalType": "uint256",
          "name": "_ZUSDAmount",
          "type": "uint256"
        },
        {
          "internalType": "address",
          "name": "_upperHint",
          "type": "address"
        },
        {
          "internalType": "address",
          "name": "_lowerHint",
          "type": "address"
        }
      ],
      "name": "repayZUSD",
      "outputs": [],
      "stateMutability": "nonpayable",
      "type": "function"
    },
    {
      "inputs": [
        {
          "internalType": "address",
          "name": "_feeDistributorAddress",
          "type": "address"
        },
        {
          "internalType": "address",
          "name": "_liquityBaseParamsAddress",
          "type": "address"
        },
        {
          "internalType": "address",
          "name": "_troveManagerAddress",
          "type": "address"
        },
        {
          "internalType": "address",
          "name": "_activePoolAddress",
          "type": "address"
        },
        {
          "internalType": "address",
          "name": "_defaultPoolAddress",
          "type": "address"
        },
        {
          "internalType": "address",
          "name": "_stabilityPoolAddress",
          "type": "address"
        },
        {
          "internalType": "address",
          "name": "_gasPoolAddress",
          "type": "address"
        },
        {
          "internalType": "address",
          "name": "_collSurplusPoolAddress",
          "type": "address"
        },
        {
          "internalType": "address",
          "name": "_priceFeedAddress",
          "type": "address"
        },
        {
          "internalType": "address",
          "name": "_sortedTrovesAddress",
          "type": "address"
        },
        {
          "internalType": "address",
          "name": "_zusdTokenAddress",
          "type": "address"
        },
        {
          "internalType": "address",
          "name": "_zeroStakingAddress",
          "type": "address"
        }
      ],
      "name": "setAddresses",
      "outputs": [],
      "stateMutability": "nonpayable",
      "type": "function"
    },
    {
      "inputs": [
        {
          "internalType": "address",
          "name": "_massetAddress",
          "type": "address"
        }
      ],
      "name": "setMassetAddress",
      "outputs": [],
      "stateMutability": "nonpayable",
      "type": "function"
    },
    {
      "inputs": [
        {
          "internalType": "address",
          "name": "_owner",
          "type": "address"
        }
      ],
      "name": "setOwner",
      "outputs": [],
      "stateMutability": "nonpayable",
      "type": "function"
    },
    {
      "inputs": [],
      "name": "sortedTroves",
      "outputs": [
        {
          "internalType": "contract ISortedTroves",
          "name": "",
          "type": "address"
        }
      ],
      "stateMutability": "view",
      "type": "function"
    },
    {
      "inputs": [],
      "name": "troveManager",
      "outputs": [
        {
          "internalType": "contract ITroveManager",
          "name": "",
          "type": "address"
        }
      ],
      "stateMutability": "view",
      "type": "function"
    },
    {
      "inputs": [
        {
          "internalType": "uint256",
          "name": "_collWithdrawal",
          "type": "uint256"
        },
        {
          "internalType": "address",
          "name": "_upperHint",
          "type": "address"
        },
        {
          "internalType": "address",
          "name": "_lowerHint",
          "type": "address"
        }
      ],
      "name": "withdrawColl",
      "outputs": [],
      "stateMutability": "nonpayable",
      "type": "function"
    },
    {
      "inputs": [
        {
          "internalType": "uint256",
          "name": "_maxFeePercentage",
          "type": "uint256"
        },
        {
          "internalType": "uint256",
          "name": "_ZUSDAmount",
          "type": "uint256"
        },
        {
          "internalType": "address",
          "name": "_upperHint",
          "type": "address"
        },
        {
          "internalType": "address",
          "name": "_lowerHint",
          "type": "address"
        }
      ],
      "name": "withdrawZUSD",
      "outputs": [],
      "stateMutability": "nonpayable",
      "type": "function"
    },
    {
      "inputs": [],
      "name": "zeroStaking",
      "outputs": [
        {
          "internalType": "contract IZEROStaking",
          "name": "",
          "type": "address"
        }
      ],
      "stateMutability": "view",
      "type": "function"
    },
    {
      "inputs": [],
      "name": "zeroStakingAddress",
      "outputs": [
        {
          "internalType": "address",
          "name": "",
          "type": "address"
        }
      ],
      "stateMutability": "view",
      "type": "function"
    },
    {
      "inputs": [],
      "name": "zusdToken",
      "outputs": [
        {
          "internalType": "contract IZUSDToken",
          "name": "",
          "type": "address"
        }
      ],
      "stateMutability": "view",
      "type": "function"
    }
  ],
  "bytecode": "0x60806040523480156200001157600080fd5b5062000026336001600160e01b036200002c16565b62000118565b6001600160a01b038116620000735760405162461bcd60e51b81526004018080602001828103825260228152602001806200450a6022913960400191505060405180910390fd5b6001600160a01b038116620000906001600160e01b03620000ee16565b6001600160a01b03167f8be0079c531659141344cd1fd0a4f28419497f9722a3daafe3b4186f6b6457e060405160405180910390a3604080517035b2bc9737bbb730b136329737bbb732b960791b8152905190819003601101902055565b604080517035b2bc9737bbb730b136329737bbb732b960791b815290519081900360110190205490565b6143e280620001286000396000f3fe6080604052600436106101cf5760003560e01c8063759b3034116100f8578063a3f4df7e11610090578063a3f4df7e146105e6578063ae91875414610670578063afbc74b514610685578063c560f02b146106c6578063c6a6cf20146106db578063ea9638bf14610723578063ec5472fd1461075b578063ec9f7d4614610770578063f92d343314610785576101cf565b8063759b303414610519578063795d26c31461052e5780637abb9af6146105435780637f7dde4a14610558578063860665b31461056d578063887105d3146105a7578063893d20e8146105bc5780639f070670146105d1578063a20baee61461045f576101cf565b8063485f190f1161016b578063485f190f146103305780634ff814431461036a5780635530273c1461039457806368647db1146103d55780636ea56960146104035780636f0b0c1c1461044a57806372fe25aa1461045f578063734f622d14610474578063741bef1a14610504576101cf565b80630d43e8ad146101d45780630e704d50146102055780630ff9a5121461021c57806313af4035146102315780631402b393146102645780631bf43555146102975780633cc74225146102be5780633d83908a146102d35780634199f6e2146102e8575b600080fd5b3480156101e057600080fd5b506101e961079a565b604080516001600160a01b039092168252519081900360200190f35b34801561021157600080fd5b5061021a6107a9565b005b34801561022857600080fd5b506101e96107b3565b34801561023d57600080fd5b5061021a6004803603602081101561025457600080fd5b50356001600160a01b03166107c2565b34801561027057600080fd5b5061021a6004803603602081101561028757600080fd5b50356001600160a01b0316610835565b3480156102a357600080fd5b506102ac6108be565b60408051918252519081900360200190f35b3480156102ca57600080fd5b506101e96108cb565b3480156102df57600080fd5b506101e96108da565b61021a600480360360c08110156102fe57600080fd5b5080359060208101359060408101359060608101351515906001600160a01b03608082013581169160a00135166108e9565b61021a6004803603608081101561034657600080fd5b508035906020810135906001600160a01b0360408201358116916060013516610b88565b34801561037657600080fd5b506102ac6004803603602081101561038d57600080fd5b5035610d70565b3480156103a057600080fd5b5061021a600480360360608110156103b757600080fd5b508035906001600160a01b0360208201358116916040013516610d81565b61021a600480360360408110156103eb57600080fd5b506001600160a01b0381358116916020013516610d97565b34801561040f57600080fd5b5061021a6004803603608081101561042657600080fd5b508035906020810135906001600160a01b0360408201358116916060013516610dad565b34801561045657600080fd5b5061021a610dc4565b34801561046b57600080fd5b506102ac610e24565b34801561048057600080fd5b5061021a600480360361018081101561049857600080fd5b506001600160a01b038135811691602081013582169160408201358116916060810135821691608082013581169160a081013582169160c082013581169160e0810135821691610100820135811691610120810135821691610140820135811691610160013516610e30565b34801561051057600080fd5b506101e961124f565b34801561052557600080fd5b506102ac61125e565b34801561053a57600080fd5b506102ac61126b565b34801561054f57600080fd5b5061021a61136a565b34801561056457600080fd5b506101e96114fa565b61021a6004803603608081101561058357600080fd5b508035906020810135906001600160a01b0360408201358116916060013516611509565b3480156105b357600080fd5b506102ac611518565b3480156105c857600080fd5b506101e96115d4565b3480156105dd57600080fd5b506101e96115fe565b3480156105f257600080fd5b506105fb61160d565b6040805160208082528351818301528351919283929083019185019080838360005b8381101561063557818101518382015260200161061d565b50505050905090810190601f1680156106625780820380516001836020036101000a031916815260200191505b509250505060405180910390f35b34801561067c57600080fd5b506101e961163b565b34801561069157600080fd5b5061021a600480360360608110156106a857600080fd5b508035906001600160a01b036020820135811691604001351661164a565b3480156106d257600080fd5b506101e961165c565b61021a600480360360c08110156106f157600080fd5b5080359060208101359060408101359060608101351515906001600160a01b03608082013581169160a001351661166b565b61021a6004803603606081101561073957600080fd5b506001600160a01b03813581169160208101358216916040909101351661167a565b34801561076757600080fd5b506101e9611694565b34801561077c57600080fd5b506101e96116a3565b34801561079157600080fd5b506102ac6116b2565b600d546001600160a01b031681565b6107b1611728565b565b6009546001600160a01b031681565b6107ca6115d4565b6001600160a01b0316336001600160a01b031614610829576040805162461bcd60e51b815260206004820152601760248201527613dddb98589b194e8e881858d8d95cdcc819195b9a5959604a1b604482015290519081900360640190fd5b61083281611b23565b50565b61083d6115d4565b6001600160a01b0316336001600160a01b03161461089c576040805162461bcd60e51b815260206004820152601760248201527613dddb98589b194e8e881858d8d95cdcc819195b9a5959604a1b604482015290519081900360640190fd5b600c80546001600160a01b0319166001600160a01b0392909216919091179055565b6809c2007651b250000081565b6001546001600160a01b031681565b6004546001600160a01b031681565b600c546001600160a01b031661093f576040805162461bcd60e51b815260206004820152601660248201527513585cdcd95d081859191c995cdcc81b9bdd081cd95d60521b604482015290519081900360640190fd5b8215801561094d5750600084115b156109de57600c54600a54604080516316e76cd160e31b81526001600160a01b039283166004820152602481018890523360448201529051919092169163b73b66889160648083019260209291908290030181600087803b1580156109b157600080fd5b505af11580156109c5573d6000803e3d6000fd5b505050506040513d60208110156109db57600080fd5b50505b6109f03386868686868c333430611bd8565b8280156109fd5750600084115b15610b8057600a54600c546040805163a9059cbb60e01b81526001600160a01b039283166004820152602481018890529051919092169163a9059cbb9160448083019260209291908290030181600087803b158015610a5b57600080fd5b505af1158015610a6f573d6000803e3d6000fd5b505050506040513d6020811015610a8557600080fd5b5050600c54600a5460408051336020828101919091528251808303820181528284019384905263c4a5863760e01b909352604482018981526001600160a01b0394851660648401819052606060848501908152855160a48601528551969097169663c4a58637968c9692959294919260c4019185019080838360005b83811015610b19578181015183820152602001610b01565b50505050905090810190601f168015610b465780820380516001836020036101000a031916815260200191505b50945050505050600060405180830381600087803b158015610b6757600080fd5b505af1158015610b7b573d6000803e3d6000fd5b505050505b505050505050565b600c546001600160a01b0316610bde576040805162461bcd60e51b815260206004820152601660248201527513585cdcd95d081859191c995cdcc81b9bdd081cd95d60521b604482015290519081900360640190fd5b610bed84848484333430612257565b600a54600c546040805163a9059cbb60e01b81526001600160a01b039283166004820152602481018790529051919092169163a9059cbb9160448083019260209291908290030181600087803b158015610c4657600080fd5b505af1158015610c5a573d6000803e3d6000fd5b505050506040513d6020811015610c7057600080fd5b5050600c54600a5460408051336020828101919091528251808303820181528284019384905263c4a5863760e01b909352604482018881526001600160a01b0394851660648401819052606060848501908152855160a48601528551969097169663c4a58637968b9692959294919260c4019185019080838360005b83811015610d04578181015183820152602001610cec565b50505050905090810190601f168015610d315780820380516001836020036101000a031916815260200191505b50945050505050600060405180830381600087803b158015610d5257600080fd5b505af1158015610d66573d6000803e3d6000fd5b5050505050505050565b6000610d7b826128ce565b92915050565b610d923384600080868660006128e9565b505050565b610da9336000806000868660006128e9565b5050565b610dbe33600085600186868a6128e9565b50505050565b6007546040805163b32beb5b60e01b815233600482015290516001600160a01b039092169163b32beb5b9160248082019260009290919082900301818387803b158015610e1057600080fd5b505af1158015610dbe573d6000803e3d6000fd5b670de0b6b3a764000081565b610e386115d4565b6001600160a01b0316336001600160a01b031614610e97576040805162461bcd60e51b815260206004820152601760248201527613dddb98589b194e8e881858d8d95cdcc819195b9a5959604a1b604482015290519081900360640190fd5b610ea08c612904565b610ea98b612904565b610eb28a612904565b610ebb89612904565b610ec488612904565b610ecd87612904565b610ed686612904565b610edf85612904565b610ee884612904565b610ef183612904565b610efa82612904565b610f0381612904565b600d80546001600160a01b03199081166001600160a01b038f81169182179093556003805483168f85161790556004805483168e85161790556000805483168d85161790556001805483168c85161790556005805483168b85161790556006805483168a8516179055600780548316898516179055600280548316888516179055600b80548316878516179055600a80548316868516179055600980548316938516938417905560088054909216909217905560408051918252517f84861842e6a98dd759145eb5e7b48279d0f02ebeabc8a69e5196b2f4c5023db9916020908290030190a1604080516001600160a01b038c16815290517f143219c9e69b09e07e095fcc889b43d8f46ca892bba65f08dc3a0050869a56789181900360200190a1604080516001600160a01b038b16815290517f78f058b189175430c48dc02699e3a0031ea4ff781536dc2fab847de4babdd8829181900360200190a1604080516001600160a01b038a16815290517f5ee0cae2f063ed938bb55046f6a932fb6ae792bf43624806bb90abe68a50be9b9181900360200190a1604080516001600160a01b038916815290517f82966d27eea39b038ee0fa30cd16532bb24f6e65d31cb58fb227aa5766cdcc7f9181900360200190a1604080516001600160a01b038816815290517fcfb07d791fcafc032b35837b50eb84b74df518cf4cc287e8084f47630fa70fa09181900360200190a1604080516001600160a01b038716815290517fe67f36a6e961157d6eff83b91f3af5a62131ceb6f04954ef74f51c1c05e7f88d9181900360200190a1604080516001600160a01b038616815290517f8c537274438aa850a330284665d81a85dd38267d09e4050d416bfc94142db2649181900360200190a1604080516001600160a01b038516815290517f65f4cf077bc01e4742eb5ad98326f6e95b63548ea24b17f8d5e823111fe788009181900360200190a1604080516001600160a01b038416815290517fcdf33850c44a1a874b5fefb51dae615ac6afebd581ef90d571f81b06541d8e9d9181900360200190a1604080516001600160a01b038316815290517f7624075ed781e3aa34b0f492d70d1bb5a6fcde04534165e20f990d2e546be4dd9181900360200190a1505050505050505050505050565b6002546001600160a01b031681565b6801158e460913d0000081565b60008054604080516272c7d360e71b8152905183926001600160a01b031691633963e980916004808301926020929190829003018186803b1580156112af57600080fd5b505afa1580156112c3573d6000803e3d6000fd5b505050506040513d60208110156112d957600080fd5b5051600154604080516272c7d360e71b815290519293506000926001600160a01b0390921691633963e98091600480820192602092909190829003018186803b15801561132557600080fd5b505afa158015611339573d6000803e3d6000fd5b505050506040513d602081101561134f57600080fd5b50519050611363828263ffffffff6129b316565b9250505090565b600c546001600160a01b03166113c0576040805162461bcd60e51b815260206004820152601660248201527513585cdcd95d081859191c995cdcc81b9bdd081cd95d60521b604482015290519081900360640190fd5b600480546040805163d66a255360e01b81523393810193909352516000926001600160a01b039092169163d66a2553916024808301926020929190829003018186803b15801561140f57600080fd5b505afa158015611423573d6000803e3d6000fd5b505050506040513d602081101561143957600080fd5b5051600c54600a549192506001600160a01b039081169163b73b66889116611470846801158e460913d0000063ffffffff612a1416565b604080516001600160e01b031960e086901b1681526001600160a01b03909316600484015260248301919091523360448301525160648083019260209291908290030181600087803b1580156114c557600080fd5b505af11580156114d9573d6000803e3d6000fd5b505050506040513d60208110156114ef57600080fd5b506108329050611728565b6000546001600160a01b031681565b610dbe84848484333433612257565b6000805460408051630a7b61df60e11b8152905183926001600160a01b0316916314f6c3be916004808301926020929190829003018186803b15801561155d57600080fd5b505afa158015611571573d6000803e3d6000fd5b505050506040513d602081101561158757600080fd5b505160015460408051630a7b61df60e11b815290519293506000926001600160a01b03909216916314f6c3be91600480820192602092909190829003018186803b15801561132557600080fd5b604080517035b2bc9737bbb730b136329737bbb732b960791b815290519081900360110190205490565b6003546001600160a01b031681565b60405180604001604052806012815260200171426f72726f7765724f7065726174696f6e7360701b81525081565b600b546001600160a01b031681565b610d92336000856000868660006128e9565b600c546001600160a01b031681565b610b803386868686868c6128e9565b611682612a56565b610d92836000806000868660006128e9565b6008546001600160a01b031681565b600a546001600160a01b031681565b6003546040805163f92d343360e01b815290516000926001600160a01b03169163f92d3433916004808301926020929190829003018186803b1580156116f757600080fd5b505afa15801561170b573d6000803e3d6000fd5b505050506040513d602081101561172157600080fd5b5051905090565b600454600054600a546001600160a01b0392831692918216911661174c8333612a9f565b60025460408051630fdb11cf60e01b815290516000926001600160a01b031691630fdb11cf91600480830192602092919082900301818787803b15801561179257600080fd5b505af11580156117a6573d6000803e3d6000fd5b505050506040513d60208110156117bc57600080fd5b505190506117c981612b64565b60408051630b07655760e01b815233600482015290516001600160a01b03861691630b07655791602480830192600092919082900301818387803b15801561181057600080fd5b505af1158015611824573d6000803e3d6000fd5b5050604080516309019aaf60e31b81523360048201529051600093506001600160a01b038816925063480cd57891602480820192602092909190829003018186803b15801561187257600080fd5b505afa158015611886573d6000803e3d6000fd5b505050506040513d602081101561189c57600080fd5b50516040805163d66a255360e01b815233600482015290519192506000916001600160a01b0388169163d66a2553916024808301926020929190829003018186803b1580156118ea57600080fd5b505afa1580156118fe573d6000803e3d6000fd5b505050506040513d602081101561191457600080fd5b5051905061193b8433611936846801158e460913d0000063ffffffff612a1416565b612ba9565b600061194c83600084600088612c69565b905061195781612cf4565b60408051631fc5750960e31b815233600482015290516001600160a01b0389169163fe2ba84891602480830192600092919082900301818387803b15801561199e57600080fd5b505af11580156119b2573d6000803e3d6000fd5b5050604080516365e89c5760e11b815233600482015290516001600160a01b038b16935063cbd138ae9250602480830192600092919082900301818387803b1580156119fd57600080fd5b505af1158015611a11573d6000803e3d6000fd5b50505050336001600160a01b03166000805160206141bb8339815191526000806000600160405180858152602001848152602001838152602001826002811115611a5757fe5b60ff16815260200194505050505060405180910390a2611a91868633611a8c866801158e460913d0000063ffffffff612a1416565b612dac565b600654611ab490879087906001600160a01b03166801158e460913d00000612dac565b604080516364a197f360e01b81523360048201526024810185905290516001600160a01b038816916364a197f391604480830192600092919082900301818387803b158015611b0257600080fd5b505af1158015611b16573d6000803e3d6000fd5b5050505050505050505050565b6001600160a01b038116611b685760405162461bcd60e51b8152600401808060200182810382526022815260200180613fe96022913960400191505060405180910390fd5b806001600160a01b0316611b7a6115d4565b6001600160a01b03167f8be0079c531659141344cd1fd0a4f28419497f9722a3daafe3b4186f6b6457e060405160405180910390a3604080517035b2bc9737bbb730b136329737bbb732b960791b8152905190819003601101902055565b611be0613e9f565b50604080516060810182526004546001600160a01b03908116825260005481166020830152600a541691810191909152611c18613ebf565b600260009054906101000a90046001600160a01b03166001600160a01b0316630fdb11cf6040518163ffffffff1660e01b8152600401602060405180830381600087803b158015611c6857600080fd5b505af1158015611c7c573d6000803e3d6000fd5b505050506040513d6020811015611c9257600080fd5b5051808252611ca090612e6a565b15156101c08201528815611cc657611cbd86826101c00151612ef9565b611cc68a613017565b611ccf8b613056565b611cd98b8b61309c565b8151611ce5908d612a9f565b8b6001600160a01b0316856001600160a01b03161480611d2757506005546001600160a01b038681169116148015611d1d5750600084115b8015611d27575089155b611d2d57fe5b81600001516001600160a01b0316630b0765578d6040518263ffffffff1660e01b815260040180826001600160a01b03166001600160a01b03168152602001915050600060405180830381600087803b158015611d8957600080fd5b505af1158015611d9d573d6000803e3d6000fd5b50505050611dab848c6130ee565b151560608301526020820152604081018a9052888015611dce5750806101c00151155b15611e0957611de7826000015183604001518c8961310d565b61012082018190526040820151611e039163ffffffff6129b316565b60408201525b81600001516001600160a01b031663d66a25538d6040518263ffffffff1660e01b815260040180826001600160a01b03166001600160a01b0316815260200191505060206040518083038186803b158015611e6357600080fd5b505afa158015611e77573d6000803e3d6000fd5b505050506040513d6020811015611e8d57600080fd5b505160808201528151604080516309019aaf60e31b81526001600160a01b038f811660048301529151919092169163480cd578916024808301926020929190829003018186803b158015611ee057600080fd5b505afa158015611ef4573d6000803e3d6000fd5b505050506040513d6020811015611f0a57600080fd5b505160a0820181905260808201518251611f259291906132c0565b8160c0018181525050611f558160a0015182608001518360200151846060015185604001518e87600001516132fe565b60e082015260a08101518b1115611f6857fe5b611f79816101c001518c8b84613331565b88158015611f87575060008a115b15611fda57611fb5611fb08260400151611fa484608001516133a5565b9063ffffffff612a1416565b6133c0565b611fc781608001518260400151613408565b611fda82604001518d8360400151612ba9565b611ff882600001518d8360200151846060015185604001518e61345f565b610140830152610160820152815160408051630c7940bd60e11b81526001600160a01b038f81166004830152915191909216916318f2817a9160248083019260209291908290030181600087803b15801561205257600080fd5b505af1158015612066573d6000803e3d6000fd5b505050506040513d602081101561207c57600080fd5b505161018082015260a081015160808201516020830151606084015160408501516120ab94939291908e6136bf565b816101a0018181525050600b60009054906101000a90046001600160a01b03166001600160a01b0316632be212608d836101a001518b8b6040518563ffffffff1660e01b815260040180856001600160a01b03166001600160a01b03168152602001848152602001836001600160a01b03166001600160a01b03168152602001826001600160a01b03166001600160a01b03168152602001945050505050600060405180830381600087803b15801561216357600080fd5b505af1158015612177573d6000803e3d6000fd5b505050508b6001600160a01b03166000805160206141bb8339815191528261014001518361016001518461018001516002604051808581526020018481526020018381526020018260028111156121ca57fe5b60ff16815260200194505050505060405180910390a261012081015160408051918252516001600160a01b038716917f71457d8a5ab7e4561ed49d05338674b73ac3b83b0b315f165f5b12bcc0022741919081900360200190a26122498260200151836040015187846020015185606001518f8f88604001518b6136f0565b505050505050505050505050565b61225f613e9f565b50604080516060810182526004546001600160a01b03908116825260005481166020830152600a541691810191909152612297613f39565b600260009054906101000a90046001600160a01b03166001600160a01b0316630fdb11cf6040518163ffffffff1660e01b8152600401602060405180830381600087803b1580156122e757600080fd5b505af11580156122fb573d6000803e3d6000fd5b505050506040513d602081101561231157600080fd5b505180825260009061232290612e6a565b905061232e8a82612ef9565b825161233a90876137ad565b604082018990528061237b5761235a836000015184604001518b8d61310d565b6020830181905260408301516123759163ffffffff6129b316565b60408301525b61238882604001516133c0565b61239582604001516128ce565b606083018190526123a257fe5b6123b585836060015184600001516132c0565b608083015260608201516123ca908690613889565b60a083015280156123e7576123e282608001516138be565b61241a565b6123f48260800151613976565b600061240d866001856060015160018760000151612c69565b905061241881612cf4565b505b825160408051635d6b480f60e01b81526001600160a01b0389811660048301526001602483015291519190921691635d6b480f91604480830192600092919082900301818387803b15801561246e57600080fd5b505af1158015612482573d6000803e3d6000fd5b50508451604080516372423c1760e01b81526001600160a01b038b81166004830152602482018b905291519190921693506372423c17925060448083019260209291908290030181600087803b1580156124db57600080fd5b505af11580156124ef573d6000803e3d6000fd5b505050506040513d602081101561250557600080fd5b50508251606083015160408051639976cf4560e01b81526001600160a01b038a81166004830152602482019390935290519190921691639976cf459160448083019260209291908290030181600087803b15801561256257600080fd5b505af1158015612576573d6000803e3d6000fd5b505050506040513d602081101561258c57600080fd5b50508251604080516382fe3eb960e01b81526001600160a01b038981166004830152915191909216916382fe3eb991602480830192600092919082900301818387803b1580156125db57600080fd5b505af11580156125ef573d6000803e3d6000fd5b5050505082600001516001600160a01b03166318f2817a876040518263ffffffff1660e01b815260040180826001600160a01b03166001600160a01b03168152602001915050602060405180830381600087803b15801561264f57600080fd5b505af1158015612663573d6000803e3d6000fd5b505050506040513d602081101561267957600080fd5b505160c0830152600b5460a0830151604080516346f7cf8760e01b81526001600160a01b038a8116600483015260248201939093528b831660448201528a83166064820152905191909216916346f7cf8791608480830192600092919082900301818387803b1580156126eb57600080fd5b505af11580156126ff573d6000803e3d6000fd5b5050505082600001516001600160a01b03166315d549f1876040518263ffffffff1660e01b815260040180826001600160a01b03166001600160a01b03168152602001915050602060405180830381600087803b15801561275f57600080fd5b505af1158015612773573d6000803e3d6000fd5b505050506040513d602081101561278957600080fd5b505160e0830181905260408051918252516001600160a01b038816917f59cfd0cd754bc5748b6770e94a4ffa5f678d885cb899dcfadc5734edb97c67ab919081900360200190a26127de836020015186613a2e565b6127f783602001518460400151868c8660400151613abe565b602083015160408401516006546128239291906001600160a01b03166801158e460913d0000080613abe565b856001600160a01b03166000805160206141bb8339815191528360600151878560c0015160006040518085815260200184815260200183815260200182600281111561286b57fe5b60ff16815260200194505050505060405180910390a260208083015160408051918252516001600160a01b038916927f71457d8a5ab7e4561ed49d05338674b73ac3b83b0b315f165f5b12bcc0022741928290030190a250505050505050505050565b6000610d7b826801158e460913d0000063ffffffff6129b316565b6128fb87878787878787333433611bd8565b50505050505050565b6001600160a01b03811661295f576040805162461bcd60e51b815260206004820152601e60248201527f4163636f756e742063616e6e6f74206265207a65726f20616464726573730000604482015290519081900360640190fd5b803b80610da9576040805162461bcd60e51b815260206004820181905260248201527f4163636f756e7420636f64652073697a652063616e6e6f74206265207a65726f604482015290519081900360640190fd5b600082820183811015612a0d576040805162461bcd60e51b815260206004820152601b60248201527f536166654d6174683a206164646974696f6e206f766572666c6f770000000000604482015290519081900360640190fd5b9392505050565b6000612a0d83836040518060400160405280601e81526020017f536166654d6174683a207375627472616374696f6e206f766572666c6f770000815250613b90565b6005546001600160a01b031633146107b15760405162461bcd60e51b81526004018080602001828103825260298152602001806142df6029913960400191505060405180910390fd5b6000826001600160a01b03166321e37801836040518263ffffffff1660e01b815260040180826001600160a01b03166001600160a01b0316815260200191505060206040518083038186803b158015612af757600080fd5b505afa158015612b0b573d6000803e3d6000fd5b505050506040513d6020811015612b2157600080fd5b5051905060018114610d925760405162461bcd60e51b815260040180806020018281038252602e81526020018061418d602e913960400191505060405180910390fd5b612b6d81612e6a565b156108325760405162461bcd60e51b815260040180806020018281038252603981526020018061403b6039913960400191505060405180910390fd5b80836001600160a01b03166370a08231846040518263ffffffff1660e01b815260040180826001600160a01b03166001600160a01b0316815260200191505060206040518083038186803b158015612c0057600080fd5b505afa158015612c14573d6000803e3d6000fd5b505050506040513d6020811015612c2a57600080fd5b50511015610d925760405162461bcd60e51b815260040180806020018281038252603d815260200180613f7f603d913960400191505060405180910390fd5b600080612c74611518565b90506000612c8061126b565b905086612c9c57612c97828963ffffffff612a1416565b612cac565b612cac828963ffffffff6129b316565b915084612cc857612cc3818763ffffffff612a1416565b612cd8565b612cd8818763ffffffff6129b316565b90506000612ce78383876132c0565b9998505050505050505050565b600360009054906101000a90046001600160a01b03166001600160a01b0316635733d58f6040518163ffffffff1660e01b815260040160206040518083038186803b158015612d4257600080fd5b505afa158015612d56573d6000803e3d6000fd5b505050506040513d6020811015612d6c57600080fd5b50518110156108325760405162461bcd60e51b81526004018080602001828103825260498152602001806141446049913960600191505060405180910390fd5b836001600160a01b0316632439789a826040518263ffffffff1660e01b815260040180828152602001915050600060405180830381600087803b158015612df257600080fd5b505af1158015612e06573d6000803e3d6000fd5b50505050826001600160a01b0316639dc29fac83836040518363ffffffff1660e01b815260040180836001600160a01b03166001600160a01b0316815260200182815260200192505050600060405180830381600087803b158015610d5257600080fd5b600080612e7683613c27565b9050600360009054906101000a90046001600160a01b03166001600160a01b0316635733d58f6040518163ffffffff1660e01b815260040160206040518083038186803b158015612ec657600080fd5b505afa158015612eda573d6000803e3d6000fd5b505050506040513d6020811015612ef057600080fd5b50511192915050565b8015612f4b57670de0b6b3a7640000821115612f465760405162461bcd60e51b81526004018080602001828103825260328152602001806140ab6032913960400191505060405180910390fd5b610da9565b600360009054906101000a90046001600160a01b03166001600160a01b031663f92d34336040518163ffffffff1660e01b815260040160206040518083038186803b158015612f9957600080fd5b505afa158015612fad573d6000803e3d6000fd5b505050506040513d6020811015612fc357600080fd5b50518210801590612fdc5750670de0b6b3a76400008211155b610da95760405162461bcd60e51b81526004018080602001828103825260308152602001806143086030913960400191505060405180910390fd5b600081116108325760405162461bcd60e51b81526004018080602001828103825260378152602001806143386037913960400191505060405180910390fd5b341580613061575080155b6108325760405162461bcd60e51b815260040180806020018281038252603081526020018061400b6030913960400191505060405180910390fd5b341515806130a957508115155b806130b357508015155b610da95760405162461bcd60e51b81526004018080602001828103825260468152602001806140dd6046913960600191505060405180910390fd5b600080831561310257508290506001613106565b8291505b9250929050565b6000846001600160a01b0316635dba4c4a6040518163ffffffff1660e01b8152600401600060405180830381600087803b15801561314a57600080fd5b505af115801561315e573d6000803e3d6000fd5b505050506000856001600160a01b031663631203b0856040518263ffffffff1660e01b81526004018082815260200191505060206040518083038186803b1580156131a857600080fd5b505afa1580156131bc573d6000803e3d6000fd5b505050506040513d60208110156131d257600080fd5b505190506131e1818585613c53565b600d54604080516340c10f1960e01b81526001600160a01b039283166004820152602481018490529051918716916340c10f199160448082019260009290919082900301818387803b15801561323657600080fd5b505af115801561324a573d6000803e3d6000fd5b50505050600d60009054906101000a90046001600160a01b03166001600160a01b031663bb57ad206040518163ffffffff1660e01b8152600401600060405180830381600087803b15801561329e57600080fd5b505af11580156132b2573d6000803e3d6000fd5b509298975050505050505050565b600082156132f35760006132ea846132de878663ffffffff613cc816565b9063ffffffff613d2116565b9150612a0d9050565b506000199392505050565b60008060006133118a8a8a8a8a8a613d63565b9150915060006133228383876132c0565b9b9a5050505050505050505050565b831561336a5761334083613dbe565b8115613365576133538160e001516138be565b6133658160e001518260c00151613dfb565b610dbe565b6133778160e00151613976565b613394816020015182606001518360400151858560000151612c69565b6101008201819052610dbe90612cf4565b6000610d7b826801158e460913d0000063ffffffff612a1416565b6809c2007651b25000008110156108325760405162461bcd60e51b815260040180806020018281038252603a815260200180614262603a913960400191505060405180910390fd5b613421826801158e460913d0000063ffffffff612a1416565b811115610da95760405162461bcd60e51b815260040180806020018281038252604381526020018061429c6043913960600191505060405180910390fd5b6000806000856134fa57886001600160a01b031663d3d6f84389896040518363ffffffff1660e01b815260040180836001600160a01b03166001600160a01b0316815260200182815260200192505050602060405180830381600087803b1580156134c957600080fd5b505af11580156134dd573d6000803e3d6000fd5b505050506040513d60208110156134f357600080fd5b5051613587565b886001600160a01b03166372423c1789896040518363ffffffff1660e01b815260040180836001600160a01b03166001600160a01b0316815260200182815260200192505050602060405180830381600087803b15801561355a57600080fd5b505af115801561356e573d6000803e3d6000fd5b505050506040513d602081101561358457600080fd5b50515b905060008461362157896001600160a01b03166312610e928a886040518363ffffffff1660e01b815260040180836001600160a01b03166001600160a01b0316815260200182815260200192505050602060405180830381600087803b1580156135f057600080fd5b505af1158015613604573d6000803e3d6000fd5b505050506040513d602081101561361a57600080fd5b50516136ae565b896001600160a01b0316639976cf458a886040518363ffffffff1660e01b815260040180836001600160a01b03166001600160a01b0316815260200182815260200192505050602060405180830381600087803b15801561368157600080fd5b505af1158015613695573d6000803e3d6000fd5b505050506040513d60208110156136ab57600080fd5b50515b919a91995090975050505050505050565b60008060006136d2898989898989613d63565b9150915060006136e28383613889565b9a9950505050505050505050565b8215613708576137038989838786613abe565b613714565b61371489898987612dac565b8415613729576137248987613a2e565b6137a2565b886001600160a01b03166364a197f388886040518363ffffffff1660e01b815260040180836001600160a01b03166001600160a01b0316815260200182815260200192505050600060405180830381600087803b15801561378957600080fd5b505af115801561379d573d6000803e3d6000fd5b505050505b505050505050505050565b6000826001600160a01b03166321e37801836040518263ffffffff1660e01b815260040180826001600160a01b03166001600160a01b0316815260200191505060206040518083038186803b15801561380557600080fd5b505afa158015613819573d6000803e3d6000fd5b505050506040513d602081101561382f57600080fd5b505190506001811415610d92576040805162461bcd60e51b815260206004820152601c60248201527f426f72726f7765724f70733a2054726f76652069732061637469766500000000604482015290519081900360640190fd5b600081156138b5576138ae826132de8568056bc75e2d6310000063ffffffff613cc816565b9050610d7b565b50600019610d7b565b600360009054906101000a90046001600160a01b03166001600160a01b0316635733d58f6040518163ffffffff1660e01b815260040160206040518083038186803b15801561390c57600080fd5b505afa158015613920573d6000803e3d6000fd5b505050506040513d602081101561393657600080fd5b50518110156108325760405162461bcd60e51b81526004018080602001828103825260378152602001806140746037913960400191505060405180910390fd5b600360009054906101000a90046001600160a01b03166001600160a01b031663794e57246040518163ffffffff1660e01b815260040160206040518083038186803b1580156139c457600080fd5b505afa1580156139d8573d6000803e3d6000fd5b505050506040513d60208110156139ee57600080fd5b50518110156108325760405162461bcd60e51b81526004018080602001828103825260498152602001806142196049913960600191505060405180910390fd5b6040516000906001600160a01b0384169083908381818185875af1925050503d8060008114613a79576040519150601f19603f3d011682016040523d82523d6000602084013e613a7e565b606091505b5050905080610d925760405162461bcd60e51b815260040180806020018281038252602d815260200180613fbc602d913960400191505060405180910390fd5b846001600160a01b031663f2e91d71826040518263ffffffff1660e01b815260040180828152602001915050600060405180830381600087803b158015613b0457600080fd5b505af1158015613b18573d6000803e3d6000fd5b50505050836001600160a01b03166340c10f1984846040518363ffffffff1660e01b815260040180836001600160a01b03166001600160a01b0316815260200182815260200192505050600060405180830381600087803b158015613b7c57600080fd5b505af11580156137a2573d6000803e3d6000fd5b60008184841115613c1f5760405162461bcd60e51b81526004018080602001828103825283818151815260200191508051906020019080838360005b83811015613be4578181015183820152602001613bcc565b50505050905090810190601f168015613c115780820380516001836020036101000a031916815260200191505b509250505060405180910390fd5b505050900390565b600080613c32611518565b90506000613c3e61126b565b9050613c4b8282866132c0565b949350505050565b6000613c71836132de86670de0b6b3a764000063ffffffff613cc816565b905081811115610dbe576040805162461bcd60e51b815260206004820152601d60248201527f4665652065786365656465642070726f7669646564206d6178696d756d000000604482015290519081900360640190fd5b600082613cd757506000610d7b565b82820282848281613ce457fe5b0414612a0d5760405162461bcd60e51b81526004018080602001828103825260218152602001806141236021913960400191505060405180910390fd5b6000612a0d83836040518060400160405280601a81526020017f536166654d6174683a206469766973696f6e206279207a65726f000000000000815250613e3a565b600080878786613d8257613d7d8a8963ffffffff612a1416565b613d92565b613d928a8963ffffffff6129b316565b915084613dae57613da9898763ffffffff612a1416565b6136ae565b6136ae898763ffffffff6129b316565b80156108325760405162461bcd60e51b815260040180806020018281038252603e8152602001806141db603e913960400191505060405180910390fd5b80821015610da95760405162461bcd60e51b815260040180806020018281038252603e81526020018061436f603e913960400191505060405180910390fd5b60008183613e895760405162461bcd60e51b8152602060048201818152835160248401528351909283926044909101919085019080838360008315613be4578181015183820152602001613bcc565b506000838581613e9557fe5b0495945050505050565b604080516060810182526000808252602082018190529181019190915290565b604051806101e00160405280600081526020016000815260200160008152602001600015158152602001600081526020016000815260200160008152602001600081526020016000815260200160008152602001600081526020016000815260200160008152602001600081526020016000151581525090565b6040518061010001604052806000815260200160008152602001600081526020016000815260200160008152602001600081526020016000815260200160008152509056fe426f72726f7765724f70733a2043616c6c657220646f65736e74206861766520656e6f756768205a55534420746f206d616b652072657061796d656e74426f72726f7765724f70733a2053656e64696e672045544820746f20416374697665506f6f6c206661696c65644f776e61626c653a3a7365744f776e65723a20696e76616c69642061646472657373426f72726f7765724f7065726174696f6e733a2043616e6e6f7420776974686472617720616e642061646420636f6c6c426f72726f7765724f70733a204f7065726174696f6e206e6f74207065726d697474656420647572696e67205265636f76657279204d6f6465426f72726f7765724f70733a204f7065726174696f6e206d757374206c656176652074726f7665207769746820494352203e3d204343524d6178206665652070657263656e74616765206d757374206c657373207468616e206f7220657175616c20746f2031303025426f72726f7765724f70733a205468657265206d75737420626520656974686572206120636f6c6c61746572616c206368616e6765206f7220612064656274206368616e6765536166654d6174683a206d756c7469706c69636174696f6e206f766572666c6f77426f72726f7765724f70733a20416e206f7065726174696f6e207468617420776f756c6420726573756c7420696e20544352203c20434352206973206e6f74207065726d6974746564426f72726f7765724f70733a2054726f766520646f6573206e6f74206578697374206f7220697320636c6f736564c3770d654ed33aeea6bf11ac8ef05d02a6a04ed4686dd2f624d853bbec43cc8b426f72726f7765724f70733a20436f6c6c61746572616c207769746864726177616c206e6f74207065726d6974746564205265636f76657279204d6f6465426f72726f7765724f70733a20416e206f7065726174696f6e207468617420776f756c6420726573756c7420696e20494352203c204d4352206973206e6f74207065726d6974746564426f72726f7765724f70733a2054726f76652773206e65742064656274206d7573742062652067726561746572207468616e206d696e696d756d426f72726f7765724f70733a20416d6f756e7420726570616964206d757374206e6f74206265206c6172676572207468616e207468652054726f766527732064656274426f72726f7765724f70733a2043616c6c6572206973206e6f742053746162696c69747920506f6f6c4d6178206665652070657263656e74616765206d757374206265206265747765656e20302e352520616e642031303025426f72726f7765724f70733a204465627420696e637265617365207265717569726573206e6f6e2d7a65726f20646562744368616e6765426f72726f7765724f70733a2043616e6e6f7420646563726561736520796f75722054726f766527732049435220696e205265636f76657279204d6f6465a2646970667358221220bed0803de733ff6feebf1b194dfa12b10ca44a9d3686a55f150925eca078b40764736f6c634300060b00334f776e61626c653a3a7365744f776e65723a20696e76616c69642061646472657373",
  "linkReferences": {},
  "deployedLinkReferences": {}
}