{
  "_format": "hh-sol-artifact-1",
  "contractName": "MockBalanceRedirectPresale",
  "sourceName": "contracts/TestContracts/MockBalanceRedirectPresale.sol",
  "abi": [
    {
      "inputs": [],
      "name": "closePresale",
      "outputs": [],
      "stateMutability": "nonpayable",
      "type": "function"
    },
    {
      "inputs": [],
      "name": "isClosed",
      "outputs": [
        {
          "internalType": "bool",
          "name": "",
          "type": "bool"
        }
      ],
      "stateMutability": "view",
      "type": "function"
    },
    {
      "inputs": [],
      "name": "openPresale",
      "outputs": [],
      "stateMutability": "nonpayable",
      "type": "function"
    }
  ],
  "bytecode": "0x608060405234801561001057600080fd5b5060c38061001f6000396000f3fe6080604052348015600f57600080fd5b5060043610603c5760003560e01c806363cea4501460415780638dd98312146049578063c2b6b58c14604f575b600080fd5b60476069565b005b60476078565b60556084565b604080519115158252519081900360200190f35b6000805460ff19166001179055565b6000805460ff19169055565b60005460ff168156fea2646970667358221220fc2bed8e7b2d3230624b64c8532ad1cf8f5f34c5745b0b66bc2692d7c887c09e64736f6c634300060b0033",
  "linkReferences": {},
  "deployedLinkReferences": {}
}