{
    "_format": "hh-sol-artifact-1",
    "contractName": "BorrowerOperations",
    "sourceName": "contracts/BorrowerOperations.sol",
    "address": "0x51817B6D240D097883edF3B7B42b53A96d259D60",
    "abi": [
        {
            "anonymous": false,
            "inputs": [
                {
                    "indexed": false,
                    "internalType": "address",
                    "name": "_activePoolAddress",
                    "type": "address"
                }
            ],
            "name": "ActivePoolAddressChanged",
            "type": "event"
        },
        {
            "anonymous": false,
            "inputs": [
                {
                    "indexed": false,
                    "internalType": "address",
                    "name": "_collSurplusPoolAddress",
                    "type": "address"
                }
            ],
            "name": "CollSurplusPoolAddressChanged",
            "type": "event"
        },
        {
            "anonymous": false,
            "inputs": [
                {
                    "indexed": false,
                    "internalType": "address",
                    "name": "_defaultPoolAddress",
                    "type": "address"
                }
            ],
            "name": "DefaultPoolAddressChanged",
            "type": "event"
        },
        {
            "anonymous": false,
            "inputs": [
                {
                    "indexed": false,
                    "internalType": "address",
                    "name": "_feeDistributorAddress",
                    "type": "address"
                }
            ],
            "name": "FeeDistributorAddressChanged",
            "type": "event"
        },
        {
            "anonymous": false,
            "inputs": [
                {
                    "indexed": false,
                    "internalType": "address",
                    "name": "_gasPoolAddress",
                    "type": "address"
                }
            ],
            "name": "GasPoolAddressChanged",
            "type": "event"
        },
        {
            "anonymous": false,
            "inputs": [
                {
                    "indexed": true,
                    "internalType": "address",
                    "name": "previousOwner",
                    "type": "address"
                },
                {
                    "indexed": true,
                    "internalType": "address",
                    "name": "newOwner",
                    "type": "address"
                }
            ],
            "name": "OwnershipTransferred",
            "type": "event"
        },
        {
            "anonymous": false,
            "inputs": [
                {
                    "indexed": false,
                    "internalType": "address",
                    "name": "_newPriceFeedAddress",
                    "type": "address"
                }
            ],
            "name": "PriceFeedAddressChanged",
            "type": "event"
        },
        {
            "anonymous": false,
            "inputs": [
                {
                    "indexed": false,
                    "internalType": "address",
                    "name": "_sortedTrovesAddress",
                    "type": "address"
                }
            ],
            "name": "SortedTrovesAddressChanged",
            "type": "event"
        },
        {
            "anonymous": false,
            "inputs": [
                {
                    "indexed": false,
                    "internalType": "address",
                    "name": "_stabilityPoolAddress",
                    "type": "address"
                }
            ],
            "name": "StabilityPoolAddressChanged",
            "type": "event"
        },
        {
            "anonymous": false,
            "inputs": [
                {
                    "indexed": true,
                    "internalType": "address",
                    "name": "_borrower",
                    "type": "address"
                },
                {
                    "indexed": false,
                    "internalType": "uint256",
                    "name": "arrayIndex",
                    "type": "uint256"
                }
            ],
            "name": "TroveCreated",
            "type": "event"
        },
        {
            "anonymous": false,
            "inputs": [
                {
                    "indexed": false,
                    "internalType": "address",
                    "name": "_newTroveManagerAddress",
                    "type": "address"
                }
            ],
            "name": "TroveManagerAddressChanged",
            "type": "event"
        },
        {
            "anonymous": false,
            "inputs": [
                {
                    "indexed": true,
                    "internalType": "address",
                    "name": "_borrower",
                    "type": "address"
                },
                {
                    "indexed": false,
                    "internalType": "uint256",
                    "name": "_debt",
                    "type": "uint256"
                },
                {
                    "indexed": false,
                    "internalType": "uint256",
                    "name": "_coll",
                    "type": "uint256"
                },
                {
                    "indexed": false,
                    "internalType": "uint256",
                    "name": "stake",
                    "type": "uint256"
                },
                {
                    "indexed": false,
                    "internalType": "enum BorrowerOperations.BorrowerOperation",
                    "name": "operation",
                    "type": "uint8"
                }
            ],
            "name": "TroveUpdated",
            "type": "event"
        },
        {
            "anonymous": false,
            "inputs": [
                {
                    "indexed": false,
                    "internalType": "address",
                    "name": "_zeroStakingAddress",
                    "type": "address"
                }
            ],
            "name": "ZEROStakingAddressChanged",
            "type": "event"
        },
        {
            "anonymous": false,
            "inputs": [
                {
                    "indexed": true,
                    "internalType": "address",
                    "name": "_borrower",
                    "type": "address"
                },
                {
                    "indexed": false,
                    "internalType": "uint256",
                    "name": "_ZUSDFee",
                    "type": "uint256"
                }
            ],
            "name": "ZUSDBorrowingFeePaid",
            "type": "event"
        },
        {
            "anonymous": false,
            "inputs": [
                {
                    "indexed": false,
                    "internalType": "address",
                    "name": "_zusdTokenAddress",
                    "type": "address"
                }
            ],
            "name": "ZUSDTokenAddressChanged",
            "type": "event"
        },
        {
            "inputs": [],
            "name": "BORROWING_FEE_FLOOR",
            "outputs": [
                {
                    "internalType": "uint256",
                    "name": "",
                    "type": "uint256"
                }
            ],
            "stateMutability": "view",
            "type": "function"
        },
        {
            "inputs": [],
            "name": "DECIMAL_PRECISION",
            "outputs": [
                {
                    "internalType": "uint256",
                    "name": "",
                    "type": "uint256"
                }
            ],
            "stateMutability": "view",
            "type": "function"
        },
        {
            "inputs": [],
            "name": "MIN_NET_DEBT",
            "outputs": [
                {
                    "internalType": "uint256",
                    "name": "",
                    "type": "uint256"
                }
            ],
            "stateMutability": "view",
            "type": "function"
        },
        {
            "inputs": [],
            "name": "NAME",
            "outputs": [
                {
                    "internalType": "string",
                    "name": "",
                    "type": "string"
                }
            ],
            "stateMutability": "view",
            "type": "function"
        },
        {
            "inputs": [],
            "name": "ZUSD_GAS_COMPENSATION",
            "outputs": [
                {
                    "internalType": "uint256",
                    "name": "",
                    "type": "uint256"
                }
            ],
            "stateMutability": "view",
            "type": "function"
        },
        {
            "inputs": [],
            "name": "_100pct",
            "outputs": [
                {
                    "internalType": "uint256",
                    "name": "",
                    "type": "uint256"
                }
            ],
            "stateMutability": "view",
            "type": "function"
        },
        {
            "inputs": [],
            "name": "activePool",
            "outputs": [
                {
                    "internalType": "contract IActivePool",
                    "name": "",
                    "type": "address"
                }
            ],
            "stateMutability": "view",
            "type": "function"
        },
        {
            "inputs": [
                {
                    "internalType": "address",
                    "name": "_upperHint",
                    "type": "address"
                },
                {
                    "internalType": "address",
                    "name": "_lowerHint",
                    "type": "address"
                }
            ],
            "name": "addColl",
            "outputs": [],
            "stateMutability": "payable",
            "type": "function"
        },
        {
            "inputs": [
                {
                    "internalType": "uint256",
                    "name": "_maxFeePercentage",
                    "type": "uint256"
                },
                {
                    "internalType": "uint256",
                    "name": "_collWithdrawal",
                    "type": "uint256"
                },
                {
                    "internalType": "uint256",
                    "name": "_ZUSDChange",
                    "type": "uint256"
                },
                {
                    "internalType": "bool",
                    "name": "_isDebtIncrease",
                    "type": "bool"
                },
                {
                    "internalType": "address",
                    "name": "_upperHint",
                    "type": "address"
                },
                {
                    "internalType": "address",
                    "name": "_lowerHint",
                    "type": "address"
                }
            ],
            "name": "adjustNueTrove",
            "outputs": [],
            "stateMutability": "payable",
            "type": "function"
        },
        {
            "inputs": [
                {
                    "internalType": "uint256",
                    "name": "_maxFeePercentage",
                    "type": "uint256"
                },
                {
                    "internalType": "uint256",
                    "name": "_collWithdrawal",
                    "type": "uint256"
                },
                {
                    "internalType": "uint256",
                    "name": "_ZUSDChange",
                    "type": "uint256"
                },
                {
                    "internalType": "bool",
                    "name": "_isDebtIncrease",
                    "type": "bool"
                },
                {
                    "internalType": "address",
                    "name": "_upperHint",
                    "type": "address"
                },
                {
                    "internalType": "address",
                    "name": "_lowerHint",
                    "type": "address"
                }
            ],
            "name": "adjustTrove",
            "outputs": [],
            "stateMutability": "payable",
            "type": "function"
        },
        {
            "inputs": [],
            "name": "claimCollateral",
            "outputs": [],
            "stateMutability": "nonpayable",
            "type": "function"
        },
        {
            "inputs": [],
            "name": "closeNueTrove",
            "outputs": [],
            "stateMutability": "nonpayable",
            "type": "function"
        },
        {
            "inputs": [],
            "name": "closeTrove",
            "outputs": [],
            "stateMutability": "nonpayable",
            "type": "function"
        },
        {
            "inputs": [],
            "name": "defaultPool",
            "outputs": [
                {
                    "internalType": "contract IDefaultPool",
                    "name": "",
                    "type": "address"
                }
            ],
            "stateMutability": "view",
            "type": "function"
        },
        {
            "inputs": [],
            "name": "feeDistributor",
            "outputs": [
                {
                    "internalType": "contract IFeeDistributor",
                    "name": "",
                    "type": "address"
                }
            ],
            "stateMutability": "view",
            "type": "function"
        },
        {
            "inputs": [
                {
                    "internalType": "uint256",
                    "name": "_debt",
                    "type": "uint256"
                }
            ],
            "name": "getCompositeDebt",
            "outputs": [
                {
                    "internalType": "uint256",
                    "name": "",
                    "type": "uint256"
                }
            ],
            "stateMutability": "view",
            "type": "function"
        },
        {
            "inputs": [],
            "name": "getEntireSystemColl",
            "outputs": [
                {
                    "internalType": "uint256",
                    "name": "entireSystemColl",
                    "type": "uint256"
                }
            ],
            "stateMutability": "view",
            "type": "function"
        },
        {
            "inputs": [],
            "name": "getEntireSystemDebt",
            "outputs": [
                {
                    "internalType": "uint256",
                    "name": "entireSystemDebt",
                    "type": "uint256"
                }
            ],
            "stateMutability": "view",
            "type": "function"
        },
        {
            "inputs": [],
            "name": "getOwner",
            "outputs": [
                {
                    "internalType": "address",
                    "name": "_owner",
                    "type": "address"
                }
            ],
            "stateMutability": "view",
            "type": "function"
        },
        {
            "inputs": [],
            "name": "liquityBaseParams",
            "outputs": [
                {
                    "internalType": "contract ILiquityBaseParams",
                    "name": "",
                    "type": "address"
                }
            ],
            "stateMutability": "view",
            "type": "function"
        },
        {
            "inputs": [],
            "name": "masset",
            "outputs": [
                {
                    "internalType": "contract IMasset",
                    "name": "",
                    "type": "address"
                }
            ],
            "stateMutability": "view",
            "type": "function"
        },
        {
            "inputs": [
                {
                    "internalType": "address",
                    "name": "_borrower",
                    "type": "address"
                },
                {
                    "internalType": "address",
                    "name": "_upperHint",
                    "type": "address"
                },
                {
                    "internalType": "address",
                    "name": "_lowerHint",
                    "type": "address"
                }
            ],
            "name": "moveETHGainToTrove",
            "outputs": [],
            "stateMutability": "payable",
            "type": "function"
        },
        {
            "inputs": [
                {
                    "internalType": "uint256",
                    "name": "_maxFeePercentage",
                    "type": "uint256"
                },
                {
                    "internalType": "uint256",
                    "name": "_ZUSDAmount",
                    "type": "uint256"
                },
                {
                    "internalType": "address",
                    "name": "_upperHint",
                    "type": "address"
                },
                {
                    "internalType": "address",
                    "name": "_lowerHint",
                    "type": "address"
                }
            ],
            "name": "openNueTrove",
            "outputs": [],
            "stateMutability": "payable",
            "type": "function"
        },
        {
            "inputs": [
                {
                    "internalType": "uint256",
                    "name": "_maxFeePercentage",
                    "type": "uint256"
                },
                {
                    "internalType": "uint256",
                    "name": "_ZUSDAmount",
                    "type": "uint256"
                },
                {
                    "internalType": "address",
                    "name": "_upperHint",
                    "type": "address"
                },
                {
                    "internalType": "address",
                    "name": "_lowerHint",
                    "type": "address"
                }
            ],
            "name": "openTrove",
            "outputs": [],
            "stateMutability": "payable",
            "type": "function"
        },
        {
            "inputs": [],
            "name": "priceFeed",
            "outputs": [
                {
                    "internalType": "contract IPriceFeed",
                    "name": "",
                    "type": "address"
                }
            ],
            "stateMutability": "view",
            "type": "function"
        },
        {
            "inputs": [
                {
                    "internalType": "uint256",
                    "name": "_ZUSDAmount",
                    "type": "uint256"
                },
                {
                    "internalType": "address",
                    "name": "_upperHint",
                    "type": "address"
                },
                {
                    "internalType": "address",
                    "name": "_lowerHint",
                    "type": "address"
                }
            ],
            "name": "repayZUSD",
            "outputs": [],
            "stateMutability": "nonpayable",
            "type": "function"
        },
        {
            "inputs": [
                {
                    "internalType": "address",
                    "name": "_feeDistributorAddress",
                    "type": "address"
                },
                {
                    "internalType": "address",
                    "name": "_liquityBaseParamsAddress",
                    "type": "address"
                },
                {
                    "internalType": "address",
                    "name": "_troveManagerAddress",
                    "type": "address"
                },
                {
                    "internalType": "address",
                    "name": "_activePoolAddress",
                    "type": "address"
                },
                {
                    "internalType": "address",
                    "name": "_defaultPoolAddress",
                    "type": "address"
                },
                {
                    "internalType": "address",
                    "name": "_stabilityPoolAddress",
                    "type": "address"
                },
                {
                    "internalType": "address",
                    "name": "_gasPoolAddress",
                    "type": "address"
                },
                {
                    "internalType": "address",
                    "name": "_collSurplusPoolAddress",
                    "type": "address"
                },
                {
                    "internalType": "address",
                    "name": "_priceFeedAddress",
                    "type": "address"
                },
                {
                    "internalType": "address",
                    "name": "_sortedTrovesAddress",
                    "type": "address"
                },
                {
                    "internalType": "address",
                    "name": "_zusdTokenAddress",
                    "type": "address"
                },
                {
                    "internalType": "address",
                    "name": "_zeroStakingAddress",
                    "type": "address"
                }
            ],
            "name": "setAddresses",
            "outputs": [],
            "stateMutability": "nonpayable",
            "type": "function"
        },
        {
            "inputs": [
                {
                    "internalType": "address",
                    "name": "_massetAddress",
                    "type": "address"
                }
            ],
            "name": "setMassetAddress",
            "outputs": [],
            "stateMutability": "nonpayable",
            "type": "function"
        },
        {
            "inputs": [
                {
                    "internalType": "address",
                    "name": "_owner",
                    "type": "address"
                }
            ],
            "name": "setOwner",
            "outputs": [],
            "stateMutability": "nonpayable",
            "type": "function"
        },
        {
            "inputs": [],
            "name": "sortedTroves",
            "outputs": [
                {
                    "internalType": "contract ISortedTroves",
                    "name": "",
                    "type": "address"
                }
            ],
            "stateMutability": "view",
            "type": "function"
        },
        {
            "inputs": [],
            "name": "troveManager",
            "outputs": [
                {
                    "internalType": "contract ITroveManager",
                    "name": "",
                    "type": "address"
                }
            ],
            "stateMutability": "view",
            "type": "function"
        },
        {
            "inputs": [
                {
                    "internalType": "uint256",
                    "name": "_collWithdrawal",
                    "type": "uint256"
                },
                {
                    "internalType": "address",
                    "name": "_upperHint",
                    "type": "address"
                },
                {
                    "internalType": "address",
                    "name": "_lowerHint",
                    "type": "address"
                }
            ],
            "name": "withdrawColl",
            "outputs": [],
            "stateMutability": "nonpayable",
            "type": "function"
        },
        {
            "inputs": [
                {
                    "internalType": "uint256",
                    "name": "_maxFeePercentage",
                    "type": "uint256"
                },
                {
                    "internalType": "uint256",
                    "name": "_ZUSDAmount",
                    "type": "uint256"
                },
                {
                    "internalType": "address",
                    "name": "_upperHint",
                    "type": "address"
                },
                {
                    "internalType": "address",
                    "name": "_lowerHint",
                    "type": "address"
                }
            ],
            "name": "withdrawZUSD",
            "outputs": [],
            "stateMutability": "nonpayable",
            "type": "function"
        },
        {
            "inputs": [],
            "name": "zeroStaking",
            "outputs": [
                {
                    "internalType": "contract IZEROStaking",
                    "name": "",
                    "type": "address"
                }
            ],
            "stateMutability": "view",
            "type": "function"
        },
        {
            "inputs": [],
            "name": "zeroStakingAddress",
            "outputs": [
                {
                    "internalType": "address",
                    "name": "",
                    "type": "address"
                }
            ],
            "stateMutability": "view",
            "type": "function"
        },
        {
            "inputs": [],
            "name": "zusdToken",
            "outputs": [
                {
                    "internalType": "contract IZUSDToken",
                    "name": "",
                    "type": "address"
                }
            ],
            "stateMutability": "view",
            "type": "function"
        }
    ],
    "bytecode": "0x60806040523480156200001157600080fd5b5062000026336001600160e01b036200002c16565b62000118565b6001600160a01b038116620000735760405162461bcd60e51b8152600401808060200182810382526022815260200180620044f76022913960400191505060405180910390fd5b6001600160a01b038116620000906001600160e01b03620000ee16565b6001600160a01b03167f8be0079c531659141344cd1fd0a4f28419497f9722a3daafe3b4186f6b6457e060405160405180910390a3604080517035b2bc9737bbb730b136329737bbb732b960791b8152905190819003601101902055565b604080517035b2bc9737bbb730b136329737bbb732b960791b815290519081900360110190205490565b6143cf80620001286000396000f3fe6080604052600436106101cf5760003560e01c8063759b3034116100f8578063a3f4df7e11610090578063a3f4df7e146105e6578063ae91875414610670578063afbc74b514610685578063c560f02b146106c6578063c6a6cf20146106db578063ea9638bf14610723578063ec5472fd1461075b578063ec9f7d4614610770578063f92d343314610785576101cf565b8063759b303414610519578063795d26c31461052e5780637abb9af6146105435780637f7dde4a14610558578063860665b31461056d578063887105d3146105a7578063893d20e8146105bc5780639f070670146105d1578063a20baee61461045f576101cf565b8063485f190f1161016b578063485f190f146103305780634ff814431461036a5780635530273c1461039457806368647db1146103d55780636ea56960146104035780636f0b0c1c1461044a57806372fe25aa1461045f578063734f622d14610474578063741bef1a14610504576101cf565b80630d43e8ad146101d45780630e704d50146102055780630ff9a5121461021c57806313af4035146102315780631402b393146102645780631bf43555146102975780633cc74225146102be5780633d83908a146102d35780634199f6e2146102e8575b600080fd5b3480156101e057600080fd5b506101e961079a565b604080516001600160a01b039092168252519081900360200190f35b34801561021157600080fd5b5061021a6107a9565b005b34801561022857600080fd5b506101e96107b3565b34801561023d57600080fd5b5061021a6004803603602081101561025457600080fd5b50356001600160a01b03166107c2565b34801561027057600080fd5b5061021a6004803603602081101561028757600080fd5b50356001600160a01b0316610835565b3480156102a357600080fd5b506102ac6108be565b60408051918252519081900360200190f35b3480156102ca57600080fd5b506101e96108cb565b3480156102df57600080fd5b506101e96108da565b61021a600480360360c08110156102fe57600080fd5b5080359060208101359060408101359060608101351515906001600160a01b03608082013581169160a00135166108e9565b61021a6004803603608081101561034657600080fd5b508035906020810135906001600160a01b0360408201358116916060013516610bd7565b34801561037657600080fd5b506102ac6004803603602081101561038d57600080fd5b5035610e0e565b3480156103a057600080fd5b5061021a600480360360608110156103b757600080fd5b508035906001600160a01b0360208201358116916040013516610e1f565b61021a600480360360408110156103eb57600080fd5b506001600160a01b0381358116916020013516610e35565b34801561040f57600080fd5b5061021a6004803603608081101561042657600080fd5b508035906020810135906001600160a01b0360408201358116916060013516610e4b565b34801561045657600080fd5b5061021a610e62565b34801561046b57600080fd5b506102ac610ec2565b34801561048057600080fd5b5061021a600480360361018081101561049857600080fd5b506001600160a01b038135811691602081013582169160408201358116916060810135821691608082013581169160a081013582169160c082013581169160e0810135821691610100820135811691610120810135821691610140820135811691610160013516610ece565b34801561051057600080fd5b506101e96112ed565b34801561052557600080fd5b506102ac6112fc565b34801561053a57600080fd5b506102ac611309565b34801561054f57600080fd5b5061021a611408565b34801561056457600080fd5b506101e9611598565b61021a6004803603608081101561058357600080fd5b508035906020810135906001600160a01b03604082013581169160600135166115a7565b3480156105b357600080fd5b506102ac6115b4565b3480156105c857600080fd5b506101e9611670565b3480156105dd57600080fd5b506101e961169a565b3480156105f257600080fd5b506105fb6116a9565b6040805160208082528351818301528351919283929083019185019080838360005b8381101561063557818101518382015260200161061d565b50505050905090810190601f1680156106625780820380516001836020036101000a031916815260200191505b509250505060405180910390f35b34801561067c57600080fd5b506101e96116d7565b34801561069157600080fd5b5061021a600480360360608110156106a857600080fd5b508035906001600160a01b03602082013581169160400135166116e6565b3480156106d257600080fd5b506101e96116f8565b61021a600480360360c08110156106f157600080fd5b5080359060208101359060408101359060608101351515906001600160a01b03608082013581169160a0013516611707565b61021a6004803603606081101561073957600080fd5b506001600160a01b038135811691602081013582169160409091013516611716565b34801561076757600080fd5b506101e9611730565b34801561077c57600080fd5b506101e961173f565b34801561079157600080fd5b506102ac61174e565b600d546001600160a01b031681565b6107b16117c4565b565b6009546001600160a01b031681565b6107ca611670565b6001600160a01b0316336001600160a01b031614610829576040805162461bcd60e51b815260206004820152601760248201527613dddb98589b194e8e881858d8d95cdcc819195b9a5959604a1b604482015290519081900360640190fd5b61083281611bbf565b50565b61083d611670565b6001600160a01b0316336001600160a01b03161461089c576040805162461bcd60e51b815260206004820152601760248201527613dddb98589b194e8e881858d8d95cdcc819195b9a5959604a1b604482015290519081900360640190fd5b600c80546001600160a01b0319166001600160a01b0392909216919091179055565b6809c2007651b250000081565b6001546001600160a01b031681565b6004546001600160a01b031681565b600c546001600160a01b031661093f576040805162461bcd60e51b815260206004820152601660248201527513585cdcd95d081859191c995cdcc81b9bdd081cd95d60521b604482015290519081900360640190fd5b8215801561094d5750600084115b156109de57600c54600a54604080516316e76cd160e31b81526001600160a01b039283166004820152602481018890523360448201529051919092169163b73b66889160648083019260209291908290030181600087803b1580156109b157600080fd5b505af11580156109c5573d6000803e3d6000fd5b505050506040513d60208110156109db57600080fd5b50505b6109ee3386868686868c30611c74565b8280156109fb5750600084115b15610bcf57600a54600c546040805163a9059cbb60e01b81526001600160a01b039283166004820152602481018890529051919092169163a9059cbb9160448083019260209291908290030181600087803b158015610a5957600080fd5b505af1158015610a6d573d6000803e3d6000fd5b505050506040513d6020811015610a8357600080fd5b5051610ad6576040805162461bcd60e51b815260206004820152601e60248201527f436f756c646e27742065786563757465205a555344207472616e736665720000604482015290519081900360640190fd5b600c54600a5460408051336020808301919091528251808303820181528284019384905263c4a5863760e01b909352604482018981526001600160a01b0394851660648401819052606060848501908152855160a48601528551969097169663c4a58637968c9692959294919260c4019185019080838360005b83811015610b68578181015183820152602001610b50565b50505050905090810190601f168015610b955780820380516001836020036101000a031916815260200191505b50945050505050600060405180830381600087803b158015610bb657600080fd5b505af1158015610bca573d6000803e3d6000fd5b505050505b505050505050565b600c546001600160a01b0316610c2d576040805162461bcd60e51b815260206004820152601660248201527513585cdcd95d081859191c995cdcc81b9bdd081cd95d60521b604482015290519081900360640190fd5b610c3a8484848430612287565b600a54600c546040805163a9059cbb60e01b81526001600160a01b039283166004820152602481018790529051919092169163a9059cbb9160448083019260209291908290030181600087803b158015610c9357600080fd5b505af1158015610ca7573d6000803e3d6000fd5b505050506040513d6020811015610cbd57600080fd5b5051610d10576040805162461bcd60e51b815260206004820152601e60248201527f436f756c646e27742065786563757465205a555344207472616e736665720000604482015290519081900360640190fd5b600c54600a5460408051336020808301919091528251808303820181528284019384905263c4a5863760e01b909352604482018881526001600160a01b0394851660648401819052606060848501908152855160a48601528551969097169663c4a58637968b9692959294919260c4019185019080838360005b83811015610da2578181015183820152602001610d8a565b50505050905090810190601f168015610dcf5780820380516001836020036101000a031916815260200191505b50945050505050600060405180830381600087803b158015610df057600080fd5b505af1158015610e04573d6000803e3d6000fd5b5050505050505050565b6000610e19826128bd565b92915050565b610e303384600080868660006128d8565b505050565b610e47336000806000868660006128d8565b5050565b610e5c33600085600186868a6128d8565b50505050565b6007546040805163b32beb5b60e01b815233600482015290516001600160a01b039092169163b32beb5b9160248082019260009290919082900301818387803b158015610eae57600080fd5b505af1158015610e5c573d6000803e3d6000fd5b670de0b6b3a764000081565b610ed6611670565b6001600160a01b0316336001600160a01b031614610f35576040805162461bcd60e51b815260206004820152601760248201527613dddb98589b194e8e881858d8d95cdcc819195b9a5959604a1b604482015290519081900360640190fd5b610f3e8c6128f1565b610f478b6128f1565b610f508a6128f1565b610f59896128f1565b610f62886128f1565b610f6b876128f1565b610f74866128f1565b610f7d856128f1565b610f86846128f1565b610f8f836128f1565b610f98826128f1565b610fa1816128f1565b600d80546001600160a01b03199081166001600160a01b038f81169182179093556003805483168f85161790556004805483168e85161790556000805483168d85161790556001805483168c85161790556005805483168b85161790556006805483168a8516179055600780548316898516179055600280548316888516179055600b80548316878516179055600a80548316868516179055600980548316938516938417905560088054909216909217905560408051918252517f84861842e6a98dd759145eb5e7b48279d0f02ebeabc8a69e5196b2f4c5023db9916020908290030190a1604080516001600160a01b038c16815290517f143219c9e69b09e07e095fcc889b43d8f46ca892bba65f08dc3a0050869a56789181900360200190a1604080516001600160a01b038b16815290517f78f058b189175430c48dc02699e3a0031ea4ff781536dc2fab847de4babdd8829181900360200190a1604080516001600160a01b038a16815290517f5ee0cae2f063ed938bb55046f6a932fb6ae792bf43624806bb90abe68a50be9b9181900360200190a1604080516001600160a01b038916815290517f82966d27eea39b038ee0fa30cd16532bb24f6e65d31cb58fb227aa5766cdcc7f9181900360200190a1604080516001600160a01b038816815290517fcfb07d791fcafc032b35837b50eb84b74df518cf4cc287e8084f47630fa70fa09181900360200190a1604080516001600160a01b038716815290517fe67f36a6e961157d6eff83b91f3af5a62131ceb6f04954ef74f51c1c05e7f88d9181900360200190a1604080516001600160a01b038616815290517f8c537274438aa850a330284665d81a85dd38267d09e4050d416bfc94142db2649181900360200190a1604080516001600160a01b038516815290517f65f4cf077bc01e4742eb5ad98326f6e95b63548ea24b17f8d5e823111fe788009181900360200190a1604080516001600160a01b038416815290517fcdf33850c44a1a874b5fefb51dae615ac6afebd581ef90d571f81b06541d8e9d9181900360200190a1604080516001600160a01b038316815290517f7624075ed781e3aa34b0f492d70d1bb5a6fcde04534165e20f990d2e546be4dd9181900360200190a1505050505050505050505050565b6002546001600160a01b031681565b6801158e460913d0000081565b60008054604080516272c7d360e71b8152905183926001600160a01b031691633963e980916004808301926020929190829003018186803b15801561134d57600080fd5b505afa158015611361573d6000803e3d6000fd5b505050506040513d602081101561137757600080fd5b5051600154604080516272c7d360e71b815290519293506000926001600160a01b0390921691633963e98091600480820192602092909190829003018186803b1580156113c357600080fd5b505afa1580156113d7573d6000803e3d6000fd5b505050506040513d60208110156113ed57600080fd5b50519050611401828263ffffffff6129a016565b9250505090565b600c546001600160a01b031661145e576040805162461bcd60e51b815260206004820152601660248201527513585cdcd95d081859191c995cdcc81b9bdd081cd95d60521b604482015290519081900360640190fd5b600480546040805163d66a255360e01b81523393810193909352516000926001600160a01b039092169163d66a2553916024808301926020929190829003018186803b1580156114ad57600080fd5b505afa1580156114c1573d6000803e3d6000fd5b505050506040513d60208110156114d757600080fd5b5051600c54600a549192506001600160a01b039081169163b73b6688911661150e846801158e460913d0000063ffffffff612a0116565b604080516001600160e01b031960e086901b1681526001600160a01b03909316600484015260248301919091523360448301525160648083019260209291908290030181600087803b15801561156357600080fd5b505af1158015611577573d6000803e3d6000fd5b505050506040513d602081101561158d57600080fd5b5061083290506117c4565b6000546001600160a01b031681565b610e5c8484848433612287565b6000805460408051630a7b61df60e11b8152905183926001600160a01b0316916314f6c3be916004808301926020929190829003018186803b1580156115f957600080fd5b505afa15801561160d573d6000803e3d6000fd5b505050506040513d602081101561162357600080fd5b505160015460408051630a7b61df60e11b815290519293506000926001600160a01b03909216916314f6c3be91600480820192602092909190829003018186803b1580156113c357600080fd5b604080517035b2bc9737bbb730b136329737bbb732b960791b815290519081900360110190205490565b6003546001600160a01b031681565b60405180604001604052806012815260200171426f72726f7765724f7065726174696f6e7360701b81525081565b600b546001600160a01b031681565b610e30336000856000868660006128d8565b600c546001600160a01b031681565b610bcf3386868686868c6128d8565b61171e612a43565b610e30836000806000868660006128d8565b6008546001600160a01b031681565b600a546001600160a01b031681565b6003546040805163f92d343360e01b815290516000926001600160a01b03169163f92d3433916004808301926020929190829003018186803b15801561179357600080fd5b505afa1580156117a7573d6000803e3d6000fd5b505050506040513d60208110156117bd57600080fd5b5051905090565b600454600054600a546001600160a01b039283169291821691166117e88333612a8c565b60025460408051630fdb11cf60e01b815290516000926001600160a01b031691630fdb11cf91600480830192602092919082900301818787803b15801561182e57600080fd5b505af1158015611842573d6000803e3d6000fd5b505050506040513d602081101561185857600080fd5b5051905061186581612b51565b60408051630b07655760e01b815233600482015290516001600160a01b03861691630b07655791602480830192600092919082900301818387803b1580156118ac57600080fd5b505af11580156118c0573d6000803e3d6000fd5b5050604080516309019aaf60e31b81523360048201529051600093506001600160a01b038816925063480cd57891602480820192602092909190829003018186803b15801561190e57600080fd5b505afa158015611922573d6000803e3d6000fd5b505050506040513d602081101561193857600080fd5b50516040805163d66a255360e01b815233600482015290519192506000916001600160a01b0388169163d66a2553916024808301926020929190829003018186803b15801561198657600080fd5b505afa15801561199a573d6000803e3d6000fd5b505050506040513d60208110156119b057600080fd5b505190506119d784336119d2846801158e460913d0000063ffffffff612a0116565b612b96565b60006119e883600084600088612c56565b90506119f381612ce1565b60408051631fc5750960e31b815233600482015290516001600160a01b0389169163fe2ba84891602480830192600092919082900301818387803b158015611a3a57600080fd5b505af1158015611a4e573d6000803e3d6000fd5b5050604080516365e89c5760e11b815233600482015290516001600160a01b038b16935063cbd138ae9250602480830192600092919082900301818387803b158015611a9957600080fd5b505af1158015611aad573d6000803e3d6000fd5b50505050336001600160a01b03166000805160206141a88339815191526000806000600160405180858152602001848152602001838152602001826002811115611af357fe5b60ff16815260200194505050505060405180910390a2611b2d868633611b28866801158e460913d0000063ffffffff612a0116565b612d99565b600654611b5090879087906001600160a01b03166801158e460913d00000612d99565b604080516364a197f360e01b81523360048201526024810185905290516001600160a01b038816916364a197f391604480830192600092919082900301818387803b158015611b9e57600080fd5b505af1158015611bb2573d6000803e3d6000fd5b5050505050505050505050565b6001600160a01b038116611c045760405162461bcd60e51b8152600401808060200182810382526022815260200180613fd66022913960400191505060405180910390fd5b806001600160a01b0316611c16611670565b6001600160a01b03167f8be0079c531659141344cd1fd0a4f28419497f9722a3daafe3b4186f6b6457e060405160405180910390a3604080517035b2bc9737bbb730b136329737bbb732b960791b8152905190819003601101902055565b611c7c613e8c565b50604080516060810182526004546001600160a01b03908116825260005481166020830152600a541691810191909152611cb4613eac565b600260009054906101000a90046001600160a01b03166001600160a01b0316630fdb11cf6040518163ffffffff1660e01b8152600401602060405180830381600087803b158015611d0457600080fd5b505af1158015611d18573d6000803e3d6000fd5b505050506040513d6020811015611d2e57600080fd5b5051808252611d3c90612e57565b15156101c08201528615611d6257611d5984826101c00151612ee6565b611d6288613004565b611d6b89613043565b611d758989613089565b8151611d81908b612a8c565b336001600160a01b038b161480611db757506005546001600160a01b031633148015611dad5750600034115b8015611db7575087155b611dbd57fe5b81600001516001600160a01b0316630b0765578b6040518263ffffffff1660e01b815260040180826001600160a01b03166001600160a01b03168152602001915050600060405180830381600087803b158015611e1957600080fd5b505af1158015611e2d573d6000803e3d6000fd5b50505050611e3b348a6130db565b15156060830152602082015260408101889052868015611e5e5750806101c00151155b15611e9957611e77826000015183604001518a876130fa565b61012082018190526040820151611e939163ffffffff6129a016565b60408201525b81600001516001600160a01b031663d66a25538b6040518263ffffffff1660e01b815260040180826001600160a01b03166001600160a01b0316815260200191505060206040518083038186803b158015611ef357600080fd5b505afa158015611f07573d6000803e3d6000fd5b505050506040513d6020811015611f1d57600080fd5b505160808201528151604080516309019aaf60e31b81526001600160a01b038d811660048301529151919092169163480cd578916024808301926020929190829003018186803b158015611f7057600080fd5b505afa158015611f84573d6000803e3d6000fd5b505050506040513d6020811015611f9a57600080fd5b505160a0820181905260808201518251611fb59291906132ad565b8160c0018181525050611fe58160a0015182608001518360200151846060015185604001518c87600001516132eb565b60e082015260a0810151891115611ff857fe5b612009816101c001518a898461331e565b861580156120175750600088115b1561206a5761204561204082604001516120348460800151613392565b9063ffffffff612a0116565b6133ad565b612057816080015182604001516133f5565b61206a82604001518b8360400151612b96565b61208882600001518b8360200151846060015185604001518c61344c565b610140830152610160820152815160408051630c7940bd60e11b81526001600160a01b038d81166004830152915191909216916318f2817a9160248083019260209291908290030181600087803b1580156120e257600080fd5b505af11580156120f6573d6000803e3d6000fd5b505050506040513d602081101561210c57600080fd5b505161018082015260a0810151608082015160208301516060840151604085015161213b94939291908c6136ac565b6101a08201819052600b546040805163015f109360e51b81526001600160a01b038e8116600483015260248201949094528984166044820152888416606482015290519290911691632be212609160848082019260009290919082900301818387803b1580156121aa57600080fd5b505af11580156121be573d6000803e3d6000fd5b50505050896001600160a01b03166000805160206141a883398151915282610140015183610160015184610180015160026040518085815260200184815260200183815260200182600281111561221157fe5b60ff16815260200194505050505060405180910390a2610120810151604080519182525133917f71457d8a5ab7e4561ed49d05338674b73ac3b83b0b315f165f5b12bcc0022741919081900360200190a2610bca8260200151836040015133846020015185606001518d8d88604001518b6136dd565b61228f613e8c565b50604080516060810182526004546001600160a01b03908116825260005481166020830152600a5416918101919091526122c7613f26565b600260009054906101000a90046001600160a01b03166001600160a01b0316630fdb11cf6040518163ffffffff1660e01b8152600401602060405180830381600087803b15801561231757600080fd5b505af115801561232b573d6000803e3d6000fd5b505050506040513d602081101561234157600080fd5b505180825260009061235290612e57565b905061235e8882612ee6565b825161236a903361379a565b60408201879052806123ab5761238a83600001518460400151898b6130fa565b6020830181905260408301516123a59163ffffffff6129a016565b60408301525b6123b882604001516133ad565b6123c582604001516128bd565b606083018190526123d257fe5b6123e534836060015184600001516132ad565b608083015260608201516123fa903490613876565b60a083015280156124175761241282608001516138ab565b61244a565b6124248260800151613963565b600061243d346001856060015160018760000151612c56565b905061244881612ce1565b505b825160408051635d6b480f60e01b81523360048201526001602482015290516001600160a01b0390921691635d6b480f9160448082019260009290919082900301818387803b15801561249c57600080fd5b505af11580156124b0573d6000803e3d6000fd5b50508451604080516372423c1760e01b815233600482015234602482015290516001600160a01b0390921693506372423c1792506044808201926020929091908290030181600087803b15801561250657600080fd5b505af115801561251a573d6000803e3d6000fd5b505050506040513d602081101561253057600080fd5b50508251606083015160408051639976cf4560e01b81523360048201526024810192909252516001600160a01b0390921691639976cf45916044808201926020929091908290030181600087803b15801561258a57600080fd5b505af115801561259e573d6000803e3d6000fd5b505050506040513d60208110156125b457600080fd5b50508251604080516382fe3eb960e01b815233600482015290516001600160a01b03909216916382fe3eb99160248082019260009290919082900301818387803b15801561260157600080fd5b505af1158015612615573d6000803e3d6000fd5b5050845160408051630c7940bd60e11b815233600482015290516001600160a01b0390921693506318f2817a92506024808201926020929091908290030181600087803b15801561266557600080fd5b505af1158015612679573d6000803e3d6000fd5b505050506040513d602081101561268f57600080fd5b505160c0830152600b5460a0830151604080516346f7cf8760e01b815233600482015260248101929092526001600160a01b038981166044840152888116606484015290519216916346f7cf879160848082019260009290919082900301818387803b1580156126fe57600080fd5b505af1158015612712573d6000803e3d6000fd5b50508451604080516315d549f160e01b815233600482015290516001600160a01b0390921693506315d549f192506024808201926020929091908290030181600087803b15801561276257600080fd5b505af1158015612776573d6000803e3d6000fd5b505050506040513d602081101561278c57600080fd5b505160e08301819052604080519182525133917f59cfd0cd754bc5748b6770e94a4ffa5f678d885cb899dcfadc5734edb97c67ab919081900360200190a26127d8836020015134613a1b565b6127f183602001518460400151868a8660400151613aab565b6020830151604084015160065461281d9291906001600160a01b03166801158e460913d0000080613aab565b336001600160a01b03166000805160206141a88339815191528360600151348560c0015160006040518085815260200184815260200183815260200182600281111561286557fe5b60ff16815260200194505050505060405180910390a2602080830151604080519182525133927f71457d8a5ab7e4561ed49d05338674b73ac3b83b0b315f165f5b12bcc0022741928290030190a25050505050505050565b6000610e19826801158e460913d0000063ffffffff6129a016565b6128e88787878787878733611c74565b50505050505050565b6001600160a01b03811661294c576040805162461bcd60e51b815260206004820152601e60248201527f4163636f756e742063616e6e6f74206265207a65726f20616464726573730000604482015290519081900360640190fd5b803b80610e47576040805162461bcd60e51b815260206004820181905260248201527f4163636f756e7420636f64652073697a652063616e6e6f74206265207a65726f604482015290519081900360640190fd5b6000828201838110156129fa576040805162461bcd60e51b815260206004820152601b60248201527f536166654d6174683a206164646974696f6e206f766572666c6f770000000000604482015290519081900360640190fd5b9392505050565b60006129fa83836040518060400160405280601e81526020017f536166654d6174683a207375627472616374696f6e206f766572666c6f770000815250613b7d565b6005546001600160a01b031633146107b15760405162461bcd60e51b81526004018080602001828103825260298152602001806142cc6029913960400191505060405180910390fd5b6000826001600160a01b03166321e37801836040518263ffffffff1660e01b815260040180826001600160a01b03166001600160a01b0316815260200191505060206040518083038186803b158015612ae457600080fd5b505afa158015612af8573d6000803e3d6000fd5b505050506040513d6020811015612b0e57600080fd5b5051905060018114610e305760405162461bcd60e51b815260040180806020018281038252602e81526020018061417a602e913960400191505060405180910390fd5b612b5a81612e57565b156108325760405162461bcd60e51b81526004018080602001828103825260398152602001806140286039913960400191505060405180910390fd5b80836001600160a01b03166370a08231846040518263ffffffff1660e01b815260040180826001600160a01b03166001600160a01b0316815260200191505060206040518083038186803b158015612bed57600080fd5b505afa158015612c01573d6000803e3d6000fd5b505050506040513d6020811015612c1757600080fd5b50511015610e305760405162461bcd60e51b815260040180806020018281038252603d815260200180613f6c603d913960400191505060405180910390fd5b600080612c616115b4565b90506000612c6d611309565b905086612c8957612c84828963ffffffff612a0116565b612c99565b612c99828963ffffffff6129a016565b915084612cb557612cb0818763ffffffff612a0116565b612cc5565b612cc5818763ffffffff6129a016565b90506000612cd48383876132ad565b9998505050505050505050565b600360009054906101000a90046001600160a01b03166001600160a01b0316635733d58f6040518163ffffffff1660e01b815260040160206040518083038186803b158015612d2f57600080fd5b505afa158015612d43573d6000803e3d6000fd5b505050506040513d6020811015612d5957600080fd5b50518110156108325760405162461bcd60e51b81526004018080602001828103825260498152602001806141316049913960600191505060405180910390fd5b836001600160a01b0316632439789a826040518263ffffffff1660e01b815260040180828152602001915050600060405180830381600087803b158015612ddf57600080fd5b505af1158015612df3573d6000803e3d6000fd5b50505050826001600160a01b0316639dc29fac83836040518363ffffffff1660e01b815260040180836001600160a01b03166001600160a01b0316815260200182815260200192505050600060405180830381600087803b158015610df057600080fd5b600080612e6383613c14565b9050600360009054906101000a90046001600160a01b03166001600160a01b0316635733d58f6040518163ffffffff1660e01b815260040160206040518083038186803b158015612eb357600080fd5b505afa158015612ec7573d6000803e3d6000fd5b505050506040513d6020811015612edd57600080fd5b50511192915050565b8015612f3857670de0b6b3a7640000821115612f335760405162461bcd60e51b81526004018080602001828103825260328152602001806140986032913960400191505060405180910390fd5b610e47565b600360009054906101000a90046001600160a01b03166001600160a01b031663f92d34336040518163ffffffff1660e01b815260040160206040518083038186803b158015612f8657600080fd5b505afa158015612f9a573d6000803e3d6000fd5b505050506040513d6020811015612fb057600080fd5b50518210801590612fc95750670de0b6b3a76400008211155b610e475760405162461bcd60e51b81526004018080602001828103825260308152602001806142f56030913960400191505060405180910390fd5b600081116108325760405162461bcd60e51b81526004018080602001828103825260378152602001806143256037913960400191505060405180910390fd5b34158061304e575080155b6108325760405162461bcd60e51b8152600401808060200182810382526030815260200180613ff86030913960400191505060405180910390fd5b3415158061309657508115155b806130a057508015155b610e475760405162461bcd60e51b81526004018080602001828103825260468152602001806140ca6046913960600191505060405180910390fd5b60008083156130ef575082905060016130f3565b8291505b9250929050565b6000846001600160a01b0316635dba4c4a6040518163ffffffff1660e01b8152600401600060405180830381600087803b15801561313757600080fd5b505af115801561314b573d6000803e3d6000fd5b505050506000856001600160a01b031663631203b0856040518263ffffffff1660e01b81526004018082815260200191505060206040518083038186803b15801561319557600080fd5b505afa1580156131a9573d6000803e3d6000fd5b505050506040513d60208110156131bf57600080fd5b505190506131ce818585613c40565b600d54604080516340c10f1960e01b81526001600160a01b039283166004820152602481018490529051918716916340c10f199160448082019260009290919082900301818387803b15801561322357600080fd5b505af1158015613237573d6000803e3d6000fd5b50505050600d60009054906101000a90046001600160a01b03166001600160a01b031663bb57ad206040518163ffffffff1660e01b8152600401600060405180830381600087803b15801561328b57600080fd5b505af115801561329f573d6000803e3d6000fd5b509298975050505050505050565b600082156132e05760006132d7846132cb878663ffffffff613cb516565b9063ffffffff613d0e16565b91506129fa9050565b506000199392505050565b60008060006132fe8a8a8a8a8a8a613d50565b91509150600061330f8383876132ad565b9b9a5050505050505050505050565b83156133575761332d83613dab565b8115613352576133408160e001516138ab565b6133528160e001518260c00151613de8565b610e5c565b6133648160e00151613963565b613381816020015182606001518360400151858560000151612c56565b6101008201819052610e5c90612ce1565b6000610e19826801158e460913d0000063ffffffff612a0116565b6809c2007651b25000008110156108325760405162461bcd60e51b815260040180806020018281038252603a81526020018061424f603a913960400191505060405180910390fd5b61340e826801158e460913d0000063ffffffff612a0116565b811115610e475760405162461bcd60e51b81526004018080602001828103825260438152602001806142896043913960600191505060405180910390fd5b6000806000856134e757886001600160a01b031663d3d6f84389896040518363ffffffff1660e01b815260040180836001600160a01b03166001600160a01b0316815260200182815260200192505050602060405180830381600087803b1580156134b657600080fd5b505af11580156134ca573d6000803e3d6000fd5b505050506040513d60208110156134e057600080fd5b5051613574565b886001600160a01b03166372423c1789896040518363ffffffff1660e01b815260040180836001600160a01b03166001600160a01b0316815260200182815260200192505050602060405180830381600087803b15801561354757600080fd5b505af115801561355b573d6000803e3d6000fd5b505050506040513d602081101561357157600080fd5b50515b905060008461360e57896001600160a01b03166312610e928a886040518363ffffffff1660e01b815260040180836001600160a01b03166001600160a01b0316815260200182815260200192505050602060405180830381600087803b1580156135dd57600080fd5b505af11580156135f1573d6000803e3d6000fd5b505050506040513d602081101561360757600080fd5b505161369b565b896001600160a01b0316639976cf458a886040518363ffffffff1660e01b815260040180836001600160a01b03166001600160a01b0316815260200182815260200192505050602060405180830381600087803b15801561366e57600080fd5b505af1158015613682573d6000803e3d6000fd5b505050506040513d602081101561369857600080fd5b50515b919a91995090975050505050505050565b60008060006136bf898989898989613d50565b9150915060006136cf8383613876565b9a9950505050505050505050565b82156136f5576136f08989838786613aab565b613701565b61370189898987612d99565b8415613716576137118987613a1b565b61378f565b886001600160a01b03166364a197f388886040518363ffffffff1660e01b815260040180836001600160a01b03166001600160a01b0316815260200182815260200192505050600060405180830381600087803b15801561377657600080fd5b505af115801561378a573d6000803e3d6000fd5b505050505b505050505050505050565b6000826001600160a01b03166321e37801836040518263ffffffff1660e01b815260040180826001600160a01b03166001600160a01b0316815260200191505060206040518083038186803b1580156137f257600080fd5b505afa158015613806573d6000803e3d6000fd5b505050506040513d602081101561381c57600080fd5b505190506001811415610e30576040805162461bcd60e51b815260206004820152601c60248201527f426f72726f7765724f70733a2054726f76652069732061637469766500000000604482015290519081900360640190fd5b600081156138a25761389b826132cb8568056bc75e2d6310000063ffffffff613cb516565b9050610e19565b50600019610e19565b600360009054906101000a90046001600160a01b03166001600160a01b0316635733d58f6040518163ffffffff1660e01b815260040160206040518083038186803b1580156138f957600080fd5b505afa15801561390d573d6000803e3d6000fd5b505050506040513d602081101561392357600080fd5b50518110156108325760405162461bcd60e51b81526004018080602001828103825260378152602001806140616037913960400191505060405180910390fd5b600360009054906101000a90046001600160a01b03166001600160a01b031663794e57246040518163ffffffff1660e01b815260040160206040518083038186803b1580156139b157600080fd5b505afa1580156139c5573d6000803e3d6000fd5b505050506040513d60208110156139db57600080fd5b50518110156108325760405162461bcd60e51b81526004018080602001828103825260498152602001806142066049913960600191505060405180910390fd5b6040516000906001600160a01b0384169083908381818185875af1925050503d8060008114613a66576040519150601f19603f3d011682016040523d82523d6000602084013e613a6b565b606091505b5050905080610e305760405162461bcd60e51b815260040180806020018281038252602d815260200180613fa9602d913960400191505060405180910390fd5b846001600160a01b031663f2e91d71826040518263ffffffff1660e01b815260040180828152602001915050600060405180830381600087803b158015613af157600080fd5b505af1158015613b05573d6000803e3d6000fd5b50505050836001600160a01b03166340c10f1984846040518363ffffffff1660e01b815260040180836001600160a01b03166001600160a01b0316815260200182815260200192505050600060405180830381600087803b158015613b6957600080fd5b505af115801561378f573d6000803e3d6000fd5b60008184841115613c0c5760405162461bcd60e51b81526004018080602001828103825283818151815260200191508051906020019080838360005b83811015613bd1578181015183820152602001613bb9565b50505050905090810190601f168015613bfe5780820380516001836020036101000a031916815260200191505b509250505060405180910390fd5b505050900390565b600080613c1f6115b4565b90506000613c2b611309565b9050613c388282866132ad565b949350505050565b6000613c5e836132cb86670de0b6b3a764000063ffffffff613cb516565b905081811115610e5c576040805162461bcd60e51b815260206004820152601d60248201527f4665652065786365656465642070726f7669646564206d6178696d756d000000604482015290519081900360640190fd5b600082613cc457506000610e19565b82820282848281613cd157fe5b04146129fa5760405162461bcd60e51b81526004018080602001828103825260218152602001806141106021913960400191505060405180910390fd5b60006129fa83836040518060400160405280601a81526020017f536166654d6174683a206469766973696f6e206279207a65726f000000000000815250613e27565b600080878786613d6f57613d6a8a8963ffffffff612a0116565b613d7f565b613d7f8a8963ffffffff6129a016565b915084613d9b57613d96898763ffffffff612a0116565b61369b565b61369b898763ffffffff6129a016565b80156108325760405162461bcd60e51b815260040180806020018281038252603e8152602001806141c8603e913960400191505060405180910390fd5b80821015610e475760405162461bcd60e51b815260040180806020018281038252603e81526020018061435c603e913960400191505060405180910390fd5b60008183613e765760405162461bcd60e51b8152602060048201818152835160248401528351909283926044909101919085019080838360008315613bd1578181015183820152602001613bb9565b506000838581613e8257fe5b0495945050505050565b604080516060810182526000808252602082018190529181019190915290565b604051806101e00160405280600081526020016000815260200160008152602001600015158152602001600081526020016000815260200160008152602001600081526020016000815260200160008152602001600081526020016000815260200160008152602001600081526020016000151581525090565b6040518061010001604052806000815260200160008152602001600081526020016000815260200160008152602001600081526020016000815260200160008152509056fe426f72726f7765724f70733a2043616c6c657220646f65736e74206861766520656e6f756768205a55534420746f206d616b652072657061796d656e74426f72726f7765724f70733a2053656e64696e672045544820746f20416374697665506f6f6c206661696c65644f776e61626c653a3a7365744f776e65723a20696e76616c69642061646472657373426f72726f7765724f7065726174696f6e733a2043616e6e6f7420776974686472617720616e642061646420636f6c6c426f72726f7765724f70733a204f7065726174696f6e206e6f74207065726d697474656420647572696e67205265636f76657279204d6f6465426f72726f7765724f70733a204f7065726174696f6e206d757374206c656176652074726f7665207769746820494352203e3d204343524d6178206665652070657263656e74616765206d757374206c657373207468616e206f7220657175616c20746f2031303025426f72726f7765724f70733a205468657265206d75737420626520656974686572206120636f6c6c61746572616c206368616e6765206f7220612064656274206368616e6765536166654d6174683a206d756c7469706c69636174696f6e206f766572666c6f77426f72726f7765724f70733a20416e206f7065726174696f6e207468617420776f756c6420726573756c7420696e20544352203c20434352206973206e6f74207065726d6974746564426f72726f7765724f70733a2054726f766520646f6573206e6f74206578697374206f7220697320636c6f736564c3770d654ed33aeea6bf11ac8ef05d02a6a04ed4686dd2f624d853bbec43cc8b426f72726f7765724f70733a20436f6c6c61746572616c207769746864726177616c206e6f74207065726d6974746564205265636f76657279204d6f6465426f72726f7765724f70733a20416e206f7065726174696f6e207468617420776f756c6420726573756c7420696e20494352203c204d4352206973206e6f74207065726d6974746564426f72726f7765724f70733a2054726f76652773206e65742064656274206d7573742062652067726561746572207468616e206d696e696d756d426f72726f7765724f70733a20416d6f756e7420726570616964206d757374206e6f74206265206c6172676572207468616e207468652054726f766527732064656274426f72726f7765724f70733a2043616c6c6572206973206e6f742053746162696c69747920506f6f6c4d6178206665652070657263656e74616765206d757374206265206265747765656e20302e352520616e642031303025426f72726f7765724f70733a204465627420696e637265617365207265717569726573206e6f6e2d7a65726f20646562744368616e6765426f72726f7765724f70733a2043616e6e6f7420646563726561736520796f75722054726f766527732049435220696e205265636f76657279204d6f6465a2646970667358221220023cc2906b3b4a20b3fded65f7fae41873a9b845f7907b5463437bafa0a287b064736f6c634300060b00334f776e61626c653a3a7365744f776e65723a20696e76616c69642061646472657373",
    "linkReferences": {},
    "deployedLinkReferences": {}
}