{
  "address": "0x9398131Dee201c7B530c5E3bAeeEB2e5B10F231c",
  "_format": "hh-sol-artifact-1",
  "contractName": "CommunityIssuance",
  "sourceName": "contracts/ZERO/CommunityIssuance.sol",
  "abi": [
    {
      "anonymous": false,
      "inputs": [
        {
          "indexed": false,
          "internalType": "address",
          "name": "_communityPotAddress",
          "type": "address"
        }
      ],
      "name": "CommunityPotAddressSet",
      "type": "event"
    },
    {
      "anonymous": false,
      "inputs": [
        {
          "indexed": false,
          "internalType": "address",
          "name": "_zeroTokenAddress",
          "type": "address"
        }
      ],
      "name": "FundingWalletAddressSet",
      "type": "event"
    },
    {
      "anonymous": false,
      "inputs": [
        {
          "indexed": true,
          "internalType": "address",
          "name": "previousOwner",
          "type": "address"
        },
        {
          "indexed": true,
          "internalType": "address",
          "name": "newOwner",
          "type": "address"
        }
      ],
      "name": "OwnershipTransferred",
      "type": "event"
    },
    {
      "anonymous": false,
      "inputs": [
        {
          "indexed": false,
          "internalType": "uint256",
          "name": "_fundingWalletAddress",
          "type": "uint256"
        }
      ],
      "name": "TotalZEROIssuedUpdated",
      "type": "event"
    },
    {
      "anonymous": false,
      "inputs": [
        {
          "indexed": false,
          "internalType": "address",
          "name": "_zeroTokenAddress",
          "type": "address"
        }
      ],
      "name": "ZEROTokenAddressSet",
      "type": "event"
    },
    {
      "inputs": [],
      "name": "DECIMAL_PRECISION",
      "outputs": [
        {
          "internalType": "uint256",
          "name": "",
          "type": "uint256"
        }
      ],
      "stateMutability": "view",
      "type": "function"
    },
    {
      "inputs": [],
      "name": "ISSUANCE_FACTOR",
      "outputs": [
        {
          "internalType": "uint256",
          "name": "",
          "type": "uint256"
        }
      ],
      "stateMutability": "view",
      "type": "function"
    },
    {
      "inputs": [],
      "name": "NAME",
      "outputs": [
        {
          "internalType": "string",
          "name": "",
          "type": "string"
        }
      ],
      "stateMutability": "view",
      "type": "function"
    },
    {
      "inputs": [],
      "name": "SECONDS_IN_ONE_MINUTE",
      "outputs": [
        {
          "internalType": "uint256",
          "name": "",
          "type": "uint256"
        }
      ],
      "stateMutability": "view",
      "type": "function"
    },
    {
      "inputs": [],
      "name": "ZEROSupplyCap",
      "outputs": [
        {
          "internalType": "uint256",
          "name": "",
          "type": "uint256"
        }
      ],
      "stateMutability": "view",
      "type": "function"
    },
    {
      "inputs": [],
      "name": "communityPotAddress",
      "outputs": [
        {
          "internalType": "address",
          "name": "",
          "type": "address"
        }
      ],
      "stateMutability": "view",
      "type": "function"
    },
    {
      "inputs": [],
      "name": "deploymentTime",
      "outputs": [
        {
          "internalType": "uint256",
          "name": "",
          "type": "uint256"
        }
      ],
      "stateMutability": "view",
      "type": "function"
    },
    {
      "inputs": [],
      "name": "fundingWalletAddress",
      "outputs": [
        {
          "internalType": "address",
          "name": "",
          "type": "address"
        }
      ],
      "stateMutability": "view",
      "type": "function"
    },
    {
      "inputs": [],
      "name": "getOwner",
      "outputs": [
        {
          "internalType": "address",
          "name": "_owner",
          "type": "address"
        }
      ],
      "stateMutability": "view",
      "type": "function"
    },
    {
      "inputs": [
        {
          "internalType": "address",
          "name": "_zeroTokenAddress",
          "type": "address"
        },
        {
          "internalType": "address",
          "name": "_communityPotAddress",
          "type": "address"
        },
        {
          "internalType": "address",
          "name": "_fundingWalletAddress",
          "type": "address"
        }
      ],
      "name": "initialize",
      "outputs": [],
      "stateMutability": "nonpayable",
      "type": "function"
    },
    {
      "inputs": [],
      "name": "issueZERO",
      "outputs": [
        {
          "internalType": "uint256",
          "name": "",
          "type": "uint256"
        }
      ],
      "stateMutability": "nonpayable",
      "type": "function"
    },
    {
      "inputs": [
        {
          "internalType": "address",
          "name": "_account",
          "type": "address"
        },
        {
          "internalType": "uint256",
          "name": "_ZEROamount",
          "type": "uint256"
        }
      ],
      "name": "receiveZero",
      "outputs": [],
      "stateMutability": "nonpayable",
      "type": "function"
    },
    {
      "inputs": [
        {
          "internalType": "address",
          "name": "_account",
          "type": "address"
        },
        {
          "internalType": "uint256",
          "name": "_ZEROamount",
          "type": "uint256"
        }
      ],
      "name": "sendZERO",
      "outputs": [],
      "stateMutability": "nonpayable",
      "type": "function"
    },
    {
      "inputs": [
        {
          "internalType": "address",
          "name": "_owner",
          "type": "address"
        }
      ],
      "name": "setOwner",
      "outputs": [],
      "stateMutability": "nonpayable",
      "type": "function"
    },
    {
      "inputs": [],
      "name": "totalZEROIssued",
      "outputs": [
        {
          "internalType": "uint256",
          "name": "",
          "type": "uint256"
        }
      ],
      "stateMutability": "view",
      "type": "function"
    },
    {
      "inputs": [],
      "name": "zeroToken",
      "outputs": [
        {
          "internalType": "contract IZEROToken",
          "name": "",
          "type": "address"
        }
      ],
      "stateMutability": "view",
      "type": "function"
    }
  ],
  "bytecode": "0x60806040526000805534801561001457600080fd5b50610027336001600160e01b0361002c16565b610114565b6001600160a01b0381166100715760405162461bcd60e51b8152600401808060200182810382526022815260200180610f086022913960400191505060405180910390fd5b6001600160a01b03811661008c6001600160e01b036100ea16565b6001600160a01b03167f8be0079c531659141344cd1fd0a4f28419497f9722a3daafe3b4186f6b6457e060405160405180910390a3604080517035b2bc9737bbb730b136329737bbb732b960791b8152905190819003601101902055565b604080517035b2bc9737bbb730b136329737bbb732b960791b815290519081900360110190205490565b610de5806101236000396000f3fe608060405234801561001057600080fd5b50600436106100e05760003560e01c80639d4101b7116100875780639d4101b714610197578063a20baee61461019f578063a3f4df7e146101a7578063c0c53b8b14610224578063e59be5861461025c578063ecda10f514610264578063f1bd258b1461026c578063f294bd9214610298576100e0565b80630fc83da3146100e557806313af4035146100ff5780631a5a934a1461012757806321492b2a1461014b57806337362c181461015357806361ec893d1461017f578063893d20e8146101875780639ce21f3c1461018f575b600080fd5b6100ed6102a0565b60408051918252519081900360200190f35b6101256004803603602081101561011557600080fd5b50356001600160a01b03166102ac565b005b61012f61031f565b604080516001600160a01b039092168252519081900360200190f35b6100ed61032e565b6101256004803603604081101561016957600080fd5b506001600160a01b038135169060200135610334565b6100ed610410565b61012f610415565b61012f61043f565b6100ed61044e565b6100ed610454565b6101af610460565b6040805160208082528351818301528351919283929083019185019080838360005b838110156101e95781810151838201526020016101d1565b50505050905090810190601f1680156102165780820380516001836020036101000a031916815260200191505b509250505060405180910390f35b6101256004803603606081101561023a57600080fd5b506001600160a01b03813581169160208101358216916040909101351661048d565b6100ed6105b4565b6100ed61064d565b6101256004803603604081101561028257600080fd5b506001600160a01b038135169060200135610653565b61012f6107c9565b670de0b5809a6f939881565b6102b4610415565b6001600160a01b0316336001600160a01b031614610313576040805162461bcd60e51b815260206004820152601760248201527613dddb98589b194e8e881858d8d95cdcc819195b9a5959604a1b604482015290519081900360640190fd5b61031c816107d8565b50565b6002546001600160a01b031681565b60005481565b61033c61088d565b6001546040805163a9059cbb60e01b81526001600160a01b038581166004830152602482018590529151600093929092169163a9059cbb9160448082019260209290919082900301818787803b15801561039557600080fd5b505af11580156103a9573d6000803e3d6000fd5b505050506040513d60208110156103bf57600080fd5b505190508061040b576040805162461bcd60e51b81526020600482015260136024820152724661696c656420746f2073656e64205a45524f60681b604482015290519081900360640190fd5b505050565b603c81565b604080517035b2bc9737bbb730b136329737bbb732b960791b815290519081900360110190205490565b6003546001600160a01b031681565b60045481565b670de0b6b3a764000081565b60405180604001604052806011815260200170436f6d6d756e69747949737375616e636560781b81525081565b610495610415565b6001600160a01b0316336001600160a01b0316146104f4576040805162461bcd60e51b815260206004820152601760248201527613dddb98589b194e8e881858d8d95cdcc819195b9a5959604a1b604482015290519081900360640190fd5b6104fd836108d8565b610506826108d8565b600180546001600160a01b038086166001600160a01b0319928316811790935560028054868316908416179055600380549185169190921617905560408051918252517f7eeded1a6761a0ca57ff60155bdd3e94fbfe5d9e8dc5013b3aa195b8d9e851ea9181900360200190a1604080516001600160a01b038416815290517f47ebfdc80bf05a81c1216176fd90779f8f67326c8d82eb50b3bce67473f188ce9181900360200190a1505050565b60006105be61088d565b60006105f2670de0b6b3a76400006105e66105d761098b565b6000549063ffffffff6109f516565b9063ffffffff610a5716565b9050600061060b60045483610a9990919063ffffffff16565b60048390556040805184815290519192507f0e4f366add234067215e649a6bccebac27241d6488de286967c468de64f62614919081900360200190a191505090565b60055481565b6003546001600160a01b0383811691161461069f5760405162461bcd60e51b8152600401808060200182810382526028815260200180610d446028913960400191505060405180910390fd5b600054156106f4576040805162461bcd60e51b815260206004820152601c60248201527f436f6d6d756e69747920706f7420616c72656164792066756e64656400000000604482015290519081900360640190fd5b600154604080516323b872dd60e01b81526001600160a01b03858116600483015230602483015260448201859052915191909216916323b872dd9160648083019260209291908290030181600087803b15801561075057600080fd5b505af1158015610764573d6000803e3d6000fd5b505050506040513d602081101561077a57600080fd5b50516107bf576040805162461bcd60e51b815260206004820152600f60248201526e151c985b9cd9995c8819985a5b1959608a1b604482015290519081900360640190fd5b6000555042600555565b6001546001600160a01b031681565b6001600160a01b03811661081d5760405162461bcd60e51b8152600401808060200182810382526022815260200180610d226022913960400191505060405180910390fd5b806001600160a01b031661082f610415565b6001600160a01b03167f8be0079c531659141344cd1fd0a4f28419497f9722a3daafe3b4186f6b6457e060405160405180910390a3604080517035b2bc9737bbb730b136329737bbb732b960791b8152905190819003601101902055565b6002546001600160a01b031633146108d65760405162461bcd60e51b8152600401808060200182810382526023815260200180610d8d6023913960400191505060405180910390fd5b565b6001600160a01b038116610933576040805162461bcd60e51b815260206004820152601e60248201527f4163636f756e742063616e6e6f74206265207a65726f20616464726573730000604482015290519081900360640190fd5b803b80610987576040805162461bcd60e51b815260206004820181905260248201527f4163636f756e7420636f64652073697a652063616e6e6f74206265207a65726f604482015290519081900360640190fd5b5050565b6000806109a8603c6105e660055442610a9990919063ffffffff16565b905060006109be670de0b5809a6f939883610adb565b905060006109da670de0b6b3a76400008363ffffffff610a9916565b9050670de0b6b3a76400008111156109ee57fe5b9250505090565b600082610a0457506000610a51565b82820282848281610a1157fe5b0414610a4e5760405162461bcd60e51b8152600401808060200182810382526021815260200180610d6c6021913960400191505060405180910390fd5b90505b92915050565b6000610a4e83836040518060400160405280601a81526020017f536166654d6174683a206469766973696f6e206279207a65726f000000000000815250610b90565b6000610a4e83836040518060400160405280601e81526020017f536166654d6174683a207375627472616374696f6e206f766572666c6f770000815250610c32565b6000631f540500821115610af157631f54050091505b81610b055750670de0b6b3a7640000610a51565b670de0b6b3a764000083835b6001811115610b7c5760028106610b4657610b2c8283610c8c565b9150610b3f81600263ffffffff610a5716565b9050610b77565b610b508284610c8c565b9250610b5c8283610c8c565b9150610b7460026105e683600163ffffffff610a9916565b90505b610b11565b610b868284610c8c565b9695505050505050565b60008183610c1c5760405162461bcd60e51b81526004018080602001828103825283818151815260200191508051906020019080838360005b83811015610be1578181015183820152602001610bc9565b50505050905090810190601f168015610c0e5780820380516001836020036101000a031916815260200191505b509250505060405180910390fd5b506000838581610c2857fe5b0495945050505050565b60008184841115610c845760405162461bcd60e51b8152602060048201818152835160248401528351909283926044909101919085019080838360008315610be1578181015183820152602001610bc9565b505050900390565b600080610c9f848463ffffffff6109f516565b9050610cbf670de0b6b3a76400006105e6836706f05b59d3b20000610cc7565b949350505050565b600082820183811015610a4e576040805162461bcd60e51b815260206004820152601b60248201527f536166654d6174683a206164646974696f6e206f766572666c6f770000000000604482015290519081900360640190fdfe4f776e61626c653a3a7365744f776e65723a20696e76616c696420616464726573734f6e6c79207468652066756e64696e672077616c6c65742063616e206465706f736974205a45524f536166654d6174683a206d756c7469706c69636174696f6e206f766572666c6f77436f6d6d756e69747949737375616e63653a2063616c6c6572206973206e6f74205350a26469706673582212206b553fb1df1bfd823d8fd29b2fde34c87b6e41e5de8d6fad1bd46628da8bff8264736f6c634300060b00334f776e61626c653a3a7365744f776e65723a20696e76616c69642061646472657373",
  "linkReferences": {},
  "deployedLinkReferences": {}
}