{
  "address": "0x9b38044A276fED8bC1703bd4a2DA1b17F2c61d16",
  "abi": [
    {
      "anonymous": false,
      "inputs": [
        {
          "indexed": false,
          "internalType": "uint256",
          "name": "_APR",
          "type": "uint256"
        }
      ],
      "name": "APRSet",
      "type": "event"
    },
    {
      "anonymous": false,
      "inputs": [
        {
          "indexed": true,
          "internalType": "address",
          "name": "previousOwner",
          "type": "address"
        },
        {
          "indexed": true,
          "internalType": "address",
          "name": "newOwner",
          "type": "address"
        }
      ],
      "name": "OwnershipTransferred",
      "type": "event"
    },
    {
      "anonymous": false,
      "inputs": [
        {
          "indexed": false,
          "internalType": "address",
          "name": "_priceFeed",
          "type": "address"
        }
      ],
      "name": "PriceFeedAddressSet",
      "type": "event"
    },
    {
      "anonymous": false,
      "inputs": [
        {
          "indexed": false,
          "internalType": "address",
          "name": "_rewardManagerAddress",
          "type": "address"
        }
      ],
      "name": "RewardManagerAddressSet",
      "type": "event"
    },
    {
      "anonymous": false,
      "inputs": [
        {
          "indexed": false,
          "internalType": "address",
          "name": "_sovTokenAddress",
          "type": "address"
        }
      ],
      "name": "SOVTokenAddressSet",
      "type": "event"
    },
    {
      "anonymous": false,
      "inputs": [
        {
          "indexed": false,
          "internalType": "address",
          "name": "_stabilityPoolAddress",
          "type": "address"
        }
      ],
      "name": "StabilityPoolAddressSet",
      "type": "event"
    },
    {
      "anonymous": false,
      "inputs": [
        {
          "indexed": false,
          "internalType": "uint256",
          "name": "_latestSOVIssued",
          "type": "uint256"
        }
      ],
      "name": "TotalSOVIssuedUpdated",
      "type": "event"
    },
    {
      "anonymous": false,
      "inputs": [
        {
          "indexed": false,
          "internalType": "address",
          "name": "_zusdTokenAddress",
          "type": "address"
        }
      ],
      "name": "ZUSDTokenAddressSet",
      "type": "event"
    },
    {
      "inputs": [],
      "name": "APR",
      "outputs": [
        {
          "internalType": "uint256",
          "name": "",
          "type": "uint256"
        }
      ],
      "stateMutability": "view",
      "type": "function"
    },
    {
      "inputs": [],
      "name": "DECIMAL_PRECISION",
      "outputs": [
        {
          "internalType": "uint256",
          "name": "",
          "type": "uint256"
        }
      ],
      "stateMutability": "view",
      "type": "function"
    },
    {
      "inputs": [],
      "name": "NAME",
      "outputs": [
        {
          "internalType": "string",
          "name": "",
          "type": "string"
        }
      ],
      "stateMutability": "view",
      "type": "function"
    },
    {
      "inputs": [],
      "name": "getOwner",
      "outputs": [
        {
          "internalType": "address",
          "name": "_owner",
          "type": "address"
        }
      ],
      "stateMutability": "view",
      "type": "function"
    },
    {
      "inputs": [
        {
          "internalType": "address",
          "name": "_sovTokenAddress",
          "type": "address"
        },
        {
          "internalType": "address",
          "name": "_zusdTokenAddress",
          "type": "address"
        },
        {
          "internalType": "address",
          "name": "_stabilityPoolAddress",
          "type": "address"
        },
        {
          "internalType": "address",
          "name": "_priceFeed",
          "type": "address"
        },
        {
          "internalType": "uint256",
          "name": "_APR",
          "type": "uint256"
        }
      ],
      "name": "initialize",
      "outputs": [],
      "stateMutability": "nonpayable",
      "type": "function"
    },
    {
      "inputs": [
        {
          "internalType": "uint256",
          "name": "_totalZUSDDeposits",
          "type": "uint256"
        }
      ],
      "name": "issueSOV",
      "outputs": [
        {
          "internalType": "uint256",
          "name": "",
          "type": "uint256"
        }
      ],
      "stateMutability": "nonpayable",
      "type": "function"
    },
    {
      "inputs": [],
      "name": "lastIssuanceTime",
      "outputs": [
        {
          "internalType": "uint256",
          "name": "",
          "type": "uint256"
        }
      ],
      "stateMutability": "view",
      "type": "function"
    },
    {
      "inputs": [],
      "name": "priceFeed",
      "outputs": [
        {
          "internalType": "contract IPriceFeedSovryn",
          "name": "",
          "type": "address"
        }
      ],
      "stateMutability": "view",
      "type": "function"
    },
    {
      "inputs": [],
      "name": "rewardManager",
      "outputs": [
        {
          "internalType": "address",
          "name": "",
          "type": "address"
        }
      ],
      "stateMutability": "view",
      "type": "function"
    },
    {
      "inputs": [
        {
          "internalType": "address",
          "name": "_account",
          "type": "address"
        },
        {
          "internalType": "uint256",
          "name": "_SOVamount",
          "type": "uint256"
        }
      ],
      "name": "sendSOV",
      "outputs": [],
      "stateMutability": "nonpayable",
      "type": "function"
    },
    {
      "inputs": [
        {
          "internalType": "uint256",
          "name": "_APR",
          "type": "uint256"
        }
      ],
      "name": "setAPR",
      "outputs": [],
      "stateMutability": "nonpayable",
      "type": "function"
    },
    {
      "inputs": [
        {
          "internalType": "address",
          "name": "_owner",
          "type": "address"
        }
      ],
      "name": "setOwner",
      "outputs": [],
      "stateMutability": "nonpayable",
      "type": "function"
    },
    {
      "inputs": [
        {
          "internalType": "address",
          "name": "_priceFeedAddress",
          "type": "address"
        }
      ],
      "name": "setPriceFeed",
      "outputs": [],
      "stateMutability": "nonpayable",
      "type": "function"
    },
    {
      "inputs": [
        {
          "internalType": "address",
          "name": "_rewardManagerAddress",
          "type": "address"
        }
      ],
      "name": "setRewardManager",
      "outputs": [],
      "stateMutability": "nonpayable",
      "type": "function"
    },
    {
      "inputs": [],
      "name": "sovToken",
      "outputs": [
        {
          "internalType": "contract IERC20",
          "name": "",
          "type": "address"
        }
      ],
      "stateMutability": "view",
      "type": "function"
    },
    {
      "inputs": [],
      "name": "stabilityPoolAddress",
      "outputs": [
        {
          "internalType": "address",
          "name": "",
          "type": "address"
        }
      ],
      "stateMutability": "view",
      "type": "function"
    },
    {
      "inputs": [],
      "name": "totalSOVIssued",
      "outputs": [
        {
          "internalType": "uint256",
          "name": "",
          "type": "uint256"
        }
      ],
      "stateMutability": "view",
      "type": "function"
    },
    {
      "inputs": [],
      "name": "zusdToken",
      "outputs": [
        {
          "internalType": "contract IERC20",
          "name": "",
          "type": "address"
        }
      ],
      "stateMutability": "view",
      "type": "function"
    }
  ],
  "transactionHash": "0x149e064930c0c5814d64f1fed99c72da5099db8cc35f2145278ca0305387bb43",
  "numDeployments": 1,
  "bytecode": "0x608060405234801561001057600080fd5b50610023336001600160e01b0361002816565b610143565b6001600160a01b0381166100575760405162461bcd60e51b815260040161004e90610101565b60405180910390fd5b6001600160a01b0381166100726001600160e01b036100c516565b6001600160a01b03167f8be0079c531659141344cd1fd0a4f28419497f9722a3daafe3b4186f6b6457e060405160405180910390a360006040516100b5906100e4565b6040519081900390209190915550565b6000806040516100d4906100e4565b6040519081900390205492915050565b7035b2bc9737bbb730b136329737bbb732b960791b815260110190565b60208082526022908201527f4f776e61626c653a3a7365744f776e65723a20696e76616c6964206164647265604082015261737360f01b606082015260800190565b611042806101526000396000f3fe608060405234801561001057600080fd5b50600436106100f65760003560e01c8063893d20e811610092578063893d20e81461019f57806398afd294146101a7578063a20baee6146101af578063a3f4df7e146101b7578063ae601ac1146101cc578063bd30558e146101d4578063ec9f7d46146101dc578063f7013ef6146101e4578063f8c1dc6c146101f7576100f6565b80630b622ab2146100fb5780630f4ef8a61461011957806313af403514610121578063153ee5541461013657806360bf03ff146101495780636cbdcf471461015e578063724e78da14610171578063741bef1a14610184578063854303cf1461018c575b600080fd5b61010361020a565b6040516101109190610ced565b60405180910390f35b610103610219565b61013461012f366004610bd8565b610228565b005b610134610144366004610bd8565b610275565b610151610329565b6040516101109190610fee565b61015161016c366004610ca0565b61032f565b61013461017f366004610bd8565b610348565b6101036103d4565b61013461019a366004610ca0565b6103e3565b6101036104e0565b6101036104ff565b61015161050e565b6101bf61051a565b6040516101109190610d3e565b610151610547565b61015161054d565b610103610553565b6101346101f2366004610bf3565b610562565b610134610205366004610c56565b61077f565b6035546001600160a01b031681565b6039546001600160a01b031681565b6102306104e0565b6001600160a01b0316336001600160a01b0316146102695760405162461bcd60e51b815260040161026090610f0e565b60405180910390fd5b61027281610830565b50565b61027d6104e0565b6001600160a01b0316336001600160a01b0316146102ad5760405162461bcd60e51b815260040161026090610f0e565b6001600160a01b0381166102d35760405162461bcd60e51b815260040161026090610e48565b603980546001600160a01b0319166001600160a01b0383161790556040517f1c7e8eeb20c95a47700378fd4dd1a7fe13a6f508d25615c5fb1f3d1099051daa9061031e908390610ced565b60405180910390a150565b60375481565b60006103396108bb565b610342826108e7565b92915050565b6103506104e0565b6001600160a01b0316336001600160a01b0316146103805760405162461bcd60e51b815260040161026090610f0e565b61038981610999565b603a80546001600160a01b0319166001600160a01b0383161790556040517facd42642b5cb91804117282727eb92664d362985a4f353ccd03833d3049d16d99061031e908390610ced565b603a546001600160a01b031681565b6039546001600160a01b0316331461040d5760405162461bcd60e51b815260040161026090610d91565b610416816109e2565b60355460408051635ed79bf560e11b815290516000926001600160a01b03169163bdaf37ea916004808301926020929190829003018186803b15801561045b57600080fd5b505afa15801561046f573d6000803e3d6000fd5b505050506040513d601f19601f820116820180604052508101906104939190610cb8565b905061049e816108e7565b5060388290556040517fd6b99165a8b6705d5dbba79fccdcac9b98141cb0f6413824ebd39fdfbe611ba6906104d4908490610fee565b60405180910390a15050565b6000806040516104ef90610cd0565b6040519081900390205492915050565b6033546001600160a01b031681565b670de0b6b3a764000081565b60405180604001604052806011815260200170436f6d6d756e69747949737375616e636560781b81525081565b60365481565b60385481565b6034546001600160a01b031681565b600054610100900460ff168061057b575061057b610a04565b80610589575060005460ff16155b6105a55760405162461bcd60e51b815260040161026090610ec0565b600054610100900460ff161580156105d0576000805460ff1961ff0019909116610100171660011790555b6105d86104e0565b6001600160a01b0316336001600160a01b0316146106085760405162461bcd60e51b815260040161026090610f0e565b61061186610999565b61061a85610999565b61062384610999565b61062c83610999565b610635826109e2565b603380546001600160a01b038089166001600160a01b0319928316179092556034805488841690831617905560358054878416908316179055603a8054928616929091169190911790556038829055426037556040517f5bce47da81ad81a6d5745ec7a1790bd9213dc36898110fd3681b037768a2b3c6906106b8908890610ced565b60405180910390a17f45c53611bc8ba9e11f4f8173bda9e3faf89c395ddb83f9a55230b156828db315846040516106ef9190610ced565b60405180910390a17facd42642b5cb91804117282727eb92664d362985a4f353ccd03833d3049d16d9836040516107269190610ced565b60405180910390a17fd6b99165a8b6705d5dbba79fccdcac9b98141cb0f6413824ebd39fdfbe611ba68260405161075d9190610fee565b60405180910390a18015610777576000805461ff00191690555b505050505050565b6107876108bb565b60335460405163a9059cbb60e01b81526000916001600160a01b03169063a9059cbb906107ba9086908690600401610d25565b602060405180830381600087803b1580156107d457600080fd5b505af11580156107e8573d6000803e3d6000fd5b505050506040513d601f19601f8201168201806040525081019061080c9190610c80565b90508061082b5760405162461bcd60e51b815260040161026090610dd9565b505050565b6001600160a01b0381166108565760405162461bcd60e51b815260040161026090610e06565b806001600160a01b03166108686104e0565b6001600160a01b03167f8be0079c531659141344cd1fd0a4f28419497f9722a3daafe3b4186f6b6457e060405160405180910390a360006040516108ab90610cd0565b6040519081900390209190915550565b6035546001600160a01b031633146108e55760405162461bcd60e51b815260040161026090610f76565b565b6000806108ff60375442610a0a90919063ffffffff16565b9050600061094a6109456127106109396301e133806109398761092d6038548c610a5390919063ffffffff16565b9063ffffffff610a5316565b9063ffffffff610a8d16565b610acf565b60368054820190819055426037556040519192507f47eb3c2a573d55ee40451cdc91a92eb7fe3dd8bcdb4d19c9acd32ecaa29f2d559161098a9190610fee565b60405180910390a19392505050565b6001600160a01b0381166109bf5760405162461bcd60e51b815260040161026090610e48565b803b806109de5760405162461bcd60e51b815260040161026090610fb9565b5050565b6127108111156102725760405162461bcd60e51b815260040161026090610f3f565b303b1590565b6000610a4c83836040518060400160405280601e81526020017f536166654d6174683a207375627472616374696f6e206f766572666c6f770000815250610b5e565b9392505050565b600082610a6257506000610342565b82820282848281610a6f57fe5b0414610a4c5760405162461bcd60e51b815260040161026090610e7f565b6000610a4c83836040518060400160405280601a81526020017f536166654d6174683a206469766973696f6e206279207a65726f000000000000815250610b8a565b603a5460345460335460405163d138f9a160e01b81526000936001600160a01b039081169363d138f9a193610b0e939183169216908790600401610d01565b60206040518083038186803b158015610b2657600080fd5b505afa158015610b3a573d6000803e3d6000fd5b505050506040513d601f19601f820116820180604052508101906103429190610cb8565b60008184841115610b825760405162461bcd60e51b81526004016102609190610d3e565b505050900390565b60008183610bab5760405162461bcd60e51b81526004016102609190610d3e565b506000838581610bb757fe5b0495945050505050565b80356001600160a01b038116811461034257600080fd5b600060208284031215610be9578081fd5b610a4c8383610bc1565b600080600080600060a08688031215610c0a578081fd5b8535610c1581610ff7565b94506020860135610c2581610ff7565b93506040860135610c3581610ff7565b92506060860135610c4581610ff7565b949793965091946080013592915050565b60008060408385031215610c68578182fd5b610c728484610bc1565b946020939093013593505050565b600060208284031215610c91578081fd5b81518015158114610a4c578182fd5b600060208284031215610cb1578081fd5b5035919050565b600060208284031215610cc9578081fd5b5051919050565b7035b2bc9737bbb730b136329737bbb732b960791b815260110190565b6001600160a01b0391909116815260200190565b6001600160a01b039384168152919092166020820152604081019190915260600190565b6001600160a01b03929092168252602082015260400190565b6000602080835283518082850152825b81811015610d6a57858101830151858201604001528201610d4e565b81811115610d7b5783604083870101525b50601f01601f1916929092016040019392505050565b60208082526028908201527f5065726d697373696f6e3a3a7265776172644d616e616765723a2061636365736040820152671cc819195b9a595960c21b606082015260800190565b6020808252601390820152724661696c656420746f2073656e64205a45524f60681b604082015260600190565b60208082526022908201527f4f776e61626c653a3a7365744f776e65723a20696e76616c6964206164647265604082015261737360f01b606082015260800190565b6020808252601e908201527f4163636f756e742063616e6e6f74206265207a65726f20616464726573730000604082015260600190565b60208082526021908201527f536166654d6174683a206d756c7469706c69636174696f6e206f766572666c6f6040820152607760f81b606082015260800190565b6020808252602e908201527f436f6e747261637420696e7374616e63652068617320616c726561647920626560408201526d195b881a5b9a5d1a585b1a5e995960921b606082015260800190565b60208082526017908201527613dddb98589b194e8e881858d8d95cdcc819195b9a5959604a1b604082015260600190565b6020808252601d908201527f415052206d757374206265206c657373207468616e204d41585f425053000000604082015260600190565b60208082526023908201527f436f6d6d756e69747949737375616e63653a2063616c6c6572206973206e6f7460408201526202053560ec1b606082015260800190565b6020808252818101527f4163636f756e7420636f64652073697a652063616e6e6f74206265207a65726f604082015260600190565b90815260200190565b6001600160a01b038116811461027257600080fdfea264697066735822122059b91705fa5bb752dca6fc431578ebba32dfd495a893f74875ad88a013ed1c5b64736f6c634300060b0033",
  "implementation": "0x5059A057df377436Fc9b68369b696A23cc61Ecc3"
}