{
    "_format": "hh-sol-artifact-1",
    "contractName": "FeeDistributor",
    "sourceName": "contracts/FeeDistributor.sol",
    "address": "0x1261d5872d56e2Ab61B3C68451D015b752105027",
    "implementation": "0x006a2D407b3e5D54E0A835877cdC2F043e3E7296",
    "abi": [
        {
            "anonymous": false,
            "inputs": [
                {
                    "indexed": false,
                    "internalType": "address",
                    "name": "_activePoolAddress",
                    "type": "address"
                }
            ],
            "name": "ActivePoolAddressSet",
            "type": "event"
        },
        {
            "anonymous": false,
            "inputs": [
                {
                    "indexed": false,
                    "internalType": "address",
                    "name": "_borrowerOperationsAddress",
                    "type": "address"
                }
            ],
            "name": "BorrowerOperationsAddressChanged",
            "type": "event"
        },
        {
            "anonymous": false,
            "inputs": [
                {
                    "indexed": false,
                    "internalType": "address",
                    "name": "_feeSharingCollectorAddress",
                    "type": "address"
                }
            ],
            "name": "FeeSharingCollectorAddressChanged",
            "type": "event"
        },
        {
            "anonymous": false,
            "inputs": [
                {
                    "indexed": true,
                    "internalType": "address",
                    "name": "previousOwner",
                    "type": "address"
                },
                {
                    "indexed": true,
                    "internalType": "address",
                    "name": "newOwner",
                    "type": "address"
                }
            ],
            "name": "OwnershipTransferred",
            "type": "event"
        },
        {
            "anonymous": false,
            "inputs": [
                {
                    "indexed": false,
                    "internalType": "uint256",
                    "name": "_rbtcDistributedAmount",
                    "type": "uint256"
                }
            ],
            "name": "RBTCistributed",
            "type": "event"
        },
        {
            "anonymous": false,
            "inputs": [
                {
                    "indexed": false,
                    "internalType": "address",
                    "name": "_troveManagerAddress",
                    "type": "address"
                }
            ],
            "name": "TroveManagerAddressChanged",
            "type": "event"
        },
        {
            "anonymous": false,
            "inputs": [
                {
                    "indexed": false,
                    "internalType": "address",
                    "name": "_wrbtcAddress",
                    "type": "address"
                }
            ],
            "name": "WrbtcAddressChanged",
            "type": "event"
        },
        {
            "anonymous": false,
            "inputs": [
                {
                    "indexed": false,
                    "internalType": "uint256",
                    "name": "_zusdDistributedAmount",
                    "type": "uint256"
                }
            ],
            "name": "ZUSDDistributed",
            "type": "event"
        },
        {
            "anonymous": false,
            "inputs": [
                {
                    "indexed": false,
                    "internalType": "address",
                    "name": "_zusdTokenAddress",
                    "type": "address"
                }
            ],
            "name": "ZUSDTokenAddressChanged",
            "type": "event"
        },
        {
            "anonymous": false,
            "inputs": [
                {
                    "indexed": false,
                    "internalType": "address",
                    "name": "_zeroStakingAddress",
                    "type": "address"
                }
            ],
            "name": "ZeroStakingAddressChanged",
            "type": "event"
        },
        {
            "inputs": [],
            "name": "FEE_TO_FEE_SHARING_COLLECTOR",
            "outputs": [
                {
                    "internalType": "uint256",
                    "name": "",
                    "type": "uint256"
                }
            ],
            "stateMutability": "view",
            "type": "function"
        },
        {
            "inputs": [],
            "name": "NAME",
            "outputs": [
                {
                    "internalType": "string",
                    "name": "",
                    "type": "string"
                }
            ],
            "stateMutability": "view",
            "type": "function"
        },
        {
            "inputs": [],
            "name": "activePoolAddress",
            "outputs": [
                {
                    "internalType": "address",
                    "name": "",
                    "type": "address"
                }
            ],
            "stateMutability": "view",
            "type": "function"
        },
        {
            "inputs": [],
            "name": "borrowerOperations",
            "outputs": [
                {
                    "internalType": "contract IBorrowerOperations",
                    "name": "",
                    "type": "address"
                }
            ],
            "stateMutability": "view",
            "type": "function"
        },
        {
            "inputs": [],
            "name": "distributeFees",
            "outputs": [],
            "stateMutability": "nonpayable",
            "type": "function"
        },
        {
            "inputs": [],
            "name": "feeSharingCollector",
            "outputs": [
                {
                    "internalType": "contract IFeeSharingCollector",
                    "name": "",
                    "type": "address"
                }
            ],
            "stateMutability": "view",
            "type": "function"
        },
        {
            "inputs": [],
            "name": "getOwner",
            "outputs": [
                {
                    "internalType": "address",
                    "name": "_owner",
                    "type": "address"
                }
            ],
            "stateMutability": "view",
            "type": "function"
        },
        {
            "inputs": [
                {
                    "internalType": "address",
                    "name": "_feeSharingCollectorAddress",
                    "type": "address"
                },
                {
                    "internalType": "address",
                    "name": "_zeroStakingAddress",
                    "type": "address"
                },
                {
                    "internalType": "address",
                    "name": "_borrowerOperationsAddress",
                    "type": "address"
                },
                {
                    "internalType": "address",
                    "name": "_troveManagerAddress",
                    "type": "address"
                },
                {
                    "internalType": "address",
                    "name": "_wrbtcAddress",
                    "type": "address"
                },
                {
                    "internalType": "address",
                    "name": "_zusdTokenAddress",
                    "type": "address"
                },
                {
                    "internalType": "address",
                    "name": "_activePoolAddress",
                    "type": "address"
                }
            ],
            "name": "setAddresses",
            "outputs": [],
            "stateMutability": "nonpayable",
            "type": "function"
        },
        {
            "inputs": [
                {
                    "internalType": "uint256",
                    "name": "FEE_TO_FEE_SHARING_COLLECTOR_",
                    "type": "uint256"
                }
            ],
            "name": "setFeeToFeeSharingCollector",
            "outputs": [],
            "stateMutability": "nonpayable",
            "type": "function"
        },
        {
            "inputs": [
                {
                    "internalType": "address",
                    "name": "_owner",
                    "type": "address"
                }
            ],
            "name": "setOwner",
            "outputs": [],
            "stateMutability": "nonpayable",
            "type": "function"
        },
        {
            "inputs": [],
            "name": "troveManager",
            "outputs": [
                {
                    "internalType": "contract ITroveManager",
                    "name": "",
                    "type": "address"
                }
            ],
            "stateMutability": "view",
            "type": "function"
        },
        {
            "inputs": [],
            "name": "wrbtc",
            "outputs": [
                {
                    "internalType": "contract IWrbtc",
                    "name": "",
                    "type": "address"
                }
            ],
            "stateMutability": "view",
            "type": "function"
        },
        {
            "inputs": [],
            "name": "zeroStaking",
            "outputs": [
                {
                    "internalType": "contract IZEROStaking",
                    "name": "",
                    "type": "address"
                }
            ],
            "stateMutability": "view",
            "type": "function"
        },
        {
            "inputs": [],
            "name": "zusdToken",
            "outputs": [
                {
                    "internalType": "contract IZUSDToken",
                    "name": "",
                    "type": "address"
                }
            ],
            "stateMutability": "view",
            "type": "function"
        },
        {
            "stateMutability": "payable",
            "type": "receive"
        }
    ],
    "bytecode": "0x608060405234801561001057600080fd5b50610023336001600160e01b0361002816565b610110565b6001600160a01b03811661006d5760405162461bcd60e51b815260040180806020018281038252602281526020018061129c6022913960400191505060405180910390fd5b6001600160a01b0381166100886001600160e01b036100e616565b6001600160a01b03167f8be0079c531659141344cd1fd0a4f28419497f9722a3daafe3b4186f6b6457e060405160405180910390a3604080517035b2bc9737bbb730b136329737bbb732b960791b8152905190819003601101902055565b604080517035b2bc9737bbb730b136329737bbb732b960791b815290519081900360110190205490565b61117d8061011f6000396000f3fe6080604052600436106100c15760003560e01c8063b08bc7221161006f578063b08bc72214610229578063bb57ad201461023e578063d9db1a6814610253578063eaa8ba7f14610268578063ec5472fd146102cd578063ec9f7d46146102e2578063f231f7cd146102f7576100d0565b806313af4035146100d55780633d83908a146101085780636b7dbb2d1461013957806377553ad41461014e578063893d20e8146101635780638e93c64914610178578063a3f4df7e1461019f576100d0565b366100d0576100ce610321565b005b600080fd5b3480156100e157600080fd5b506100ce600480360360208110156100f857600080fd5b50356001600160a01b031661036c565b34801561011457600080fd5b5061011d6103df565b604080516001600160a01b039092168252519081900360200190f35b34801561014557600080fd5b5061011d6103ee565b34801561015a57600080fd5b5061011d6103fd565b34801561016f57600080fd5b5061011d61040c565b34801561018457600080fd5b5061018d610436565b60408051918252519081900360200190f35b3480156101ab57600080fd5b506101b461043c565b6040805160208082528351818301528351919283929083019185019080838360005b838110156101ee5781810151838201526020016101d6565b50505050905090810190601f16801561021b5780820380516001836020036101000a031916815260200191505b509250505060405180910390f35b34801561023557600080fd5b5061011d610466565b34801561024a57600080fd5b506100ce610475565b34801561025f57600080fd5b5061011d610585565b34801561027457600080fd5b506100ce600480360360e081101561028b57600080fd5b506001600160a01b038135811691602081013582169160408201358116916060810135821691608082013581169160a081013582169160c09091013516610594565b3480156102d957600080fd5b5061011d610857565b3480156102ee57600080fd5b5061011d610866565b34801561030357600080fd5b506100ce6004803603602081101561031a57600080fd5b5035610875565b6006546001600160a01b0316331461036a5760405162461bcd60e51b81526004018080602001828103825260288152602001806111206028913960400191505060405180910390fd5b565b61037461040c565b6001600160a01b0316336001600160a01b0316146103d3576040805162461bcd60e51b815260206004820152601760248201527613dddb98589b194e8e881858d8d95cdcc819195b9a5959604a1b604482015290519081900360640190fd5b6103dc816108e1565b50565b6003546001600160a01b031681565b6000546001600160a01b031681565b6002546001600160a01b031681565b604080517035b2bc9737bbb730b136329737bbb732b960791b815290519081900360110190205490565b60075481565b6040518060400160405280600e81526020016d2332b2a234b9ba3934b13aba37b960911b81525081565b6006546001600160a01b031681565b6002546001600160a01b031633148061049857506003546001600160a01b031633145b6104e9576040805162461bcd60e51b815260206004820152601e60248201527f4665654469737472696275746f723a20696e76616c69642063616c6c65720000604482015290519081900360640190fd5b600554604080516370a0823160e01b815230600482015290516000926001600160a01b0316916370a08231916024808301926020929190829003018186803b15801561053457600080fd5b505afa158015610548573d6000803e3d6000fd5b505050506040513d602081101561055e57600080fd5b505190504781156105725761057282610996565b80156105815761058181610c58565b5050565b6004546001600160a01b031681565b61059c61040c565b6001600160a01b0316336001600160a01b0316146105fb576040805162461bcd60e51b815260206004820152601760248201527613dddb98589b194e8e881858d8d95cdcc819195b9a5959604a1b604482015290519081900360640190fd5b61060487610e29565b61060d86610e29565b61061685610e29565b61061f84610e29565b61062883610e29565b61063182610e29565b61063a81610e29565b600080546001600160a01b03199081166001600160a01b038a81169182179093556001805483168a851617905560028054831689851617905560038054831688851617905560048054831687851617905560058054831686851617905560068054909216928416929092179055670de0b6b3a764000060075560408051918252517f963023df1091dc8c0e46db982274139953d69a4d688a740bee4aa40fa318497e916020908290030190a1604080516001600160a01b038816815290517fc7b150c129c1c24ff23a07f2d3c9579928b1a51697a8a1f79dd07888fc904b849181900360200190a1604080516001600160a01b038716815290517f3ca631ffcd2a9b5d9ae18543fc82f58eb4ca33af9e6ab01b7a8e95331e6ed9859181900360200190a1604080516001600160a01b038616815290517f143219c9e69b09e07e095fcc889b43d8f46ca892bba65f08dc3a0050869a56789181900360200190a1604080516001600160a01b038516815290517f35bae0aeb0bdf7e62f85dbfcc7876b98015f550d75ae3deb0505c0565db12f4b9181900360200190a1604080516001600160a01b038416815290517fcdf33850c44a1a874b5fefb51dae615ac6afebd581ef90d571f81b06541d8e9d9181900360200190a1604080516001600160a01b038316815290517f8f6a6e7d20a3233e0a79883272259ffbd7a243734e397bc2b4642c79d7fa8a6d9181900360200190a150505050505050565b6001546001600160a01b031681565b6005546001600160a01b031681565b61087d61040c565b6001600160a01b0316336001600160a01b0316146108dc576040805162461bcd60e51b815260206004820152601760248201527613dddb98589b194e8e881858d8d95cdcc819195b9a5959604a1b604482015290519081900360640190fd5b600755565b6001600160a01b0381166109265760405162461bcd60e51b81526004018080602001828103825260228152602001806110bb6022913960400191505060405180910390fd5b806001600160a01b031661093861040c565b6001600160a01b03167f8be0079c531659141344cd1fd0a4f28419497f9722a3daafe3b4186f6b6457e060405160405180910390a3604080517035b2bc9737bbb730b136329737bbb732b960791b8152905190819003601101902055565b60006109c5670de0b6b3a76400006109b960075485610ed890919063ffffffff16565b9063ffffffff610f3a16565b600554600080546040805163095ea7b360e01b81526001600160a01b03928316600482015260248101869052905194955092169263095ea7b3926044808201936020939283900390910190829087803b158015610a2157600080fd5b505af1158015610a35573d6000803e3d6000fd5b505050506040513d6020811015610a4b57600080fd5b5050600080546005546040805163abe979e160e01b81526001600160a01b0392831660048201526bffffffffffffffffffffffff861660248201529051919092169263abe979e1926044808201939182900301818387803b158015610aaf57600080fd5b505af1158015610ac3573d6000803e3d6000fd5b505050506000610adc8284610f7c90919063ffffffff16565b90508015610c20576005546001546040805163a9059cbb60e01b81526001600160a01b039283166004820152602481018590529051919092169163a9059cbb9160448083019260209291908290030181600087803b158015610b3d57600080fd5b505af1158015610b51573d6000803e3d6000fd5b505050506040513d6020811015610b6757600080fd5b5051610bba576040805162461bcd60e51b815260206004820152601d60248201527f436f75646e27742065786563757465205a555344207472616e73666572000000604482015290519081900360640190fd5b6001546040805163187daae360e21b81526004810184905290516001600160a01b03909216916361f6ab8c9160248082019260009290919082900301818387803b158015610c0757600080fd5b505af1158015610c1b573d6000803e3d6000fd5b505050505b6040805184815290517f3168880c2a9a8e657d1de00769e3baefa8c1153f1847a85b43070ee5fed512959181900360200190a1505050565b6000610c7b670de0b6b3a76400006109b960075485610ed890919063ffffffff16565b60008054604080516322a6fd9560e01b815290519394506001600160a01b03909116926322a6fd959285926004808201939182900301818588803b158015610cc257600080fd5b505af1158015610cd6573d6000803e3d6000fd5b50505050506000610cf08284610f7c90919063ffffffff16565b90508015610df1576001546040516000916001600160a01b03169083908381818185875af1925050503d8060008114610d45576040519150601f19603f3d011682016040523d82523d6000602084013e610d4a565b606091505b5050905080610d8a5760405162461bcd60e51b81526004018080602001828103825260228152602001806110dd6022913960400191505060405180910390fd5b60015460408051630f1f150d60e11b81526004810185905290516001600160a01b0390921691631e3e2a1a9160248082019260009290919082900301818387803b158015610dd757600080fd5b505af1158015610deb573d6000803e3d6000fd5b50505050505b6040805184815290517f3289490aa1b0ec56454cbd5d18bd6b8d79609982b2abe74eee579eb6f67581919181900360200190a1505050565b6001600160a01b038116610e84576040805162461bcd60e51b815260206004820152601e60248201527f4163636f756e742063616e6e6f74206265207a65726f20616464726573730000604482015290519081900360640190fd5b803b80610581576040805162461bcd60e51b815260206004820181905260248201527f4163636f756e7420636f64652073697a652063616e6e6f74206265207a65726f604482015290519081900360640190fd5b600082610ee757506000610f34565b82820282848281610ef457fe5b0414610f315760405162461bcd60e51b81526004018080602001828103825260218152602001806110ff6021913960400191505060405180910390fd5b90505b92915050565b6000610f3183836040518060400160405280601a81526020017f536166654d6174683a206469766973696f6e206279207a65726f000000000000815250610fbe565b6000610f3183836040518060400160405280601e81526020017f536166654d6174683a207375627472616374696f6e206f766572666c6f770000815250611060565b6000818361104a5760405162461bcd60e51b81526004018080602001828103825283818151815260200191508051906020019080838360005b8381101561100f578181015183820152602001610ff7565b50505050905090810190601f16801561103c5780820380516001836020036101000a031916815260200191505b509250505060405180910390fd5b50600083858161105657fe5b0495945050505050565b600081848411156110b25760405162461bcd60e51b815260206004820181815283516024840152835190928392604490910191908501908083836000831561100f578181015183820152602001610ff7565b50505090039056fe4f776e61626c653a3a7365744f776e65723a20696e76616c696420616464726573734665654469737472696275746f723a2073656e64696e6720455448206661696c6564536166654d6174683a206d756c7469706c69636174696f6e206f766572666c6f774665654469737472696275746f723a2063616c6c6572206973206e6f7420416374697665506f6f6ca26469706673582212207e4aa61ddaf9172cf13c4f99965f98c9a6bd5ad6a546116102c5c6ec6ccc55f564736f6c634300060b00334f776e61626c653a3a7365744f776e65723a20696e76616c69642061646472657373",
    "linkReferences": {},
    "deployedLinkReferences": {}
}