{
    "_format": "hh-sol-artifact-1",
    "contractName": "HintHelpers",
    "sourceName": "contracts/HintHelpers.sol",
    "address": "0x1D7DaC5a63A35540bE9e031212ecf39584AE5595",
    "implementation": "0x772Be98F08374a6fb688f0F9eC5CDbfC8a6cCB97",
    "abi": [
        {
            "anonymous": false,
            "inputs": [
                {
                    "indexed": true,
                    "internalType": "address",
                    "name": "previousOwner",
                    "type": "address"
                },
                {
                    "indexed": true,
                    "internalType": "address",
                    "name": "newOwner",
                    "type": "address"
                }
            ],
            "name": "OwnershipTransferred",
            "type": "event"
        },
        {
            "anonymous": false,
            "inputs": [
                {
                    "indexed": false,
                    "internalType": "address",
                    "name": "_sortedTrovesAddress",
                    "type": "address"
                }
            ],
            "name": "SortedTrovesAddressChanged",
            "type": "event"
        },
        {
            "anonymous": false,
            "inputs": [
                {
                    "indexed": false,
                    "internalType": "address",
                    "name": "_troveManagerAddress",
                    "type": "address"
                }
            ],
            "name": "TroveManagerAddressChanged",
            "type": "event"
        },
        {
            "inputs": [],
            "name": "DECIMAL_PRECISION",
            "outputs": [
                {
                    "internalType": "uint256",
                    "name": "",
                    "type": "uint256"
                }
            ],
            "stateMutability": "view",
            "type": "function"
        },
        {
            "inputs": [],
            "name": "MIN_NET_DEBT",
            "outputs": [
                {
                    "internalType": "uint256",
                    "name": "",
                    "type": "uint256"
                }
            ],
            "stateMutability": "view",
            "type": "function"
        },
        {
            "inputs": [],
            "name": "NAME",
            "outputs": [
                {
                    "internalType": "string",
                    "name": "",
                    "type": "string"
                }
            ],
            "stateMutability": "view",
            "type": "function"
        },
        {
            "inputs": [],
            "name": "ZUSD_GAS_COMPENSATION",
            "outputs": [
                {
                    "internalType": "uint256",
                    "name": "",
                    "type": "uint256"
                }
            ],
            "stateMutability": "view",
            "type": "function"
        },
        {
            "inputs": [],
            "name": "_100pct",
            "outputs": [
                {
                    "internalType": "uint256",
                    "name": "",
                    "type": "uint256"
                }
            ],
            "stateMutability": "view",
            "type": "function"
        },
        {
            "inputs": [],
            "name": "activePool",
            "outputs": [
                {
                    "internalType": "contract IActivePool",
                    "name": "",
                    "type": "address"
                }
            ],
            "stateMutability": "view",
            "type": "function"
        },
        {
            "inputs": [
                {
                    "internalType": "uint256",
                    "name": "_coll",
                    "type": "uint256"
                },
                {
                    "internalType": "uint256",
                    "name": "_debt",
                    "type": "uint256"
                },
                {
                    "internalType": "uint256",
                    "name": "_price",
                    "type": "uint256"
                }
            ],
            "name": "computeCR",
            "outputs": [
                {
                    "internalType": "uint256",
                    "name": "",
                    "type": "uint256"
                }
            ],
            "stateMutability": "pure",
            "type": "function"
        },
        {
            "inputs": [
                {
                    "internalType": "uint256",
                    "name": "_coll",
                    "type": "uint256"
                },
                {
                    "internalType": "uint256",
                    "name": "_debt",
                    "type": "uint256"
                }
            ],
            "name": "computeNominalCR",
            "outputs": [
                {
                    "internalType": "uint256",
                    "name": "",
                    "type": "uint256"
                }
            ],
            "stateMutability": "pure",
            "type": "function"
        },
        {
            "inputs": [],
            "name": "defaultPool",
            "outputs": [
                {
                    "internalType": "contract IDefaultPool",
                    "name": "",
                    "type": "address"
                }
            ],
            "stateMutability": "view",
            "type": "function"
        },
        {
            "inputs": [
                {
                    "internalType": "uint256",
                    "name": "_CR",
                    "type": "uint256"
                },
                {
                    "internalType": "uint256",
                    "name": "_numTrials",
                    "type": "uint256"
                },
                {
                    "internalType": "uint256",
                    "name": "_inputRandomSeed",
                    "type": "uint256"
                }
            ],
            "name": "getApproxHint",
            "outputs": [
                {
                    "internalType": "address",
                    "name": "hintAddress",
                    "type": "address"
                },
                {
                    "internalType": "uint256",
                    "name": "diff",
                    "type": "uint256"
                },
                {
                    "internalType": "uint256",
                    "name": "latestRandomSeed",
                    "type": "uint256"
                }
            ],
            "stateMutability": "view",
            "type": "function"
        },
        {
            "inputs": [],
            "name": "getEntireSystemColl",
            "outputs": [
                {
                    "internalType": "uint256",
                    "name": "entireSystemColl",
                    "type": "uint256"
                }
            ],
            "stateMutability": "view",
            "type": "function"
        },
        {
            "inputs": [],
            "name": "getEntireSystemDebt",
            "outputs": [
                {
                    "internalType": "uint256",
                    "name": "entireSystemDebt",
                    "type": "uint256"
                }
            ],
            "stateMutability": "view",
            "type": "function"
        },
        {
            "inputs": [],
            "name": "getOwner",
            "outputs": [
                {
                    "internalType": "address",
                    "name": "_owner",
                    "type": "address"
                }
            ],
            "stateMutability": "view",
            "type": "function"
        },
        {
            "inputs": [
                {
                    "internalType": "uint256",
                    "name": "_ZUSDamount",
                    "type": "uint256"
                },
                {
                    "internalType": "uint256",
                    "name": "_price",
                    "type": "uint256"
                },
                {
                    "internalType": "uint256",
                    "name": "_maxIterations",
                    "type": "uint256"
                }
            ],
            "name": "getRedemptionHints",
            "outputs": [
                {
                    "internalType": "address",
                    "name": "firstRedemptionHint",
                    "type": "address"
                },
                {
                    "internalType": "uint256",
                    "name": "partialRedemptionHintNICR",
                    "type": "uint256"
                },
                {
                    "internalType": "uint256",
                    "name": "truncatedZUSDamount",
                    "type": "uint256"
                }
            ],
            "stateMutability": "view",
            "type": "function"
        },
        {
            "inputs": [],
            "name": "liquityBaseParams",
            "outputs": [
                {
                    "internalType": "contract ILiquityBaseParams",
                    "name": "",
                    "type": "address"
                }
            ],
            "stateMutability": "view",
            "type": "function"
        },
        {
            "inputs": [],
            "name": "priceFeed",
            "outputs": [
                {
                    "internalType": "contract IPriceFeed",
                    "name": "",
                    "type": "address"
                }
            ],
            "stateMutability": "view",
            "type": "function"
        },
        {
            "inputs": [
                {
                    "internalType": "address",
                    "name": "_liquityBaseParamsAddress",
                    "type": "address"
                },
                {
                    "internalType": "address",
                    "name": "_sortedTrovesAddress",
                    "type": "address"
                },
                {
                    "internalType": "address",
                    "name": "_troveManagerAddress",
                    "type": "address"
                }
            ],
            "name": "setAddresses",
            "outputs": [],
            "stateMutability": "nonpayable",
            "type": "function"
        },
        {
            "inputs": [
                {
                    "internalType": "address",
                    "name": "_owner",
                    "type": "address"
                }
            ],
            "name": "setOwner",
            "outputs": [],
            "stateMutability": "nonpayable",
            "type": "function"
        },
        {
            "inputs": [],
            "name": "sortedTroves",
            "outputs": [
                {
                    "internalType": "contract ISortedTroves",
                    "name": "",
                    "type": "address"
                }
            ],
            "stateMutability": "view",
            "type": "function"
        },
        {
            "inputs": [],
            "name": "troveManager",
            "outputs": [
                {
                    "internalType": "contract ITroveManager",
                    "name": "",
                    "type": "address"
                }
            ],
            "stateMutability": "view",
            "type": "function"
        }
    ],
    "bytecode": "0x608060405234801561001057600080fd5b50610023336001600160e01b0361002816565b610110565b6001600160a01b03811661006d5760405162461bcd60e51b81526004018080602001828103825260228152602001806116d46022913960400191505060405180910390fd5b6001600160a01b0381166100886001600160e01b036100e616565b6001600160a01b03167f8be0079c531659141344cd1fd0a4f28419497f9722a3daafe3b4186f6b6457e060405160405180910390a3604080517035b2bc9737bbb730b136329737bbb732b960791b8152905190819003601101902055565b604080517035b2bc9737bbb730b136329737bbb732b960791b815290519081900360110190205490565b6115b58061011f6000396000f3fe608060405234801561001057600080fd5b506004361061012c5760003560e01c8063795d26c3116100ad5780639f070670116100715780639f070670146102b2578063a20baee614610251578063a3f4df7e146102ba578063ae91875414610337578063c394a7fa1461033f5761012c565b8063795d26c3146102695780637b41bdbe146102715780637f7dde4a1461029a578063887105d3146102a2578063893d20e8146102aa5761012c565b80633d83908a116100f45780633d83908a14610220578063525acdbb1461022857806372fe25aa14610251578063741bef1a14610259578063759b3034146102615761012c565b806313144dba1461013157806313af4035146101825780631bf43555146101aa578063363bf964146101c45780633cc74225146101fc575b600080fd5b61015a6004803603606081101561014757600080fd5b5080359060208101359060400135610362565b604080516001600160a01b039094168452602084019290925282820152519081900360600190f35b6101a86004803603602081101561019857600080fd5b50356001600160a01b0316610951565b005b6101b26109c4565b60408051918252519081900360200190f35b6101a8600480360360608110156101da57600080fd5b506001600160a01b0381358116916020810135821691604090910135166109d1565b610204610b05565b604080516001600160a01b039092168252519081900360200190f35b610204610b14565b6101b26004803603606081101561023e57600080fd5b5080359060208101359060400135610b23565b6101b2610b3a565b610204610b46565b6101b2610b55565b6101b2610b62565b61015a6004803603606081101561028757600080fd5b5080359060208101359060400135610c61565b610204610f72565b6101b2610f81565b61020461103d565b610204611067565b6102c2611076565b6040805160208082528351818301528351919283929083019185019080838360005b838110156102fc5781810151838201526020016102e4565b50505050905090810190601f1680156103295780820380516001836020036101000a031916815260200191505b509250505060405180910390f35b61020461109d565b6101b26004803603604081101561035557600080fd5b50803590602001356110ac565b6004805460408051634d62283160e01b81529051600093849384936001600160a01b0390911692899285928592634d62283192828101926020929190829003018186803b1580156103b257600080fd5b505afa1580156103c6573d6000803e3d6000fd5b505050506040513d60208110156103dc57600080fd5b505190505b6001600160a01b038116158015906104f05750600360009054906101000a90046001600160a01b03166001600160a01b031663794e57246040518163ffffffff1660e01b815260040160206040518083038186803b15801561044257600080fd5b505afa158015610456573d6000803e3d6000fd5b505050506040513d602081101561046c57600080fd5b505160055460408051630d293c7160e41b81526001600160a01b038581166004830152602482018d90529151919092169163d293c710916044808301926020929190829003018186803b1580156104c257600080fd5b505afa1580156104d6573d6000803e3d6000fd5b505050506040513d60208110156104ec57600080fd5b5051105b1561057e57826001600160a01b031663b72703ac826040518263ffffffff1660e01b815260040180826001600160a01b03166001600160a01b0316815260200191505060206040518083038186803b15801561054b57600080fd5b505afa15801561055f573d6000803e3d6000fd5b505050506040513d602081101561057557600080fd5b505190506103e1565b9450848661058c5760001996505b6001600160a01b038116158015906105a45750600082115b80156105b4575060001987019615155b1561093357600554604080516317c62b1760e01b81526001600160a01b03848116600483015291516000936106c59316916317c62b17916024808301926020929190829003018186803b15801561060a57600080fd5b505afa15801561061e573d6000803e3d6000fd5b505050506040513d602081101561063457600080fd5b50516005546040805163d66a255360e01b81526001600160a01b03878116600483015291516106b993929092169163d66a255391602480820192602092909190829003018186803b15801561068857600080fd5b505afa15801561069c573d6000803e3d6000fd5b505050506040513d60208110156106b257600080fd5b50516110c1565b9063ffffffff6110dc16565b905082811115610896576809c2007651b2500000811115610890576000610704846106ff846809c2007651b250000063ffffffff61113616565b611178565b60055460408051635d8c960960e01b81526001600160a01b038781166004830152915193945060009361080d939290921691635d8c960991602480820192602092909190829003018186803b15801561075c57600080fd5b505afa158015610770573d6000803e3d6000fd5b505050506040513d602081101561078657600080fd5b5051600554604080516309019aaf60e31b81526001600160a01b0389811660048301529151919092169163480cd578916024808301926020929190829003018186803b1580156107d557600080fd5b505afa1580156107e9573d6000803e3d6000fd5b505050506040513d60208110156107ff57600080fd5b50519063ffffffff6110dc16565b9050600061084961083c8d61083086670de0b6b3a764000063ffffffff61118e16565b9063ffffffff6111e716565b839063ffffffff61113616565b9050600061085d858563ffffffff61113616565b9050600061086a82611229565b90506108768382611244565b9a50610888888663ffffffff61113616565b975050505050505b50610933565b6108a6838263ffffffff61113616565b9250836001600160a01b031663b72703ac836040518263ffffffff1660e01b815260040180826001600160a01b03166001600160a01b0316815260200191505060206040518083038186803b1580156108fe57600080fd5b505afa158015610912573d6000803e3d6000fd5b505050506040513d602081101561092857600080fd5b5051915061058c9050565b610943898363ffffffff61113616565b935050505093509350939050565b61095961103d565b6001600160a01b0316336001600160a01b0316146109b8576040805162461bcd60e51b815260206004820152601760248201527613dddb98589b194e8e881858d8d95cdcc819195b9a5959604a1b604482015290519081900360640190fd5b6109c181611279565b50565b6809c2007651b250000081565b6109d961103d565b6001600160a01b0316336001600160a01b031614610a38576040805162461bcd60e51b815260206004820152601760248201527613dddb98589b194e8e881858d8d95cdcc819195b9a5959604a1b604482015290519081900360640190fd5b610a418361132e565b610a4a8261132e565b610a538161132e565b600380546001600160a01b038086166001600160a01b031992831617909255600480548584169083168117909155600580549385169390921692909217905560408051918252517f65f4cf077bc01e4742eb5ad98326f6e95b63548ea24b17f8d5e823111fe788009181900360200190a1604080516001600160a01b038316815290517f143219c9e69b09e07e095fcc889b43d8f46ca892bba65f08dc3a0050869a56789181900360200190a1505050565b6001546001600160a01b031681565b6005546001600160a01b031681565b6000610b308484846113e1565b90505b9392505050565b670de0b6b3a764000081565b6002546001600160a01b031681565b6801158e460913d0000081565b60008054604080516272c7d360e71b8152905183926001600160a01b031691633963e980916004808301926020929190829003018186803b158015610ba657600080fd5b505afa158015610bba573d6000803e3d6000fd5b505050506040513d6020811015610bd057600080fd5b5051600154604080516272c7d360e71b815290519293506000926001600160a01b0390921691633963e98091600480820192602092909190829003018186803b158015610c1c57600080fd5b505afa158015610c30573d6000803e3d6000fd5b505050506040513d6020811015610c4657600080fd5b50519050610c5a828263ffffffff6110dc16565b9250505090565b600080600080600560009054906101000a90046001600160a01b03166001600160a01b03166349eefeee6040518163ffffffff1660e01b815260040160206040518083038186803b158015610cb557600080fd5b505afa158015610cc9573d6000803e3d6000fd5b505050506040513d6020811015610cdf57600080fd5b5051905080610cf8575060009250829150839050610f69565b6004805460408051634d62283160e01b815290516001600160a01b0390921692634d622831928282019260209290829003018186803b158015610d3a57600080fd5b505afa158015610d4e573d6000803e3d6000fd5b505050506040513d6020811015610d6457600080fd5b50516005546040805163b0d8e18160e01b81526001600160a01b0380851660048301529151939750610dee938b93929092169163b0d8e18191602480820192602092909190829003018186803b158015610dbd57600080fd5b505afa158015610dd1573d6000803e3d6000fd5b505050506040513d6020811015610de757600080fd5b5051611411565b925084915060015b86811015610f6657604080516020808201959095528151808203860181529082019091528051930192909220916000828481610e2e57fe5b0690506000600560009054906101000a90046001600160a01b03166001600160a01b031663d9a72444836040518263ffffffff1660e01b81526004018082815260200191505060206040518083038186803b158015610e8c57600080fd5b505afa158015610ea0573d6000803e3d6000fd5b505050506040513d6020811015610eb657600080fd5b50516005546040805163b0d8e18160e01b81526001600160a01b0380851660048301529151939450600093919092169163b0d8e181916024808301926020929190829003018186803b158015610f0b57600080fd5b505afa158015610f1f573d6000803e3d6000fd5b505050506040513d6020811015610f3557600080fd5b505190506000610f45828d611411565b905087811015610f56578097508298505b505060019092019150610df69050565b50505b93509350939050565b6000546001600160a01b031681565b6000805460408051630a7b61df60e11b8152905183926001600160a01b0316916314f6c3be916004808301926020929190829003018186803b158015610fc657600080fd5b505afa158015610fda573d6000803e3d6000fd5b505050506040513d6020811015610ff057600080fd5b505160015460408051630a7b61df60e11b815290519293506000926001600160a01b03909216916314f6c3be91600480820192602092909190829003018186803b158015610c1c57600080fd5b604080517035b2bc9737bbb730b136329737bbb732b960791b815290519081900360110190205490565b6003546001600160a01b031681565b6040518060400160405280600b81526020016a48696e7448656c7065727360a81b81525081565b6004546001600160a01b031681565b60006110b88383611244565b90505b92915050565b60006110bb826801158e460913d0000063ffffffff61113616565b6000828201838110156110b8576040805162461bcd60e51b815260206004820152601b60248201527f536166654d6174683a206164646974696f6e206f766572666c6f770000000000604482015290519081900360640190fd5b60006110b883836040518060400160405280601e81526020017f536166654d6174683a207375627472616374696f6e206f766572666c6f770000815250611440565b600081831061118757816110b8565b5090919050565b60008261119d575060006110bb565b828202828482816111aa57fe5b04146110b85760405162461bcd60e51b815260040180806020018281038252602181526020018061155f6021913960400191505060405180910390fd5b60006110b883836040518060400160405280601a81526020017f536166654d6174683a206469766973696f6e206279207a65726f0000000000008152506114d7565b60006110bb826801158e460913d0000063ffffffff6110dc16565b6000811561127057611269826108308568056bc75e2d6310000063ffffffff61118e16565b90506110bb565b506000196110bb565b6001600160a01b0381166112be5760405162461bcd60e51b815260040180806020018281038252602281526020018061153d6022913960400191505060405180910390fd5b806001600160a01b03166112d061103d565b6001600160a01b03167f8be0079c531659141344cd1fd0a4f28419497f9722a3daafe3b4186f6b6457e060405160405180910390a3604080517035b2bc9737bbb730b136329737bbb732b960791b8152905190819003601101902055565b6001600160a01b038116611389576040805162461bcd60e51b815260206004820152601e60248201527f4163636f756e742063616e6e6f74206265207a65726f20616464726573730000604482015290519081900360640190fd5b803b806113dd576040805162461bcd60e51b815260206004820181905260248201527f4163636f756e7420636f64652073697a652063616e6e6f74206265207a65726f604482015290519081900360640190fd5b5050565b600082156114085760006113ff84610830878663ffffffff61118e16565b9150610b339050565b50600019610b33565b6000818310156114305761142b828463ffffffff61113616565b6110b8565b6110b8838363ffffffff61113616565b600081848411156114cf5760405162461bcd60e51b81526004018080602001828103825283818151815260200191508051906020019080838360005b8381101561149457818101518382015260200161147c565b50505050905090810190601f1680156114c15780820380516001836020036101000a031916815260200191505b509250505060405180910390fd5b505050900390565b600081836115265760405162461bcd60e51b815260206004820181815283516024840152835190928392604490910191908501908083836000831561149457818101518382015260200161147c565b50600083858161153257fe5b049594505050505056fe4f776e61626c653a3a7365744f776e65723a20696e76616c69642061646472657373536166654d6174683a206d756c7469706c69636174696f6e206f766572666c6f77a2646970667358221220ff1c606c6646c5d1578cac74d3c4aa1dc4e76494c53c4579d004cd2adf7725fa64736f6c634300060b00334f776e61626c653a3a7365744f776e65723a20696e76616c69642061646472657373",
    "linkReferences": {},
    "deployedLinkReferences": {}
}