{
    "_format": "hh-sol-artifact-1",
    "contractName": "LiquityBaseParams",
    "sourceName": "contracts/LiquityBaseParams.sol",
    "address": "0xf8B04A36c36d5DbD1a9Fe7B74897c609d6A17aa2",
    "abi": [
        {
            "anonymous": false,
            "inputs": [
                {
                    "indexed": true,
                    "internalType": "address",
                    "name": "previousOwner",
                    "type": "address"
                },
                {
                    "indexed": true,
                    "internalType": "address",
                    "name": "newOwner",
                    "type": "address"
                }
            ],
            "name": "OwnershipTransferred",
            "type": "event"
        },
        {
            "inputs": [],
            "name": "BORROWING_FEE_FLOOR",
            "outputs": [
                {
                    "internalType": "uint256",
                    "name": "",
                    "type": "uint256"
                }
            ],
            "stateMutability": "view",
            "type": "function"
        },
        {
            "inputs": [],
            "name": "CCR",
            "outputs": [
                {
                    "internalType": "uint256",
                    "name": "",
                    "type": "uint256"
                }
            ],
            "stateMutability": "view",
            "type": "function"
        },
        {
            "inputs": [],
            "name": "DECIMAL_PRECISION",
            "outputs": [
                {
                    "internalType": "uint256",
                    "name": "",
                    "type": "uint256"
                }
            ],
            "stateMutability": "view",
            "type": "function"
        },
        {
            "inputs": [],
            "name": "MAX_BORROWING_FEE",
            "outputs": [
                {
                    "internalType": "uint256",
                    "name": "",
                    "type": "uint256"
                }
            ],
            "stateMutability": "view",
            "type": "function"
        },
        {
            "inputs": [],
            "name": "MCR",
            "outputs": [
                {
                    "internalType": "uint256",
                    "name": "",
                    "type": "uint256"
                }
            ],
            "stateMutability": "view",
            "type": "function"
        },
        {
            "inputs": [],
            "name": "PERCENT_DIVISOR",
            "outputs": [
                {
                    "internalType": "uint256",
                    "name": "",
                    "type": "uint256"
                }
            ],
            "stateMutability": "view",
            "type": "function"
        },
        {
            "inputs": [],
            "name": "REDEMPTION_FEE_FLOOR",
            "outputs": [
                {
                    "internalType": "uint256",
                    "name": "",
                    "type": "uint256"
                }
            ],
            "stateMutability": "view",
            "type": "function"
        },
        {
            "inputs": [],
            "name": "getOwner",
            "outputs": [
                {
                    "internalType": "address",
                    "name": "_owner",
                    "type": "address"
                }
            ],
            "stateMutability": "view",
            "type": "function"
        },
        {
            "inputs": [],
            "name": "initialize",
            "outputs": [],
            "stateMutability": "nonpayable",
            "type": "function"
        },
        {
            "inputs": [
                {
                    "internalType": "uint256",
                    "name": "BORROWING_FEE_FLOOR_",
                    "type": "uint256"
                }
            ],
            "name": "setBorrowingFeeFloor",
            "outputs": [],
            "stateMutability": "nonpayable",
            "type": "function"
        },
        {
            "inputs": [
                {
                    "internalType": "uint256",
                    "name": "CCR_",
                    "type": "uint256"
                }
            ],
            "name": "setCCR",
            "outputs": [],
            "stateMutability": "nonpayable",
            "type": "function"
        },
        {
            "inputs": [
                {
                    "internalType": "uint256",
                    "name": "MCR_",
                    "type": "uint256"
                }
            ],
            "name": "setMCR",
            "outputs": [],
            "stateMutability": "nonpayable",
            "type": "function"
        },
        {
            "inputs": [
                {
                    "internalType": "uint256",
                    "name": "MAX_BORROWING_FEE_",
                    "type": "uint256"
                }
            ],
            "name": "setMaxBorrowingFee",
            "outputs": [],
            "stateMutability": "nonpayable",
            "type": "function"
        },
        {
            "inputs": [
                {
                    "internalType": "address",
                    "name": "_owner",
                    "type": "address"
                }
            ],
            "name": "setOwner",
            "outputs": [],
            "stateMutability": "nonpayable",
            "type": "function"
        },
        {
            "inputs": [
                {
                    "internalType": "uint256",
                    "name": "PERCENT_DIVISOR_",
                    "type": "uint256"
                }
            ],
            "name": "setPercentDivisor",
            "outputs": [],
            "stateMutability": "nonpayable",
            "type": "function"
        },
        {
            "inputs": [
                {
                    "internalType": "uint256",
                    "name": "REDEMPTION_FEE_FLOOR_",
                    "type": "uint256"
                }
            ],
            "name": "setRedemptionFeeFloor",
            "outputs": [],
            "stateMutability": "nonpayable",
            "type": "function"
        }
    ],
    "bytecode": "0x608060405234801561001057600080fd5b50610023336001600160e01b0361002816565b610110565b6001600160a01b03811661006d5760405162461bcd60e51b81526004018080602001828103825260228152602001806108e66022913960400191505060405180910390fd5b6001600160a01b0381166100886001600160e01b036100e616565b6001600160a01b03167f8be0079c531659141344cd1fd0a4f28419497f9722a3daafe3b4186f6b6457e060405160405180910390a3604080517035b2bc9737bbb730b136329737bbb732b960791b8152905190819003601101902055565b604080517035b2bc9737bbb730b136329737bbb732b960791b815290519081900360110190205490565b6107c78061011f6000396000f3fe608060405234801561001057600080fd5b50600436106100e05760003560e01c80636030cc8c116100875780636030cc8c146101965780636d454561146101b3578063794e5724146101d057806380038a0b146101d85780638129fc1c146101f5578063893d20e8146101fd578063a20baee614610221578063f92d343314610229576100e0565b806313af4035146100e5578063240926691461010d57806328d28b5b146101275780632e2465f81461012f578063385a128f1461014c5780634139ad60146101695780634870dd9a146101865780635733d58f1461018e575b600080fd5b61010b600480360360208110156100fb57600080fd5b50356001600160a01b0316610231565b005b610115610298565b60408051918252519081900360200190f35b61011561029e565b61010b6004803603602081101561014557600080fd5b50356102a4565b61010b6004803603602081101561016257600080fd5b5035610304565b61010b6004803603602081101561017f57600080fd5b5035610364565b6101156103c4565b6101156103ca565b61010b600480360360208110156101ac57600080fd5b50356103d0565b61010b600480360360208110156101c957600080fd5b5035610430565b610115610490565b61010b600480360360208110156101ee57600080fd5b5035610496565b61010b6104f6565b61020561062a565b604080516001600160a01b039092168252519081900360200190f35b610115610654565b610115610660565b61023961062a565b6001600160a01b0316336001600160a01b03161461028c576040805162461bcd60e51b81526020600482015260176024820152600080516020610722833981519152604482015290519081900360640190fd5b61029581610666565b50565b60385481565b60375481565b6102ac61062a565b6001600160a01b0316336001600160a01b0316146102ff576040805162461bcd60e51b81526020600482015260176024820152600080516020610722833981519152604482015290519081900360640190fd5b603655565b61030c61062a565b6001600160a01b0316336001600160a01b03161461035f576040805162461bcd60e51b81526020600482015260176024820152600080516020610722833981519152604482015290519081900360640190fd5b603355565b61036c61062a565b6001600160a01b0316336001600160a01b0316146103bf576040805162461bcd60e51b81526020600482015260176024820152600080516020610722833981519152604482015290519081900360640190fd5b603455565b60355481565b60345481565b6103d861062a565b6001600160a01b0316336001600160a01b03161461042b576040805162461bcd60e51b81526020600482015260176024820152600080516020610722833981519152604482015290519081900360640190fd5b603755565b61043861062a565b6001600160a01b0316336001600160a01b03161461048b576040805162461bcd60e51b81526020600482015260176024820152600080516020610722833981519152604482015290519081900360640190fd5b603555565b60335481565b61049e61062a565b6001600160a01b0316336001600160a01b0316146104f1576040805162461bcd60e51b81526020600482015260176024820152600080516020610722833981519152604482015290519081900360640190fd5b603855565b600054610100900460ff168061050f575061050f61071b565b8061051d575060005460ff16155b6105585760405162461bcd60e51b815260040180806020018281038252602e815260200180610764602e913960400191505060405180910390fd5b600054610100900460ff16158015610583576000805460ff1961ff0019909116610100171660011790555b61058b61062a565b6001600160a01b0316336001600160a01b0316146105de576040805162461bcd60e51b81526020600482015260176024820152600080516020610722833981519152604482015290519081900360640190fd5b670f43fc2c04ee00006033556714d1120d7b16000060345560c86035556611c37937e08000603681905560375566b1a2bc2ec500006038558015610295576000805461ff001916905550565b604080517035b2bc9737bbb730b136329737bbb732b960791b815290519081900360110190205490565b670de0b6b3a764000081565b60365481565b6001600160a01b0381166106ab5760405162461bcd60e51b81526004018080602001828103825260228152602001806107426022913960400191505060405180910390fd5b806001600160a01b03166106bd61062a565b6001600160a01b03167f8be0079c531659141344cd1fd0a4f28419497f9722a3daafe3b4186f6b6457e060405160405180910390a3604080517035b2bc9737bbb730b136329737bbb732b960791b8152905190819003601101902055565b303b159056fe4f776e61626c653a3a206163636573732064656e6965640000000000000000004f776e61626c653a3a7365744f776e65723a20696e76616c69642061646472657373436f6e747261637420696e7374616e63652068617320616c7265616479206265656e20696e697469616c697a6564a26469706673582212209b1fc4ebe36b013e04c33c8b1574ab765154511a9b95fe7e760cf2d686fd7abb64736f6c634300060b00334f776e61626c653a3a7365744f776e65723a20696e76616c69642061646472657373",
    "implementation": "0x4584A4f903821ebC9e83aaC129d5Af12d9024C3b",
    "linkReferences": {},
    "deployedLinkReferences": {}
}