{
    "_format": "hh-sol-artifact-1",
    "contractName": "SortedTroves",
    "sourceName": "contracts/SortedTroves.sol",
    "address": "0xdeEB95480B94f9395514Fe35CAF692A1C788DfE9",
    "implementation": "0x6dCC9c917a77C836057452dcC16A4e4F0A8ee2Dc",
    "abi": [
        {
            "anonymous": false,
            "inputs": [
                {
                    "indexed": false,
                    "internalType": "address",
                    "name": "_borrowerOperationsAddress",
                    "type": "address"
                }
            ],
            "name": "BorrowerOperationsAddressChanged",
            "type": "event"
        },
        {
            "anonymous": false,
            "inputs": [
                {
                    "indexed": false,
                    "internalType": "address",
                    "name": "_id",
                    "type": "address"
                },
                {
                    "indexed": false,
                    "internalType": "uint256",
                    "name": "_NICR",
                    "type": "uint256"
                }
            ],
            "name": "NodeAdded",
            "type": "event"
        },
        {
            "anonymous": false,
            "inputs": [
                {
                    "indexed": false,
                    "internalType": "address",
                    "name": "_id",
                    "type": "address"
                }
            ],
            "name": "NodeRemoved",
            "type": "event"
        },
        {
            "anonymous": false,
            "inputs": [
                {
                    "indexed": true,
                    "internalType": "address",
                    "name": "previousOwner",
                    "type": "address"
                },
                {
                    "indexed": true,
                    "internalType": "address",
                    "name": "newOwner",
                    "type": "address"
                }
            ],
            "name": "OwnershipTransferred",
            "type": "event"
        },
        {
            "anonymous": false,
            "inputs": [
                {
                    "indexed": false,
                    "internalType": "address",
                    "name": "_sortedDoublyLLAddress",
                    "type": "address"
                }
            ],
            "name": "SortedTrovesAddressChanged",
            "type": "event"
        },
        {
            "anonymous": false,
            "inputs": [
                {
                    "indexed": false,
                    "internalType": "address",
                    "name": "_troveManagerAddress",
                    "type": "address"
                }
            ],
            "name": "TroveManagerAddressChanged",
            "type": "event"
        },
        {
            "inputs": [],
            "name": "NAME",
            "outputs": [
                {
                    "internalType": "string",
                    "name": "",
                    "type": "string"
                }
            ],
            "stateMutability": "view",
            "type": "function"
        },
        {
            "inputs": [],
            "name": "borrowerOperationsAddress",
            "outputs": [
                {
                    "internalType": "address",
                    "name": "",
                    "type": "address"
                }
            ],
            "stateMutability": "view",
            "type": "function"
        },
        {
            "inputs": [
                {
                    "internalType": "address",
                    "name": "_id",
                    "type": "address"
                }
            ],
            "name": "contains",
            "outputs": [
                {
                    "internalType": "bool",
                    "name": "",
                    "type": "bool"
                }
            ],
            "stateMutability": "view",
            "type": "function"
        },
        {
            "inputs": [],
            "name": "data",
            "outputs": [
                {
                    "internalType": "address",
                    "name": "head",
                    "type": "address"
                },
                {
                    "internalType": "address",
                    "name": "tail",
                    "type": "address"
                },
                {
                    "internalType": "uint256",
                    "name": "maxSize",
                    "type": "uint256"
                },
                {
                    "internalType": "uint256",
                    "name": "size",
                    "type": "uint256"
                }
            ],
            "stateMutability": "view",
            "type": "function"
        },
        {
            "inputs": [
                {
                    "internalType": "uint256",
                    "name": "_NICR",
                    "type": "uint256"
                },
                {
                    "internalType": "address",
                    "name": "_prevId",
                    "type": "address"
                },
                {
                    "internalType": "address",
                    "name": "_nextId",
                    "type": "address"
                }
            ],
            "name": "findInsertPosition",
            "outputs": [
                {
                    "internalType": "address",
                    "name": "",
                    "type": "address"
                },
                {
                    "internalType": "address",
                    "name": "",
                    "type": "address"
                }
            ],
            "stateMutability": "view",
            "type": "function"
        },
        {
            "inputs": [],
            "name": "getFirst",
            "outputs": [
                {
                    "internalType": "address",
                    "name": "",
                    "type": "address"
                }
            ],
            "stateMutability": "view",
            "type": "function"
        },
        {
            "inputs": [],
            "name": "getLast",
            "outputs": [
                {
                    "internalType": "address",
                    "name": "",
                    "type": "address"
                }
            ],
            "stateMutability": "view",
            "type": "function"
        },
        {
            "inputs": [],
            "name": "getMaxSize",
            "outputs": [
                {
                    "internalType": "uint256",
                    "name": "",
                    "type": "uint256"
                }
            ],
            "stateMutability": "view",
            "type": "function"
        },
        {
            "inputs": [
                {
                    "internalType": "address",
                    "name": "_id",
                    "type": "address"
                }
            ],
            "name": "getNext",
            "outputs": [
                {
                    "internalType": "address",
                    "name": "",
                    "type": "address"
                }
            ],
            "stateMutability": "view",
            "type": "function"
        },
        {
            "inputs": [],
            "name": "getOwner",
            "outputs": [
                {
                    "internalType": "address",
                    "name": "_owner",
                    "type": "address"
                }
            ],
            "stateMutability": "view",
            "type": "function"
        },
        {
            "inputs": [
                {
                    "internalType": "address",
                    "name": "_id",
                    "type": "address"
                }
            ],
            "name": "getPrev",
            "outputs": [
                {
                    "internalType": "address",
                    "name": "",
                    "type": "address"
                }
            ],
            "stateMutability": "view",
            "type": "function"
        },
        {
            "inputs": [],
            "name": "getSize",
            "outputs": [
                {
                    "internalType": "uint256",
                    "name": "",
                    "type": "uint256"
                }
            ],
            "stateMutability": "view",
            "type": "function"
        },
        {
            "inputs": [
                {
                    "internalType": "address",
                    "name": "_id",
                    "type": "address"
                },
                {
                    "internalType": "uint256",
                    "name": "_NICR",
                    "type": "uint256"
                },
                {
                    "internalType": "address",
                    "name": "_prevId",
                    "type": "address"
                },
                {
                    "internalType": "address",
                    "name": "_nextId",
                    "type": "address"
                }
            ],
            "name": "insert",
            "outputs": [],
            "stateMutability": "nonpayable",
            "type": "function"
        },
        {
            "inputs": [],
            "name": "isEmpty",
            "outputs": [
                {
                    "internalType": "bool",
                    "name": "",
                    "type": "bool"
                }
            ],
            "stateMutability": "view",
            "type": "function"
        },
        {
            "inputs": [],
            "name": "isFull",
            "outputs": [
                {
                    "internalType": "bool",
                    "name": "",
                    "type": "bool"
                }
            ],
            "stateMutability": "view",
            "type": "function"
        },
        {
            "inputs": [
                {
                    "internalType": "address",
                    "name": "_id",
                    "type": "address"
                },
                {
                    "internalType": "uint256",
                    "name": "_newNICR",
                    "type": "uint256"
                },
                {
                    "internalType": "address",
                    "name": "_prevId",
                    "type": "address"
                },
                {
                    "internalType": "address",
                    "name": "_nextId",
                    "type": "address"
                }
            ],
            "name": "reInsert",
            "outputs": [],
            "stateMutability": "nonpayable",
            "type": "function"
        },
        {
            "inputs": [
                {
                    "internalType": "address",
                    "name": "_id",
                    "type": "address"
                }
            ],
            "name": "remove",
            "outputs": [],
            "stateMutability": "nonpayable",
            "type": "function"
        },
        {
            "inputs": [
                {
                    "internalType": "address",
                    "name": "_owner",
                    "type": "address"
                }
            ],
            "name": "setOwner",
            "outputs": [],
            "stateMutability": "nonpayable",
            "type": "function"
        },
        {
            "inputs": [
                {
                    "internalType": "uint256",
                    "name": "_size",
                    "type": "uint256"
                },
                {
                    "internalType": "address",
                    "name": "_troveManagerAddress",
                    "type": "address"
                },
                {
                    "internalType": "address",
                    "name": "_borrowerOperationsAddress",
                    "type": "address"
                }
            ],
            "name": "setParams",
            "outputs": [],
            "stateMutability": "nonpayable",
            "type": "function"
        },
        {
            "inputs": [],
            "name": "troveManager",
            "outputs": [
                {
                    "internalType": "contract ITroveManager",
                    "name": "",
                    "type": "address"
                }
            ],
            "stateMutability": "view",
            "type": "function"
        },
        {
            "inputs": [
                {
                    "internalType": "uint256",
                    "name": "_NICR",
                    "type": "uint256"
                },
                {
                    "internalType": "address",
                    "name": "_prevId",
                    "type": "address"
                },
                {
                    "internalType": "address",
                    "name": "_nextId",
                    "type": "address"
                }
            ],
            "name": "validInsertPosition",
            "outputs": [
                {
                    "internalType": "bool",
                    "name": "",
                    "type": "bool"
                }
            ],
            "stateMutability": "view",
            "type": "function"
        }
    ],
    "bytecode": "0x608060405234801561001057600080fd5b50610023336001600160e01b0361002816565b610110565b6001600160a01b03811661006d5760405162461bcd60e51b8152600401808060200182810382526022815260200180611b186022913960400191505060405180910390fd5b6001600160a01b0381166100886001600160e01b036100e616565b6001600160a01b03167f8be0079c531659141344cd1fd0a4f28419497f9722a3daafe3b4186f6b6457e060405160405180910390a3604080517035b2bc9737bbb730b136329737bbb732b960791b8152905190819003601101902055565b604080517035b2bc9737bbb730b136329737bbb732b960791b815290519081900360110190205490565b6119f98061011f6000396000f3fe608060405234801561001057600080fd5b50600436106101375760003560e01c806363e1d57c116100b8578063a3f4df7e1161007c578063a3f4df7e14610388578063b72703ac14610405578063b7f8cf9b1461042b578063babd3d9a14610433578063de8fa4311461043b578063f376d7981461044357610137565b806363e1d57c146102fe578063681fe70c1461031857806373d4a13a14610320578063765e01591461035a578063893d20e81461038057610137565b80633fce12d5116100ff5780633fce12d5146101f2578063416980dc1461023a57806346f7cf87146102945780634d622831146102d05780635dbe47e8146102d857610137565b806313af40351461013c5780631e2231431461016457806329092d0e146101885780632be21260146101ae5780633d83908a146101ea575b600080fd5b6101626004803603602081101561015257600080fd5b50356001600160a01b0316610477565b005b61016c6104ea565b604080516001600160a01b039092168252519081900360200190f35b6101626004803603602081101561019e57600080fd5b50356001600160a01b03166104f9565b610162600480360360808110156101c457600080fd5b506001600160a01b0381358116916020810135916040820135811691606001351661050a565b61016c6105bf565b6102266004803603606081101561020857600080fd5b508035906001600160a01b03602082013581169160400135166105ce565b604080519115158252519081900360200190f35b61026e6004803603606081101561025057600080fd5b508035906001600160a01b03602082013581169160400135166105f1565b604080516001600160a01b03938416815291909216602082015281519081900390910190f35b610162600480360360808110156102aa57600080fd5b506001600160a01b0381358116916020810135916040820135811691606001351661061b565b61016c610630565b610226600480360360208110156102ee57600080fd5b50356001600160a01b031661063f565b61030661065d565b60408051918252519081900360200190f35b610226610663565b61032861066a565b604080516001600160a01b03958616815293909416602084015282840191909152606082015290519081900360800190f35b61016c6004803603602081101561037057600080fd5b50356001600160a01b0316610689565b61016c6106ac565b6103906106d6565b6040805160208082528351818301528351919283929083019185019080838360005b838110156103ca5781810151838201526020016103b2565b50505050905090810190601f1680156103f75780820380516001836020036101000a031916815260200191505b509250505060405180910390f35b61016c6004803603602081101561041b57600080fd5b50356001600160a01b03166106fe565b61016c61071f565b61022661072e565b610306610738565b6101626004803603606081101561045957600080fd5b508035906001600160a01b036020820135811691604001351661073e565b61047f6106ac565b6001600160a01b0316336001600160a01b0316146104de576040805162461bcd60e51b815260206004820152601760248201527613dddb98589b194e8e881858d8d95cdcc819195b9a5959604a1b604482015290519081900360640190fd5b6104e78161089c565b50565b6002546001600160a01b031690565b610501610951565b6104e78161099c565b6001546001600160a01b031661051f81610bd0565b6105288561063f565b6105635760405162461bcd60e51b815260040180806020018281038252602a8152602001806118da602a913960400191505060405180910390fd5b600084116105a25760405162461bcd60e51b81526004018080602001828103825260238152602001806119a16023913960400191505060405180910390fd5b6105ab8561099c565b6105b88186868686610c2c565b5050505050565b6001546001600160a01b031681565b6001546000906105e9906001600160a01b0316858585610fb0565b949350505050565b600154600090819061060e906001600160a01b0316868686611257565b915091505b935093915050565b6001546001600160a01b03166105ab81610bd0565b6003546001600160a01b031690565b6001600160a01b031660009081526006602052604090205460ff1690565b60045490565b6005541590565b6002546003546004546005546001600160a01b03938416939092169184565b6001600160a01b0390811660009081526006602052604090205461010090041690565b604080517035b2bc9737bbb730b136329737bbb732b960791b815290519081900360110190205490565b6040518060400160405280600c81526020016b536f7274656454726f76657360a01b81525081565b6001600160a01b039081166000908152600660205260409020600101541690565b6000546001600160a01b031681565b6004546005541490565b60055490565b6107466106ac565b6001600160a01b0316336001600160a01b0316146107a5576040805162461bcd60e51b815260206004820152601760248201527613dddb98589b194e8e881858d8d95cdcc819195b9a5959604a1b604482015290519081900360640190fd5b600083116107e45760405162461bcd60e51b81526004018080602001828103825260228152602001806119046022913960400191505060405180910390fd5b6107ed82611444565b6107f681611444565b6004839055600180546001600160a01b038085166001600160a01b03199283168117909355600080549185169190921617905560408051918252517f143219c9e69b09e07e095fcc889b43d8f46ca892bba65f08dc3a0050869a56789181900360200190a1604080516001600160a01b038316815290517f3ca631ffcd2a9b5d9ae18543fc82f58eb4ca33af9e6ab01b7a8e95331e6ed9859181900360200190a1505050565b6001600160a01b0381166108e15760405162461bcd60e51b81526004018080602001828103825260228152602001806119526022913960400191505060405180910390fd5b806001600160a01b03166108f36106ac565b6001600160a01b03167f8be0079c531659141344cd1fd0a4f28419497f9722a3daafe3b4186f6b6457e060405160405180910390a3604080517035b2bc9737bbb730b136329737bbb732b960791b8152905190819003601101902055565b6001546001600160a01b0316331461099a5760405162461bcd60e51b815260040180806020018281038252602c815260200180611926602c913960400191505060405180910390fd5b565b6109a58161063f565b6109e05760405162461bcd60e51b815260040180806020018281038252602a8152602001806118da602a913960400191505060405180910390fd5b60055460011015610b26576002546001600160a01b0382811691161415610a4f576001600160a01b03818116600090815260066020526040808220546002805461010090920485166001600160a01b031992831617908190559093168252902060010180549091169055610b21565b6003546001600160a01b0382811691161415610ab6576001600160a01b0380821660009081526006602052604080822060010154600380546001600160a01b03191691851691909117908190559092168152208054610100600160a81b0319169055610b21565b6001600160a01b038082166000908152600660205260408082208054600180830180548716865284862080546101009485900489168502610100600160a81b03199091161790555492549190910485168452919092200180546001600160a01b031916919092161790555b610b43565b600280546001600160a01b03199081169091556003805490911690555b6001600160a01b038116600090815260066020526040902080546001600160a81b0319168155600190810180546001600160a01b0319169055600554610b8e9163ffffffff6114f716565b600555604080516001600160a01b038316815290517fcfc24166db4bb677e857cacabd1541fb2b30645021b27c5130419589b84db52b9181900360200190a150565b6000546001600160a01b0316331480610bf15750336001600160a01b038216145b6104e75760405162461bcd60e51b815260040180806020018281038252602d815260200180611974602d913960400191505060405180910390fd5b610c3461072e565b15610c86576040805162461bcd60e51b815260206004820152601a60248201527f536f7274656454726f7665733a204c6973742069732066756c6c000000000000604482015290519081900360640190fd5b610c8f8461063f565b15610ccb5760405162461bcd60e51b815260040180806020018281038252602c8152602001806118ae602c913960400191505060405180910390fd5b6001600160a01b038416610d26576040805162461bcd60e51b815260206004820152601f60248201527f536f7274656454726f7665733a2049642063616e6e6f74206265207a65726f00604482015290519081900360640190fd5b60008311610d655760405162461bcd60e51b81526004018080602001828103825260238152602001806119a16023913960400191505060405180910390fd5b8181610d7387868484610fb0565b610d8957610d8387868484611257565b90925090505b6001600160a01b038087166000908152600660205260409020805460ff191660011790558216158015610dc357506001600160a01b038116155b15610df857600280546001600160a01b0388166001600160a01b03199182168117909255600380549091169091179055610f4c565b6001600160a01b038216610e6c57600280546001600160a01b03888116600081815260066020526040808220805495851661010002610100600160a81b0319909616959095179094558454909216825291902060010180546001600160a01b03199081168317909155825416179055610f4c565b6001600160a01b038116610edc57600380546001600160a01b0388811660008181526006602052604080822060010180549585166001600160a01b031996871617905585549093168152919091208054610100600160a81b03191661010083021790558254909116179055610f4c565b6001600160a01b038087166000818152600660205260408082208054858716610100818102610100600160a81b031993841617845560019384018054988b166001600160a01b0319998a168117909155865284862080549188029190931617909155835291200180549092161790555b600554610f6090600163ffffffff61154016565b600555604080516001600160a01b03881681526020810187905281517fe02b43adbee0c123de070a04554a71877a0007e2fc161466299cae3c094fe82f929181900390910190a150505050505050565b60006001600160a01b038316158015610fd057506001600160a01b038216155b15610fe457610fdd610663565b90506105e9565b6001600160a01b038316611096576002546001600160a01b038381169116148015610fdd5750846001600160a01b031663b0d8e181836040518263ffffffff1660e01b815260040180826001600160a01b03166001600160a01b0316815260200191505060206040518083038186803b15801561106057600080fd5b505afa158015611074573d6000803e3d6000fd5b505050506040513d602081101561108a57600080fd5b505184101590506105e9565b6001600160a01b038216611148576003546001600160a01b038481169116148015610fdd5750846001600160a01b031663b0d8e181846040518263ffffffff1660e01b815260040180826001600160a01b03166001600160a01b0316815260200191505060206040518083038186803b15801561111257600080fd5b505afa158015611126573d6000803e3d6000fd5b505050506040513d602081101561113c57600080fd5b505184111590506105e9565b6001600160a01b03838116600090815260066020526040902054610100900481169083161480156111fa575083856001600160a01b031663b0d8e181856040518263ffffffff1660e01b815260040180826001600160a01b03166001600160a01b0316815260200191505060206040518083038186803b1580156111cb57600080fd5b505afa1580156111df573d6000803e3d6000fd5b505050506040513d60208110156111f557600080fd5b505110155b8015610fdd5750846001600160a01b031663b0d8e181836040518263ffffffff1660e01b815260040180826001600160a01b03166001600160a01b0316815260200191505060206040518083038186803b15801561106057600080fd5b60008083836001600160a01b0382161561130a576112748261063f565b15806113005750876001600160a01b031663b0d8e181836040518263ffffffff1660e01b815260040180826001600160a01b03166001600160a01b0316815260200191505060206040518083038186803b1580156112d157600080fd5b505afa1580156112e5573d6000803e3d6000fd5b505050506040513d60208110156112fb57600080fd5b505187115b1561130a57600091505b6001600160a01b038116156113b7576113228161063f565b15806113ae5750876001600160a01b031663b0d8e181826040518263ffffffff1660e01b815260040180826001600160a01b03166001600160a01b0316815260200191505060206040518083038186803b15801561137f57600080fd5b505afa158015611393573d6000803e3d6000fd5b505050506040513d60208110156113a957600080fd5b505187105b156113b7575060005b6001600160a01b0382161580156113d557506001600160a01b038116155b156113fe576002546113f390899089906001600160a01b031661159a565b93509350505061143b565b6001600160a01b038216611417576113f38888836116db565b6001600160a01b038116611430576113f388888461159a565b6113f388888461159a565b94509492505050565b6001600160a01b03811661149f576040805162461bcd60e51b815260206004820152601e60248201527f4163636f756e742063616e6e6f74206265207a65726f20616464726573730000604482015290519081900360640190fd5b803b806114f3576040805162461bcd60e51b815260206004820181905260248201527f4163636f756e7420636f64652073697a652063616e6e6f74206265207a65726f604482015290519081900360640190fd5b5050565b600061153983836040518060400160405280601e81526020017f536166654d6174683a207375627472616374696f6e206f766572666c6f770000815250611816565b9392505050565b600082820183811015611539576040805162461bcd60e51b815260206004820152601b60248201527f536166654d6174683a206164646974696f6e206f766572666c6f770000000000604482015290519081900360640190fd5b60025460009081906001600160a01b03848116911614801561163d5750846001600160a01b031663b0d8e181846040518263ffffffff1660e01b815260040180826001600160a01b03166001600160a01b0316815260200191505060206040518083038186803b15801561160d57600080fd5b505afa158015611621573d6000803e3d6000fd5b505050506040513d602081101561163757600080fd5b50518410155b1561164d57506000905081610613565b6001600160a01b038084166000908152600660205260409020548491610100909104165b6001600160a01b03821615801590611692575061169087878484610fb0565b155b156116cf57506001600160a01b03908116600090815260066020526040808220546101009081900484168084529190922054909291900416611671565b90969095509350505050565b60035460009081906001600160a01b03848116911614801561177e5750846001600160a01b031663b0d8e181846040518263ffffffff1660e01b815260040180826001600160a01b03166001600160a01b0316815260200191505060206040518083038186803b15801561174e57600080fd5b505afa158015611762573d6000803e3d6000fd5b505050506040513d602081101561177857600080fd5b50518411155b1561178e57508190506000610613565b6001600160a01b038084166000908152600660205260409020600101548491165b6001600160a01b038216158015906117d057506117ce87878385610fb0565b155b1561180b57506001600160a01b03908116600090815260066020526040808220600190810154841680845291909220909101549091166117af565b969095509350505050565b600081848411156118a55760405162461bcd60e51b81526004018080602001828103825283818151815260200191508051906020019080838360005b8381101561186a578181015183820152602001611852565b50505050905090810190601f1680156118975780820380516001836020036101000a031916815260200191505b509250505060405180910390fd5b50505090039056fe536f7274656454726f7665733a204c69737420616c726561647920636f6e7461696e7320746865206e6f6465536f7274656454726f7665733a204c69737420646f6573206e6f7420636f6e7461696e20746865206964536f7274656454726f7665733a2053697a652063616ee2809974206265207a65726f536f7274656454726f7665733a2043616c6c6572206973206e6f74207468652054726f76654d616e616765724f776e61626c653a3a7365744f776e65723a20696e76616c69642061646472657373536f7274656454726f7665733a2043616c6c6572206973206e65697468657220424f206e6f722054726f76654d536f7274656454726f7665733a204e494352206d75737420626520706f736974697665a2646970667358221220090b582aaa1c0e1eea346342364b540b4f9226539489cca2eb4009a10199479864736f6c634300060b00334f776e61626c653a3a7365744f776e65723a20696e76616c69642061646472657373",
    "linkReferences": {},
    "deployedLinkReferences": {}
}