{
    "_format": "hh-sol-artifact-1",
    "contractName": "TroveManager",
    "sourceName": "contracts/TroveManager.sol",
    "address": "0x90CA848fF40AA416A22a353cE095Ca8461995AeE",
    "abi": [
        {
            "anonymous": false,
            "inputs": [
                {
                    "indexed": false,
                    "internalType": "address",
                    "name": "_activePoolAddress",
                    "type": "address"
                }
            ],
            "name": "ActivePoolAddressChanged",
            "type": "event"
        },
        {
            "anonymous": false,
            "inputs": [
                {
                    "indexed": false,
                    "internalType": "uint256",
                    "name": "_baseRate",
                    "type": "uint256"
                }
            ],
            "name": "BaseRateUpdated",
            "type": "event"
        },
        {
            "anonymous": false,
            "inputs": [
                {
                    "indexed": false,
                    "internalType": "address",
                    "name": "_newBorrowerOperationsAddress",
                    "type": "address"
                }
            ],
            "name": "BorrowerOperationsAddressChanged",
            "type": "event"
        },
        {
            "anonymous": false,
            "inputs": [
                {
                    "indexed": false,
                    "internalType": "address",
                    "name": "_collSurplusPoolAddress",
                    "type": "address"
                }
            ],
            "name": "CollSurplusPoolAddressChanged",
            "type": "event"
        },
        {
            "anonymous": false,
            "inputs": [
                {
                    "indexed": false,
                    "internalType": "address",
                    "name": "_defaultPoolAddress",
                    "type": "address"
                }
            ],
            "name": "DefaultPoolAddressChanged",
            "type": "event"
        },
        {
            "anonymous": false,
            "inputs": [
                {
                    "indexed": false,
                    "internalType": "address",
                    "name": "_feeDistributorAddress",
                    "type": "address"
                }
            ],
            "name": "FeeDistributorAddressChanged",
            "type": "event"
        },
        {
            "anonymous": false,
            "inputs": [
                {
                    "indexed": false,
                    "internalType": "address",
                    "name": "_gasPoolAddress",
                    "type": "address"
                }
            ],
            "name": "GasPoolAddressChanged",
            "type": "event"
        },
        {
            "anonymous": false,
            "inputs": [
                {
                    "indexed": false,
                    "internalType": "uint256",
                    "name": "_L_ETH",
                    "type": "uint256"
                },
                {
                    "indexed": false,
                    "internalType": "uint256",
                    "name": "_L_ZUSDDebt",
                    "type": "uint256"
                }
            ],
            "name": "LTermsUpdated",
            "type": "event"
        },
        {
            "anonymous": false,
            "inputs": [
                {
                    "indexed": false,
                    "internalType": "uint256",
                    "name": "_lastFeeOpTime",
                    "type": "uint256"
                }
            ],
            "name": "LastFeeOpTimeUpdated",
            "type": "event"
        },
        {
            "anonymous": false,
            "inputs": [
                {
                    "indexed": false,
                    "internalType": "uint256",
                    "name": "_liquidatedDebt",
                    "type": "uint256"
                },
                {
                    "indexed": false,
                    "internalType": "uint256",
                    "name": "_liquidatedColl",
                    "type": "uint256"
                },
                {
                    "indexed": false,
                    "internalType": "uint256",
                    "name": "_collGasCompensation",
                    "type": "uint256"
                },
                {
                    "indexed": false,
                    "internalType": "uint256",
                    "name": "_ZUSDGasCompensation",
                    "type": "uint256"
                }
            ],
            "name": "Liquidation",
            "type": "event"
        },
        {
            "anonymous": false,
            "inputs": [
                {
                    "indexed": false,
                    "internalType": "address",
                    "name": "_borrowerOperationsAddress",
                    "type": "address"
                }
            ],
            "name": "LiquityBaseParamsAddressChanges",
            "type": "event"
        },
        {
            "anonymous": false,
            "inputs": [
                {
                    "indexed": true,
                    "internalType": "address",
                    "name": "previousOwner",
                    "type": "address"
                },
                {
                    "indexed": true,
                    "internalType": "address",
                    "name": "newOwner",
                    "type": "address"
                }
            ],
            "name": "OwnershipTransferred",
            "type": "event"
        },
        {
            "anonymous": false,
            "inputs": [
                {
                    "indexed": false,
                    "internalType": "address",
                    "name": "_newPriceFeedAddress",
                    "type": "address"
                }
            ],
            "name": "PriceFeedAddressChanged",
            "type": "event"
        },
        {
            "anonymous": false,
            "inputs": [
                {
                    "indexed": false,
                    "internalType": "uint256",
                    "name": "_attemptedZUSDAmount",
                    "type": "uint256"
                },
                {
                    "indexed": false,
                    "internalType": "uint256",
                    "name": "_actualZUSDAmount",
                    "type": "uint256"
                },
                {
                    "indexed": false,
                    "internalType": "uint256",
                    "name": "_ETHSent",
                    "type": "uint256"
                },
                {
                    "indexed": false,
                    "internalType": "uint256",
                    "name": "_ETHFee",
                    "type": "uint256"
                }
            ],
            "name": "Redemption",
            "type": "event"
        },
        {
            "anonymous": false,
            "inputs": [
                {
                    "indexed": false,
                    "internalType": "address",
                    "name": "_sortedTrovesAddress",
                    "type": "address"
                }
            ],
            "name": "SortedTrovesAddressChanged",
            "type": "event"
        },
        {
            "anonymous": false,
            "inputs": [
                {
                    "indexed": false,
                    "internalType": "address",
                    "name": "_stabilityPoolAddress",
                    "type": "address"
                }
            ],
            "name": "StabilityPoolAddressChanged",
            "type": "event"
        },
        {
            "anonymous": false,
            "inputs": [
                {
                    "indexed": false,
                    "internalType": "uint256",
                    "name": "_totalStakesSnapshot",
                    "type": "uint256"
                },
                {
                    "indexed": false,
                    "internalType": "uint256",
                    "name": "_totalCollateralSnapshot",
                    "type": "uint256"
                }
            ],
            "name": "SystemSnapshotsUpdated",
            "type": "event"
        },
        {
            "anonymous": false,
            "inputs": [
                {
                    "indexed": false,
                    "internalType": "uint256",
                    "name": "_newTotalStakes",
                    "type": "uint256"
                }
            ],
            "name": "TotalStakesUpdated",
            "type": "event"
        },
        {
            "anonymous": false,
            "inputs": [
                {
                    "indexed": false,
                    "internalType": "address",
                    "name": "_borrower",
                    "type": "address"
                },
                {
                    "indexed": false,
                    "internalType": "uint256",
                    "name": "_newIndex",
                    "type": "uint256"
                }
            ],
            "name": "TroveIndexUpdated",
            "type": "event"
        },
        {
            "anonymous": false,
            "inputs": [
                {
                    "indexed": true,
                    "internalType": "address",
                    "name": "_borrower",
                    "type": "address"
                },
                {
                    "indexed": false,
                    "internalType": "uint256",
                    "name": "_debt",
                    "type": "uint256"
                },
                {
                    "indexed": false,
                    "internalType": "uint256",
                    "name": "_coll",
                    "type": "uint256"
                },
                {
                    "indexed": false,
                    "internalType": "uint8",
                    "name": "operation",
                    "type": "uint8"
                }
            ],
            "name": "TroveLiquidated",
            "type": "event"
        },
        {
            "anonymous": false,
            "inputs": [
                {
                    "indexed": false,
                    "internalType": "address",
                    "name": "_troveManagerRedeemOps",
                    "type": "address"
                }
            ],
            "name": "TroveManagerRedeemOpsAddressChanged",
            "type": "event"
        },
        {
            "anonymous": false,
            "inputs": [
                {
                    "indexed": false,
                    "internalType": "uint256",
                    "name": "_L_ETH",
                    "type": "uint256"
                },
                {
                    "indexed": false,
                    "internalType": "uint256",
                    "name": "_L_ZUSDDebt",
                    "type": "uint256"
                }
            ],
            "name": "TroveSnapshotsUpdated",
            "type": "event"
        },
        {
            "anonymous": false,
            "inputs": [
                {
                    "indexed": true,
                    "internalType": "address",
                    "name": "_borrower",
                    "type": "address"
                },
                {
                    "indexed": false,
                    "internalType": "uint256",
                    "name": "_debt",
                    "type": "uint256"
                },
                {
                    "indexed": false,
                    "internalType": "uint256",
                    "name": "_coll",
                    "type": "uint256"
                },
                {
                    "indexed": false,
                    "internalType": "uint256",
                    "name": "stake",
                    "type": "uint256"
                },
                {
                    "indexed": false,
                    "internalType": "uint8",
                    "name": "operation",
                    "type": "uint8"
                }
            ],
            "name": "TroveUpdated",
            "type": "event"
        },
        {
            "anonymous": false,
            "inputs": [
                {
                    "indexed": false,
                    "internalType": "address",
                    "name": "_zeroStakingAddress",
                    "type": "address"
                }
            ],
            "name": "ZEROStakingAddressChanged",
            "type": "event"
        },
        {
            "anonymous": false,
            "inputs": [
                {
                    "indexed": false,
                    "internalType": "address",
                    "name": "_zeroTokenAddress",
                    "type": "address"
                }
            ],
            "name": "ZEROTokenAddressChanged",
            "type": "event"
        },
        {
            "anonymous": false,
            "inputs": [
                {
                    "indexed": false,
                    "internalType": "address",
                    "name": "_newZUSDTokenAddress",
                    "type": "address"
                }
            ],
            "name": "ZUSDTokenAddressChanged",
            "type": "event"
        },
        {
            "inputs": [],
            "name": "BETA",
            "outputs": [
                {
                    "internalType": "uint256",
                    "name": "",
                    "type": "uint256"
                }
            ],
            "stateMutability": "view",
            "type": "function"
        },
        {
            "inputs": [],
            "name": "BOOTSTRAP_PERIOD",
            "outputs": [
                {
                    "internalType": "uint256",
                    "name": "",
                    "type": "uint256"
                }
            ],
            "stateMutability": "view",
            "type": "function"
        },
        {
            "inputs": [],
            "name": "CCR",
            "outputs": [
                {
                    "internalType": "uint256",
                    "name": "",
                    "type": "uint256"
                }
            ],
            "stateMutability": "view",
            "type": "function"
        },
        {
            "inputs": [],
            "name": "DECIMAL_PRECISION",
            "outputs": [
                {
                    "internalType": "uint256",
                    "name": "",
                    "type": "uint256"
                }
            ],
            "stateMutability": "view",
            "type": "function"
        },
        {
            "inputs": [],
            "name": "L_ETH",
            "outputs": [
                {
                    "internalType": "uint256",
                    "name": "",
                    "type": "uint256"
                }
            ],
            "stateMutability": "view",
            "type": "function"
        },
        {
            "inputs": [],
            "name": "L_ZUSDDebt",
            "outputs": [
                {
                    "internalType": "uint256",
                    "name": "",
                    "type": "uint256"
                }
            ],
            "stateMutability": "view",
            "type": "function"
        },
        {
            "inputs": [],
            "name": "MCR",
            "outputs": [
                {
                    "internalType": "uint256",
                    "name": "",
                    "type": "uint256"
                }
            ],
            "stateMutability": "view",
            "type": "function"
        },
        {
            "inputs": [],
            "name": "MINUTE_DECAY_FACTOR",
            "outputs": [
                {
                    "internalType": "uint256",
                    "name": "",
                    "type": "uint256"
                }
            ],
            "stateMutability": "view",
            "type": "function"
        },
        {
            "inputs": [],
            "name": "MIN_NET_DEBT",
            "outputs": [
                {
                    "internalType": "uint256",
                    "name": "",
                    "type": "uint256"
                }
            ],
            "stateMutability": "view",
            "type": "function"
        },
        {
            "inputs": [],
            "name": "NAME",
            "outputs": [
                {
                    "internalType": "string",
                    "name": "",
                    "type": "string"
                }
            ],
            "stateMutability": "view",
            "type": "function"
        },
        {
            "inputs": [],
            "name": "SECONDS_IN_ONE_MINUTE",
            "outputs": [
                {
                    "internalType": "uint256",
                    "name": "",
                    "type": "uint256"
                }
            ],
            "stateMutability": "view",
            "type": "function"
        },
        {
            "inputs": [
                {
                    "internalType": "uint256",
                    "name": "",
                    "type": "uint256"
                }
            ],
            "name": "TroveOwners",
            "outputs": [
                {
                    "internalType": "address",
                    "name": "",
                    "type": "address"
                }
            ],
            "stateMutability": "view",
            "type": "function"
        },
        {
            "inputs": [
                {
                    "internalType": "address",
                    "name": "",
                    "type": "address"
                }
            ],
            "name": "Troves",
            "outputs": [
                {
                    "internalType": "uint256",
                    "name": "debt",
                    "type": "uint256"
                },
                {
                    "internalType": "uint256",
                    "name": "coll",
                    "type": "uint256"
                },
                {
                    "internalType": "uint256",
                    "name": "stake",
                    "type": "uint256"
                },
                {
                    "internalType": "enum TroveManagerStorage.Status",
                    "name": "status",
                    "type": "uint8"
                },
                {
                    "internalType": "uint128",
                    "name": "arrayIndex",
                    "type": "uint128"
                }
            ],
            "stateMutability": "view",
            "type": "function"
        },
        {
            "inputs": [],
            "name": "ZUSD_GAS_COMPENSATION",
            "outputs": [
                {
                    "internalType": "uint256",
                    "name": "",
                    "type": "uint256"
                }
            ],
            "stateMutability": "view",
            "type": "function"
        },
        {
            "inputs": [],
            "name": "_100pct",
            "outputs": [
                {
                    "internalType": "uint256",
                    "name": "",
                    "type": "uint256"
                }
            ],
            "stateMutability": "view",
            "type": "function"
        },
        {
            "inputs": [
                {
                    "internalType": "address",
                    "name": "_borrower",
                    "type": "address"
                },
                {
                    "internalType": "uint256",
                    "name": "_price",
                    "type": "uint256"
                }
            ],
            "name": "_getCurrentICR",
            "outputs": [
                {
                    "internalType": "uint256",
                    "name": "",
                    "type": "uint256"
                }
            ],
            "stateMutability": "view",
            "type": "function"
        },
        {
            "inputs": [
                {
                    "internalType": "address",
                    "name": "_borrower",
                    "type": "address"
                }
            ],
            "name": "_getPendingETHReward",
            "outputs": [
                {
                    "internalType": "uint256",
                    "name": "",
                    "type": "uint256"
                }
            ],
            "stateMutability": "view",
            "type": "function"
        },
        {
            "inputs": [
                {
                    "internalType": "address",
                    "name": "_borrower",
                    "type": "address"
                }
            ],
            "name": "_getPendingZUSDDebtReward",
            "outputs": [
                {
                    "internalType": "uint256",
                    "name": "",
                    "type": "uint256"
                }
            ],
            "stateMutability": "view",
            "type": "function"
        },
        {
            "inputs": [],
            "name": "_getRedemptionRate",
            "outputs": [
                {
                    "internalType": "uint256",
                    "name": "",
                    "type": "uint256"
                }
            ],
            "stateMutability": "view",
            "type": "function"
        },
        {
            "inputs": [
                {
                    "internalType": "address",
                    "name": "_borrower",
                    "type": "address"
                }
            ],
            "name": "_hasPendingRewards",
            "outputs": [
                {
                    "internalType": "bool",
                    "name": "",
                    "type": "bool"
                }
            ],
            "stateMutability": "view",
            "type": "function"
        },
        {
            "inputs": [],
            "name": "_stabilityPool",
            "outputs": [
                {
                    "internalType": "contract IStabilityPool",
                    "name": "",
                    "type": "address"
                }
            ],
            "stateMutability": "view",
            "type": "function"
        },
        {
            "inputs": [],
            "name": "_zeroStaking",
            "outputs": [
                {
                    "internalType": "contract IZEROStaking",
                    "name": "",
                    "type": "address"
                }
            ],
            "stateMutability": "view",
            "type": "function"
        },
        {
            "inputs": [],
            "name": "_zeroToken",
            "outputs": [
                {
                    "internalType": "contract IZEROToken",
                    "name": "",
                    "type": "address"
                }
            ],
            "stateMutability": "view",
            "type": "function"
        },
        {
            "inputs": [],
            "name": "_zusdToken",
            "outputs": [
                {
                    "internalType": "contract IZUSDToken",
                    "name": "",
                    "type": "address"
                }
            ],
            "stateMutability": "view",
            "type": "function"
        },
        {
            "inputs": [],
            "name": "activePool",
            "outputs": [
                {
                    "internalType": "contract IActivePool",
                    "name": "",
                    "type": "address"
                }
            ],
            "stateMutability": "view",
            "type": "function"
        },
        {
            "inputs": [
                {
                    "internalType": "address",
                    "name": "_borrower",
                    "type": "address"
                }
            ],
            "name": "addTroveOwnerToArray",
            "outputs": [
                {
                    "internalType": "uint256",
                    "name": "index",
                    "type": "uint256"
                }
            ],
            "stateMutability": "nonpayable",
            "type": "function"
        },
        {
            "inputs": [
                {
                    "internalType": "address",
                    "name": "_borrower",
                    "type": "address"
                }
            ],
            "name": "applyPendingRewards",
            "outputs": [],
            "stateMutability": "nonpayable",
            "type": "function"
        },
        {
            "inputs": [],
            "name": "baseRate",
            "outputs": [
                {
                    "internalType": "uint256",
                    "name": "",
                    "type": "uint256"
                }
            ],
            "stateMutability": "view",
            "type": "function"
        },
        {
            "inputs": [
                {
                    "internalType": "address[]",
                    "name": "_troveArray",
                    "type": "address[]"
                }
            ],
            "name": "batchLiquidateTroves",
            "outputs": [],
            "stateMutability": "nonpayable",
            "type": "function"
        },
        {
            "inputs": [],
            "name": "borrowerOperationsAddress",
            "outputs": [
                {
                    "internalType": "address",
                    "name": "",
                    "type": "address"
                }
            ],
            "stateMutability": "view",
            "type": "function"
        },
        {
            "inputs": [
                {
                    "internalType": "uint256",
                    "name": "_price",
                    "type": "uint256"
                }
            ],
            "name": "checkRecoveryMode",
            "outputs": [
                {
                    "internalType": "bool",
                    "name": "",
                    "type": "bool"
                }
            ],
            "stateMutability": "view",
            "type": "function"
        },
        {
            "inputs": [
                {
                    "internalType": "address",
                    "name": "_borrower",
                    "type": "address"
                }
            ],
            "name": "closeTrove",
            "outputs": [],
            "stateMutability": "nonpayable",
            "type": "function"
        },
        {
            "inputs": [],
            "name": "decayBaseRateFromBorrowing",
            "outputs": [],
            "stateMutability": "nonpayable",
            "type": "function"
        },
        {
            "inputs": [
                {
                    "internalType": "address",
                    "name": "_borrower",
                    "type": "address"
                },
                {
                    "internalType": "uint256",
                    "name": "_collDecrease",
                    "type": "uint256"
                }
            ],
            "name": "decreaseTroveColl",
            "outputs": [
                {
                    "internalType": "uint256",
                    "name": "",
                    "type": "uint256"
                }
            ],
            "stateMutability": "nonpayable",
            "type": "function"
        },
        {
            "inputs": [
                {
                    "internalType": "address",
                    "name": "_borrower",
                    "type": "address"
                },
                {
                    "internalType": "uint256",
                    "name": "_debtDecrease",
                    "type": "uint256"
                }
            ],
            "name": "decreaseTroveDebt",
            "outputs": [
                {
                    "internalType": "uint256",
                    "name": "",
                    "type": "uint256"
                }
            ],
            "stateMutability": "nonpayable",
            "type": "function"
        },
        {
            "inputs": [],
            "name": "defaultPool",
            "outputs": [
                {
                    "internalType": "contract IDefaultPool",
                    "name": "",
                    "type": "address"
                }
            ],
            "stateMutability": "view",
            "type": "function"
        },
        {
            "inputs": [],
            "name": "feeDistributor",
            "outputs": [
                {
                    "internalType": "contract IFeeDistributor",
                    "name": "",
                    "type": "address"
                }
            ],
            "stateMutability": "view",
            "type": "function"
        },
        {
            "inputs": [
                {
                    "internalType": "uint256",
                    "name": "_ZUSDDebt",
                    "type": "uint256"
                }
            ],
            "name": "getBorrowingFee",
            "outputs": [
                {
                    "internalType": "uint256",
                    "name": "",
                    "type": "uint256"
                }
            ],
            "stateMutability": "view",
            "type": "function"
        },
        {
            "inputs": [
                {
                    "internalType": "uint256",
                    "name": "_ZUSDDebt",
                    "type": "uint256"
                }
            ],
            "name": "getBorrowingFeeWithDecay",
            "outputs": [
                {
                    "internalType": "uint256",
                    "name": "",
                    "type": "uint256"
                }
            ],
            "stateMutability": "view",
            "type": "function"
        },
        {
            "inputs": [],
            "name": "getBorrowingRate",
            "outputs": [
                {
                    "internalType": "uint256",
                    "name": "",
                    "type": "uint256"
                }
            ],
            "stateMutability": "view",
            "type": "function"
        },
        {
            "inputs": [],
            "name": "getBorrowingRateWithDecay",
            "outputs": [
                {
                    "internalType": "uint256",
                    "name": "",
                    "type": "uint256"
                }
            ],
            "stateMutability": "view",
            "type": "function"
        },
        {
            "inputs": [
                {
                    "internalType": "address",
                    "name": "_borrower",
                    "type": "address"
                },
                {
                    "internalType": "uint256",
                    "name": "_price",
                    "type": "uint256"
                }
            ],
            "name": "getCurrentICR",
            "outputs": [
                {
                    "internalType": "uint256",
                    "name": "",
                    "type": "uint256"
                }
            ],
            "stateMutability": "view",
            "type": "function"
        },
        {
            "inputs": [
                {
                    "internalType": "address",
                    "name": "_borrower",
                    "type": "address"
                }
            ],
            "name": "getEntireDebtAndColl",
            "outputs": [
                {
                    "internalType": "uint256",
                    "name": "debt",
                    "type": "uint256"
                },
                {
                    "internalType": "uint256",
                    "name": "coll",
                    "type": "uint256"
                },
                {
                    "internalType": "uint256",
                    "name": "pendingZUSDDebtReward",
                    "type": "uint256"
                },
                {
                    "internalType": "uint256",
                    "name": "pendingETHReward",
                    "type": "uint256"
                }
            ],
            "stateMutability": "view",
            "type": "function"
        },
        {
            "inputs": [],
            "name": "getEntireSystemColl",
            "outputs": [
                {
                    "internalType": "uint256",
                    "name": "entireSystemColl",
                    "type": "uint256"
                }
            ],
            "stateMutability": "view",
            "type": "function"
        },
        {
            "inputs": [],
            "name": "getEntireSystemDebt",
            "outputs": [
                {
                    "internalType": "uint256",
                    "name": "entireSystemDebt",
                    "type": "uint256"
                }
            ],
            "stateMutability": "view",
            "type": "function"
        },
        {
            "inputs": [
                {
                    "internalType": "address",
                    "name": "_borrower",
                    "type": "address"
                }
            ],
            "name": "getNominalICR",
            "outputs": [
                {
                    "internalType": "uint256",
                    "name": "",
                    "type": "uint256"
                }
            ],
            "stateMutability": "view",
            "type": "function"
        },
        {
            "inputs": [],
            "name": "getOwner",
            "outputs": [
                {
                    "internalType": "address",
                    "name": "_owner",
                    "type": "address"
                }
            ],
            "stateMutability": "view",
            "type": "function"
        },
        {
            "inputs": [
                {
                    "internalType": "address",
                    "name": "_borrower",
                    "type": "address"
                }
            ],
            "name": "getPendingETHReward",
            "outputs": [
                {
                    "internalType": "uint256",
                    "name": "",
                    "type": "uint256"
                }
            ],
            "stateMutability": "view",
            "type": "function"
        },
        {
            "inputs": [
                {
                    "internalType": "address",
                    "name": "_borrower",
                    "type": "address"
                }
            ],
            "name": "getPendingZUSDDebtReward",
            "outputs": [
                {
                    "internalType": "uint256",
                    "name": "",
                    "type": "uint256"
                }
            ],
            "stateMutability": "view",
            "type": "function"
        },
        {
            "inputs": [
                {
                    "internalType": "uint256",
                    "name": "_ETHDrawn",
                    "type": "uint256"
                }
            ],
            "name": "getRedemptionFeeWithDecay",
            "outputs": [
                {
                    "internalType": "uint256",
                    "name": "",
                    "type": "uint256"
                }
            ],
            "stateMutability": "view",
            "type": "function"
        },
        {
            "inputs": [],
            "name": "getRedemptionRate",
            "outputs": [
                {
                    "internalType": "uint256",
                    "name": "",
                    "type": "uint256"
                }
            ],
            "stateMutability": "view",
            "type": "function"
        },
        {
            "inputs": [],
            "name": "getRedemptionRateWithDecay",
            "outputs": [
                {
                    "internalType": "uint256",
                    "name": "",
                    "type": "uint256"
                }
            ],
            "stateMutability": "view",
            "type": "function"
        },
        {
            "inputs": [
                {
                    "internalType": "uint256",
                    "name": "_price",
                    "type": "uint256"
                }
            ],
            "name": "getTCR",
            "outputs": [
                {
                    "internalType": "uint256",
                    "name": "",
                    "type": "uint256"
                }
            ],
            "stateMutability": "view",
            "type": "function"
        },
        {
            "inputs": [
                {
                    "internalType": "address",
                    "name": "_borrower",
                    "type": "address"
                }
            ],
            "name": "getTroveColl",
            "outputs": [
                {
                    "internalType": "uint256",
                    "name": "",
                    "type": "uint256"
                }
            ],
            "stateMutability": "view",
            "type": "function"
        },
        {
            "inputs": [
                {
                    "internalType": "address",
                    "name": "_borrower",
                    "type": "address"
                }
            ],
            "name": "getTroveDebt",
            "outputs": [
                {
                    "internalType": "uint256",
                    "name": "",
                    "type": "uint256"
                }
            ],
            "stateMutability": "view",
            "type": "function"
        },
        {
            "inputs": [
                {
                    "internalType": "uint256",
                    "name": "_index",
                    "type": "uint256"
                }
            ],
            "name": "getTroveFromTroveOwnersArray",
            "outputs": [
                {
                    "internalType": "address",
                    "name": "",
                    "type": "address"
                }
            ],
            "stateMutability": "view",
            "type": "function"
        },
        {
            "inputs": [],
            "name": "getTroveOwnersCount",
            "outputs": [
                {
                    "internalType": "uint256",
                    "name": "",
                    "type": "uint256"
                }
            ],
            "stateMutability": "view",
            "type": "function"
        },
        {
            "inputs": [
                {
                    "internalType": "address",
                    "name": "_borrower",
                    "type": "address"
                }
            ],
            "name": "getTroveStake",
            "outputs": [
                {
                    "internalType": "uint256",
                    "name": "",
                    "type": "uint256"
                }
            ],
            "stateMutability": "view",
            "type": "function"
        },
        {
            "inputs": [
                {
                    "internalType": "address",
                    "name": "_borrower",
                    "type": "address"
                }
            ],
            "name": "getTroveStatus",
            "outputs": [
                {
                    "internalType": "uint256",
                    "name": "",
                    "type": "uint256"
                }
            ],
            "stateMutability": "view",
            "type": "function"
        },
        {
            "inputs": [
                {
                    "internalType": "address",
                    "name": "_borrower",
                    "type": "address"
                }
            ],
            "name": "hasPendingRewards",
            "outputs": [
                {
                    "internalType": "bool",
                    "name": "",
                    "type": "bool"
                }
            ],
            "stateMutability": "view",
            "type": "function"
        },
        {
            "inputs": [
                {
                    "internalType": "address",
                    "name": "_borrower",
                    "type": "address"
                },
                {
                    "internalType": "uint256",
                    "name": "_collIncrease",
                    "type": "uint256"
                }
            ],
            "name": "increaseTroveColl",
            "outputs": [
                {
                    "internalType": "uint256",
                    "name": "",
                    "type": "uint256"
                }
            ],
            "stateMutability": "nonpayable",
            "type": "function"
        },
        {
            "inputs": [
                {
                    "internalType": "address",
                    "name": "_borrower",
                    "type": "address"
                },
                {
                    "internalType": "uint256",
                    "name": "_debtIncrease",
                    "type": "uint256"
                }
            ],
            "name": "increaseTroveDebt",
            "outputs": [
                {
                    "internalType": "uint256",
                    "name": "",
                    "type": "uint256"
                }
            ],
            "stateMutability": "nonpayable",
            "type": "function"
        },
        {
            "inputs": [],
            "name": "lastETHError_Redistribution",
            "outputs": [
                {
                    "internalType": "uint256",
                    "name": "",
                    "type": "uint256"
                }
            ],
            "stateMutability": "view",
            "type": "function"
        },
        {
            "inputs": [],
            "name": "lastFeeOperationTime",
            "outputs": [
                {
                    "internalType": "uint256",
                    "name": "",
                    "type": "uint256"
                }
            ],
            "stateMutability": "view",
            "type": "function"
        },
        {
            "inputs": [],
            "name": "lastZUSDDebtError_Redistribution",
            "outputs": [
                {
                    "internalType": "uint256",
                    "name": "",
                    "type": "uint256"
                }
            ],
            "stateMutability": "view",
            "type": "function"
        },
        {
            "inputs": [
                {
                    "internalType": "address",
                    "name": "_borrower",
                    "type": "address"
                }
            ],
            "name": "liquidate",
            "outputs": [],
            "stateMutability": "nonpayable",
            "type": "function"
        },
        {
            "inputs": [
                {
                    "internalType": "uint256",
                    "name": "_n",
                    "type": "uint256"
                }
            ],
            "name": "liquidateTroves",
            "outputs": [],
            "stateMutability": "nonpayable",
            "type": "function"
        },
        {
            "inputs": [],
            "name": "liquityBaseParams",
            "outputs": [
                {
                    "internalType": "contract ILiquityBaseParams",
                    "name": "",
                    "type": "address"
                }
            ],
            "stateMutability": "view",
            "type": "function"
        },
        {
            "inputs": [],
            "name": "priceFeed",
            "outputs": [
                {
                    "internalType": "contract IPriceFeed",
                    "name": "",
                    "type": "address"
                }
            ],
            "stateMutability": "view",
            "type": "function"
        },
        {
            "inputs": [
                {
                    "internalType": "uint256",
                    "name": "_ZUSDamount",
                    "type": "uint256"
                },
                {
                    "internalType": "address",
                    "name": "_firstRedemptionHint",
                    "type": "address"
                },
                {
                    "internalType": "address",
                    "name": "_upperPartialRedemptionHint",
                    "type": "address"
                },
                {
                    "internalType": "address",
                    "name": "_lowerPartialRedemptionHint",
                    "type": "address"
                },
                {
                    "internalType": "uint256",
                    "name": "_partialRedemptionHintNICR",
                    "type": "uint256"
                },
                {
                    "internalType": "uint256",
                    "name": "_maxIterations",
                    "type": "uint256"
                },
                {
                    "internalType": "uint256",
                    "name": "_maxFeePercentage",
                    "type": "uint256"
                }
            ],
            "name": "redeemCollateral",
            "outputs": [],
            "stateMutability": "nonpayable",
            "type": "function"
        },
        {
            "inputs": [
                {
                    "internalType": "address",
                    "name": "_borrower",
                    "type": "address"
                }
            ],
            "name": "removeStake",
            "outputs": [],
            "stateMutability": "nonpayable",
            "type": "function"
        },
        {
            "inputs": [
                {
                    "internalType": "address",
                    "name": "",
                    "type": "address"
                }
            ],
            "name": "rewardSnapshots",
            "outputs": [
                {
                    "internalType": "uint256",
                    "name": "ETH",
                    "type": "uint256"
                },
                {
                    "internalType": "uint256",
                    "name": "ZUSDDebt",
                    "type": "uint256"
                }
            ],
            "stateMutability": "view",
            "type": "function"
        },
        {
            "inputs": [
                {
                    "internalType": "address",
                    "name": "_feeDistributorAddress",
                    "type": "address"
                },
                {
                    "internalType": "address",
                    "name": "_troveManagerRedeemOps",
                    "type": "address"
                },
                {
                    "internalType": "address",
                    "name": "_liquityBaseParamsAddress",
                    "type": "address"
                },
                {
                    "internalType": "address",
                    "name": "_borrowerOperationsAddress",
                    "type": "address"
                },
                {
                    "internalType": "address",
                    "name": "_activePoolAddress",
                    "type": "address"
                },
                {
                    "internalType": "address",
                    "name": "_defaultPoolAddress",
                    "type": "address"
                },
                {
                    "internalType": "address",
                    "name": "_stabilityPoolAddress",
                    "type": "address"
                },
                {
                    "internalType": "address",
                    "name": "_gasPoolAddress",
                    "type": "address"
                },
                {
                    "internalType": "address",
                    "name": "_collSurplusPoolAddress",
                    "type": "address"
                },
                {
                    "internalType": "address",
                    "name": "_priceFeedAddress",
                    "type": "address"
                },
                {
                    "internalType": "address",
                    "name": "_zusdTokenAddress",
                    "type": "address"
                },
                {
                    "internalType": "address",
                    "name": "_sortedTrovesAddress",
                    "type": "address"
                },
                {
                    "internalType": "address",
                    "name": "_zeroTokenAddress",
                    "type": "address"
                },
                {
                    "internalType": "address",
                    "name": "_zeroStakingAddress",
                    "type": "address"
                }
            ],
            "name": "setAddresses",
            "outputs": [],
            "stateMutability": "nonpayable",
            "type": "function"
        },
        {
            "inputs": [
                {
                    "internalType": "address",
                    "name": "_owner",
                    "type": "address"
                }
            ],
            "name": "setOwner",
            "outputs": [],
            "stateMutability": "nonpayable",
            "type": "function"
        },
        {
            "inputs": [
                {
                    "internalType": "address",
                    "name": "_borrower",
                    "type": "address"
                },
                {
                    "internalType": "uint256",
                    "name": "_num",
                    "type": "uint256"
                }
            ],
            "name": "setTroveStatus",
            "outputs": [],
            "stateMutability": "nonpayable",
            "type": "function"
        },
        {
            "inputs": [],
            "name": "sortedTroves",
            "outputs": [
                {
                    "internalType": "contract ISortedTroves",
                    "name": "",
                    "type": "address"
                }
            ],
            "stateMutability": "view",
            "type": "function"
        },
        {
            "inputs": [],
            "name": "totalCollateralSnapshot",
            "outputs": [
                {
                    "internalType": "uint256",
                    "name": "",
                    "type": "uint256"
                }
            ],
            "stateMutability": "view",
            "type": "function"
        },
        {
            "inputs": [],
            "name": "totalStakes",
            "outputs": [
                {
                    "internalType": "uint256",
                    "name": "",
                    "type": "uint256"
                }
            ],
            "stateMutability": "view",
            "type": "function"
        },
        {
            "inputs": [],
            "name": "totalStakesSnapshot",
            "outputs": [
                {
                    "internalType": "uint256",
                    "name": "",
                    "type": "uint256"
                }
            ],
            "stateMutability": "view",
            "type": "function"
        },
        {
            "inputs": [],
            "name": "troveManagerRedeemOps",
            "outputs": [
                {
                    "internalType": "address",
                    "name": "",
                    "type": "address"
                }
            ],
            "stateMutability": "view",
            "type": "function"
        },
        {
            "inputs": [
                {
                    "internalType": "address",
                    "name": "_borrower",
                    "type": "address"
                }
            ],
            "name": "updateStakeAndTotalStakes",
            "outputs": [
                {
                    "internalType": "uint256",
                    "name": "",
                    "type": "uint256"
                }
            ],
            "stateMutability": "nonpayable",
            "type": "function"
        },
        {
            "inputs": [
                {
                    "internalType": "address",
                    "name": "_borrower",
                    "type": "address"
                }
            ],
            "name": "updateTroveRewardSnapshots",
            "outputs": [],
            "stateMutability": "nonpayable",
            "type": "function"
        }
    ],
    "bytecode": "0x60806040523480156200001157600080fd5b5062000026336001600160e01b036200002c16565b62000118565b6001600160a01b038116620000735760405162461bcd60e51b8152600401808060200182810382526022815260200180620055746022913960400191505060405180910390fd5b6001600160a01b038116620000906001600160e01b03620000ee16565b6001600160a01b03167f8be0079c531659141344cd1fd0a4f28419497f9722a3daafe3b4186f6b6457e060405160405180910390a3604080517035b2bc9737bbb730b136329737bbb732b960791b8152905190819003601101902055565b604080517035b2bc9737bbb730b136329737bbb732b960791b815290519081900360110190205490565b61544c80620001286000396000f3fe608060405234801561001057600080fd5b50600436106104965760003560e01c8063756b253e11610262578063b7f8cf9b11610151578063d293c710116100ce578063d815e8e911610092578063d815e8e914610d6b578063d9a7244414610d73578063e056e91814610d90578063e2ac77b014610db6578063f36b242514610ddc578063fe2ba84814610de457610496565b8063d293c71014610cc8578063d380a37c14610cf4578063d3d6f84314610cfc578063d5b3563514610d28578063d66a255314610d4557610496565b8063bf9befb111610115578063bf9befb114610c82578063c35bc55014610c8a578063c52861f214610c92578063c7b5548114610c9a578063cbd138ae14610ca257610496565b8063b7f8cf9b14610bbb578063b82f263d14610bc3578063b91af97c14610be0578063bcd3752614610c2c578063be4b033414610c7a57610496565b8063893d20e8116101df578063a20baee6116101a3578063a20baee614610a29578063a3f4df7e14610b08578063ae7bec1914610b85578063ae91875414610b8d578063b0d8e18114610b9557610496565b8063893d20e814610abc57806396d711ff14610ac45780639976cf4514610acc5780639dd233d214610af85780639f07067014610b0057610496565b80637cf54e40116102265780637cf54e4014610a765780637f7dde4a14610a7e578063807d138d14610a8657806382fe3eb914610a8e578063887105d314610ab457610496565b8063756b253e14610a39578063759b303414610a56578063794e572414610a5e578063795d26c314610a66578063797250e314610a6e57610496565b806342ccf1e41161038957806361ec893d116103065780636b444952116102ca5780636b4449521461097e5780636ef6433814610986578063716c47e6146109f557806372423c17146109fd57806372fe25aa14610a29578063741bef1a14610a3157610496565b806361ec893d1461090e578063631203b01461091657806364cee26014610933578063653d46e71461095957806366ca4a211461097657610496565b80634e443d9e1161034d5780634e443d9e1461087b5780635733d58f146108ac5780635d6b480f146108b45780635d8c9609146108e05780635dba4c4a1461090657610496565b806342ccf1e4146107de578063477d66cf14610804578063480cd5781461082157806349eefeee146108475780634a767d681461084f57610496565b80631a59a50e116104175780632b11551a116103db5780632b11551a146107985780632f865568146107a057806331c903b0146107c65780633a128595146107ce5780633cc74225146107d657610496565b80631a59a50e146106995780631bf43555146106bf5780631e8b1c2b146106c75780631f68f20a1461076a57806321e378011461077257610496565b806313af40351161045e57806313af4035146105c257806315d549f1146105e85780631673c79a1461060e57806317c62b171461064d57806318f2817a1461067357610496565b8063071a75411461049b57806308cad71f146104b55780630b0765571461054c5780630d43e8ad1461057257806312610e9214610596575b600080fd5b6104a3610e0a565b60408051918252519081900360200190f35b61054a60048036036101c08110156104cc57600080fd5b506001600160a01b038135811691602081013582169160408201358116916060810135821691608082013581169160a081013582169160c082013581169160e08101358216916101008201358116916101208101358216916101408201358116916101608101358216916101808201358116916101a0013516610e0f565b005b61054a6004803603602081101561056257600080fd5b50356001600160a01b031661147a565b61057a6114a2565b604080516001600160a01b039092168252519081900360200190f35b6104a3600480360360408110156105ac57600080fd5b506001600160a01b0381351690602001356114b1565b61054a600480360360208110156105d857600080fd5b50356001600160a01b0316611509565b6104a3600480360360208110156105fe57600080fd5b50356001600160a01b0316611579565b6106346004803603602081101561062457600080fd5b50356001600160a01b031661159d565b6040805192835260208301919091528051918290030190f35b6104a36004803603602081101561066357600080fd5b50356001600160a01b03166115b6565b6104a36004803603602081101561068957600080fd5b50356001600160a01b03166115c1565b6104a3600480360360208110156106af57600080fd5b50356001600160a01b03166115d4565b6104a361169a565b61054a600480360360208110156106dd57600080fd5b8101906020810181356401000000008111156106f857600080fd5b82018360208201111561070a57600080fd5b8035906020019184602083028401116401000000008311171561072c57600080fd5b9190808060200260200160405190810160405280939291908181526020018383602002808284376000920191909152509295506116a7945050505050565b6104a3611a49565b6104a36004803603602081101561078857600080fd5b50356001600160a01b0316611a4f565b6104a3611a79565b61054a600480360360208110156107b657600080fd5b50356001600160a01b0316611a88565b6104a3611aee565b61057a611afb565b61057a611b0a565b6104a3600480360360208110156107f457600080fd5b50356001600160a01b0316611b19565b6104a36004803603602081101561081a57600080fd5b5035611b4a565b6104a36004803603602081101561083757600080fd5b50356001600160a01b0316611b5d565b6104a3611b7b565b6104a36004803603604081101561086557600080fd5b506001600160a01b038135169060200135611b81565b6108986004803603602081101561089157600080fd5b5035611ba0565b604080519115158252519081900360200190f35b6104a3611bab565b61054a600480360360408110156108ca57600080fd5b506001600160a01b038135169060200135611c21565b6104a3600480360360208110156108f657600080fd5b50356001600160a01b0316611c6d565b61054a611c78565b6104a3611cde565b6104a36004803603602081101561092c57600080fd5b5035611ce3565b6104a36004803603602081101561094957600080fd5b50356001600160a01b0316611cf0565b61054a6004803603602081101561096f57600080fd5b5035611d0e565b6104a36120bc565b6104a36120ce565b6109ac6004803603602081101561099c57600080fd5b50356001600160a01b03166120d4565b604051808681526020018581526020018481526020018360048111156109ce57fe5b60ff1681526001600160801b03909216602083015250604080519182900301945092505050f35b61057a61210e565b6104a360048036036040811015610a1357600080fd5b506001600160a01b03813516906020013561211d565b6104a361217a565b61057a612186565b61057a60048036036020811015610a4f57600080fd5b5035612195565b6104a36121bc565b6104a36121c9565b6104a361220e565b6104a361230d565b61057a612313565b61057a612322565b6104a3612331565b61054a60048036036020811015610aa457600080fd5b50356001600160a01b0316612337565b6104a3612348565b61057a612404565b6104a361242e565b6104a360048036036040811015610ae257600080fd5b506001600160a01b038135169060200135612434565b6104a3612467565b61057a61246d565b610b1061247c565b6040805160208082528351818301528351919283929083019185019080838360005b83811015610b4a578181015183820152602001610b32565b50505050905090810190601f168015610b775780820380516001836020036101000a031916815260200191505b509250505060405180910390f35b61057a6124a4565b61057a6124b3565b6104a360048036036020811015610bab57600080fd5b50356001600160a01b03166124c2565b61057a6124e9565b6104a360048036036020811015610bd957600080fd5b50356124f8565b610c0660048036036020811015610bf657600080fd5b50356001600160a01b0316612503565b604080519485526020850193909352838301919091526060830152519081900360800190f35b61054a600480360360e0811015610c4257600080fd5b508035906001600160a01b03602082013581169160408101358216916060820135169060808101359060a08101359060c00135612567565b6104a3612670565b6104a3612676565b6104a361267c565b6104a3612683565b6104a3612695565b61054a60048036036020811015610cb857600080fd5b50356001600160a01b03166126a1565b6104a360048036036040811015610cde57600080fd5b506001600160a01b0381351690602001356126b4565b6104a36126c7565b6104a360048036036040811015610d1257600080fd5b506001600160a01b0381351690602001356126cd565b6104a360048036036020811015610d3e57600080fd5b5035612703565b6104a360048036036020811015610d5b57600080fd5b50356001600160a01b0316612716565b61057a612731565b61057a60048036036020811015610d8957600080fd5b5035612740565b61089860048036036020811015610da657600080fd5b50356001600160a01b031661276a565b61089860048036036020811015610dcc57600080fd5b50356001600160a01b03166127c8565b6104a36127d3565b61054a60048036036020811015610dfa57600080fd5b50356001600160a01b03166127e0565b600281565b610e17612404565b6001600160a01b0316336001600160a01b031614610e76576040805162461bcd60e51b815260206004820152601760248201527613dddb98589b194e8e881858d8d95cdcc819195b9a5959604a1b604482015290519081900360640190fd5b610e7f8e6127f1565b610e888d6127f1565b610e918c6127f1565b610e9a8b6127f1565b610ea38a6127f1565b610eac896127f1565b610eb5886127f1565b610ebe876127f1565b610ec7866127f1565b610ed0856127f1565b610ed9846127f1565b610ee2836127f1565b610eeb826127f1565b610ef4816127f1565b8d600c60006101000a8154816001600160a01b0302191690836001600160a01b031602179055508c600460006101000a8154816001600160a01b0302191690836001600160a01b031602179055508b600360006101000a8154816001600160a01b0302191690836001600160a01b031602179055508a600560006101000a8154816001600160a01b0302191690836001600160a01b03160217905550896000806101000a8154816001600160a01b0302191690836001600160a01b0316021790555088600160006101000a8154816001600160a01b0302191690836001600160a01b0316021790555087600660006101000a8154816001600160a01b0302191690836001600160a01b0316021790555086600760006101000a8154816001600160a01b0302191690836001600160a01b0316021790555085600860006101000a8154816001600160a01b0302191690836001600160a01b0316021790555084600260006101000a8154816001600160a01b0302191690836001600160a01b0316021790555083600960006101000a8154816001600160a01b0302191690836001600160a01b0316021790555082600d60006101000a8154816001600160a01b0302191690836001600160a01b0316021790555081600a60006101000a8154816001600160a01b0302191690836001600160a01b0316021790555080600b60006101000a8154816001600160a01b0302191690836001600160a01b031602179055507f84861842e6a98dd759145eb5e7b48279d0f02ebeabc8a69e5196b2f4c5023db98e60405180826001600160a01b03166001600160a01b0316815260200191505060405180910390a1604080516001600160a01b038f16815290517f6493041f605f233753d9b16dd158c9f297b8eaca22b2d0dc402a454f5683a5b19181900360200190a1604080516001600160a01b038d16815290517fbf65195e6d5213f6fcbce65b1454c925197a45e616dabd2e243542b039b050929181900360200190a1604080516001600160a01b038d16815290517f3ca631ffcd2a9b5d9ae18543fc82f58eb4ca33af9e6ab01b7a8e95331e6ed9859181900360200190a1604080516001600160a01b038c16815290517f78f058b189175430c48dc02699e3a0031ea4ff781536dc2fab847de4babdd8829181900360200190a1604080516001600160a01b038b16815290517f5ee0cae2f063ed938bb55046f6a932fb6ae792bf43624806bb90abe68a50be9b9181900360200190a1604080516001600160a01b038a16815290517f82966d27eea39b038ee0fa30cd16532bb24f6e65d31cb58fb227aa5766cdcc7f9181900360200190a1604080516001600160a01b038916815290517fcfb07d791fcafc032b35837b50eb84b74df518cf4cc287e8084f47630fa70fa09181900360200190a1604080516001600160a01b038816815290517fe67f36a6e961157d6eff83b91f3af5a62131ceb6f04954ef74f51c1c05e7f88d9181900360200190a1604080516001600160a01b038716815290517f8c537274438aa850a330284665d81a85dd38267d09e4050d416bfc94142db2649181900360200190a1604080516001600160a01b038616815290517fcdf33850c44a1a874b5fefb51dae615ac6afebd581ef90d571f81b06541d8e9d9181900360200190a1604080516001600160a01b038516815290517f65f4cf077bc01e4742eb5ad98326f6e95b63548ea24b17f8d5e823111fe788009181900360200190a1604080516001600160a01b038416815290517f61e0c29d5028a9e4facaa476a46e78912e99f1ba945c9560b86b82ebe36ee52d9181900360200190a1604080516001600160a01b038316815290517f7624075ed781e3aa34b0f492d70d1bb5a6fcde04534165e20f990d2e546be4dd9181900360200190a15050505050505050505050505050565b6114826128a0565b60005460015461149f916001600160a01b039081169116836128eb565b50565b600c546001600160a01b031681565b60006114bb6128a0565b6001600160a01b0383166000908152601060205260408120546114e4908463ffffffff612a0d16565b6001600160a01b03851660009081526010602052604090208190559150505b92915050565b611511612404565b6001600160a01b0316336001600160a01b031614611570576040805162461bcd60e51b815260206004820152601760248201527613dddb98589b194e8e881858d8d95cdcc819195b9a5959604a1b604482015290519081900360640190fd5b61149f81612a4f565b60006115836128a0565b61158c82612b04565b6001600160801b031690505b919050565b6016602052600090815260409020805460019091015482565b600061150382611b19565b60006115cb6128a0565b61150382612b9e565b6001600160a01b0381166000908152601660205260408120546014548290611602908363ffffffff612a0d16565b905080158061163b575060016001600160a01b03851660009081526010602052604090206003015460ff16600481111561163857fe5b14155b1561164b57600092505050611598565b6001600160a01b03841660009081526010602052604081206002015490611690670de0b6b3a7640000611684848663ffffffff612c4d16565b9063ffffffff612ca616565b9695505050505050565b6809c2007651b250000081565b80516116e45760405162461bcd60e51b815260040180806020018281038252603681526020018061535a6036913960400191505060405180910390fd5b6000546001546006546001600160a01b0392831692918216911661170661514f565b61170e615180565b600260009054906101000a90046001600160a01b03166001600160a01b0316630fdb11cf6040518163ffffffff1660e01b8152600401602060405180830381600087803b15801561175e57600080fd5b505af1158015611772573d6000803e3d6000fd5b505050506040513d602081101561178857600080fd5b5051825260408051635ed79bf560e11b815290516001600160a01b0385169163bdaf37ea916004808301926020929190829003018186803b1580156117cc57600080fd5b505afa1580156117e0573d6000803e3d6000fd5b505050506040513d60208110156117f657600080fd5b50516020830152815161180890612ce8565b1580156040840152611830576118298585846000015185602001518a612d77565b9050611848565b6118458585846000015185602001518a613074565b90505b600081602001511161188b5760405162461bcd60e51b81526004018080602001828103825260228152602001806153c66022913960400191505060405180910390fd5b826001600160a01b031663335525ad82608001518360a001516040518363ffffffff1660e01b81526004018083815260200182815260200192505050600060405180830381600087803b1580156118e157600080fd5b505af11580156118f5573d6000803e3d6000fd5b5050505061190d85858360c001518460e001516131a8565b6101008101511561198c57600854610100820151604080516364a197f360e01b81526001600160a01b039384166004820152602481019290925251918716916364a197f39160448082019260009290919082900301818387803b15801561197357600080fd5b505af1158015611987573d6000803e3d6000fd5b505050505b61199a858260400151613429565b60208101516060830152610100810151604082015182516119d292916119c6919063ffffffff612a0d16565b9063ffffffff612a0d16565b608080840182905260608085015160408086015186840151825193845260208401969096528282015291810193909352517f4152c73dd2614c4f9fc35e8c9cf16013cd588c75b49a4c1673ecffdcbcda94039281900390910190a1611a41853383606001518460400151613570565b505050505050565b600e5481565b6001600160a01b03811660009081526010602052604081206003015460ff16600481111561150357fe5b6000611a83611aee565b905090565b611a9181613673565b604080516001808252818301909252606091602080830190803683370190505090508181600081518110611ac157fe5b60200260200101906001600160a01b031690816001600160a01b031681525050611aea816116a7565b5050565b6000611a83600e546136db565b600b546001600160a01b031681565b6001546001600160a01b031681565b6001600160a01b0381166000908152601660205260408120600101546015548290611602908363ffffffff612a0d16565b6000611503611b576120bc565b83613778565b6001600160a01b031660009081526010602052604090206001015490565b60175490565b6000806000611b8f85613796565b91509150600061169083838761381c565b600061150382612ce8565b60035460408051635733d58f60e01b815290516000926001600160a01b031691635733d58f916004808301926020929190829003018186803b158015611bf057600080fd5b505afa158015611c04573d6000803e3d6000fd5b505050506040513d6020811015611c1a57600080fd5b5051905090565b611c296128a0565b806004811115611c3557fe5b6001600160a01b0383166000908152601060205260409020600301805460ff19166001836004811115611c6457fe5b02179055505050565b6000611503826115d4565b611c806128a0565b6000611c8a61384e565b9050670de0b6b3a7640000811115611c9e57fe5b600e8190556040805182815290517fc454ee9b76c52f782a256af821b857ca6e125d1e3333bcede402fec2bed9600c9181900360200190a161149f613892565b603c81565b6000611503611b576127d3565b6001600160a01b031660009081526010602052604090206002015490565b611d166151cc565b506040805160e081018252600080546001600160a01b0390811683526001548116602084015292820181905260608201819052600d548316608083015260a0820181905260c0820152600654909116611d6d61514f565b611d75615180565b600260009054906101000a90046001600160a01b03166001600160a01b0316630fdb11cf6040518163ffffffff1660e01b8152600401602060405180830381600087803b158015611dc557600080fd5b505af1158015611dd9573d6000803e3d6000fd5b505050506040513d6020811015611def57600080fd5b5051825260408051635ed79bf560e11b815290516001600160a01b0385169163bdaf37ea916004808301926020929190829003018186803b158015611e3357600080fd5b505afa158015611e47573d6000803e3d6000fd5b505050506040513d6020811015611e5d57600080fd5b505160208301528151611e6f90612ce8565b1580156040840152611e9657611e8f8483600001518460200151886138ee565b9050611eb6565b611eb3846000015185602001518460000151856020015189613d63565b90505b6000816020015111611ef95760405162461bcd60e51b81526004018080602001828103825260228152602001806153c66022913960400191505060405180910390fd5b826001600160a01b031663335525ad82608001518360a001516040518363ffffffff1660e01b81526004018083815260200182815260200192505050600060405180830381600087803b158015611f4f57600080fd5b505af1158015611f63573d6000803e3d6000fd5b50505050611f83846000015185602001518360c001518460e001516131a8565b61010081015115612004578351600854610100830151604080516364a197f360e01b81526001600160a01b03938416600482015260248101929092525191909216916364a197f391604480830192600092919082900301818387803b158015611feb57600080fd5b505af1158015611fff573d6000803e3d6000fd5b505050505b61201684600001518260400151613429565b602081015160608301526101008101516040820151825161204292916119c6919063ffffffff612a0d16565b608080840182905260608085015160408086015186840151825193845260208401969096528282015291810193909352517f4152c73dd2614c4f9fc35e8c9cf16013cd588c75b49a4c1673ecffdcbcda94039281900390910190a16120b584600001513383606001518460400151613570565b5050505050565b6000611a836120c961384e565b613f01565b60195481565b60106020526000908152604090208054600182015460028301546003909301549192909160ff81169061010090046001600160801b031685565b6004546001600160a01b031681565b60006121276128a0565b6001600160a01b038316600090815260106020526040812060010154612153908463ffffffff613fd716565b6001600160a01b038516600090815260106020526040902060010181905591505092915050565b670de0b6b3a764000081565b6002546001600160a01b031681565b601781815481106121a257fe5b6000918252602090912001546001600160a01b0316905081565b6801158e460913d0000081565b60035460408051631e5395c960e21b815290516000926001600160a01b03169163794e5724916004808301926020929190829003018186803b158015611bf057600080fd5b60008054604080516272c7d360e71b8152905183926001600160a01b031691633963e980916004808301926020929190829003018186803b15801561225257600080fd5b505afa158015612266573d6000803e3d6000fd5b505050506040513d602081101561227c57600080fd5b5051600154604080516272c7d360e71b815290519293506000926001600160a01b0390921691633963e98091600480820192602092909190829003018186803b1580156122c857600080fd5b505afa1580156122dc573d6000803e3d6000fd5b505050506040513d60208110156122f257600080fd5b50519050612306828263ffffffff613fd716565b9250505090565b60185481565b600a546001600160a01b031681565b6000546001600160a01b031681565b60125481565b61233f6128a0565b61149f81614031565b6000805460408051630a7b61df60e11b8152905183926001600160a01b0316916314f6c3be916004808301926020929190829003018186803b15801561238d57600080fd5b505afa1580156123a1573d6000803e3d6000fd5b505050506040513d60208110156123b757600080fd5b505160015460408051630a7b61df60e11b815290519293506000926001600160a01b03909216916314f6c3be91600480820192602092909190829003018186803b1580156122c857600080fd5b604080517035b2bc9737bbb730b136329737bbb732b960791b815290519081900360110190205490565b60135481565b600061243e6128a0565b6001600160a01b0383166000908152601060205260408120546114e4908463ffffffff613fd716565b60145481565b6003546001600160a01b031681565b6040518060400160405280600c81526020016b2a3937bb32a6b0b730b3b2b960a11b81525081565b6006546001600160a01b031681565b600d546001600160a01b031681565b60008060006124d084613796565b9150915060006124e0838361409c565b95945050505050565b6005546001600160a01b031681565b6000611503826140d1565b6001600160a01b0381166000908152601060205260408120805460019091015490918061252f856115b6565b915061253a85611c6d565b905061254c848363ffffffff613fd716565b935061255e838263ffffffff613fd716565b92509193509193565b6004546040516000916060916001600160a01b0390911690839036908083838082843760405192019450600093509091505080830381855af49150503d80600081146125cf576040519150601f19603f3d011682016040523d82523d6000602084013e6125d4565b606091505b50915091508181906126645760405162461bcd60e51b81526004018080602001828103825283818151815260200191508051906020019080838360005b83811015612629578181015183820152602001612611565b50505050905090810190601f1680156126565780820380516001836020036101000a031916815260200191505b509250505060405180910390fd5b50505050505050505050565b60155481565b60115481565b6212750081565b6000611a8361269061384e565b6136db565b670ddd4b8c6c7d70d881565b6126a96128a0565b61149f8160026140fd565b60006126c08383611b81565b9392505050565b600f5481565b60006126d76128a0565b6001600160a01b038316600090815260106020526040812060010154612153908463ffffffff612a0d16565b6000611503612710612683565b83614216565b6001600160a01b031660009081526010602052604090205490565b6009546001600160a01b031681565b60006017828154811061274f57fe5b6000918252602090912001546001600160a01b031692915050565b600060016001600160a01b03831660009081526010602052604090206003015460ff16600481111561279857fe5b146127a557506000611598565b506014546001600160a01b03821660009081526016602052604090205410919050565b60006115038261276a565b6000611a83600e54613f01565b6127e86128a0565b61149f81614275565b6001600160a01b03811661284c576040805162461bcd60e51b815260206004820152601e60248201527f4163636f756e742063616e6e6f74206265207a65726f20616464726573730000604482015290519081900360640190fd5b803b80611aea576040805162461bcd60e51b815260206004820181905260248201527f4163636f756e7420636f64652073697a652063616e6e6f74206265207a65726f604482015290519081900360640190fd5b6005546001600160a01b031633146128e95760405162461bcd60e51b815260040180806020018281038252603b81526020018061531f603b913960400191505060405180910390fd5b565b6128f48161276a565b15612a085761290281613673565b600061290d826115d4565b9050600061291a83611b19565b6001600160a01b038416600090815260106020526040902060010154909150612949908363ffffffff613fd716565b6001600160a01b038416600090815260106020526040902060018101919091555461297a908263ffffffff613fd716565b6001600160a01b03841660009081526010602052604090205561299c83614031565b6129a8858583856142c5565b6001600160a01b03831660008181526010602090815260408083208054600182015460029092015483519182529381019190915280820192909252606082019290925290516000805160206152ff8339815191529181900360800190a250505b505050565b60006126c083836040518060400160405280601e81526020017f536166654d6174683a207375627472616374696f6e206f766572666c6f7700008152506143c7565b6001600160a01b038116612a945760405162461bcd60e51b81526004018080602001828103825260228152602001806152926022913960400191505060405180910390fd5b806001600160a01b0316612aa6612404565b6001600160a01b03167f8be0079c531659141344cd1fd0a4f28419497f9722a3daafe3b4186f6b6457e060405160405180910390a3604080517035b2bc9737bbb730b136329737bbb732b960791b8152905190819003601101902055565b601780546001808201835560008381527fc624b66cc0138b8fabc209247f72d758e1cf3343756d543badbf24212bed8c1590920180546001600160a01b0319166001600160a01b03861617905591549091612b5f9190612a0d565b6001600160a01b039290921660009081526010602052604090206003018054610100600160881b0319166101006001600160801b038516021790555090565b6001600160a01b0381166000908152601060205260408120600101548190612bc590614421565b6001600160a01b038416600090815260106020526040902060020180549082905560115491925090612c0f908390612c03908463ffffffff612a0d16565b9063ffffffff613fd716565b601181905560408051918252517f6bac5e0eb3c44eb03a60ab11ec3a2c051771616aecadbcfff2630aabae5203829181900360200190a15092915050565b600082612c5c57506000611503565b82820282848281612c6957fe5b04146126c05760405162461bcd60e51b81526004018080602001828103825260218152602001806152de6021913960400191505060405180910390fd5b60006126c083836040518060400160405280601a81526020017f536166654d6174683a206469766973696f6e206279207a65726f00000000000081525061445d565b600080612cf4836140d1565b9050600360009054906101000a90046001600160a01b03166001600160a01b0316635733d58f6040518163ffffffff1660e01b815260040160206040518083038186803b158015612d4457600080fd5b505afa158015612d58573d6000803e3d6000fd5b505050506040513d6020811015612d6e57600080fd5b50511192915050565b612d7f615180565b612d87615208565b612d8f615180565b84825260006080830152612da161220e565b60a0830152612dae612348565b60c0830152600060208301525b8351826020015110156130695783826020015181518110612dd857fe5b6020908102919091018101516001600160a01b03166060840181905260009081526010909152604090206003015460019060ff166004811115612e1757fe5b14612e2157613059565b612e2f826060015187611b81565b60408301526080820151612f8a57600360009054906101000a90046001600160a01b03166001600160a01b031663794e57246040518163ffffffff1660e01b815260040160206040518083038186803b158015612e8b57600080fd5b505afa158015612e9f573d6000803e3d6000fd5b505050506040513d6020811015612eb557600080fd5b5051604083015110801590612ec957508151155b15612ed357613059565b6000612ee88360c001518460a001518961381c565b9050612f058989856060015186604001518760000151868d6144c2565b60808101518451919350612f1f919063ffffffff612a0d16565b8352608082015160a0840151612f3a9163ffffffff612a0d16565b60a08085019190915282015160c0840151612f5a9163ffffffff612a0d16565b60c0840152612f6984836148d8565b9350612f7e8360c001518460a00151896149ef565b15608084015250613059565b816080015180156130175750600360009054906101000a90046001600160a01b03166001600160a01b031663794e57246040518163ffffffff1660e01b815260040160206040518083038186803b158015612fe457600080fd5b505afa158015612ff8573d6000803e3d6000fd5b505050506040513d602081101561300e57600080fd5b50516040830151105b1561305957613030888884606001518560000151614a82565b6080810151835191925061304a919063ffffffff612a0d16565b825261305683826148d8565b92505b6020820180516001019052612dbb565b505095945050505050565b61307c615180565b613084615208565b61308c615180565b848252600060208301525b83518260200151101561306957838260200151815181106130b457fe5b60209081029190910101516001600160a01b0316606083018190526130d99087611b81565b6040808401919091526003548151631e5395c960e21b815291516001600160a01b039091169163794e5724916004808301926020929190829003018186803b15801561312457600080fd5b505afa158015613138573d6000803e3d6000fd5b505050506040513d602081101561314e57600080fd5b5051604083015110156131985761316f888884606001518560000151614a82565b60808101518351919250613189919063ffffffff612a0d16565b825261319583826148d8565b92505b6020820180516001019052613097565b816131b257613423565b6018546000906131d490612c0384670de0b6b3a764000063ffffffff612c4d16565b905060006131f9601954612c03670de0b6b3a764000087612c4d90919063ffffffff16565b9050600061321260115484612ca690919063ffffffff16565b9050600061322b60115484612ca690919063ffffffff16565b905061325261324560115484612c4d90919063ffffffff16565b859063ffffffff612a0d16565b60185560115461327a9061326d90839063ffffffff612c4d16565b849063ffffffff612a0d16565b601955601454613290908363ffffffff613fd716565b6014556015546132a6908263ffffffff613fd716565b601581905560145460408051918252602082019290925281517f9f8bc8ab0daf5bceef75ecfd2085d1fcc6548c657ea970d9a23a60610d0737e3929181900390910190a1876001600160a01b0316632439789a876040518263ffffffff1660e01b815260040180828152602001915050600060405180830381600087803b15801561333057600080fd5b505af1158015613344573d6000803e3d6000fd5b50505050866001600160a01b031663f2e91d71876040518263ffffffff1660e01b815260040180828152602001915050600060405180830381600087803b15801561338e57600080fd5b505af11580156133a2573d6000803e3d6000fd5b50505050876001600160a01b03166364a197f388876040518363ffffffff1660e01b815260040180836001600160a01b03166001600160a01b0316815260200182815260200192505050600060405180830381600087803b15801561340657600080fd5b505af115801561341a573d6000803e3d6000fd5b50505050505050505b50505050565b6011546012819055506000826001600160a01b03166314f6c3be6040518163ffffffff1660e01b815260040160206040518083038186803b15801561346d57600080fd5b505afa158015613481573d6000803e3d6000fd5b505050506040513d602081101561349757600080fd5b505160015460408051630a7b61df60e11b815290519293506000926001600160a01b03909216916314f6c3be91600480820192602092909190829003018186803b1580156134e457600080fd5b505afa1580156134f8573d6000803e3d6000fd5b505050506040513d602081101561350e57600080fd5b5051905061352681612c03848663ffffffff612a0d16565b601381905560125460408051918252602082019290925281517f51bf4c63ec3cba9d03d43238abbdd979dd91bd16d9895c74ceea9118c7baaf60929181900390910190a150505050565b81156135ef5760095460075460408051631062c15f60e11b81526001600160a01b039283166004820152868316602482015260448101869052905191909216916320c582be91606480830192600092919082900301818387803b1580156135d657600080fd5b505af11580156135ea573d6000803e3d6000fd5b505050505b801561342357836001600160a01b03166364a197f384836040518363ffffffff1660e01b815260040180836001600160a01b03166001600160a01b0316815260200182815260200192505050600060405180830381600087803b15801561365557600080fd5b505af1158015613669573d6000803e3d6000fd5b5050505050505050565b60016001600160a01b03821660009081526010602052604090206003015460ff16600481111561369f57fe5b1461149f5760405162461bcd60e51b815260040180806020018281038252602f8152602001806153e8602f913960400191505060405180910390fd5b600061150361376a83600360009054906101000a90046001600160a01b03166001600160a01b03166328d28b5b6040518163ffffffff1660e01b815260040160206040518083038186803b15801561373257600080fd5b505afa158015613746573d6000803e3d6000fd5b505050506040513d602081101561375c57600080fd5b50519063ffffffff613fd716565b670de0b6b3a7640000614bf1565b60006126c0670de0b6b3a7640000611684858563ffffffff612c4d16565b60008060006137a4846115d4565b905060006137b185611b19565b6001600160a01b038616600090815260106020526040812060010154919250906137e1908463ffffffff613fd716565b6001600160a01b0387166000908152601060205260408120549192509061380e908463ffffffff613fd716565b919550909350505050915091565b6000821561384357600061383a84611684878663ffffffff612c4d16565b91506126c09050565b506000199392505050565b600080613859614c07565b9050600061386f670ddd4b8c6c7d70d883614c23565b9050612306670de0b6b3a764000061168483600e54612c4d90919063ffffffff16565b60006138a9600f5442612a0d90919063ffffffff16565b9050603c811061149f5742600f81905560408051918252517f860f8d2f0c74dd487e89e2883e3b25b8159ce1e1b3433a291cba7b82c508f3bc9181900360200190a150565b6138f6615180565b6138fe615208565b613906615180565b8482526000608083015261391861220e565b60a0830152613925612348565b8260c001818152505086608001516001600160a01b0316634d6228316040518163ffffffff1660e01b815260040160206040518083038186803b15801561396b57600080fd5b505afa15801561397f573d6000803e3d6000fd5b505050506040513d602081101561399557600080fd5b50516001600160a01b039081166060840152608088015160408051631e22314360e01b815290516000939290921691631e22314391600480820192602092909190829003018186803b1580156139ea57600080fd5b505afa1580156139fe573d6000803e3d6000fd5b505050506040513d6020811015613a1457600080fd5b50516000602085015290505b848360200151108015613a495750806001600160a01b031683606001516001600160a01b031614155b15613d5857600088608001516001600160a01b031663b72703ac85606001516040518263ffffffff1660e01b815260040180826001600160a01b03166001600160a01b0316815260200191505060206040518083038186803b158015613aae57600080fd5b505afa158015613ac2573d6000803e3d6000fd5b505050506040513d6020811015613ad857600080fd5b50516060850151909150613aec9089611b81565b60408501526080840151613c5957600360009054906101000a90046001600160a01b03166001600160a01b031663794e57246040518163ffffffff1660e01b815260040160206040518083038186803b158015613b4857600080fd5b505afa158015613b5c573d6000803e3d6000fd5b505050506040513d6020811015613b7257600080fd5b5051604085015110801590613b8657508351155b15613b915750613d58565b6000613ba68560c001518660a001518b61381c565b8a5160208c0151606088015160408901518951949550613bc794868f6144c2565b60808101518651919550613be1919063ffffffff612a0d16565b8552608084015160a0860151613bfc9163ffffffff612a0d16565b8560a0018181525050613c298461010001516119c68660a001518860c00151612a0d90919063ffffffff16565b60c0860152613c3886856148d8565b9550613c4d8560c001518660a001518b6149ef565b15608086015250613d3a565b83608001518015613ce65750600360009054906101000a90046001600160a01b03166001600160a01b031663794e57246040518163ffffffff1660e01b815260040160206040518083038186803b158015613cb357600080fd5b505afa158015613cc7573d6000803e3d6000fd5b505050506040513d6020811015613cdd57600080fd5b50516040850151105b15613d3457613d0789600001518a6020015186606001518760000151614a82565b60808101518551919450613d21919063ffffffff612a0d16565b8452613d2d85846148d8565b9450613d3a565b50613d58565b6001600160a01b031660608401526020830180516001019052613a20565b505050949350505050565b613d6b615180565b613d73615208565b613d7b615180565b600d54858352600060208401526001600160a01b03165b8483602001511015613ef557806001600160a01b0316634d6228316040518163ffffffff1660e01b815260040160206040518083038186803b158015613dd757600080fd5b505afa158015613deb573d6000803e3d6000fd5b505050506040513d6020811015613e0157600080fd5b50516001600160a01b031660608401819052613e1d9088611b81565b6040808501919091526003548151631e5395c960e21b815291516001600160a01b039091169163794e5724916004808301926020929190829003018186803b158015613e6857600080fd5b505afa158015613e7c573d6000803e3d6000fd5b505050506040513d6020811015613e9257600080fd5b505160408401511015613ee057613eb3898985606001518660000151614a82565b60808101518451919350613ecd919063ffffffff612a0d16565b8352613ed984836148d8565b9350613ee5565b613ef5565b6020830180516001019052613d92565b50505095945050505050565b6000611503613f5883600360009054906101000a90046001600160a01b03166001600160a01b031663f92d34336040518163ffffffff1660e01b815260040160206040518083038186803b15801561373257600080fd5b600360009054906101000a90046001600160a01b03166001600160a01b031663240926696040518163ffffffff1660e01b815260040160206040518083038186803b158015613fa657600080fd5b505afa158015613fba573d6000803e3d6000fd5b505050506040513d6020811015613fd057600080fd5b5051614bf1565b6000828201838110156126c0576040805162461bcd60e51b815260206004820152601b60248201527f536166654d6174683a206164646974696f6e206f766572666c6f770000000000604482015290519081900360640190fd5b601480546001600160a01b0383166000908152601660209081526040918290209283556015546001909301839055925481519081529283019190915280517fc437f324d85e369394148dd9d62f98f534b382e01ed3dd2eb98138fb6d3ab49a9281900390910190a150565b600081156140c8576140c1826116848568056bc75e2d6310000063ffffffff612c4d16565b9050611503565b50600019611503565b6000806140dc612348565b905060006140e861220e565b90506140f582828661381c565b949350505050565b600081600481111561410b57fe5b141580156141255750600181600481111561412257fe5b14155b61412b57fe5b60175461413781614cce565b6001600160a01b0383166000908152601060205260409020600301805483919060ff1916600183600481111561416957fe5b02179055506001600160a01b03831660009081526010602090815260408083206001808201859055908490556016909252822082815501556141ab8382614d87565b600d5460408051631484968760e11b81526001600160a01b038681166004830152915191909216916329092d0e91602480830192600092919082900301818387803b1580156141f957600080fd5b505af115801561420d573d6000803e3d6000fd5b50505050505050565b600080614235670de0b6b3a7640000611684868663ffffffff612c4d16565b90508281106126c05760405162461bcd60e51b81526004018080602001828103825260368152602001806153906036913960400191505060405180910390fd5b6001600160a01b0381166000908152601060205260409020600201546011546142a4908263ffffffff612a0d16565b601155506001600160a01b0316600090815260106020526040812060020155565b826001600160a01b0316632439789a836040518263ffffffff1660e01b815260040180828152602001915050600060405180830381600087803b15801561430b57600080fd5b505af115801561431f573d6000803e3d6000fd5b50505050836001600160a01b031663f2e91d71836040518263ffffffff1660e01b815260040180828152602001915050600060405180830381600087803b15801561436957600080fd5b505af115801561437d573d6000803e3d6000fd5b50505050826001600160a01b031663be41205f826040518263ffffffff1660e01b815260040180828152602001915050600060405180830381600087803b15801561365557600080fd5b600081848411156144195760405162461bcd60e51b8152602060048201818152835160248401528351909283926044909101919085019080838360008315612629578181015183820152602001612611565b505050900390565b60008060135460001415614436575081611503565b60006012541161444257fe5b6126c060135461168460125486612c4d90919063ffffffff16565b600081836144ac5760405162461bcd60e51b8152602060048201818152835160248401528351909283926044909101919085019080838360008315612629578181015183820152602001612611565b5060008385816144b857fe5b0495945050505050565b6144ca615180565b6144d2615250565b6017546001106144e257506148cd565b6144eb87612503565b6040850152602084810191909152840181905290835261450a90614f2e565b604083018190526801158e460913d00000606084015260208301516145349163ffffffff612a0d16565b8152670de0b6b3a7640000861161463c576145598989836020015184604001516142c5565b61456287614275565b60006080830181905260a0830152815160c0830152805160e08301526145898760036140fd565b866001600160a01b0316600080516020615272833981519152836000015184602001516002604051808481526020018381526020018260038111156145ca57fe5b60ff168152602001935050505060405180910390a2866001600160a01b03166000805160206152ff833981519152600080600060026040518085815260200184815260200183815260200182600381111561462157fe5b60ff16815260200194505050505060405180910390a26148cb565b670de0b6b3a7640000861180156146cb5750600360009054906101000a90046001600160a01b03166001600160a01b031663794e57246040518163ffffffff1660e01b815260040160206040518083038186803b15801561469c57600080fd5b505afa1580156146b0573d6000803e3d6000fd5b505050506040513d60208110156146c657600080fd5b505186105b1561471b576146e48989836020015184604001516142c5565b6146ed87614275565b815181516146fc919087614fae565b60e086015260c085015260a084015260808301526145898760036140fd565b600360009054906101000a90046001600160a01b03166001600160a01b031663794e57246040518163ffffffff1660e01b815260040160206040518083038186803b15801561476957600080fd5b505afa15801561477d573d6000803e3d6000fd5b505050506040513d602081101561479357600080fd5b505186108015906147a357508386105b80156147b0575081518510155b156148ba576147c98989836020015184604001516142c5565b846147d057fe5b6147d987614275565b6147ec826000015183602001518561501a565b91506147f98760036140fd565b610100820151156148795760085461010083015160408051633f10abab60e01b81526001600160a01b038b81166004830152602482019390935290519190921691633f10abab91604480830192600092919082900301818387803b15801561486057600080fd5b505af1158015614874573d6000803e3d6000fd5b505050505b866001600160a01b031660008051602061527283398151915283600001518460a001516002604051808481526020018381526020018260038111156145ca57fe5b6148c2615180565b91506148cd9050565b505b979650505050505050565b6148e0615180565b604080830151908401516148f99163ffffffff613fd716565b6040820152606080830151908401516149179163ffffffff613fd716565b6060820152815160208401516149329163ffffffff613fd716565b602080830191909152820151835161494f9163ffffffff613fd716565b81526080808301519084015161496a9163ffffffff613fd716565b608082015260a080830151908401516149889163ffffffff613fd716565b60a082015260c080830151908401516149a69163ffffffff613fd716565b60c082015260e080830151908401516149c49163ffffffff613fd716565b60e082015261010080830151908401516149e39163ffffffff613fd716565b61010082015292915050565b6000806149fd85858561381c565b9050600360009054906101000a90046001600160a01b03166001600160a01b0316635733d58f6040518163ffffffff1660e01b815260040160206040518083038186803b158015614a4d57600080fd5b505afa158015614a61573d6000803e3d6000fd5b505050506040513d6020811015614a7757600080fd5b505111949350505050565b614a8a615180565b614a92615250565b614a9b84612503565b60408501908152602085810192835286019290925291845290519051614ac59188918891906142c5565b614ace84614275565b614adb8260200151614f2e565b604083018190526801158e460913d0000060608401526020830151600091614b09919063ffffffff612a0d16565b9050614b1a83600001518286614fae565b60e087015260c086015260a08501526080840152614b398560036140fd565b846001600160a01b031660008051602061527283398151915284600001518560200151600160405180848152602001838152602001826003811115614b7a57fe5b60ff168152602001935050505060405180910390a2846001600160a01b03166000805160206152ff8339815191526000806000600160405180858152602001848152602001838152602001826003811115614bd157fe5b60ff16815260200194505050505060405180910390a25050949350505050565b6000818310614c0057816126c0565b5090919050565b6000611a83603c611684600f5442612a0d90919063ffffffff16565b6000631f540500821115614c3957631f54050091505b81614c4d5750670de0b6b3a7640000611503565b670de0b6b3a764000083835b6001811115614cc45760028106614c8e57614c74828361511c565b9150614c8781600263ffffffff612ca616565b9050614cbf565b614c98828461511c565b9250614ca4828361511c565b9150614cbc600261168483600163ffffffff612a0d16565b90505b614c59565b611690828461511c565b600181118015614d4c5750600d546040805163de8fa43160e01b815290516001926001600160a01b03169163de8fa431916004808301926020929190829003018186803b158015614d1e57600080fd5b505afa158015614d32573d6000803e3d6000fd5b505050506040513d6020811015614d4857600080fd5b5051115b61149f5760405162461bcd60e51b815260040180806020018281038252602a8152602001806152b4602a913960400191505060405180910390fd5b6001600160a01b03821660009081526010602052604081206003015460ff1690816004811115614db357fe5b14158015614dcd57506001816004811115614dca57fe5b14155b614dd357fe5b6001600160a01b03831660009081526010602052604081206003015461010090046001600160801b0316908390614e0b826001612a0d565b905080836001600160801b03161115614e2057fe5b600060178281548110614e2f57fe5b600091825260209091200154601780546001600160a01b03909216925082916001600160801b038716908110614e6157fe5b600091825260208083209190910180546001600160a01b0319166001600160a01b03948516179055918316808252601083526040918290206003018054610100600160881b0319166101006001600160801b038a169081029190911790915582519182529281019290925280517f02b04ae5f7be9ca7c103293a2aa15f3c339d15d6eda53b721fef7b0e609c831a9281900390910190a16017805480614f0357fe5b600082815260209020810160001990810180546001600160a01b031916905501905550505050505050565b600354604080516324386ecd60e11b815290516000926001600160a01b031691634870dd9a916004808301926020929190829003018186803b158015614f7357600080fd5b505afa158015614f87573d6000803e3d6000fd5b505050506040513d6020811015614f9d57600080fd5b50518281614fa757fe5b0492915050565b6000808080841561500457614fc38786614bf1565b9350614fd987611684888763ffffffff612c4d16565b9250614feb878563ffffffff612a0d16565b9150614ffd868463ffffffff612a0d16565b9050615011565b5060009250829150859050845b93509350935093565b615022615180565b838152602080820184905260035460408051631e5395c960e21b815290516000936150b2938793611684936001600160a01b039092169263794e572492600480840193829003018186803b15801561507957600080fd5b505afa15801561508d573d6000803e3d6000fd5b505050506040513d60208110156150a357600080fd5b5051889063ffffffff612c4d16565b90506150bd81614f2e565b604083018190526801158e460913d000006060840152608083018690526150eb90829063ffffffff612a0d16565b60a0830152615100848263ffffffff612a0d16565b61010083015250600060c0820181905260e08201529392505050565b60008061512f848463ffffffff612c4d16565b90506140f5670de0b6b3a7640000611684836706f05b59d3b20000613fd7565b6040518060a00160405280600081526020016000815260200160001515815260200160008152602001600081525090565b6040518061012001604052806000815260200160008152602001600081526020016000815260200160008152602001600081526020016000815260200160008152602001600081525090565b6040805160e081018252600080825260208201819052918101829052606081018290526080810182905260a0810182905260c081019190915290565b6040518060e0016040528060008152602001600081526020016000815260200160006001600160a01b0316815260200160001515815260200160008152602001600081525090565b6040518060600160405280600081526020016000815260200160008152509056feea67486ed7ebe3eea8ab3390efd4a3c8aae48be5bea27df104a8af786c4084344f776e61626c653a3a7365744f776e65723a20696e76616c6964206164647265737354726f76654d616e616765723a204f6e6c79206f6e652074726f766520696e207468652073797374656d536166654d6174683a206d756c7469706c69636174696f6e206f766572666c6f77c3770d654ed33aeea6bf11ac8ef05d02a6a04ed4686dd2f624d853bbec43cc8b54726f76654d616e616765723a2043616c6c6572206973206e6f742074686520426f72726f7765724f7065726174696f6e7320636f6e747261637454726f76654d616e616765723a2043616c6c646174612061646472657373206172726179206d757374206e6f7420626520656d70747954726f76654d616e616765723a2046656520776f756c642065617420757020616c6c2072657475726e656420636f6c6c61746572616c54726f76654d616e616765723a206e6f7468696e6720746f206c697175696461746554726f76654d616e616765723a2054726f766520646f6573206e6f74206578697374206f7220697320636c6f736564a2646970667358221220afe74fb118f71bc90da2d0f0bd080053e0c6002f48bd028aeddaec17e15af7d064736f6c634300060b00334f776e61626c653a3a7365744f776e65723a20696e76616c69642061646472657373",
    "linkReferences": {},
    "deployedLinkReferences": {}
}