{
    "_format": "hh-sol-artifact-1",
    "contractName": "TroveManagerRedeemOps",
    "sourceName": "contracts/Dependencies/TroveManagerRedeemOps.sol",
    "address": "0xd3a497eC2dE882daA13a04eDFc792B3F42Db47c0",
    "abi": [
        {
            "anonymous": false,
            "inputs": [
                {
                    "indexed": false,
                    "internalType": "uint256",
                    "name": "_baseRate",
                    "type": "uint256"
                }
            ],
            "name": "BaseRateUpdated",
            "type": "event"
        },
        {
            "anonymous": false,
            "inputs": [
                {
                    "indexed": false,
                    "internalType": "uint256",
                    "name": "_L_ETH",
                    "type": "uint256"
                },
                {
                    "indexed": false,
                    "internalType": "uint256",
                    "name": "_L_ZUSDDebt",
                    "type": "uint256"
                }
            ],
            "name": "LTermsUpdated",
            "type": "event"
        },
        {
            "anonymous": false,
            "inputs": [
                {
                    "indexed": false,
                    "internalType": "uint256",
                    "name": "_lastFeeOpTime",
                    "type": "uint256"
                }
            ],
            "name": "LastFeeOpTimeUpdated",
            "type": "event"
        },
        {
            "anonymous": false,
            "inputs": [
                {
                    "indexed": false,
                    "internalType": "uint256",
                    "name": "_liquidatedDebt",
                    "type": "uint256"
                },
                {
                    "indexed": false,
                    "internalType": "uint256",
                    "name": "_liquidatedColl",
                    "type": "uint256"
                },
                {
                    "indexed": false,
                    "internalType": "uint256",
                    "name": "_collGasCompensation",
                    "type": "uint256"
                },
                {
                    "indexed": false,
                    "internalType": "uint256",
                    "name": "_ZUSDGasCompensation",
                    "type": "uint256"
                }
            ],
            "name": "Liquidation",
            "type": "event"
        },
        {
            "anonymous": false,
            "inputs": [
                {
                    "indexed": true,
                    "internalType": "address",
                    "name": "previousOwner",
                    "type": "address"
                },
                {
                    "indexed": true,
                    "internalType": "address",
                    "name": "newOwner",
                    "type": "address"
                }
            ],
            "name": "OwnershipTransferred",
            "type": "event"
        },
        {
            "anonymous": false,
            "inputs": [
                {
                    "indexed": false,
                    "internalType": "uint256",
                    "name": "_attemptedZUSDAmount",
                    "type": "uint256"
                },
                {
                    "indexed": false,
                    "internalType": "uint256",
                    "name": "_actualZUSDAmount",
                    "type": "uint256"
                },
                {
                    "indexed": false,
                    "internalType": "uint256",
                    "name": "_ETHSent",
                    "type": "uint256"
                },
                {
                    "indexed": false,
                    "internalType": "uint256",
                    "name": "_ETHFee",
                    "type": "uint256"
                }
            ],
            "name": "Redemption",
            "type": "event"
        },
        {
            "anonymous": false,
            "inputs": [
                {
                    "indexed": false,
                    "internalType": "uint256",
                    "name": "_totalStakesSnapshot",
                    "type": "uint256"
                },
                {
                    "indexed": false,
                    "internalType": "uint256",
                    "name": "_totalCollateralSnapshot",
                    "type": "uint256"
                }
            ],
            "name": "SystemSnapshotsUpdated",
            "type": "event"
        },
        {
            "anonymous": false,
            "inputs": [
                {
                    "indexed": false,
                    "internalType": "uint256",
                    "name": "_newTotalStakes",
                    "type": "uint256"
                }
            ],
            "name": "TotalStakesUpdated",
            "type": "event"
        },
        {
            "anonymous": false,
            "inputs": [
                {
                    "indexed": false,
                    "internalType": "address",
                    "name": "_borrower",
                    "type": "address"
                },
                {
                    "indexed": false,
                    "internalType": "uint256",
                    "name": "_newIndex",
                    "type": "uint256"
                }
            ],
            "name": "TroveIndexUpdated",
            "type": "event"
        },
        {
            "anonymous": false,
            "inputs": [
                {
                    "indexed": true,
                    "internalType": "address",
                    "name": "_borrower",
                    "type": "address"
                },
                {
                    "indexed": false,
                    "internalType": "uint256",
                    "name": "_debt",
                    "type": "uint256"
                },
                {
                    "indexed": false,
                    "internalType": "uint256",
                    "name": "_coll",
                    "type": "uint256"
                },
                {
                    "indexed": false,
                    "internalType": "enum TroveManagerBase.TroveManagerOperation",
                    "name": "_operation",
                    "type": "uint8"
                }
            ],
            "name": "TroveLiquidated",
            "type": "event"
        },
        {
            "anonymous": false,
            "inputs": [
                {
                    "indexed": false,
                    "internalType": "uint256",
                    "name": "_L_ETH",
                    "type": "uint256"
                },
                {
                    "indexed": false,
                    "internalType": "uint256",
                    "name": "_L_ZUSDDebt",
                    "type": "uint256"
                }
            ],
            "name": "TroveSnapshotsUpdated",
            "type": "event"
        },
        {
            "anonymous": false,
            "inputs": [
                {
                    "indexed": true,
                    "internalType": "address",
                    "name": "_borrower",
                    "type": "address"
                },
                {
                    "indexed": false,
                    "internalType": "uint256",
                    "name": "_debt",
                    "type": "uint256"
                },
                {
                    "indexed": false,
                    "internalType": "uint256",
                    "name": "_coll",
                    "type": "uint256"
                },
                {
                    "indexed": false,
                    "internalType": "uint256",
                    "name": "_stake",
                    "type": "uint256"
                },
                {
                    "indexed": false,
                    "internalType": "enum TroveManagerBase.TroveManagerOperation",
                    "name": "_operation",
                    "type": "uint8"
                }
            ],
            "name": "TroveUpdated",
            "type": "event"
        },
        {
            "inputs": [],
            "name": "BETA",
            "outputs": [
                {
                    "internalType": "uint256",
                    "name": "",
                    "type": "uint256"
                }
            ],
            "stateMutability": "view",
            "type": "function"
        },
        {
            "inputs": [],
            "name": "BOOTSTRAP_PERIOD",
            "outputs": [
                {
                    "internalType": "uint256",
                    "name": "",
                    "type": "uint256"
                }
            ],
            "stateMutability": "view",
            "type": "function"
        },
        {
            "inputs": [],
            "name": "DECIMAL_PRECISION",
            "outputs": [
                {
                    "internalType": "uint256",
                    "name": "",
                    "type": "uint256"
                }
            ],
            "stateMutability": "view",
            "type": "function"
        },
        {
            "inputs": [],
            "name": "L_ETH",
            "outputs": [
                {
                    "internalType": "uint256",
                    "name": "",
                    "type": "uint256"
                }
            ],
            "stateMutability": "view",
            "type": "function"
        },
        {
            "inputs": [],
            "name": "L_ZUSDDebt",
            "outputs": [
                {
                    "internalType": "uint256",
                    "name": "",
                    "type": "uint256"
                }
            ],
            "stateMutability": "view",
            "type": "function"
        },
        {
            "inputs": [],
            "name": "MINUTE_DECAY_FACTOR",
            "outputs": [
                {
                    "internalType": "uint256",
                    "name": "",
                    "type": "uint256"
                }
            ],
            "stateMutability": "view",
            "type": "function"
        },
        {
            "inputs": [],
            "name": "MIN_NET_DEBT",
            "outputs": [
                {
                    "internalType": "uint256",
                    "name": "",
                    "type": "uint256"
                }
            ],
            "stateMutability": "view",
            "type": "function"
        },
        {
            "inputs": [],
            "name": "NAME",
            "outputs": [
                {
                    "internalType": "string",
                    "name": "",
                    "type": "string"
                }
            ],
            "stateMutability": "view",
            "type": "function"
        },
        {
            "inputs": [],
            "name": "SECONDS_IN_ONE_MINUTE",
            "outputs": [
                {
                    "internalType": "uint256",
                    "name": "",
                    "type": "uint256"
                }
            ],
            "stateMutability": "view",
            "type": "function"
        },
        {
            "inputs": [
                {
                    "internalType": "uint256",
                    "name": "",
                    "type": "uint256"
                }
            ],
            "name": "TroveOwners",
            "outputs": [
                {
                    "internalType": "address",
                    "name": "",
                    "type": "address"
                }
            ],
            "stateMutability": "view",
            "type": "function"
        },
        {
            "inputs": [
                {
                    "internalType": "address",
                    "name": "",
                    "type": "address"
                }
            ],
            "name": "Troves",
            "outputs": [
                {
                    "internalType": "uint256",
                    "name": "debt",
                    "type": "uint256"
                },
                {
                    "internalType": "uint256",
                    "name": "coll",
                    "type": "uint256"
                },
                {
                    "internalType": "uint256",
                    "name": "stake",
                    "type": "uint256"
                },
                {
                    "internalType": "enum TroveManagerStorage.Status",
                    "name": "status",
                    "type": "uint8"
                },
                {
                    "internalType": "uint128",
                    "name": "arrayIndex",
                    "type": "uint128"
                }
            ],
            "stateMutability": "view",
            "type": "function"
        },
        {
            "inputs": [],
            "name": "ZUSD_GAS_COMPENSATION",
            "outputs": [
                {
                    "internalType": "uint256",
                    "name": "",
                    "type": "uint256"
                }
            ],
            "stateMutability": "view",
            "type": "function"
        },
        {
            "inputs": [],
            "name": "_100pct",
            "outputs": [
                {
                    "internalType": "uint256",
                    "name": "",
                    "type": "uint256"
                }
            ],
            "stateMutability": "view",
            "type": "function"
        },
        {
            "inputs": [
                {
                    "internalType": "address",
                    "name": "_borrower",
                    "type": "address"
                },
                {
                    "internalType": "uint256",
                    "name": "_price",
                    "type": "uint256"
                }
            ],
            "name": "_getCurrentICR",
            "outputs": [
                {
                    "internalType": "uint256",
                    "name": "",
                    "type": "uint256"
                }
            ],
            "stateMutability": "view",
            "type": "function"
        },
        {
            "inputs": [
                {
                    "internalType": "address",
                    "name": "_borrower",
                    "type": "address"
                }
            ],
            "name": "_getPendingETHReward",
            "outputs": [
                {
                    "internalType": "uint256",
                    "name": "",
                    "type": "uint256"
                }
            ],
            "stateMutability": "view",
            "type": "function"
        },
        {
            "inputs": [
                {
                    "internalType": "address",
                    "name": "_borrower",
                    "type": "address"
                }
            ],
            "name": "_getPendingZUSDDebtReward",
            "outputs": [
                {
                    "internalType": "uint256",
                    "name": "",
                    "type": "uint256"
                }
            ],
            "stateMutability": "view",
            "type": "function"
        },
        {
            "inputs": [],
            "name": "_getRedemptionRate",
            "outputs": [
                {
                    "internalType": "uint256",
                    "name": "",
                    "type": "uint256"
                }
            ],
            "stateMutability": "view",
            "type": "function"
        },
        {
            "inputs": [
                {
                    "internalType": "address",
                    "name": "_borrower",
                    "type": "address"
                }
            ],
            "name": "_hasPendingRewards",
            "outputs": [
                {
                    "internalType": "bool",
                    "name": "",
                    "type": "bool"
                }
            ],
            "stateMutability": "view",
            "type": "function"
        },
        {
            "inputs": [],
            "name": "_stabilityPool",
            "outputs": [
                {
                    "internalType": "contract IStabilityPool",
                    "name": "",
                    "type": "address"
                }
            ],
            "stateMutability": "view",
            "type": "function"
        },
        {
            "inputs": [],
            "name": "_zeroStaking",
            "outputs": [
                {
                    "internalType": "contract IZEROStaking",
                    "name": "",
                    "type": "address"
                }
            ],
            "stateMutability": "view",
            "type": "function"
        },
        {
            "inputs": [],
            "name": "_zeroToken",
            "outputs": [
                {
                    "internalType": "contract IZEROToken",
                    "name": "",
                    "type": "address"
                }
            ],
            "stateMutability": "view",
            "type": "function"
        },
        {
            "inputs": [],
            "name": "_zusdToken",
            "outputs": [
                {
                    "internalType": "contract IZUSDToken",
                    "name": "",
                    "type": "address"
                }
            ],
            "stateMutability": "view",
            "type": "function"
        },
        {
            "inputs": [],
            "name": "activePool",
            "outputs": [
                {
                    "internalType": "contract IActivePool",
                    "name": "",
                    "type": "address"
                }
            ],
            "stateMutability": "view",
            "type": "function"
        },
        {
            "inputs": [],
            "name": "baseRate",
            "outputs": [
                {
                    "internalType": "uint256",
                    "name": "",
                    "type": "uint256"
                }
            ],
            "stateMutability": "view",
            "type": "function"
        },
        {
            "inputs": [],
            "name": "borrowerOperationsAddress",
            "outputs": [
                {
                    "internalType": "address",
                    "name": "",
                    "type": "address"
                }
            ],
            "stateMutability": "view",
            "type": "function"
        },
        {
            "inputs": [],
            "name": "defaultPool",
            "outputs": [
                {
                    "internalType": "contract IDefaultPool",
                    "name": "",
                    "type": "address"
                }
            ],
            "stateMutability": "view",
            "type": "function"
        },
        {
            "inputs": [],
            "name": "feeDistributor",
            "outputs": [
                {
                    "internalType": "contract IFeeDistributor",
                    "name": "",
                    "type": "address"
                }
            ],
            "stateMutability": "view",
            "type": "function"
        },
        {
            "inputs": [],
            "name": "getEntireSystemColl",
            "outputs": [
                {
                    "internalType": "uint256",
                    "name": "entireSystemColl",
                    "type": "uint256"
                }
            ],
            "stateMutability": "view",
            "type": "function"
        },
        {
            "inputs": [],
            "name": "getEntireSystemDebt",
            "outputs": [
                {
                    "internalType": "uint256",
                    "name": "entireSystemDebt",
                    "type": "uint256"
                }
            ],
            "stateMutability": "view",
            "type": "function"
        },
        {
            "inputs": [],
            "name": "getOwner",
            "outputs": [
                {
                    "internalType": "address",
                    "name": "_owner",
                    "type": "address"
                }
            ],
            "stateMutability": "view",
            "type": "function"
        },
        {
            "inputs": [],
            "name": "lastETHError_Redistribution",
            "outputs": [
                {
                    "internalType": "uint256",
                    "name": "",
                    "type": "uint256"
                }
            ],
            "stateMutability": "view",
            "type": "function"
        },
        {
            "inputs": [],
            "name": "lastFeeOperationTime",
            "outputs": [
                {
                    "internalType": "uint256",
                    "name": "",
                    "type": "uint256"
                }
            ],
            "stateMutability": "view",
            "type": "function"
        },
        {
            "inputs": [],
            "name": "lastZUSDDebtError_Redistribution",
            "outputs": [
                {
                    "internalType": "uint256",
                    "name": "",
                    "type": "uint256"
                }
            ],
            "stateMutability": "view",
            "type": "function"
        },
        {
            "inputs": [],
            "name": "liquityBaseParams",
            "outputs": [
                {
                    "internalType": "contract ILiquityBaseParams",
                    "name": "",
                    "type": "address"
                }
            ],
            "stateMutability": "view",
            "type": "function"
        },
        {
            "inputs": [],
            "name": "priceFeed",
            "outputs": [
                {
                    "internalType": "contract IPriceFeed",
                    "name": "",
                    "type": "address"
                }
            ],
            "stateMutability": "view",
            "type": "function"
        },
        {
            "inputs": [
                {
                    "internalType": "uint256",
                    "name": "_ZUSDamount",
                    "type": "uint256"
                },
                {
                    "internalType": "address",
                    "name": "_firstRedemptionHint",
                    "type": "address"
                },
                {
                    "internalType": "address",
                    "name": "_upperPartialRedemptionHint",
                    "type": "address"
                },
                {
                    "internalType": "address",
                    "name": "_lowerPartialRedemptionHint",
                    "type": "address"
                },
                {
                    "internalType": "uint256",
                    "name": "_partialRedemptionHintNICR",
                    "type": "uint256"
                },
                {
                    "internalType": "uint256",
                    "name": "_maxIterations",
                    "type": "uint256"
                },
                {
                    "internalType": "uint256",
                    "name": "_maxFeePercentage",
                    "type": "uint256"
                }
            ],
            "name": "redeemCollateral",
            "outputs": [],
            "stateMutability": "nonpayable",
            "type": "function"
        },
        {
            "inputs": [
                {
                    "internalType": "address",
                    "name": "",
                    "type": "address"
                }
            ],
            "name": "rewardSnapshots",
            "outputs": [
                {
                    "internalType": "uint256",
                    "name": "ETH",
                    "type": "uint256"
                },
                {
                    "internalType": "uint256",
                    "name": "ZUSDDebt",
                    "type": "uint256"
                }
            ],
            "stateMutability": "view",
            "type": "function"
        },
        {
            "inputs": [
                {
                    "internalType": "address",
                    "name": "_owner",
                    "type": "address"
                }
            ],
            "name": "setOwner",
            "outputs": [],
            "stateMutability": "nonpayable",
            "type": "function"
        },
        {
            "inputs": [],
            "name": "sortedTroves",
            "outputs": [
                {
                    "internalType": "contract ISortedTroves",
                    "name": "",
                    "type": "address"
                }
            ],
            "stateMutability": "view",
            "type": "function"
        },
        {
            "inputs": [],
            "name": "totalCollateralSnapshot",
            "outputs": [
                {
                    "internalType": "uint256",
                    "name": "",
                    "type": "uint256"
                }
            ],
            "stateMutability": "view",
            "type": "function"
        },
        {
            "inputs": [],
            "name": "totalStakes",
            "outputs": [
                {
                    "internalType": "uint256",
                    "name": "",
                    "type": "uint256"
                }
            ],
            "stateMutability": "view",
            "type": "function"
        },
        {
            "inputs": [],
            "name": "totalStakesSnapshot",
            "outputs": [
                {
                    "internalType": "uint256",
                    "name": "",
                    "type": "uint256"
                }
            ],
            "stateMutability": "view",
            "type": "function"
        },
        {
            "inputs": [],
            "name": "troveManagerRedeemOps",
            "outputs": [
                {
                    "internalType": "address",
                    "name": "",
                    "type": "address"
                }
            ],
            "stateMutability": "view",
            "type": "function"
        }
    ],
    "bytecode": "0x60806040523480156200001157600080fd5b5062000026336001600160e01b036200002c16565b62000118565b6001600160a01b038116620000735760405162461bcd60e51b8152600401808060200182810382526022815260200180620031e66022913960400191505060405180910390fd5b6001600160a01b038116620000906001600160e01b03620000ee16565b6001600160a01b03167f8be0079c531659141344cd1fd0a4f28419497f9722a3daafe3b4186f6b6457e060405160405180910390a3604080517035b2bc9737bbb730b136329737bbb732b960791b8152905190819003601101902055565b604080517035b2bc9737bbb730b136329737bbb732b960791b815290519081900360110190205490565b6130be80620001286000396000f3fe608060405234801561001057600080fd5b50600436106102695760003560e01c8063797250e311610151578063ae7bec19116100c3578063bf9befb111610087578063bf9befb1146105aa578063c35bc550146105b2578063c7b55481146105ba578063d380a37c146105c2578063d815e8e9146105ca578063e056e918146105d257610269565b8063ae7bec191461053c578063ae91875414610544578063b7f8cf9b1461054c578063bcd3752614610554578063be4b0334146105a257610269565b8063893d20e811610115578063893d20e81461049f57806396d711ff146104a75780639dd233d2146104af5780639f070670146104b7578063a20baee61461043a578063a3f4df7e146104bf57610269565b8063797250e3146104775780637cf54e401461047f5780637f7dde4a14610487578063807d138d1461048f578063887105d31461049757610269565b806342ccf1e4116101ea578063716c47e6116101ae578063716c47e61461043257806372fe25aa1461043a578063741bef1a14610442578063756b253e1461044a578063759b303414610467578063795d26c31461046f57610269565b806342ccf1e4146103615780634a767d681461038757806361ec893d146103b35780636b444952146103bb5780636ef64338146103c357610269565b80631bf43555116102315780631bf43555146103395780631f68f20a1461034157806331c903b0146103495780633a128595146103515780633cc742251461035957610269565b8063071a75411461026e5780630d43e8ad1461028857806313af4035146102ac5780631673c79a146102d45780631a59a50e14610313575b600080fd5b61027661060c565b60408051918252519081900360200190f35b610290610611565b604080516001600160a01b039092168252519081900360200190f35b6102d2600480360360208110156102c257600080fd5b50356001600160a01b0316610620565b005b6102fa600480360360208110156102ea57600080fd5b50356001600160a01b0316610693565b6040805192835260208301919091528051918290030190f35b6102766004803603602081101561032957600080fd5b50356001600160a01b03166106ac565b610276610774565b610276610781565b610276610787565b610290610799565b6102906107a8565b6102766004803603602081101561037757600080fd5b50356001600160a01b03166107b7565b6102766004803603604081101561039d57600080fd5b506001600160a01b0381351690602001356107e8565b610276610813565b610276610818565b6103e9600480360360208110156103d957600080fd5b50356001600160a01b031661081e565b6040518086815260200185815260200184815260200183600481111561040b57fe5b60ff1681526001600160801b03909216602083015250604080519182900301945092505050f35b610290610858565b610276610867565b610290610873565b6102906004803603602081101561046057600080fd5b5035610882565b6102766108a9565b6102766108b6565b6102766109b5565b6102906109bb565b6102906109ca565b6102766109d9565b6102766109df565b610290610a9b565b610276610ac5565b610276610acb565b610290610ad1565b6104c7610ae0565b6040805160208082528351818301528351919283929083019185019080838360005b838110156105015781810151838201526020016104e9565b50505050905090810190601f16801561052e5780820380516001836020036101000a031916815260200191505b509250505060405180910390f35b610290610b08565b610290610b17565b610290610b26565b6102d2600480360360e081101561056a57600080fd5b508035906001600160a01b03602082013581169160408101358216916060820135169060808101359060a08101359060c00135610b35565b61027661133c565b610276611342565b610276611348565b61027661134f565b61027661135b565b610290611361565b6105f8600480360360208110156105e857600080fd5b50356001600160a01b0316611370565b604080519115158252519081900360200190f35b600281565b600c546001600160a01b031681565b610628610a9b565b6001600160a01b0316336001600160a01b031614610687576040805162461bcd60e51b815260206004820152601760248201527613dddb98589b194e8e881858d8d95cdcc819195b9a5959604a1b604482015290519081900360640190fd5b610690816113ce565b50565b6016602052600090815260409020805460019091015482565b6001600160a01b03811660009081526016602052604081205460145482906106da908363ffffffff61148316565b9050801580610713575060016001600160a01b03851660009081526010602052604090206003015460ff16600481111561071057fe5b14155b156107235760009250505061076f565b6001600160a01b03841660009081526010602052604081206002015490610768670de0b6b3a764000061075c848663ffffffff6114cc16565b9063ffffffff61152516565b9450505050505b919050565b6809c2007651b250000081565b600e5481565b6000610794600e54611567565b905090565b600b546001600160a01b031681565b6001546001600160a01b031681565b6001600160a01b03811660009081526016602052604081206001015460155482906106da908363ffffffff61148316565b60008060006107f685611604565b91509150600061080783838761168a565b93505050505b92915050565b603c81565b60195481565b60106020526000908152604090208054600182015460028301546003909301549192909160ff81169061010090046001600160801b031685565b6004546001600160a01b031681565b670de0b6b3a764000081565b6002546001600160a01b031681565b6017818154811061088f57fe5b6000918252602090912001546001600160a01b0316905081565b6801158e460913d0000081565b60008054604080516272c7d360e71b8152905183926001600160a01b031691633963e980916004808301926020929190829003018186803b1580156108fa57600080fd5b505afa15801561090e573d6000803e3d6000fd5b505050506040513d602081101561092457600080fd5b5051600154604080516272c7d360e71b815290519293506000926001600160a01b0390921691633963e98091600480820192602092909190829003018186803b15801561097057600080fd5b505afa158015610984573d6000803e3d6000fd5b505050506040513d602081101561099a57600080fd5b505190506109ae828263ffffffff6116bc16565b9250505090565b60185481565b600a546001600160a01b031681565b6000546001600160a01b031681565b60125481565b6000805460408051630a7b61df60e11b8152905183926001600160a01b0316916314f6c3be916004808301926020929190829003018186803b158015610a2457600080fd5b505afa158015610a38573d6000803e3d6000fd5b505050506040513d6020811015610a4e57600080fd5b505160015460408051630a7b61df60e11b815290519293506000926001600160a01b03909216916314f6c3be91600480820192602092909190829003018186803b15801561097057600080fd5b604080517035b2bc9737bbb730b136329737bbb732b960791b815290519081900360110190205490565b60135481565b60145481565b6003546001600160a01b031681565b6040518060400160405280600c81526020016b2a3937bb32a6b0b730b3b2b960a11b81525081565b6006546001600160a01b031681565b600d546001600160a01b031681565b6005546001600160a01b031681565b610b3d612db3565b506040805160e0810182526000546001600160a01b03908116825260015481166020830152600954811692820192909252600b5482166060820152600d5482166080820152600854821660a082015260075490911660c0820152610b9f612def565b610ba883611716565b610bb06117e2565b600260009054906101000a90046001600160a01b03166001600160a01b0316630fdb11cf6040518163ffffffff1660e01b8152600401602060405180830381600087803b158015610c0057600080fd5b505af1158015610c14573d6000803e3d6000fd5b505050506040513d6020811015610c2a57600080fd5b505160c08201819052610c3c906118a6565b610c4589611966565b610c548260400151338b6119a5565b610c5c6108b6565b60e0820181905260408084015181516370a0823160e01b815233600482015291516001600160a01b03909116916370a08231916024808301926020929190829003018186803b158015610cae57600080fd5b505afa158015610cc2573d6000803e3d6000fd5b505050506040513d6020811015610cd857600080fd5b50511115610ce257fe5b888152608082015160c0820151600091610cfd918b90611a6a565b15610d09575087610ea6565b82608001516001600160a01b0316634d6228316040518163ffffffff1660e01b815260040160206040518083038186803b158015610d4657600080fd5b505afa158015610d5a573d6000803e3d6000fd5b505050506040513d6020811015610d7057600080fd5b505190505b6001600160a01b03811615801590610e145750600360009054906101000a90046001600160a01b03166001600160a01b031663794e57246040518163ffffffff1660e01b815260040160206040518083038186803b158015610dd657600080fd5b505afa158015610dea573d6000803e3d6000fd5b505050506040513d6020811015610e0057600080fd5b505160c0830151610e129083906107e8565b105b15610ea65782608001516001600160a01b031663b72703ac826040518263ffffffff1660e01b815260040180826001600160a01b03166001600160a01b0316815260200191505060206040518083038186803b158015610e7357600080fd5b505afa158015610e87573d6000803e3d6000fd5b505050506040513d6020811015610e9d57600080fd5b50519050610d75565b84610eb15760001994505b6001600160a01b03811615801590610ec95750815115155b8015610ed55750600085115b1561100957848060019003955050600083608001516001600160a01b031663b72703ac836040518263ffffffff1660e01b815260040180826001600160a01b03166001600160a01b0316815260200191505060206040518083038186803b158015610f3f57600080fd5b505afa158015610f53573d6000803e3d6000fd5b505050506040513d6020811015610f6957600080fd5b505184516020860151919250610f7f9184611cc0565b610f87612e34565b610f9e858486600001518760c001518e8e8e611de1565b9050806040015115610fb1575050611009565b80516020850151610fc79163ffffffff6116bc16565b6020808601919091528101516040850151610fe79163ffffffff6116bc16565b604085015280518451610fff9163ffffffff61148316565b8452509050610eb1565b600082604001511161104c5760405162461bcd60e51b8152600401808060200182810382526029815260200180612ea66029913960400191505060405180910390fd5b61106382604001518360c001518460e00151612094565b506110718260400151612146565b606083018190526040830151611088919086612159565b8251600c546060840151604080516364a197f360e01b81526001600160a01b03938416600482015260248101929092525191909216916364a197f391604480830192600092919082900301818387803b1580156110e457600080fd5b505af11580156110f8573d6000803e3d6000fd5b50505050600c60009054906101000a90046001600160a01b03166001600160a01b031663bb57ad206040518163ffffffff1660e01b8152600401600060405180830381600087803b15801561114c57600080fd5b505af1158015611160573d6000803e3d6000fd5b505050506060820151604083015161117791611483565b8260800181815250507f43a3f4082a4dbc33d78e317d2497d3a730bc7fc3574159dcea1056e62e5d9ad88a8360200151846040015185606001516040518085815260200184815260200183815260200182815260200194505050505060405180910390a182604001516001600160a01b0316639dc29fac3384602001516040518363ffffffff1660e01b815260040180836001600160a01b03166001600160a01b0316815260200182815260200192505050600060405180830381600087803b15801561124357600080fd5b505af1158015611257573d6000803e3d6000fd5b5050505082600001516001600160a01b0316632439789a83602001516040518263ffffffff1660e01b815260040180828152602001915050600060405180830381600087803b1580156112a957600080fd5b505af11580156112bd573d6000803e3d6000fd5b505084516080850151604080516364a197f360e01b81523360048201526024810192909252516001600160a01b0390921693506364a197f3925060448082019260009290919082900301818387803b15801561131857600080fd5b505af115801561132c573d6000803e3d6000fd5b5050505050505050505050505050565b60155481565b60115481565b6212750081565b670ddd4b8c6c7d70d881565b600f5481565b6009546001600160a01b031681565b600060016001600160a01b03831660009081526010602052604090206003015460ff16600481111561139e57fe5b146113ab5750600061076f565b506014546001600160a01b03821660009081526016602052604090205410919050565b6001600160a01b0381166114135760405162461bcd60e51b8152600401808060200182810382526022815260200180612ecf6022913960400191505060405180910390fd5b806001600160a01b0316611425610a9b565b6001600160a01b03167f8be0079c531659141344cd1fd0a4f28419497f9722a3daafe3b4186f6b6457e060405160405180910390a3604080517035b2bc9737bbb730b136329737bbb732b960791b8152905190819003601101902055565b60006114c583836040518060400160405280601e81526020017f536166654d6174683a207375627472616374696f6e206f766572666c6f7700008152506121d4565b9392505050565b6000826114db5750600061080d565b828202828482816114e857fe5b04146114c55760405162461bcd60e51b8152600401808060200182810382526021815260200180612f5b6021913960400191505060405180910390fd5b60006114c583836040518060400160405280601a81526020017f536166654d6174683a206469766973696f6e206279207a65726f00000000000081525061226b565b600061080d6115f683600360009054906101000a90046001600160a01b03166001600160a01b03166328d28b5b6040518163ffffffff1660e01b815260040160206040518083038186803b1580156115be57600080fd5b505afa1580156115d2573d6000803e3d6000fd5b505050506040513d60208110156115e857600080fd5b50519063ffffffff6116bc16565b670de0b6b3a76400006122d0565b6000806000611612846106ac565b9050600061161f856107b7565b6001600160a01b0386166000908152601060205260408120600101549192509061164f908463ffffffff6116bc16565b6001600160a01b0387166000908152601060205260408120549192509061167c908463ffffffff6116bc16565b919550909350505050915091565b600082156116b15760006116a88461075c878663ffffffff6114cc16565b91506114c59050565b506000199392505050565b6000828201838110156114c5576040805162461bcd60e51b815260206004820152601b60248201527f536166654d6174683a206164646974696f6e206f766572666c6f770000000000604482015290519081900360640190fd5b600360009054906101000a90046001600160a01b03166001600160a01b03166328d28b5b6040518163ffffffff1660e01b815260040160206040518083038186803b15801561176457600080fd5b505afa158015611778573d6000803e3d6000fd5b505050506040513d602081101561178e57600080fd5b505181108015906117a75750670de0b6b3a76400008111155b6106905760405162461bcd60e51b81526004018080602001828103825260308152602001806130006030913960400191505060405180910390fd5b600a5460408051631e425be160e11b815290516000926001600160a01b031691633c84b7c2916004808301926020929190829003018186803b15801561182757600080fd5b505afa15801561183b573d6000803e3d6000fd5b505050506040513d602081101561185157600080fd5b50519050611868816212750063ffffffff6116bc16565b4210156106905760405162461bcd60e51b8152600401808060200182810382526040815260200180612f1b6040913960400191505060405180910390fd5b600360009054906101000a90046001600160a01b03166001600160a01b031663794e57246040518163ffffffff1660e01b815260040160206040518083038186803b1580156118f457600080fd5b505afa158015611908573d6000803e3d6000fd5b505050506040513d602081101561191e57600080fd5b5051611929826122e6565b10156106905760405162461bcd60e51b815260040180806020018281038252602a815260200180613030602a913960400191505060405180910390fd5b600081116106905760405162461bcd60e51b815260040180806020018281038252602e815260200180612f9c602e913960400191505060405180910390fd5b80836001600160a01b03166370a08231846040518263ffffffff1660e01b815260040180826001600160a01b03166001600160a01b0316815260200191505060206040518083038186803b1580156119fc57600080fd5b505afa158015611a10573d6000803e3d6000fd5b505050506040513d6020811015611a2657600080fd5b50511015611a655760405162461bcd60e51b815260040180806020018281038252604e815260200180612e58604e913960600191505060405180910390fd5b505050565b60006001600160a01b0383161580611b015750836001600160a01b0316635dbe47e8846040518263ffffffff1660e01b815260040180826001600160a01b03166001600160a01b0316815260200191505060206040518083038186803b158015611ad357600080fd5b505afa158015611ae7573d6000803e3d6000fd5b505050506040513d6020811015611afd57600080fd5b5051155b80611b8d5750600360009054906101000a90046001600160a01b03166001600160a01b031663794e57246040518163ffffffff1660e01b815260040160206040518083038186803b158015611b5557600080fd5b505afa158015611b69573d6000803e3d6000fd5b505050506040513d6020811015611b7f57600080fd5b5051611b8b84846107e8565b105b15611b9a575060006114c5565b6000846001600160a01b031663765e0159856040518263ffffffff1660e01b815260040180826001600160a01b03166001600160a01b0316815260200191505060206040518083038186803b158015611bf257600080fd5b505afa158015611c06573d6000803e3d6000fd5b505050506040513d6020811015611c1c57600080fd5b505190506001600160a01b0381161580611cb75750600360009054906101000a90046001600160a01b03166001600160a01b031663794e57246040518163ffffffff1660e01b815260040160206040518083038186803b158015611c7f57600080fd5b505afa158015611c93573d6000803e3d6000fd5b505050506040513d6020811015611ca957600080fd5b5051611cb582856107e8565b105b95945050505050565b611cc981611370565b15611a6557611cd781612312565b6000611ce2826106ac565b90506000611cef836107b7565b6001600160a01b038416600090815260106020526040902060010154909150611d1e908363ffffffff6116bc16565b6001600160a01b0384166000908152601060205260409020600181019190915554611d4f908263ffffffff6116bc16565b6001600160a01b038416600090815260106020526040902055611d718361237a565b611d7d858583856123e5565b6001600160a01b0383166000818152601060209081526040808320805460018201546002909201548351918252938101919091528082019290925260608201929092529051600080516020612f7c8339815191529181900360800190a25050505050565b611de9612e34565b6001600160a01b038716600090815260106020526040902054611e26908790611e21906801158e460913d0000063ffffffff61148316565b6122d0565b808252611e4790869061075c90670de0b6b3a764000063ffffffff6114cc16565b60208083019190915281516001600160a01b038916600090815260109092526040822054611e7a9163ffffffff61148316565b6020808401516001600160a01b038b166000908152601090925260408220600101549293509091611eb09163ffffffff61148316565b90506801158e460913d00000821415611f4957611ecc89612505565b611ed7896004612555565b611eec8a8a6801158e460913d000008461266e565b886001600160a01b0316600080516020612f7c8339815191526000806000600360405180858152602001848152602001838152602001826003811115611f2e57fe5b60ff16815260200194505050505060405180910390a2612086565b6000611f558284612823565b90508481141580611f7657506809c2007651b2500000611f7484612858565b105b15611f8a5750506001604083015250612089565b60808b01516040805163015f109360e51b81526001600160a01b038d81166004830152602482018590528a81166044830152898116606483015291519190921691632be2126091608480830192600092919082900301818387803b158015611ff157600080fd5b505af1158015612005573d6000803e3d6000fd5b5050506001600160a01b038b166000908152601060205260409020848155600101839055506120338a612873565b506001600160a01b038a1660008181526010602090815260409182902060020154825187815291820186905281830152600360608201529051600080516020612f7c8339815191529181900360800190a2505b50505b979650505050505050565b60008061209f612922565b905060006120b78461075c888863ffffffff6114cc16565b905060006120dc6120cf83600263ffffffff61152516565b849063ffffffff6116bc16565b90506120f081670de0b6b3a76400006122d0565b9050600081116120fc57fe5b600e8190556040805182815290517fc454ee9b76c52f782a256af821b857ca6e125d1e3333bcede402fec2bed9600c9181900360200190a161213c612966565b9695505050505050565b600061080d612153610787565b836129c2565b60006121778361075c86670de0b6b3a764000063ffffffff6114cc16565b9050818111156121ce576040805162461bcd60e51b815260206004820152601d60248201527f4665652065786365656465642070726f7669646564206d6178696d756d000000604482015290519081900360640190fd5b50505050565b600081848411156122635760405162461bcd60e51b81526004018080602001828103825283818151815260200191508051906020019080838360005b83811015612228578181015183820152602001612210565b50505050905090810190601f1680156122555780820380516001836020036101000a031916815260200191505b509250505060405180910390fd5b505050900390565b600081836122ba5760405162461bcd60e51b8152602060048201818152835160248401528351909283926044909101919085019080838360008315612228578181015183820152602001612210565b5060008385816122c657fe5b0495945050505050565b60008183106122df57816114c5565b5090919050565b6000806122f16109df565b905060006122fd6108b6565b905061230a82828661168a565b949350505050565b60016001600160a01b03821660009081526010602052604090206003015460ff16600481111561233e57fe5b146106905760405162461bcd60e51b815260040180806020018281038252602f81526020018061305a602f913960400191505060405180910390fd5b601480546001600160a01b0383166000908152601660209081526040918290209283556015546001909301839055925481519081529283019190915280517fc437f324d85e369394148dd9d62f98f534b382e01ed3dd2eb98138fb6d3ab49a9281900390910190a150565b826001600160a01b0316632439789a836040518263ffffffff1660e01b815260040180828152602001915050600060405180830381600087803b15801561242b57600080fd5b505af115801561243f573d6000803e3d6000fd5b50505050836001600160a01b031663f2e91d71836040518263ffffffff1660e01b815260040180828152602001915050600060405180830381600087803b15801561248957600080fd5b505af115801561249d573d6000803e3d6000fd5b50505050826001600160a01b031663be41205f826040518263ffffffff1660e01b815260040180828152602001915050600060405180830381600087803b1580156124e757600080fd5b505af11580156124fb573d6000803e3d6000fd5b5050505050505050565b6001600160a01b038116600090815260106020526040902060020154601154612534908263ffffffff61148316565b601155506001600160a01b0316600090815260106020526040812060020155565b600081600481111561256357fe5b1415801561257d5750600181600481111561257a57fe5b14155b61258357fe5b60175461258f81612a21565b6001600160a01b0383166000908152601060205260409020600301805483919060ff191660018360048111156125c157fe5b02179055506001600160a01b03831660009081526010602090815260408083206001808201859055908490556016909252822082815501556126038382612ada565b600d5460408051631484968760e11b81526001600160a01b038681166004830152915191909216916329092d0e91602480830192600092919082900301818387803b15801561265157600080fd5b505af1158015612665573d6000803e3d6000fd5b50505050505050565b6040808501516007548251632770a7eb60e21b81526001600160a01b039182166004820152602481018690529251911691639dc29fac91604480830192600092919082900301818387803b1580156126c557600080fd5b505af11580156126d9573d6000803e3d6000fd5b5050505083600001516001600160a01b0316632439789a836040518263ffffffff1660e01b815260040180828152602001915050600060405180830381600087803b15801561272757600080fd5b505af115801561273b573d6000803e3d6000fd5b505050508360a001516001600160a01b0316633f10abab84836040518363ffffffff1660e01b815260040180836001600160a01b03166001600160a01b0316815260200182815260200192505050600060405180830381600087803b1580156127a357600080fd5b505af11580156127b7573d6000803e3d6000fd5b5050505083600001516001600160a01b03166364a197f38560a00151836040518363ffffffff1660e01b815260040180836001600160a01b03166001600160a01b0316815260200182815260200192505050600060405180830381600087803b1580156124e757600080fd5b6000811561284f576128488261075c8568056bc75e2d6310000063ffffffff6114cc16565b905061080d565b5060001961080d565b600061080d826801158e460913d0000063ffffffff61148316565b6001600160a01b038116600090815260106020526040812060010154819061289a90612c81565b6001600160a01b0384166000908152601060205260409020600201805490829055601154919250906128e49083906128d8908463ffffffff61148316565b9063ffffffff6116bc16565b601181905560408051918252517f6bac5e0eb3c44eb03a60ab11ec3a2c051771616aecadbcfff2630aabae5203829181900360200190a15092915050565b60008061292d612cbd565b90506000612943670ddd4b8c6c7d70d883612cd9565b90506109ae670de0b6b3a764000061075c83600e546114cc90919063ffffffff16565b600061297d600f544261148390919063ffffffff16565b9050603c81106106905742600f81905560408051918252517f860f8d2f0c74dd487e89e2883e3b25b8159ce1e1b3433a291cba7b82c508f3bc9181900360200190a150565b6000806129e1670de0b6b3a764000061075c868663ffffffff6114cc16565b90508281106114c55760405162461bcd60e51b8152600401808060200182810382526036815260200180612fca6036913960400191505060405180910390fd5b600181118015612a9f5750600d546040805163de8fa43160e01b815290516001926001600160a01b03169163de8fa431916004808301926020929190829003018186803b158015612a7157600080fd5b505afa158015612a85573d6000803e3d6000fd5b505050506040513d6020811015612a9b57600080fd5b5051115b6106905760405162461bcd60e51b815260040180806020018281038252602a815260200180612ef1602a913960400191505060405180910390fd5b6001600160a01b03821660009081526010602052604081206003015460ff1690816004811115612b0657fe5b14158015612b2057506001816004811115612b1d57fe5b14155b612b2657fe5b6001600160a01b03831660009081526010602052604081206003015461010090046001600160801b0316908390612b5e826001611483565b905080836001600160801b03161115612b7357fe5b600060178281548110612b8257fe5b600091825260209091200154601780546001600160a01b03909216925082916001600160801b038716908110612bb457fe5b600091825260208083209190910180546001600160a01b0319166001600160a01b03948516179055918316808252601083526040918290206003018054610100600160881b0319166101006001600160801b038a169081029190911790915582519182529281019290925280517f02b04ae5f7be9ca7c103293a2aa15f3c339d15d6eda53b721fef7b0e609c831a9281900390910190a16017805480612c5657fe5b600082815260209020810160001990810180546001600160a01b031916905501905550505050505050565b60008060135460001415612c9657508161080d565b600060125411612ca257fe5b6114c560135461075c601254866114cc90919063ffffffff16565b6000610794603c61075c600f544261148390919063ffffffff16565b6000631f540500821115612cef57631f54050091505b81612d035750670de0b6b3a764000061080d565b670de0b6b3a764000083835b6001811115612d7a5760028106612d4457612d2a8283612d80565b9150612d3d81600263ffffffff61152516565b9050612d75565b612d4e8284612d80565b9250612d5a8283612d80565b9150612d72600261075c83600163ffffffff61148316565b90505b612d0f565b61080782845b600080612d93848463ffffffff6114cc16565b905061230a670de0b6b3a764000061075c836706f05b59d3b200006116bc565b6040805160e081018252600080825260208201819052918101829052606081018290526080810182905260a0810182905260c081019190915290565b60405180610100016040528060008152602001600081526020016000815260200160008152602001600081526020016000815260200160008152602001600081525090565b60405180606001604052806000815260200160008152602001600015158152509056fe54726f76654d616e616765723a2052657175657374656420726564656d7074696f6e20616d6f756e74206d757374206265203c3d20757365722773205a55534420746f6b656e2062616c616e636554726f76654d616e616765723a20556e61626c6520746f2072656465656d20616e7920616d6f756e744f776e61626c653a3a7365744f776e65723a20696e76616c6964206164647265737354726f76654d616e616765723a204f6e6c79206f6e652074726f766520696e207468652073797374656d54726f76654d616e616765723a20526564656d7074696f6e7320617265206e6f7420616c6c6f77656420647572696e6720626f6f747374726170207068617365536166654d6174683a206d756c7469706c69636174696f6e206f766572666c6f77c3770d654ed33aeea6bf11ac8ef05d02a6a04ed4686dd2f624d853bbec43cc8b54726f76654d616e616765723a20416d6f756e74206d7573742062652067726561746572207468616e207a65726f54726f76654d616e616765723a2046656520776f756c642065617420757020616c6c2072657475726e656420636f6c6c61746572616c4d6178206665652070657263656e74616765206d757374206265206265747765656e20302e352520616e64203130302554726f76654d616e616765723a2043616e6e6f742072656465656d207768656e20544352203c204d435254726f76654d616e616765723a2054726f766520646f6573206e6f74206578697374206f7220697320636c6f736564a26469706673582212202237f27f68b1da918ef28b093beec0bb0c1dd10c59dd0127958ae05002e502ab64736f6c634300060b00334f776e61626c653a3a7365744f776e65723a20696e76616c69642061646472657373",
    "linkReferences": {},
    "deployedLinkReferences": {}
}