{
  "_format": "hh-sol-artifact-1",
  "contractName": "ZEROStaking",
  "sourceName": "contracts/ZERO/ZEROStaking.sol",
  "address": "0x5369941b2a08db3feC31C4a6cD3b902f7b1468A3",
  "implementation": "0xe09e12dEb814e1569101890b401A71A873BFd33e",
  "abi": [
    {
      "anonymous": false,
      "inputs": [
        {
          "indexed": false,
          "internalType": "address",
          "name": "_activePoolAddress",
          "type": "address"
        }
      ],
      "name": "ActivePoolAddressSet",
      "type": "event"
    },
    {
      "anonymous": false,
      "inputs": [
        {
          "indexed": false,
          "internalType": "address",
          "name": "_account",
          "type": "address"
        },
        {
          "indexed": false,
          "internalType": "uint256",
          "name": "_amount",
          "type": "uint256"
        }
      ],
      "name": "EtherSent",
      "type": "event"
    },
    {
      "anonymous": false,
      "inputs": [
        {
          "indexed": false,
          "internalType": "uint256",
          "name": "_F_ETH",
          "type": "uint256"
        }
      ],
      "name": "F_ETHUpdated",
      "type": "event"
    },
    {
      "anonymous": false,
      "inputs": [
        {
          "indexed": false,
          "internalType": "uint256",
          "name": "_F_ZUSD",
          "type": "uint256"
        }
      ],
      "name": "F_ZUSDUpdated",
      "type": "event"
    },
    {
      "anonymous": false,
      "inputs": [
        {
          "indexed": false,
          "internalType": "address",
          "name": "_feeDistributorAddress",
          "type": "address"
        }
      ],
      "name": "FeeDistributorAddressAddressSet",
      "type": "event"
    },
    {
      "anonymous": false,
      "inputs": [
        {
          "indexed": false,
          "internalType": "address",
          "name": "_feeDistributorAddress",
          "type": "address"
        }
      ],
      "name": "FeeDistributorAddressSet",
      "type": "event"
    },
    {
      "anonymous": false,
      "inputs": [
        {
          "indexed": true,
          "internalType": "address",
          "name": "previousOwner",
          "type": "address"
        },
        {
          "indexed": true,
          "internalType": "address",
          "name": "newOwner",
          "type": "address"
        }
      ],
      "name": "OwnershipTransferred",
      "type": "event"
    },
    {
      "anonymous": false,
      "inputs": [
        {
          "indexed": true,
          "internalType": "address",
          "name": "staker",
          "type": "address"
        },
        {
          "indexed": false,
          "internalType": "uint256",
          "name": "newStake",
          "type": "uint256"
        }
      ],
      "name": "StakeChanged",
      "type": "event"
    },
    {
      "anonymous": false,
      "inputs": [
        {
          "indexed": false,
          "internalType": "address",
          "name": "_staker",
          "type": "address"
        },
        {
          "indexed": false,
          "internalType": "uint256",
          "name": "_F_ETH",
          "type": "uint256"
        },
        {
          "indexed": false,
          "internalType": "uint256",
          "name": "_F_ZUSD",
          "type": "uint256"
        }
      ],
      "name": "StakerSnapshotsUpdated",
      "type": "event"
    },
    {
      "anonymous": false,
      "inputs": [
        {
          "indexed": true,
          "internalType": "address",
          "name": "staker",
          "type": "address"
        },
        {
          "indexed": false,
          "internalType": "uint256",
          "name": "ZUSDGain",
          "type": "uint256"
        },
        {
          "indexed": false,
          "internalType": "uint256",
          "name": "ETHGain",
          "type": "uint256"
        }
      ],
      "name": "StakingGainsWithdrawn",
      "type": "event"
    },
    {
      "anonymous": false,
      "inputs": [
        {
          "indexed": false,
          "internalType": "uint256",
          "name": "_totalZEROStaked",
          "type": "uint256"
        }
      ],
      "name": "TotalZEROStakedUpdated",
      "type": "event"
    },
    {
      "anonymous": false,
      "inputs": [
        {
          "indexed": false,
          "internalType": "address",
          "name": "_zeroTokenAddress",
          "type": "address"
        }
      ],
      "name": "ZEROTokenAddressSet",
      "type": "event"
    },
    {
      "anonymous": false,
      "inputs": [
        {
          "indexed": false,
          "internalType": "address",
          "name": "_zusdTokenAddress",
          "type": "address"
        }
      ],
      "name": "ZUSDTokenAddressSet",
      "type": "event"
    },
    {
      "inputs": [],
      "name": "DECIMAL_PRECISION",
      "outputs": [
        {
          "internalType": "uint256",
          "name": "",
          "type": "uint256"
        }
      ],
      "stateMutability": "view",
      "type": "function"
    },
    {
      "inputs": [],
      "name": "F_ETH",
      "outputs": [
        {
          "internalType": "uint256",
          "name": "",
          "type": "uint256"
        }
      ],
      "stateMutability": "view",
      "type": "function"
    },
    {
      "inputs": [],
      "name": "F_ZUSD",
      "outputs": [
        {
          "internalType": "uint256",
          "name": "",
          "type": "uint256"
        }
      ],
      "stateMutability": "view",
      "type": "function"
    },
    {
      "inputs": [],
      "name": "NAME",
      "outputs": [
        {
          "internalType": "string",
          "name": "",
          "type": "string"
        }
      ],
      "stateMutability": "view",
      "type": "function"
    },
    {
      "inputs": [],
      "name": "activePoolAddress",
      "outputs": [
        {
          "internalType": "address",
          "name": "",
          "type": "address"
        }
      ],
      "stateMutability": "view",
      "type": "function"
    },
    {
      "inputs": [],
      "name": "feeDistributorAddress",
      "outputs": [
        {
          "internalType": "address",
          "name": "",
          "type": "address"
        }
      ],
      "stateMutability": "view",
      "type": "function"
    },
    {
      "inputs": [],
      "name": "getOwner",
      "outputs": [
        {
          "internalType": "address",
          "name": "_owner",
          "type": "address"
        }
      ],
      "stateMutability": "view",
      "type": "function"
    },
    {
      "inputs": [
        {
          "internalType": "address",
          "name": "_user",
          "type": "address"
        }
      ],
      "name": "getPendingETHGain",
      "outputs": [
        {
          "internalType": "uint256",
          "name": "",
          "type": "uint256"
        }
      ],
      "stateMutability": "view",
      "type": "function"
    },
    {
      "inputs": [
        {
          "internalType": "address",
          "name": "_user",
          "type": "address"
        }
      ],
      "name": "getPendingZUSDGain",
      "outputs": [
        {
          "internalType": "uint256",
          "name": "",
          "type": "uint256"
        }
      ],
      "stateMutability": "view",
      "type": "function"
    },
    {
      "inputs": [
        {
          "internalType": "uint256",
          "name": "_ETHFee",
          "type": "uint256"
        }
      ],
      "name": "increaseF_ETH",
      "outputs": [],
      "stateMutability": "nonpayable",
      "type": "function"
    },
    {
      "inputs": [
        {
          "internalType": "uint256",
          "name": "_ZUSDFee",
          "type": "uint256"
        }
      ],
      "name": "increaseF_ZUSD",
      "outputs": [],
      "stateMutability": "nonpayable",
      "type": "function"
    },
    {
      "inputs": [
        {
          "internalType": "address",
          "name": "_zeroTokenAddress",
          "type": "address"
        },
        {
          "internalType": "address",
          "name": "_zusdTokenAddress",
          "type": "address"
        },
        {
          "internalType": "address",
          "name": "_feeDistributorAddress",
          "type": "address"
        },
        {
          "internalType": "address",
          "name": "_activePoolAddress",
          "type": "address"
        }
      ],
      "name": "setAddresses",
      "outputs": [],
      "stateMutability": "nonpayable",
      "type": "function"
    },
    {
      "inputs": [
        {
          "internalType": "address",
          "name": "_owner",
          "type": "address"
        }
      ],
      "name": "setOwner",
      "outputs": [],
      "stateMutability": "nonpayable",
      "type": "function"
    },
    {
      "inputs": [
        {
          "internalType": "address",
          "name": "",
          "type": "address"
        }
      ],
      "name": "snapshots",
      "outputs": [
        {
          "internalType": "uint256",
          "name": "F_ETH_Snapshot",
          "type": "uint256"
        },
        {
          "internalType": "uint256",
          "name": "F_ZUSD_Snapshot",
          "type": "uint256"
        }
      ],
      "stateMutability": "view",
      "type": "function"
    },
    {
      "inputs": [
        {
          "internalType": "uint256",
          "name": "_ZEROamount",
          "type": "uint256"
        }
      ],
      "name": "stake",
      "outputs": [],
      "stateMutability": "nonpayable",
      "type": "function"
    },
    {
      "inputs": [
        {
          "internalType": "address",
          "name": "",
          "type": "address"
        }
      ],
      "name": "stakes",
      "outputs": [
        {
          "internalType": "uint256",
          "name": "",
          "type": "uint256"
        }
      ],
      "stateMutability": "view",
      "type": "function"
    },
    {
      "inputs": [],
      "name": "totalZEROStaked",
      "outputs": [
        {
          "internalType": "uint256",
          "name": "",
          "type": "uint256"
        }
      ],
      "stateMutability": "view",
      "type": "function"
    },
    {
      "inputs": [
        {
          "internalType": "uint256",
          "name": "_ZEROamount",
          "type": "uint256"
        }
      ],
      "name": "unstake",
      "outputs": [],
      "stateMutability": "nonpayable",
      "type": "function"
    },
    {
      "inputs": [],
      "name": "zeroToken",
      "outputs": [
        {
          "internalType": "contract IZEROToken",
          "name": "",
          "type": "address"
        }
      ],
      "stateMutability": "view",
      "type": "function"
    },
    {
      "inputs": [],
      "name": "zusdToken",
      "outputs": [
        {
          "internalType": "contract IZUSDToken",
          "name": "",
          "type": "address"
        }
      ],
      "stateMutability": "view",
      "type": "function"
    },
    {
      "stateMutability": "payable",
      "type": "receive"
    }
  ],
  "bytecode": "0x608060405234801561001057600080fd5b50610023336001600160e01b0361002816565b610110565b6001600160a01b03811661006d5760405162461bcd60e51b81526004018080602001828103825260228152602001806116eb6022913960400191505060405180910390fd5b6001600160a01b0381166100886001600160e01b036100e616565b6001600160a01b03167f8be0079c531659141344cd1fd0a4f28419497f9722a3daafe3b4186f6b6457e060405160405180910390a3604080517035b2bc9737bbb730b136329737bbb732b960791b8152905190819003601101902055565b604080517035b2bc9737bbb730b136329737bbb732b960791b815290519081900360110190205490565b6115cc8061011f6000396000f3fe6080604052600436106101235760003560e01c80638b9345ad116100a0578063b9bbe00f11610064578063b9bbe00f1461044e578063bc70cd8c14610463578063e6f7a1e714610478578063ec9f7d461461048d578063f294bd92146104a257610132565b80638b9345ad1461033d578063a20baee614610370578063a3f4df7e14610385578063a694fc3a1461040f578063b08bc7221461043957610132565b806334b3081f116100e757806334b3081f146102185780634a945f8d1461026457806361f6ab8c146102af578063787a149e146102d9578063893d20e81461030c57610132565b806313af40351461013757806316934fc41461016a5780631e3e2a1a146101af5780631f49119a146101d95780632e17de78146101ee57610132565b36610132576101306104b7565b005b600080fd5b34801561014357600080fd5b506101306004803603602081101561015a57600080fd5b50356001600160a01b0316610502565b34801561017657600080fd5b5061019d6004803603602081101561018d57600080fd5b50356001600160a01b0316610575565b60408051918252519081900360200190f35b3480156101bb57600080fd5b50610130600480360360208110156101d257600080fd5b5035610587565b3480156101e557600080fd5b5061019d610616565b3480156101fa57600080fd5b506101306004803603602081101561021157600080fd5b503561061c565b34801561022457600080fd5b5061024b6004803603602081101561023b57600080fd5b50356001600160a01b0316610901565b6040805192835260208301919091528051918290030190f35b34801561027057600080fd5b506101306004803603608081101561028757600080fd5b506001600160a01b03813581169160208101358216916040820135811691606001351661091a565b3480156102bb57600080fd5b50610130600480360360208110156102d257600080fd5b5035610ad9565b3480156102e557600080fd5b5061019d600480360360208110156102fc57600080fd5b50356001600160a01b0316610b5c565b34801561031857600080fd5b50610321610b6d565b604080516001600160a01b039092168252519081900360200190f35b34801561034957600080fd5b5061019d6004803603602081101561036057600080fd5b50356001600160a01b0316610b97565b34801561037c57600080fd5b5061019d610ba2565b34801561039157600080fd5b5061039a610bae565b6040805160208082528351818301528351919283929083019185019080838360005b838110156103d45781810151838201526020016103bc565b50505050905090810190601f1680156104015780820380516001836020036101000a031916815260200191505b509250505060405180910390f35b34801561041b57600080fd5b506101306004803603602081101561043257600080fd5b5035610bd5565b34801561044557600080fd5b50610321610e49565b34801561045a57600080fd5b5061019d610e58565b34801561046f57600080fd5b50610321610e5e565b34801561048457600080fd5b5061019d610e6d565b34801561049957600080fd5b50610321610e73565b3480156104ae57600080fd5b50610321610e82565b6007546001600160a01b031633146105005760405162461bcd60e51b81526004018080602001828103825260298152602001806115216029913960400191505060405180910390fd5b565b61050a610b6d565b6001600160a01b0316336001600160a01b031614610569576040805162461bcd60e51b815260206004820152601760248201527613dddb98589b194e8e881858d8d95cdcc819195b9a5959604a1b604482015290519081900360640190fd5b61057281610e91565b50565b60006020819052908152604090205481565b61058f6104b7565b600154600090156105c8576001546105c5906105b984670de0b6b3a764000063ffffffff610f4616565b9063ffffffff610fa616565b90505b6002546105db908263ffffffff610fe816565b600281905560408051918252517f4c56a0cf74da9899410b818edf6758c8af9b7b3070da97d2dcb6a5b1bf96317e9181900360200190a15050565b60035481565b3360009081526020819052604090205461063581611042565b600061064033611081565b9050600061064d336110ee565b905061065833611131565b83156107e757600061066a85856111a3565b9050600061067e858363ffffffff6111b916565b3360009081526020819052604090208190556001549091506106a6908363ffffffff6111b916565b600181905560408051918252517f119495b1b01a3979110ba18e2447296d0bf46ef520fc0a3af775e233d7bb12529181900360200190a16005546040805163a9059cbb60e01b81523360048201526024810185905290516001600160a01b039092169163a9059cbb916044808201926020929091908290030181600087803b15801561073157600080fd5b505af1158015610745573d6000803e3d6000fd5b505050506040513d602081101561075b57600080fd5b50516107ae576040805162461bcd60e51b815260206004820152601e60248201527f436f756c646e27742065786563757465205a555344207472616e736665720000604482015290519081900360640190fd5b60408051828152905133917f39df0e5286a3ef2f42a0bf52f32cfe2c58e5b0405f47fe512f2c2439e4cfe204919081900360200190a250505b6040805182815260208101849052815133927ff744d34ca1cb25acfa4180df5f09a67306107110a9f4b6ed99bb3be259738215928290030190a26006546040805163a9059cbb60e01b81523360048201526024810184905290516001600160a01b039092169163a9059cbb916044808201926020929091908290030181600087803b15801561087557600080fd5b505af1158015610889573d6000803e3d6000fd5b505050506040513d602081101561089f57600080fd5b50516108f2576040805162461bcd60e51b815260206004820152601e60248201527f436f756c646e27742065786563757465205a555344207472616e736665720000604482015290519081900360640190fd5b6108fb826111fb565b50505050565b6004602052600090815260409020805460019091015482565b610922610b6d565b6001600160a01b0316336001600160a01b031614610981576040805162461bcd60e51b815260206004820152601760248201527613dddb98589b194e8e881858d8d95cdcc819195b9a5959604a1b604482015290519081900360640190fd5b61098a846112c1565b610993836112c1565b61099c826112c1565b6109a5816112c1565b600580546001600160a01b038087166001600160a01b031992831681179093556006805487831690841617905560078054868316908416179055600880549185169190921617905560408051918252517f7eeded1a6761a0ca57ff60155bdd3e94fbfe5d9e8dc5013b3aa195b8d9e851ea9181900360200190a1604080516001600160a01b038516815290517f7eeded1a6761a0ca57ff60155bdd3e94fbfe5d9e8dc5013b3aa195b8d9e851ea9181900360200190a1604080516001600160a01b038416815290517f8a0d5ec55b7ba4e72b7d97dbd26e71ff52e453e626ce74a96c649e5bc026c4c89181900360200190a1604080516001600160a01b038316815290517f8f6a6e7d20a3233e0a79883272259ffbd7a243734e397bc2b4642c79d7fa8a6d9181900360200190a150505050565b610ae16104b7565b60015460009015610b0e57600154610b0b906105b984670de0b6b3a764000063ffffffff610f4616565b90505b600354610b21908263ffffffff610fe816565b600381905560408051918252517fa7ab0bde92e8afee66c7c5f3592a5b93e7415501b666f15bea395b30d399e1729181900360200190a15050565b6000610b67826110ee565b92915050565b604080517035b2bc9737bbb730b136329737bbb732b960791b815290519081900360110190205490565b6000610b6782611081565b670de0b6b3a764000081565b6040518060400160405280600b81526020016a5a45524f5374616b696e6760a81b81525081565b610bde81611370565b3360009081526020819052604081205490808215610c0d57610bff33611081565b9150610c0a336110ee565b90505b610c1633611131565b6000610c28848663ffffffff610fe816565b336000908152602081905260409020819055600154909150610c50908663ffffffff610fe816565b600181905560408051918252517f119495b1b01a3979110ba18e2447296d0bf46ef520fc0a3af775e233d7bb12529181900360200190a160055460408051631e2feecf60e11b81523360048201526024810188905290516001600160a01b0390921691633c5fdd9e9160448082019260009290919082900301818387803b158015610cda57600080fd5b505af1158015610cee573d6000803e3d6000fd5b50506040805184815290513393507f39df0e5286a3ef2f42a0bf52f32cfe2c58e5b0405f47fe512f2c2439e4cfe20492509081900360200190a26040805183815260208101859052815133927ff744d34ca1cb25acfa4180df5f09a67306107110a9f4b6ed99bb3be259738215928290030190a28315610e42576006546040805163a9059cbb60e01b81523360048201526024810185905290516001600160a01b039092169163a9059cbb916044808201926020929091908290030181600087803b158015610dbc57600080fd5b505af1158015610dd0573d6000803e3d6000fd5b505050506040513d6020811015610de657600080fd5b5051610e39576040805162461bcd60e51b815260206004820152601d60248201527f436f75646e27742065786563757465205a555344207472616e73666572000000604482015290519081900360640190fd5b610e42836111fb565b5050505050565b6008546001600160a01b031681565b60025481565b6007546001600160a01b031681565b60015481565b6006546001600160a01b031681565b6005546001600160a01b031681565b6001600160a01b038116610ed65760405162461bcd60e51b81526004018080602001828103825260228152602001806114ff6022913960400191505060405180910390fd5b806001600160a01b0316610ee8610b6d565b6001600160a01b03167f8be0079c531659141344cd1fd0a4f28419497f9722a3daafe3b4186f6b6457e060405160405180910390a3604080517035b2bc9737bbb730b136329737bbb732b960791b8152905190819003601101902055565b600082610f5557506000610b67565b82820282848281610f6257fe5b0414610f9f5760405162461bcd60e51b81526004018080602001828103825260218152602001806115766021913960400191505060405180910390fd5b9392505050565b6000610f9f83836040518060400160405280601a81526020017f536166654d6174683a206469766973696f6e206279207a65726f0000000000008152506113af565b600082820183811015610f9f576040805162461bcd60e51b815260206004820152601b60248201527f536166654d6174683a206164646974696f6e206f766572666c6f770000000000604482015290519081900360640190fd5b600081116105725760405162461bcd60e51b815260040180806020018281038252602c81526020018061154a602c913960400191505060405180910390fd5b6001600160a01b03811660009081526004602052604081205460025482906110e690670de0b6b3a7640000906105b9906110c1908663ffffffff6111b916565b6001600160a01b0388166000908152602081905260409020549063ffffffff610f4616565b949350505050565b6001600160a01b03811660009081526004602052604081206001015460035482906110e690670de0b6b3a7640000906105b9906110c1908663ffffffff6111b916565b600280546001600160a01b038316600081815260046020908152604091829020938455600354600190940184905593548151928352938201939093528083019190915290517f6b5cf27595af4428271524e0a5abd2b63f6fee1a61e31970490f5a10e257a1cd9181900360600190a150565b60008183106111b25781610f9f565b5090919050565b6000610f9f83836040518060400160405280601e81526020017f536166654d6174683a207375627472616374696f6e206f766572666c6f770000815250611451565b604080513381526020810183905281517f6109e2559dfa766aaec7118351d48a523f0a4157f49c8d68749c8ac41318ad12929181900390910190a1604051600090339083908381818185875af1925050503d8060008114611278576040519150601f19603f3d011682016040523d82523d6000602084013e61127d565b606091505b50509050806112bd5760405162461bcd60e51b815260040180806020018281038252602f8152602001806114ac602f913960400191505060405180910390fd5b5050565b6001600160a01b03811661131c576040805162461bcd60e51b815260206004820152601e60248201527f4163636f756e742063616e6e6f74206265207a65726f20616464726573730000604482015290519081900360640190fd5b803b806112bd576040805162461bcd60e51b815260206004820181905260248201527f4163636f756e7420636f64652073697a652063616e6e6f74206265207a65726f604482015290519081900360640190fd5b600081116105725760405162461bcd60e51b81526004018080602001828103825260248152602001806114db6024913960400191505060405180910390fd5b6000818361143b5760405162461bcd60e51b81526004018080602001828103825283818151815260200191508051906020019080838360005b838110156114005781810151838201526020016113e8565b50505050905090810190601f16801561142d5780820380516001836020036101000a031916815260200191505b509250505060405180910390fd5b50600083858161144757fe5b0495945050505050565b600081848411156114a35760405162461bcd60e51b81526020600482018181528351602484015283519092839260449091019190850190808383600083156114005781810151838201526020016113e8565b50505090039056fe5a45524f5374616b696e673a204661696c656420746f2073656e6420616363756d756c61746564204554484761696e5a45524f5374616b696e673a20416d6f756e74206d757374206265206e6f6e2d7a65726f4f776e61626c653a3a7365744f776e65723a20696e76616c696420616464726573735a45524f5374616b696e673a2063616c6c6572206973206e6f74204665654469737472696275746f725a45524f5374616b696e673a2055736572206d75737420686176652061206e6f6e2d7a65726f207374616b65536166654d6174683a206d756c7469706c69636174696f6e206f766572666c6f77a264697066735822122005ea5c1b2e30d7b818e7b6b5a8a68d8fe02ca8b773da2bafd849f769747926ed64736f6c634300060b00334f776e61626c653a3a7365744f776e65723a20696e76616c69642061646472657373",
  "linkReferences": {},
  "deployedLinkReferences": {}
}