{
  "address": "0xc0B70D65A665911B0D6Dbd1eD58094F9c85F5A39",
  "abi": [
    {
      "anonymous": false,
      "inputs": [
        {
          "indexed": true,
          "internalType": "address",
          "name": "owner",
          "type": "address"
        },
        {
          "indexed": true,
          "internalType": "address",
          "name": "spender",
          "type": "address"
        },
        {
          "indexed": false,
          "internalType": "uint256",
          "name": "value",
          "type": "uint256"
        }
      ],
      "name": "Approval",
      "type": "event"
    },
    {
      "anonymous": false,
      "inputs": [
        {
          "indexed": false,
          "internalType": "address",
          "name": "_newBorrowerOperationsAddress",
          "type": "address"
        }
      ],
      "name": "BorrowerOperationsAddressChanged",
      "type": "event"
    },
    {
      "anonymous": false,
      "inputs": [
        {
          "indexed": true,
          "internalType": "address",
          "name": "previousOwner",
          "type": "address"
        },
        {
          "indexed": true,
          "internalType": "address",
          "name": "newOwner",
          "type": "address"
        }
      ],
      "name": "OwnershipTransferred",
      "type": "event"
    },
    {
      "anonymous": false,
      "inputs": [
        {
          "indexed": false,
          "internalType": "address",
          "name": "_newStabilityPoolAddress",
          "type": "address"
        }
      ],
      "name": "StabilityPoolAddressChanged",
      "type": "event"
    },
    {
      "anonymous": false,
      "inputs": [
        {
          "indexed": true,
          "internalType": "address",
          "name": "from",
          "type": "address"
        },
        {
          "indexed": true,
          "internalType": "address",
          "name": "to",
          "type": "address"
        },
        {
          "indexed": false,
          "internalType": "uint256",
          "name": "value",
          "type": "uint256"
        }
      ],
      "name": "Transfer",
      "type": "event"
    },
    {
      "anonymous": false,
      "inputs": [
        {
          "indexed": false,
          "internalType": "address",
          "name": "_troveManagerAddress",
          "type": "address"
        }
      ],
      "name": "TroveManagerAddressChanged",
      "type": "event"
    },
    {
      "anonymous": false,
      "inputs": [
        {
          "indexed": false,
          "internalType": "address",
          "name": "_user",
          "type": "address"
        },
        {
          "indexed": false,
          "internalType": "uint256",
          "name": "_amount",
          "type": "uint256"
        }
      ],
      "name": "ZUSDTokenBalanceUpdated",
      "type": "event"
    },
    {
      "inputs": [
        {
          "internalType": "address",
          "name": "owner",
          "type": "address"
        },
        {
          "internalType": "address",
          "name": "spender",
          "type": "address"
        }
      ],
      "name": "allowance",
      "outputs": [
        {
          "internalType": "uint256",
          "name": "",
          "type": "uint256"
        }
      ],
      "stateMutability": "view",
      "type": "function"
    },
    {
      "inputs": [
        {
          "internalType": "address",
          "name": "spender",
          "type": "address"
        },
        {
          "internalType": "uint256",
          "name": "amount",
          "type": "uint256"
        }
      ],
      "name": "approve",
      "outputs": [
        {
          "internalType": "bool",
          "name": "",
          "type": "bool"
        }
      ],
      "stateMutability": "nonpayable",
      "type": "function"
    },
    {
      "inputs": [
        {
          "internalType": "address",
          "name": "account",
          "type": "address"
        }
      ],
      "name": "balanceOf",
      "outputs": [
        {
          "internalType": "uint256",
          "name": "",
          "type": "uint256"
        }
      ],
      "stateMutability": "view",
      "type": "function"
    },
    {
      "inputs": [
        {
          "internalType": "address",
          "name": "_account",
          "type": "address"
        },
        {
          "internalType": "uint256",
          "name": "_amount",
          "type": "uint256"
        }
      ],
      "name": "burn",
      "outputs": [],
      "stateMutability": "nonpayable",
      "type": "function"
    },
    {
      "inputs": [],
      "name": "decimals",
      "outputs": [
        {
          "internalType": "uint8",
          "name": "",
          "type": "uint8"
        }
      ],
      "stateMutability": "view",
      "type": "function"
    },
    {
      "inputs": [
        {
          "internalType": "address",
          "name": "spender",
          "type": "address"
        },
        {
          "internalType": "uint256",
          "name": "subtractedValue",
          "type": "uint256"
        }
      ],
      "name": "decreaseAllowance",
      "outputs": [
        {
          "internalType": "bool",
          "name": "",
          "type": "bool"
        }
      ],
      "stateMutability": "nonpayable",
      "type": "function"
    },
    {
      "inputs": [],
      "name": "domainSeparator",
      "outputs": [
        {
          "internalType": "bytes32",
          "name": "",
          "type": "bytes32"
        }
      ],
      "stateMutability": "view",
      "type": "function"
    },
    {
      "inputs": [],
      "name": "getOwner",
      "outputs": [
        {
          "internalType": "address",
          "name": "_owner",
          "type": "address"
        }
      ],
      "stateMutability": "view",
      "type": "function"
    },
    {
      "inputs": [
        {
          "internalType": "address",
          "name": "spender",
          "type": "address"
        },
        {
          "internalType": "uint256",
          "name": "addedValue",
          "type": "uint256"
        }
      ],
      "name": "increaseAllowance",
      "outputs": [
        {
          "internalType": "bool",
          "name": "",
          "type": "bool"
        }
      ],
      "stateMutability": "nonpayable",
      "type": "function"
    },
    {
      "inputs": [
        {
          "internalType": "address",
          "name": "_troveManagerAddress",
          "type": "address"
        },
        {
          "internalType": "address",
          "name": "_stabilityPoolAddress",
          "type": "address"
        },
        {
          "internalType": "address",
          "name": "_borrowerOperationsAddress",
          "type": "address"
        }
      ],
      "name": "initialize",
      "outputs": [],
      "stateMutability": "nonpayable",
      "type": "function"
    },
    {
      "inputs": [
        {
          "internalType": "address",
          "name": "_account",
          "type": "address"
        },
        {
          "internalType": "uint256",
          "name": "_amount",
          "type": "uint256"
        }
      ],
      "name": "mint",
      "outputs": [],
      "stateMutability": "nonpayable",
      "type": "function"
    },
    {
      "inputs": [],
      "name": "name",
      "outputs": [
        {
          "internalType": "string",
          "name": "",
          "type": "string"
        }
      ],
      "stateMutability": "view",
      "type": "function"
    },
    {
      "inputs": [
        {
          "internalType": "address",
          "name": "owner",
          "type": "address"
        }
      ],
      "name": "nonces",
      "outputs": [
        {
          "internalType": "uint256",
          "name": "",
          "type": "uint256"
        }
      ],
      "stateMutability": "view",
      "type": "function"
    },
    {
      "inputs": [
        {
          "internalType": "address",
          "name": "owner",
          "type": "address"
        },
        {
          "internalType": "address",
          "name": "spender",
          "type": "address"
        },
        {
          "internalType": "uint256",
          "name": "amount",
          "type": "uint256"
        },
        {
          "internalType": "uint256",
          "name": "deadline",
          "type": "uint256"
        },
        {
          "internalType": "uint8",
          "name": "v",
          "type": "uint8"
        },
        {
          "internalType": "bytes32",
          "name": "r",
          "type": "bytes32"
        },
        {
          "internalType": "bytes32",
          "name": "s",
          "type": "bytes32"
        }
      ],
      "name": "permit",
      "outputs": [],
      "stateMutability": "nonpayable",
      "type": "function"
    },
    {
      "inputs": [],
      "name": "permitTypeHash",
      "outputs": [
        {
          "internalType": "bytes32",
          "name": "",
          "type": "bytes32"
        }
      ],
      "stateMutability": "view",
      "type": "function"
    },
    {
      "inputs": [
        {
          "internalType": "address",
          "name": "_poolAddress",
          "type": "address"
        },
        {
          "internalType": "address",
          "name": "_receiver",
          "type": "address"
        },
        {
          "internalType": "uint256",
          "name": "_amount",
          "type": "uint256"
        }
      ],
      "name": "returnFromPool",
      "outputs": [],
      "stateMutability": "nonpayable",
      "type": "function"
    },
    {
      "inputs": [
        {
          "internalType": "address",
          "name": "_sender",
          "type": "address"
        },
        {
          "internalType": "address",
          "name": "_poolAddress",
          "type": "address"
        },
        {
          "internalType": "uint256",
          "name": "_amount",
          "type": "uint256"
        }
      ],
      "name": "sendToPool",
      "outputs": [],
      "stateMutability": "nonpayable",
      "type": "function"
    },
    {
      "inputs": [
        {
          "internalType": "address",
          "name": "_owner",
          "type": "address"
        }
      ],
      "name": "setOwner",
      "outputs": [],
      "stateMutability": "nonpayable",
      "type": "function"
    },
    {
      "inputs": [],
      "name": "symbol",
      "outputs": [
        {
          "internalType": "string",
          "name": "",
          "type": "string"
        }
      ],
      "stateMutability": "view",
      "type": "function"
    },
    {
      "inputs": [],
      "name": "totalSupply",
      "outputs": [
        {
          "internalType": "uint256",
          "name": "",
          "type": "uint256"
        }
      ],
      "stateMutability": "view",
      "type": "function"
    },
    {
      "inputs": [
        {
          "internalType": "address",
          "name": "recipient",
          "type": "address"
        },
        {
          "internalType": "uint256",
          "name": "amount",
          "type": "uint256"
        }
      ],
      "name": "transfer",
      "outputs": [
        {
          "internalType": "bool",
          "name": "",
          "type": "bool"
        }
      ],
      "stateMutability": "nonpayable",
      "type": "function"
    },
    {
      "inputs": [
        {
          "internalType": "address",
          "name": "sender",
          "type": "address"
        },
        {
          "internalType": "address",
          "name": "recipient",
          "type": "address"
        },
        {
          "internalType": "uint256",
          "name": "amount",
          "type": "uint256"
        }
      ],
      "name": "transferFrom",
      "outputs": [
        {
          "internalType": "bool",
          "name": "",
          "type": "bool"
        }
      ],
      "stateMutability": "nonpayable",
      "type": "function"
    },
    {
      "inputs": [],
      "name": "version",
      "outputs": [
        {
          "internalType": "string",
          "name": "",
          "type": "string"
        }
      ],
      "stateMutability": "view",
      "type": "function"
    }
  ],
  "transactionHash": "0x0a9e2bd577e6c7c7e64e1bb5b0c59b3bd6f475a430c2f38603ca0e0f75a99b0e",
  "args": [],
  "numDeployments": 1,
  "solcInputHash": "bdf70867afcc9a7e6cfcfd428ec6f335",
  "bytecode": "0x608060405234801561001057600080fd5b50610023336001600160e01b0361002816565b610110565b6001600160a01b03811661006d5760405162461bcd60e51b81526004018080602001828103825260228152602001806118646022913960400191505060405180910390fd5b6001600160a01b0381166100886001600160e01b036100e616565b6001600160a01b03167f8be0079c531659141344cd1fd0a4f28419497f9722a3daafe3b4186f6b6457e060405160405180910390a3604080517035b2bc9737bbb730b136329737bbb732b960791b8152905190819003601101902055565b604080517035b2bc9737bbb730b136329737bbb732b960791b815290519081900360110190205490565b6117458061011f6000396000f3fe608060405234801561001057600080fd5b506004361061014d5760003560e01c806370a08231116100c3578063a9059cbb1161007c578063a9059cbb14610413578063bb997bac1461043f578063c0c53b8b14610475578063d505accf146104ad578063dd62ed3e146104fe578063f698da251461052c5761014d565b806370a08231146103435780637ecebe0014610369578063893d20e81461038f57806395d89b41146103b35780639dc29fac146103bb578063a457c2d7146103e75761014d565b806320c582be1161011557806320c582be1461025957806323b872dd1461028f578063313ce567146102c557806339509351146102e357806340c10f191461030f57806354fd4d501461033b5761014d565b806306fdde0314610152578063095ea7b3146101cf57806310ce43bd1461020f57806313af40351461022957806318160ddd14610251575b600080fd5b61015a610534565b6040805160208082528351818301528351919283929083019185019080838360005b8381101561019457818101518382015260200161017c565b50505050905090810190601f1680156101c15780820380516001836020036101000a031916815260200191505b509250505060405180910390f35b6101fb600480360360408110156101e557600080fd5b506001600160a01b03813516906020013561055e565b604080519115158252519081900360200190f35b610217610574565b60408051918252519081900360200190f35b61024f6004803603602081101561023f57600080fd5b50356001600160a01b0316610598565b005b61021761060b565b61024f6004803603606081101561026f57600080fd5b506001600160a01b03813581169160208101359091169060400135610611565b6101fb600480360360608110156102a557600080fd5b506001600160a01b03813581169160208101359091169060400135610629565b6102cd6106a1565b6040805160ff9092168252519081900360200190f35b6101fb600480360360408110156102f957600080fd5b506001600160a01b0381351690602001356106a6565b61024f6004803603604081101561032557600080fd5b506001600160a01b0381351690602001356106e2565b61015a6106f8565b6102176004803603602081101561035957600080fd5b50356001600160a01b0316610713565b6102176004803603602081101561037f57600080fd5b50356001600160a01b031661072e565b610397610749565b604080516001600160a01b039092168252519081900360200190f35b61015a610773565b61024f600480360360408110156103d157600080fd5b506001600160a01b038135169060200135610791565b6101fb600480360360408110156103fd57600080fd5b506001600160a01b0381351690602001356107a3565b6101fb6004803603604081101561042957600080fd5b506001600160a01b0381351690602001356107f8565b61024f6004803603606081101561045557600080fd5b506001600160a01b0381358116916020810135909116906040013561080e565b61024f6004803603606081101561048b57600080fd5b506001600160a01b038135811691602081013582169160409091013516610816565b61024f600480360360e08110156104c357600080fd5b506001600160a01b03813581169160208101359091169060408101359060608101359060ff6080820135169060a08101359060c0013561092d565b6102176004803603604081101561051457600080fd5b506001600160a01b0381358116916020013516610b22565b610217610b4d565b60408051808201909152600f81526e2d2aa9a21029ba30b13632b1b7b4b760891b60208201525b90565b600061056b338484610ba2565b50600192915050565b7f6e71edae12b1b97f4d1f60370fef10105fa2faae0126114a169c64845d6126c990565b6105a0610749565b6001600160a01b0316336001600160a01b0316146105ff576040805162461bcd60e51b815260206004820152601760248201527613dddb98589b194e8e881858d8d95cdcc819195b9a5959604a1b604482015290519081900360640190fd5b61060881610c24565b50565b60335490565b610619610cd9565b610624838383610d39565b505050565b600061063483610e1b565b61063f848484610d39565b61069784336106928560405180606001604052806028815260200161161a602891396001600160a01b038a166000908152603a60209081526040808320338452909152902054919063ffffffff610e7716565b610ba2565b5060019392505050565b601290565b336000818152603a602090815260408083206001600160a01b0387168452909152812054909161056b918590610692908663ffffffff610f0e16565b6106ea610f6f565b6106f48282610fb8565b5050565b6040805180820190915260018152603160f81b602082015290565b6001600160a01b031660009081526039602052604090205490565b6001600160a01b031660009081526038602052604090205490565b604080517035b2bc9737bbb730b136329737bbb732b960791b815290519081900360110190205490565b604080518082019091526004815263169554d160e21b602082015290565b61079961104d565b6106f482826110c0565b600061056b3384610692856040518060600160405280602581526020016116eb60259139336000908152603a602090815260408083206001600160a01b038d168452909152902054919063ffffffff610e7716565b600061080383610e1b565b61056b338484610d39565b610619611175565b600054610100900460ff168061082f575061082f6111be565b8061083d575060005460ff16155b6108785760405162461bcd60e51b815260040180806020018281038252602e815260200180611642602e913960400191505060405180910390fd5b600054610100900460ff161580156108a3576000805460ff1961ff0019909116610100171660011790555b6108ab610749565b6001600160a01b0316336001600160a01b03161461090a576040805162461bcd60e51b815260206004820152601760248201527613dddb98589b194e8e881858d8d95cdcc819195b9a5959604a1b604482015290519081900360640190fd5b6109158484846111c4565b8015610927576000805461ff00191690555b50505050565b4284101561097b576040805162461bcd60e51b81526020600482015260166024820152755a5553443a206578706972656420646561646c696e6560501b604482015290519081900360640190fd5b6000610985610b4d565b6001600160a01b03808a1660008181526038602090815260408083208054600180820190925582517f6e71edae12b1b97f4d1f60370fef10105fa2faae0126114a169c64845d6126c98186015280840196909652958e166060860152608085018d905260a085019590955260c08085018c90528151808603909101815260e08501825280519083012061190160f01b6101008601526101028501969096526101228085019690965280518085039096018652610142840180825286519683019690962095839052610162840180825286905260ff8a166101828501526101a284018990526101c284018890525194955090936101e280840193601f198301929081900390910190855afa158015610aa0573d6000803e3d6000fd5b505050602060405103519050886001600160a01b0316816001600160a01b031614610b0c576040805162461bcd60e51b81526020600482015260176024820152765a5553443a20696e76616c6964207369676e617475726560481b604482015290519081900360640190fd5b610b17898989610ba2565b505050505050505050565b6001600160a01b039182166000908152603a6020908152604080832093909416825291909152205490565b6000603554610b5a611398565b1415610b69575060345461055b565b610b9b7f8b73c3c69bb8fe3d512ecc4cf759cc79239f7b179b0ffacaa9a75d522b39400f60001b60365460375461139c565b905061055b565b6001600160a01b038316610bb257fe5b6001600160a01b038216610bc257fe5b6001600160a01b038084166000818152603a6020908152604080832094871680845294825291829020859055815185815291517f8c5be1e5ebec7d5bd14f71427d1e84f3dd0314c0f7b2291e5b200ac8c7c3b9259281900390910190a3505050565b6001600160a01b038116610c695760405162461bcd60e51b81526004018080602001828103825260228152602001806115a46022913960400191505060405180910390fd5b806001600160a01b0316610c7b610749565b6001600160a01b03167f8be0079c531659141344cd1fd0a4f28419497f9722a3daafe3b4186f6b6457e060405160405180910390a3604080517035b2bc9737bbb730b136329737bbb732b960791b8152905190819003601101902055565b603b546001600160a01b0316331480610cfc5750603c546001600160a01b031633145b610d375760405162461bcd60e51b81526004018080602001828103825260368152602001806116b56036913960400191505060405180910390fd5b565b6001600160a01b038316610d4957fe5b6001600160a01b038216610d5957fe5b610d9c81604051806060016040528060268152602001611531602691396001600160a01b038616600090815260396020526040902054919063ffffffff610e7716565b6001600160a01b038085166000908152603960205260408082209390935590841681522054610dd1908263ffffffff610f0e16565b6001600160a01b03808416600081815260396020908152604091829020949094558051858152905191939287169260008051602061169583398151915292918290030190a3505050565b6001600160a01b03811615801590610e3c57506001600160a01b0381163014155b6106085760405162461bcd60e51b81526004018080602001828103825260548152602001806115c66054913960600191505060405180910390fd5b60008184841115610f065760405162461bcd60e51b81526004018080602001828103825283818151815260200191508051906020019080838360005b83811015610ecb578181015183820152602001610eb3565b50505050905090810190601f168015610ef85780820380516001836020036101000a031916815260200191505b509250505060405180910390fd5b505050900390565b600082820183811015610f68576040805162461bcd60e51b815260206004820152601b60248201527f536166654d6174683a206164646974696f6e206f766572666c6f770000000000604482015290519081900360640190fd5b9392505050565b603d546001600160a01b03163314610d375760405162461bcd60e51b815260040180806020018281038252602b815260200180611506602b913960400191505060405180910390fd5b6001600160a01b038216610fc857fe5b603354610fdb908263ffffffff610f0e16565b6033556001600160a01b038216600090815260396020526040902054611007908263ffffffff610f0e16565b6001600160a01b03831660008181526039602090815260408083209490945583518581529351929391926000805160206116958339815191529281900390910190a35050565b603d546001600160a01b03163314806110705750603b546001600160a01b031633145b806110855750603c546001600160a01b031633145b610d375760405162461bcd60e51b815260040180806020018281038252604d815260200180611557604d913960600191505060405180910390fd5b6001600160a01b0382166110d057fe5b611113816040518060600160405280602281526020016114e4602291396001600160a01b038516600090815260396020526040902054919063ffffffff610e7716565b6001600160a01b03831660009081526039602052604090205560335461113f908263ffffffff6113f216565b6033556040805182815290516000916001600160a01b038516916000805160206116958339815191529181900360200190a35050565b603c546001600160a01b03163314610d375760405162461bcd60e51b81526004018080602001828103825260258152602001806116706025913960400191505060405180910390fd5b303b1590565b6111cd83611434565b6111d682611434565b6111df81611434565b603b80546001600160a01b0385166001600160a01b0319909116811790915560408051918252517f143219c9e69b09e07e095fcc889b43d8f46ca892bba65f08dc3a0050869a56789181900360200190a1603c80546001600160a01b0384166001600160a01b0319909116811790915560408051918252517f82966d27eea39b038ee0fa30cd16532bb24f6e65d31cb58fb227aa5766cdcc7f9181900360200190a1603d80546001600160a01b0383166001600160a01b0319909116811790915560408051918252517f3ca631ffcd2a9b5d9ae18543fc82f58eb4ca33af9e6ab01b7a8e95331e6ed9859181900360200190a1604080518082018252600f81526e2d2aa9a21029ba30b13632b1b7b4b760891b602091820152815180830190925260018252603160f81b9101527fd28848e7c3cbededd42b8bfb722b93a1d091c2e7280388a67bb55fc505b758eb60368190557fc89efdaa54c0f20c7adf612882df0950f5a951637e0307cdcb4c672f298b8bc66037819055611360611398565b60355561138e7f8b73c3c69bb8fe3d512ecc4cf759cc79239f7b179b0ffacaa9a75d522b39400f838361139c565b6034555050505050565b4690565b60008383836113a9611398565b6040805160208082019690965280820194909452606084019290925260808301523060a0808401919091528151808403909101815260c090920190528051910120949350505050565b6000610f6883836040518060400160405280601e81526020017f536166654d6174683a207375627472616374696f6e206f766572666c6f770000815250610e77565b6001600160a01b03811661148f576040805162461bcd60e51b815260206004820152601e60248201527f4163636f756e742063616e6e6f74206265207a65726f20616464726573730000604482015290519081900360640190fd5b803b806106f4576040805162461bcd60e51b815260206004820181905260248201527f4163636f756e7420636f64652073697a652063616e6e6f74206265207a65726f604482015290519081900360640190fdfe45524332303a206275726e20616d6f756e7420657863656564732062616c616e63655a555344546f6b656e3a2043616c6c6572206973206e6f7420426f72726f7765724f7065726174696f6e7345524332303a207472616e7366657220616d6f756e7420657863656564732062616c616e63655a5553443a2043616c6c6572206973206e65697468657220426f72726f7765724f7065726174696f6e73206e6f722054726f76654d616e61676572206e6f722053746162696c697479506f6f6c4f776e61626c653a3a7365744f776e65723a20696e76616c696420616464726573735a5553443a2043616e6e6f74207472616e7366657220746f6b656e73206469726563746c7920746f20746865205a55534420746f6b656e20636f6e7472616374206f7220746865207a65726f206164647265737345524332303a207472616e7366657220616d6f756e74206578636565647320616c6c6f77616e6365436f6e747261637420696e7374616e63652068617320616c7265616479206265656e20696e697469616c697a65645a5553443a2043616c6c6572206973206e6f74207468652053746162696c697479506f6f6cddf252ad1be2c89b69c2b068fc378daa952ba7f163c4a11628f55a4df523b3ef5a5553443a2043616c6c6572206973206e6569746865722054726f76654d616e61676572206e6f722053746162696c697479506f6f6c45524332303a2064656372656173656420616c6c6f77616e63652062656c6f77207a65726fa2646970667358221220f50801aa88b31fd77d008212bfb89f94e9589a1713a72c6a58c4d6412ee8a87f64736f6c634300060b00334f776e61626c653a3a7365744f776e65723a20696e76616c69642061646472657373",
  "devdoc": {
    "kind": "dev",
    "methods": {
      "allowance(address,address)": {
        "details": "Returns the remaining number of tokens that `spender` will be allowed to spend on behalf of `owner` through {transferFrom}. This is zero by default. This value changes when {approve} or {transferFrom} are called."
      },
      "approve(address,uint256)": {
        "details": "Sets `amount` as the allowance of `spender` over the caller's tokens. Returns a boolean value indicating whether the operation succeeded. IMPORTANT: Beware that changing an allowance with this method brings the risk that someone may use both the old and the new allowance by unfortunate transaction ordering. One possible solution to mitigate this race condition is to first reduce the spender's allowance to 0 and set the desired value afterwards: https://github.com/ethereum/EIPs/issues/20#issuecomment-263524729 Emits an {Approval} event."
      },
      "balanceOf(address)": {
        "details": "Returns the amount of tokens owned by `account`."
      },
      "getOwner()": {
        "returns": {
          "_owner": "Address of the owner. "
        }
      },
      "nonces(address)": {
        "details": "Returns the current ERC2612 nonce for `owner`. This value must be included whenever a signature is generated for {permit}. Every successful call to {permit} increases `owner`'s nonce by one. This prevents a signature from being used multiple times. `owner` can limit the time a Permit is valid for by setting `deadline` to  a value in the near future. The deadline argument can be set to uint(-1) to  create Permits that effectively never expire."
      },
      "permit(address,address,uint256,uint256,uint8,bytes32,bytes32)": {
        "details": "Sets `amount` as the allowance of `spender` over `owner`'s tokens, given `owner`'s signed approval. IMPORTANT: The same issues {IERC20-approve} has related to transaction ordering also apply here. Emits an {Approval} event. Requirements: - `owner` cannot be the zero address. - `spender` cannot be the zero address. - `deadline` must be a timestamp in the future. - `v`, `r` and `s` must be a valid `secp256k1` signature from `owner` over the EIP712-formatted function arguments. - the signature must use ``owner``'s current nonce (see {nonces}). For more information on the signature format, see the https://eips.ethereum.org/EIPS/eip-2612#specification[relevant EIP section]."
      },
      "setOwner(address)": {
        "params": {
          "_owner": "Address of the owner. "
        }
      },
      "totalSupply()": {
        "details": "Returns the amount of tokens in existence."
      },
      "transfer(address,uint256)": {
        "details": "Moves `amount` tokens from the caller's account to `recipient`. Returns a boolean value indicating whether the operation succeeded. Emits a {Transfer} event."
      },
      "transferFrom(address,address,uint256)": {
        "details": "Moves `amount` tokens from `sender` to `recipient` using the allowance mechanism. `amount` is then deducted from the caller's allowance. Returns a boolean value indicating whether the operation succeeded. Emits a {Transfer} event."
      }
    },
    "version": 1
  },
  "userdoc": {
    "kind": "user",
    "methods": {
      "getOwner()": {
        "notice": "Return address of the owner."
      },
      "setOwner(address)": {
        "notice": "Set address of the owner (only owner can call this function)"
      }
    },
    "notice": "Based upon OpenZeppelin's ERC20 contract: https://github.com/OpenZeppelin/openzeppelin-contracts/blob/master/contracts/token/ERC20/ERC20.sol and their EIP2612 (ERC20Permit / ERC712) functionality: https://github.com/OpenZeppelin/openzeppelin-contracts/blob/53516bc555a454862470e7860a9b5254db4d00f5/contracts/token/ERC20/ERC20Permit.sol --- Functionality added specific to the ZUSDToken --- 1) Transfer protection: blacklist of addresses that are invalid recipients (i.e. core Zero contracts) in external transfer() and transferFrom() calls. The purpose is to protect users from losing tokens by mistakenly sending ZUSD directly to a Zero core contract, when they should rather call the right function. 2) sendToPool() and returnFromPool(): functions callable only Zero core contracts, which move ZUSD tokens between Zero <-> user.",
    "version": 1
  },
  "storageLayout": {
    "storage": [
      {
        "astId": 5125,
        "contract": "contracts/ZUSDToken.sol:ZUSDToken",
        "label": "initialized",
        "offset": 0,
        "slot": "0",
        "type": "t_bool"
      },
      {
        "astId": 5128,
        "contract": "contracts/ZUSDToken.sol:ZUSDToken",
        "label": "initializing",
        "offset": 1,
        "slot": "0",
        "type": "t_bool"
      },
      {
        "astId": 5193,
        "contract": "contracts/ZUSDToken.sol:ZUSDToken",
        "label": "______gap",
        "offset": 0,
        "slot": "1",
        "type": "t_array(t_uint256)50_storage"
      },
      {
        "astId": 35997,
        "contract": "contracts/ZUSDToken.sol:ZUSDToken",
        "label": "_totalSupply",
        "offset": 0,
        "slot": "51",
        "type": "t_uint256"
      },
      {
        "astId": 36017,
        "contract": "contracts/ZUSDToken.sol:ZUSDToken",
        "label": "_CACHED_DOMAIN_SEPARATOR",
        "offset": 0,
        "slot": "52",
        "type": "t_bytes32"
      },
      {
        "astId": 36019,
        "contract": "contracts/ZUSDToken.sol:ZUSDToken",
        "label": "_CACHED_CHAIN_ID",
        "offset": 0,
        "slot": "53",
        "type": "t_uint256"
      },
      {
        "astId": 36021,
        "contract": "contracts/ZUSDToken.sol:ZUSDToken",
        "label": "_HASHED_NAME",
        "offset": 0,
        "slot": "54",
        "type": "t_bytes32"
      },
      {
        "astId": 36023,
        "contract": "contracts/ZUSDToken.sol:ZUSDToken",
        "label": "_HASHED_VERSION",
        "offset": 0,
        "slot": "55",
        "type": "t_bytes32"
      },
      {
        "astId": 36027,
        "contract": "contracts/ZUSDToken.sol:ZUSDToken",
        "label": "_nonces",
        "offset": 0,
        "slot": "56",
        "type": "t_mapping(t_address,t_uint256)"
      },
      {
        "astId": 36031,
        "contract": "contracts/ZUSDToken.sol:ZUSDToken",
        "label": "_balances",
        "offset": 0,
        "slot": "57",
        "type": "t_mapping(t_address,t_uint256)"
      },
      {
        "astId": 36037,
        "contract": "contracts/ZUSDToken.sol:ZUSDToken",
        "label": "_allowances",
        "offset": 0,
        "slot": "58",
        "type": "t_mapping(t_address,t_mapping(t_address,t_uint256))"
      },
      {
        "astId": 36039,
        "contract": "contracts/ZUSDToken.sol:ZUSDToken",
        "label": "troveManagerAddress",
        "offset": 0,
        "slot": "59",
        "type": "t_address"
      },
      {
        "astId": 36041,
        "contract": "contracts/ZUSDToken.sol:ZUSDToken",
        "label": "stabilityPoolAddress",
        "offset": 0,
        "slot": "60",
        "type": "t_address"
      },
      {
        "astId": 36043,
        "contract": "contracts/ZUSDToken.sol:ZUSDToken",
        "label": "borrowerOperationsAddress",
        "offset": 0,
        "slot": "61",
        "type": "t_address"
      }
    ],
    "types": {
      "t_address": {
        "encoding": "inplace",
        "label": "address",
        "numberOfBytes": "20"
      },
      "t_array(t_uint256)50_storage": {
        "base": "t_uint256",
        "encoding": "inplace",
        "label": "uint256[50]",
        "numberOfBytes": "1600"
      },
      "t_bool": {
        "encoding": "inplace",
        "label": "bool",
        "numberOfBytes": "1"
      },
      "t_bytes32": {
        "encoding": "inplace",
        "label": "bytes32",
        "numberOfBytes": "32"
      },
      "t_mapping(t_address,t_mapping(t_address,t_uint256))": {
        "encoding": "mapping",
        "key": "t_address",
        "label": "mapping(address => mapping(address => uint256))",
        "numberOfBytes": "32",
        "value": "t_mapping(t_address,t_uint256)"
      },
      "t_mapping(t_address,t_uint256)": {
        "encoding": "mapping",
        "key": "t_address",
        "label": "mapping(address => uint256)",
        "numberOfBytes": "32",
        "value": "t_uint256"
      },
      "t_uint256": {
        "encoding": "inplace",
        "label": "uint256",
        "numberOfBytes": "32"
      }
    }
  }
}