{
  "_format": "hh-sol-artifact-1",
  "contractName": "BorrowerOperationsTester",
  "sourceName": "contracts/TestContracts/BorrowerOperationsTester.sol",
  "abi": [
    {
      "anonymous": false,
      "inputs": [
        {
          "indexed": false,
          "internalType": "address",
          "name": "_activePoolAddress",
          "type": "address"
        }
      ],
      "name": "ActivePoolAddressChanged",
      "type": "event"
    },
    {
      "anonymous": false,
      "inputs": [
        {
          "indexed": false,
          "internalType": "address",
          "name": "_collSurplusPoolAddress",
          "type": "address"
        }
      ],
      "name": "CollSurplusPoolAddressChanged",
      "type": "event"
    },
    {
      "anonymous": false,
      "inputs": [
        {
          "indexed": false,
          "internalType": "address",
          "name": "_defaultPoolAddress",
          "type": "address"
        }
      ],
      "name": "DefaultPoolAddressChanged",
      "type": "event"
    },
    {
      "anonymous": false,
      "inputs": [
        {
          "indexed": false,
          "internalType": "address",
          "name": "_feeDistributorAddress",
          "type": "address"
        }
      ],
      "name": "FeeDistributorAddressChanged",
      "type": "event"
    },
    {
      "anonymous": false,
      "inputs": [
        {
          "indexed": false,
          "internalType": "address",
          "name": "_gasPoolAddress",
          "type": "address"
        }
      ],
      "name": "GasPoolAddressChanged",
      "type": "event"
    },
    {
      "anonymous": false,
      "inputs": [
        {
          "indexed": false,
          "internalType": "address",
          "name": "_massetManagerAddress",
          "type": "address"
        }
      ],
      "name": "MassetManagerAddressChanged",
      "type": "event"
    },
    {
      "anonymous": false,
      "inputs": [
        {
          "indexed": true,
          "internalType": "address",
          "name": "previousOwner",
          "type": "address"
        },
        {
          "indexed": true,
          "internalType": "address",
          "name": "newOwner",
          "type": "address"
        }
      ],
      "name": "OwnershipTransferred",
      "type": "event"
    },
    {
      "anonymous": false,
      "inputs": [
        {
          "indexed": false,
          "internalType": "address",
          "name": "_newPriceFeedAddress",
          "type": "address"
        }
      ],
      "name": "PriceFeedAddressChanged",
      "type": "event"
    },
    {
      "anonymous": false,
      "inputs": [
        {
          "indexed": false,
          "internalType": "address",
          "name": "_sortedTrovesAddress",
          "type": "address"
        }
      ],
      "name": "SortedTrovesAddressChanged",
      "type": "event"
    },
    {
      "anonymous": false,
      "inputs": [
        {
          "indexed": false,
          "internalType": "address",
          "name": "_stabilityPoolAddress",
          "type": "address"
        }
      ],
      "name": "StabilityPoolAddressChanged",
      "type": "event"
    },
    {
      "anonymous": false,
      "inputs": [
        {
          "indexed": true,
          "internalType": "address",
          "name": "_borrower",
          "type": "address"
        },
        {
          "indexed": false,
          "internalType": "uint256",
          "name": "arrayIndex",
          "type": "uint256"
        }
      ],
      "name": "TroveCreated",
      "type": "event"
    },
    {
      "anonymous": false,
      "inputs": [
        {
          "indexed": false,
          "internalType": "address",
          "name": "_newTroveManagerAddress",
          "type": "address"
        }
      ],
      "name": "TroveManagerAddressChanged",
      "type": "event"
    },
    {
      "anonymous": false,
      "inputs": [
        {
          "indexed": true,
          "internalType": "address",
          "name": "_borrower",
          "type": "address"
        },
        {
          "indexed": false,
          "internalType": "uint256",
          "name": "_debt",
          "type": "uint256"
        },
        {
          "indexed": false,
          "internalType": "uint256",
          "name": "_coll",
          "type": "uint256"
        },
        {
          "indexed": false,
          "internalType": "uint256",
          "name": "stake",
          "type": "uint256"
        },
        {
          "indexed": false,
          "internalType": "enum BorrowerOperations.BorrowerOperation",
          "name": "operation",
          "type": "uint8"
        }
      ],
      "name": "TroveUpdated",
      "type": "event"
    },
    {
      "anonymous": false,
      "inputs": [
        {
          "indexed": false,
          "internalType": "address",
          "name": "_zeroStakingAddress",
          "type": "address"
        }
      ],
      "name": "ZEROStakingAddressChanged",
      "type": "event"
    },
    {
      "anonymous": false,
      "inputs": [
        {
          "indexed": true,
          "internalType": "address",
          "name": "_borrower",
          "type": "address"
        },
        {
          "indexed": false,
          "internalType": "uint256",
          "name": "_ZUSDFee",
          "type": "uint256"
        }
      ],
      "name": "ZUSDBorrowingFeePaid",
      "type": "event"
    },
    {
      "anonymous": false,
      "inputs": [
        {
          "indexed": false,
          "internalType": "address",
          "name": "_zusdTokenAddress",
          "type": "address"
        }
      ],
      "name": "ZUSDTokenAddressChanged",
      "type": "event"
    },
    {
      "inputs": [],
      "name": "BORROWING_FEE_FLOOR",
      "outputs": [
        {
          "internalType": "uint256",
          "name": "",
          "type": "uint256"
        }
      ],
      "stateMutability": "view",
      "type": "function"
    },
    {
      "inputs": [],
      "name": "DECIMAL_PRECISION",
      "outputs": [
        {
          "internalType": "uint256",
          "name": "",
          "type": "uint256"
        }
      ],
      "stateMutability": "view",
      "type": "function"
    },
    {
      "inputs": [],
      "name": "MIN_NET_DEBT",
      "outputs": [
        {
          "internalType": "uint256",
          "name": "",
          "type": "uint256"
        }
      ],
      "stateMutability": "view",
      "type": "function"
    },
    {
      "inputs": [],
      "name": "NAME",
      "outputs": [
        {
          "internalType": "string",
          "name": "",
          "type": "string"
        }
      ],
      "stateMutability": "view",
      "type": "function"
    },
    {
      "inputs": [],
      "name": "ZUSD_GAS_COMPENSATION",
      "outputs": [
        {
          "internalType": "uint256",
          "name": "",
          "type": "uint256"
        }
      ],
      "stateMutability": "view",
      "type": "function"
    },
    {
      "inputs": [],
      "name": "_100pct",
      "outputs": [
        {
          "internalType": "uint256",
          "name": "",
          "type": "uint256"
        }
      ],
      "stateMutability": "view",
      "type": "function"
    },
    {
      "inputs": [],
      "name": "activePool",
      "outputs": [
        {
          "internalType": "contract IActivePool",
          "name": "",
          "type": "address"
        }
      ],
      "stateMutability": "view",
      "type": "function"
    },
    {
      "inputs": [
        {
          "internalType": "address",
          "name": "_upperHint",
          "type": "address"
        },
        {
          "internalType": "address",
          "name": "_lowerHint",
          "type": "address"
        }
      ],
      "name": "addColl",
      "outputs": [],
      "stateMutability": "payable",
      "type": "function"
    },
    {
      "inputs": [
        {
          "internalType": "uint256",
          "name": "_maxFeePercentage",
          "type": "uint256"
        },
        {
          "internalType": "uint256",
          "name": "_collWithdrawal",
          "type": "uint256"
        },
        {
          "internalType": "uint256",
          "name": "_ZUSDChange",
          "type": "uint256"
        },
        {
          "internalType": "bool",
          "name": "_isDebtIncrease",
          "type": "bool"
        },
        {
          "internalType": "address",
          "name": "_upperHint",
          "type": "address"
        },
        {
          "internalType": "address",
          "name": "_lowerHint",
          "type": "address"
        },
        {
          "components": [
            {
              "internalType": "uint256",
              "name": "deadline",
              "type": "uint256"
            },
            {
              "internalType": "uint8",
              "name": "v",
              "type": "uint8"
            },
            {
              "internalType": "bytes32",
              "name": "r",
              "type": "bytes32"
            },
            {
              "internalType": "bytes32",
              "name": "s",
              "type": "bytes32"
            }
          ],
          "internalType": "struct IMassetManager.PermitParams",
          "name": "_permitParams",
          "type": "tuple"
        }
      ],
      "name": "adjustNueTrove",
      "outputs": [],
      "stateMutability": "payable",
      "type": "function"
    },
    {
      "inputs": [
        {
          "internalType": "uint256",
          "name": "_maxFeePercentage",
          "type": "uint256"
        },
        {
          "internalType": "uint256",
          "name": "_collWithdrawal",
          "type": "uint256"
        },
        {
          "internalType": "uint256",
          "name": "_ZUSDChange",
          "type": "uint256"
        },
        {
          "internalType": "bool",
          "name": "_isDebtIncrease",
          "type": "bool"
        },
        {
          "internalType": "address",
          "name": "_upperHint",
          "type": "address"
        },
        {
          "internalType": "address",
          "name": "_lowerHint",
          "type": "address"
        }
      ],
      "name": "adjustTrove",
      "outputs": [],
      "stateMutability": "payable",
      "type": "function"
    },
    {
      "inputs": [
        {
          "internalType": "address",
          "name": "_borrower",
          "type": "address"
        },
        {
          "internalType": "uint256",
          "name": "_collWithdrawal",
          "type": "uint256"
        },
        {
          "internalType": "uint256",
          "name": "_debtChange",
          "type": "uint256"
        },
        {
          "internalType": "bool",
          "name": "_isDebtIncrease",
          "type": "bool"
        },
        {
          "internalType": "address",
          "name": "_upperHint",
          "type": "address"
        },
        {
          "internalType": "address",
          "name": "_lowerHint",
          "type": "address"
        }
      ],
      "name": "callInternalAdjustLoan",
      "outputs": [],
      "stateMutability": "nonpayable",
      "type": "function"
    },
    {
      "inputs": [],
      "name": "claimCollateral",
      "outputs": [],
      "stateMutability": "nonpayable",
      "type": "function"
    },
    {
      "inputs": [
        {
          "components": [
            {
              "internalType": "uint256",
              "name": "deadline",
              "type": "uint256"
            },
            {
              "internalType": "uint8",
              "name": "v",
              "type": "uint8"
            },
            {
              "internalType": "bytes32",
              "name": "r",
              "type": "bytes32"
            },
            {
              "internalType": "bytes32",
              "name": "s",
              "type": "bytes32"
            }
          ],
          "internalType": "struct IMassetManager.PermitParams",
          "name": "_permitParams",
          "type": "tuple"
        }
      ],
      "name": "closeNueTrove",
      "outputs": [],
      "stateMutability": "nonpayable",
      "type": "function"
    },
    {
      "inputs": [],
      "name": "closeTrove",
      "outputs": [],
      "stateMutability": "nonpayable",
      "type": "function"
    },
    {
      "inputs": [],
      "name": "defaultPool",
      "outputs": [
        {
          "internalType": "contract IDefaultPool",
          "name": "",
          "type": "address"
        }
      ],
      "stateMutability": "view",
      "type": "function"
    },
    {
      "inputs": [],
      "name": "feeDistributor",
      "outputs": [
        {
          "internalType": "contract IFeeDistributor",
          "name": "",
          "type": "address"
        }
      ],
      "stateMutability": "view",
      "type": "function"
    },
    {
      "inputs": [
        {
          "internalType": "uint256",
          "name": "_debt",
          "type": "uint256"
        }
      ],
      "name": "getCompositeDebt",
      "outputs": [
        {
          "internalType": "uint256",
          "name": "",
          "type": "uint256"
        }
      ],
      "stateMutability": "view",
      "type": "function"
    },
    {
      "inputs": [],
      "name": "getEntireSystemColl",
      "outputs": [
        {
          "internalType": "uint256",
          "name": "entireSystemColl",
          "type": "uint256"
        }
      ],
      "stateMutability": "view",
      "type": "function"
    },
    {
      "inputs": [],
      "name": "getEntireSystemDebt",
      "outputs": [
        {
          "internalType": "uint256",
          "name": "entireSystemDebt",
          "type": "uint256"
        }
      ],
      "stateMutability": "view",
      "type": "function"
    },
    {
      "inputs": [],
      "name": "getMassetManager",
      "outputs": [
        {
          "internalType": "contract IMassetManager",
          "name": "",
          "type": "address"
        }
      ],
      "stateMutability": "view",
      "type": "function"
    },
    {
      "inputs": [
        {
          "internalType": "uint256",
          "name": "_coll",
          "type": "uint256"
        },
        {
          "internalType": "uint256",
          "name": "_debt",
          "type": "uint256"
        },
        {
          "internalType": "uint256",
          "name": "_collChange",
          "type": "uint256"
        },
        {
          "internalType": "bool",
          "name": "isCollIncrease",
          "type": "bool"
        },
        {
          "internalType": "uint256",
          "name": "_debtChange",
          "type": "uint256"
        },
        {
          "internalType": "bool",
          "name": "isDebtIncrease",
          "type": "bool"
        },
        {
          "internalType": "uint256",
          "name": "_price",
          "type": "uint256"
        }
      ],
      "name": "getNewICRFromTroveChange",
      "outputs": [
        {
          "internalType": "uint256",
          "name": "",
          "type": "uint256"
        }
      ],
      "stateMutability": "pure",
      "type": "function"
    },
    {
      "inputs": [
        {
          "internalType": "uint256",
          "name": "_collChange",
          "type": "uint256"
        },
        {
          "internalType": "bool",
          "name": "isCollIncrease",
          "type": "bool"
        },
        {
          "internalType": "uint256",
          "name": "_debtChange",
          "type": "uint256"
        },
        {
          "internalType": "bool",
          "name": "isDebtIncrease",
          "type": "bool"
        },
        {
          "internalType": "uint256",
          "name": "_price",
          "type": "uint256"
        }
      ],
      "name": "getNewTCRFromTroveChange",
      "outputs": [
        {
          "internalType": "uint256",
          "name": "",
          "type": "uint256"
        }
      ],
      "stateMutability": "view",
      "type": "function"
    },
    {
      "inputs": [],
      "name": "getOwner",
      "outputs": [
        {
          "internalType": "address",
          "name": "_owner",
          "type": "address"
        }
      ],
      "stateMutability": "view",
      "type": "function"
    },
    {
      "inputs": [
        {
          "internalType": "uint256",
          "name": "_coll",
          "type": "uint256"
        },
        {
          "internalType": "uint256",
          "name": "_price",
          "type": "uint256"
        }
      ],
      "name": "getUSDValue",
      "outputs": [
        {
          "internalType": "uint256",
          "name": "",
          "type": "uint256"
        }
      ],
      "stateMutability": "pure",
      "type": "function"
    },
    {
      "inputs": [],
      "name": "liquityBaseParams",
      "outputs": [
        {
          "internalType": "contract ILiquityBaseParams",
          "name": "",
          "type": "address"
        }
      ],
      "stateMutability": "view",
      "type": "function"
    },
    {
      "inputs": [],
      "name": "massetManager",
      "outputs": [
        {
          "internalType": "contract IMassetManager",
          "name": "",
          "type": "address"
        }
      ],
      "stateMutability": "view",
      "type": "function"
    },
    {
      "inputs": [
        {
          "internalType": "address",
          "name": "_borrower",
          "type": "address"
        },
        {
          "internalType": "address",
          "name": "_upperHint",
          "type": "address"
        },
        {
          "internalType": "address",
          "name": "_lowerHint",
          "type": "address"
        }
      ],
      "name": "moveETHGainToTrove",
      "outputs": [],
      "stateMutability": "payable",
      "type": "function"
    },
    {
      "inputs": [
        {
          "internalType": "uint256",
          "name": "_maxFeePercentage",
          "type": "uint256"
        },
        {
          "internalType": "uint256",
          "name": "_ZUSDAmount",
          "type": "uint256"
        },
        {
          "internalType": "address",
          "name": "_upperHint",
          "type": "address"
        },
        {
          "internalType": "address",
          "name": "_lowerHint",
          "type": "address"
        }
      ],
      "name": "openNueTrove",
      "outputs": [],
      "stateMutability": "payable",
      "type": "function"
    },
    {
      "inputs": [
        {
          "internalType": "uint256",
          "name": "_maxFeePercentage",
          "type": "uint256"
        },
        {
          "internalType": "uint256",
          "name": "_ZUSDAmount",
          "type": "uint256"
        },
        {
          "internalType": "address",
          "name": "_upperHint",
          "type": "address"
        },
        {
          "internalType": "address",
          "name": "_lowerHint",
          "type": "address"
        }
      ],
      "name": "openTrove",
      "outputs": [],
      "stateMutability": "payable",
      "type": "function"
    },
    {
      "inputs": [],
      "name": "priceFeed",
      "outputs": [
        {
          "internalType": "contract IPriceFeed",
          "name": "",
          "type": "address"
        }
      ],
      "stateMutability": "view",
      "type": "function"
    },
    {
      "inputs": [
        {
          "internalType": "uint256",
          "name": "_ZUSDAmount",
          "type": "uint256"
        },
        {
          "internalType": "address",
          "name": "_upperHint",
          "type": "address"
        },
        {
          "internalType": "address",
          "name": "_lowerHint",
          "type": "address"
        }
      ],
      "name": "repayZUSD",
      "outputs": [],
      "stateMutability": "nonpayable",
      "type": "function"
    },
    {
      "inputs": [
        {
          "internalType": "uint256",
          "name": "_dllrAmount",
          "type": "uint256"
        },
        {
          "internalType": "address",
          "name": "_upperHint",
          "type": "address"
        },
        {
          "internalType": "address",
          "name": "_lowerHint",
          "type": "address"
        },
        {
          "components": [
            {
              "internalType": "uint256",
              "name": "deadline",
              "type": "uint256"
            },
            {
              "internalType": "uint8",
              "name": "v",
              "type": "uint8"
            },
            {
              "internalType": "bytes32",
              "name": "r",
              "type": "bytes32"
            },
            {
              "internalType": "bytes32",
              "name": "s",
              "type": "bytes32"
            }
          ],
          "internalType": "struct IMassetManager.PermitParams",
          "name": "_permitParams",
          "type": "tuple"
        }
      ],
      "name": "repayZusdFromDLLR",
      "outputs": [],
      "stateMutability": "nonpayable",
      "type": "function"
    },
    {
      "inputs": [
        {
          "internalType": "address",
          "name": "_feeDistributorAddress",
          "type": "address"
        },
        {
          "internalType": "address",
          "name": "_liquityBaseParamsAddress",
          "type": "address"
        },
        {
          "internalType": "address",
          "name": "_troveManagerAddress",
          "type": "address"
        },
        {
          "internalType": "address",
          "name": "_activePoolAddress",
          "type": "address"
        },
        {
          "internalType": "address",
          "name": "_defaultPoolAddress",
          "type": "address"
        },
        {
          "internalType": "address",
          "name": "_stabilityPoolAddress",
          "type": "address"
        },
        {
          "internalType": "address",
          "name": "_gasPoolAddress",
          "type": "address"
        },
        {
          "internalType": "address",
          "name": "_collSurplusPoolAddress",
          "type": "address"
        },
        {
          "internalType": "address",
          "name": "_priceFeedAddress",
          "type": "address"
        },
        {
          "internalType": "address",
          "name": "_sortedTrovesAddress",
          "type": "address"
        },
        {
          "internalType": "address",
          "name": "_zusdTokenAddress",
          "type": "address"
        },
        {
          "internalType": "address",
          "name": "_zeroStakingAddress",
          "type": "address"
        }
      ],
      "name": "setAddresses",
      "outputs": [],
      "stateMutability": "nonpayable",
      "type": "function"
    },
    {
      "inputs": [
        {
          "internalType": "address",
          "name": "_massetManagerAddress",
          "type": "address"
        }
      ],
      "name": "setMassetManagerAddress",
      "outputs": [],
      "stateMutability": "nonpayable",
      "type": "function"
    },
    {
      "inputs": [
        {
          "internalType": "address",
          "name": "_owner",
          "type": "address"
        }
      ],
      "name": "setOwner",
      "outputs": [],
      "stateMutability": "nonpayable",
      "type": "function"
    },
    {
      "inputs": [],
      "name": "sortedTroves",
      "outputs": [
        {
          "internalType": "contract ISortedTroves",
          "name": "",
          "type": "address"
        }
      ],
      "stateMutability": "view",
      "type": "function"
    },
    {
      "inputs": [],
      "name": "troveManager",
      "outputs": [
        {
          "internalType": "contract ITroveManager",
          "name": "",
          "type": "address"
        }
      ],
      "stateMutability": "view",
      "type": "function"
    },
    {
      "inputs": [
        {
          "internalType": "uint256",
          "name": "_collWithdrawal",
          "type": "uint256"
        },
        {
          "internalType": "address",
          "name": "_upperHint",
          "type": "address"
        },
        {
          "internalType": "address",
          "name": "_lowerHint",
          "type": "address"
        }
      ],
      "name": "withdrawColl",
      "outputs": [],
      "stateMutability": "nonpayable",
      "type": "function"
    },
    {
      "inputs": [
        {
          "internalType": "uint256",
          "name": "_maxFeePercentage",
          "type": "uint256"
        },
        {
          "internalType": "uint256",
          "name": "_ZUSDAmount",
          "type": "uint256"
        },
        {
          "internalType": "address",
          "name": "_upperHint",
          "type": "address"
        },
        {
          "internalType": "address",
          "name": "_lowerHint",
          "type": "address"
        }
      ],
      "name": "withdrawZUSD",
      "outputs": [],
      "stateMutability": "nonpayable",
      "type": "function"
    },
    {
      "inputs": [
        {
          "internalType": "uint256",
          "name": "_maxFeePercentage",
          "type": "uint256"
        },
        {
          "internalType": "uint256",
          "name": "_ZUSDAmount",
          "type": "uint256"
        },
        {
          "internalType": "address",
          "name": "_upperHint",
          "type": "address"
        },
        {
          "internalType": "address",
          "name": "_lowerHint",
          "type": "address"
        }
      ],
      "name": "withdrawZusdAndConvertToDLLR",
      "outputs": [
        {
          "internalType": "uint256",
          "name": "",
          "type": "uint256"
        }
      ],
      "stateMutability": "nonpayable",
      "type": "function"
    },
    {
      "inputs": [],
      "name": "zeroStaking",
      "outputs": [
        {
          "internalType": "contract IZEROStaking",
          "name": "",
          "type": "address"
        }
      ],
      "stateMutability": "view",
      "type": "function"
    },
    {
      "inputs": [],
      "name": "zeroStakingAddress",
      "outputs": [
        {
          "internalType": "address",
          "name": "",
          "type": "address"
        }
      ],
      "stateMutability": "view",
      "type": "function"
    },
    {
      "inputs": [],
      "name": "zusdToken",
      "outputs": [
        {
          "internalType": "contract IZUSDToken",
          "name": "",
          "type": "address"
        }
      ],
      "stateMutability": "view",
      "type": "function"
    },
    {
      "stateMutability": "payable",
      "type": "receive"
    }
  ],
  "bytecode": "0x60806040523480156200001157600080fd5b5062000026336001600160e01b036200002c16565b62000150565b6001600160a01b0381166200005e5760405162461bcd60e51b815260040162000055906200010e565b60405180910390fd5b6001600160a01b0381166200007b6001600160e01b03620000d016565b6001600160a01b03167f8be0079c531659141344cd1fd0a4f28419497f9722a3daafe3b4186f6b6457e060405160405180910390a36000604051620000c090620000f1565b6040519081900390209190915550565b600080604051620000e190620000f1565b6040519081900390205492915050565b7035b2bc9737bbb730b136329737bbb732b960791b815260110190565b60208082526022908201527f4f776e61626c653a3a7365744f776e65723a20696e76616c6964206164647265604082015261737360f01b606082015260800190565b614cbf80620001606000396000f3fe6080604052600436106102605760003560e01c8063759b303411610144578063a20baee6116100b6578063c6a6cf201161007a578063c6a6cf2014610624578063e9fc346114610637578063ea9638bf1461064c578063ec5472fd1461065f578063ec9f7d4614610674578063f92d34331461068957610267565b8063a20baee61461046a578063a3f4df7e146105b8578063ae918754146105da578063afbc74b5146105ef578063b5c89bab1461060f57610267565b8063860665b311610108578063860665b31461053357806387eb305d14610546578063887105d314610566578063893d20e81461057b5780638d5c3dc1146105905780639f070670146105a357610267565b8063759b3034146104b45780637778a3db146104c9578063795d26c3146104e95780637e3eefdc146104fe5780637f7dde4a1461051e57610267565b8063485f190f116101dd5780636ea56960116101a15780636ea56960146104155780636f0b0c1c146104355780636f30d2121461044a57806372fe25aa1461046a578063734f622d1461047f578063741bef1a1461049f57610267565b8063485f190f1461038f5780634ff81443146103a257806351584ca4146103c25780635530273c146103e257806368647db11461040257610267565b80631bf43555116102245780631bf43555146103035780632771510a146103255780632cdcd722146103455780633cc74225146103655780633d83908a1461037a57610267565b80630d43e8ad1461026c5780630e704d50146102975780630ff9a512146102ae57806313af4035146102c35780631a777717146102e357610267565b3661026757005b600080fd5b34801561027857600080fd5b5061028161069e565b60405161028e9190614227565b60405180910390f35b3480156102a357600080fd5b506102ac6106ad565b005b3480156102ba57600080fd5b506102816106b7565b3480156102cf57600080fd5b506102ac6102de366004613d1f565b6106c6565b3480156102ef57600080fd5b506102ac6102fe366004613fc2565b610713565b34801561030f57600080fd5b5061031861072a565b60405161028e9190614c32565b34801561033157600080fd5b506102ac610340366004613d1f565b610737565b34801561035157600080fd5b506102ac610360366004613ec6565b6107c5565b34801561037157600080fd5b506102816107dd565b34801561038657600080fd5b506102816107ec565b6102ac61039d366004614085565b6107fb565b3480156103ae57600080fd5b506103186103bd366004613f6c565b610965565b3480156103ce57600080fd5b506103186103dd36600461417e565b610978565b3480156103ee57600080fd5b506102ac6103fd366004613f9c565b610995565b6102ac610410366004613d57565b6109ab565b34801561042157600080fd5b506102ac610430366004614085565b6109c1565b34801561044157600080fd5b506102ac6109d2565b34801561045657600080fd5b50610318610465366004614064565b610a30565b34801561047657600080fd5b50610318610a45565b34801561048b57600080fd5b506102ac61049a366004613dd9565b610a51565b3480156104ab57600080fd5b50610281610e15565b3480156104c057600080fd5b50610318610e24565b3480156104d557600080fd5b506102ac6104e4366004613f51565b610e31565b3480156104f557600080fd5b50610318610f22565b34801561050a57600080fd5b50610318610519366004614085565b611041565b34801561052a57600080fd5b506102816112bc565b6102ac610541366004614085565b6112cb565b34801561055257600080fd5b50610318610561366004614013565b6112d8565b34801561057257600080fd5b506103186112f1565b34801561058757600080fd5b506102816113c0565b6102ac61059e366004614106565b6113df565b3480156105af57600080fd5b506102816113f7565b3480156105c457600080fd5b506105cd611406565b60405161028e919061430f565b3480156105e657600080fd5b50610281611434565b3480156105fb57600080fd5b506102ac61060a366004613f9c565b611443565b34801561061b57600080fd5b50610281611455565b6102ac6106323660046140ce565b611464565b34801561064357600080fd5b50610281611473565b6102ac61065a366004613d8f565b611482565b34801561066b57600080fd5b5061028161149c565b34801561068057600080fd5b506102816114ab565b34801561069557600080fd5b506103186114ba565b600d546001600160a01b031681565b6106b561153c565b565b6009546001600160a01b031681565b6106ce6113c0565b6001600160a01b0316336001600160a01b0316146107075760405162461bcd60e51b81526004016106fe906147f8565b60405180910390fd5b6107108161192b565b50565b6107246000808660008787876119b6565b50505050565b6809c2007651b250000081565b61073f6113c0565b6001600160a01b0316336001600160a01b03161461076f5760405162461bcd60e51b81526004016106fe906147f8565b600c80546001600160a01b0319166001600160a01b0383161790556040517f6926b3375b54960080b7d8a184061f39a02e8c3bf64aa9df7e75359fdc00d814906107ba908390614227565b60405180910390a150565b6107d58686868686866000611b6c565b505050505050565b6001546001600160a01b031681565b6004546001600160a01b031681565b600c546001600160a01b03166108235760405162461bcd60e51b81526004016106fe90614c02565b6108308484848430611b7c565b600a54600c5460405163095ea7b360e01b81526001600160a01b039283169263095ea7b39261086692911690879060040161427c565b602060405180830381600087803b15801561088057600080fd5b505af1158015610894573d6000803e3d6000fd5b505050506040513d601f19601f820116820180604052508101906108b89190613f35565b6108d45760405162461bcd60e51b81526004016106fe90614886565b600c54600a5460405163438b1b4b60e01b81526001600160a01b039283169263438b1b4b9261090c92911690879033906004016142c0565b602060405180830381600087803b15801561092657600080fd5b505af115801561093a573d6000803e3d6000fd5b505050506040513d601f19601f8201168201806040525081019061095e9190613f84565b5050505050565b6000610970826121a7565b90505b919050565b6000610989888888888888886121c2565b98975050505050505050565b6109a6338460008086866000611b6c565b505050565b6109bd33600080600086866000611b6c565b5050565b61072433600085600186868a611b6c565b60075460405163b32beb5b60e01b81526001600160a01b039091169063b32beb5b90610a02903390600401614227565b600060405180830381600087803b158015610a1c57600080fd5b505af1158015610724573d6000803e3d6000fd5b6000610a3c83836121f5565b90505b92915050565b670de0b6b3a764000081565b610a596113c0565b6001600160a01b0316336001600160a01b031614610a895760405162461bcd60e51b81526004016106fe906147f8565b610a928c612228565b610a9b8b612228565b610aa48a612228565b610aad89612228565b610ab688612228565b610abf87612228565b610ac886612228565b610ad185612228565b610ada84612228565b610ae383612228565b610aec82612228565b610af581612228565b600d80546001600160a01b03199081166001600160a01b038f8116919091179092556003805482168e84161790556004805482168d84161790556000805482168c84161790556001805482168b84161790556005805482168a8416179055600680548216898416179055600780548216888416179055600280548216878416179055600b80548216868416179055600a8054821685841617905560098054821692841692831790556008805490911690911790556040517f84861842e6a98dd759145eb5e7b48279d0f02ebeabc8a69e5196b2f4c5023db990610bd9908e90614227565b60405180910390a17f143219c9e69b09e07e095fcc889b43d8f46ca892bba65f08dc3a0050869a56788a604051610c109190614227565b60405180910390a17f78f058b189175430c48dc02699e3a0031ea4ff781536dc2fab847de4babdd88289604051610c479190614227565b60405180910390a17f5ee0cae2f063ed938bb55046f6a932fb6ae792bf43624806bb90abe68a50be9b88604051610c7e9190614227565b60405180910390a17f82966d27eea39b038ee0fa30cd16532bb24f6e65d31cb58fb227aa5766cdcc7f87604051610cb59190614227565b60405180910390a17fcfb07d791fcafc032b35837b50eb84b74df518cf4cc287e8084f47630fa70fa086604051610cec9190614227565b60405180910390a17fe67f36a6e961157d6eff83b91f3af5a62131ceb6f04954ef74f51c1c05e7f88d85604051610d239190614227565b60405180910390a17f8c537274438aa850a330284665d81a85dd38267d09e4050d416bfc94142db26484604051610d5a9190614227565b60405180910390a17f65f4cf077bc01e4742eb5ad98326f6e95b63548ea24b17f8d5e823111fe7880083604051610d919190614227565b60405180910390a17fcdf33850c44a1a874b5fefb51dae615ac6afebd581ef90d571f81b06541d8e9d82604051610dc89190614227565b60405180910390a17f7624075ed781e3aa34b0f492d70d1bb5a6fcde04534165e20f990d2e546be4dd81604051610dff9190614227565b60405180910390a1505050505050505050505050565b6002546001600160a01b031681565b6801158e460913d0000081565b600c546001600160a01b0316610e595760405162461bcd60e51b81526004016106fe90614c02565b6004805460405163d66a255360e01b81526000926001600160a01b039092169163d66a255391610e8b91339101614227565b60206040518083038186803b158015610ea357600080fd5b505afa158015610eb7573d6000803e3d6000fd5b505050506040513d601f19601f82011682018060405250810190610edb9190613f84565b600c54909150610f19906001600160a01b0316610f07836801158e460913d0000063ffffffff61226d16565b600a546001600160a01b0316856122af565b506109bd61153c565b60008054604080516272c7d360e71b8152905183926001600160a01b031691633963e980916004808301926020929190829003018186803b158015610f6657600080fd5b505afa158015610f7a573d6000803e3d6000fd5b505050506040513d601f19601f82011682018060405250810190610f9e9190613f84565b90506000600160009054906101000a90046001600160a01b03166001600160a01b0316633963e9806040518163ffffffff1660e01b815260040160206040518083038186803b158015610ff057600080fd5b505afa158015611004573d6000803e3d6000fd5b505050506040513d601f19601f820116820180604052508101906110289190613f84565b905061103a828263ffffffff61255416565b9250505090565b600a546040516370a0823160e01b8152600091309183916001600160a01b0316906370a0823190611076908590600401614227565b60206040518083038186803b15801561108e57600080fd5b505afa1580156110a2573d6000803e3d6000fd5b505050506040513d601f19601f820116820180604052508101906110c69190613f84565b90506110d633838888888c612579565b6110e6818763ffffffff61255416565b600a546040516370a0823160e01b81526001600160a01b03909116906370a0823190611116908690600401614227565b60206040518083038186803b15801561112e57600080fd5b505afa158015611142573d6000803e3d6000fd5b505050506040513d601f19601f820116820180604052508101906111669190613f84565b146111835760405162461bcd60e51b81526004016106fe9061448c565b600a54600c5460405163095ea7b360e01b81526001600160a01b039283169263095ea7b3926111b9929116908a9060040161427c565b602060405180830381600087803b1580156111d357600080fd5b505af11580156111e7573d6000803e3d6000fd5b505050506040513d601f19601f8201168201806040525081019061120b9190613f35565b6112275760405162461bcd60e51b81526004016106fe90614886565b600c54600a5460405163438b1b4b60e01b81526001600160a01b039283169263438b1b4b9261125f929116908a9033906004016142c0565b602060405180830381600087803b15801561127957600080fd5b505af115801561128d573d6000803e3d6000fd5b505050506040513d601f19601f820116820180604052508101906112b19190613f84565b979650505050505050565b6000546001600160a01b031681565b6107248484848433611b7c565b60006112e7868686868661258b565b9695505050505050565b6000805460408051630a7b61df60e11b8152905183926001600160a01b0316916314f6c3be916004808301926020929190829003018186803b15801561133657600080fd5b505afa15801561134a573d6000803e3d6000fd5b505050506040513d601f19601f8201168201806040525081019061136e9190613f84565b90506000600160009054906101000a90046001600160a01b03166001600160a01b03166314f6c3be6040518163ffffffff1660e01b815260040160206040518083038186803b158015610ff057600080fd5b6000806040516113cf9061420a565b6040519081900390205492915050565b6113ee878787878787876119b6565b50505050505050565b6003546001600160a01b031681565b60405180604001604052806012815260200171426f72726f7765724f7065726174696f6e7360701b81525081565b600b546001600160a01b031681565b6109a633600085600086866000611b6c565b600c546001600160a01b031681565b6107d53386868686868c611b6c565b600c546001600160a01b031690565b61148a612616565b6109a683600080600086866000611b6c565b6008546001600160a01b031681565b600a546001600160a01b031681565b6003546040805163f92d343360e01b815290516000926001600160a01b03169163f92d3433916004808301926020929190829003018186803b1580156114ff57600080fd5b505afa158015611513573d6000803e3d6000fd5b505050506040513d601f19601f820116820180604052508101906115379190613f84565b905090565b600454600054600a546001600160a01b039283169291821691166115608333612640565b60025460408051630fdb11cf60e01b815290516000926001600160a01b031691630fdb11cf91600480830192602092919082900301818787803b1580156115a657600080fd5b505af11580156115ba573d6000803e3d6000fd5b505050506040513d601f19601f820116820180604052508101906115de9190613f84565b90506115e9816126e1565b604051630b07655760e01b81526001600160a01b03851690630b07655790611615903390600401614227565b600060405180830381600087803b15801561162f57600080fd5b505af1158015611643573d6000803e3d6000fd5b50506040516309019aaf60e31b8152600092506001600160a01b038716915063480cd57890611676903390600401614227565b60206040518083038186803b15801561168e57600080fd5b505afa1580156116a2573d6000803e3d6000fd5b505050506040513d601f19601f820116820180604052508101906116c69190613f84565b90506000856001600160a01b031663d66a2553336040518263ffffffff1660e01b81526004016116f69190614227565b60206040518083038186803b15801561170e57600080fd5b505afa158015611722573d6000803e3d6000fd5b505050506040513d601f19601f820116820180604052508101906117469190613f84565b905061176b8433611766846801158e460913d0000063ffffffff61226d16565b612707565b600061177c8360008460008861258b565b9050611787816127a3565b604051631fc5750960e31b81526001600160a01b0388169063fe2ba848906117b3903390600401614227565b600060405180830381600087803b1580156117cd57600080fd5b505af11580156117e1573d6000803e3d6000fd5b50506040516365e89c5760e11b81526001600160a01b038a16925063cbd138ae9150611811903390600401614227565b600060405180830381600087803b15801561182b57600080fd5b505af115801561183f573d6000803e3d6000fd5b50505050336001600160a01b0316600080516020614c6a8339815191526000806000600160405161187394939291906142e3565b60405180910390a261189f86863361189a866801158e460913d0000063ffffffff61226d16565b612848565b6006546118c290879087906001600160a01b03166801158e460913d00000612848565b6040516364a197f360e01b81526001600160a01b038716906364a197f3906118f0903390879060040161427c565b600060405180830381600087803b15801561190a57600080fd5b505af115801561191e573d6000803e3d6000fd5b5050505050505050505050565b6001600160a01b0381166119515760405162461bcd60e51b81526004016106fe906144c3565b806001600160a01b03166119636113c0565b6001600160a01b03167f8be0079c531659141344cd1fd0a4f28419497f9722a3daafe3b4186f6b6457e060405160405180910390a360006040516119a69061420a565b6040519081900390209190915550565b600c546001600160a01b03166119de5760405162461bcd60e51b81526004016106fe90614c02565b831580156119ec5750600085115b15611a1257600c54600a54611a10916001600160a01b0390811691889116846122af565b505b611a223387878787878d30612902565b838015611a2f5750600085115b156113ee57600a54600c5460405163095ea7b360e01b81526001600160a01b039283169263095ea7b392611a6a92911690899060040161427c565b602060405180830381600087803b158015611a8457600080fd5b505af1158015611a98573d6000803e3d6000fd5b505050506040513d601f19601f82011682018060405250810190611abc9190613f35565b611ad85760405162461bcd60e51b81526004016106fe90614886565b600c54600a5460405163438b1b4b60e01b81526001600160a01b039283169263438b1b4b92611b1092911690899033906004016142c0565b602060405180830381600087803b158015611b2a57600080fd5b505af1158015611b3e573d6000803e3d6000fd5b505050506040513d601f19601f82011682018060405250810190611b629190613f84565b5050505050505050565b6113ee8787878787878733612902565b611b84613c1e565b50604080516060810182526004546001600160a01b03908116825260005481166020830152600a541691810191909152611bbc613c3e565b600260009054906101000a90046001600160a01b03166001600160a01b0316630fdb11cf6040518163ffffffff1660e01b8152600401602060405180830381600087803b158015611c0c57600080fd5b505af1158015611c20573d6000803e3d6000fd5b505050506040513d601f19601f82011682018060405250810190611c449190613f84565b808252600090611c5390612ee6565b9050611c5f8882612f81565b8251611c6b903361306d565b6040820187905280611cac57611c8b83600001518460400151898b61310f565b602083018190526040830151611ca69163ffffffff61255416565b60408301525b611cb982604001516132c8565b611cc682604001516121a7565b60608301819052611cd357fe5b611ce634836060015184600001516132f1565b60808301526060820151611cfb903490613324565b60a08301528015611d1857611d138260800151613359565b611d4b565b611d2582608001516133fe565b6000611d3e34600185606001516001876000015161258b565b9050611d49816127a3565b505b8251604051635d6b480f60e01b81526001600160a01b0390911690635d6b480f90611d7d90339060019060040161427c565b600060405180830381600087803b158015611d9757600080fd5b505af1158015611dab573d6000803e3d6000fd5b505084516040516372423c1760e01b81526001600160a01b0390911692506372423c179150611de0903390349060040161427c565b602060405180830381600087803b158015611dfa57600080fd5b505af1158015611e0e573d6000803e3d6000fd5b505050506040513d601f19601f82011682018060405250810190611e329190613f84565b5082516060830151604051639976cf4560e01b81526001600160a01b0390921691639976cf4591611e689133919060040161427c565b602060405180830381600087803b158015611e8257600080fd5b505af1158015611e96573d6000803e3d6000fd5b505050506040513d601f19601f82011682018060405250810190611eba9190613f84565b5082516040516382fe3eb960e01b81526001600160a01b03909116906382fe3eb990611eea903390600401614227565b600060405180830381600087803b158015611f0457600080fd5b505af1158015611f18573d6000803e3d6000fd5b50508451604051630c7940bd60e11b81526001600160a01b0390911692506318f2817a9150611f4b903390600401614227565b602060405180830381600087803b158015611f6557600080fd5b505af1158015611f79573d6000803e3d6000fd5b505050506040513d601f19601f82011682018060405250810190611f9d9190613f84565b60c0830152600b5460a08301516040516346f7cf8760e01b81526001600160a01b03909216916346f7cf8791611fdc913391908b908b90600401614295565b600060405180830381600087803b158015611ff657600080fd5b505af115801561200a573d6000803e3d6000fd5b505084516040516315d549f160e01b81526001600160a01b0390911692506315d549f1915061203d903390600401614227565b602060405180830381600087803b15801561205757600080fd5b505af115801561206b573d6000803e3d6000fd5b505050506040513d601f19601f8201168201806040525081019061208f9190613f84565b60e0830181905260405133917f59cfd0cd754bc5748b6770e94a4ffa5f678d885cb899dcfadc5734edb97c67ab916120c79190614c32565b60405180910390a26120dd8360200151346134a3565b6120f683602001518460400151868a866040015161351f565b602083015160408401516006546121229291906001600160a01b03166801158e460913d000008061351f565b606082015160c08301516040513392600080516020614c6a83398151915292612150923491906000906142e3565b60405180910390a2336001600160a01b03167f71457d8a5ab7e4561ed49d05338674b73ac3b83b0b315f165f5b12bcc002274183602001516040516121959190614c32565b60405180910390a25050505050505050565b6000610970826801158e460913d0000063ffffffff61255416565b60008060006121d58a8a8a8a8a8a6135e4565b9150915060006121e68383876132f1565b9b9a5050505050505050505050565b600080612220670de0b6b3a7640000612214858763ffffffff61365016565b9063ffffffff61368a16565b949350505050565b6001600160a01b03811661224e5760405162461bcd60e51b81526004016106fe90614605565b803b806109bd5760405162461bcd60e51b81526004016106fe906149a9565b6000610a3c83836040518060400160405280601e81526020017f536166654d6174683a207375627472616374696f6e206f766572666c6f7700008152506136cc565b600080856001600160a01b03166321df0da76040518163ffffffff1660e01b815260040160206040518083038186803b1580156122eb57600080fd5b505afa1580156122ff573d6000803e3d6000fd5b505050506040513d601f19601f820116820180604052508101906123239190613d3b565b90506000816001600160a01b03166370a08231306040518263ffffffff1660e01b81526004016123539190614227565b60206040518083038186803b15801561236b57600080fd5b505afa15801561237f573d6000803e3d6000fd5b505050506040513d601f19601f820116820180604052508101906123a39190613f84565b9050306001600160a01b03831663605629d633838a89356123ca60408c0160208d016141e6565b8b604001358c606001356040518863ffffffff1660e01b81526004016123f6979695949392919061423b565b600060405180830381600087803b15801561241057600080fd5b505af1158015612424573d6000803e3d6000fd5b50505050866124b583856001600160a01b03166370a08231856040518263ffffffff1660e01b81526004016124599190614227565b60206040518083038186803b15801561247157600080fd5b505afa158015612485573d6000803e3d6000fd5b505050506040513d601f19601f820116820180604052508101906124a99190613f84565b9063ffffffff61226d16565b146124d25760405162461bcd60e51b81526004016106fe9061440c565b60405163fb2c922360e01b81526001600160a01b0389169063fb2c9223906125029089908b9033906004016142c0565b602060405180830381600087803b15801561251c57600080fd5b505af1158015612530573d6000803e3d6000fd5b505050506040513d601f19601f820116820180604052508101906109899190613f84565b600082820183811015610a3c5760405162461bcd60e51b81526004016106fe90614455565b6107d58660008660018787878c612902565b6000806125966112f1565b905060006125a2610f22565b9050866125be576125b9828963ffffffff61226d16565b6125ce565b6125ce828963ffffffff61255416565b9150846125ea576125e5818763ffffffff61226d16565b6125fa565b6125fa818763ffffffff61255416565b905060006126098383876132f1565b9998505050505050505050565b6005546001600160a01b031633146106b55760405162461bcd60e51b81526004016106fe90614a47565b6040516321e3780160e01b81526000906001600160a01b038416906321e378019061266f908590600401614227565b60206040518083038186803b15801561268757600080fd5b505afa15801561269b573d6000803e3d6000fd5b505050506040513d601f19601f820116820180604052508101906126bf9190613f84565b9050806001146109a65760405162461bcd60e51b81526004016106fe906147aa565b6126ea81612ee6565b156107105760405162461bcd60e51b81526004016106fe90614555565b6040516370a0823160e01b815281906001600160a01b038516906370a0823190612735908690600401614227565b60206040518083038186803b15801561274d57600080fd5b505afa158015612761573d6000803e3d6000fd5b505050506040513d601f19601f820116820180604052508101906127859190613f84565b10156109a65760405162461bcd60e51b81526004016106fe90614362565b600360009054906101000a90046001600160a01b03166001600160a01b0316635733d58f6040518163ffffffff1660e01b815260040160206040518083038186803b1580156127f157600080fd5b505afa158015612805573d6000803e3d6000fd5b505050506040513d601f19601f820116820180604052508101906128299190613f84565b8110156107105760405162461bcd60e51b81526004016106fe9061473b565b60405163121cbc4d60e11b81526001600160a01b03851690632439789a90612874908490600401614c32565b600060405180830381600087803b15801561288e57600080fd5b505af11580156128a2573d6000803e3d6000fd5b5050604051632770a7eb60e21b81526001600160a01b0386169250639dc29fac91506128d4908590859060040161427c565b600060405180830381600087803b1580156128ee57600080fd5b505af1158015611b62573d6000803e3d6000fd5b61290a613c1e565b50604080516060810182526004546001600160a01b03908116825260005481166020830152600a541691810191909152612942613c83565b600260009054906101000a90046001600160a01b03166001600160a01b0316630fdb11cf6040518163ffffffff1660e01b8152600401602060405180830381600087803b15801561299257600080fd5b505af11580156129a6573d6000803e3d6000fd5b505050506040513d601f19601f820116820180604052508101906129ca9190613f84565b8082526129d690612ee6565b15156101c082015286156129fc576129f384826101c00151612f81565b6129fc886136f8565b612a0589613718565b612a0f898961373f565b8151612a1b908b612640565b336001600160a01b038b161480612a5157506005546001600160a01b031633148015612a475750600034115b8015612a51575087155b612a5757fe5b8151604051630b07655760e01b81526001600160a01b0390911690630b07655790612a86908d90600401614227565b600060405180830381600087803b158015612aa057600080fd5b505af1158015612ab4573d6000803e3d6000fd5b50505050612ac2348a613772565b15156060830152602082015260408101889052868015612ae55750806101c00151155b15612b2057612afe826000015183604001518a8761310f565b61012082018190526040820151612b1a9163ffffffff61255416565b60408201525b815160405163d66a255360e01b81526001600160a01b039091169063d66a255390612b4f908d90600401614227565b60206040518083038186803b158015612b6757600080fd5b505afa158015612b7b573d6000803e3d6000fd5b505050506040513d601f19601f82011682018060405250810190612b9f9190613f84565b608082015281516040516309019aaf60e31b81526001600160a01b039091169063480cd57890612bd3908d90600401614227565b60206040518083038186803b158015612beb57600080fd5b505afa158015612bff573d6000803e3d6000fd5b505050506040513d601f19601f82011682018060405250810190612c239190613f84565b60a0820181905260808201518251612c3c9291906132f1565b8160c0018181525050612c6c8160a0015182608001518360200151846060015185604001518c87600001516121c2565b60e082015260a0810151891115612c7f57fe5b612c90816101c001518a8984613791565b86158015612c9e5750600088115b15612ce557612cc0612cbb82604001516124a98460800151613805565b6132c8565b612cd281608001518260400151613820565b612ce582604001518b8360400151612707565b612d0382600001518b8360200151846060015185604001518c613858565b6101408301526101608201528151604051630c7940bd60e11b81526001600160a01b03909116906318f2817a90612d3e908d90600401614227565b602060405180830381600087803b158015612d5857600080fd5b505af1158015612d6c573d6000803e3d6000fd5b505050506040513d601f19601f82011682018060405250810190612d909190613f84565b81610180018181525050612dbc8160a0015182608001518360200151846060015185604001518c613a70565b6101a08201819052600b5460405163015f109360e51b81526001600160a01b0390911691632be2126091612df8918e918b908b90600401614295565b600060405180830381600087803b158015612e1257600080fd5b505af1158015612e26573d6000803e3d6000fd5b50505050896001600160a01b0316600080516020614c6a8339815191528261014001518361016001518461018001516002604051612e6794939291906142e3565b60405180910390a2336001600160a01b03167f71457d8a5ab7e4561ed49d05338674b73ac3b83b0b315f165f5b12bcc0022741826101200151604051612ead9190614c32565b60405180910390a2612eda8260200151836040015133846020015185606001518d8d88604001518b613aa1565b50505050505050505050565b600080612ef283613b45565b9050600360009054906101000a90046001600160a01b03166001600160a01b0316635733d58f6040518163ffffffff1660e01b815260040160206040518083038186803b158015612f4257600080fd5b505afa158015612f56573d6000803e3d6000fd5b505050506040513d601f19601f82011682018060405250810190612f7a9190613f84565b1192915050565b8015612fb457670de0b6b3a7640000821115612faf5760405162461bcd60e51b81526004016106fe9061463c565b6109bd565b600360009054906101000a90046001600160a01b03166001600160a01b031663f92d34336040518163ffffffff1660e01b815260040160206040518083038186803b15801561300257600080fd5b505afa158015613016573d6000803e3d6000fd5b505050506040513d601f19601f8201168201806040525081019061303a9190613f84565b82101580156130515750670de0b6b3a76400008211155b6109bd5760405162461bcd60e51b81526004016106fe90614a90565b6040516321e3780160e01b81526000906001600160a01b038416906321e378019061309c908590600401614227565b60206040518083038186803b1580156130b457600080fd5b505afa1580156130c8573d6000803e3d6000fd5b505050506040513d601f19601f820116820180604052508101906130ec9190613f84565b905080600114156109a65760405162461bcd60e51b81526004016106fe90614ae0565b6000846001600160a01b0316635dba4c4a6040518163ffffffff1660e01b8152600401600060405180830381600087803b15801561314c57600080fd5b505af1158015613160573d6000803e3d6000fd5b5050604051630631203b60e41b8152600092506001600160a01b038816915063631203b090613193908790600401614c32565b60206040518083038186803b1580156131ab57600080fd5b505afa1580156131bf573d6000803e3d6000fd5b505050506040513d601f19601f820116820180604052508101906131e39190613f84565b90506131f0818585613b69565b600d546040516340c10f1960e01b81526001600160a01b03878116926340c10f19926132249290911690859060040161427c565b600060405180830381600087803b15801561323e57600080fd5b505af1158015613252573d6000803e3d6000fd5b50505050600d60009054906101000a90046001600160a01b03166001600160a01b031663bb57ad206040518163ffffffff1660e01b8152600401600060405180830381600087803b1580156132a657600080fd5b505af11580156132ba573d6000803e3d6000fd5b509298975050505050505050565b6809c2007651b25000008110156107105760405162461bcd60e51b81526004016106fe9061494c565b6000821561331857600061330f84612214878663ffffffff61365016565b915061331d9050565b506000195b9392505050565b6000811561335057613349826122148568056bc75e2d6310000063ffffffff61365016565b9050610a3f565b50600019610a3f565b600360009054906101000a90046001600160a01b03166001600160a01b0316635733d58f6040518163ffffffff1660e01b815260040160206040518083038186803b1580156133a757600080fd5b505afa1580156133bb573d6000803e3d6000fd5b505050506040513d601f19601f820116820180604052508101906133df9190613f84565b8110156107105760405162461bcd60e51b81526004016106fe906145ae565b600360009054906101000a90046001600160a01b03166001600160a01b031663794e57246040518163ffffffff1660e01b815260040160206040518083038186803b15801561344c57600080fd5b505afa158015613460573d6000803e3d6000fd5b505050506040513d601f19601f820116820180604052508101906134849190613f84565b8110156107105760405162461bcd60e51b81526004016106fe906148dd565b6000826001600160a01b0316826040516134bc90614207565b60006040518083038185875af1925050503d80600081146134f9576040519150601f19603f3d011682016040523d82523d6000602084013e6134fe565b606091505b50509050806109a65760405162461bcd60e51b81526004016106fe906143bf565b60405163f2e91d7160e01b81526001600160a01b0386169063f2e91d719061354b908490600401614c32565b600060405180830381600087803b15801561356557600080fd5b505af1158015613579573d6000803e3d6000fd5b50506040516340c10f1960e01b81526001600160a01b03871692506340c10f1991506135ab908690869060040161427c565b600060405180830381600087803b1580156135c557600080fd5b505af11580156135d9573d6000803e3d6000fd5b505050505050505050565b600080878786613603576135fe8a8963ffffffff61226d16565b613613565b6136138a8963ffffffff61255416565b91508461362f5761362a898763ffffffff61226d16565b61363f565b61363f898763ffffffff61255416565b919a91995090975050505050505050565b60008261365f57506000610a3f565b8282028284828161366c57fe5b0414610a3c5760405162461bcd60e51b81526004016106fe906146fa565b6000610a3c83836040518060400160405280601a81526020017f536166654d6174683a206469766973696f6e206279207a65726f000000000000815250613ba9565b600081848411156136f05760405162461bcd60e51b81526004016106fe919061430f565b505050900390565b600081116107105760405162461bcd60e51b81526004016106fe90614b17565b341580613723575080155b6107105760405162461bcd60e51b81526004016106fe90614505565b3415158061374c57508115155b8061375657508015155b6109bd5760405162461bcd60e51b81526004016106fe9061468e565b60008083156137865750829050600161378a565b8291505b9250929050565b83156137ca576137a083613be0565b81156137c5576137b38160e00151613359565b6137c58160e001518260c00151613bfe565b610724565b6137d78160e001516133fe565b6137f481602001518260600151836040015185856000015161258b565b6101008201819052610724906127a3565b6000610970826801158e460913d0000063ffffffff61226d16565b613839826801158e460913d0000063ffffffff61226d16565b8111156109bd5760405162461bcd60e51b81526004016106fe906149de565b6000806000856138e75760405163d3d6f84360e01b81526001600160a01b038a169063d3d6f84390613890908b908b9060040161427c565b602060405180830381600087803b1580156138aa57600080fd5b505af11580156138be573d6000803e3d6000fd5b505050506040513d601f19601f820116820180604052508101906138e29190613f84565b613967565b6040516372423c1760e01b81526001600160a01b038a16906372423c1790613915908b908b9060040161427c565b602060405180830381600087803b15801561392f57600080fd5b505af1158015613943573d6000803e3d6000fd5b505050506040513d601f19601f820116820180604052508101906139679190613f84565b90506000846139f057604051630930874960e11b81526001600160a01b038b16906312610e929061399e908c908a9060040161427c565b602060405180830381600087803b1580156139b857600080fd5b505af11580156139cc573d6000803e3d6000fd5b505050506040513d601f19601f8201168201806040525081019061362a9190613f84565b604051639976cf4560e01b81526001600160a01b038b1690639976cf4590613a1e908c908a9060040161427c565b602060405180830381600087803b158015613a3857600080fd5b505af1158015613a4c573d6000803e3d6000fd5b505050506040513d601f19601f8201168201806040525081019061363f9190613f84565b6000806000613a838989898989896135e4565b915091506000613a938383613324565b9a9950505050505050505050565b8215613ab957613ab4898983878661351f565b613ac5565b613ac589898987612848565b8415613ada57613ad589876134a3565b6135d9565b6040516364a197f360e01b81526001600160a01b038a16906364a197f390613b08908a908a9060040161427c565b600060405180830381600087803b158015613b2257600080fd5b505af1158015613b36573d6000803e3d6000fd5b50505050505050505050505050565b600080613b506112f1565b90506000613b5c610f22565b90506122208282866132f1565b6000613b878361221486670de0b6b3a764000063ffffffff61365016565b9050818111156107245760405162461bcd60e51b81526004016106fe90614bcb565b60008183613bca5760405162461bcd60e51b81526004016106fe919061430f565b506000838581613bd657fe5b0495945050505050565b80156107105760405162461bcd60e51b81526004016106fe90614829565b808210156109bd5760405162461bcd60e51b81526004016106fe90614b6e565b604080516060810182526000808252602082018190529181019190915290565b60405180610100016040528060008152602001600081526020016000815260200160008152602001600081526020016000815260200160008152602001600081525090565b604051806101e00160405280600081526020016000815260200160008152602001600015158152602001600081526020016000815260200160008152602001600081526020016000815260200160008152602001600081526020016000815260200160008152602001600081526020016000151581525090565b8035610a3f81614c46565b600060808284031215613d19578081fd5b50919050565b600060208284031215613d30578081fd5b8135610a3c81614c46565b600060208284031215613d4c578081fd5b8151610a3c81614c46565b60008060408385031215613d69578081fd5b8235613d7481614c46565b91506020830135613d8481614c46565b809150509250929050565b600080600060608486031215613da3578081fd5b8335613dae81614c46565b92506020840135613dbe81614c46565b91506040840135613dce81614c46565b809150509250925092565b6000806000806000806000806000806000806101808d8f031215613dfb578788fd5b8c35613e0681614c46565b9b5060208d0135613e1681614c46565b9a5060408d0135613e2681614c46565b995060608d0135613e3681614c46565b985060808d0135613e4681614c46565b975060a08d0135613e5681614c46565b9650613e658e60c08f01613cfd565b9550613e748e60e08f01613cfd565b9450613e848e6101008f01613cfd565b9350613e948e6101208f01613cfd565b9250613ea48e6101408f01613cfd565b9150613eb48e6101608f01613cfd565b90509295989b509295989b509295989b565b60008060008060008060c08789031215613ede578182fd5b8635613ee981614c46565b955060208701359450604087013593506060870135613f0781614c5b565b92506080870135613f1781614c46565b915060a0870135613f2781614c46565b809150509295509295509295565b600060208284031215613f46578081fd5b8151610a3c81614c5b565b600060808284031215613f62578081fd5b610a3c8383613d08565b600060208284031215613f7d578081fd5b5035919050565b600060208284031215613f95578081fd5b5051919050565b600080600060608486031215613fb0578283fd5b833592506020840135613dbe81614c46565b60008060008060e08587031215613fd7578384fd5b843593506020850135613fe981614c46565b92506040850135613ff981614c46565b91506140088660608701613d08565b905092959194509250565b600080600080600060a0868803121561402a578283fd5b85359450602086013561403c81614c5b565b935060408601359250606086013561405381614c5b565b949793965091946080013592915050565b60008060408385031215614076578182fd5b50508035926020909101359150565b6000806000806080858703121561409a578182fd5b843593506020850135925060408501356140b381614c46565b915060608501356140c381614c46565b939692955090935050565b60008060008060008060c087890312156140e6578384fd5b8635955060208701359450604087013593506060870135613f0781614c5b565b6000806000806000806000610140888a031215614121578081fd5b873596506020880135955060408801359450606088013561414181614c5b565b9350608088013561415181614c46565b925060a088013561416181614c46565b91506141708960c08a01613d08565b905092959891949750929550565b600080600080600080600060e0888a031215614198578081fd5b87359650602088013595506040880135945060608801356141b881614c5b565b93506080880135925060a08801356141cf81614c5b565b8092505060c0880135905092959891949750929550565b6000602082840312156141f7578081fd5b813560ff81168114610a3c578182fd5b90565b7035b2bc9737bbb730b136329737bbb732b960791b815260110190565b6001600160a01b0391909116815260200190565b6001600160a01b0397881681529590961660208601526040850193909352606084019190915260ff16608083015260a082015260c081019190915260e00190565b6001600160a01b03929092168252602082015260400190565b6001600160a01b03948516815260208101939093529083166040830152909116606082015260800190565b6001600160a01b0393841681526020810192909252909116604082015260600190565b84815260208101849052604081018390526080810161430183614c3b565b606083015295945050505050565b6000602080835283518082850152825b8181101561433b5785810183015185820160400152820161431f565b8181111561434c5783604083870101525b50601f01601f1916929092016040019392505050565b6020808252603d908201527f426f72726f7765724f70733a2043616c6c657220646f65736e7420686176652060408201527f656e6f756768205a55534420746f206d616b652072657061796d656e74000000606082015260800190565b6020808252602d908201527f426f72726f7765724f70733a2053656e64696e672045544820746f204163746960408201526c1d99541bdbdb0819985a5b1959609a1b606082015260800190565b60208082526029908201527f444c4c52207472616e7366657272656420616d6f756e742076616c69646174696040820152681bdb8819985a5b195960ba1b606082015260800190565b6020808252601b908201527f536166654d6174683a206164646974696f6e206f766572666c6f770000000000604082015260600190565b6020808252601e908201527f5a555344206973206e6f7420626f72726f77656420636f72726563746c790000604082015260600190565b60208082526022908201527f4f776e61626c653a3a7365744f776e65723a20696e76616c6964206164647265604082015261737360f01b606082015260800190565b60208082526030908201527f426f72726f7765724f7065726174696f6e733a2043616e6e6f7420776974686460408201526f1c985dc8185b99081859190818dbdb1b60821b606082015260800190565b60208082526039908201527f426f72726f7765724f70733a204f7065726174696f6e206e6f74207065726d696040820152787474656420647572696e67205265636f76657279204d6f646560381b606082015260800190565b60208082526037908201527f426f72726f7765724f70733a204f7065726174696f6e206d757374206c65617660408201527632903a3937bb32903bb4ba341024a1a9101f1e9021a1a960491b606082015260800190565b6020808252601e908201527f4163636f756e742063616e6e6f74206265207a65726f20616464726573730000604082015260600190565b60208082526032908201527f4d6178206665652070657263656e74616765206d757374206c657373207468616040820152716e206f7220657175616c20746f203130302560701b606082015260800190565b60208082526046908201527f426f72726f7765724f70733a205468657265206d75737420626520656974686560408201527f72206120636f6c6c61746572616c206368616e6765206f7220612064656274206060820152656368616e676560d01b608082015260a00190565b60208082526021908201527f536166654d6174683a206d756c7469706c69636174696f6e206f766572666c6f6040820152607760f81b606082015260800190565b60208082526049908201527f426f72726f7765724f70733a20416e206f7065726174696f6e2074686174207760408201527f6f756c6420726573756c7420696e20544352203c20434352206973206e6f74206060820152681c195c9b5a5d1d195960ba1b608082015260a00190565b6020808252602e908201527f426f72726f7765724f70733a2054726f766520646f6573206e6f74206578697360408201526d1d081bdc881a5cc818db1bdcd95960921b606082015260800190565b60208082526017908201527613dddb98589b194e8e881858d8d95cdcc819195b9a5959604a1b604082015260600190565b6020808252603e908201527f426f72726f7765724f70733a20436f6c6c61746572616c20776974686472617760408201527f616c206e6f74207065726d6974746564205265636f76657279204d6f64650000606082015260800190565b60208082526037908201527f4661696c656420746f20617070726f7665205a55534420616d6f756e7420666f60408201527672204d796e74206d417373657420746f2072656465656d60481b606082015260800190565b60208082526049908201527f426f72726f7765724f70733a20416e206f7065726174696f6e2074686174207760408201527f6f756c6420726573756c7420696e20494352203c204d4352206973206e6f74206060820152681c195c9b5a5d1d195960ba1b608082015260a00190565b6020808252603a908201527f426f72726f7765724f70733a2054726f76652773206e65742064656274206d7560408201527f73742062652067726561746572207468616e206d696e696d756d000000000000606082015260800190565b6020808252818101527f4163636f756e7420636f64652073697a652063616e6e6f74206265207a65726f604082015260600190565b60208082526043908201527f426f72726f7765724f70733a20416d6f756e7420726570616964206d7573742060408201527f6e6f74206265206c6172676572207468616e207468652054726f76652773206460608201526219589d60ea1b608082015260a00190565b60208082526029908201527f426f72726f7765724f70733a2043616c6c6572206973206e6f742053746162696040820152681b1a5d1e48141bdbdb60ba1b606082015260800190565b60208082526030908201527f4d6178206665652070657263656e74616765206d75737420626520626574776560408201526f656e20302e352520616e64203130302560801b606082015260800190565b6020808252601c908201527f426f72726f7765724f70733a2054726f76652069732061637469766500000000604082015260600190565b60208082526037908201527f426f72726f7765724f70733a204465627420696e637265617365207265717569604082015276726573206e6f6e2d7a65726f20646562744368616e676560481b606082015260800190565b6020808252603e908201527f426f72726f7765724f70733a2043616e6e6f7420646563726561736520796f7560408201527f722054726f766527732049435220696e205265636f76657279204d6f64650000606082015260800190565b6020808252601d908201527f4665652065786365656465642070726f7669646564206d6178696d756d000000604082015260600190565b60208082526016908201527513585cdcd95d081859191c995cdcc81b9bdd081cd95d60521b604082015260600190565b90815260200190565b806003811061097357fe5b6001600160a01b038116811461071057600080fd5b801515811461071057600080fdfec3770d654ed33aeea6bf11ac8ef05d02a6a04ed4686dd2f624d853bbec43cc8ba26469706673582212205c5ffb23eadbeafd7ab3df3f840e0cf067a73b2d5014c5a54bc7acacce8677f564736f6c634300060b0033",
  "linkReferences": {},
  "deployedLinkReferences": {}
}