{
  "_format": "hh-sol-artifact-1",
  "contractName": "CommunityIssuanceStorage",
  "sourceName": "contracts/ZERO/CommunityIssuanceStorage.sol",
  "abi": [
    {
      "anonymous": false,
      "inputs": [
        {
          "indexed": true,
          "internalType": "address",
          "name": "previousOwner",
          "type": "address"
        },
        {
          "indexed": true,
          "internalType": "address",
          "name": "newOwner",
          "type": "address"
        }
      ],
      "name": "OwnershipTransferred",
      "type": "event"
    },
    {
      "inputs": [],
      "name": "ISSUANCE_FACTOR",
      "outputs": [
        {
          "internalType": "uint256",
          "name": "",
          "type": "uint256"
        }
      ],
      "stateMutability": "view",
      "type": "function"
    },
    {
      "inputs": [],
      "name": "NAME",
      "outputs": [
        {
          "internalType": "string",
          "name": "",
          "type": "string"
        }
      ],
      "stateMutability": "view",
      "type": "function"
    },
    {
      "inputs": [],
      "name": "SECONDS_IN_ONE_MINUTE",
      "outputs": [
        {
          "internalType": "uint256",
          "name": "",
          "type": "uint256"
        }
      ],
      "stateMutability": "view",
      "type": "function"
    },
    {
      "inputs": [],
      "name": "ZEROSupplyCap",
      "outputs": [
        {
          "internalType": "uint256",
          "name": "",
          "type": "uint256"
        }
      ],
      "stateMutability": "view",
      "type": "function"
    },
    {
      "inputs": [],
      "name": "communityPotAddress",
      "outputs": [
        {
          "internalType": "address",
          "name": "",
          "type": "address"
        }
      ],
      "stateMutability": "view",
      "type": "function"
    },
    {
      "inputs": [],
      "name": "deploymentTime",
      "outputs": [
        {
          "internalType": "uint256",
          "name": "",
          "type": "uint256"
        }
      ],
      "stateMutability": "view",
      "type": "function"
    },
    {
      "inputs": [],
      "name": "fundingWalletAddress",
      "outputs": [
        {
          "internalType": "address",
          "name": "",
          "type": "address"
        }
      ],
      "stateMutability": "view",
      "type": "function"
    },
    {
      "inputs": [],
      "name": "getOwner",
      "outputs": [
        {
          "internalType": "address",
          "name": "_owner",
          "type": "address"
        }
      ],
      "stateMutability": "view",
      "type": "function"
    },
    {
      "inputs": [
        {
          "internalType": "address",
          "name": "_owner",
          "type": "address"
        }
      ],
      "name": "setOwner",
      "outputs": [],
      "stateMutability": "nonpayable",
      "type": "function"
    },
    {
      "inputs": [],
      "name": "totalZEROIssued",
      "outputs": [
        {
          "internalType": "uint256",
          "name": "",
          "type": "uint256"
        }
      ],
      "stateMutability": "view",
      "type": "function"
    },
    {
      "inputs": [],
      "name": "zeroToken",
      "outputs": [
        {
          "internalType": "contract IZEROToken",
          "name": "",
          "type": "address"
        }
      ],
      "stateMutability": "view",
      "type": "function"
    }
  ],
  "bytecode": "0x60806040526000805534801561001457600080fd5b50610027336001600160e01b0361002c16565b610114565b6001600160a01b0381166100715760405162461bcd60e51b81526004018080602001828103825260228152602001806105136022913960400191505060405180910390fd5b6001600160a01b03811661008c6001600160e01b036100ea16565b6001600160a01b03167f8be0079c531659141344cd1fd0a4f28419497f9722a3daafe3b4186f6b6457e060405160405180910390a3604080517035b2bc9737bbb730b136329737bbb732b960791b8152905190819003601101902055565b604080517035b2bc9737bbb730b136329737bbb732b960791b815290519081900360110190205490565b6103f0806101236000396000f3fe608060405234801561001057600080fd5b50600436106100a95760003560e01c8063893d20e811610071578063893d20e8146101245780639ce21f3c1461012c5780639d4101b714610134578063a3f4df7e1461013c578063ecda10f5146101b9578063f294bd92146101c1576100a9565b80630fc83da3146100ae57806313af4035146100c85780631a5a934a146100f057806321492b2a1461011457806361ec893d1461011c575b600080fd5b6100b66101c9565b60408051918252519081900360200190f35b6100ee600480360360208110156100de57600080fd5b50356001600160a01b03166101d5565b005b6100f8610248565b604080516001600160a01b039092168252519081900360200190f35b6100b6610257565b6100b661025d565b6100f8610262565b6100f861028c565b6100b661029b565b6101446102a1565b6040805160208082528351818301528351919283929083019185019080838360005b8381101561017e578181015183820152602001610166565b50505050905090810190601f1680156101ab5780820380516001836020036101000a031916815260200191505b509250505060405180910390f35b6100b66102ce565b6100f86102d4565b670de0b5809a6f939881565b6101dd610262565b6001600160a01b0316336001600160a01b03161461023c576040805162461bcd60e51b815260206004820152601760248201527613dddb98589b194e8e881858d8d95cdcc819195b9a5959604a1b604482015290519081900360640190fd5b610245816102e3565b50565b6002546001600160a01b031681565b60005481565b603c81565b604080517035b2bc9737bbb730b136329737bbb732b960791b815290519081900360110190205490565b6003546001600160a01b031681565b60045481565b60405180604001604052806011815260200170436f6d6d756e69747949737375616e636560781b81525081565b60055481565b6001546001600160a01b031681565b6001600160a01b0381166103285760405162461bcd60e51b81526004018080602001828103825260228152602001806103996022913960400191505060405180910390fd5b806001600160a01b031661033a610262565b6001600160a01b03167f8be0079c531659141344cd1fd0a4f28419497f9722a3daafe3b4186f6b6457e060405160405180910390a3604080517035b2bc9737bbb730b136329737bbb732b960791b815290519081900360110190205556fe4f776e61626c653a3a7365744f776e65723a20696e76616c69642061646472657373a2646970667358221220145f4530038a1bdf7290e7c42c49a44c740da232431f4c70d900af70ffb28d6b64736f6c634300060b00334f776e61626c653a3a7365744f776e65723a20696e76616c69642061646472657373",
  "linkReferences": {},
  "deployedLinkReferences": {}
}