{
  "_format": "hh-sol-artifact-1",
  "contractName": "CommunityIssuanceTester",
  "sourceName": "contracts/TestContracts/CommunityIssuanceTester.sol",
  "abi": [
    {
      "anonymous": false,
      "inputs": [
        {
          "indexed": false,
          "internalType": "address",
          "name": "_communityPotAddress",
          "type": "address"
        }
      ],
      "name": "CommunityPotAddressSet",
      "type": "event"
    },
    {
      "anonymous": false,
      "inputs": [
        {
          "indexed": false,
          "internalType": "address",
          "name": "_zeroTokenAddress",
          "type": "address"
        }
      ],
      "name": "FundingWalletAddressSet",
      "type": "event"
    },
    {
      "anonymous": false,
      "inputs": [
        {
          "indexed": true,
          "internalType": "address",
          "name": "previousOwner",
          "type": "address"
        },
        {
          "indexed": true,
          "internalType": "address",
          "name": "newOwner",
          "type": "address"
        }
      ],
      "name": "OwnershipTransferred",
      "type": "event"
    },
    {
      "anonymous": false,
      "inputs": [
        {
          "indexed": false,
          "internalType": "uint256",
          "name": "_fundingWalletAddress",
          "type": "uint256"
        }
      ],
      "name": "TotalZEROIssuedUpdated",
      "type": "event"
    },
    {
      "anonymous": false,
      "inputs": [
        {
          "indexed": false,
          "internalType": "address",
          "name": "_zeroTokenAddress",
          "type": "address"
        }
      ],
      "name": "ZEROTokenAddressSet",
      "type": "event"
    },
    {
      "inputs": [],
      "name": "DECIMAL_PRECISION",
      "outputs": [
        {
          "internalType": "uint256",
          "name": "",
          "type": "uint256"
        }
      ],
      "stateMutability": "view",
      "type": "function"
    },
    {
      "inputs": [],
      "name": "ISSUANCE_FACTOR",
      "outputs": [
        {
          "internalType": "uint256",
          "name": "",
          "type": "uint256"
        }
      ],
      "stateMutability": "view",
      "type": "function"
    },
    {
      "inputs": [],
      "name": "NAME",
      "outputs": [
        {
          "internalType": "string",
          "name": "",
          "type": "string"
        }
      ],
      "stateMutability": "view",
      "type": "function"
    },
    {
      "inputs": [],
      "name": "SECONDS_IN_ONE_MINUTE",
      "outputs": [
        {
          "internalType": "uint256",
          "name": "",
          "type": "uint256"
        }
      ],
      "stateMutability": "view",
      "type": "function"
    },
    {
      "inputs": [],
      "name": "ZEROSupplyCap",
      "outputs": [
        {
          "internalType": "uint256",
          "name": "",
          "type": "uint256"
        }
      ],
      "stateMutability": "view",
      "type": "function"
    },
    {
      "inputs": [],
      "name": "communityPotAddress",
      "outputs": [
        {
          "internalType": "address",
          "name": "",
          "type": "address"
        }
      ],
      "stateMutability": "view",
      "type": "function"
    },
    {
      "inputs": [],
      "name": "deploymentTime",
      "outputs": [
        {
          "internalType": "uint256",
          "name": "",
          "type": "uint256"
        }
      ],
      "stateMutability": "view",
      "type": "function"
    },
    {
      "inputs": [],
      "name": "fundingWalletAddress",
      "outputs": [
        {
          "internalType": "address",
          "name": "",
          "type": "address"
        }
      ],
      "stateMutability": "view",
      "type": "function"
    },
    {
      "inputs": [],
      "name": "getCumulativeIssuanceFraction",
      "outputs": [
        {
          "internalType": "uint256",
          "name": "",
          "type": "uint256"
        }
      ],
      "stateMutability": "view",
      "type": "function"
    },
    {
      "inputs": [],
      "name": "getOwner",
      "outputs": [
        {
          "internalType": "address",
          "name": "_owner",
          "type": "address"
        }
      ],
      "stateMutability": "view",
      "type": "function"
    },
    {
      "inputs": [
        {
          "internalType": "address",
          "name": "_zeroTokenAddress",
          "type": "address"
        },
        {
          "internalType": "address",
          "name": "_communityPotAddress",
          "type": "address"
        },
        {
          "internalType": "address",
          "name": "_fundingWalletAddress",
          "type": "address"
        }
      ],
      "name": "initialize",
      "outputs": [],
      "stateMutability": "nonpayable",
      "type": "function"
    },
    {
      "inputs": [],
      "name": "issueZERO",
      "outputs": [
        {
          "internalType": "uint256",
          "name": "",
          "type": "uint256"
        }
      ],
      "stateMutability": "nonpayable",
      "type": "function"
    },
    {
      "inputs": [
        {
          "internalType": "uint256",
          "name": "_amount",
          "type": "uint256"
        }
      ],
      "name": "obtainZERO",
      "outputs": [],
      "stateMutability": "nonpayable",
      "type": "function"
    },
    {
      "inputs": [
        {
          "internalType": "address",
          "name": "_account",
          "type": "address"
        },
        {
          "internalType": "uint256",
          "name": "_ZEROamount",
          "type": "uint256"
        }
      ],
      "name": "receiveZero",
      "outputs": [],
      "stateMutability": "nonpayable",
      "type": "function"
    },
    {
      "inputs": [
        {
          "internalType": "address",
          "name": "_account",
          "type": "address"
        },
        {
          "internalType": "uint256",
          "name": "_ZEROamount",
          "type": "uint256"
        }
      ],
      "name": "sendZERO",
      "outputs": [],
      "stateMutability": "nonpayable",
      "type": "function"
    },
    {
      "inputs": [
        {
          "internalType": "address",
          "name": "_owner",
          "type": "address"
        }
      ],
      "name": "setOwner",
      "outputs": [],
      "stateMutability": "nonpayable",
      "type": "function"
    },
    {
      "inputs": [],
      "name": "totalZEROIssued",
      "outputs": [
        {
          "internalType": "uint256",
          "name": "",
          "type": "uint256"
        }
      ],
      "stateMutability": "view",
      "type": "function"
    },
    {
      "inputs": [],
      "name": "unprotectedIssueZERO",
      "outputs": [
        {
          "internalType": "uint256",
          "name": "",
          "type": "uint256"
        }
      ],
      "stateMutability": "nonpayable",
      "type": "function"
    },
    {
      "inputs": [],
      "name": "zeroToken",
      "outputs": [
        {
          "internalType": "contract IZEROToken",
          "name": "",
          "type": "address"
        }
      ],
      "stateMutability": "view",
      "type": "function"
    }
  ],
  "bytecode": "0x60806040526000805534801561001457600080fd5b50610027336001600160e01b0361002c16565b610114565b6001600160a01b0381166100715760405162461bcd60e51b81526004018080602001828103825260228152602001806110326022913960400191505060405180910390fd5b6001600160a01b03811661008c6001600160e01b036100ea16565b6001600160a01b03167f8be0079c531659141344cd1fd0a4f28419497f9722a3daafe3b4186f6b6457e060405160405180910390a3604080517035b2bc9737bbb730b136329737bbb732b960791b8152905190819003601101902055565b604080517035b2bc9737bbb730b136329737bbb732b960791b815290519081900360110190205490565b610f0f806101236000396000f3fe608060405234801561001057600080fd5b50600436106101115760003560e01c80639ce21f3c116100ad578063c0c53b8b11610071578063c0c53b8b14610282578063e59be586146102ba578063ecda10f5146102c2578063f1bd258b146102ca578063f294bd92146102f657610111565b80639ce21f3c146101e55780639d4101b7146101ed5780639d5b044d146101f5578063a20baee6146101fd578063a3f4df7e1461020557610111565b80630fc83da31461011657806313af4035146101305780631a5a934a1461015857806321492b2a1461017c57806337362c181461018457806353846aad146101b057806361ec893d146101cd578063650fa257146101d5578063893d20e8146101dd575b600080fd5b61011e6102fe565b60408051918252519081900360200190f35b6101566004803603602081101561014657600080fd5b50356001600160a01b031661030a565b005b61016061037d565b604080516001600160a01b039092168252519081900360200190f35b61011e61038c565b6101566004803603604081101561019a57600080fd5b506001600160a01b038135169060200135610392565b610156600480360360208110156101c657600080fd5b503561046e565b61011e6104ec565b61011e6104f1565b61016061054b565b610160610575565b61011e610584565b61011e61058a565b61011e610599565b61020d6105a5565b6040805160208082528351818301528351919283929083019185019080838360005b8381101561024757818101518382015260200161022f565b50505050905090810190601f1680156102745780820380516001836020036101000a031916815260200191505b509250505060405180910390f35b6101566004803603606081101561029857600080fd5b506001600160a01b0381358116916020810135821691604090910135166105d2565b61011e6106f9565b61011e610777565b610156600480360360408110156102e057600080fd5b506001600160a01b03813516906020013561077d565b6101606108f3565b670de0b5809a6f939881565b61031261054b565b6001600160a01b0316336001600160a01b031614610371576040805162461bcd60e51b815260206004820152601760248201527613dddb98589b194e8e881858d8d95cdcc819195b9a5959604a1b604482015290519081900360640190fd5b61037a81610902565b50565b6002546001600160a01b031681565b60005481565b61039a6109b7565b6001546040805163a9059cbb60e01b81526001600160a01b038581166004830152602482018590529151600093929092169163a9059cbb9160448082019260209290919082900301818787803b1580156103f357600080fd5b505af1158015610407573d6000803e3d6000fd5b505050506040513d602081101561041d57600080fd5b5051905080610469576040805162461bcd60e51b81526020600482015260136024820152724661696c656420746f2073656e64205a45524f60681b604482015290519081900360640190fd5b505050565b6001546040805163a9059cbb60e01b81523360048201526024810184905290516001600160a01b039092169163a9059cbb916044808201926020929091908290030181600087803b1580156104c257600080fd5b505af11580156104d6573d6000803e3d6000fd5b505050506040513d602081101561046957600080fd5b603c81565b600080610526670de0b6b3a764000061051a61050b610a02565b6000549063ffffffff610a6c16565b9063ffffffff610ace16565b9050600061053f60045483610b1090919063ffffffff16565b60049290925550905090565b604080517035b2bc9737bbb730b136329737bbb732b960791b815290519081900360110190205490565b6003546001600160a01b031681565b60045481565b6000610594610a02565b905090565b670de0b6b3a764000081565b60405180604001604052806011815260200170436f6d6d756e69747949737375616e636560781b81525081565b6105da61054b565b6001600160a01b0316336001600160a01b031614610639576040805162461bcd60e51b815260206004820152601760248201527613dddb98589b194e8e881858d8d95cdcc819195b9a5959604a1b604482015290519081900360640190fd5b61064283610b52565b61064b82610b52565b600180546001600160a01b038086166001600160a01b0319928316811790935560028054868316908416179055600380549185169190921617905560408051918252517f7eeded1a6761a0ca57ff60155bdd3e94fbfe5d9e8dc5013b3aa195b8d9e851ea9181900360200190a1604080516001600160a01b038416815290517f47ebfdc80bf05a81c1216176fd90779f8f67326c8d82eb50b3bce67473f188ce9181900360200190a1505050565b60006107036109b7565b600061071c670de0b6b3a764000061051a61050b610a02565b9050600061073560045483610b1090919063ffffffff16565b60048390556040805184815290519192507f0e4f366add234067215e649a6bccebac27241d6488de286967c468de64f62614919081900360200190a191505090565b60055481565b6003546001600160a01b038381169116146107c95760405162461bcd60e51b8152600401808060200182810382526028815260200180610e6e6028913960400191505060405180910390fd5b6000541561081e576040805162461bcd60e51b815260206004820152601c60248201527f436f6d6d756e69747920706f7420616c72656164792066756e64656400000000604482015290519081900360640190fd5b600154604080516323b872dd60e01b81526001600160a01b03858116600483015230602483015260448201859052915191909216916323b872dd9160648083019260209291908290030181600087803b15801561087a57600080fd5b505af115801561088e573d6000803e3d6000fd5b505050506040513d60208110156108a457600080fd5b50516108e9576040805162461bcd60e51b815260206004820152600f60248201526e151c985b9cd9995c8819985a5b1959608a1b604482015290519081900360640190fd5b6000555042600555565b6001546001600160a01b031681565b6001600160a01b0381166109475760405162461bcd60e51b8152600401808060200182810382526022815260200180610e4c6022913960400191505060405180910390fd5b806001600160a01b031661095961054b565b6001600160a01b03167f8be0079c531659141344cd1fd0a4f28419497f9722a3daafe3b4186f6b6457e060405160405180910390a3604080517035b2bc9737bbb730b136329737bbb732b960791b8152905190819003601101902055565b6002546001600160a01b03163314610a005760405162461bcd60e51b8152600401808060200182810382526023815260200180610eb76023913960400191505060405180910390fd5b565b600080610a1f603c61051a60055442610b1090919063ffffffff16565b90506000610a35670de0b5809a6f939883610c05565b90506000610a51670de0b6b3a76400008363ffffffff610b1016565b9050670de0b6b3a7640000811115610a6557fe5b9250505090565b600082610a7b57506000610ac8565b82820282848281610a8857fe5b0414610ac55760405162461bcd60e51b8152600401808060200182810382526021815260200180610e966021913960400191505060405180910390fd5b90505b92915050565b6000610ac583836040518060400160405280601a81526020017f536166654d6174683a206469766973696f6e206279207a65726f000000000000815250610cba565b6000610ac583836040518060400160405280601e81526020017f536166654d6174683a207375627472616374696f6e206f766572666c6f770000815250610d5c565b6001600160a01b038116610bad576040805162461bcd60e51b815260206004820152601e60248201527f4163636f756e742063616e6e6f74206265207a65726f20616464726573730000604482015290519081900360640190fd5b803b80610c01576040805162461bcd60e51b815260206004820181905260248201527f4163636f756e7420636f64652073697a652063616e6e6f74206265207a65726f604482015290519081900360640190fd5b5050565b6000631f540500821115610c1b57631f54050091505b81610c2f5750670de0b6b3a7640000610ac8565b670de0b6b3a764000083835b6001811115610ca65760028106610c7057610c568283610db6565b9150610c6981600263ffffffff610ace16565b9050610ca1565b610c7a8284610db6565b9250610c868283610db6565b9150610c9e600261051a83600163ffffffff610b1016565b90505b610c3b565b610cb08284610db6565b9695505050505050565b60008183610d465760405162461bcd60e51b81526004018080602001828103825283818151815260200191508051906020019080838360005b83811015610d0b578181015183820152602001610cf3565b50505050905090810190601f168015610d385780820380516001836020036101000a031916815260200191505b509250505060405180910390fd5b506000838581610d5257fe5b0495945050505050565b60008184841115610dae5760405162461bcd60e51b8152602060048201818152835160248401528351909283926044909101919085019080838360008315610d0b578181015183820152602001610cf3565b505050900390565b600080610dc9848463ffffffff610a6c16565b9050610de9670de0b6b3a764000061051a836706f05b59d3b20000610df1565b949350505050565b600082820183811015610ac5576040805162461bcd60e51b815260206004820152601b60248201527f536166654d6174683a206164646974696f6e206f766572666c6f770000000000604482015290519081900360640190fdfe4f776e61626c653a3a7365744f776e65723a20696e76616c696420616464726573734f6e6c79207468652066756e64696e672077616c6c65742063616e206465706f736974205a45524f536166654d6174683a206d756c7469706c69636174696f6e206f766572666c6f77436f6d6d756e69747949737375616e63653a2063616c6c6572206973206e6f74205350a2646970667358221220462af32e2126f560ce04aac98eded710257b57beb402261936cce76cb828702864736f6c634300060b00334f776e61626c653a3a7365744f776e65723a20696e76616c69642061646472657373",
  "linkReferences": {},
  "deployedLinkReferences": {}
}