{
  "_format": "hh-sol-artifact-1",
  "contractName": "DefaultPoolTester",
  "sourceName": "contracts/TestContracts/DefaultPoolTester.sol",
  "abi": [
    {
      "anonymous": false,
      "inputs": [
        {
          "indexed": false,
          "internalType": "address",
          "name": "_newActivePoolAddress",
          "type": "address"
        }
      ],
      "name": "ActivePoolAddressChanged",
      "type": "event"
    },
    {
      "anonymous": false,
      "inputs": [
        {
          "indexed": false,
          "internalType": "address",
          "name": "_newDefaultPoolAddress",
          "type": "address"
        }
      ],
      "name": "DefaultPoolAddressChanged",
      "type": "event"
    },
    {
      "anonymous": false,
      "inputs": [
        {
          "indexed": false,
          "internalType": "uint256",
          "name": "_ETH",
          "type": "uint256"
        }
      ],
      "name": "DefaultPoolETHBalanceUpdated",
      "type": "event"
    },
    {
      "anonymous": false,
      "inputs": [
        {
          "indexed": false,
          "internalType": "uint256",
          "name": "_ZUSDDebt",
          "type": "uint256"
        }
      ],
      "name": "DefaultPoolZUSDDebtUpdated",
      "type": "event"
    },
    {
      "anonymous": false,
      "inputs": [
        {
          "indexed": false,
          "internalType": "uint256",
          "name": "_newBalance",
          "type": "uint256"
        }
      ],
      "name": "ETHBalanceUpdated",
      "type": "event"
    },
    {
      "anonymous": false,
      "inputs": [
        {
          "indexed": false,
          "internalType": "address",
          "name": "_to",
          "type": "address"
        },
        {
          "indexed": false,
          "internalType": "uint256",
          "name": "_amount",
          "type": "uint256"
        }
      ],
      "name": "EtherSent",
      "type": "event"
    },
    {
      "anonymous": false,
      "inputs": [
        {
          "indexed": true,
          "internalType": "address",
          "name": "previousOwner",
          "type": "address"
        },
        {
          "indexed": true,
          "internalType": "address",
          "name": "newOwner",
          "type": "address"
        }
      ],
      "name": "OwnershipTransferred",
      "type": "event"
    },
    {
      "anonymous": false,
      "inputs": [
        {
          "indexed": false,
          "internalType": "address",
          "name": "_newStabilityPoolAddress",
          "type": "address"
        }
      ],
      "name": "StabilityPoolAddressChanged",
      "type": "event"
    },
    {
      "anonymous": false,
      "inputs": [
        {
          "indexed": false,
          "internalType": "address",
          "name": "_newTroveManagerAddress",
          "type": "address"
        }
      ],
      "name": "TroveManagerAddressChanged",
      "type": "event"
    },
    {
      "anonymous": false,
      "inputs": [
        {
          "indexed": false,
          "internalType": "uint256",
          "name": "_newBalance",
          "type": "uint256"
        }
      ],
      "name": "ZUSDBalanceUpdated",
      "type": "event"
    },
    {
      "inputs": [],
      "name": "NAME",
      "outputs": [
        {
          "internalType": "string",
          "name": "",
          "type": "string"
        }
      ],
      "stateMutability": "view",
      "type": "function"
    },
    {
      "inputs": [],
      "name": "activePoolAddress",
      "outputs": [
        {
          "internalType": "address",
          "name": "",
          "type": "address"
        }
      ],
      "stateMutability": "view",
      "type": "function"
    },
    {
      "inputs": [
        {
          "internalType": "uint256",
          "name": "_amount",
          "type": "uint256"
        }
      ],
      "name": "decreaseZUSDDebt",
      "outputs": [],
      "stateMutability": "nonpayable",
      "type": "function"
    },
    {
      "inputs": [],
      "name": "getETH",
      "outputs": [
        {
          "internalType": "uint256",
          "name": "",
          "type": "uint256"
        }
      ],
      "stateMutability": "view",
      "type": "function"
    },
    {
      "inputs": [],
      "name": "getOwner",
      "outputs": [
        {
          "internalType": "address",
          "name": "_owner",
          "type": "address"
        }
      ],
      "stateMutability": "view",
      "type": "function"
    },
    {
      "inputs": [],
      "name": "getZUSDDebt",
      "outputs": [
        {
          "internalType": "uint256",
          "name": "",
          "type": "uint256"
        }
      ],
      "stateMutability": "view",
      "type": "function"
    },
    {
      "inputs": [
        {
          "internalType": "uint256",
          "name": "_amount",
          "type": "uint256"
        }
      ],
      "name": "increaseZUSDDebt",
      "outputs": [],
      "stateMutability": "nonpayable",
      "type": "function"
    },
    {
      "inputs": [
        {
          "internalType": "uint256",
          "name": "_amount",
          "type": "uint256"
        }
      ],
      "name": "sendETHToActivePool",
      "outputs": [],
      "stateMutability": "nonpayable",
      "type": "function"
    },
    {
      "inputs": [
        {
          "internalType": "address",
          "name": "_troveManagerAddress",
          "type": "address"
        },
        {
          "internalType": "address",
          "name": "_activePoolAddress",
          "type": "address"
        }
      ],
      "name": "setAddresses",
      "outputs": [],
      "stateMutability": "nonpayable",
      "type": "function"
    },
    {
      "inputs": [
        {
          "internalType": "address",
          "name": "_owner",
          "type": "address"
        }
      ],
      "name": "setOwner",
      "outputs": [],
      "stateMutability": "nonpayable",
      "type": "function"
    },
    {
      "inputs": [],
      "name": "troveManagerAddress",
      "outputs": [
        {
          "internalType": "address",
          "name": "",
          "type": "address"
        }
      ],
      "stateMutability": "view",
      "type": "function"
    },
    {
      "inputs": [
        {
          "internalType": "uint256",
          "name": "_amount",
          "type": "uint256"
        }
      ],
      "name": "unprotectedIncreaseZUSDDebt",
      "outputs": [],
      "stateMutability": "nonpayable",
      "type": "function"
    },
    {
      "inputs": [],
      "name": "unprotectedPayable",
      "outputs": [],
      "stateMutability": "payable",
      "type": "function"
    },
    {
      "stateMutability": "payable",
      "type": "receive"
    }
  ],
  "bytecode": "0x608060405234801561001057600080fd5b50610023336001600160e01b0361002816565b610110565b6001600160a01b03811661006d5760405162461bcd60e51b8152600401808060200182810382526022815260200180610c4e6022913960400191505060405180910390fd5b6001600160a01b0381166100886001600160e01b036100e616565b6001600160a01b03167f8be0079c531659141344cd1fd0a4f28419497f9722a3daafe3b4186f6b6457e060405160405180910390a3604080517035b2bc9737bbb730b136329737bbb732b960791b8152905190819003601101902055565b604080517035b2bc9737bbb730b136329737bbb732b960791b815290519081900360110190205490565b610b2f8061011f6000396000f3fe6080604052600436106100b65760003560e01c806390107afe1161006f57806390107afe146101f557806393eaa71414610230578063a3f4df7e1461025a578063b08bc722146102e4578063be41205f146102f9578063f2e91d7114610323578063f3af7c3b1461034d5761010f565b806313af40351461011457806314f6c3be146101495780632439789a146101705780633963e9801461019a5780635a4d28bb146101af578063893d20e8146101e05761010f565b3661010f576100c3610355565b6002546100d6903463ffffffff6103a016565b600281905560408051918252517f9a14ae677a60400af9176bed2e2d5ce8dfa6405e6c1702debb27668f567214289181900360200190a1005b600080fd5b34801561012057600080fd5b506101476004803603602081101561013757600080fd5b50356001600160a01b0316610401565b005b34801561015557600080fd5b5061015e610474565b60408051918252519081900360200190f35b34801561017c57600080fd5b506101476004803603602081101561019357600080fd5b503561047a565b3480156101a657600080fd5b5061015e6104cf565b3480156101bb57600080fd5b506101c46104d5565b604080516001600160a01b039092168252519081900360200190f35b3480156101ec57600080fd5b506101c46104e4565b34801561020157600080fd5b506101476004803603604081101561021857600080fd5b506001600160a01b038135811691602001351661050e565b34801561023c57600080fd5b506101476004803603602081101561025357600080fd5b5035610627565b34801561026657600080fd5b5061026f610640565b6040805160208082528351818301528351919283929083019185019080838360005b838110156102a9578181015183820152602001610291565b50505050905090810190601f1680156102d65780820380516001836020036101000a031916815260200191505b509250505060405180910390f35b3480156102f057600080fd5b506101c4610667565b34801561030557600080fd5b506101476004803603602081101561031c57600080fd5b5035610676565b34801561032f57600080fd5b506101476004803603602081101561034657600080fd5b50356107c6565b6101476107e1565b6001546001600160a01b0316331461039e5760405162461bcd60e51b8152600401808060200182810382526029815260200180610a846029913960400191505060405180910390fd5b565b6000828201838110156103fa576040805162461bcd60e51b815260206004820152601b60248201527f536166654d6174683a206164646974696f6e206f766572666c6f770000000000604482015290519081900360640190fd5b9392505050565b6104096104e4565b6001600160a01b0316336001600160a01b031614610468576040805162461bcd60e51b815260206004820152601760248201527613dddb98589b194e8e881858d8d95cdcc819195b9a5959604a1b604482015290519081900360640190fd5b610471816107f9565b50565b60025490565b6104826108ae565b600354610495908263ffffffff6108f716565b600381905560408051918252517f636083bfd8929ae461979d51af53349434cd5ee35f983909b704bded4142b9519181900360200190a150565b60035490565b6000546001600160a01b031681565b604080517035b2bc9737bbb730b136329737bbb732b960791b815290519081900360110190205490565b6105166104e4565b6001600160a01b0316336001600160a01b031614610575576040805162461bcd60e51b815260206004820152601760248201527613dddb98589b194e8e881858d8d95cdcc819195b9a5959604a1b604482015290519081900360640190fd5b61057e82610939565b61058781610939565b600080546001600160a01b038085166001600160a01b03199283168117909355600180549185169190921617905560408051918252517f143219c9e69b09e07e095fcc889b43d8f46ca892bba65f08dc3a0050869a56789181900360200190a1604080516001600160a01b038316815290517f78f058b189175430c48dc02699e3a0031ea4ff781536dc2fab847de4babdd8829181900360200190a15050565b60035461063a908263ffffffff6103a016565b60035550565b6040518060400160405280600b81526020016a111959985d5b1d141bdbdb60aa1b81525081565b6001546001600160a01b031681565b61067e6108ae565b6001546002546001600160a01b03909116906106a0908363ffffffff6108f716565b600281905560408051918252517f9a14ae677a60400af9176bed2e2d5ce8dfa6405e6c1702debb27668f567214289181900360200190a1604080516001600160a01b03831681526020810184905281517f6109e2559dfa766aaec7118351d48a523f0a4157f49c8d68749c8ac41318ad12929181900390910190a16040516000906001600160a01b0383169084908381818185875af1925050503d8060008114610766576040519150601f19603f3d011682016040523d82523d6000602084013e61076b565b606091505b50509050806107c1576040805162461bcd60e51b815260206004820152601f60248201527f44656661756c74506f6f6c3a2073656e64696e6720455448206661696c656400604482015290519081900360640190fd5b505050565b6107ce6108ae565b600354610495908263ffffffff6103a016565b6002546107f4903463ffffffff6103a016565b600255565b6001600160a01b03811661083e5760405162461bcd60e51b8152600401808060200182810382526022815260200180610aad6022913960400191505060405180910390fd5b806001600160a01b03166108506104e4565b6001600160a01b03167f8be0079c531659141344cd1fd0a4f28419497f9722a3daafe3b4186f6b6457e060405160405180910390a3604080517035b2bc9737bbb730b136329737bbb732b960791b8152905190819003601101902055565b6000546001600160a01b0316331461039e5760405162461bcd60e51b815260040180806020018281038252602b815260200180610acf602b913960400191505060405180910390fd5b60006103fa83836040518060400160405280601e81526020017f536166654d6174683a207375627472616374696f6e206f766572666c6f7700008152506109ec565b6001600160a01b038116610994576040805162461bcd60e51b815260206004820152601e60248201527f4163636f756e742063616e6e6f74206265207a65726f20616464726573730000604482015290519081900360640190fd5b803b806109e8576040805162461bcd60e51b815260206004820181905260248201527f4163636f756e7420636f64652073697a652063616e6e6f74206265207a65726f604482015290519081900360640190fd5b5050565b60008184841115610a7b5760405162461bcd60e51b81526004018080602001828103825283818151815260200191508051906020019080838360005b83811015610a40578181015183820152602001610a28565b50505050905090810190601f168015610a6d5780820380516001836020036101000a031916815260200191505b509250505060405180910390fd5b50505090039056fe44656661756c74506f6f6c3a2043616c6c6572206973206e6f742074686520416374697665506f6f6c4f776e61626c653a3a7365744f776e65723a20696e76616c6964206164647265737344656661756c74506f6f6c3a2043616c6c6572206973206e6f74207468652054726f76654d616e61676572a26469706673582212204b4745f728650ac3ff110d4f8bec8a8982853684f8768cae5dd17ea352e9343264736f6c634300060b00334f776e61626c653a3a7365744f776e65723a20696e76616c69642061646472657373",
  "linkReferences": {},
  "deployedLinkReferences": {}
}