{
  "_format": "hh-sol-artifact-1",
  "contractName": "DSProxyFactory",
  "sourceName": "contracts/TestContracts/DappSys/proxy.sol",
  "abi": [
    {
      "anonymous": false,
      "inputs": [
        {
          "indexed": true,
          "internalType": "address",
          "name": "sender",
          "type": "address"
        },
        {
          "indexed": true,
          "internalType": "address",
          "name": "owner",
          "type": "address"
        },
        {
          "indexed": false,
          "internalType": "address",
          "name": "proxy",
          "type": "address"
        },
        {
          "indexed": false,
          "internalType": "address",
          "name": "cache",
          "type": "address"
        }
      ],
      "name": "Created",
      "type": "event"
    },
    {
      "inputs": [],
      "name": "build",
      "outputs": [
        {
          "internalType": "contract DSProxy",
          "name": "proxy",
          "type": "address"
        }
      ],
      "stateMutability": "nonpayable",
      "type": "function"
    },
    {
      "inputs": [
        {
          "internalType": "address",
          "name": "owner",
          "type": "address"
        }
      ],
      "name": "build",
      "outputs": [
        {
          "internalType": "contract DSProxy",
          "name": "proxy",
          "type": "address"
        }
      ],
      "stateMutability": "nonpayable",
      "type": "function"
    },
    {
      "inputs": [],
      "name": "cache",
      "outputs": [
        {
          "internalType": "contract DSProxyCache",
          "name": "",
          "type": "address"
        }
      ],
      "stateMutability": "view",
      "type": "function"
    },
    {
      "inputs": [
        {
          "internalType": "address",
          "name": "",
          "type": "address"
        }
      ],
      "name": "isProxy",
      "outputs": [
        {
          "internalType": "bool",
          "name": "",
          "type": "bool"
        }
      ],
      "stateMutability": "view",
      "type": "function"
    }
  ],
  "bytecode": "0x60806040526040516100109061005f565b604051809103906000f08015801561002c573d6000803e3d6000fd5b50600180546001600160a01b0319166001600160a01b039290921691909117905534801561005957600080fd5b5061006c565b61024a80610cbc83390190565b610c418061007b6000396000f3fe608060405234801561001057600080fd5b506004361061004c5760003560e01c8063297103881461005157806360c7d2951461008b5780638e1a55fc146100af578063f3701da2146100b7575b600080fd5b6100776004803603602081101561006757600080fd5b50356001600160a01b03166100dd565b604080519115158252519081900360200190f35b6100936100f2565b604080516001600160a01b039092168252519081900360200190f35b610093610101565b610093600480360360208110156100cd57600080fd5b50356001600160a01b0316610111565b60006020819052908152604090205460ff1681565b6001546001600160a01b031681565b600061010c33610111565b905090565b6001546040516000916001600160a01b03169061012d90610243565b6001600160a01b03909116815260405190819003602001906000f08015801561015a573d6000803e3d6000fd5b50600154604080516001600160a01b038085168252928316602082015281519394509185169233927f259b30ca39885c6d801a0b5dbc988640f3c25e2f37531fe138c5c5af8955d41b92908290030190a3806001600160a01b03166313af4035836040518263ffffffff1660e01b815260040180826001600160a01b03166001600160a01b03168152602001915050600060405180830381600087803b15801561020357600080fd5b505af1158015610217573d6000803e3d6000fd5b5050506001600160a01b0382166000908152602081905260409020805460ff1916600117905550919050565b6109bb806102518339019056fe608060405234801561001057600080fd5b506040516109bb3803806109bb8339818101604052602081101561003357600080fd5b5051600180546001600160a01b031916339081179091556040517fce241d7ca1f669fee44b6fc00b8eba2df3bb514eed0f6f668f8f89096e81ed9490600090a2610085816001600160e01b0361009416565b61008e57600080fd5b50610242565b60006100b4336001600160e01b03198335166001600160e01b0361015916565b6100bd57600080fd5b604080513480825260208201838152369383018490526004359360243593849386933393600080356001600160e01b03191694909260608201848480828437600083820152604051601f909101601f1916909201829003965090945050505050a46001600160a01b03841661013157600080fd5b600280546001600160a01b0386166001600160a01b0319909116179055600192505050919050565b60006001600160a01b0383163014156101745750600161023c565b6001546001600160a01b03848116911614156101925750600161023c565b6000546001600160a01b03166101aa5750600061023c565b6000546040805163b700961360e01b81526001600160a01b0386811660048301523060248301526001600160e01b0319861660448301529151919092169163b7009613916064808301926020929190829003018186803b15801561020d57600080fd5b505afa158015610221573d6000803e3d6000fd5b505050506040513d602081101561023757600080fd5b505190505b92915050565b61076a806102516000396000f3fe6080604052600436106100645760003560e01c806313af40351461006d5780631cff79cd146100a05780631f6a1eb91461016657806360c7d295146102475780637a9e5e4b146102785780638da5cb5b146102ab578063bf7e214f146102c05761006b565b3661006b57005b005b34801561007957600080fd5b5061006b6004803603602081101561009057600080fd5b50356001600160a01b03166102d5565b610154600480360360408110156100b657600080fd5b6001600160a01b038235169190810190604081016020820135600160201b8111156100e057600080fd5b8201836020820111156100f257600080fd5b803590602001918460018302840111600160201b8311171561011357600080fd5b91908080601f016020809104026020016040519081016040528093929190818152602001838380828437600092019190915250929550610344945050505050565b60408051918252519081900360200190f35b6102246004803603604081101561017c57600080fd5b810190602081018135600160201b81111561019657600080fd5b8201836020820111156101a857600080fd5b803590602001918460018302840111600160201b831117156101c957600080fd5b919390929091602081019035600160201b8111156101e657600080fd5b8201836020820111156101f857600080fd5b803590602001918460018302840111600160201b8311171561021957600080fd5b50909250905061040d565b604080516001600160a01b03909316835260208301919091528051918290030190f35b34801561025357600080fd5b5061025c6105b3565b604080516001600160a01b039092168252519081900360200190f35b34801561028457600080fd5b5061006b6004803603602081101561029b57600080fd5b50356001600160a01b03166105c2565b3480156102b757600080fd5b5061025c61062d565b3480156102cc57600080fd5b5061025c61063c565b6102eb336000356001600160e01b03191661064b565b6102f457600080fd5b600180546001600160a01b0319166001600160a01b0383811691909117918290556040519116907fce241d7ca1f669fee44b6fc00b8eba2df3bb514eed0f6f668f8f89096e81ed9490600090a250565b600061035c336000356001600160e01b03191661064b565b61036557600080fd5b604080513480825260208201838152369383018490526004359360243593849386933393600080356001600160e01b03191694909260608201848480828437600083820152604051601f909101601f1916909201829003965090945050505050a46001600160a01b0385166103d957600080fd5b60206000855160208701886113885a03f460005193508015600181146103fe57610403565b600080fd5b5050505092915050565b6002546040516322fd145760e21b81526020600482019081526024820186905260009283926001600160a01b0390911691638bf4515c91899189918190604401848480828437600083820152604051601f909101601f191690920195506020945090925050508083038186803b15801561048657600080fd5b505afa15801561049a573d6000803e3d6000fd5b505050506040513d60208110156104b057600080fd5b505191506001600160a01b03821661056857600254604051633f6861d960e11b8152602060048201908152602482018890526001600160a01b0390921691637ed0c3b291899189918190604401848480828437600081840152601f19601f8201169050808301925050509350505050602060405180830381600087803b15801561053957600080fd5b505af115801561054d573d6000803e3d6000fd5b505050506040513d602081101561056357600080fd5b505191505b6105a88285858080601f01602080910402602001604051908101604052809392919081815260200183838082843760009201919091525061034492505050565b905094509492505050565b6002546001600160a01b031681565b6105d8336000356001600160e01b03191661064b565b6105e157600080fd5b600080546001600160a01b0319166001600160a01b03838116919091178083556040519116917f1abebea81bfa2637f28358c371278fb15ede7ea8dd28d2e03b112ff6d936ada491a250565b6001546001600160a01b031681565b6000546001600160a01b031681565b60006001600160a01b0383163014156106665750600161072e565b6001546001600160a01b03848116911614156106845750600161072e565b6000546001600160a01b031661069c5750600061072e565b6000546040805163b700961360e01b81526001600160a01b0386811660048301523060248301526001600160e01b0319861660448301529151919092169163b7009613916064808301926020929190829003018186803b1580156106ff57600080fd5b505afa158015610713573d6000803e3d6000fd5b505050506040513d602081101561072957600080fd5b505190505b9291505056fea26469706673582212207a85fff21b4bf5a2e5057cd4c30eb4525868f2dd0be66af28789fd97fc78ca4364736f6c634300060b0033a2646970667358221220b0f1dfdea5c6644f21e0d60ee9e035cf4e578d52f36ebbd1a383a59d7909c49e64736f6c634300060b0033608060405234801561001057600080fd5b5061022a806100206000396000f3fe608060405234801561001057600080fd5b50600436106100365760003560e01c80637ed0c3b21461003b5780638bf4515c146100fb575b600080fd5b6100df6004803603602081101561005157600080fd5b810190602081018135600160201b81111561006b57600080fd5b82018360208201111561007d57600080fd5b803590602001918460018302840111600160201b8311171561009e57600080fd5b91908080601f016020809104026020016040519081016040528093929190818152602001838380828437600092019190915250929550610169945050505050565b604080516001600160a01b039092168252519081900360200190f35b6100df6004803603602081101561011157600080fd5b810190602081018135600160201b81111561012b57600080fd5b82018360208201111561013d57600080fd5b803590602001918460018302840111600160201b8311171561015e57600080fd5b5090925090506101b4565b60008151602083016000f09050803b156001811461003657508151602092830120600090815291829052604090912080546001600160a01b0319166001600160a01b03831617905590565b600080838360405180838380828437604080519190930181900390206000908152602081905291909120546001600160a01b03169897505050505050505056fea26469706673582212203574b1780a951f8f8993b7060d76584a85292c4d29ea4e54f041a1c3c9402ca864736f6c634300060b0033",
  "linkReferences": {},
  "deployedLinkReferences": {}
}