{
  "_format": "hh-sol-artifact-1",
  "contractName": "DSProxy",
  "sourceName": "contracts/TestContracts/DappSys/proxy.sol",
  "abi": [
    {
      "inputs": [
        {
          "internalType": "address",
          "name": "_cacheAddr",
          "type": "address"
        }
      ],
      "stateMutability": "nonpayable",
      "type": "constructor"
    },
    {
      "anonymous": true,
      "inputs": [
        {
          "indexed": true,
          "internalType": "bytes4",
          "name": "sig",
          "type": "bytes4"
        },
        {
          "indexed": true,
          "internalType": "address",
          "name": "guy",
          "type": "address"
        },
        {
          "indexed": true,
          "internalType": "bytes32",
          "name": "foo",
          "type": "bytes32"
        },
        {
          "indexed": true,
          "internalType": "bytes32",
          "name": "bar",
          "type": "bytes32"
        },
        {
          "indexed": false,
          "internalType": "uint256",
          "name": "wad",
          "type": "uint256"
        },
        {
          "indexed": false,
          "internalType": "bytes",
          "name": "fax",
          "type": "bytes"
        }
      ],
      "name": "LogNote",
      "type": "event"
    },
    {
      "anonymous": false,
      "inputs": [
        {
          "indexed": true,
          "internalType": "address",
          "name": "authority",
          "type": "address"
        }
      ],
      "name": "LogSetAuthority",
      "type": "event"
    },
    {
      "anonymous": false,
      "inputs": [
        {
          "indexed": true,
          "internalType": "address",
          "name": "owner",
          "type": "address"
        }
      ],
      "name": "LogSetOwner",
      "type": "event"
    },
    {
      "stateMutability": "payable",
      "type": "fallback"
    },
    {
      "inputs": [],
      "name": "authority",
      "outputs": [
        {
          "internalType": "contract DSAuthority",
          "name": "",
          "type": "address"
        }
      ],
      "stateMutability": "view",
      "type": "function"
    },
    {
      "inputs": [],
      "name": "cache",
      "outputs": [
        {
          "internalType": "contract DSProxyCache",
          "name": "",
          "type": "address"
        }
      ],
      "stateMutability": "view",
      "type": "function"
    },
    {
      "inputs": [
        {
          "internalType": "address",
          "name": "_target",
          "type": "address"
        },
        {
          "internalType": "bytes",
          "name": "_data",
          "type": "bytes"
        }
      ],
      "name": "execute",
      "outputs": [
        {
          "internalType": "bytes32",
          "name": "response",
          "type": "bytes32"
        }
      ],
      "stateMutability": "payable",
      "type": "function"
    },
    {
      "inputs": [
        {
          "internalType": "bytes",
          "name": "_code",
          "type": "bytes"
        },
        {
          "internalType": "bytes",
          "name": "_data",
          "type": "bytes"
        }
      ],
      "name": "execute",
      "outputs": [
        {
          "internalType": "address",
          "name": "target",
          "type": "address"
        },
        {
          "internalType": "bytes32",
          "name": "response",
          "type": "bytes32"
        }
      ],
      "stateMutability": "payable",
      "type": "function"
    },
    {
      "inputs": [],
      "name": "owner",
      "outputs": [
        {
          "internalType": "address",
          "name": "",
          "type": "address"
        }
      ],
      "stateMutability": "view",
      "type": "function"
    },
    {
      "inputs": [
        {
          "internalType": "contract DSAuthority",
          "name": "authority_",
          "type": "address"
        }
      ],
      "name": "setAuthority",
      "outputs": [],
      "stateMutability": "nonpayable",
      "type": "function"
    },
    {
      "inputs": [
        {
          "internalType": "address",
          "name": "owner_",
          "type": "address"
        }
      ],
      "name": "setOwner",
      "outputs": [],
      "stateMutability": "nonpayable",
      "type": "function"
    },
    {
      "stateMutability": "payable",
      "type": "receive"
    }
  ],
  "bytecode": "0x608060405234801561001057600080fd5b506040516109bb3803806109bb8339818101604052602081101561003357600080fd5b5051600180546001600160a01b031916339081179091556040517fce241d7ca1f669fee44b6fc00b8eba2df3bb514eed0f6f668f8f89096e81ed9490600090a2610085816001600160e01b0361009416565b61008e57600080fd5b50610242565b60006100b4336001600160e01b03198335166001600160e01b0361015916565b6100bd57600080fd5b604080513480825260208201838152369383018490526004359360243593849386933393600080356001600160e01b03191694909260608201848480828437600083820152604051601f909101601f1916909201829003965090945050505050a46001600160a01b03841661013157600080fd5b600280546001600160a01b0386166001600160a01b0319909116179055600192505050919050565b60006001600160a01b0383163014156101745750600161023c565b6001546001600160a01b03848116911614156101925750600161023c565b6000546001600160a01b03166101aa5750600061023c565b6000546040805163b700961360e01b81526001600160a01b0386811660048301523060248301526001600160e01b0319861660448301529151919092169163b7009613916064808301926020929190829003018186803b15801561020d57600080fd5b505afa158015610221573d6000803e3d6000fd5b505050506040513d602081101561023757600080fd5b505190505b92915050565b61076a806102516000396000f3fe6080604052600436106100645760003560e01c806313af40351461006d5780631cff79cd146100a05780631f6a1eb91461016657806360c7d295146102475780637a9e5e4b146102785780638da5cb5b146102ab578063bf7e214f146102c05761006b565b3661006b57005b005b34801561007957600080fd5b5061006b6004803603602081101561009057600080fd5b50356001600160a01b03166102d5565b610154600480360360408110156100b657600080fd5b6001600160a01b038235169190810190604081016020820135600160201b8111156100e057600080fd5b8201836020820111156100f257600080fd5b803590602001918460018302840111600160201b8311171561011357600080fd5b91908080601f016020809104026020016040519081016040528093929190818152602001838380828437600092019190915250929550610344945050505050565b60408051918252519081900360200190f35b6102246004803603604081101561017c57600080fd5b810190602081018135600160201b81111561019657600080fd5b8201836020820111156101a857600080fd5b803590602001918460018302840111600160201b831117156101c957600080fd5b919390929091602081019035600160201b8111156101e657600080fd5b8201836020820111156101f857600080fd5b803590602001918460018302840111600160201b8311171561021957600080fd5b50909250905061040d565b604080516001600160a01b03909316835260208301919091528051918290030190f35b34801561025357600080fd5b5061025c6105b3565b604080516001600160a01b039092168252519081900360200190f35b34801561028457600080fd5b5061006b6004803603602081101561029b57600080fd5b50356001600160a01b03166105c2565b3480156102b757600080fd5b5061025c61062d565b3480156102cc57600080fd5b5061025c61063c565b6102eb336000356001600160e01b03191661064b565b6102f457600080fd5b600180546001600160a01b0319166001600160a01b0383811691909117918290556040519116907fce241d7ca1f669fee44b6fc00b8eba2df3bb514eed0f6f668f8f89096e81ed9490600090a250565b600061035c336000356001600160e01b03191661064b565b61036557600080fd5b604080513480825260208201838152369383018490526004359360243593849386933393600080356001600160e01b03191694909260608201848480828437600083820152604051601f909101601f1916909201829003965090945050505050a46001600160a01b0385166103d957600080fd5b60206000855160208701886113885a03f460005193508015600181146103fe57610403565b600080fd5b5050505092915050565b6002546040516322fd145760e21b81526020600482019081526024820186905260009283926001600160a01b0390911691638bf4515c91899189918190604401848480828437600083820152604051601f909101601f191690920195506020945090925050508083038186803b15801561048657600080fd5b505afa15801561049a573d6000803e3d6000fd5b505050506040513d60208110156104b057600080fd5b505191506001600160a01b03821661056857600254604051633f6861d960e11b8152602060048201908152602482018890526001600160a01b0390921691637ed0c3b291899189918190604401848480828437600081840152601f19601f8201169050808301925050509350505050602060405180830381600087803b15801561053957600080fd5b505af115801561054d573d6000803e3d6000fd5b505050506040513d602081101561056357600080fd5b505191505b6105a88285858080601f01602080910402602001604051908101604052809392919081815260200183838082843760009201919091525061034492505050565b905094509492505050565b6002546001600160a01b031681565b6105d8336000356001600160e01b03191661064b565b6105e157600080fd5b600080546001600160a01b0319166001600160a01b03838116919091178083556040519116917f1abebea81bfa2637f28358c371278fb15ede7ea8dd28d2e03b112ff6d936ada491a250565b6001546001600160a01b031681565b6000546001600160a01b031681565b60006001600160a01b0383163014156106665750600161072e565b6001546001600160a01b03848116911614156106845750600161072e565b6000546001600160a01b031661069c5750600061072e565b6000546040805163b700961360e01b81526001600160a01b0386811660048301523060248301526001600160e01b0319861660448301529151919092169163b7009613916064808301926020929190829003018186803b1580156106ff57600080fd5b505afa158015610713573d6000803e3d6000fd5b505050506040513d602081101561072957600080fd5b505190505b9291505056fea26469706673582212207a85fff21b4bf5a2e5057cd4c30eb4525868f2dd0be66af28789fd97fc78ca4364736f6c634300060b0033",
  "linkReferences": {},
  "deployedLinkReferences": {}
}