{
  "_format": "hh-sol-artifact-1",
  "contractName": "EchidnaTester",
  "sourceName": "contracts/TestContracts/EchidnaTester.sol",
  "abi": [
    {
      "inputs": [],
      "stateMutability": "payable",
      "type": "constructor"
    },
    {
      "inputs": [],
      "name": "activePool",
      "outputs": [
        {
          "internalType": "contract ActivePool",
          "name": "",
          "type": "address"
        }
      ],
      "stateMutability": "view",
      "type": "function"
    },
    {
      "inputs": [
        {
          "internalType": "uint256",
          "name": "_i",
          "type": "uint256"
        },
        {
          "internalType": "uint256",
          "name": "_ETH",
          "type": "uint256"
        }
      ],
      "name": "addCollExt",
      "outputs": [],
      "stateMutability": "payable",
      "type": "function"
    },
    {
      "inputs": [
        {
          "internalType": "uint256",
          "name": "_i",
          "type": "uint256"
        },
        {
          "internalType": "uint256",
          "name": "_ETH",
          "type": "uint256"
        },
        {
          "internalType": "address",
          "name": "_upperHint",
          "type": "address"
        },
        {
          "internalType": "address",
          "name": "_lowerHint",
          "type": "address"
        }
      ],
      "name": "addCollRawExt",
      "outputs": [],
      "stateMutability": "payable",
      "type": "function"
    },
    {
      "inputs": [
        {
          "internalType": "uint256",
          "name": "_i",
          "type": "uint256"
        },
        {
          "internalType": "uint256",
          "name": "_ETH",
          "type": "uint256"
        },
        {
          "internalType": "uint256",
          "name": "_collWithdrawal",
          "type": "uint256"
        },
        {
          "internalType": "uint256",
          "name": "_debtChange",
          "type": "uint256"
        },
        {
          "internalType": "bool",
          "name": "_isDebtIncrease",
          "type": "bool"
        }
      ],
      "name": "adjustTroveExt",
      "outputs": [],
      "stateMutability": "payable",
      "type": "function"
    },
    {
      "inputs": [
        {
          "internalType": "uint256",
          "name": "_i",
          "type": "uint256"
        },
        {
          "internalType": "uint256",
          "name": "_ETH",
          "type": "uint256"
        },
        {
          "internalType": "uint256",
          "name": "_collWithdrawal",
          "type": "uint256"
        },
        {
          "internalType": "uint256",
          "name": "_debtChange",
          "type": "uint256"
        },
        {
          "internalType": "bool",
          "name": "_isDebtIncrease",
          "type": "bool"
        },
        {
          "internalType": "address",
          "name": "_upperHint",
          "type": "address"
        },
        {
          "internalType": "address",
          "name": "_lowerHint",
          "type": "address"
        },
        {
          "internalType": "uint256",
          "name": "_maxFee",
          "type": "uint256"
        }
      ],
      "name": "adjustTroveRawExt",
      "outputs": [],
      "stateMutability": "payable",
      "type": "function"
    },
    {
      "inputs": [
        {
          "internalType": "uint256",
          "name": "_i",
          "type": "uint256"
        },
        {
          "internalType": "address",
          "name": "spender",
          "type": "address"
        },
        {
          "internalType": "uint256",
          "name": "amount",
          "type": "uint256"
        }
      ],
      "name": "approveExt",
      "outputs": [
        {
          "internalType": "bool",
          "name": "",
          "type": "bool"
        }
      ],
      "stateMutability": "nonpayable",
      "type": "function"
    },
    {
      "inputs": [
        {
          "internalType": "uint256",
          "name": "_i",
          "type": "uint256"
        },
        {
          "internalType": "address[]",
          "name": "_troveArray",
          "type": "address[]"
        }
      ],
      "name": "batchLiquidateTrovesExt",
      "outputs": [],
      "stateMutability": "nonpayable",
      "type": "function"
    },
    {
      "inputs": [],
      "name": "borrowerOperations",
      "outputs": [
        {
          "internalType": "contract BorrowerOperations",
          "name": "",
          "type": "address"
        }
      ],
      "stateMutability": "view",
      "type": "function"
    },
    {
      "inputs": [
        {
          "internalType": "uint256",
          "name": "_i",
          "type": "uint256"
        }
      ],
      "name": "closeTroveExt",
      "outputs": [],
      "stateMutability": "nonpayable",
      "type": "function"
    },
    {
      "inputs": [],
      "name": "collSurplusPool",
      "outputs": [
        {
          "internalType": "contract CollSurplusPool",
          "name": "",
          "type": "address"
        }
      ],
      "stateMutability": "view",
      "type": "function"
    },
    {
      "inputs": [
        {
          "internalType": "uint256",
          "name": "_i",
          "type": "uint256"
        },
        {
          "internalType": "address",
          "name": "spender",
          "type": "address"
        },
        {
          "internalType": "uint256",
          "name": "subtractedValue",
          "type": "uint256"
        }
      ],
      "name": "decreaseAllowanceExt",
      "outputs": [
        {
          "internalType": "bool",
          "name": "",
          "type": "bool"
        }
      ],
      "stateMutability": "nonpayable",
      "type": "function"
    },
    {
      "inputs": [],
      "name": "defaultPool",
      "outputs": [
        {
          "internalType": "contract DefaultPool",
          "name": "",
          "type": "address"
        }
      ],
      "stateMutability": "view",
      "type": "function"
    },
    {
      "inputs": [
        {
          "internalType": "uint256",
          "name": "",
          "type": "uint256"
        }
      ],
      "name": "echidnaProxies",
      "outputs": [
        {
          "internalType": "contract EchidnaProxy",
          "name": "",
          "type": "address"
        }
      ],
      "stateMutability": "view",
      "type": "function"
    },
    {
      "inputs": [],
      "name": "echidna_ETH_balances",
      "outputs": [
        {
          "internalType": "bool",
          "name": "",
          "type": "bool"
        }
      ],
      "stateMutability": "view",
      "type": "function"
    },
    {
      "inputs": [],
      "name": "echidna_ZUSD_global_balances",
      "outputs": [
        {
          "internalType": "bool",
          "name": "",
          "type": "bool"
        }
      ],
      "stateMutability": "view",
      "type": "function"
    },
    {
      "inputs": [],
      "name": "echidna_canary_active_pool_balance",
      "outputs": [
        {
          "internalType": "bool",
          "name": "",
          "type": "bool"
        }
      ],
      "stateMutability": "view",
      "type": "function"
    },
    {
      "inputs": [],
      "name": "echidna_canary_number_of_troves",
      "outputs": [
        {
          "internalType": "bool",
          "name": "",
          "type": "bool"
        }
      ],
      "stateMutability": "view",
      "type": "function"
    },
    {
      "inputs": [],
      "name": "echidna_price",
      "outputs": [
        {
          "internalType": "bool",
          "name": "",
          "type": "bool"
        }
      ],
      "stateMutability": "view",
      "type": "function"
    },
    {
      "inputs": [],
      "name": "echidna_trove_properties",
      "outputs": [
        {
          "internalType": "bool",
          "name": "",
          "type": "bool"
        }
      ],
      "stateMutability": "view",
      "type": "function"
    },
    {
      "inputs": [],
      "name": "echidna_troves_order",
      "outputs": [
        {
          "internalType": "bool",
          "name": "",
          "type": "bool"
        }
      ],
      "stateMutability": "view",
      "type": "function"
    },
    {
      "inputs": [],
      "name": "gasPool",
      "outputs": [
        {
          "internalType": "contract GasPool",
          "name": "",
          "type": "address"
        }
      ],
      "stateMutability": "view",
      "type": "function"
    },
    {
      "inputs": [
        {
          "internalType": "uint256",
          "name": "_i",
          "type": "uint256"
        },
        {
          "internalType": "address",
          "name": "spender",
          "type": "address"
        },
        {
          "internalType": "uint256",
          "name": "addedValue",
          "type": "uint256"
        }
      ],
      "name": "increaseAllowanceExt",
      "outputs": [
        {
          "internalType": "bool",
          "name": "",
          "type": "bool"
        }
      ],
      "stateMutability": "nonpayable",
      "type": "function"
    },
    {
      "inputs": [
        {
          "internalType": "uint256",
          "name": "_i",
          "type": "uint256"
        },
        {
          "internalType": "address",
          "name": "_user",
          "type": "address"
        }
      ],
      "name": "liquidateExt",
      "outputs": [],
      "stateMutability": "nonpayable",
      "type": "function"
    },
    {
      "inputs": [
        {
          "internalType": "uint256",
          "name": "_i",
          "type": "uint256"
        },
        {
          "internalType": "uint256",
          "name": "_n",
          "type": "uint256"
        }
      ],
      "name": "liquidateTrovesExt",
      "outputs": [],
      "stateMutability": "nonpayable",
      "type": "function"
    },
    {
      "inputs": [],
      "name": "liquityBaseParams",
      "outputs": [
        {
          "internalType": "contract LiquityBaseParams",
          "name": "",
          "type": "address"
        }
      ],
      "stateMutability": "view",
      "type": "function"
    },
    {
      "inputs": [
        {
          "internalType": "uint256",
          "name": "_i",
          "type": "uint256"
        },
        {
          "internalType": "uint256",
          "name": "_ETH",
          "type": "uint256"
        },
        {
          "internalType": "uint256",
          "name": "_ZUSDAmount",
          "type": "uint256"
        }
      ],
      "name": "openTroveExt",
      "outputs": [],
      "stateMutability": "payable",
      "type": "function"
    },
    {
      "inputs": [
        {
          "internalType": "uint256",
          "name": "_i",
          "type": "uint256"
        },
        {
          "internalType": "uint256",
          "name": "_ETH",
          "type": "uint256"
        },
        {
          "internalType": "uint256",
          "name": "_ZUSDAmount",
          "type": "uint256"
        },
        {
          "internalType": "address",
          "name": "_upperHint",
          "type": "address"
        },
        {
          "internalType": "address",
          "name": "_lowerHint",
          "type": "address"
        },
        {
          "internalType": "uint256",
          "name": "_maxFee",
          "type": "uint256"
        }
      ],
      "name": "openTroveRawExt",
      "outputs": [],
      "stateMutability": "payable",
      "type": "function"
    },
    {
      "inputs": [
        {
          "internalType": "uint256",
          "name": "_i",
          "type": "uint256"
        },
        {
          "internalType": "uint256",
          "name": "_amount",
          "type": "uint256"
        },
        {
          "internalType": "address",
          "name": "_frontEndTag",
          "type": "address"
        }
      ],
      "name": "provideToSPExt",
      "outputs": [],
      "stateMutability": "nonpayable",
      "type": "function"
    },
    {
      "inputs": [
        {
          "internalType": "uint256",
          "name": "_i",
          "type": "uint256"
        },
        {
          "internalType": "uint256",
          "name": "_ZUSDAmount",
          "type": "uint256"
        },
        {
          "internalType": "address",
          "name": "_firstRedemptionHint",
          "type": "address"
        },
        {
          "internalType": "address",
          "name": "_upperPartialRedemptionHint",
          "type": "address"
        },
        {
          "internalType": "address",
          "name": "_lowerPartialRedemptionHint",
          "type": "address"
        },
        {
          "internalType": "uint256",
          "name": "_partialRedemptionHintNICR",
          "type": "uint256"
        }
      ],
      "name": "redeemCollateralExt",
      "outputs": [],
      "stateMutability": "nonpayable",
      "type": "function"
    },
    {
      "inputs": [
        {
          "internalType": "uint256",
          "name": "_i",
          "type": "uint256"
        },
        {
          "internalType": "uint256",
          "name": "_amount",
          "type": "uint256"
        },
        {
          "internalType": "address",
          "name": "_upperHint",
          "type": "address"
        },
        {
          "internalType": "address",
          "name": "_lowerHint",
          "type": "address"
        }
      ],
      "name": "repayZUSDExt",
      "outputs": [],
      "stateMutability": "nonpayable",
      "type": "function"
    },
    {
      "inputs": [
        {
          "internalType": "uint256",
          "name": "_price",
          "type": "uint256"
        }
      ],
      "name": "setPriceExt",
      "outputs": [],
      "stateMutability": "nonpayable",
      "type": "function"
    },
    {
      "inputs": [],
      "name": "stabilityPool",
      "outputs": [
        {
          "internalType": "contract StabilityPool",
          "name": "",
          "type": "address"
        }
      ],
      "stateMutability": "view",
      "type": "function"
    },
    {
      "inputs": [
        {
          "internalType": "uint256",
          "name": "_i",
          "type": "uint256"
        },
        {
          "internalType": "address",
          "name": "recipient",
          "type": "address"
        },
        {
          "internalType": "uint256",
          "name": "amount",
          "type": "uint256"
        }
      ],
      "name": "transferExt",
      "outputs": [
        {
          "internalType": "bool",
          "name": "",
          "type": "bool"
        }
      ],
      "stateMutability": "nonpayable",
      "type": "function"
    },
    {
      "inputs": [
        {
          "internalType": "uint256",
          "name": "_i",
          "type": "uint256"
        },
        {
          "internalType": "address",
          "name": "sender",
          "type": "address"
        },
        {
          "internalType": "address",
          "name": "recipient",
          "type": "address"
        },
        {
          "internalType": "uint256",
          "name": "amount",
          "type": "uint256"
        }
      ],
      "name": "transferFromExt",
      "outputs": [
        {
          "internalType": "bool",
          "name": "",
          "type": "bool"
        }
      ],
      "stateMutability": "nonpayable",
      "type": "function"
    },
    {
      "inputs": [],
      "name": "troveManager",
      "outputs": [
        {
          "internalType": "contract TroveManager",
          "name": "",
          "type": "address"
        }
      ],
      "stateMutability": "view",
      "type": "function"
    },
    {
      "inputs": [],
      "name": "troveManagerRedeemOps",
      "outputs": [
        {
          "internalType": "contract TroveManagerRedeemOps",
          "name": "",
          "type": "address"
        }
      ],
      "stateMutability": "view",
      "type": "function"
    },
    {
      "inputs": [
        {
          "internalType": "uint256",
          "name": "_i",
          "type": "uint256"
        },
        {
          "internalType": "uint256",
          "name": "_amount",
          "type": "uint256"
        },
        {
          "internalType": "address",
          "name": "_upperHint",
          "type": "address"
        },
        {
          "internalType": "address",
          "name": "_lowerHint",
          "type": "address"
        }
      ],
      "name": "withdrawCollExt",
      "outputs": [],
      "stateMutability": "nonpayable",
      "type": "function"
    },
    {
      "inputs": [
        {
          "internalType": "uint256",
          "name": "_i",
          "type": "uint256"
        },
        {
          "internalType": "uint256",
          "name": "_amount",
          "type": "uint256"
        }
      ],
      "name": "withdrawFromSPExt",
      "outputs": [],
      "stateMutability": "nonpayable",
      "type": "function"
    },
    {
      "inputs": [
        {
          "internalType": "uint256",
          "name": "_i",
          "type": "uint256"
        },
        {
          "internalType": "uint256",
          "name": "_amount",
          "type": "uint256"
        },
        {
          "internalType": "address",
          "name": "_upperHint",
          "type": "address"
        },
        {
          "internalType": "address",
          "name": "_lowerHint",
          "type": "address"
        },
        {
          "internalType": "uint256",
          "name": "_maxFee",
          "type": "uint256"
        }
      ],
      "name": "withdrawZUSDExt",
      "outputs": [],
      "stateMutability": "nonpayable",
      "type": "function"
    },
    {
      "inputs": [],
      "name": "zusdToken",
      "outputs": [
        {
          "internalType": "contract ZUSDToken",
          "name": "",
          "type": "address"
        }
      ],
      "stateMutability": "view",
      "type": "function"
    }
  ],
  "bytecode": "0x6080604052604051620000129062000c88565b604051809103906000f0801580156200002f573d6000803e3d6000fd5b50600380546001600160a01b0319166001600160a01b03929092169190911790556040516212750090620000639062000c96565b6200006f919062000efd565b604051809103906000f0801580156200008c573d6000803e3d6000fd5b50600480546001600160a01b0319166001600160a01b03929092169190911790556040516212750090620000c09062000ca4565b620000cc919062000efd565b604051809103906000f080158015620000e9573d6000803e3d6000fd5b50600580546001600160a01b0319166001600160a01b0392909216919091179055604051620001189062000cb2565b604051809103906000f08015801562000135573d6000803e3d6000fd5b50600680546001600160a01b0319166001600160a01b0392909216919091179055604051620001649062000cc0565b604051809103906000f08015801562000181573d6000803e3d6000fd5b50600780546001600160a01b0319166001600160a01b0392909216919091179055604051620001b09062000cce565b604051809103906000f080158015620001cd573d6000803e3d6000fd5b50600880546001600160a01b0319166001600160a01b0392909216919091179055604051620001fc9062000cdc565b604051809103906000f08015801562000219573d6000803e3d6000fd5b50600980546001600160a01b0319166001600160a01b0392909216919091179055604051620002489062000cea565b604051809103906000f08015801562000265573d6000803e3d6000fd5b50600a80546001600160a01b0319166001600160a01b0392909216919091179055604051620002949062000cf7565b604051809103906000f080158015620002b1573d6000803e3d6000fd5b50600c80546001600160a01b0319166001600160a01b03928316179081905560055460095460065460405163c0c53b8b60e01b81529385169463c0c53b8b9462000308948216938216929091169060040162000e65565b600060405180830381600087803b1580156200032357600080fd5b505af115801562000338573d6000803e3d6000fd5b505050506040516200034a9062000d05565b604051809103906000f08015801562000367573d6000803e3d6000fd5b50600b80546001600160a01b0319166001600160a01b0392909216919091179055604051620003969062000d13565b604051809103906000f080158015620003b3573d6000803e3d6000fd5b50600d80546001600160a01b0319166001600160a01b0392909216919091179055604051620003e29062000d21565b604051809103906000f080158015620003ff573d6000803e3d6000fd5b50600e80546001600160a01b0319166001600160a01b039283161790819055600554604080516101c081018252600080825260048054871660208401526003548716838501526006548716606084015260075487166080840152600854871660a0840152600954871660c0840152600a54871660e0840152600b548716610100840152600d548716610120840152600c54871661014084015294861661016083015261018082018190526101a08201529051623e2dc360e31b815291909316926301f16e1892620004d1920162000f25565b600060405180830381600087803b158015620004ec57600080fd5b505af115801562000501573d6000803e3d6000fd5b5050600654600354600554600754600854600954600a54600b54600d54600e54600c5460405163734f622d60e01b81526001600160a01b039b8c169d5063734f622d9c50620005759b60009b81169a81169981169881169781169681169581169481169381169216908b9060040162000db8565b600060405180830381600087803b1580156200059057600080fd5b505af1158015620005a5573d6000803e3d6000fd5b5050600754600654600554600954600854604051634a945f8d60e01b81526001600160a01b039586169750634a945f8d9650620005f5959485169493841693928316929091169060040162000e88565b600060405180830381600087803b1580156200061057600080fd5b505af115801562000625573d6000803e3d6000fd5b50506008546005546007546040516348083d7f60e11b81526001600160a01b0393841695506390107afe94506200066793928316929091169060040162000e4b565b600060405180830381600087803b1580156200068257600080fd5b505af115801562000697573d6000803e3d6000fd5b5050600954600354600654600554600754600c54600e54600d54604051630d733cfd60e41b81526001600160a01b039889169a5063d733cfd09950620006ff989788169796871696958616959485169493841693928316929091169060009060040162000eb3565b600060405180830381600087803b1580156200071a57600080fd5b505af11580156200072f573d6000803e3d6000fd5b5050600b54600654600554600754604051630d8efe5960e21b81526001600160a01b03948516965063363bf9649550620007789493841693928316929091169060040162000e65565b600060405180830381600087803b1580156200079357600080fd5b505af1158015620007a8573d6000803e3d6000fd5b5050600e54600554600654604051631e6edaf360e31b81526001600160a01b03938416955063f376d7989450620007f193670de0b6b3a764000093811692169060040162000f06565b600060405180830381600087803b1580156200080c57600080fd5b505af115801562000821573d6000803e3d6000fd5b506000925050505b60648110156200095457600554600654600954600c546040516001600160a01b0394851694938416939283169290911690620008659062000d2f565b62000874949392919062000e88565b604051809103906000f08015801562000891573d6000803e3d6000fd5b50600f8260648110620008a057fe5b0180546001600160a01b0319166001600160a01b03929092169190911790556000600f8260648110620008cf57fe5b01546040516001600160a01b039091169069d3c21bcecceda100000090620008f79062000db5565b60006040518083038185875af1925050503d806000811462000936576040519150601f19603f3d011682016040523d82523d6000602084013e6200093b565b606091505b50509050806200094a57600080fd5b5060010162000829565b50600660009054906101000a90046001600160a01b03166001600160a01b0316639f0706706040518163ffffffff1660e01b815260040160206040518083038186803b158015620009a457600080fd5b505afa158015620009b9573d6000803e3d6000fd5b505050506040513d601f19601f82011682018060405250810190620009df919062000d66565b6001600160a01b031663794e57246040518163ffffffff1660e01b815260040160206040518083038186803b15801562000a1857600080fd5b505afa15801562000a2d573d6000803e3d6000fd5b505050506040513d601f19601f8201168201806040525081019062000a53919062000d8f565b600055600654604080516309f0706760e41b815290516001600160a01b0390921691639f07067091600480820192602092909190829003018186803b15801562000a9c57600080fd5b505afa15801562000ab1573d6000803e3d6000fd5b505050506040513d601f19601f8201168201806040525081019062000ad7919062000d66565b6001600160a01b0316635733d58f6040518163ffffffff1660e01b815260040160206040518083038186803b15801562000b1057600080fd5b505afa15801562000b25573d6000803e3d6000fd5b505050506040513d601f19601f8201168201806040525081019062000b4b919062000d8f565b60015560065460408051631d66cc0d60e21b815290516001600160a01b039092169163759b303491600480820192602092909190829003018186803b15801562000b9457600080fd5b505afa15801562000ba9573d6000803e3d6000fd5b505050506040513d601f19601f8201168201806040525081019062000bcf919062000d8f565b60025560005462000bdf57600080fd5b60006001541162000bef57600080fd5b600d546040516391b7f5ed60e01b81526001600160a01b03909116906391b7f5ed9062000c2b9069021e19e0c9bab24000009060040162000efd565b602060405180830381600087803b15801562000c4657600080fd5b505af115801562000c5b573d6000803e3d6000fd5b505050506040513d601f19601f8201168201806040525081019062000c81919062000d3d565b506200105e565b61090880620039d383390190565b6137ec80620042db83390190565b61563b8062007ac783390190565b614bd8806200d10283390190565b610e188062011cda83390190565b610bf78062012af283390190565b6144d380620136e983390190565b605c8062017bbc83390190565b6118868062017c1883390190565b610d9a806201949e83390190565b61013b806201a23883390190565b611b3a806201a37383390190565b610e35806201bead83390190565b60006020828403121562000d4f578081fd5b8151801515811462000d5f578182fd5b9392505050565b60006020828403121562000d78578081fd5b81516001600160a01b038116811462000d5f578182fd5b60006020828403121562000da1578081fd5b5051919050565b6001600160a01b03169052565b90565b6001600160a01b038d811682528c811660208301528b811660408301528a81166060830152898116608083015288811660a083015287811660c083015286811660e08301528516610100820152610180810162000e1a61012083018662000da8565b62000e2a61014083018562000da8565b62000e3a61016083018462000da8565b9d9c50505050505050505050505050565b6001600160a01b0392831681529116602082015260400190565b6001600160a01b0393841681529183166020830152909116604082015260600190565b6001600160a01b03948516815292841660208401529083166040830152909116606082015260800190565b6001600160a01b0398891681529688166020880152948716604087015292861660608601529085166080850152841660a0840152831660c083015290911660e08201526101000190565b90815260200190565b9283526001600160a01b03918216602084015216604082015260600190565b60006101c08201905062000f3b82845162000da8565b602083015162000f4f602084018262000da8565b50604083015162000f64604084018262000da8565b50606083015162000f79606084018262000da8565b50608083015162000f8e608084018262000da8565b5060a083015162000fa360a084018262000da8565b5060c083015162000fb860c084018262000da8565b5060e083015162000fcd60e084018262000da8565b506101008084015162000fe38285018262000da8565b50506101208084015162000ffa8285018262000da8565b505061014080840151620010118285018262000da8565b505061016080840151620010288285018262000da8565b5050610180808401516200103f8285018262000da8565b50506101a080840151620010568285018262000da8565b505092915050565b612965806200106e6000396000f3fe60806040526004361061023b5760003560e01c80637ca8b0281161012e578063ba5a851f116100ab578063e44891271161006f578063e4489127146105ea578063ec9f7d461461060a578063efa83cf91461061f578063f2a903a714610632578063fa08b038146106475761023b565b8063ba5a851f14610562578063baf5d65f14610582578063c325347f146105a2578063cda775f9146105c2578063d21af968146105d75761023b565b80639cdd0978116100f25780639cdd0978146104e35780639f070670146105035780639f56ac1814610518578063a2f5cbdd1461052d578063a3d36834146105425761023b565b80637ca8b028146104595780637f7dde4a146104795780638e4707d31461048e57806391a4a426146104ae578063980c55d7146104ce5761023b565b80634e792a30116101bc57806359bed84b1161018057806359bed84b146103e757806369690936146103fc578063716c47e61461040f57806377553ad4146104245780637c22900e146104395761023b565b80634e792a301461036c57806354e174d81461038c57806357285cc5146103ac5780635895ac4e146103bf578063597ec799146103d45761023b565b80633ca4afc1116102035780633ca4afc1146102e25780633cc74225146103025780633d83908a1461031757806340ba2e271461032c5780634557559f1461034c5761023b565b8063048c661d1461024057806304bbf59c1461026b578063119be5d0146102985780631c6fbd23146102b857806325df85a2146102cd575b600080fd5b34801561024c57600080fd5b5061025561065c565b6040516102629190612689565b60405180910390f35b34801561027757600080fd5b5061028b610286366004612358565b61066b565b6040516102629190612728565b3480156102a457600080fd5b5061028b6102b3366004612358565b61070d565b6102cb6102c63660046125c2565b610754565b005b3480156102d957600080fd5b5061028b61081e565b3480156102ee57600080fd5b506102cb6102fd366004612427565b610cac565b34801561030e57600080fd5b50610255610d2a565b34801561032357600080fd5b50610255610d39565b34801561033857600080fd5b506102cb6103473660046122b2565b610d48565b34801561035857600080fd5b506102cb6103673660046122b2565b610dc8565b34801561037857600080fd5b506102cb6103873660046122e2565b610e58565b34801561039857600080fd5b506102cb6103a736600461245f565b610ed3565b6102cb6103ba366004612406565b610f54565b3480156103cb57600080fd5b5061028b610ffc565b6102cb6103e236600461260e565b61109e565b3480156103f357600080fd5b5061028b61112b565b6102cb61040a36600461245f565b611408565b34801561041b57600080fd5b50610255611450565b34801561043057600080fd5b5061025561145f565b34801561044557600080fd5b5061028b610454366004612311565b61146e565b34801561046557600080fd5b506102cb6104743660046124a8565b611513565b34801561048557600080fd5b5061025561159f565b34801561049a57600080fd5b5061028b6104a9366004612358565b6115ae565b3480156104ba57600080fd5b506102556104c93660046122b2565b6115f5565b3480156104da57600080fd5b5061028b611612565b3480156104ef57600080fd5b5061028b6104fe366004612358565b6118fb565b34801561050f57600080fd5b50610255611942565b34801561052457600080fd5b5061028b611951565b34801561053957600080fd5b5061028b611974565b34801561054e57600080fd5b506102cb61055d36600461245f565b611989565b34801561056e57600080fd5b506102cb61057d36600461250e565b6119d1565b34801561058e57600080fd5b506102cb61059d366004612406565b611a1b565b3480156105ae57600080fd5b506102cb6105bd36600461238f565b611a5f565b3480156105ce57600080fd5b50610255611aa5565b6102cb6105e536600461255f565b611ab4565b3480156105f657600080fd5b506102cb610605366004612406565b611bfc565b34801561061657600080fd5b50610255611c40565b6102cb61062d36600461258a565b611c4f565b34801561063e57600080fd5b5061028b611c9b565b34801561065357600080fd5b50610255611f00565b6009546001600160a01b031681565b600080606485069050600f816064811061068157fe5b015460405163d466e4eb60e01b81526001600160a01b039091169063d466e4eb906106b290879087906004016126c1565b602060405180830381600087803b1580156106cc57600080fd5b505af11580156106e0573d6000803e3d6000fd5b505050506040513d601f19601f820116820180604052508101906107049190612296565b50509392505050565b600080606485069050600f816064811061072357fe5b015460405163cf83544f60e01b81526001600160a01b039091169063cf83544f906106b290879087906004016126c1565b60006064860690506000600f826064811061076b57fe5b0154600080546001600160a01b03909216925082319161078e9083908a90611f0f565b90508585156107a7576107a48288600054611ffa565b90505b604051631942d56760e21b81526001600160a01b0385169063650b559c906107e09085908c9086908c90600090819081906004016128cd565b600060405180830381600087803b1580156107fa57600080fd5b505af115801561080e573d6000803e3d6000fd5b5050505050505050505050505050565b600080600c60009054906101000a90046001600160a01b03166001600160a01b03166318160ddd6040518163ffffffff1660e01b815260040160206040518083038186803b15801561086f57600080fd5b505afa158015610883573d6000803e3d6000fd5b505050506040513d601f19601f820116820180604052508101906108a791906122ca565b600c54600a546040516370a0823160e01b81529293506000926001600160a01b03928316926370a08231926108e192911690600401612689565b60206040518083038186803b1580156108f957600080fd5b505afa15801561090d573d6000803e3d6000fd5b505050506040513d601f19601f8201168201806040525081019061093191906122ca565b90506000600760009054906101000a90046001600160a01b03166001600160a01b0316633963e9806040518163ffffffff1660e01b815260040160206040518083038186803b15801561098357600080fd5b505afa158015610997573d6000803e3d6000fd5b505050506040513d601f19601f820116820180604052508101906109bb91906122ca565b90506000600860009054906101000a90046001600160a01b03166001600160a01b0316633963e9806040518163ffffffff1660e01b815260040160206040518083038186803b158015610a0d57600080fd5b505afa158015610a21573d6000803e3d6000fd5b505050506040513d601f19601f82011682018060405250810190610a4591906122ca565b90508082018414610a5d576000945050505050610ca9565b60095460408051635ed79bf560e11b815290516000926001600160a01b03169163bdaf37ea916004808301926020929190829003018186803b158015610aa257600080fd5b505afa158015610ab6573d6000803e3d6000fd5b505050506040513d601f19601f82011682018060405250810190610ada91906122ca565b90506000600e60009054906101000a90046001600160a01b03166001600160a01b0316631e2231436040518163ffffffff1660e01b815260040160206040518083038186803b158015610b2c57600080fd5b505afa158015610b40573d6000803e3d6000fd5b505050506040513d601f19601f82011682018060405250810190610b64919061227a565b905060005b6001600160a01b03821615610c8257600c546040516370a0823160e01b81526001600160a01b03909116906370a0823190610ba8908590600401612689565b60206040518083038186803b158015610bc057600080fd5b505afa158015610bd4573d6000803e3d6000fd5b505050506040513d601f19601f82011682018060405250810190610bf891906122ca565b600e5460405163765e015960e01b815291909201916001600160a01b03169063765e015990610c2b908590600401612689565b60206040518083038186803b158015610c4357600080fd5b505afa158015610c57573d6000803e3d6000fd5b505050506040513d601f19601f82011682018060405250810190610c7b919061227a565b9150610b69565b85818401018711610c9d576000975050505050505050610ca9565b60019750505050505050505b90565b6000606484069050600f8160648110610cc157fe5b0154604051634c36240b60e01b81526001600160a01b0390911690634c36240b90610cf29086908690600401612807565b600060405180830381600087803b158015610d0c57600080fd5b505af1158015610d20573d6000803e3d6000fd5b5050505050505050565b6008546001600160a01b031681565b6005546001600160a01b031681565b6000606482069050600f8160648110610d5d57fe5b0160009054906101000a90046001600160a01b03166001600160a01b0316634903a3dd6040518163ffffffff1660e01b8152600401600060405180830381600087803b158015610dac57600080fd5b505af1158015610dc0573d6000803e3d6000fd5b505050505050565b600d546040516391b7f5ed60e01b81526000916001600160a01b0316906391b7f5ed90610df99085906004016127fe565b602060405180830381600087803b158015610e1357600080fd5b505af1158015610e27573d6000803e3d6000fd5b505050506040513d601f19601f82011682018060405250810190610e4b9190612296565b905080610e5457fe5b5050565b6000606483069050600f8160648110610e6d57fe5b0154604051634d37261f60e01b81526001600160a01b0390911690634d37261f90610e9c908590600401612689565b600060405180830381600087803b158015610eb657600080fd5b505af1158015610eca573d6000803e3d6000fd5b50505050505050565b6000606485069050600f8160648110610ee857fe5b01546040516372d76c8760e01b81526001600160a01b03909116906372d76c8790610f1b9087908790879060040161281e565b600060405180830381600087803b158015610f3557600080fd5b505af1158015610f49573d6000803e3d6000fd5b505050505050505050565b60006064830690506000600f8260648110610f6b57fe5b0154600080546001600160a01b039092169250823191610f8e9083908790611f0f565b6040516332e859b960e01b81529091506001600160a01b038416906332e859b990610fc2908490600090819060040161281e565b600060405180830381600087803b158015610fdc57600080fd5b505af1158015610ff0573d6000803e3d6000fd5b50505050505050505050565b600080600d60009054906101000a90046001600160a01b03166001600160a01b03166398d5fdca6040518163ffffffff1660e01b815260040160206040518083038186803b15801561104d57600080fd5b505afa158015611061573d6000803e3d6000fd5b505050506040513d601f19601f8201168201806040525081019061108591906122ca565b905080611096576000915050610ca9565b600191505090565b6000606489069050600f81606481106110b357fe5b0154604051631942d56760e21b81526001600160a01b039091169063650b559c906110ee908b908b908b908b908b908b908b906004016128cd565b600060405180830381600087803b15801561110857600080fd5b505af115801561111c573d6000803e3d6000fd5b50505050505050505050505050565b600080600e60009054906101000a90046001600160a01b03166001600160a01b0316631e2231436040518163ffffffff1660e01b815260040160206040518083038186803b15801561117c57600080fd5b505afa158015611190573d6000803e3d6000fd5b505050506040513d601f19601f820116820180604052508101906111b4919061227a565b600e5460405163765e015960e01b81529192506000916001600160a01b039091169063765e0159906111ea908590600401612689565b60206040518083038186803b15801561120257600080fd5b505afa158015611216573d6000803e3d6000fd5b505050506040513d601f19601f8201168201806040525081019061123a919061227a565b90505b6001600160a01b0382161580159061125d57506001600160a01b03811615155b156113ff5760055460405163b0d8e18160e01b81526001600160a01b039091169063b0d8e18190611292908590600401612689565b60206040518083038186803b1580156112aa57600080fd5b505afa1580156112be573d6000803e3d6000fd5b505050506040513d601f19601f820116820180604052508101906112e291906122ca565b60055460405163b0d8e18160e01b81526001600160a01b039091169063b0d8e18190611312908590600401612689565b60206040518083038186803b15801561132a57600080fd5b505afa15801561133e573d6000803e3d6000fd5b505050506040513d601f19601f8201168201806040525081019061136291906122ca565b111561137357600092505050610ca9565b600e5460405163765e015960e01b815291925082916001600160a01b039091169063765e0159906113a8908490600401612689565b60206040518083038186803b1580156113c057600080fd5b505afa1580156113d4573d6000803e3d6000fd5b505050506040513d601f19601f820116820180604052508101906113f8919061227a565b905061123d565b60019250505090565b6000606485069050600f816064811061141d57fe5b01546040516332e859b960e01b81526001600160a01b03909116906332e859b990610f1b9087908790879060040161281e565b6004546001600160a01b031681565b6006546001600160a01b031681565b600080606486069050600f816064811061148457fe5b0154604051636ca5e76160e11b81526001600160a01b039091169063d94bcec2906114b79088908890889060040161269d565b602060405180830381600087803b1580156114d157600080fd5b505af11580156114e5573d6000803e3d6000fd5b505050506040513d601f19601f820116820180604052508101906115099190612296565b5050949350505050565b6000606487069050600f816064811061152857fe5b01546040516335b1017960e01b81526001600160a01b03909116906335b10179906115649089908990899089908990600090819060040161283d565b600060405180830381600087803b15801561157e57600080fd5b505af1158015611592573d6000803e3d6000fd5b5050505050505050505050565b6007546001600160a01b031681565b600080606485069050600f81606481106115c457fe5b0154604051636628d36160e11b81526001600160a01b039091169063cc51a6c2906106b290879087906004016126c1565b600f816064811061160257fe5b01546001600160a01b0316905081565b600080600e60009054906101000a90046001600160a01b03166001600160a01b0316631e2231436040518163ffffffff1660e01b815260040160206040518083038186803b15801561166357600080fd5b505afa158015611677573d6000803e3d6000fd5b505050506040513d601f19601f8201168201806040525081019061169b919061227a565b90505b6001600160a01b03811615611096576005546040516321e3780160e01b81526001916001600160a01b0316906321e37801906116de908590600401612689565b60206040518083038186803b1580156116f657600080fd5b505afa15801561170a573d6000803e3d6000fd5b505050506040513d601f19601f8201168201806040525081019061172e91906122ca565b600481111561173957fe5b600481111561174457fe5b14611753576000915050610ca9565b60025460055460405163d66a255360e01b81526001600160a01b039091169063d66a255390611786908590600401612689565b60206040518083038186803b15801561179e57600080fd5b505afa1580156117b2573d6000803e3d6000fd5b505050506040513d601f19601f820116820180604052508101906117d691906122ca565b10156117e6576000915050610ca9565b600554604051630326771360e51b81526001600160a01b03909116906364cee26090611816908490600401612689565b60206040518083038186803b15801561182e57600080fd5b505afa158015611842573d6000803e3d6000fd5b505050506040513d601f19601f8201168201806040525081019061186691906122ca565b611874576000915050610ca9565b600e5460405163765e015960e01b81526001600160a01b039091169063765e0159906118a4908490600401612689565b60206040518083038186803b1580156118bc57600080fd5b505afa1580156118d0573d6000803e3d6000fd5b505050506040513d601f19601f820116820180604052508101906118f4919061227a565b905061169e565b600080606485069050600f816064811061191157fe5b015460405163390b5f2760e01b81526001600160a01b039091169063390b5f27906106b290879087906004016126c1565b6003546001600160a01b031681565b6007546000906001600160a01b0316311561196e57506000610ca9565b50600190565b60006014607354111561196e57506000610ca9565b6000606485069050600f816064811061199e57fe5b0154604051633ddd87af60e11b81526001600160a01b0390911690637bbb0f5e90610f1b9087908790879060040161281e565b6000606486069050600f81606481106119e657fe5b0154604051630666566560e31b81526001600160a01b0390911690633332b32890610fc290889088908890889060040161287c565b6000606483069050600f8160648110611a3057fe5b015460405163f47a1ea760e01b81526001600160a01b039091169063f47a1ea790610e9c9085906004016127fe565b6000606484069050600f8160648110611a7457fe5b0154604051634afbac5160e01b81526001600160a01b0390911690634afbac5190610cf290869086906004016126da565b600b546001600160a01b031681565b60006064840690506000600f8260648110611acb57fe5b01546001546001600160a01b039091169150813190600090611af09083908890611f0f565b90506000611b018287600154611ffa565b604051639113473160e01b81529091506001600160a01b03851690639113473190611b399085908590600090819081906004016128a1565b600060405180830381600087803b158015611b5357600080fd5b505af1158015611b67573d6000803e3d6000fd5b50505050600560009054906101000a90046001600160a01b03166001600160a01b03166349eefeee6040518163ffffffff1660e01b815260040160206040518083038186803b158015611bb957600080fd5b505afa158015611bcd573d6000803e3d6000fd5b505050506040513d601f19601f82011682018060405250810190611bf191906122ca565b6073819055610d2057fe5b6000606483069050600f8160648110611c1157fe5b015460405163320d84db60e11b81526001600160a01b039091169063641b09b690610e9c9085906004016127fe565b600c546001600160a01b031681565b6000606487069050600f8160648110611c6457fe5b0154604051639113473160e01b81526001600160a01b039091169063911347319061156490899089908990899089906004016128a1565b6005546000906001600160a01b03163115611cb857506000610ca9565b6006546001600160a01b03163115611cd257506000610ca9565b600760009054906101000a90046001600160a01b03166001600160a01b03166314f6c3be6040518163ffffffff1660e01b815260040160206040518083038186803b158015611d2057600080fd5b505afa158015611d34573d6000803e3d6000fd5b505050506040513d601f19601f82011682018060405250810190611d5891906122ca565b6007546001600160a01b03163114611d7257506000610ca9565b600860009054906101000a90046001600160a01b03166001600160a01b03166314f6c3be6040518163ffffffff1660e01b815260040160206040518083038186803b158015611dc057600080fd5b505afa158015611dd4573d6000803e3d6000fd5b505050506040513d601f19601f82011682018060405250810190611df891906122ca565b6008546001600160a01b03163114611e1257506000610ca9565b600960009054906101000a90046001600160a01b03166001600160a01b03166314f6c3be6040518163ffffffff1660e01b815260040160206040518083038186803b158015611e6057600080fd5b505afa158015611e74573d6000803e3d6000fd5b505050506040513d601f19601f82011682018060405250810190611e9891906122ca565b6009546001600160a01b03163114611eb257506000610ca9565b600c546001600160a01b03163115611ecc57506000610ca9565b600d546001600160a01b03163115611ee657506000610ca9565b600e546001600160a01b0316311561196e57506000610ca9565b600a546001600160a01b031681565b600080600d60009054906101000a90046001600160a01b03166001600160a01b03166398d5fdca6040518163ffffffff1660e01b815260040160206040518083038186803b158015611f6057600080fd5b505afa158015611f74573d6000803e3d6000fd5b505050506040513d601f19601f82011682018060405250810190611f9891906122ca565b905060008111611fa757600080fd5b6000611fce82611fc2600254876120f290919063ffffffff16565b9063ffffffff61213e16565b9050808611611fdc57600080fd5b60008187038681611fe957fe5b0691909101925050505b9392505050565b600080600d60009054906101000a90046001600160a01b03166001600160a01b03166398d5fdca6040518163ffffffff1660e01b815260040160206040518083038186803b15801561204b57600080fd5b505afa15801561205f573d6000803e3d6000fd5b505050506040513d601f19601f8201168201806040525081019061208391906122ca565b600254909150849060009061209f90839063ffffffff61218016565b905060006120ae8883866121a5565b9050858110156120e6576120cc86611fc28a8763ffffffff6120f216565b91506120e3600254836121d590919063ffffffff16565b92505b50909695505050505050565b60008261210157506000612138565b8282028284828161210e57fe5b04146121355760405162461bcd60e51b815260040161212c906127bd565b60405180910390fd5b90505b92915050565b600061213583836040518060400160405280601a81526020017f536166654d6174683a206469766973696f6e206279207a65726f000000000000815250612217565b6000828201838110156121355760405162461bcd60e51b815260040161212c90612786565b600082156121cc5760006121c384611fc2878663ffffffff6120f216565b9150611ff39050565b50600019611ff3565b600061213583836040518060400160405280601e81526020017f536166654d6174683a207375627472616374696f6e206f766572666c6f77000081525061224e565b600081836122385760405162461bcd60e51b815260040161212c9190612733565b50600083858161224457fe5b0495945050505050565b600081848411156122725760405162461bcd60e51b815260040161212c9190612733565b505050900390565b60006020828403121561228b578081fd5b815161213581612909565b6000602082840312156122a7578081fd5b815161213581612921565b6000602082840312156122c3578081fd5b5035919050565b6000602082840312156122db578081fd5b5051919050565b600080604083850312156122f4578081fd5b82359150602083013561230681612909565b809150509250929050565b60008060008060808587031215612326578182fd5b84359350602085013561233881612909565b9250604085013561234881612909565b9396929550929360600135925050565b60008060006060848603121561236c578283fd5b83359250602084013561237e81612909565b929592945050506040919091013590565b6000806000604084860312156123a3578283fd5b83359250602084013567ffffffffffffffff808211156123c1578384fd5b81860187601f8201126123d2578485fd5b80359250818311156123e2578485fd5b87602080850283010111156123f5578485fd5b949760209095019650909450505050565b60008060408385031215612418578182fd5b50508035926020909101359150565b60008060006060848603121561243b578283fd5b8335925060208401359150604084013561245481612909565b809150509250925092565b60008060008060808587031215612474578384fd5b8435935060208501359250604085013561248d81612909565b9150606085013561249d81612909565b939692955090935050565b60008060008060008060c087890312156124c0578182fd5b863595506020870135945060408701356124d981612909565b935060608701356124e981612909565b925060808701356124f981612909565b8092505060a087013590509295509295509295565b600080600080600060a08688031215612525578081fd5b8535945060208601359350604086013561253e81612909565b9250606086013561254e81612909565b949793965091946080013592915050565b600080600060608486031215612573578081fd5b505081359360208301359350604090920135919050565b60008060008060008060c087890312156125a2578384fd5b86359550602087013594506040870135935060608701356124e981612909565b600080600080600060a086880312156125d9578283fd5b85359450602086013593506040860135925060608601359150608086013561260081612921565b809150509295509295909350565b600080600080600080600080610100898b03121561262a578586fd5b88359750602089013596506040890135955060608901359450608089013561265181612921565b935060a089013561266181612909565b925060c089013561267181612909565b8092505060e089013590509295985092959890939650565b6001600160a01b0391909116815260200190565b6001600160a01b039384168152919092166020820152604081019190915260600190565b6001600160a01b03929092168252602082015260400190565b60208082528181018390526000908460408401835b8681101561271d57823561270281612909565b6001600160a01b0316825291830191908301906001016126ef565b509695505050505050565b901515815260200190565b6000602080835283518082850152825b8181101561275f57858101830151858201604001528201612743565b818111156127705783604083870101525b50601f01601f1916929092016040019392505050565b6020808252601b908201527f536166654d6174683a206164646974696f6e206f766572666c6f770000000000604082015260600190565b60208082526021908201527f536166654d6174683a206d756c7469706c69636174696f6e206f766572666c6f6040820152607760f81b606082015260800190565b90815260200190565b9182526001600160a01b0316602082015260400190565b9283526001600160a01b03918216602084015216604082015260600190565b9687526001600160a01b0395861660208801529385166040870152919093166060850152608084019290925260a083019190915260c082015260e00190565b9384526001600160a01b03928316602085015291166040830152606082015260800190565b94855260208501939093526001600160a01b039182166040850152166060830152608082015260a00190565b9687526020870195909552604086019390935290151560608501526001600160a01b0390811660808501521660a083015260c082015260e00190565b6001600160a01b038116811461291e57600080fd5b50565b801515811461291e57600080fdfea2646970667358221220eb7ad9d5b909f9e648eae8c7f89922a08c7cbcabc1ba72a37e06f9184fc06c6364736f6c634300060b0033608060405234801561001057600080fd5b50610023336001600160e01b0361002816565b610110565b6001600160a01b03811661006d5760405162461bcd60e51b81526004018080602001828103825260228152602001806108e66022913960400191505060405180910390fd5b6001600160a01b0381166100886001600160e01b036100e616565b6001600160a01b03167f8be0079c531659141344cd1fd0a4f28419497f9722a3daafe3b4186f6b6457e060405160405180910390a3604080517035b2bc9737bbb730b136329737bbb732b960791b8152905190819003601101902055565b604080517035b2bc9737bbb730b136329737bbb732b960791b815290519081900360110190205490565b6107c78061011f6000396000f3fe608060405234801561001057600080fd5b50600436106100e05760003560e01c80636030cc8c116100875780636030cc8c146101965780636d454561146101b3578063794e5724146101d057806380038a0b146101d85780638129fc1c146101f5578063893d20e8146101fd578063a20baee614610221578063f92d343314610229576100e0565b806313af4035146100e5578063240926691461010d57806328d28b5b146101275780632e2465f81461012f578063385a128f1461014c5780634139ad60146101695780634870dd9a146101865780635733d58f1461018e575b600080fd5b61010b600480360360208110156100fb57600080fd5b50356001600160a01b0316610231565b005b610115610298565b60408051918252519081900360200190f35b61011561029e565b61010b6004803603602081101561014557600080fd5b50356102a4565b61010b6004803603602081101561016257600080fd5b5035610304565b61010b6004803603602081101561017f57600080fd5b5035610364565b6101156103c4565b6101156103ca565b61010b600480360360208110156101ac57600080fd5b50356103d0565b61010b600480360360208110156101c957600080fd5b5035610430565b610115610490565b61010b600480360360208110156101ee57600080fd5b5035610496565b61010b6104f6565b61020561062a565b604080516001600160a01b039092168252519081900360200190f35b610115610654565b610115610660565b61023961062a565b6001600160a01b0316336001600160a01b03161461028c576040805162461bcd60e51b81526020600482015260176024820152600080516020610722833981519152604482015290519081900360640190fd5b61029581610666565b50565b60385481565b60375481565b6102ac61062a565b6001600160a01b0316336001600160a01b0316146102ff576040805162461bcd60e51b81526020600482015260176024820152600080516020610722833981519152604482015290519081900360640190fd5b603655565b61030c61062a565b6001600160a01b0316336001600160a01b03161461035f576040805162461bcd60e51b81526020600482015260176024820152600080516020610722833981519152604482015290519081900360640190fd5b603355565b61036c61062a565b6001600160a01b0316336001600160a01b0316146103bf576040805162461bcd60e51b81526020600482015260176024820152600080516020610722833981519152604482015290519081900360640190fd5b603455565b60355481565b60345481565b6103d861062a565b6001600160a01b0316336001600160a01b03161461042b576040805162461bcd60e51b81526020600482015260176024820152600080516020610722833981519152604482015290519081900360640190fd5b603755565b61043861062a565b6001600160a01b0316336001600160a01b03161461048b576040805162461bcd60e51b81526020600482015260176024820152600080516020610722833981519152604482015290519081900360640190fd5b603555565b60335481565b61049e61062a565b6001600160a01b0316336001600160a01b0316146104f1576040805162461bcd60e51b81526020600482015260176024820152600080516020610722833981519152604482015290519081900360640190fd5b603855565b600054610100900460ff168061050f575061050f61071b565b8061051d575060005460ff16155b6105585760405162461bcd60e51b815260040180806020018281038252602e815260200180610764602e913960400191505060405180910390fd5b600054610100900460ff16158015610583576000805460ff1961ff0019909116610100171660011790555b61058b61062a565b6001600160a01b0316336001600160a01b0316146105de576040805162461bcd60e51b81526020600482015260176024820152600080516020610722833981519152604482015290519081900360640190fd5b670f43fc2c04ee00006033556714d1120d7b16000060345560c86035556611c37937e08000603681905560375566b1a2bc2ec500006038558015610295576000805461ff001916905550565b604080517035b2bc9737bbb730b136329737bbb732b960791b815290519081900360110190205490565b670de0b6b3a764000081565b60365481565b6001600160a01b0381166106ab5760405162461bcd60e51b81526004018080602001828103825260228152602001806107426022913960400191505060405180910390fd5b806001600160a01b03166106bd61062a565b6001600160a01b03167f8be0079c531659141344cd1fd0a4f28419497f9722a3daafe3b4186f6b6457e060405160405180910390a3604080517035b2bc9737bbb730b136329737bbb732b960791b8152905190819003601101902055565b303b159056fe4f776e61626c653a3a206163636573732064656e6965640000000000000000004f776e61626c653a3a7365744f776e65723a20696e76616c69642061646472657373436f6e747261637420696e7374616e63652068617320616c7265616479206265656e20696e697469616c697a6564a26469706673582212209b1fc4ebe36b013e04c33c8b1574ab765154511a9b95fe7e760cf2d686fd7abb64736f6c634300060b00334f776e61626c653a3a7365744f776e65723a20696e76616c6964206164647265737360a06040523480156200001157600080fd5b50604051620037ec380380620037ec833981016040819052620000349162000118565b8062000049336001600160e01b036200005316565b6080525062000190565b6001600160a01b038116620000855760405162461bcd60e51b81526004016200007c906200014e565b60405180910390fd5b6001600160a01b038116620000a26001600160e01b03620000f716565b6001600160a01b03167f8be0079c531659141344cd1fd0a4f28419497f9722a3daafe3b4186f6b6457e060405160405180910390a36000604051620000e79062000131565b6040519081900390209190915550565b600080604051620001089062000131565b6040519081900390205492915050565b6000602082840312156200012a578081fd5b5051919050565b7035b2bc9737bbb730b136329737bbb732b960791b815260110190565b60208082526022908201527f4f776e61626c653a3a7365744f776e65723a20696e76616c6964206164647265604082015261737360f01b606082015260800190565b60805161363c620001b060003980610aa952806119d6525061363c6000f3fe608060405234801561001057600080fd5b50600436106102745760003560e01c8063797250e311610151578063ae7bec19116100c3578063bf9befb111610087578063bf9befb114610455578063c35bc5501461045d578063c7b5548114610465578063d380a37c1461046d578063d815e8e914610475578063e056e9181461047d57610274565b8063ae7bec1914610422578063ae9187541461042a578063b7f8cf9b14610432578063bcd375261461043a578063be4b03341461044d57610274565b8063893d20e811610115578063893d20e8146103ed57806396d711ff146103f55780639dd233d2146103fd5780639f07067014610405578063a20baee614610392578063a3f4df7e1461040d57610274565b8063797250e3146103c55780637cf54e40146103cd5780637f7dde4a146103d5578063807d138d146103dd578063887105d3146103e557610274565b806342ccf1e4116101ea578063716c47e6116101ae578063716c47e61461038a57806372fe25aa14610392578063741bef1a1461039a578063756b253e146103a2578063759b3034146103b5578063795d26c3146103bd57610274565b806342ccf1e4146103305780634a767d681461034357806361ec893d146103565780636b4449521461035e5780636ef643381461036657610274565b80631a59a50e1161023c5780631a59a50e146102f55780631bf43555146103085780631f68f20a1461031057806331c903b0146103185780633a128595146103205780633cc742251461032857610274565b806305b6f5ca14610279578063071a75411461028e5780630d43e8ad146102ac57806313af4035146102c15780631673c79a146102d4575b600080fd5b61028c610287366004612ec7565b61049d565b005b610296610558565b6040516102a39190613554565b60405180910390f35b6102b461055d565b6040516102a39190612f8f565b61028c6102cf366004612da7565b61056c565b6102e76102e2366004612da7565b6105b9565b6040516102a392919061355d565b610296610303366004612da7565b6105d2565b61029661069a565b6102966106a7565b6102966106ad565b6102b46106bf565b6102b46106ce565b61029661033e366004612da7565b6106dd565b610296610351366004612ddf565b61070e565b610296610739565b61029661073e565b610379610374366004612da7565b610744565b6040516102a395949392919061356b565b6102b461077e565b61029661078d565b6102b4610799565b6102b46103b0366004612e2a565b6107a8565b6102966107cf565b6102966107dc565b6102966108fb565b6102b4610901565b6102b4610910565b61029661091f565b610296610925565b6102b46109f4565b610296610a13565b610296610a19565b6102b4610a1f565b610415610a2e565b6040516102a391906130a4565b6102b4610a56565b6102b4610a65565b6102b4610a74565b61028c610448366004612e5a565b610a83565b610296610a9b565b610296610aa1565b610296610aa7565b610296610acb565b610296610ad7565b6102b4610add565b61049061048b366004612da7565b610aec565b6040516102a3919061306d565b600061053c600560009054906101000a90046001600160a01b03166001600160a01b031663e9fc34616040518163ffffffff1660e01b815260040160206040518083038186803b1580156104f057600080fd5b505afa158015610504573d6000803e3d6000fd5b505050506040513d601f19601f820116820180604052508101906105289190612dc3565b6009548b906001600160a01b031685610b4a565b905061054d81898989898989610dfb565b505050505050505050565b600281565b600c546001600160a01b031681565b6105746109f4565b6001600160a01b0316336001600160a01b0316146105ad5760405162461bcd60e51b81526004016105a49061335f565b60405180910390fd5b6105b6816115c2565b50565b6016602052600090815260409020805460019091015482565b6001600160a01b0381166000908152601660205260408120546014548290610600908363ffffffff61164d16565b9050801580610639575060016001600160a01b03851660009081526010602052604090206003015460ff16600481111561063657fe5b14155b1561064957600092505050610695565b6001600160a01b0384166000908152601060205260408120600201549061068e670de0b6b3a7640000610682848663ffffffff61169616565b9063ffffffff6116d016565b9450505050505b919050565b6809c2007651b250000081565b600e5481565b60006106ba600e54611712565b905090565b600b546001600160a01b031681565b6001546001600160a01b031681565b6001600160a01b0381166000908152601660205260408120600101546015548290610600908363ffffffff61164d16565b600080600061071c856117bb565b91509150600061072d838387611841565b93505050505b92915050565b603c81565b60195481565b60106020526000908152604090208054600182015460028301546003909301549192909160ff81169061010090046001600160801b031685565b6004546001600160a01b031681565b670de0b6b3a764000081565b6002546001600160a01b031681565b601781815481106107b557fe5b6000918252602090912001546001600160a01b0316905081565b6801158e460913d0000081565b60008054604080516272c7d360e71b8152905183926001600160a01b031691633963e980916004808301926020929190829003018186803b15801561082057600080fd5b505afa158015610834573d6000803e3d6000fd5b505050506040513d601f19601f820116820180604052508101906108589190612e42565b90506000600160009054906101000a90046001600160a01b03166001600160a01b0316633963e9806040518163ffffffff1660e01b815260040160206040518083038186803b1580156108aa57600080fd5b505afa1580156108be573d6000803e3d6000fd5b505050506040513d601f19601f820116820180604052508101906108e29190612e42565b90506108f4828263ffffffff61187316565b9250505090565b60185481565b600a546001600160a01b031681565b6000546001600160a01b031681565b60125481565b6000805460408051630a7b61df60e11b8152905183926001600160a01b0316916314f6c3be916004808301926020929190829003018186803b15801561096a57600080fd5b505afa15801561097e573d6000803e3d6000fd5b505050506040513d601f19601f820116820180604052508101906109a29190612e42565b90506000600160009054906101000a90046001600160a01b03166001600160a01b03166314f6c3be6040518163ffffffff1660e01b815260040160206040518083038186803b1580156108aa57600080fd5b600080604051610a0390612f72565b6040519081900390205492915050565b60135481565b60145481565b6003546001600160a01b031681565b6040518060400160405280600c81526020016b2a3937bb32a6b0b730b3b2b960a11b81525081565b6006546001600160a01b031681565b600d546001600160a01b031681565b6005546001600160a01b031681565b610a9287878787878787610dfb565b50505050505050565b60155481565b60115481565b7f000000000000000000000000000000000000000000000000000000000000000081565b670ddd4b8c6c7d70d881565b600f5481565b6009546001600160a01b031681565b600060016001600160a01b03831660009081526010602052604090206003015460ff166004811115610b1a57fe5b14610b2757506000610695565b506014546001600160a01b03821660009081526016602052604090205410919050565b600080856001600160a01b03166321df0da76040518163ffffffff1660e01b815260040160206040518083038186803b158015610b8657600080fd5b505afa158015610b9a573d6000803e3d6000fd5b505050506040513d601f19601f82011682018060405250810190610bbe9190612dc3565b90506000816001600160a01b03166370a08231306040518263ffffffff1660e01b8152600401610bee9190612f8f565b60206040518083038186803b158015610c0657600080fd5b505afa158015610c1a573d6000803e3d6000fd5b505050506040513d601f19601f82011682018060405250810190610c3e9190612e42565b9050306001600160a01b03831663605629d633838a8935610c6560408c0160208d01612f51565b8b604001358c606001356040518863ffffffff1660e01b8152600401610c919796959493929190612fa3565b600060405180830381600087803b158015610cab57600080fd5b505af1158015610cbf573d6000803e3d6000fd5b5050505086610d5083856001600160a01b03166370a08231856040518263ffffffff1660e01b8152600401610cf49190612f8f565b60206040518083038186803b158015610d0c57600080fd5b505afa158015610d20573d6000803e3d6000fd5b505050506040513d601f19601f82011682018060405250810190610d449190612e42565b9063ffffffff61164d16565b14610d6d5760405162461bcd60e51b81526004016105a49061316b565b60405163fb2c922360e01b81526001600160a01b0389169063fb2c922390610d9d9089908b90339060040161301f565b602060405180830381600087803b158015610db757600080fd5b505af1158015610dcb573d6000803e3d6000fd5b505050506040513d601f19601f82011682018060405250810190610def9190612e42565b98975050505050505050565b610e03612d03565b506040805160e0810182526000546001600160a01b03908116825260015481166020830152600954811692820192909252600b5482166060820152600d5482166080820152600854821660a082015260075490911660c0820152610e65612d3f565b610e6e83611898565b610e76611951565b600260009054906101000a90046001600160a01b03166001600160a01b0316630fdb11cf6040518163ffffffff1660e01b8152600401602060405180830381600087803b158015610ec657600080fd5b505af1158015610eda573d6000803e3d6000fd5b505050506040513d601f19601f82011682018060405250810190610efe9190612e42565b60c08201819052610f0e90611a1f565b610f1789611acc565b610f268260400151338b611aec565b610f2e6107dc565b60e0820181905260408084015190516370a0823160e01b81526001600160a01b03909116906370a0823190610f67903390600401612f8f565b60206040518083038186803b158015610f7f57600080fd5b505afa158015610f93573d6000803e3d6000fd5b505050506040513d601f19601f82011682018060405250810190610fb79190612e42565b1115610fbf57fe5b888152608082015160c0820151600091610fda918b90611b8d565b15610fe6575087611193565b82608001516001600160a01b0316634d6228316040518163ffffffff1660e01b815260040160206040518083038186803b15801561102357600080fd5b505afa158015611037573d6000803e3d6000fd5b505050506040513d601f19601f8201168201806040525081019061105b9190612dc3565b90505b6001600160a01b038116158015906111075750600360009054906101000a90046001600160a01b03166001600160a01b031663794e57246040518163ffffffff1660e01b815260040160206040518083038186803b1580156110bf57600080fd5b505afa1580156110d3573d6000803e3d6000fd5b505050506040513d601f19601f820116820180604052508101906110f79190612e42565b611105828460c0015161070e565b105b156111935782608001516001600160a01b031663b72703ac826040518263ffffffff1660e01b815260040161113c9190612f8f565b60206040518083038186803b15801561115457600080fd5b505afa158015611168573d6000803e3d6000fd5b505050506040513d601f19601f8201168201806040525081019061118c9190612dc3565b905061105e565b8461119e5760001994505b6001600160a01b038116158015906111b65750815115155b80156111c25750600085115b156112f0576080830151604051632dc9c0eb60e21b8152600019909601956000916001600160a01b03169063b72703ac90611201908590600401612f8f565b60206040518083038186803b15801561121957600080fd5b505afa15801561122d573d6000803e3d6000fd5b505050506040513d601f19601f820116820180604052508101906112519190612dc3565b90506112668460000151856020015184611df0565b61126e612d84565b611285858486600001518760c001518e8e8e611f01565b90508060400151156112985750506112f0565b805160208501516112ae9163ffffffff61187316565b60208086019190915281015160408501516112ce9163ffffffff61187316565b6040850152805184516112e69163ffffffff61164d16565b845250905061119e565b60008260400151116113145760405162461bcd60e51b81526004016105a4906131b4565b61132b82604001518360c001518460e00151612175565b50611339826040015161222c565b60608301819052604083015161135091908661223f565b8251600c5460608401516040516364a197f360e01b81526001600160a01b03938416936364a197f39361138893911691600401612fe4565b600060405180830381600087803b1580156113a257600080fd5b505af11580156113b6573d6000803e3d6000fd5b50505050600c60009054906101000a90046001600160a01b03166001600160a01b031663bb57ad206040518163ffffffff1660e01b8152600401600060405180830381600087803b15801561140a57600080fd5b505af115801561141e573d6000803e3d6000fd5b50505050606082015160408301516114359161164d565b60808301526020820151604080840151606085015191517f43a3f4082a4dbc33d78e317d2497d3a730bc7fc3574159dcea1056e62e5d9ad89361147b938f9391926135ab565b60405180910390a182604001516001600160a01b0316639dc29fac3384602001516040518363ffffffff1660e01b81526004016114b9929190612fe4565b600060405180830381600087803b1580156114d357600080fd5b505af11580156114e7573d6000803e3d6000fd5b50508451602085015160405163121cbc4d60e11b81526001600160a01b039092169350632439789a925061151d91600401613554565b600060405180830381600087803b15801561153757600080fd5b505af115801561154b573d6000803e3d6000fd5b5050845160808501516040516364a197f360e01b81526001600160a01b0390921693506364a197f3925061158491339190600401612fe4565b600060405180830381600087803b15801561159e57600080fd5b505af11580156115b2573d6000803e3d6000fd5b5050505050505050505050505050565b6001600160a01b0381166115e85760405162461bcd60e51b81526004016105a490613234565b806001600160a01b03166115fa6109f4565b6001600160a01b03167f8be0079c531659141344cd1fd0a4f28419497f9722a3daafe3b4186f6b6457e060405160405180910390a3600060405161163d90612f72565b6040519081900390209190915550565b600061168f83836040518060400160405280601e81526020017f536166654d6174683a207375627472616374696f6e206f766572666c6f770000815250612285565b9392505050565b6000826116a557506000610733565b828202828482816116b257fe5b041461168f5760405162461bcd60e51b81526004016105a49061331e565b600061168f83836040518060400160405280601a81526020017f536166654d6174683a206469766973696f6e206279207a65726f0000000000008152506122b1565b60006107336117ad83600360009054906101000a90046001600160a01b03166001600160a01b03166328d28b5b6040518163ffffffff1660e01b815260040160206040518083038186803b15801561176957600080fd5b505afa15801561177d573d6000803e3d6000fd5b505050506040513d601f19601f820116820180604052508101906117a19190612e42565b9063ffffffff61187316565b670de0b6b3a76400006122e8565b60008060006117c9846105d2565b905060006117d6856106dd565b6001600160a01b03861660009081526010602052604081206001015491925090611806908463ffffffff61187316565b6001600160a01b03871660009081526010602052604081205491925090611833908463ffffffff61187316565b919550909350505050915091565b6000821561186857600061185f84610682878663ffffffff61169616565b915061168f9050565b506000199392505050565b60008282018381101561168f5760405162461bcd60e51b81526004016105a4906131fd565b600360009054906101000a90046001600160a01b03166001600160a01b03166328d28b5b6040518163ffffffff1660e01b815260040160206040518083038186803b1580156118e657600080fd5b505afa1580156118fa573d6000803e3d6000fd5b505050506040513d601f19601f8201168201806040525081019061191e9190612e42565b81101580156119355750670de0b6b3a76400008111155b6105b65760405162461bcd60e51b81526004016105a490613434565b600a5460408051631e425be160e11b815290516000926001600160a01b031691633c84b7c2916004808301926020929190829003018186803b15801561199657600080fd5b505afa1580156119aa573d6000803e3d6000fd5b505050506040513d601f19601f820116820180604052508101906119ce9190612e42565b9050611a00817f000000000000000000000000000000000000000000000000000000000000000063ffffffff61187316565b4210156105b65760405162461bcd60e51b81526004016105a4906132c0565b600360009054906101000a90046001600160a01b03166001600160a01b031663794e57246040518163ffffffff1660e01b815260040160206040518083038186803b158015611a6d57600080fd5b505afa158015611a81573d6000803e3d6000fd5b505050506040513d601f19601f82011682018060405250810190611aa59190612e42565b611aae826122fe565b10156105b65760405162461bcd60e51b81526004016105a490613484565b600081116105b65760405162461bcd60e51b81526004016105a490613390565b6040516370a0823160e01b815281906001600160a01b038516906370a0823190611b1a908690600401612f8f565b60206040518083038186803b158015611b3257600080fd5b505afa158015611b46573d6000803e3d6000fd5b505050506040513d601f19601f82011682018060405250810190611b6a9190612e42565b1015611b885760405162461bcd60e51b81526004016105a4906130f7565b505050565b60006001600160a01b0383161580611c1e5750604051630bb7c8fd60e31b81526001600160a01b03851690635dbe47e890611bcc908690600401612f8f565b60206040518083038186803b158015611be457600080fd5b505afa158015611bf8573d6000803e3d6000fd5b505050506040513d601f19601f82011682018060405250810190611c1c9190612e0a565b155b80611cb65750600360009054906101000a90046001600160a01b03166001600160a01b031663794e57246040518163ffffffff1660e01b815260040160206040518083038186803b158015611c7257600080fd5b505afa158015611c86573d6000803e3d6000fd5b505050506040513d601f19601f82011682018060405250810190611caa9190612e42565b611cb4848461070e565b105b15611cc35750600061168f565b60405163765e015960e01b81526000906001600160a01b0386169063765e015990611cf2908790600401612f8f565b60206040518083038186803b158015611d0a57600080fd5b505afa158015611d1e573d6000803e3d6000fd5b505050506040513d601f19601f82011682018060405250810190611d429190612dc3565b90506001600160a01b0381161580611de75750600360009054906101000a90046001600160a01b03166001600160a01b031663794e57246040518163ffffffff1660e01b815260040160206040518083038186803b158015611da357600080fd5b505afa158015611db7573d6000803e3d6000fd5b505050506040513d601f19601f82011682018060405250810190611ddb9190612e42565b611de5828561070e565b105b95945050505050565b611df981610aec565b15611b8857611e078161232a565b6000611e12826105d2565b90506000611e1f836106dd565b6001600160a01b038416600090815260106020526040902060010154909150611e4e908363ffffffff61187316565b6001600160a01b0384166000908152601060205260409020600181019190915554611e7f908263ffffffff61187316565b6001600160a01b038416600090815260106020526040902055611ea183612373565b611ead858583856123db565b6001600160a01b0383166000818152601060205260408082208054600182015460029092015492516000805160206135e783398151915294611ef29492939291613078565b60405180910390a25050505050565b611f09612d84565b6001600160a01b038716600090815260106020526040902054611f46908790611f41906801158e460913d0000063ffffffff61164d16565b6122e8565b808252611f6790869061068290670de0b6b3a764000063ffffffff61169616565b60208083019190915281516001600160a01b038916600090815260109092526040822054611f9a9163ffffffff61164d16565b6020808401516001600160a01b038b166000908152601090925260408220600101549293509091611fd09163ffffffff61164d16565b90506801158e460913d0000082141561204957611fec896124fb565b611ff789600461254b565b61200c8a8a6801158e460913d0000084612657565b886001600160a01b03166000805160206135e78339815191526000806000600360405161203c9493929190613078565b60405180910390a2612167565b600061205582846127ba565b9050848114158061207657506809c2007651b2500000612074846127ef565b105b1561208a575050600160408301525061216a565b8a608001516001600160a01b0316632be212608b838a8a6040518563ffffffff1660e01b81526004016120c09493929190613042565b600060405180830381600087803b1580156120da57600080fd5b505af11580156120ee573d6000803e3d6000fd5b5050506001600160a01b038b1660009081526010602052604090208481556001018390555061211c8a61280a565b506001600160a01b038a16600081815260106020526040908190206002015490516000805160206135e78339815191529161215d9187918791600390613078565b60405180910390a2505b50505b979650505050505050565b6000806121806128b1565b9050600061219884610682888863ffffffff61169616565b905060006121bd6121b083600263ffffffff6116d016565b849063ffffffff61187316565b90506121d181670de0b6b3a76400006122e8565b9050600081116121dd57fe5b600e8190556040517fc454ee9b76c52f782a256af821b857ca6e125d1e3333bcede402fec2bed9600c90612212908390613554565b60405180910390a16122226128f5565b9695505050505050565b60006107336122396106ad565b8361294a565b600061225d8361068286670de0b6b3a764000063ffffffff61169616565b90508181111561227f5760405162461bcd60e51b81526004016105a4906134ce565b50505050565b600081848411156122a95760405162461bcd60e51b81526004016105a491906130a4565b505050900390565b600081836122d25760405162461bcd60e51b81526004016105a491906130a4565b5060008385816122de57fe5b0495945050505050565b60008183106122f7578161168f565b5090919050565b600080612309610925565b905060006123156107dc565b9050612322828286611841565b949350505050565b60016001600160a01b03821660009081526010602052604090206003015460ff16600481111561235657fe5b146105b65760405162461bcd60e51b81526004016105a490613505565b601480546001600160a01b038316600090815260166020526040908190209182556015546001909201829055915491517fc437f324d85e369394148dd9d62f98f534b382e01ed3dd2eb98138fb6d3ab49a926123d092909161355d565b60405180910390a150565b60405163121cbc4d60e11b81526001600160a01b03841690632439789a90612407908590600401613554565b600060405180830381600087803b15801561242157600080fd5b505af1158015612435573d6000803e3d6000fd5b505060405163f2e91d7160e01b81526001600160a01b038716925063f2e91d719150612465908590600401613554565b600060405180830381600087803b15801561247f57600080fd5b505af1158015612493573d6000803e3d6000fd5b505060405163be41205f60e01b81526001600160a01b038616925063be41205f91506124c3908490600401613554565b600060405180830381600087803b1580156124dd57600080fd5b505af11580156124f1573d6000803e3d6000fd5b5050505050505050565b6001600160a01b03811660009081526010602052604090206002015460115461252a908263ffffffff61164d16565b601155506001600160a01b0316600090815260106020526040812060020155565b600081600481111561255957fe5b141580156125735750600181600481111561257057fe5b14155b61257957fe5b6017546125858161298a565b6001600160a01b0383166000908152601060205260409020600301805483919060ff191660018360048111156125b757fe5b02179055506001600160a01b03831660009081526010602090815260408083206001808201859055908490556016909252822082815501556125f98382612a30565b600d54604051631484968760e11b81526001600160a01b03909116906329092d0e90612629908690600401612f8f565b600060405180830381600087803b15801561264357600080fd5b505af1158015610a92573d6000803e3d6000fd5b6040808501516007549151632770a7eb60e21b81526001600160a01b0391821692639dc29fac9261268f929116908690600401612fe4565b600060405180830381600087803b1580156126a957600080fd5b505af11580156126bd573d6000803e3d6000fd5b5050855160405163121cbc4d60e11b81526001600160a01b039091169250632439789a91506126f0908590600401613554565b600060405180830381600087803b15801561270a57600080fd5b505af115801561271e573d6000803e3d6000fd5b505050508360a001516001600160a01b0316633f10abab84836040518363ffffffff1660e01b8152600401612754929190612fe4565b600060405180830381600087803b15801561276e57600080fd5b505af1158015612782573d6000803e3d6000fd5b5050855160a08701516040516364a197f360e01b81526001600160a01b0390921693506364a197f392506124c3918590600401612fe4565b600081156127e6576127df826106828568056bc75e2d6310000063ffffffff61169616565b9050610733565b50600019610733565b6000610733826801158e460913d0000063ffffffff61164d16565b6001600160a01b038116600090815260106020526040812060010154819061283190612bd1565b6001600160a01b03841660009081526010602052604090206002018054908290556011549192509061286f9083906117a1908463ffffffff61164d16565b60118190556040517f6bac5e0eb3c44eb03a60ab11ec3a2c051771616aecadbcfff2630aabae520382916128a291613554565b60405180910390a15092915050565b6000806128bc612c0d565b905060006128d2670ddd4b8c6c7d70d883612c29565b90506108f4670de0b6b3a764000061068283600e5461169690919063ffffffff16565b600061290c600f544261164d90919063ffffffff16565b9050603c81106105b65742600f8190556040517f860f8d2f0c74dd487e89e2883e3b25b8159ce1e1b3433a291cba7b82c508f3bc916123d091613554565b600080612969670de0b6b3a7640000610682868663ffffffff61169616565b905082811061168f5760405162461bcd60e51b81526004016105a4906133de565b600181118015612a145750600d546040805163de8fa43160e01b815290516001926001600160a01b03169163de8fa431916004808301926020929190829003018186803b1580156129da57600080fd5b505afa1580156129ee573d6000803e3d6000fd5b505050506040513d601f19601f82011682018060405250810190612a129190612e42565b115b6105b65760405162461bcd60e51b81526004016105a490613276565b6001600160a01b03821660009081526010602052604081206003015460ff1690816004811115612a5c57fe5b14158015612a7657506001816004811115612a7357fe5b14155b612a7c57fe5b6001600160a01b03831660009081526010602052604081206003015461010090046001600160801b0316908390612ab482600161164d565b905080836001600160801b03161115612ac957fe5b600060178281548110612ad857fe5b600091825260209091200154601780546001600160a01b03909216925082916001600160801b038716908110612b0a57fe5b600091825260208083209190910180546001600160a01b0319166001600160a01b03948516179055918316815260109091526040908190206003018054610100600160881b0319166101006001600160801b03881602179055517f02b04ae5f7be9ca7c103293a2aa15f3c339d15d6eda53b721fef7b0e609c831a90612b939083908790612ffd565b60405180910390a16017805480612ba657fe5b600082815260209020810160001990810180546001600160a01b031916905501905550505050505050565b60008060135460001415612be6575081610733565b600060125411612bf257fe5b61168f6013546106826012548661169690919063ffffffff16565b60006106ba603c610682600f544261164d90919063ffffffff16565b6000631f540500821115612c3f57631f54050091505b81612c535750670de0b6b3a7640000610733565b670de0b6b3a764000083835b6001811115612cca5760028106612c9457612c7a8283612cd0565b9150612c8d81600263ffffffff6116d016565b9050612cc5565b612c9e8284612cd0565b9250612caa8283612cd0565b9150612cc2600261068283600163ffffffff61164d16565b90505b612c5f565b61072d82845b600080612ce3848463ffffffff61169616565b9050612322670de0b6b3a7640000610682836706f05b59d3b20000611873565b6040805160e081018252600080825260208201819052918101829052606081018290526080810182905260a0810182905260c081019190915290565b60405180610100016040528060008152602001600081526020016000815260200160008152602001600081526020016000815260200160008152602001600081525090565b604051806060016040528060008152602001600081526020016000151581525090565b600060208284031215612db8578081fd5b813561168f816135d1565b600060208284031215612dd4578081fd5b815161168f816135d1565b60008060408385031215612df1578081fd5b8235612dfc816135d1565b946020939093013593505050565b600060208284031215612e1b578081fd5b8151801515811461168f578182fd5b600060208284031215612e3b578081fd5b5035919050565b600060208284031215612e53578081fd5b5051919050565b600080600080600080600060e0888a031215612e74578283fd5b873596506020880135612e86816135d1565b95506040880135612e96816135d1565b94506060880135612ea6816135d1565b9699959850939660808101359560a0820135955060c0909101359350915050565b600080600080600080600080888a03610160811215612ee4578182fd5b8935985060208a0135612ef6816135d1565b975060408a0135612f06816135d1565b965060608a0135612f16816135d1565b955060808a810135955060a08b0135945060c08b0135935060df1982011215612f3d578182fd5b5060e0890190509295985092959890939650565b600060208284031215612f62578081fd5b813560ff8116811461168f578182fd5b7035b2bc9737bbb730b136329737bbb732b960791b815260110190565b6001600160a01b0391909116815260200190565b6001600160a01b0397881681529590961660208601526040850193909352606084019190915260ff16608083015260a082015260c081019190915260e00190565b6001600160a01b03929092168252602082015260400190565b6001600160a01b039290921682526001600160801b0316602082015260400190565b6001600160a01b0393841681526020810192909252909116604082015260600190565b6001600160a01b03948516815260208101939093529083166040830152909116606082015260800190565b901515815260200190565b848152602081018490526040810183905260808101613096836135c6565b606083015295945050505050565b6000602080835283518082850152825b818110156130d0578581018301518582016040015282016130b4565b818111156130e15783604083870101525b50601f01601f1916929092016040019392505050565b6020808252604e908201527f54726f76654d616e616765723a2052657175657374656420726564656d70746960408201527f6f6e20616d6f756e74206d757374206265203c3d20757365722773205a55534460608201526d20746f6b656e2062616c616e636560901b608082015260a00190565b60208082526029908201527f444c4c52207472616e7366657272656420616d6f756e742076616c69646174696040820152681bdb8819985a5b195960ba1b606082015260800190565b60208082526029908201527f54726f76654d616e616765723a20556e61626c6520746f2072656465656d20616040820152681b9e48185b5bdd5b9d60ba1b606082015260800190565b6020808252601b908201527f536166654d6174683a206164646974696f6e206f766572666c6f770000000000604082015260600190565b60208082526022908201527f4f776e61626c653a3a7365744f776e65723a20696e76616c6964206164647265604082015261737360f01b606082015260800190565b6020808252602a908201527f54726f76654d616e616765723a204f6e6c79206f6e652074726f766520696e206040820152697468652073797374656d60b01b606082015260800190565b602080825260409082018190527f54726f76654d616e616765723a20526564656d7074696f6e7320617265206e6f908201527f7420616c6c6f77656420647572696e6720626f6f747374726170207068617365606082015260800190565b60208082526021908201527f536166654d6174683a206d756c7469706c69636174696f6e206f766572666c6f6040820152607760f81b606082015260800190565b60208082526017908201527613dddb98589b194e8e881858d8d95cdcc819195b9a5959604a1b604082015260600190565b6020808252602e908201527f54726f76654d616e616765723a20416d6f756e74206d7573742062652067726560408201526d61746572207468616e207a65726f60901b606082015260800190565b60208082526036908201527f54726f76654d616e616765723a2046656520776f756c642065617420757020616040820152751b1b081c995d1d5c9b99590818dbdb1b185d195c985b60521b606082015260800190565b60208082526030908201527f4d6178206665652070657263656e74616765206d75737420626520626574776560408201526f656e20302e352520616e64203130302560801b606082015260800190565b6020808252602a908201527f54726f76654d616e616765723a2043616e6e6f742072656465656d207768656e604082015269102a21a9101e1026a1a960b11b606082015260800190565b6020808252601d908201527f4665652065786365656465642070726f7669646564206d6178696d756d000000604082015260600190565b6020808252602f908201527f54726f76654d616e616765723a2054726f766520646f6573206e6f742065786960408201526e1cdd081bdc881a5cc818db1bdcd959608a1b606082015260800190565b90815260200190565b918252602082015260400190565b858152602081018590526040810184905260a081016005841061358a57fe5b60608201939093526001600160801b03919091166080909101529392505050565b93845260208401929092526040830152606082015260800190565b806004811061069557fe5b6001600160a01b03811681146105b657600080fdfec3770d654ed33aeea6bf11ac8ef05d02a6a04ed4686dd2f624d853bbec43cc8ba2646970667358221220a9962a8c24fca3c3e4803945eb02feb9953c759cd9a777c8c4175709a8d4dc7b64736f6c634300060b003360a06040523480156200001157600080fd5b506040516200563b3803806200563b833981016040819052620000349162000118565b8062000049336001600160e01b036200005316565b6080525062000190565b6001600160a01b038116620000855760405162461bcd60e51b81526004016200007c906200014e565b60405180910390fd5b6001600160a01b038116620000a26001600160e01b03620000f716565b6001600160a01b03167f8be0079c531659141344cd1fd0a4f28419497f9722a3daafe3b4186f6b6457e060405160405180910390a36000604051620000e79062000131565b6040519081900390209190915550565b600080604051620001089062000131565b6040519081900390205492915050565b6000602082840312156200012a578081fd5b5051919050565b7035b2bc9737bbb730b136329737bbb732b960791b815260110190565b60208082526022908201527f4f776e61626c653a3a7365744f776e65723a20696e76616c6964206164647265604082015261737360f01b606082015260800190565b608051615490620001ab6000398061214452506154906000f3fe608060405234801561001057600080fd5b50600436106104ac5760003560e01c8063756b253e1161026d578063b7f8cf9b11610151578063d293c710116100ce578063d815e8e911610092578063d815e8e914610929578063d9a7244414610931578063e056e91814610944578063e2ac77b014610957578063f36b24251461096a578063fe2ba84814610972576104ac565b8063d293c710146108d5578063d380a37c146108e8578063d3d6f843146108f0578063d5b3563514610903578063d66a255314610916576104ac565b8063bf9befb111610115578063bf9befb1146108a2578063c35bc550146108aa578063c52861f2146108b2578063c7b55481146108ba578063cbd138ae146108c2576104ac565b8063b7f8cf9b14610849578063b82f263d14610851578063b91af97c14610864578063bcd3752614610887578063be4b03341461089a576104ac565b8063887105d3116101ea5780639f070670116101ae5780639f07067014610809578063a20baee614610755578063a3f4df7e14610811578063ae7bec1914610826578063ae9187541461082e578063b0d8e18114610836576104ac565b8063887105d3146107d6578063893d20e8146107de57806396d711ff146107e65780639976cf45146107ee5780639dd233d214610801576104ac565b80637cf54e40116102315780637cf54e40146107985780637f7dde4a146107a0578063807d138d146107a857806382fe3eb9146107b057806387436936146107c3576104ac565b8063756b253e14610765578063759b303414610778578063794e572414610780578063795d26c314610788578063797250e314610790576104ac565b806342ccf1e41161039457806361ec893d116103115780636b444952116102d55780636b4449521461070e5780636ef6433814610716578063716c47e61461073a57806372423c171461074257806372fe25aa14610755578063741bef1a1461075d576104ac565b806361ec893d146106c5578063631203b0146106cd57806364cee260146106e0578063653d46e7146106f357806366ca4a2114610706576104ac565b80634e443d9e116103585780634e443d9e1461066f5780635733d58f1461068f5780635d6b480f146106975780635d8c9609146106aa5780635dba4c4a146106bd576104ac565b806342ccf1e41461061b578063477d66cf1461062e578063480cd5781461064157806349eefeee146106545780634a767d681461065c576104ac565b806318f2817a1161042d57806321e37801116103f157806321e37801146105d55780632b11551a146105e85780632f865568146105f057806331c903b0146106035780633a1285951461060b5780633cc7422514610613576104ac565b806318f2817a1461058c5780631a59a50e1461059f5780631bf43555146105b25780631e8b1c2b146105ba5780631f68f20a146105cd576104ac565b806312610e921161047457806312610e921461051f57806313af40351461053257806315d549f1146105455780631673c79a1461055857806317c62b1714610579576104ac565b806301f16e18146104b157806305b6f5ca146104c6578063071a7541146104d95780630b076557146104f75780630d43e8ad1461050a575b600080fd5b6104c46104bf366004614c61565b610985565b005b6104c46104d4366004614e2c565b610eeb565b6104e1610f82565b6040516104ee919061531b565b60405180910390f35b6104c4610505366004614b6a565b610f87565b610512610faf565b6040516104ee9190614ee3565b6104e161052d366004614ba2565b610fbe565b6104c4610540366004614b6a565b611016565b6104e1610553366004614b6a565b611057565b61056b610566366004614b6a565b61107b565b6040516104ee929190615324565b6104e1610587366004614b6a565b611094565b6104e161059a366004614b6a565b61109f565b6104e16105ad366004614b6a565b6110b2565b6104e1611178565b6104c46105c8366004614bcd565b611185565b6104e16114e6565b6104e16105e3366004614b6a565b6114ec565b6104e1611516565b6104c46105fe366004614b6a565b611525565b6104e161158b565b610512611598565b6105126115a7565b6104e1610629366004614b6a565b6115b6565b6104e161063c366004614d8f565b6115e7565b6104e161064f366004614b6a565b6115fa565b6104e1611618565b6104e161066a366004614ba2565b61161e565b61068261067d366004614d8f565b61163d565b6040516104ee9190614f56565b6104e1611648565b6104c46106a5366004614ba2565b6116c5565b6104e16106b8366004614b6a565b611711565b6104c461171c565b6104e1611787565b6104e16106db366004614d8f565b61178c565b6104e16106ee366004614b6a565b611799565b6104c4610701366004614d8f565b6117b7565b6104e1611b41565b6104e1611b53565b610729610724366004614b6a565b611b59565b6040516104ee959493929190615358565b610512611b93565b6104e1610750366004614ba2565b611ba2565b6104e1611bff565b610512611c0b565b610512610773366004614d8f565b611c1a565b6104e1611c41565b6104e1611c4e565b6104e1611c93565b6104e1611db2565b610512611db8565b610512611dc7565b6104e1611dd6565b6104c46107be366004614b6a565b611ddc565b6104c46107d1366004614b6a565b611ded565b6104e1611e79565b610512611f48565b6104e1611f67565b6104e16107fc366004614ba2565b611f6d565b6104e1611fa0565b610512611fa6565b610819611fb5565b6040516104ee9190614f8d565b610512611fdd565b610512611fec565b6104e1610844366004614b6a565b611ffb565b610512612022565b6104e161085f366004614d8f565b612031565b610877610872366004614b6a565b61203c565b6040516104ee9493929190615398565b6104c4610895366004614dbf565b6120a0565b6104e1612136565b6104e161213c565b6104e1612142565b6104e1612166565b6104e1612178565b6104c46108d0366004614b6a565b612184565b6104e16108e3366004614ba2565b612197565b6104e16121aa565b6104e16108fe366004614ba2565b6121b0565b6104e1610911366004614d8f565b6121e6565b6104e1610924366004614b6a565b6121f9565b610512612214565b61051261093f366004614d8f565b612223565b610682610952366004614b6a565b61224d565b610682610965366004614b6a565b6122ab565b6104e16122b6565b6104c4610980366004614b6a565b6122c3565b61098d611f48565b6001600160a01b0316336001600160a01b0316146109c65760405162461bcd60e51b81526004016109bd90615178565b60405180910390fd5b80516109d1906122d4565b6109de81602001516122d4565b6109eb81604001516122d4565b6109f881606001516122d4565b610a0581608001516122d4565b610a128160a001516122d4565b610a1f8160c001516122d4565b610a2c8160e001516122d4565b610a3a8161010001516122d4565b610a488161012001516122d4565b610a568161014001516122d4565b610a648161016001516122d4565b610a728161018001516122d4565b610a80816101a001516122d4565b8051600c80546001600160a01b03199081166001600160a01b038085169190911790925560208401516004805483169184169190911790556040808501516003805484169185169190911790556060850151600580548416918516919091179055608085015160008054841691851691909117905560a085015160018054841691851691909117905560c085015160068054841691851691909117905560e0850151600780548416918516919091179055610100850151600880548416918516919091179055610120850151600280548416918516919091179055610140850151600980548416918516919091179055610160850151600d80548416918516919091179055610180850151600a805484169185169190911790556101a0850151600b80549093169316929092179055517f84861842e6a98dd759145eb5e7b48279d0f02ebeabc8a69e5196b2f4c5023db991610bdb91614ee3565b60405180910390a17f6493041f605f233753d9b16dd158c9f297b8eaca22b2d0dc402a454f5683a5b18160200151604051610c169190614ee3565b60405180910390a17fbf65195e6d5213f6fcbce65b1454c925197a45e616dabd2e243542b039b050928160600151604051610c519190614ee3565b60405180910390a17f3ca631ffcd2a9b5d9ae18543fc82f58eb4ca33af9e6ab01b7a8e95331e6ed9858160600151604051610c8c9190614ee3565b60405180910390a17f78f058b189175430c48dc02699e3a0031ea4ff781536dc2fab847de4babdd8828160800151604051610cc79190614ee3565b60405180910390a17f5ee0cae2f063ed938bb55046f6a932fb6ae792bf43624806bb90abe68a50be9b8160a00151604051610d029190614ee3565b60405180910390a17f82966d27eea39b038ee0fa30cd16532bb24f6e65d31cb58fb227aa5766cdcc7f8160c00151604051610d3d9190614ee3565b60405180910390a17fcfb07d791fcafc032b35837b50eb84b74df518cf4cc287e8084f47630fa70fa08160e00151604051610d789190614ee3565b60405180910390a17fe67f36a6e961157d6eff83b91f3af5a62131ceb6f04954ef74f51c1c05e7f88d816101000151604051610db49190614ee3565b60405180910390a17f8c537274438aa850a330284665d81a85dd38267d09e4050d416bfc94142db264816101200151604051610df09190614ee3565b60405180910390a17fcdf33850c44a1a874b5fefb51dae615ac6afebd581ef90d571f81b06541d8e9d816101400151604051610e2c9190614ee3565b60405180910390a17f65f4cf077bc01e4742eb5ad98326f6e95b63548ea24b17f8d5e823111fe78800816101600151604051610e689190614ee3565b60405180910390a17f61e0c29d5028a9e4facaa476a46e78912e99f1ba945c9560b86b82ebe36ee52d816101800151604051610ea49190614ee3565b60405180910390a17f7624075ed781e3aa34b0f492d70d1bb5a6fcde04534165e20f990d2e546be4dd816101a00151604051610ee09190614ee3565b60405180910390a150565b6004546040516000916060916001600160a01b0390911690610f109084903690614eb6565b600060405180830381855af49150503d8060008114610f4b576040519150601f19603f3d011682016040523d82523d6000602084013e610f50565b606091505b5091509150818190610f755760405162461bcd60e51b81526004016109bd9190614f8d565b5050505050505050505050565b600281565b610f8f612319565b600054600154610fac916001600160a01b03908116911683612345565b50565b600c546001600160a01b031681565b6000610fc8612319565b6001600160a01b038316600090815260106020526040812054610ff1908463ffffffff61245716565b6001600160a01b03851660009081526010602052604090208190559150505b92915050565b61101e611f48565b6001600160a01b0316336001600160a01b03161461104e5760405162461bcd60e51b81526004016109bd90615178565b610fac81612499565b6000611061612319565b61106a82612524565b6001600160801b031690505b919050565b6016602052600090815260409020805460019091015482565b6000611010826115b6565b60006110a9612319565b611010826125be565b6001600160a01b03811660009081526016602052604081205460145482906110e0908363ffffffff61245716565b9050801580611119575060016001600160a01b03851660009081526010602052604090206003015460ff16600481111561111657fe5b14155b1561112957600092505050611076565b6001600160a01b0384166000908152601060205260408120600201549061116e670de0b6b3a7640000611162848663ffffffff61267116565b9063ffffffff6126ab16565b9695505050505050565b6809c2007651b250000081565b80516111a35760405162461bcd60e51b81526004016109bd906151a9565b6000546001546006546001600160a01b039283169291821691166111c5614a3d565b6111cd614a6e565b600260009054906101000a90046001600160a01b03166001600160a01b0316630fdb11cf6040518163ffffffff1660e01b8152600401602060405180830381600087803b15801561121d57600080fd5b505af1158015611231573d6000803e3d6000fd5b505050506040513d601f19601f820116820180604052508101906112559190614da7565b826000018181525050826001600160a01b031663bdaf37ea6040518163ffffffff1660e01b815260040160206040518083038186803b15801561129757600080fd5b505afa1580156112ab573d6000803e3d6000fd5b505050506040513d601f19601f820116820180604052508101906112cf9190614da7565b602083015281516112df906126ed565b1580156040840152611307576113008585846000015185602001518a612788565b905061131f565b61131c8585846000015185602001518a612a9d565b90505b60008160200151116113435760405162461bcd60e51b81526004016109bd9061528a565b608081015160a082015160405163335525ad60e01b81526001600160a01b0386169263335525ad9261137792600401615324565b600060405180830381600087803b15801561139157600080fd5b505af11580156113a5573d6000803e3d6000fd5b505050506113bd85858360c001518460e00151612bdd565b61010081015115611434576008546101008201516040516364a197f360e01b81526001600160a01b03888116936364a197f393611401939290911691600401614f3d565b600060405180830381600087803b15801561141b57600080fd5b505af115801561142f573d6000803e3d6000fd5b505050505b611442858260400151612e41565b602081015160608301526101008101516040820151825161147a929161146e919063ffffffff61245716565b9063ffffffff61245716565b608083018190526060808401516040808501519285015190517f4152c73dd2614c4f9fc35e8c9cf16013cd588c75b49a4c1673ecffdcbcda9403946114c29490929091615398565b60405180910390a16114de853383606001518460400151612fa2565b505050505050565b600e5481565b6001600160a01b03811660009081526010602052604081206003015460ff16600481111561101057fe5b600061152061158b565b905090565b61152e8161307f565b60408051600180825281830190925260609160208083019080368337019050509050818160008151811061155e57fe5b60200260200101906001600160a01b031690816001600160a01b03168152505061158781611185565b5050565b6000611520600e546130c8565b600b546001600160a01b031681565b6001546001600160a01b031681565b6001600160a01b03811660009081526016602052604081206001015460155482906110e0908363ffffffff61245716565b60006110106115f4611b41565b83613165565b6001600160a01b031660009081526010602052604090206001015490565b60175490565b600080600061162c85613183565b91509150600061116e838387613209565b6000611010826126ed565b60035460408051635733d58f60e01b815290516000926001600160a01b031691635733d58f916004808301926020929190829003018186803b15801561168d57600080fd5b505afa1580156116a1573d6000803e3d6000fd5b505050506040513d601f19601f820116820180604052508101906115209190614da7565b6116cd612319565b8060048111156116d957fe5b6001600160a01b0383166000908152601060205260409020600301805460ff1916600183600481111561170857fe5b02179055505050565b6000611010826110b2565b611724612319565b600061172e61323b565b9050670de0b6b3a764000081111561174257fe5b600e8190556040517fc454ee9b76c52f782a256af821b857ca6e125d1e3333bcede402fec2bed9600c9061177790839061531b565b60405180910390a1610fac61327f565b603c81565b60006110106115f46122b6565b6001600160a01b031660009081526010602052604090206002015490565b6117bf614aba565b506040805160e081018252600080546001600160a01b0390811683526001548116602084015292820181905260608201819052600d548316608083015260a0820181905260c0820152600654909116611816614a3d565b61181e614a6e565b600260009054906101000a90046001600160a01b03166001600160a01b0316630fdb11cf6040518163ffffffff1660e01b8152600401602060405180830381600087803b15801561186e57600080fd5b505af1158015611882573d6000803e3d6000fd5b505050506040513d601f19601f820116820180604052508101906118a69190614da7565b826000018181525050826001600160a01b031663bdaf37ea6040518163ffffffff1660e01b815260040160206040518083038186803b1580156118e857600080fd5b505afa1580156118fc573d6000803e3d6000fd5b505050506040513d601f19601f820116820180604052508101906119209190614da7565b60208301528151611930906126ed565b1580156040840152611957576119508483600001518460200151886132d4565b9050611977565b61197484600001518560200151846000015185602001518961377b565b90505b600081602001511161199b5760405162461bcd60e51b81526004016109bd9061528a565b608081015160a082015160405163335525ad60e01b81526001600160a01b0386169263335525ad926119cf92600401615324565b600060405180830381600087803b1580156119e957600080fd5b505af11580156119fd573d6000803e3d6000fd5b50505050611a1d846000015185602001518360c001518460e00151612bdd565b61010081015115611a945783516008546101008301516040516364a197f360e01b81526001600160a01b03938416936364a197f393611a6193911691600401614f3d565b600060405180830381600087803b158015611a7b57600080fd5b505af1158015611a8f573d6000803e3d6000fd5b505050505b611aa684600001518260400151612e41565b6020810151606083015261010081015160408201518251611ad2929161146e919063ffffffff61245716565b608083018190526060808401516040808501519285015190517f4152c73dd2614c4f9fc35e8c9cf16013cd588c75b49a4c1673ecffdcbcda940394611b1a9490929091615398565b60405180910390a1611b3a84600001513383606001518460400151612fa2565b5050505050565b6000611520611b4e61323b565b613931565b60195481565b60106020526000908152604090208054600182015460028301546003909301549192909160ff81169061010090046001600160801b031685565b6004546001600160a01b031681565b6000611bac612319565b6001600160a01b038316600090815260106020526040812060010154611bd8908463ffffffff613a1316565b6001600160a01b038516600090815260106020526040902060010181905591505092915050565b670de0b6b3a764000081565b6002546001600160a01b031681565b60178181548110611c2757fe5b6000918252602090912001546001600160a01b0316905081565b6801158e460913d0000081565b60035460408051631e5395c960e21b815290516000926001600160a01b03169163794e5724916004808301926020929190829003018186803b15801561168d57600080fd5b60008054604080516272c7d360e71b8152905183926001600160a01b031691633963e980916004808301926020929190829003018186803b158015611cd757600080fd5b505afa158015611ceb573d6000803e3d6000fd5b505050506040513d601f19601f82011682018060405250810190611d0f9190614da7565b90506000600160009054906101000a90046001600160a01b03166001600160a01b0316633963e9806040518163ffffffff1660e01b815260040160206040518083038186803b158015611d6157600080fd5b505afa158015611d75573d6000803e3d6000fd5b505050506040513d601f19601f82011682018060405250810190611d999190614da7565b9050611dab828263ffffffff613a1316565b9250505090565b60185481565b600a546001600160a01b031681565b6000546001600160a01b031681565b60125481565b611de4612319565b610fac81613a38565b611df5611f48565b6001600160a01b0316336001600160a01b031614611e255760405162461bcd60e51b81526004016109bd90615178565b611e2e816122d4565b600480546001600160a01b0319166001600160a01b0383161790556040517f6493041f605f233753d9b16dd158c9f297b8eaca22b2d0dc402a454f5683a5b190610ee0908390614ee3565b6000805460408051630a7b61df60e11b8152905183926001600160a01b0316916314f6c3be916004808301926020929190829003018186803b158015611ebe57600080fd5b505afa158015611ed2573d6000803e3d6000fd5b505050506040513d601f19601f82011682018060405250810190611ef69190614da7565b90506000600160009054906101000a90046001600160a01b03166001600160a01b03166314f6c3be6040518163ffffffff1660e01b815260040160206040518083038186803b158015611d6157600080fd5b600080604051611f5790614ec6565b6040519081900390205492915050565b60135481565b6000611f77612319565b6001600160a01b038316600090815260106020526040812054610ff1908463ffffffff613a1316565b60145481565b6003546001600160a01b031681565b6040518060400160405280600c81526020016b2a3937bb32a6b0b730b3b2b960a11b81525081565b6006546001600160a01b031681565b600d546001600160a01b031681565b600080600061200984613183565b9150915060006120198383613a95565b95945050505050565b6005546001600160a01b031681565b600061101082613aca565b6001600160a01b0381166000908152601060205260408120805460019091015490918061206885611094565b915061207385611711565b9050612085848363ffffffff613a1316565b9350612097838263ffffffff613a1316565b92509193509193565b6004546040516000916060916001600160a01b03909116906120c59084903690614eb6565b600060405180830381855af49150503d8060008114612100576040519150601f19603f3d011682016040523d82523d6000602084013e612105565b606091505b509150915081819061212a5760405162461bcd60e51b81526004016109bd9190614f8d565b50505050505050505050565b60155481565b60115481565b7f000000000000000000000000000000000000000000000000000000000000000081565b600061152061217361323b565b6130c8565b670ddd4b8c6c7d70d881565b61218c612319565b610fac816002613af6565b60006121a3838361161e565b9392505050565b600f5481565b60006121ba612319565b6001600160a01b038316600090815260106020526040812060010154611bd8908463ffffffff61245716565b60006110106121f3612166565b83613c0b565b6001600160a01b031660009081526010602052604090205490565b6009546001600160a01b031681565b60006017828154811061223257fe5b6000918252602090912001546001600160a01b031692915050565b600060016001600160a01b03831660009081526010602052604090206003015460ff16600481111561227b57fe5b1461228857506000611076565b506014546001600160a01b03821660009081526016602052604090205410919050565b60006110108261224d565b6000611520600e54613931565b6122cb612319565b610fac81613c4b565b6001600160a01b0381166122fa5760405162461bcd60e51b81526004016109bd90615059565b803b806115875760405162461bcd60e51b81526004016109bd906151ff565b6005546001600160a01b031633146123435760405162461bcd60e51b81526004016109bd9061511b565b565b61234e8161224d565b156124525761235c8161307f565b6000612367826110b2565b90506000612374836115b6565b6001600160a01b0384166000908152601060205260409020600101549091506123a3908363ffffffff613a1316565b6001600160a01b03841660009081526010602052604090206001810191909155546123d4908263ffffffff613a1316565b6001600160a01b0384166000908152601060205260409020556123f683613a38565b61240285858385613c9b565b6001600160a01b03831660008181526010602052604080822080546001820154600290920154925160008051602061543b833981519152946124479492939291614f61565b60405180910390a250505b505050565b60006121a383836040518060400160405280601e81526020017f536166654d6174683a207375627472616374696f6e206f766572666c6f770000815250613d83565b6001600160a01b0381166124bf5760405162461bcd60e51b81526004016109bd90615017565b806001600160a01b03166124d1611f48565b6001600160a01b03167f8be0079c531659141344cd1fd0a4f28419497f9722a3daafe3b4186f6b6457e060405160405180910390a3600060405161251490614ec6565b6040519081900390209190915550565b601780546001808201835560008381527fc624b66cc0138b8fabc209247f72d758e1cf3343756d543badbf24212bed8c1590920180546001600160a01b0319166001600160a01b0386161790559154909161257f9190612457565b6001600160a01b039290921660009081526010602052604090206003018054610100600160881b0319166101006001600160801b038516021790555090565b6001600160a01b03811660009081526010602052604081206001015481906125e590613daf565b6001600160a01b03841660009081526010602052604090206002018054908290556011549192509061262f908390612623908463ffffffff61245716565b9063ffffffff613a1316565b60118190556040517f6bac5e0eb3c44eb03a60ab11ec3a2c051771616aecadbcfff2630aabae520382916126629161531b565b60405180910390a15092915050565b60008261268057506000611010565b8282028284828161268d57fe5b04146121a35760405162461bcd60e51b81526004016109bd906150da565b60006121a383836040518060400160405280601a81526020017f536166654d6174683a206469766973696f6e206279207a65726f000000000000815250613deb565b6000806126f983613aca565b9050600360009054906101000a90046001600160a01b03166001600160a01b0316635733d58f6040518163ffffffff1660e01b815260040160206040518083038186803b15801561274957600080fd5b505afa15801561275d573d6000803e3d6000fd5b505050506040513d601f19601f820116820180604052508101906127819190614da7565b1192915050565b612790614a6e565b612798614af6565b6127a0614a6e565b848252600060808301526127b2611c93565b60a08301526127bf611e79565b60c0830152600060208301525b835182602001511015612a9257838260200151815181106127e957fe5b6020908102919091018101516001600160a01b03166060840181905260009081526010909152604090206003015460019060ff16600481111561282857fe5b1461283257612a82565b61284082606001518761161e565b604083015260808201516129a757600360009054906101000a90046001600160a01b03166001600160a01b031663794e57246040518163ffffffff1660e01b815260040160206040518083038186803b15801561289c57600080fd5b505afa1580156128b0573d6000803e3d6000fd5b505050506040513d601f19601f820116820180604052508101906128d49190614da7565b8260400151101580156128e657508151155b156128f057612a82565b60006129058360c001518460a0015189613209565b90506129228989856060015186604001518760000151868d613e22565b6080810151845191935061293c919063ffffffff61245716565b8352608082015160a08401516129579163ffffffff61245716565b60a08085019190915282015160c08401516129779163ffffffff61245716565b60c084015261298684836141f8565b935061299b8360c001518460a001518961430f565b15608084015250612a82565b81608001518015612a405750600360009054906101000a90046001600160a01b03166001600160a01b031663794e57246040518163ffffffff1660e01b815260040160206040518083038186803b158015612a0157600080fd5b505afa158015612a15573d6000803e3d6000fd5b505050506040513d601f19601f82011682018060405250810190612a399190614da7565b8260400151105b15612a8257612a598888846060015185600001516143ae565b60808101518351919250612a73919063ffffffff61245716565b8252612a7f83826141f8565b92505b60208201805160010190526127cc565b505095945050505050565b612aa5614a6e565b612aad614af6565b612ab5614a6e565b848252600060208301525b835182602001511015612a925783826020015181518110612add57fe5b60209081029190910101516001600160a01b031660608301819052612b02908761161e565b6040808401919091526003548151631e5395c960e21b815291516001600160a01b039091169163794e5724916004808301926020929190829003018186803b158015612b4d57600080fd5b505afa158015612b61573d6000803e3d6000fd5b505050506040513d601f19601f82011682018060405250810190612b859190614da7565b82604001511015612bcd57612ba48888846060015185600001516143ae565b60808101518351919250612bbe919063ffffffff61245716565b8252612bca83826141f8565b92505b6020820180516001019052612ac0565b81612be757612e3b565b601854600090612c099061262384670de0b6b3a764000063ffffffff61267116565b90506000612c2e601954612623670de0b6b3a76400008761267190919063ffffffff16565b90506000612c47601154846126ab90919063ffffffff16565b90506000612c60601154846126ab90919063ffffffff16565b9050612c87612c7a6011548461267190919063ffffffff16565b859063ffffffff61245716565b601855601154612caf90612ca290839063ffffffff61267116565b849063ffffffff61245716565b601955601454612cc5908363ffffffff613a1316565b601455601554612cdb908263ffffffff613a1316565b60158190556014546040517f9f8bc8ab0daf5bceef75ecfd2085d1fcc6548c657ea970d9a23a60610d0737e392612d129291615324565b60405180910390a160405163121cbc4d60e11b81526001600160a01b03891690632439789a90612d4690899060040161531b565b600060405180830381600087803b158015612d6057600080fd5b505af1158015612d74573d6000803e3d6000fd5b505060405163f2e91d7160e01b81526001600160a01b038a16925063f2e91d719150612da490899060040161531b565b600060405180830381600087803b158015612dbe57600080fd5b505af1158015612dd2573d6000803e3d6000fd5b50506040516364a197f360e01b81526001600160a01b038b1692506364a197f39150612e04908a908990600401614f3d565b600060405180830381600087803b158015612e1e57600080fd5b505af1158015612e32573d6000803e3d6000fd5b50505050505050505b50505050565b6011546012819055506000826001600160a01b03166314f6c3be6040518163ffffffff1660e01b815260040160206040518083038186803b158015612e8557600080fd5b505afa158015612e99573d6000803e3d6000fd5b505050506040513d601f19601f82011682018060405250810190612ebd9190614da7565b90506000600160009054906101000a90046001600160a01b03166001600160a01b03166314f6c3be6040518163ffffffff1660e01b815260040160206040518083038186803b158015612f0f57600080fd5b505afa158015612f23573d6000803e3d6000fd5b505050506040513d601f19601f82011682018060405250810190612f479190614da7565b9050612f5d81612623848663ffffffff61245716565b60138190556012546040517f51bf4c63ec3cba9d03d43238abbdd979dd91bd16d9895c74ceea9118c7baaf6092612f949291615324565b60405180910390a150505050565b811561301357600954600754604051631062c15f60e11b81526001600160a01b03928316926320c582be92612fe09291169087908790600401614ef7565b600060405180830381600087803b158015612ffa57600080fd5b505af115801561300e573d6000803e3d6000fd5b505050505b8015612e3b576040516364a197f360e01b81526001600160a01b038516906364a197f3906130479086908590600401614f3d565b600060405180830381600087803b15801561306157600080fd5b505af1158015613075573d6000803e3d6000fd5b5050505050505050565b60016001600160a01b03821660009081526010602052604090206003015460ff1660048111156130ab57fe5b14610fac5760405162461bcd60e51b81526004016109bd906152cc565b600061101061315783600360009054906101000a90046001600160a01b03166001600160a01b03166328d28b5b6040518163ffffffff1660e01b815260040160206040518083038186803b15801561311f57600080fd5b505afa158015613133573d6000803e3d6000fd5b505050506040513d601f19601f820116820180604052508101906126239190614da7565b670de0b6b3a76400006144e0565b60006121a3670de0b6b3a7640000611162858563ffffffff61267116565b6000806000613191846110b2565b9050600061319e856115b6565b6001600160a01b038616600090815260106020526040812060010154919250906131ce908463ffffffff613a1316565b6001600160a01b038716600090815260106020526040812054919250906131fb908463ffffffff613a1316565b919550909350505050915091565b6000821561323057600061322784611162878663ffffffff61267116565b91506121a39050565b506000199392505050565b6000806132466144f6565b9050600061325c670ddd4b8c6c7d70d883614512565b9050611dab670de0b6b3a764000061116283600e5461267190919063ffffffff16565b6000613296600f544261245790919063ffffffff16565b9050603c8110610fac5742600f8190556040517f860f8d2f0c74dd487e89e2883e3b25b8159ce1e1b3433a291cba7b82c508f3bc91610ee09161531b565b6132dc614a6e565b6132e4614af6565b6132ec614a6e565b848252600060808301526132fe611c93565b60a083015261330b611e79565b8260c001818152505086608001516001600160a01b0316634d6228316040518163ffffffff1660e01b815260040160206040518083038186803b15801561335157600080fd5b505afa158015613365573d6000803e3d6000fd5b505050506040513d601f19601f820116820180604052508101906133899190614b86565b82606001906001600160a01b031690816001600160a01b031681525050600087608001516001600160a01b0316631e2231436040518163ffffffff1660e01b815260040160206040518083038186803b1580156133e557600080fd5b505afa1580156133f9573d6000803e3d6000fd5b505050506040513d601f19601f8201168201806040525081019061341d9190614b86565b6000602085015290505b8483602001511080156134505750806001600160a01b031683606001516001600160a01b031614155b156137705760808801516060840151604051632dc9c0eb60e21b81526000926001600160a01b03169163b72703ac9161348c9190600401614ee3565b60206040518083038186803b1580156134a457600080fd5b505afa1580156134b8573d6000803e3d6000fd5b505050506040513d601f19601f820116820180604052508101906134dc9190614b86565b90506134ec84606001518961161e565b6040850152608084015161366557600360009054906101000a90046001600160a01b03166001600160a01b031663794e57246040518163ffffffff1660e01b815260040160206040518083038186803b15801561354857600080fd5b505afa15801561355c573d6000803e3d6000fd5b505050506040513d601f19601f820116820180604052508101906135809190614da7565b84604001511015801561359257508351155b1561359d5750613770565b60006135b28560c001518660a001518b613209565b8a5160208c01516060880151604089015189519495506135d394868f613e22565b608081015186519195506135ed919063ffffffff61245716565b8552608084015160a08601516136089163ffffffff61245716565b8560a001818152505061363584610100015161146e8660a001518860c0015161245790919063ffffffff16565b60c086015261364486856141f8565b95506136598560c001518660a001518b61430f565b15608086015250613752565b836080015180156136fe5750600360009054906101000a90046001600160a01b03166001600160a01b031663794e57246040518163ffffffff1660e01b815260040160206040518083038186803b1580156136bf57600080fd5b505afa1580156136d3573d6000803e3d6000fd5b505050506040513d601f19601f820116820180604052508101906136f79190614da7565b8460400151105b1561374c5761371f89600001518a60200151866060015187600001516143ae565b60808101518551919450613739919063ffffffff61245716565b845261374585846141f8565b9450613752565b50613770565b6001600160a01b031660608401526020830180516001019052613427565b505050949350505050565b613783614a6e565b61378b614af6565b613793614a6e565b600d54858352600060208401526001600160a01b03165b848360200151101561392557806001600160a01b0316634d6228316040518163ffffffff1660e01b815260040160206040518083038186803b1580156137ef57600080fd5b505afa158015613803573d6000803e3d6000fd5b505050506040513d601f19601f820116820180604052508101906138279190614b86565b6001600160a01b031660608401819052613841908861161e565b6040808501919091526003548151631e5395c960e21b815291516001600160a01b039091169163794e5724916004808301926020929190829003018186803b15801561388c57600080fd5b505afa1580156138a0573d6000803e3d6000fd5b505050506040513d601f19601f820116820180604052508101906138c49190614da7565b83604001511015613910576138e38989856060015186600001516143ae565b608081015184519193506138fd919063ffffffff61245716565b835261390984836141f8565b9350613915565b613925565b60208301805160010190526137aa565b50505095945050505050565b600061101061398883600360009054906101000a90046001600160a01b03166001600160a01b031663f92d34336040518163ffffffff1660e01b815260040160206040518083038186803b15801561311f57600080fd5b600360009054906101000a90046001600160a01b03166001600160a01b031663240926696040518163ffffffff1660e01b815260040160206040518083038186803b1580156139d657600080fd5b505afa1580156139ea573d6000803e3d6000fd5b505050506040513d601f19601f82011682018060405250810190613a0e9190614da7565b6144e0565b6000828201838110156121a35760405162461bcd60e51b81526004016109bd90614fe0565b601480546001600160a01b038316600090815260166020526040908190209182556015546001909201829055915491517fc437f324d85e369394148dd9d62f98f534b382e01ed3dd2eb98138fb6d3ab49a92610ee0929091615324565b60008115613ac157613aba826111628568056bc75e2d6310000063ffffffff61267116565b9050611010565b50600019611010565b600080613ad5611e79565b90506000613ae1611c93565b9050613aee828286613209565b949350505050565b6000816004811115613b0457fe5b14158015613b1e57506001816004811115613b1b57fe5b14155b613b2457fe5b601754613b30816145bd565b6001600160a01b0383166000908152601060205260409020600301805483919060ff19166001836004811115613b6257fe5b02179055506001600160a01b0383166000908152601060209081526040808320600180820185905590849055601690925282208281550155613ba48382614663565b600d54604051631484968760e11b81526001600160a01b03909116906329092d0e90613bd4908690600401614ee3565b600060405180830381600087803b158015613bee57600080fd5b505af1158015613c02573d6000803e3d6000fd5b50505050505050565b600080613c2a670de0b6b3a7640000611162868663ffffffff61267116565b90508281106121a35760405162461bcd60e51b81526004016109bd90615234565b6001600160a01b038116600090815260106020526040902060020154601154613c7a908263ffffffff61245716565b601155506001600160a01b0316600090815260106020526040812060020155565b60405163121cbc4d60e11b81526001600160a01b03841690632439789a90613cc790859060040161531b565b600060405180830381600087803b158015613ce157600080fd5b505af1158015613cf5573d6000803e3d6000fd5b505060405163f2e91d7160e01b81526001600160a01b038716925063f2e91d719150613d2590859060040161531b565b600060405180830381600087803b158015613d3f57600080fd5b505af1158015613d53573d6000803e3d6000fd5b505060405163be41205f60e01b81526001600160a01b038616925063be41205f915061304790849060040161531b565b60008184841115613da75760405162461bcd60e51b81526004016109bd9190614f8d565b505050900390565b60008060135460001415613dc4575081611010565b600060125411613dd057fe5b6121a36013546111626012548661267190919063ffffffff16565b60008183613e0c5760405162461bcd60e51b81526004016109bd9190614f8d565b506000838581613e1857fe5b0495945050505050565b613e2a614a6e565b613e32614b3e565b601754600110613e4257506141ed565b613e4b8761203c565b60408501526020848101919091528401819052908352613e6a90614804565b604083018190526801158e460913d0000060608401526020830151613e949163ffffffff61245716565b8152670de0b6b3a76400008611613f5f57613eb9898983602001518460400151613c9b565b613ec287613c4b565b60006080830181905260a0830152815160c0830152805160e0830152613ee9876003613af6565b815160208301516040516001600160a01b038a169260008051602061541b83398151915292613f1a92600290615332565b60405180910390a2866001600160a01b031660008051602061543b83398151915260008060006002604051613f529493929190614f61565b60405180910390a26141eb565b670de0b6b3a764000086118015613ffa5750600360009054906101000a90046001600160a01b03166001600160a01b031663794e57246040518163ffffffff1660e01b815260040160206040518083038186803b158015613fbf57600080fd5b505afa158015613fd3573d6000803e3d6000fd5b505050506040513d601f19601f82011682018060405250810190613ff79190614da7565b86105b1561404a57614013898983602001518460400151613c9b565b61401c87613c4b565b8151815161402b919087614890565b60e086015260c085015260a08401526080830152613ee9876003613af6565b600360009054906101000a90046001600160a01b03166001600160a01b031663794e57246040518163ffffffff1660e01b815260040160206040518083038186803b15801561409857600080fd5b505afa1580156140ac573d6000803e3d6000fd5b505050506040513d601f19601f820116820180604052508101906140d09190614da7565b86101580156140de57508386105b80156140eb575081518510155b156141da57614104898983602001518460400151613c9b565b8461410b57fe5b61411487613c4b565b61412782600001518360200151856148fc565b9150614134876003613af6565b610100820151156141a957600854610100830151604051633f10abab60e01b81526001600160a01b0390921691633f10abab91614176918b9190600401614f3d565b600060405180830381600087803b15801561419057600080fd5b505af11580156141a4573d6000803e3d6000fd5b505050505b815160a08301516040516001600160a01b038a169260008051602061541b83398151915292613f1a92600290615332565b6141e2614a6e565b91506141ed9050565b505b979650505050505050565b614200614a6e565b604080830151908401516142199163ffffffff613a1316565b6040820152606080830151908401516142379163ffffffff613a1316565b6060820152815160208401516142529163ffffffff613a1316565b602080830191909152820151835161426f9163ffffffff613a1316565b81526080808301519084015161428a9163ffffffff613a1316565b608082015260a080830151908401516142a89163ffffffff613a1316565b60a082015260c080830151908401516142c69163ffffffff613a1316565b60c082015260e080830151908401516142e49163ffffffff613a1316565b60e082015261010080830151908401516143039163ffffffff613a1316565b61010082015292915050565b60008061431d858585613209565b9050600360009054906101000a90046001600160a01b03166001600160a01b0316635733d58f6040518163ffffffff1660e01b815260040160206040518083038186803b15801561436d57600080fd5b505afa158015614381573d6000803e3d6000fd5b505050506040513d601f19601f820116820180604052508101906143a59190614da7565b11949350505050565b6143b6614a6e565b6143be614b3e565b6143c78461203c565b604085019081526020858101928352860192909252918452905190516143f1918891889190613c9b565b6143fa84613c4b565b6144078260200151614804565b604083018190526801158e460913d0000060608401526020830151600091614435919063ffffffff61245716565b905061444683600001518286614890565b60e087015260c086015260a08501526080840152614465856003613af6565b825160208401516040516001600160a01b0388169260008051602061541b8339815191529261449692600190615332565b60405180910390a2846001600160a01b031660008051602061543b833981519152600080600060016040516144ce9493929190614f61565b60405180910390a25050949350505050565b60008183106144ef57816121a3565b5090919050565b6000611520603c611162600f544261245790919063ffffffff16565b6000631f54050082111561452857631f54050091505b8161453c5750670de0b6b3a7640000611010565b670de0b6b3a764000083835b60018111156145b3576002810661457d576145638283614a0a565b915061457681600263ffffffff6126ab16565b90506145ae565b6145878284614a0a565b92506145938283614a0a565b91506145ab600261116283600163ffffffff61245716565b90505b614548565b61116e8284614a0a565b6001811180156146475750600d546040805163de8fa43160e01b815290516001926001600160a01b03169163de8fa431916004808301926020929190829003018186803b15801561460d57600080fd5b505afa158015614621573d6000803e3d6000fd5b505050506040513d601f19601f820116820180604052508101906146459190614da7565b115b610fac5760405162461bcd60e51b81526004016109bd90615090565b6001600160a01b03821660009081526010602052604081206003015460ff169081600481111561468f57fe5b141580156146a9575060018160048111156146a657fe5b14155b6146af57fe5b6001600160a01b03831660009081526010602052604081206003015461010090046001600160801b03169083906146e7826001612457565b905080836001600160801b031611156146fc57fe5b60006017828154811061470b57fe5b600091825260209091200154601780546001600160a01b03909216925082916001600160801b03871690811061473d57fe5b600091825260208083209190910180546001600160a01b0319166001600160a01b03948516179055918316815260109091526040908190206003018054610100600160881b0319166101006001600160801b03881602179055517f02b04ae5f7be9ca7c103293a2aa15f3c339d15d6eda53b721fef7b0e609c831a906147c69083908790614f1b565b60405180910390a160178054806147d957fe5b600082815260209020810160001990810180546001600160a01b031916905501905550505050505050565b600354604080516324386ecd60e11b815290516000926001600160a01b031691634870dd9a916004808301926020929190829003018186803b15801561484957600080fd5b505afa15801561485d573d6000803e3d6000fd5b505050506040513d601f19601f820116820180604052508101906148819190614da7565b828161488957fe5b0492915050565b600080808084156148e6576148a587866144e0565b93506148bb87611162888763ffffffff61267116565b92506148cd878563ffffffff61245716565b91506148df868463ffffffff61245716565b90506148f3565b5060009250829150859050845b93509350935093565b614904614a6e565b838152602080820184905260035460408051631e5395c960e21b815290516000936149a0938793611162936001600160a01b039092169263794e572492600480840193829003018186803b15801561495b57600080fd5b505afa15801561496f573d6000803e3d6000fd5b505050506040513d601f19601f820116820180604052508101906149939190614da7565b889063ffffffff61267116565b90506149ab81614804565b604083018190526801158e460913d000006060840152608083018690526149d990829063ffffffff61245716565b60a08301526149ee848263ffffffff61245716565b61010083015250600060c0820181905260e08201529392505050565b600080614a1d848463ffffffff61267116565b9050613aee670de0b6b3a7640000611162836706f05b59d3b20000613a13565b6040518060a00160405280600081526020016000815260200160001515815260200160008152602001600081525090565b6040518061012001604052806000815260200160008152602001600081526020016000815260200160008152602001600081526020016000815260200160008152602001600081525090565b6040805160e081018252600080825260208201819052918101829052606081018290526080810182905260a0810182905260c081019190915290565b6040518060e0016040528060008152602001600081526020016000815260200160006001600160a01b0316815260200160001515815260200160008152602001600081525090565b60405180606001604052806000815260200160008152602001600081525090565b803561101081615405565b600060208284031215614b7b578081fd5b81356121a381615405565b600060208284031215614b97578081fd5b81516121a381615405565b60008060408385031215614bb4578081fd5b8235614bbf81615405565b946020939093013593505050565b60006020808385031215614bdf578182fd5b823567ffffffffffffffff811115614bf5578283fd5b80840185601f820112614c06578384fd5b80359150614c1b614c16836153da565b6153b3565b8281528381019082850185850284018601891015614c37578687fd5b8693505b848410156141eb57614c4d8982614b5f565b835260019390930192918501918501614c3b565b60006101c0808385031215614c74578182fd5b614c7d816153b3565b614c878585614b5f565b8152614c968560208601614b5f565b6020820152614ca88560408601614b5f565b6040820152614cba8560608601614b5f565b6060820152614ccc8560808601614b5f565b6080820152614cde8560a08601614b5f565b60a0820152614cf08560c08601614b5f565b60c0820152614d028560e08601614b5f565b60e08201526101009150614d1885838601614b5f565b828201526101209150614d2d85838601614b5f565b828201526101409150614d4285838601614b5f565b828201526101609150614d5785838601614b5f565b828201526101809150614d6c85838601614b5f565b828201526101a09150614d8185838601614b5f565b918101919091529392505050565b600060208284031215614da0578081fd5b5035919050565b600060208284031215614db8578081fd5b5051919050565b600080600080600080600060e0888a031215614dd9578283fd5b873596506020880135614deb81615405565b95506040880135614dfb81615405565b94506060880135614e0b81615405565b9699959850939660808101359560a0820135955060c0909101359350915050565b600080600080600080600080888a03610160811215614e49578182fd5b8935985060208a0135614e5b81615405565b975060408a0135614e6b81615405565b965060608a0135614e7b81615405565b955060808a810135955060a08b0135945060c08b0135935060df1982011215614ea2578182fd5b5060e0890190509295985092959890939650565b6000828483379101908152919050565b7035b2bc9737bbb730b136329737bbb732b960791b815260110190565b6001600160a01b0391909116815260200190565b6001600160a01b039384168152919092166020820152604081019190915260600190565b6001600160a01b039290921682526001600160801b0316602082015260400190565b6001600160a01b03929092168252602082015260400190565b901515815260200190565b848152602081018490526040810183905260808101614f7f836153fa565b606083015295945050505050565b6000602080835283518082850152825b81811015614fb957858101830151858201604001528201614f9d565b81811115614fca5783604083870101525b50601f01601f1916929092016040019392505050565b6020808252601b908201527f536166654d6174683a206164646974696f6e206f766572666c6f770000000000604082015260600190565b60208082526022908201527f4f776e61626c653a3a7365744f776e65723a20696e76616c6964206164647265604082015261737360f01b606082015260800190565b6020808252601e908201527f4163636f756e742063616e6e6f74206265207a65726f20616464726573730000604082015260600190565b6020808252602a908201527f54726f76654d616e616765723a204f6e6c79206f6e652074726f766520696e206040820152697468652073797374656d60b01b606082015260800190565b60208082526021908201527f536166654d6174683a206d756c7469706c69636174696f6e206f766572666c6f6040820152607760f81b606082015260800190565b6020808252603b908201527f54726f76654d616e616765723a2043616c6c6572206973206e6f74207468652060408201527f426f72726f7765724f7065726174696f6e7320636f6e74726163740000000000606082015260800190565b60208082526017908201527613dddb98589b194e8e881858d8d95cdcc819195b9a5959604a1b604082015260600190565b60208082526036908201527f54726f76654d616e616765723a2043616c6c646174612061646472657373206160408201527572726179206d757374206e6f7420626520656d70747960501b606082015260800190565b6020808252818101527f4163636f756e7420636f64652073697a652063616e6e6f74206265207a65726f604082015260600190565b60208082526036908201527f54726f76654d616e616765723a2046656520776f756c642065617420757020616040820152751b1b081c995d1d5c9b99590818dbdb1b185d195c985b60521b606082015260800190565b60208082526022908201527f54726f76654d616e616765723a206e6f7468696e6720746f206c697175696461604082015261746560f01b606082015260800190565b6020808252602f908201527f54726f76654d616e616765723a2054726f766520646f6573206e6f742065786960408201526e1cdd081bdc881a5cc818db1bdcd959608a1b606082015260800190565b90815260200190565b918252602082015260400190565b83815260208101839052606081016004831061534a57fe5b826040830152949350505050565b858152602081018590526040810184905260a081016005841061537757fe5b60608201939093526001600160801b03919091166080909101529392505050565b93845260208401929092526040830152606082015260800190565b60405181810167ffffffffffffffff811182821017156153d257600080fd5b604052919050565b600067ffffffffffffffff8211156153f0578081fd5b5060209081020190565b806004811061107657fe5b6001600160a01b0381168114610fac57600080fdfeea67486ed7ebe3eea8ab3390efd4a3c8aae48be5bea27df104a8af786c408434c3770d654ed33aeea6bf11ac8ef05d02a6a04ed4686dd2f624d853bbec43cc8ba2646970667358221220360ab705f9ed8e8222e50d6d6310ee7c0693ad08921592870dfffe5ff62b48e964736f6c634300060b003360806040523480156200001157600080fd5b5062000026336001600160e01b036200002c16565b62000150565b6001600160a01b0381166200005e5760405162461bcd60e51b815260040162000055906200010e565b60405180910390fd5b6001600160a01b0381166200007b6001600160e01b03620000d016565b6001600160a01b03167f8be0079c531659141344cd1fd0a4f28419497f9722a3daafe3b4186f6b6457e060405160405180910390a36000604051620000c090620000f1565b6040519081900390209190915550565b600080604051620000e190620000f1565b6040519081900390205492915050565b7035b2bc9737bbb730b136329737bbb732b960791b815260110190565b60208082526022908201527f4f776e61626c653a3a7365744f776e65723a20696e76616c6964206164647265604082015261737360f01b606082015260800190565b614a7880620001606000396000f3fe6080604052600436106102205760003560e01c80637778a3db1161012e578063a3f4df7e116100ab578063e9fc34611161006f578063e9fc346114610570578063ea9638bf14610585578063ec5472fd14610598578063ec9f7d46146105ad578063f92d3433146105c257610220565b8063a3f4df7e146104f1578063ae91875414610513578063afbc74b514610528578063b5c89bab14610548578063c6a6cf201461055d57610220565b8063887105d3116100f2578063887105d31461049f578063893d20e8146104b45780638d5c3dc1146104c95780639f070670146104dc578063a20baee6146103c357610220565b80637778a3db14610422578063795d26c3146104425780637e3eefdc146104575780637f7dde4a14610477578063860665b31461048c57610220565b8063485f190f116101bc5780636f0b0c1c116101805780636f0b0c1c146103ae57806372fe25aa146103c3578063734f622d146103d8578063741bef1a146103f8578063759b30341461040d57610220565b8063485f190f146103285780634ff814431461033b5780635530273c1461035b57806368647db11461037b5780636ea569601461038e57610220565b80630d43e8ad146102255780630e704d50146102505780630ff9a5121461026757806313af40351461027c5780631a7777171461029c5780631bf43555146102bc5780632771510a146102de5780633cc74225146102fe5780633d83908a14610313575b600080fd5b34801561023157600080fd5b5061023a6105d7565b6040516102479190613fe0565b60405180910390f35b34801561025c57600080fd5b506102656105e6565b005b34801561027357600080fd5b5061023a6105f0565b34801561028857600080fd5b50610265610297366004613bf3565b6105ff565b3480156102a857600080fd5b506102656102b7366004613e27565b61064c565b3480156102c857600080fd5b506102d1610663565b60405161024791906149eb565b3480156102ea57600080fd5b506102656102f9366004613bf3565b610670565b34801561030a57600080fd5b5061023a6106fe565b34801561031f57600080fd5b5061023a61070d565b610265610336366004613e78565b61071c565b34801561034757600080fd5b506102d1610356366004613dd1565b610886565b34801561036757600080fd5b50610265610376366004613e01565b610899565b610265610389366004613c2b565b6108af565b34801561039a57600080fd5b506102656103a9366004613e78565b6108c5565b3480156103ba57600080fd5b506102656108d6565b3480156103cf57600080fd5b506102d1610934565b3480156103e457600080fd5b506102656103f3366004613cad565b610940565b34801561040457600080fd5b5061023a610d04565b34801561041957600080fd5b506102d1610d13565b34801561042e57600080fd5b5061026561043d366004613db6565b610d20565b34801561044e57600080fd5b506102d1610e11565b34801561046357600080fd5b506102d1610472366004613e78565b610f30565b34801561048357600080fd5b5061023a6111ab565b61026561049a366004613e78565b6111ba565b3480156104ab57600080fd5b506102d16111c7565b3480156104c057600080fd5b5061023a611296565b6102656104d7366004613f27565b6112b5565b3480156104e857600080fd5b5061023a6112cd565b3480156104fd57600080fd5b506105066112dc565b60405161024791906140c8565b34801561051f57600080fd5b5061023a61130a565b34801561053457600080fd5b50610265610543366004613e01565b611319565b34801561055457600080fd5b5061023a61132b565b61026561056b366004613ec1565b61133a565b34801561057c57600080fd5b5061023a611351565b610265610593366004613c63565b611360565b3480156105a457600080fd5b5061023a61137a565b3480156105b957600080fd5b5061023a611389565b3480156105ce57600080fd5b506102d1611398565b600d546001600160a01b031681565b6105ee61141a565b565b6009546001600160a01b031681565b610607611296565b6001600160a01b0316336001600160a01b0316146106405760405162461bcd60e51b8152600401610637906145b1565b60405180910390fd5b61064981611809565b50565b61065d600080866000878787611894565b50505050565b6809c2007651b250000081565b610678611296565b6001600160a01b0316336001600160a01b0316146106a85760405162461bcd60e51b8152600401610637906145b1565b600c80546001600160a01b0319166001600160a01b0383161790556040517f6926b3375b54960080b7d8a184061f39a02e8c3bf64aa9df7e75359fdc00d814906106f3908390613fe0565b60405180910390a150565b6001546001600160a01b031681565b6004546001600160a01b031681565b600c546001600160a01b03166107445760405162461bcd60e51b8152600401610637906149bb565b6107518484848430611a4a565b600a54600c5460405163095ea7b360e01b81526001600160a01b039283169263095ea7b392610787929116908790600401614035565b602060405180830381600087803b1580156107a157600080fd5b505af11580156107b5573d6000803e3d6000fd5b505050506040513d601f19601f820116820180604052508101906107d99190613d9a565b6107f55760405162461bcd60e51b81526004016106379061463f565b600c54600a5460405163438b1b4b60e01b81526001600160a01b039283169263438b1b4b9261082d9291169087903390600401614079565b602060405180830381600087803b15801561084757600080fd5b505af115801561085b573d6000803e3d6000fd5b505050506040513d601f19601f8201168201806040525081019061087f9190613de9565b5050505050565b600061089182612075565b90505b919050565b6108aa338460008086866000612090565b505050565b6108c133600080600086866000612090565b5050565b61065d33600085600186868a612090565b60075460405163b32beb5b60e01b81526001600160a01b039091169063b32beb5b90610906903390600401613fe0565b600060405180830381600087803b15801561092057600080fd5b505af115801561065d573d6000803e3d6000fd5b670de0b6b3a764000081565b610948611296565b6001600160a01b0316336001600160a01b0316146109785760405162461bcd60e51b8152600401610637906145b1565b6109818c6120a0565b61098a8b6120a0565b6109938a6120a0565b61099c896120a0565b6109a5886120a0565b6109ae876120a0565b6109b7866120a0565b6109c0856120a0565b6109c9846120a0565b6109d2836120a0565b6109db826120a0565b6109e4816120a0565b600d80546001600160a01b03199081166001600160a01b038f8116919091179092556003805482168e84161790556004805482168d84161790556000805482168c84161790556001805482168b84161790556005805482168a8416179055600680548216898416179055600780548216888416179055600280548216878416179055600b80548216868416179055600a8054821685841617905560098054821692841692831790556008805490911690911790556040517f84861842e6a98dd759145eb5e7b48279d0f02ebeabc8a69e5196b2f4c5023db990610ac8908e90613fe0565b60405180910390a17f143219c9e69b09e07e095fcc889b43d8f46ca892bba65f08dc3a0050869a56788a604051610aff9190613fe0565b60405180910390a17f78f058b189175430c48dc02699e3a0031ea4ff781536dc2fab847de4babdd88289604051610b369190613fe0565b60405180910390a17f5ee0cae2f063ed938bb55046f6a932fb6ae792bf43624806bb90abe68a50be9b88604051610b6d9190613fe0565b60405180910390a17f82966d27eea39b038ee0fa30cd16532bb24f6e65d31cb58fb227aa5766cdcc7f87604051610ba49190613fe0565b60405180910390a17fcfb07d791fcafc032b35837b50eb84b74df518cf4cc287e8084f47630fa70fa086604051610bdb9190613fe0565b60405180910390a17fe67f36a6e961157d6eff83b91f3af5a62131ceb6f04954ef74f51c1c05e7f88d85604051610c129190613fe0565b60405180910390a17f8c537274438aa850a330284665d81a85dd38267d09e4050d416bfc94142db26484604051610c499190613fe0565b60405180910390a17f65f4cf077bc01e4742eb5ad98326f6e95b63548ea24b17f8d5e823111fe7880083604051610c809190613fe0565b60405180910390a17fcdf33850c44a1a874b5fefb51dae615ac6afebd581ef90d571f81b06541d8e9d82604051610cb79190613fe0565b60405180910390a17f7624075ed781e3aa34b0f492d70d1bb5a6fcde04534165e20f990d2e546be4dd81604051610cee9190613fe0565b60405180910390a1505050505050505050505050565b6002546001600160a01b031681565b6801158e460913d0000081565b600c546001600160a01b0316610d485760405162461bcd60e51b8152600401610637906149bb565b6004805460405163d66a255360e01b81526000926001600160a01b039092169163d66a255391610d7a91339101613fe0565b60206040518083038186803b158015610d9257600080fd5b505afa158015610da6573d6000803e3d6000fd5b505050506040513d601f19601f82011682018060405250810190610dca9190613de9565b600c54909150610e08906001600160a01b0316610df6836801158e460913d0000063ffffffff6120e516565b600a546001600160a01b031685612130565b506108c161141a565b60008054604080516272c7d360e71b8152905183926001600160a01b031691633963e980916004808301926020929190829003018186803b158015610e5557600080fd5b505afa158015610e69573d6000803e3d6000fd5b505050506040513d601f19601f82011682018060405250810190610e8d9190613de9565b90506000600160009054906101000a90046001600160a01b03166001600160a01b0316633963e9806040518163ffffffff1660e01b815260040160206040518083038186803b158015610edf57600080fd5b505afa158015610ef3573d6000803e3d6000fd5b505050506040513d601f19601f82011682018060405250810190610f179190613de9565b9050610f29828263ffffffff6123e116565b9250505090565b600a546040516370a0823160e01b8152600091309183916001600160a01b0316906370a0823190610f65908590600401613fe0565b60206040518083038186803b158015610f7d57600080fd5b505afa158015610f91573d6000803e3d6000fd5b505050506040513d601f19601f82011682018060405250810190610fb59190613de9565b9050610fc533838888888c612406565b610fd5818763ffffffff6123e116565b600a546040516370a0823160e01b81526001600160a01b03909116906370a0823190611005908690600401613fe0565b60206040518083038186803b15801561101d57600080fd5b505afa158015611031573d6000803e3d6000fd5b505050506040513d601f19601f820116820180604052508101906110559190613de9565b146110725760405162461bcd60e51b815260040161063790614245565b600a54600c5460405163095ea7b360e01b81526001600160a01b039283169263095ea7b3926110a8929116908a90600401614035565b602060405180830381600087803b1580156110c257600080fd5b505af11580156110d6573d6000803e3d6000fd5b505050506040513d601f19601f820116820180604052508101906110fa9190613d9a565b6111165760405162461bcd60e51b81526004016106379061463f565b600c54600a5460405163438b1b4b60e01b81526001600160a01b039283169263438b1b4b9261114e929116908a903390600401614079565b602060405180830381600087803b15801561116857600080fd5b505af115801561117c573d6000803e3d6000fd5b505050506040513d601f19601f820116820180604052508101906111a09190613de9565b979650505050505050565b6000546001600160a01b031681565b61065d8484848433611a4a565b6000805460408051630a7b61df60e11b8152905183926001600160a01b0316916314f6c3be916004808301926020929190829003018186803b15801561120c57600080fd5b505afa158015611220573d6000803e3d6000fd5b505050506040513d601f19601f820116820180604052508101906112449190613de9565b90506000600160009054906101000a90046001600160a01b03166001600160a01b03166314f6c3be6040518163ffffffff1660e01b815260040160206040518083038186803b158015610edf57600080fd5b6000806040516112a590613fc3565b6040519081900390205492915050565b6112c487878787878787611894565b50505050505050565b6003546001600160a01b031681565b60405180604001604052806012815260200171426f72726f7765724f7065726174696f6e7360701b81525081565b600b546001600160a01b031681565b6108aa33600085600086866000612090565b600c546001600160a01b031681565b6113493386868686868c612090565b505050505050565b600c546001600160a01b031690565b611368612418565b6108aa83600080600086866000612090565b6008546001600160a01b031681565b600a546001600160a01b031681565b6003546040805163f92d343360e01b815290516000926001600160a01b03169163f92d3433916004808301926020929190829003018186803b1580156113dd57600080fd5b505afa1580156113f1573d6000803e3d6000fd5b505050506040513d601f19601f820116820180604052508101906114159190613de9565b905090565b600454600054600a546001600160a01b0392831692918216911661143e8333612442565b60025460408051630fdb11cf60e01b815290516000926001600160a01b031691630fdb11cf91600480830192602092919082900301818787803b15801561148457600080fd5b505af1158015611498573d6000803e3d6000fd5b505050506040513d601f19601f820116820180604052508101906114bc9190613de9565b90506114c7816124e3565b604051630b07655760e01b81526001600160a01b03851690630b076557906114f3903390600401613fe0565b600060405180830381600087803b15801561150d57600080fd5b505af1158015611521573d6000803e3d6000fd5b50506040516309019aaf60e31b8152600092506001600160a01b038716915063480cd57890611554903390600401613fe0565b60206040518083038186803b15801561156c57600080fd5b505afa158015611580573d6000803e3d6000fd5b505050506040513d601f19601f820116820180604052508101906115a49190613de9565b90506000856001600160a01b031663d66a2553336040518263ffffffff1660e01b81526004016115d49190613fe0565b60206040518083038186803b1580156115ec57600080fd5b505afa158015611600573d6000803e3d6000fd5b505050506040513d601f19601f820116820180604052508101906116249190613de9565b90506116498433611644846801158e460913d0000063ffffffff6120e516565b612509565b600061165a836000846000886125a5565b905061166581612630565b604051631fc5750960e31b81526001600160a01b0388169063fe2ba84890611691903390600401613fe0565b600060405180830381600087803b1580156116ab57600080fd5b505af11580156116bf573d6000803e3d6000fd5b50506040516365e89c5760e11b81526001600160a01b038a16925063cbd138ae91506116ef903390600401613fe0565b600060405180830381600087803b15801561170957600080fd5b505af115801561171d573d6000803e3d6000fd5b50505050336001600160a01b0316600080516020614a2383398151915260008060006001604051611751949392919061409c565b60405180910390a261177d868633611778866801158e460913d0000063ffffffff6120e516565b6126d5565b6006546117a090879087906001600160a01b03166801158e460913d000006126d5565b6040516364a197f360e01b81526001600160a01b038716906364a197f3906117ce9033908790600401614035565b600060405180830381600087803b1580156117e857600080fd5b505af11580156117fc573d6000803e3d6000fd5b5050505050505050505050565b6001600160a01b03811661182f5760405162461bcd60e51b81526004016106379061427c565b806001600160a01b0316611841611296565b6001600160a01b03167f8be0079c531659141344cd1fd0a4f28419497f9722a3daafe3b4186f6b6457e060405160405180910390a3600060405161188490613fc3565b6040519081900390209190915550565b600c546001600160a01b03166118bc5760405162461bcd60e51b8152600401610637906149bb565b831580156118ca5750600085115b156118f057600c54600a546118ee916001600160a01b039081169188911684612130565b505b6119003387878787878d3061278f565b83801561190d5750600085115b156112c457600a54600c5460405163095ea7b360e01b81526001600160a01b039283169263095ea7b392611948929116908990600401614035565b602060405180830381600087803b15801561196257600080fd5b505af1158015611976573d6000803e3d6000fd5b505050506040513d601f19601f8201168201806040525081019061199a9190613d9a565b6119b65760405162461bcd60e51b81526004016106379061463f565b600c54600a5460405163438b1b4b60e01b81526001600160a01b039283169263438b1b4b926119ee9291169089903390600401614079565b602060405180830381600087803b158015611a0857600080fd5b505af1158015611a1c573d6000803e3d6000fd5b505050506040513d601f19601f82011682018060405250810190611a409190613de9565b5050505050505050565b611a52613af2565b50604080516060810182526004546001600160a01b03908116825260005481166020830152600a541691810191909152611a8a613b12565b600260009054906101000a90046001600160a01b03166001600160a01b0316630fdb11cf6040518163ffffffff1660e01b8152600401602060405180830381600087803b158015611ada57600080fd5b505af1158015611aee573d6000803e3d6000fd5b505050506040513d601f19601f82011682018060405250810190611b129190613de9565b808252600090611b2190612d73565b9050611b2d8882612e0e565b8251611b399033612efa565b6040820187905280611b7a57611b5983600001518460400151898b612f9c565b602083018190526040830151611b749163ffffffff6123e116565b60408301525b611b878260400151613155565b611b948260400151612075565b60608301819052611ba157fe5b611bb4348360600151846000015161317e565b60808301526060820151611bc99034906131bd565b60a08301528015611be657611be182608001516131f2565b611c19565b611bf38260800151613297565b6000611c0c3460018560600151600187600001516125a5565b9050611c1781612630565b505b8251604051635d6b480f60e01b81526001600160a01b0390911690635d6b480f90611c4b903390600190600401614035565b600060405180830381600087803b158015611c6557600080fd5b505af1158015611c79573d6000803e3d6000fd5b505084516040516372423c1760e01b81526001600160a01b0390911692506372423c179150611cae9033903490600401614035565b602060405180830381600087803b158015611cc857600080fd5b505af1158015611cdc573d6000803e3d6000fd5b505050506040513d601f19601f82011682018060405250810190611d009190613de9565b5082516060830151604051639976cf4560e01b81526001600160a01b0390921691639976cf4591611d3691339190600401614035565b602060405180830381600087803b158015611d5057600080fd5b505af1158015611d64573d6000803e3d6000fd5b505050506040513d601f19601f82011682018060405250810190611d889190613de9565b5082516040516382fe3eb960e01b81526001600160a01b03909116906382fe3eb990611db8903390600401613fe0565b600060405180830381600087803b158015611dd257600080fd5b505af1158015611de6573d6000803e3d6000fd5b50508451604051630c7940bd60e11b81526001600160a01b0390911692506318f2817a9150611e19903390600401613fe0565b602060405180830381600087803b158015611e3357600080fd5b505af1158015611e47573d6000803e3d6000fd5b505050506040513d601f19601f82011682018060405250810190611e6b9190613de9565b60c0830152600b5460a08301516040516346f7cf8760e01b81526001600160a01b03909216916346f7cf8791611eaa913391908b908b9060040161404e565b600060405180830381600087803b158015611ec457600080fd5b505af1158015611ed8573d6000803e3d6000fd5b505084516040516315d549f160e01b81526001600160a01b0390911692506315d549f19150611f0b903390600401613fe0565b602060405180830381600087803b158015611f2557600080fd5b505af1158015611f39573d6000803e3d6000fd5b505050506040513d601f19601f82011682018060405250810190611f5d9190613de9565b60e0830181905260405133917f59cfd0cd754bc5748b6770e94a4ffa5f678d885cb899dcfadc5734edb97c67ab91611f9591906149eb565b60405180910390a2611fab83602001513461333c565b611fc483602001518460400151868a86604001516133b8565b60208301516040840151600654611ff09291906001600160a01b03166801158e460913d00000806133b8565b606082015160c08301516040513392600080516020614a238339815191529261201e9234919060009061409c565b60405180910390a2336001600160a01b03167f71457d8a5ab7e4561ed49d05338674b73ac3b83b0b315f165f5b12bcc0022741836020015160405161206391906149eb565b60405180910390a25050505050505050565b6000610891826801158e460913d0000063ffffffff6123e116565b6112c4878787878787873361278f565b6001600160a01b0381166120c65760405162461bcd60e51b8152600401610637906143be565b803b806108c15760405162461bcd60e51b815260040161063790614762565b600061212783836040518060400160405280601e81526020017f536166654d6174683a207375627472616374696f6e206f766572666c6f77000081525061347d565b90505b92915050565b600080856001600160a01b03166321df0da76040518163ffffffff1660e01b815260040160206040518083038186803b15801561216c57600080fd5b505afa158015612180573d6000803e3d6000fd5b505050506040513d601f19601f820116820180604052508101906121a49190613c0f565b90506000816001600160a01b03166370a08231306040518263ffffffff1660e01b81526004016121d49190613fe0565b60206040518083038186803b1580156121ec57600080fd5b505afa158015612200573d6000803e3d6000fd5b505050506040513d601f19601f820116820180604052508101906122249190613de9565b9050306001600160a01b03831663605629d633838a893561224b60408c0160208d01613f9f565b8b604001358c606001356040518863ffffffff1660e01b81526004016122779796959493929190613ff4565b600060405180830381600087803b15801561229157600080fd5b505af11580156122a5573d6000803e3d6000fd5b505050508661233683856001600160a01b03166370a08231856040518263ffffffff1660e01b81526004016122da9190613fe0565b60206040518083038186803b1580156122f257600080fd5b505afa158015612306573d6000803e3d6000fd5b505050506040513d601f19601f8201168201806040525081019061232a9190613de9565b9063ffffffff6120e516565b146123535760405162461bcd60e51b8152600401610637906141c5565b60405163fb2c922360e01b81526001600160a01b0389169063fb2c9223906123839089908b903390600401614079565b602060405180830381600087803b15801561239d57600080fd5b505af11580156123b1573d6000803e3d6000fd5b505050506040513d601f19601f820116820180604052508101906123d59190613de9565b98975050505050505050565b6000828201838110156121275760405162461bcd60e51b81526004016106379061420e565b6113498660008660018787878c61278f565b6005546001600160a01b031633146105ee5760405162461bcd60e51b815260040161063790614800565b6040516321e3780160e01b81526000906001600160a01b038416906321e3780190612471908590600401613fe0565b60206040518083038186803b15801561248957600080fd5b505afa15801561249d573d6000803e3d6000fd5b505050506040513d601f19601f820116820180604052508101906124c19190613de9565b9050806001146108aa5760405162461bcd60e51b815260040161063790614563565b6124ec81612d73565b156106495760405162461bcd60e51b81526004016106379061430e565b6040516370a0823160e01b815281906001600160a01b038516906370a0823190612537908690600401613fe0565b60206040518083038186803b15801561254f57600080fd5b505afa158015612563573d6000803e3d6000fd5b505050506040513d601f19601f820116820180604052508101906125879190613de9565b10156108aa5760405162461bcd60e51b81526004016106379061411b565b6000806125b06111c7565b905060006125bc610e11565b9050866125d8576125d3828963ffffffff6120e516565b6125e8565b6125e8828963ffffffff6123e116565b915084612604576125ff818763ffffffff6120e516565b612614565b612614818763ffffffff6123e116565b9050600061262383838761317e565b9998505050505050505050565b600360009054906101000a90046001600160a01b03166001600160a01b0316635733d58f6040518163ffffffff1660e01b815260040160206040518083038186803b15801561267e57600080fd5b505afa158015612692573d6000803e3d6000fd5b505050506040513d601f19601f820116820180604052508101906126b69190613de9565b8110156106495760405162461bcd60e51b8152600401610637906144f4565b60405163121cbc4d60e11b81526001600160a01b03851690632439789a906127019084906004016149eb565b600060405180830381600087803b15801561271b57600080fd5b505af115801561272f573d6000803e3d6000fd5b5050604051632770a7eb60e21b81526001600160a01b0386169250639dc29fac91506127619085908590600401614035565b600060405180830381600087803b15801561277b57600080fd5b505af1158015611a40573d6000803e3d6000fd5b612797613af2565b50604080516060810182526004546001600160a01b03908116825260005481166020830152600a5416918101919091526127cf613b57565b600260009054906101000a90046001600160a01b03166001600160a01b0316630fdb11cf6040518163ffffffff1660e01b8152600401602060405180830381600087803b15801561281f57600080fd5b505af1158015612833573d6000803e3d6000fd5b505050506040513d601f19601f820116820180604052508101906128579190613de9565b80825261286390612d73565b15156101c082015286156128895761288084826101c00151612e0e565b612889886134a9565b612892896134c9565b61289c89896134f0565b81516128a8908b612442565b336001600160a01b038b1614806128de57506005546001600160a01b0316331480156128d45750600034115b80156128de575087155b6128e457fe5b8151604051630b07655760e01b81526001600160a01b0390911690630b07655790612913908d90600401613fe0565b600060405180830381600087803b15801561292d57600080fd5b505af1158015612941573d6000803e3d6000fd5b5050505061294f348a613523565b151560608301526020820152604081018890528680156129725750806101c00151155b156129ad5761298b826000015183604001518a87612f9c565b610120820181905260408201516129a79163ffffffff6123e116565b60408201525b815160405163d66a255360e01b81526001600160a01b039091169063d66a2553906129dc908d90600401613fe0565b60206040518083038186803b1580156129f457600080fd5b505afa158015612a08573d6000803e3d6000fd5b505050506040513d601f19601f82011682018060405250810190612a2c9190613de9565b608082015281516040516309019aaf60e31b81526001600160a01b039091169063480cd57890612a60908d90600401613fe0565b60206040518083038186803b158015612a7857600080fd5b505afa158015612a8c573d6000803e3d6000fd5b505050506040513d601f19601f82011682018060405250810190612ab09190613de9565b60a0820181905260808201518251612ac992919061317e565b8160c0018181525050612af98160a0015182608001518360200151846060015185604001518c8760000151613542565b60e082015260a0810151891115612b0c57fe5b612b1d816101c001518a8984613575565b86158015612b2b5750600088115b15612b7257612b4d612b48826040015161232a84608001516135e9565b613155565b612b5f81608001518260400151613604565b612b7282604001518b8360400151612509565b612b9082600001518b8360200151846060015185604001518c61363c565b6101408301526101608201528151604051630c7940bd60e11b81526001600160a01b03909116906318f2817a90612bcb908d90600401613fe0565b602060405180830381600087803b158015612be557600080fd5b505af1158015612bf9573d6000803e3d6000fd5b505050506040513d601f19601f82011682018060405250810190612c1d9190613de9565b81610180018181525050612c498160a0015182608001518360200151846060015185604001518c61386a565b6101a08201819052600b5460405163015f109360e51b81526001600160a01b0390911691632be2126091612c85918e918b908b9060040161404e565b600060405180830381600087803b158015612c9f57600080fd5b505af1158015612cb3573d6000803e3d6000fd5b50505050896001600160a01b0316600080516020614a238339815191528261014001518361016001518461018001516002604051612cf4949392919061409c565b60405180910390a2336001600160a01b03167f71457d8a5ab7e4561ed49d05338674b73ac3b83b0b315f165f5b12bcc0022741826101200151604051612d3a91906149eb565b60405180910390a2612d678260200151836040015133846020015185606001518d8d88604001518b61389b565b50505050505050505050565b600080612d7f8361393f565b9050600360009054906101000a90046001600160a01b03166001600160a01b0316635733d58f6040518163ffffffff1660e01b815260040160206040518083038186803b158015612dcf57600080fd5b505afa158015612de3573d6000803e3d6000fd5b505050506040513d601f19601f82011682018060405250810190612e079190613de9565b1192915050565b8015612e4157670de0b6b3a7640000821115612e3c5760405162461bcd60e51b8152600401610637906143f5565b6108c1565b600360009054906101000a90046001600160a01b03166001600160a01b031663f92d34336040518163ffffffff1660e01b815260040160206040518083038186803b158015612e8f57600080fd5b505afa158015612ea3573d6000803e3d6000fd5b505050506040513d601f19601f82011682018060405250810190612ec79190613de9565b8210158015612ede5750670de0b6b3a76400008211155b6108c15760405162461bcd60e51b815260040161063790614849565b6040516321e3780160e01b81526000906001600160a01b038416906321e3780190612f29908590600401613fe0565b60206040518083038186803b158015612f4157600080fd5b505afa158015612f55573d6000803e3d6000fd5b505050506040513d601f19601f82011682018060405250810190612f799190613de9565b905080600114156108aa5760405162461bcd60e51b815260040161063790614899565b6000846001600160a01b0316635dba4c4a6040518163ffffffff1660e01b8152600401600060405180830381600087803b158015612fd957600080fd5b505af1158015612fed573d6000803e3d6000fd5b5050604051630631203b60e41b8152600092506001600160a01b038816915063631203b0906130209087906004016149eb565b60206040518083038186803b15801561303857600080fd5b505afa15801561304c573d6000803e3d6000fd5b505050506040513d601f19601f820116820180604052508101906130709190613de9565b905061307d81858561396b565b600d546040516340c10f1960e01b81526001600160a01b03878116926340c10f19926130b192909116908590600401614035565b600060405180830381600087803b1580156130cb57600080fd5b505af11580156130df573d6000803e3d6000fd5b50505050600d60009054906101000a90046001600160a01b03166001600160a01b031663bb57ad206040518163ffffffff1660e01b8152600401600060405180830381600087803b15801561313357600080fd5b505af1158015613147573d6000803e3d6000fd5b509298975050505050505050565b6809c2007651b25000008110156106495760405162461bcd60e51b815260040161063790614705565b600082156131b15760006131a88461319c878663ffffffff6139ab16565b9063ffffffff6139e516565b91506131b69050565b506000195b9392505050565b600081156131e9576131e28261319c8568056bc75e2d6310000063ffffffff6139ab16565b905061212a565b5060001961212a565b600360009054906101000a90046001600160a01b03166001600160a01b0316635733d58f6040518163ffffffff1660e01b815260040160206040518083038186803b15801561324057600080fd5b505afa158015613254573d6000803e3d6000fd5b505050506040513d601f19601f820116820180604052508101906132789190613de9565b8110156106495760405162461bcd60e51b815260040161063790614367565b600360009054906101000a90046001600160a01b03166001600160a01b031663794e57246040518163ffffffff1660e01b815260040160206040518083038186803b1580156132e557600080fd5b505afa1580156132f9573d6000803e3d6000fd5b505050506040513d601f19601f8201168201806040525081019061331d9190613de9565b8110156106495760405162461bcd60e51b815260040161063790614696565b6000826001600160a01b03168260405161335590613fc0565b60006040518083038185875af1925050503d8060008114613392576040519150601f19603f3d011682016040523d82523d6000602084013e613397565b606091505b50509050806108aa5760405162461bcd60e51b815260040161063790614178565b60405163f2e91d7160e01b81526001600160a01b0386169063f2e91d71906133e49084906004016149eb565b600060405180830381600087803b1580156133fe57600080fd5b505af1158015613412573d6000803e3d6000fd5b50506040516340c10f1960e01b81526001600160a01b03871692506340c10f1991506134449086908690600401614035565b600060405180830381600087803b15801561345e57600080fd5b505af1158015613472573d6000803e3d6000fd5b505050505050505050565b600081848411156134a15760405162461bcd60e51b815260040161063791906140c8565b505050900390565b600081116106495760405162461bcd60e51b8152600401610637906148d0565b3415806134d4575080155b6106495760405162461bcd60e51b8152600401610637906142be565b341515806134fd57508115155b8061350757508015155b6108c15760405162461bcd60e51b815260040161063790614447565b60008083156135375750829050600161353b565b8291505b9250929050565b60008060006135558a8a8a8a8a8a613a27565b91509150600061356683838761317e565b9b9a5050505050505050505050565b83156135ae5761358483613a7d565b81156135a9576135978160e001516131f2565b6135a98160e001518260c00151613a9b565b61065d565b6135bb8160e00151613297565b6135d88160200151826060015183604001518585600001516125a5565b610100820181905261065d90612630565b6000610891826801158e460913d0000063ffffffff6120e516565b61361d826801158e460913d0000063ffffffff6120e516565b8111156108c15760405162461bcd60e51b815260040161063790614797565b6000806000856136cb5760405163d3d6f84360e01b81526001600160a01b038a169063d3d6f84390613674908b908b90600401614035565b602060405180830381600087803b15801561368e57600080fd5b505af11580156136a2573d6000803e3d6000fd5b505050506040513d601f19601f820116820180604052508101906136c69190613de9565b61374b565b6040516372423c1760e01b81526001600160a01b038a16906372423c17906136f9908b908b90600401614035565b602060405180830381600087803b15801561371357600080fd5b505af1158015613727573d6000803e3d6000fd5b505050506040513d601f19601f8201168201806040525081019061374b9190613de9565b90506000846137d957604051630930874960e11b81526001600160a01b038b16906312610e9290613782908c908a90600401614035565b602060405180830381600087803b15801561379c57600080fd5b505af11580156137b0573d6000803e3d6000fd5b505050506040513d601f19601f820116820180604052508101906137d49190613de9565b613859565b604051639976cf4560e01b81526001600160a01b038b1690639976cf4590613807908c908a90600401614035565b602060405180830381600087803b15801561382157600080fd5b505af1158015613835573d6000803e3d6000fd5b505050506040513d601f19601f820116820180604052508101906138599190613de9565b919a91995090975050505050505050565b600080600061387d898989898989613a27565b91509150600061388d83836131bd565b9a9950505050505050505050565b82156138b3576138ae89898387866133b8565b6138bf565b6138bf898989876126d5565b84156138d4576138cf898761333c565b613472565b6040516364a197f360e01b81526001600160a01b038a16906364a197f390613902908a908a90600401614035565b600060405180830381600087803b15801561391c57600080fd5b505af1158015613930573d6000803e3d6000fd5b50505050505050505050505050565b60008061394a6111c7565b90506000613956610e11565b905061396382828661317e565b949350505050565b60006139898361319c86670de0b6b3a764000063ffffffff6139ab16565b90508181111561065d5760405162461bcd60e51b815260040161063790614984565b6000826139ba5750600061212a565b828202828482816139c757fe5b04146121275760405162461bcd60e51b8152600401610637906144b3565b600061212783836040518060400160405280601a81526020017f536166654d6174683a206469766973696f6e206279207a65726f000000000000815250613abb565b600080878786613a4657613a418a8963ffffffff6120e516565b613a56565b613a568a8963ffffffff6123e116565b915084613a6d576137d4898763ffffffff6120e516565b613859898763ffffffff6123e116565b80156106495760405162461bcd60e51b8152600401610637906145e2565b808210156108c15760405162461bcd60e51b815260040161063790614927565b60008183613adc5760405162461bcd60e51b815260040161063791906140c8565b506000838581613ae857fe5b0495945050505050565b604080516060810182526000808252602082018190529181019190915290565b60405180610100016040528060008152602001600081526020016000815260200160008152602001600081526020016000815260200160008152602001600081525090565b604051806101e00160405280600081526020016000815260200160008152602001600015158152602001600081526020016000815260200160008152602001600081526020016000815260200160008152602001600081526020016000815260200160008152602001600081526020016000151581525090565b803561212a816149ff565b600060808284031215613bed578081fd5b50919050565b600060208284031215613c04578081fd5b8135612127816149ff565b600060208284031215613c20578081fd5b8151612127816149ff565b60008060408385031215613c3d578081fd5b8235613c48816149ff565b91506020830135613c58816149ff565b809150509250929050565b600080600060608486031215613c77578081fd5b8335613c82816149ff565b92506020840135613c92816149ff565b91506040840135613ca2816149ff565b809150509250925092565b6000806000806000806000806000806000806101808d8f031215613ccf578788fd5b8c35613cda816149ff565b9b5060208d0135613cea816149ff565b9a5060408d0135613cfa816149ff565b995060608d0135613d0a816149ff565b985060808d0135613d1a816149ff565b975060a08d0135613d2a816149ff565b9650613d398e60c08f01613bd1565b9550613d488e60e08f01613bd1565b9450613d588e6101008f01613bd1565b9350613d688e6101208f01613bd1565b9250613d788e6101408f01613bd1565b9150613d888e6101608f01613bd1565b90509295989b509295989b509295989b565b600060208284031215613dab578081fd5b815161212781614a14565b600060808284031215613dc7578081fd5b6121278383613bdc565b600060208284031215613de2578081fd5b5035919050565b600060208284031215613dfa578081fd5b5051919050565b600080600060608486031215613e15578283fd5b833592506020840135613c92816149ff565b60008060008060e08587031215613e3c578384fd5b843593506020850135613e4e816149ff565b92506040850135613e5e816149ff565b9150613e6d8660608701613bdc565b905092959194509250565b60008060008060808587031215613e8d578384fd5b84359350602085013592506040850135613ea6816149ff565b91506060850135613eb6816149ff565b939692955090935050565b60008060008060008060c08789031215613ed9578384fd5b8635955060208701359450604087013593506060870135613ef981614a14565b92506080870135613f09816149ff565b915060a0870135613f19816149ff565b809150509295509295509295565b6000806000806000806000610140888a031215613f42578081fd5b8735965060208801359550604088013594506060880135613f6281614a14565b93506080880135613f72816149ff565b925060a0880135613f82816149ff565b9150613f918960c08a01613bdc565b905092959891949750929550565b600060208284031215613fb0578081fd5b813560ff81168114612127578182fd5b90565b7035b2bc9737bbb730b136329737bbb732b960791b815260110190565b6001600160a01b0391909116815260200190565b6001600160a01b0397881681529590961660208601526040850193909352606084019190915260ff16608083015260a082015260c081019190915260e00190565b6001600160a01b03929092168252602082015260400190565b6001600160a01b03948516815260208101939093529083166040830152909116606082015260800190565b6001600160a01b0393841681526020810192909252909116604082015260600190565b8481526020810184905260408101839052608081016140ba836149f4565b606083015295945050505050565b6000602080835283518082850152825b818110156140f4578581018301518582016040015282016140d8565b818111156141055783604083870101525b50601f01601f1916929092016040019392505050565b6020808252603d908201527f426f72726f7765724f70733a2043616c6c657220646f65736e7420686176652060408201527f656e6f756768205a55534420746f206d616b652072657061796d656e74000000606082015260800190565b6020808252602d908201527f426f72726f7765724f70733a2053656e64696e672045544820746f204163746960408201526c1d99541bdbdb0819985a5b1959609a1b606082015260800190565b60208082526029908201527f444c4c52207472616e7366657272656420616d6f756e742076616c69646174696040820152681bdb8819985a5b195960ba1b606082015260800190565b6020808252601b908201527f536166654d6174683a206164646974696f6e206f766572666c6f770000000000604082015260600190565b6020808252601e908201527f5a555344206973206e6f7420626f72726f77656420636f72726563746c790000604082015260600190565b60208082526022908201527f4f776e61626c653a3a7365744f776e65723a20696e76616c6964206164647265604082015261737360f01b606082015260800190565b60208082526030908201527f426f72726f7765724f7065726174696f6e733a2043616e6e6f7420776974686460408201526f1c985dc8185b99081859190818dbdb1b60821b606082015260800190565b60208082526039908201527f426f72726f7765724f70733a204f7065726174696f6e206e6f74207065726d696040820152787474656420647572696e67205265636f76657279204d6f646560381b606082015260800190565b60208082526037908201527f426f72726f7765724f70733a204f7065726174696f6e206d757374206c65617660408201527632903a3937bb32903bb4ba341024a1a9101f1e9021a1a960491b606082015260800190565b6020808252601e908201527f4163636f756e742063616e6e6f74206265207a65726f20616464726573730000604082015260600190565b60208082526032908201527f4d6178206665652070657263656e74616765206d757374206c657373207468616040820152716e206f7220657175616c20746f203130302560701b606082015260800190565b60208082526046908201527f426f72726f7765724f70733a205468657265206d75737420626520656974686560408201527f72206120636f6c6c61746572616c206368616e6765206f7220612064656274206060820152656368616e676560d01b608082015260a00190565b60208082526021908201527f536166654d6174683a206d756c7469706c69636174696f6e206f766572666c6f6040820152607760f81b606082015260800190565b60208082526049908201527f426f72726f7765724f70733a20416e206f7065726174696f6e2074686174207760408201527f6f756c6420726573756c7420696e20544352203c20434352206973206e6f74206060820152681c195c9b5a5d1d195960ba1b608082015260a00190565b6020808252602e908201527f426f72726f7765724f70733a2054726f766520646f6573206e6f74206578697360408201526d1d081bdc881a5cc818db1bdcd95960921b606082015260800190565b60208082526017908201527613dddb98589b194e8e881858d8d95cdcc819195b9a5959604a1b604082015260600190565b6020808252603e908201527f426f72726f7765724f70733a20436f6c6c61746572616c20776974686472617760408201527f616c206e6f74207065726d6974746564205265636f76657279204d6f64650000606082015260800190565b60208082526037908201527f4661696c656420746f20617070726f7665205a55534420616d6f756e7420666f60408201527672204d796e74206d417373657420746f2072656465656d60481b606082015260800190565b60208082526049908201527f426f72726f7765724f70733a20416e206f7065726174696f6e2074686174207760408201527f6f756c6420726573756c7420696e20494352203c204d4352206973206e6f74206060820152681c195c9b5a5d1d195960ba1b608082015260a00190565b6020808252603a908201527f426f72726f7765724f70733a2054726f76652773206e65742064656274206d7560408201527f73742062652067726561746572207468616e206d696e696d756d000000000000606082015260800190565b6020808252818101527f4163636f756e7420636f64652073697a652063616e6e6f74206265207a65726f604082015260600190565b60208082526043908201527f426f72726f7765724f70733a20416d6f756e7420726570616964206d7573742060408201527f6e6f74206265206c6172676572207468616e207468652054726f76652773206460608201526219589d60ea1b608082015260a00190565b60208082526029908201527f426f72726f7765724f70733a2043616c6c6572206973206e6f742053746162696040820152681b1a5d1e48141bdbdb60ba1b606082015260800190565b60208082526030908201527f4d6178206665652070657263656e74616765206d75737420626520626574776560408201526f656e20302e352520616e64203130302560801b606082015260800190565b6020808252601c908201527f426f72726f7765724f70733a2054726f76652069732061637469766500000000604082015260600190565b60208082526037908201527f426f72726f7765724f70733a204465627420696e637265617365207265717569604082015276726573206e6f6e2d7a65726f20646562744368616e676560481b606082015260800190565b6020808252603e908201527f426f72726f7765724f70733a2043616e6e6f7420646563726561736520796f7560408201527f722054726f766527732049435220696e205265636f76657279204d6f64650000606082015260800190565b6020808252601d908201527f4665652065786365656465642070726f7669646564206d6178696d756d000000604082015260600190565b60208082526016908201527513585cdcd95d081859191c995cdcc81b9bdd081cd95d60521b604082015260600190565b90815260200190565b806003811061089457fe5b6001600160a01b038116811461064957600080fd5b801515811461064957600080fdfec3770d654ed33aeea6bf11ac8ef05d02a6a04ed4686dd2f624d853bbec43cc8ba26469706673582212203cec7d4c5337979a752ab4f1b8da0cc607bc2508b28986739fefcae556b2e90264736f6c634300060b0033608060405234801561001057600080fd5b50610023336001600160e01b0361002816565b610110565b6001600160a01b03811661006d5760405162461bcd60e51b8152600401808060200182810382526022815260200180610df66022913960400191505060405180910390fd5b6001600160a01b0381166100886001600160e01b036100e616565b6001600160a01b03167f8be0079c531659141344cd1fd0a4f28419497f9722a3daafe3b4186f6b6457e060405160405180910390a3604080517035b2bc9737bbb730b136329737bbb732b960791b8152905190819003601101902055565b604080517035b2bc9737bbb730b136329737bbb732b960791b815290519081900360110190205490565b610cd78061011f6000396000f3fe6080604052600436106100b65760003560e01c80635a4d28bb1161006f5780635a4d28bb1461022b57806364a197f314610240578063893d20e814610279578063a3f4df7e1461028e578063aac1846f14610318578063b7f8cf9b1461032d578063f2e91d71146103425761010f565b80630b622ab21461011457806313af40351461014557806314f6c3be1461017a5780632439789a146101a15780633963e980146101cb5780634a945f8d146101e05761010f565b3661010f576100c361036c565b6004546100d6903463ffffffff6103cc16565b600481905560408051918252517fca232b5abb988c540b959ff6c3bfae3e97fff964fd098c508f9613c0a6bf1a809181900360200190a1005b600080fd5b34801561012057600080fd5b5061012961042d565b604080516001600160a01b039092168252519081900360200190f35b34801561015157600080fd5b506101786004803603602081101561016857600080fd5b50356001600160a01b031661043c565b005b34801561018657600080fd5b5061018f6104af565b60408051918252519081900360200190f35b3480156101ad57600080fd5b50610178600480360360208110156101c457600080fd5b50356104b5565b3480156101d757600080fd5b5061018f61050a565b3480156101ec57600080fd5b506101786004803603608081101561020357600080fd5b506001600160a01b038135811691602081013582169160408201358116916060013516610510565b34801561023757600080fd5b506101296106cf565b34801561024c57600080fd5b506101786004803603604081101561026357600080fd5b506001600160a01b0381351690602001356106de565b34801561028557600080fd5b5061012961081f565b34801561029a57600080fd5b506102a3610849565b6040805160208082528351818301528351919283929083019185019080838360005b838110156102dd5781810151838201526020016102c5565b50505050905090810190601f16801561030a5780820380516001836020036101000a031916815260200191505b509250505060405180910390f35b34801561032457600080fd5b5061012961086f565b34801561033957600080fd5b5061012961087e565b34801561034e57600080fd5b506101786004803603602081101561036557600080fd5b503561088d565b6000546001600160a01b031633148061038f57506003546001600160a01b031633145b6103ca5760405162461bcd60e51b8152600401808060200182810382526031815260200180610c716031913960400191505060405180910390fd5b565b600082820183811015610426576040805162461bcd60e51b815260206004820152601b60248201527f536166654d6174683a206164646974696f6e206f766572666c6f770000000000604482015290519081900360640190fd5b9392505050565b6002546001600160a01b031681565b61044461081f565b6001600160a01b0316336001600160a01b0316146104a3576040805162461bcd60e51b815260206004820152601760248201527613dddb98589b194e8e881858d8d95cdcc819195b9a5959604a1b604482015290519081900360640190fd5b6104ac816108a8565b50565b60045490565b6104bd61095d565b6005546104d0908263ffffffff6109d016565b600581905560408051918252517fc179e77847def189a2838a920a4d2d78f966467c47494a7fb5fbd1477a2cf4f59181900360200190a150565b60055490565b61051861081f565b6001600160a01b0316336001600160a01b031614610577576040805162461bcd60e51b815260206004820152601760248201527613dddb98589b194e8e881858d8d95cdcc819195b9a5959604a1b604482015290519081900360640190fd5b61058084610a12565b61058983610a12565b61059282610a12565b61059b81610a12565b600080546001600160a01b038087166001600160a01b031992831681179093556001805487831690841617905560028054868316908416179055600380549185169190921617905560408051918252517f3ca631ffcd2a9b5d9ae18543fc82f58eb4ca33af9e6ab01b7a8e95331e6ed9859181900360200190a1604080516001600160a01b038516815290517f143219c9e69b09e07e095fcc889b43d8f46ca892bba65f08dc3a0050869a56789181900360200190a1604080516001600160a01b038416815290517f82966d27eea39b038ee0fa30cd16532bb24f6e65d31cb58fb227aa5766cdcc7f9181900360200190a1604080516001600160a01b038316815290517f5ee0cae2f063ed938bb55046f6a932fb6ae792bf43624806bb90abe68a50be9b9181900360200190a150505050565b6001546001600160a01b031681565b6106e661095d565b6004546106f9908263ffffffff6109d016565b600481905560408051918252517fca232b5abb988c540b959ff6c3bfae3e97fff964fd098c508f9613c0a6bf1a809181900360200190a1604080516001600160a01b03841681526020810183905281517f6109e2559dfa766aaec7118351d48a523f0a4157f49c8d68749c8ac41318ad12929181900390910190a16040516000906001600160a01b0384169083908381818185875af1925050503d80600081146107bf576040519150601f19603f3d011682016040523d82523d6000602084013e6107c4565b606091505b505090508061081a576040805162461bcd60e51b815260206004820152601e60248201527f416374697665506f6f6c3a2073656e64696e6720455448206661696c65640000604482015290519081900360640190fd5b505050565b604080517035b2bc9737bbb730b136329737bbb732b960791b815290519081900360110190205490565b6040518060400160405280600a8152602001691058dd1a5d99541bdbdb60b21b81525081565b6003546001600160a01b031681565b6000546001600160a01b031681565b610895610ac5565b6005546104d0908263ffffffff6103cc16565b6001600160a01b0381166108ed5760405162461bcd60e51b8152600401808060200182810382526022815260200180610bfc6022913960400191505060405180910390fd5b806001600160a01b03166108ff61081f565b6001600160a01b03167f8be0079c531659141344cd1fd0a4f28419497f9722a3daafe3b4186f6b6457e060405160405180910390a3604080517035b2bc9737bbb730b136329737bbb732b960791b8152905190819003601101902055565b6000546001600160a01b031633148061098057506001546001600160a01b031633145b8061099557506002546001600160a01b031633145b6103ca5760405162461bcd60e51b8152600401808060200182810382526053815260200180610c1e6053913960600191505060405180910390fd5b600061042683836040518060400160405280601e81526020017f536166654d6174683a207375627472616374696f6e206f766572666c6f770000815250610b23565b6001600160a01b038116610a6d576040805162461bcd60e51b815260206004820152601e60248201527f4163636f756e742063616e6e6f74206265207a65726f20616464726573730000604482015290519081900360640190fd5b803b80610ac1576040805162461bcd60e51b815260206004820181905260248201527f4163636f756e7420636f64652073697a652063616e6e6f74206265207a65726f604482015290519081900360640190fd5b5050565b6000546001600160a01b0316331480610ae857506001546001600160a01b031633145b6103ca5760405162461bcd60e51b8152600401808060200182810382526041815260200180610bbb6041913960600191505060405180910390fd5b60008184841115610bb25760405162461bcd60e51b81526004018080602001828103825283818151815260200191508051906020019080838360005b83811015610b77578181015183820152602001610b5f565b50505050905090810190601f168015610ba45780820380516001836020036101000a031916815260200191505b509250505060405180910390fd5b50505090039056fe416374697665506f6f6c3a2043616c6c6572206973206e65697468657220426f72726f7765724f7065726174696f6e73206e6f722054726f76654d616e616765724f776e61626c653a3a7365744f776e65723a20696e76616c69642061646472657373416374697665506f6f6c3a2043616c6c6572206973206e65697468657220426f72726f7765724f7065726174696f6e73206e6f722054726f76654d616e61676572206e6f722053746162696c697479506f6f6c416374697665506f6f6c3a2043616c6c6572206973206e65697468657220424f206e6f722044656661756c7420506f6f6ca26469706673582212209b05c372200c8127ca513fb34ec2474a15cb2a4151e9268b0749f3eb662cb88b64736f6c634300060b00334f776e61626c653a3a7365744f776e65723a20696e76616c69642061646472657373608060405234801561001057600080fd5b50610023336001600160e01b0361002816565b610110565b6001600160a01b03811661006d5760405162461bcd60e51b8152600401808060200182810382526022815260200180610bd56022913960400191505060405180910390fd5b6001600160a01b0381166100886001600160e01b036100e616565b6001600160a01b03167f8be0079c531659141344cd1fd0a4f28419497f9722a3daafe3b4186f6b6457e060405160405180910390a3604080517035b2bc9737bbb730b136329737bbb732b960791b8152905190819003601101902055565b604080517035b2bc9737bbb730b136329737bbb732b960791b815290519081900360110190205490565b610ab68061011f6000396000f3fe6080604052600436106100a05760003560e01c8063893d20e811610064578063893d20e8146101ca57806390107afe146101df578063a3f4df7e1461021a578063b08bc722146102a4578063be41205f146102b9578063f2e91d71146102e3576100f9565b806313af4035146100fe57806314f6c3be146101335780632439789a1461015a5780633963e980146101845780635a4d28bb14610199576100f9565b366100f9576100ad61030d565b6002546100c0903463ffffffff61035816565b600281905560408051918252517f9a14ae677a60400af9176bed2e2d5ce8dfa6405e6c1702debb27668f567214289181900360200190a1005b600080fd5b34801561010a57600080fd5b506101316004803603602081101561012157600080fd5b50356001600160a01b03166103b9565b005b34801561013f57600080fd5b5061014861042c565b60408051918252519081900360200190f35b34801561016657600080fd5b506101316004803603602081101561017d57600080fd5b5035610432565b34801561019057600080fd5b50610148610487565b3480156101a557600080fd5b506101ae61048d565b604080516001600160a01b039092168252519081900360200190f35b3480156101d657600080fd5b506101ae61049c565b3480156101eb57600080fd5b506101316004803603604081101561020257600080fd5b506001600160a01b03813581169160200135166104c6565b34801561022657600080fd5b5061022f6105df565b6040805160208082528351818301528351919283929083019185019080838360005b83811015610269578181015183820152602001610251565b50505050905090810190601f1680156102965780820380516001836020036101000a031916815260200191505b509250505060405180910390f35b3480156102b057600080fd5b506101ae610606565b3480156102c557600080fd5b50610131600480360360208110156102dc57600080fd5b5035610615565b3480156102ef57600080fd5b506101316004803603602081101561030657600080fd5b5035610765565b6001546001600160a01b031633146103565760405162461bcd60e51b8152600401808060200182810382526029815260200180610a0b6029913960400191505060405180910390fd5b565b6000828201838110156103b2576040805162461bcd60e51b815260206004820152601b60248201527f536166654d6174683a206164646974696f6e206f766572666c6f770000000000604482015290519081900360640190fd5b9392505050565b6103c161049c565b6001600160a01b0316336001600160a01b031614610420576040805162461bcd60e51b815260206004820152601760248201527613dddb98589b194e8e881858d8d95cdcc819195b9a5959604a1b604482015290519081900360640190fd5b61042981610780565b50565b60025490565b61043a610835565b60035461044d908263ffffffff61087e16565b600381905560408051918252517f636083bfd8929ae461979d51af53349434cd5ee35f983909b704bded4142b9519181900360200190a150565b60035490565b6000546001600160a01b031681565b604080517035b2bc9737bbb730b136329737bbb732b960791b815290519081900360110190205490565b6104ce61049c565b6001600160a01b0316336001600160a01b03161461052d576040805162461bcd60e51b815260206004820152601760248201527613dddb98589b194e8e881858d8d95cdcc819195b9a5959604a1b604482015290519081900360640190fd5b610536826108c0565b61053f816108c0565b600080546001600160a01b038085166001600160a01b03199283168117909355600180549185169190921617905560408051918252517f143219c9e69b09e07e095fcc889b43d8f46ca892bba65f08dc3a0050869a56789181900360200190a1604080516001600160a01b038316815290517f78f058b189175430c48dc02699e3a0031ea4ff781536dc2fab847de4babdd8829181900360200190a15050565b6040518060400160405280600b81526020016a111959985d5b1d141bdbdb60aa1b81525081565b6001546001600160a01b031681565b61061d610835565b6001546002546001600160a01b039091169061063f908363ffffffff61087e16565b600281905560408051918252517f9a14ae677a60400af9176bed2e2d5ce8dfa6405e6c1702debb27668f567214289181900360200190a1604080516001600160a01b03831681526020810184905281517f6109e2559dfa766aaec7118351d48a523f0a4157f49c8d68749c8ac41318ad12929181900390910190a16040516000906001600160a01b0383169084908381818185875af1925050503d8060008114610705576040519150601f19603f3d011682016040523d82523d6000602084013e61070a565b606091505b5050905080610760576040805162461bcd60e51b815260206004820152601f60248201527f44656661756c74506f6f6c3a2073656e64696e6720455448206661696c656400604482015290519081900360640190fd5b505050565b61076d610835565b60035461044d908263ffffffff61035816565b6001600160a01b0381166107c55760405162461bcd60e51b8152600401808060200182810382526022815260200180610a346022913960400191505060405180910390fd5b806001600160a01b03166107d761049c565b6001600160a01b03167f8be0079c531659141344cd1fd0a4f28419497f9722a3daafe3b4186f6b6457e060405160405180910390a3604080517035b2bc9737bbb730b136329737bbb732b960791b8152905190819003601101902055565b6000546001600160a01b031633146103565760405162461bcd60e51b815260040180806020018281038252602b815260200180610a56602b913960400191505060405180910390fd5b60006103b283836040518060400160405280601e81526020017f536166654d6174683a207375627472616374696f6e206f766572666c6f770000815250610973565b6001600160a01b03811661091b576040805162461bcd60e51b815260206004820152601e60248201527f4163636f756e742063616e6e6f74206265207a65726f20616464726573730000604482015290519081900360640190fd5b803b8061096f576040805162461bcd60e51b815260206004820181905260248201527f4163636f756e7420636f64652073697a652063616e6e6f74206265207a65726f604482015290519081900360640190fd5b5050565b60008184841115610a025760405162461bcd60e51b81526004018080602001828103825283818151815260200191508051906020019080838360005b838110156109c75781810151838201526020016109af565b50505050905090810190601f1680156109f45780820380516001836020036101000a031916815260200191505b509250505060405180910390fd5b50505090039056fe44656661756c74506f6f6c3a2043616c6c6572206973206e6f742074686520416374697665506f6f6c4f776e61626c653a3a7365744f776e65723a20696e76616c6964206164647265737344656661756c74506f6f6c3a2043616c6c6572206973206e6f74207468652054726f76654d616e61676572a2646970667358221220d99aea28c644c442996807d1a9df6b9c6fcb9a4741349be927c8e86d5886d30464736f6c634300060b00334f776e61626c653a3a7365744f776e65723a20696e76616c6964206164647265737360806040523480156200001157600080fd5b5062000026336001600160e01b036200002c16565b62000150565b6001600160a01b0381166200005e5760405162461bcd60e51b815260040162000055906200010e565b60405180910390fd5b6001600160a01b0381166200007b6001600160e01b03620000d016565b6001600160a01b03167f8be0079c531659141344cd1fd0a4f28419497f9722a3daafe3b4186f6b6457e060405160405180910390a36000604051620000c090620000f1565b6040519081900390209190915550565b600080604051620000e190620000f1565b6040519081900390205492915050565b7035b2bc9737bbb730b136329737bbb732b960791b815260110190565b60208082526022908201527f4f776e61626c653a3a7365744f776e65723a20696e76616c6964206164647265604082015261737360f01b606082015260800190565b61437380620001606000396000f3fe60806040526004361061028c5760003560e01c80638692a8a21161015a578063b31ee965116100c1578063d733cfd01161007a578063d733cfd01461073d578063d7fb04431461075d578063df9cd84f14610772578063ec9f7d4614610792578063fc7e286d146107a7578063fda0101a146107d5576102d7565b8063b31ee965146106a9578063b71d3bf3146106be578063bdaf37ea146106d3578063c0a90828146106e8578063c3a34a0e14610708578063ce4b5bbe14610728576102d7565b80639f070670116101135780639f0706701461061a578063a20baee6146104c6578063a3f4df7e1461062f578063a4e59ac814610651578063a7bfff9714610666578063ae91875414610694576102d7565b80638692a8a21461058657806386da0824146105a6578063887105d3146105c6578063893d20e8146105db5780638b8fbd92146105f057806395fb16bb14610605576102d7565b806340ed1afd116101fe578063759b3034116101b7578063759b3034146104f0578063766718081461050557806377553ad414610527578063795d26c31461053c5780637f7dde4a1461055157806382e0a57414610566576102d7565b806340ed1afd14610446578063556be101146104665780635d2de642146104865780635f788d65146104a657806372fe25aa146104c6578063741bef1a146104db576102d7565b806328a0a04d1161025057806328a0a04d1461038f5780632e54bf95146103af578063335525ad146103cf578063389e92a5146103ef5780633cc742251461040f5780633d83908a14610431576102d7565b80630fbfe38b146102dc57806313af4035146102fe57806314f6c3be1461031e57806316b9d3c5146103495780631bf435551461037a576102d7565b366102d7576102996107f5565b6009546102ac903463ffffffff61082a16565b60098190556040516000805160206142be833981519152916102cd9161422a565b60405180910390a1005b600080fd5b3480156102e857600080fd5b506102fc6102f73660046138ab565b610858565b005b34801561030a57600080fd5b506102fc61031936600461373f565b610a58565b34801561032a57600080fd5b50610333610a9c565b604051610340919061422a565b60405180910390f35b34801561035557600080fd5b5061036961036436600461373f565b610aa2565b604051610340959493929190614279565b34801561038657600080fd5b50610333610add565b34801561039b57600080fd5b506103336103aa366004613877565b610aea565b3480156103bb57600080fd5b506102fc6103ca3660046138ab565b610b07565b3480156103db57600080fd5b506102fc6103ea366004613935565b610b15565b3480156103fb57600080fd5b5061033361040a36600461373f565b610b78565b34801561041b57600080fd5b50610424610c20565b6040516103409190613997565b34801561043d57600080fd5b50610424610c2f565b34801561045257600080fd5b5061033361046136600461373f565b610c3e565b34801561047257600080fd5b506102fc6104813660046138ab565b610cdb565b34801561049257600080fd5b506103336104a136600461373f565b610d53565b3480156104b257600080fd5b506102fc6104c13660046138db565b610d65565b3480156104d257600080fd5b50610333610d6f565b3480156104e757600080fd5b50610424610d7b565b3480156104fc57600080fd5b50610333610d8a565b34801561051157600080fd5b5061051a610d97565b6040516103409190614216565b34801561053357600080fd5b50610424610dad565b34801561054857600080fd5b50610333610dbc565b34801561055d57600080fd5b50610424610edb565b34801561057257600080fd5b50610333610581366004613877565b610eea565b34801561059257600080fd5b506103336105a136600461373f565b610f07565b3480156105b257600080fd5b506103696105c136600461373f565b61100b565b3480156105d257600080fd5b50610333611046565b3480156105e757600080fd5b50610424611115565b3480156105fc57600080fd5b50610333611134565b34801561061157600080fd5b5061042461113a565b34801561062657600080fd5b50610424611149565b34801561063b57600080fd5b50610644611158565b6040516103409190613ab4565b34801561065d57600080fd5b5061051a611181565b34801561067257600080fd5b5061068661068136600461373f565b611190565b60405161034092919061424a565b3480156106a057600080fd5b506104246111ac565b3480156106b557600080fd5b506103336111bb565b3480156106ca57600080fd5b506103336111c1565b3480156106df57600080fd5b506103336111c7565b3480156106f457600080fd5b5061033361070336600461373f565b6111cd565b34801561071457600080fd5b506102fc6107233660046138ff565b6112ca565b34801561073457600080fd5b5061033361136e565b34801561074957600080fd5b506102fc6107583660046137af565b611376565b34801561076957600080fd5b50610333611608565b34801561077e57600080fd5b5061033361078d36600461373f565b61160e565b34801561079e57600080fd5b506104246116ab565b3480156107b357600080fd5b506107c76107c236600461373f565b6116ba565b604051610340929190614233565b3480156107e157600080fd5b506102fc6107f0366004613777565b6116dc565b6000546001600160a01b031633146108285760405162461bcd60e51b815260040161081f90613cac565b60405180910390fd5b565b60008282018381101561084f5760405162461bcd60e51b815260040161081f90613bbc565b90505b92915050565b6000600460009054906101000a90046001600160a01b03166001600160a01b031663e9fc34616040518163ffffffff1660e01b815260040160206040518083038186803b1580156108a857600080fd5b505afa1580156108bc573d6000803e3d6000fd5b505050506040513d601f19601f820116820180604052508101906108e0919061375b565b905060006108ee8330611922565b60065460405163095ea7b360e01b81529192506001600160a01b03169063095ea7b3906109219085908590600401613a33565b602060405180830381600087803b15801561093b57600080fd5b505af115801561094f573d6000803e3d6000fd5b505050506040513d601f19601f820116820180604052508101906109739190613857565b61098f5760405162461bcd60e51b815260040161081f90614043565b60065460405163438b1b4b60e01b81526001600160a01b038481169263438b1b4b926109c5929091169085903390600401613a6d565b602060405180830381600087803b1580156109df57600080fd5b505af11580156109f3573d6000803e3d6000fd5b505050506040513d601f19601f82011682018060405250810190610a1791906138c3565b507f2b0fbec1c4e7e30517f196a714775ffe72770d2348f5d586854bb3c0fdf41df8338483604051610a4b93929190613a4c565b60405180910390a1505050565b610a60611115565b6001600160a01b0316336001600160a01b031614610a905760405162461bcd60e51b815260040161081f90613f71565b610a9981611aed565b50565b60095490565b600f602052600090815260409020805460018201546002830154600390930154919290916001600160801b0380821691600160801b90041685565b6809c2007651b250000081565b601260209081526000928352604080842090915290825290205481565b610b118133611922565b5050565b610b1d611b78565b600a54801580610b2b575082155b15610b365750610b11565b600854610b4b906001600160a01b0316611ba2565b600080610b59848685611c22565b91509150610b678282611d1b565b610b71848661201c565b5050505050565b6001600160a01b0381166000908152600b602052604081205480610ba0576000915050610c1b565b610ba86136e7565b506001600160a01b0383166000908152600c60209081526040808320815160a08101835281548152600182015493810193909352600281015491830191909152600301546001600160801b038082166060840152600160801b90910416608082015290610c158383612152565b93505050505b919050565b6001546001600160a01b031681565b6005546001600160a01b031681565b6001600160a01b0381166000908152600b602052604081205480610c66576000915050610c1b565b610c6e6136e7565b506001600160a01b0383166000908152600c60209081526040808320815160a08101835281548152600182015493810193909352600281015491830191909152600301546001600160801b038082166060840152600160801b90910416608082015290610c158383612243565b610ce43361233f565b610ced3361237b565b610cf6816123b2565b336000818152600d6020526040908190208381556001908101805460ff19169091179055517f19bc932fb9e16a8b5a1e41be9f4c2de59d5ddd7567b8b81405f532ca00a9880e90610d4890849061422a565b60405180910390a250565b600e6020526000908152604090205481565b610b1182826123da565b670de0b6b3a764000081565b6002546001600160a01b031681565b6801158e460913d0000081565b601154600160801b90046001600160801b031681565b6004546001600160a01b031681565b60008054604080516272c7d360e71b8152905183926001600160a01b031691633963e980916004808301926020929190829003018186803b158015610e0057600080fd5b505afa158015610e14573d6000803e3d6000fd5b505050506040513d601f19601f82011682018060405250810190610e3891906138c3565b90506000600160009054906101000a90046001600160a01b03166001600160a01b0316633963e9806040518163ffffffff1660e01b815260040160206040518083038186803b158015610e8a57600080fd5b505afa158015610e9e573d6000803e3d6000fd5b505050506040513d601f19601f82011682018060405250810190610ec291906138c3565b9050610ed4828263ffffffff61082a16565b9250505090565b6000546001600160a01b031681565b601360209081526000928352604080842090915290825290205481565b6001600160a01b0381166000908152600e602052604081205480610f2f576000915050610c1b565b6001600160a01b0383166000908152600d602052604081205490610f61670de0b6b3a76400008363ffffffff61257d16565b9050610f6b6136e7565b506001600160a01b0385166000908152600f60209081526040808320815160a08101835281548152600182015493810193909352600281015491830191909152600301546001600160801b038082166060840152600160801b90910416608082015290611000670de0b6b3a7640000610ff4610fe788866125bf565b869063ffffffff61264b16565b9063ffffffff61268516565b979650505050505050565b600c602052600090815260409020805460018201546002830154600390930154919290916001600160801b0380821691600160801b90041685565b6000805460408051630a7b61df60e11b8152905183926001600160a01b0316916314f6c3be916004808301926020929190829003018186803b15801561108b57600080fd5b505afa15801561109f573d6000803e3d6000fd5b505050506040513d601f19601f820116820180604052508101906110c391906138c3565b90506000600160009054906101000a90046001600160a01b03166001600160a01b03166314f6c3be6040518163ffffffff1660e01b815260040160206040518083038186803b158015610e8a57600080fd5b6000806040516111249061397a565b6040519081900390205492915050565b60105481565b6008546001600160a01b031681565b6003546001600160a01b031681565b6040518060400160405280600d81526020016c14dd18589a5b1a5d1e541bdbdb609a1b81525081565b6011546001600160801b031681565b600d602052600090815260409020805460019091015460ff1682565b6007546001600160a01b031681565b60165481565b60145481565b600a5490565b6001600160a01b0381166000908152600b6020526040812054806111f5576000915050610c1b565b6001600160a01b038084166000908152600b602052604081206001015490911690811561123a576001600160a01b0382166000908152600d6020526040902054611244565b670de0b6b3a76400005b905061124e6136e7565b506001600160a01b0385166000908152600c60209081526040808320815160a08101835281548152600182015493810193909352600281015491830191909152600301546001600160801b038082166060840152600160801b90910416608082015290611000670de0b6b3a7640000610ff4610fe788866125bf565b600480546040805163e9fc346160e01b8152905160009361135c936001600160a01b03169263e9fc34619281830192602092829003018186803b15801561131057600080fd5b505afa158015611324573d6000803e3d6000fd5b505050506040513d601f19601f82011682018060405250810190611348919061375b565b60065485906001600160a01b0316856126c7565b90506113698160006123da565b505050565b633b9aca0081565b61137e611115565b6001600160a01b0316336001600160a01b0316146113ae5760405162461bcd60e51b815260040161081f90613f71565b6113b78861296c565b6113c08761296c565b6113c98661296c565b6113d28561296c565b6113db8461296c565b6113e48361296c565b6113ed8261296c565b6113f68161296c565b670de0b6b3a7640000601055600380546001600160a01b03199081166001600160a01b038b8116919091179092556004805482168a8416179055600580548216898416179055600080548216888416179055600680548216878416179055600780548216868416179055600280548216858416179055600880549091169183169190911790556040517f3ca631ffcd2a9b5d9ae18543fc82f58eb4ca33af9e6ab01b7a8e95331e6ed985906114ac908990613997565b60405180910390a17f143219c9e69b09e07e095fcc889b43d8f46ca892bba65f08dc3a0050869a5678866040516114e39190613997565b60405180910390a17f78f058b189175430c48dc02699e3a0031ea4ff781536dc2fab847de4babdd8828560405161151a9190613997565b60405180910390a17fcdf33850c44a1a874b5fefb51dae615ac6afebd581ef90d571f81b06541d8e9d846040516115519190613997565b60405180910390a17f65f4cf077bc01e4742eb5ad98326f6e95b63548ea24b17f8d5e823111fe78800836040516115889190613997565b60405180910390a17f8c537274438aa850a330284665d81a85dd38267d09e4050d416bfc94142db264826040516115bf9190613997565b60405180910390a17f3055265812fb8447b9ada4a5d804ec43bd528ec40e89c952bbc7b85dc5ac6811816040516115f69190613997565b60405180910390a15050505050505050565b60155481565b6001600160a01b0381166000908152600e602052604081205480611636576000915050610c1b565b61163e6136e7565b506001600160a01b0383166000908152600f60209081526040808320815160a08101835281548152600182015493810193909352600281015491830191909152600301546001600160801b038082166060840152600160801b90910416608082015290610c158383612243565b6006546001600160a01b031681565b600b60205260009081526040902080546001909101546001600160a01b031682565b336000908152600b60205260409020546116f5816129b1565b6116fe336129d1565b61170733612a70565b6008546001600160a01b031661171c81611ba2565b600061172733610b78565b9050600061173433610c3e565b90506000611748858363ffffffff61257d16565b336000818152600b60205260409020600101549192506001600160a01b039091169061177690869083612a9d565b60006117818261160e565b90508061178e8382612c12565b826001600160a01b031660008051602061431e83398151915282336040516117b7929190614233565b60405180910390a26117c93386612d5a565b336001600160a01b03166000805160206142fe83398151915287866040516117f2929190613a90565b60405180910390a2336001600160a01b03166000805160206142de83398151915286604051611821919061422a565b60405180910390a260095461183c908763ffffffff61257d16565b60098190556040516000805160206142be8339815191529161185d9161422a565b60405180910390a17f6109e2559dfa766aaec7118351d48a523f0a4157f49c8d68749c8ac41318ad123387604051611896929190613a33565b60405180910390a1600460009054906101000a90046001600160a01b03166001600160a01b031663ea9638bf87338d8d6040518563ffffffff1660e01b81526004016118e4939291906139ab565b6000604051808303818588803b1580156118fd57600080fd5b505af1158015611911573d6000803e3d6000fd5b505050505050505050505050505050565b60006001600160a01b03821661194a5760405162461bcd60e51b815260040161081f90613e88565b821561195857611958612ecf565b336000908152600b6020526040902054611971816129b1565b6008546001600160a01b031661198681611ba2565b600061199133610b78565b9050600061199e33610c3e565b905060006119ac8883613106565b905060006119c0868463ffffffff61257d16565b336000818152600b60205260409020600101549192506001600160a01b03909116906119ee90879083612a9d565b60006119f98261160e565b90506000611a0d828663ffffffff61257d16565b9050611a198382612c12565b826001600160a01b031660008051602061431e8339815191528233604051611a42929190614233565b60405180910390a2611a548b8661311c565b6000611a66878763ffffffff61257d16565b9050611a723382612d5a565b336001600160a01b03166000805160206142de83398151915282604051611a99919061422a565b60405180910390a2336001600160a01b03166000805160206142fe8339815191528987604051611aca929190613a90565b60405180910390a2611adc8833613195565b50939b9a5050505050505050505050565b6001600160a01b038116611b135760405162461bcd60e51b815260040161081f90613cf3565b806001600160a01b0316611b25611115565b6001600160a01b03167f8be0079c531659141344cd1fd0a4f28419497f9722a3daafe3b4186f6b6457e060405160405180910390a36000604051611b689061397a565b6040519081900390209190915550565b6005546001600160a01b031633146108285760405162461bcd60e51b815260040161081f90613dbd565b6000816001600160a01b031663e59be5866040518163ffffffff1660e01b8152600401602060405180830381600087803b158015611bdf57600080fd5b505af1158015611bf3573d6000803e3d6000fd5b505050506040513d601f19601f82011682018060405250810190611c1791906138c3565b9050610b11816132c4565b6000806000611c54601554611c48670de0b6b3a76400008961264b90919063ffffffff16565b9063ffffffff61082a16565b905083851115611c6057fe5b83851415611c7d576000601655670de0b6b3a76400009150611cdd565b601654600090611cab90611c9f88670de0b6b3a764000063ffffffff61264b16565b9063ffffffff61257d16565b9050611cc26001611c48838863ffffffff61268516565b9250611cd881611c9f858863ffffffff61264b16565b601655505b611ced818563ffffffff61268516565b9250611d0f611d02848663ffffffff61264b16565b829063ffffffff61257d16565b60155550935093915050565b6010546000670de0b6b3a7640000831115611d3257fe5b6000611d4c670de0b6b3a76400008563ffffffff61257d16565b6011546001600160801b03600160801b820481166000818152601260209081526040808320949095168083529390529283205493945090929091611d90898861264b565b90506000611da4838363ffffffff61082a16565b6001600160801b038086166000908152601260209081526040808320938a168352929052819020829055519091507fe12e2cd2c9afa8069203ca07e7eff1edce4a075686d0736a8e7e0d593597b20790611e039083908790899061425a565b60405180910390a185611edc57611e2a6001600160801b038516600163ffffffff6133d516565b601180546001600160801b03908116600160801b938216840217918290556040517fb50f0f59e7cb5b421dc77581c3a9919e3806e076e5fa78a874c3f120cb7d874d93611e7b930490911690614216565b60405180910390a1601180546001600160801b03191690556040517f1f9dfc70cd666adb18a39d60a797518f7b4febf4b6e24ef37d44f6e1e7219fbe90611ec490600090614216565b60405180910390a1670de0b6b3a76400009650611fc9565b633b9aca00611efd670de0b6b3a7640000610ff48b8a63ffffffff61264b16565b1015611faa57611f33670de0b6b3a7640000610ff4633b9aca00611f278c8b63ffffffff61264b16565b9063ffffffff61264b16565b9650611f4f6001600160801b038616600163ffffffff6133d516565b601180546001600160801b0319166001600160801b0392831617908190556040517f1f9dfc70cd666adb18a39d60a797518f7b4febf4b6e24ef37d44f6e1e7219fbe92611f9d921690614216565b60405180910390a1611fc9565b611fc6670de0b6b3a7640000610ff48a8963ffffffff61264b16565b96505b60008711611fd357fe5b60108790556040517fc1a9618cb59ebca77cbdbc2949f126823c407ff13edb285fd0262519a9c18e8c9061200890899061422a565b60405180910390a150505050505050505050565b60005460405163121cbc4d60e11b81526001600160a01b03909116908190632439789a9061204e90859060040161422a565b600060405180830381600087803b15801561206857600080fd5b505af115801561207c573d6000803e3d6000fd5b5050505061208982613406565b600654604051632770a7eb60e21b81526001600160a01b0390911690639dc29fac906120bb9030908690600401613a33565b600060405180830381600087803b1580156120d557600080fd5b505af11580156120e9573d6000803e3d6000fd5b50506040516364a197f360e01b81526001600160a01b03841692506364a197f3915061211b9030908790600401613a33565b600060405180830381600087803b15801561213557600080fd5b505af1158015612149573d6000803e3d6000fd5b50505050505050565b6080810151606082015182516020808501516001600160801b038086166000908152601284526040808220928716825291909352822054919493929185906121a0908463ffffffff61257d16565b6001600160801b0380871660009081526012602052604081209293509161220391633b9aca00919084906121dd908a16600163ffffffff6133d516565b6001600160801b031681526020810191909152604001600020549063ffffffff61268516565b90506000612235670de0b6b3a7640000610ff48681612228888863ffffffff61082a16565b8f9063ffffffff61264b16565b9a9950505050505050505050565b6020810151606082015160808301516011546000939291906001600160801b03600160801b909104811690821610156122825760009350505050610852565b60115460009081906122a3906001600160801b03168563ffffffff61346016565b90506001600160801b0381166122d3576122cc85610ff46010548b61264b90919063ffffffff16565b915061230b565b806001600160801b031660011415612306576122cc633b9aca00610ff487610ff46010548d61264b90919063ffffffff16565b600091505b61231f88633b9aca0063ffffffff61268516565b82101561233457600095505050505050610852565b509695505050505050565b6001600160a01b0381166000908152600d602052604090206001015460ff1615610a995760405162461bcd60e51b815260040161081f90613fa2565b6001600160a01b0381166000908152600b60205260409020548015610b115760405162461bcd60e51b815260040161081f90613ffb565b670de0b6b3a7640000811115610a995760405162461bcd60e51b815260040161081f90613ed8565b6123e38161349a565b6123ec3361233f565b6123f5826134e7565b336000908152600b60205260409020546008546001600160a01b031661241a81611ba2565b81612429576124293384613507565b600061243433610b78565b9050600061244133610c3e565b90506000612455858363ffffffff61257d16565b336000818152600b60205260409020600101549192506001600160a01b039091169061248390869083612a9d565b600061248e8261160e565b905060006124a2828b63ffffffff61082a16565b90506124ae8382612c12565b826001600160a01b031660008051602061431e83398151915282336040516124d7929190614233565b60405180910390a26124e9338b613561565b60006124fb868c63ffffffff61082a16565b90506125073382612d5a565b336001600160a01b03166000805160206142de8339815191528260405161252e919061422a565b60405180910390a2336001600160a01b03166000805160206142fe833981519152888760405161255f929190613a90565b60405180910390a261257087613615565b5050505050505050505050565b600061084f83836040518060400160405280601e81526020017f536166654d6174683a207375627472616374696f6e206f766572666c6f77000081525061361f565b608081015160608201516040808401516020808601516001600160801b0380871660009081526013845285812091871681529252928120549094939290859061260e908463ffffffff61257d16565b6001600160801b0380871660009081526013602052604081209293509161220391633b9aca00919084906121dd908a16600163ffffffff6133d516565b60008261265a57506000610852565b8282028284828161266757fe5b041461084f5760405162461bcd60e51b815260040161081f90613e47565b600061084f83836040518060400160405280601a81526020017f536166654d6174683a206469766973696f6e206279207a65726f00000000000081525061364b565b600080856001600160a01b03166321df0da76040518163ffffffff1660e01b815260040160206040518083038186803b15801561270357600080fd5b505afa158015612717573d6000803e3d6000fd5b505050506040513d601f19601f8201168201806040525081019061273b919061375b565b90506000816001600160a01b03166370a08231306040518263ffffffff1660e01b815260040161276b9190613997565b60206040518083038186803b15801561278357600080fd5b505afa158015612797573d6000803e3d6000fd5b505050506040513d601f19601f820116820180604052508101906127bb91906138c3565b9050306001600160a01b03831663605629d633838a89356127e260408c0160208d01613956565b8b604001358c606001356040518863ffffffff1660e01b815260040161280e97969594939291906139f2565b600060405180830381600087803b15801561282857600080fd5b505af115801561283c573d6000803e3d6000fd5b50505050866128c183856001600160a01b03166370a08231856040518263ffffffff1660e01b81526004016128719190613997565b60206040518083038186803b15801561288957600080fd5b505afa15801561289d573d6000803e3d6000fd5b505050506040513d601f19601f82011682018060405250810190611c9f91906138c3565b146128de5760405162461bcd60e51b815260040161081f90613b73565b60405163fb2c922360e01b81526001600160a01b0389169063fb2c92239061290e9089908b903390600401613a6d565b602060405180830381600087803b15801561292857600080fd5b505af115801561293c573d6000803e3d6000fd5b505050506040513d601f19601f8201168201806040525081019061296091906138c3565b98975050505050505050565b6001600160a01b0381166129925760405162461bcd60e51b815260040161081f90613d35565b803b80610b115760405162461bcd60e51b815260040161081f9061409a565b60008111610a995760405162461bcd60e51b815260040161081f906140cf565b6005546040516321e3780160e01b81526001600160a01b03909116906321e3780190612a01908490600401613997565b60206040518083038186803b158015612a1957600080fd5b505afa158015612a2d573d6000803e3d6000fd5b505050506040513d601f19601f82011682018060405250810190612a5191906138c3565b600114610a995760405162461bcd60e51b815260040161081f90613b07565b6000612a7b82610b78565b905060008111610b115760405162461bcd60e51b815260040161081f90613d6c565b6001600160a01b03811615612b5d576000612ab782610f07565b6040516306e6c58360e31b81529091506001600160a01b038516906337362c1890612ae89085908590600401613a33565b600060405180830381600087803b158015612b0257600080fd5b505af1158015612b16573d6000803e3d6000fd5b50505050816001600160a01b03167fea80c5084fc812c1d3ccd3e420d32e85001442759aa2261773ffa052cbd660b682604051612b53919061422a565b60405180910390a2505b6000612b68836111cd565b6040516306e6c58360e31b81529091506001600160a01b038516906337362c1890612b999086908590600401613a33565b600060405180830381600087803b158015612bb357600080fd5b505af1158015612bc7573d6000803e3d6000fd5b50505050826001600160a01b03167fc250d4f5c804eafb4ed97612e247bbc934de6fede0e59e4d263e190fb335193f82604051612c04919061422a565b60405180910390a250505050565b6001600160a01b0382166000908152600e6020526040902081905580612c9d576001600160a01b0382166000818152600f60205260408082208281556001810183905560028101839055600301829055517fbb1322f85cc7cc8bac4e172a5bc5dcc0c1959007f9a030032abf9258205f0e4591612c90918190613a90565b60405180910390a2610b11565b6011546010546001600160801b03600160801b80840482166000818152601360209081526040808320978616808452978252808320546001600160a01b038b16808552600f90935292819020600181018890556002810184905560030180546001600160801b0319168917909616948402949094179094559151909392907fbb1322f85cc7cc8bac4e172a5bc5dcc0c1959007f9a030032abf9258205f0e4590612d4a9085908590613a90565b60405180910390a2505050505050565b6001600160a01b0382166000908152600b6020526040902081905580612df8576001600160a01b0382166000818152600b60209081526040808320600190810180546001600160a01b0319169055600c909252808320838155918201839055600282018390556003909101829055517f2d6cc0bcdf72c9486f6451bde6b80f44066f4558f77f44dbfedbe7d8b295225a91612c909181908190613a9e565b6011546010546001600160801b03600160801b8084048216600081815260126020908152604080832097861680845297825280832054848452601383528184208985528352818420546001600160a01b038c16808652600c90945293829020600181018990558181556002810185905560030180546001600160801b0319168a1790971695850295909517909555935191949390917f2d6cc0bcdf72c9486f6451bde6b80f44066f4558f77f44dbfedbe7d8b295225a90612ebe90869086908690613a9e565b60405180910390a250505050505050565b60025460408051630fdb11cf60e01b815290516000926001600160a01b031691630fdb11cf91600480830192602092919082900301818787803b158015612f1557600080fd5b505af1158015612f29573d6000803e3d6000fd5b505050506040513d601f19601f82011682018060405250810190612f4d91906138c3565b90506000600760009054906101000a90046001600160a01b03166001600160a01b0316634d6228316040518163ffffffff1660e01b815260040160206040518083038186803b158015612f9f57600080fd5b505afa158015612fb3573d6000803e3d6000fd5b505050506040513d601f19601f82011682018060405250810190612fd7919061375b565b600554604051630d293c7160e41b81529192506000916001600160a01b039091169063d293c7109061300f9085908790600401613a33565b60206040518083038186803b15801561302757600080fd5b505afa15801561303b573d6000803e3d6000fd5b505050506040513d601f19601f8201168201806040525081019061305f91906138c3565b9050600360009054906101000a90046001600160a01b03166001600160a01b031663794e57246040518163ffffffff1660e01b815260040160206040518083038186803b1580156130af57600080fd5b505afa1580156130c3573d6000803e3d6000fd5b505050506040513d601f19601f820116820180604052508101906130e791906138c3565b8110156113695760405162461bcd60e51b815260040161081f906141ac565b6000818310613115578161084f565b5090919050565b8061312657610b11565b600654604051631062c15f60e11b81526001600160a01b03909116906320c582be9061315a903090869086906004016139ce565b600060405180830381600087803b15801561317457600080fd5b505af1158015613188573d6000803e3d6000fd5b50505050610b1181613406565b6001600160a01b0381166131bb5760405162461bcd60e51b815260040161081f90613bf3565b816131c557610b11565b6009546000906131db908463ffffffff61257d16565b9050806009819055506000805160206142be83398151915281604051613201919061422a565b60405180910390a17f6109e2559dfa766aaec7118351d48a523f0a4157f49c8d68749c8ac41318ad12338460405161323a929190613a33565b60405180910390a16000336001600160a01b03168460405161325b90613977565b60006040518083038185875af1925050503d8060008114613298576040519150601f19603f3d011682016040523d82523d6000602084013e61329d565b606091505b50509050806132be5760405162461bcd60e51b815260040161081f90613e06565b50505050565b600a548015806132d2575081155b156132dd5750610a99565b60006132e98383613682565b905060006133026010548361264b90919063ffffffff16565b6011546001600160801b03600160801b820481166000908152601360209081526040808320939094168252919091522054909150613346908263ffffffff61082a16565b601180546001600160801b03600160801b80830482166000908152601360208181526040808420968616845295815285832097909755945491820483168082529486528381209190921680835294528190205490517f2d6127771b164a9cc8827d24b5955db2a77e7a81dac389107ebb8bce9fb64968936133c7939161425a565b60405180910390a150505050565b60008282016001600160801b03808516908216101561084f5760405162461bcd60e51b815260040161081f90614167565b600a5460009061341c908363ffffffff61257d16565b905080600a819055507ff3c69a10dcea5d744225cbe910fb39d6f8208bb8e21fff523d6756a7966093c781604051613454919061422a565b60405180910390a15050565b6000826001600160801b0316826001600160801b031611156134945760405162461bcd60e51b815260040161081f9061411f565b50900390565b6001600160a01b0381166000908152600d602052604090206001015460ff16806134cb57506001600160a01b038116155b610a995760405162461bcd60e51b815260040161081f90613c40565b60008111610a995760405162461bcd60e51b815260040161081f90613f2b565b6001600160a01b038281166000818152600b602052604080822060010180546001600160a01b0319169486169485179055517f094c08e96a8890877a8390b4f967180a7507ad8622244d05fcd0f9f8e086564e9190a35050565b600654604051632ee65eeb60e21b81526001600160a01b039091169063bb997bac90613595908590309086906004016139ce565b600060405180830381600087803b1580156135af57600080fd5b505af11580156135c3573d6000803e3d6000fd5b5050600a54600092506135dd91508363ffffffff61082a16565b905080600a819055507ff3c69a10dcea5d744225cbe910fb39d6f8208bb8e21fff523d6756a7966093c781604051610a4b919061422a565b610a998133613195565b600081848411156136435760405162461bcd60e51b815260040161081f9190613ab4565b505050900390565b6000818361366c5760405162461bcd60e51b815260040161081f9190613ab4565b50600083858161367857fe5b0495945050505050565b6000806136a6601454611c48670de0b6b3a76400008761264b90919063ffffffff16565b905060006136ba828563ffffffff61268516565b90506136dc6136cf828663ffffffff61264b16565b839063ffffffff61257d16565b601455949350505050565b6040518060a0016040528060008152602001600081526020016000815260200160006001600160801b0316815260200160006001600160801b031681525090565b80356001600160801b038116811461085257600080fd5b600060208284031215613750578081fd5b813561084f816142a8565b60006020828403121561376c578081fd5b815161084f816142a8565b60008060408385031215613789578081fd5b8235613794816142a8565b915060208301356137a4816142a8565b809150509250929050565b600080600080600080600080610100898b0312156137cb578384fd5b88356137d6816142a8565b975060208901356137e6816142a8565b965060408901356137f6816142a8565b95506060890135613806816142a8565b94506080890135613816816142a8565b935060a0890135613826816142a8565b925060c0890135613836816142a8565b915060e0890135613846816142a8565b809150509295985092959890939650565b600060208284031215613868578081fd5b8151801515811461084f578182fd5b60008060408385031215613889578182fd5b6138938484613728565b91506138a28460208501613728565b90509250929050565b6000602082840312156138bc578081fd5b5035919050565b6000602082840312156138d4578081fd5b5051919050565b600080604083850312156138ed578182fd5b8235915060208301356137a4816142a8565b60008082840360a0811215613912578283fd5b833592506080601f1982011215613927578182fd5b506020830190509250929050565b60008060408385031215613947578182fd5b50508035926020909101359150565b600060208284031215613967578081fd5b813560ff8116811461084f578182fd5b90565b7035b2bc9737bbb730b136329737bbb732b960791b815260110190565b6001600160a01b0391909116815260200190565b6001600160a01b0393841681529183166020830152909116604082015260600190565b6001600160a01b039384168152919092166020820152604081019190915260600190565b6001600160a01b0397881681529590961660208601526040850193909352606084019190915260ff16608083015260a082015260c081019190915260e00190565b6001600160a01b03929092168252602082015260400190565b6001600160a01b039390931683526020830191909152604082015260600190565b6001600160a01b0393841681526020810192909252909116604082015260600190565b918252602082015260400190565b9283526020830191909152604082015260600190565b6000602080835283518082850152825b81811015613ae057858101830151858201604001528201613ac4565b81811115613af15783604083870101525b50601f01601f1916929092016040019392505050565b60208082526046908201527f53746162696c697479506f6f6c3a2063616c6c6572206d75737420686176652060408201527f616e206163746976652074726f766520746f207769746864726177204554484760608201526561696e20746f60d01b608082015260a00190565b60208082526029908201527f444c4c52207472616e7366657272656420616d6f756e742076616c69646174696040820152681bdb8819985a5b195960ba1b606082015260800190565b6020808252601b908201527f536166654d6174683a206164646974696f6e206f766572666c6f770000000000604082015260600190565b6020808252602d908201527f53503a3a5f73656e644554484761696e546f3a205f726563656976657220697360408201526c207a65726f206164647265737360981b606082015260800190565b60208082526046908201527f53746162696c697479506f6f6c3a20546167206d75737420626520612072656760408201527f697374657265642066726f6e7420656e642c206f7220746865207a65726f206160608201526564647265737360d01b608082015260a00190565b60208082526027908201527f53746162696c697479506f6f6c3a2043616c6c6572206973206e6f74204163746040820152661a5d99541bdbdb60ca1b606082015260800190565b60208082526022908201527f4f776e61626c653a3a7365744f776e65723a20696e76616c6964206164647265604082015261737360f01b606082015260800190565b6020808252601e908201527f4163636f756e742063616e6e6f74206265207a65726f20616464726573730000604082015260600190565b60208082526031908201527f53746162696c697479506f6f6c3a2063616c6c6572206d7573742068617665206040820152703737b716bd32b9379022aa241023b0b4b760791b606082015260800190565b60208082526029908201527f53746162696c697479506f6f6c3a2043616c6c6572206973206e6f742054726f6040820152683b32a6b0b730b3b2b960b91b606082015260800190565b60208082526021908201527f53746162696c697479506f6f6c3a2073656e64696e6720455448206661696c656040820152601960fa1b606082015260800190565b60208082526021908201527f536166654d6174683a206d756c7469706c69636174696f6e206f766572666c6f6040820152607760f81b606082015260800190565b60208082526030908201527f53503a3a5f776974686472617746726f6d5370546f3a205f726563656976657260408201526f206973207a65726f206164647265737360801b606082015260800190565b60208082526033908201527f53746162696c697479506f6f6c3a204b69636b6261636b2072617465206d75736040820152727420626520696e2072616e6765205b302c315d60681b606082015260800190565b60208082526026908201527f53746162696c697479506f6f6c3a20416d6f756e74206d757374206265206e6f6040820152656e2d7a65726f60d01b606082015260800190565b60208082526017908201527613dddb98589b194e8e881858d8d95cdcc819195b9a5959604a1b604082015260600190565b60208082526039908201527f53746162696c697479506f6f6c3a206d757374206e6f7420616c72656164792060408201527818994818481c9959da5cdd195c995908199c9bdb9d08195b99603a1b606082015260800190565b60208082526028908201527f53746162696c697479506f6f6c3a2055736572206d7573742068617665206e6f6040820152670819195c1bdcda5d60c21b606082015260800190565b60208082526037908201527f4661696c656420746f20617070726f7665205a55534420616d6f756e7420666f60408201527672204d796e74206d417373657420746f2072656465656d60481b606082015260800190565b6020808252818101527f4163636f756e7420636f64652073697a652063616e6e6f74206265207a65726f604082015260600190565b60208082526030908201527f53746162696c697479506f6f6c3a2055736572206d757374206861766520612060408201526f1b9bdb8b5e995c9bc819195c1bdcda5d60821b606082015260800190565b60208082526028908201527f4c697175697479536166654d6174683132383a207375627472616374696f6e206040820152676f766572666c6f7760c01b606082015260800190565b60208082526025908201527f4c697175697479536166654d6174683132383a206164646974696f6e206f766560408201526472666c6f7760d81b606082015260800190565b60208082526044908201527f53746162696c697479506f6f6c3a2043616e6e6f74207769746864726177207760408201527f68696c65207468657265206172652074726f766573207769746820494352203c6060820152631026a1a960e11b608082015260a00190565b6001600160801b0391909116815260200190565b90815260200190565b9182526001600160a01b0316602082015260400190565b9182521515602082015260400190565b9283526001600160801b03918216602084015216604082015260600190565b948552602085019390935260408401919091526001600160801b03908116606084015216608082015260a00190565b6001600160a01b0381168114610a9957600080fdfeceb6d671277d4354fd29977ada70695fbd93a16612abf765d6b0e25c28dc6db3bce78369dccab09eec1986f4d409ab09ffbb47d65423e5148fcf98411c5111c951457222ebca92c335c9c86e2baa1cc0e40ffaa9084a51452980d5ba8dec2f6399920012339b5a3368d3a04b8606ce412c46ed92b7dcd8602d41fc8862cb8f25a2646970667358221220e955fa7f80b9ad38eba52b70ed60457b452eb83b2417f8f09df3b2acb6ae421364736f6c634300060b00336080604052348015600f57600080fd5b50603f80601d6000396000f3fe6080604052600080fdfea264697066735822122066e9d13e845a93dc2501d42df6e2e92fe003bd0b9c468fc3e0baf1634cbfcecf64736f6c634300060b0033608060405234801561001057600080fd5b50610023336001600160e01b0361002816565b610110565b6001600160a01b03811661006d5760405162461bcd60e51b81526004018080602001828103825260228152602001806118646022913960400191505060405180910390fd5b6001600160a01b0381166100886001600160e01b036100e616565b6001600160a01b03167f8be0079c531659141344cd1fd0a4f28419497f9722a3daafe3b4186f6b6457e060405160405180910390a3604080517035b2bc9737bbb730b136329737bbb732b960791b8152905190819003601101902055565b604080517035b2bc9737bbb730b136329737bbb732b960791b815290519081900360110190205490565b6117458061011f6000396000f3fe608060405234801561001057600080fd5b506004361061014d5760003560e01c806370a08231116100c3578063a9059cbb1161007c578063a9059cbb14610413578063bb997bac1461043f578063c0c53b8b14610475578063d505accf146104ad578063dd62ed3e146104fe578063f698da251461052c5761014d565b806370a08231146103435780637ecebe0014610369578063893d20e81461038f57806395d89b41146103b35780639dc29fac146103bb578063a457c2d7146103e75761014d565b806320c582be1161011557806320c582be1461025957806323b872dd1461028f578063313ce567146102c557806339509351146102e357806340c10f191461030f57806354fd4d501461033b5761014d565b806306fdde0314610152578063095ea7b3146101cf57806310ce43bd1461020f57806313af40351461022957806318160ddd14610251575b600080fd5b61015a610534565b6040805160208082528351818301528351919283929083019185019080838360005b8381101561019457818101518382015260200161017c565b50505050905090810190601f1680156101c15780820380516001836020036101000a031916815260200191505b509250505060405180910390f35b6101fb600480360360408110156101e557600080fd5b506001600160a01b03813516906020013561055e565b604080519115158252519081900360200190f35b610217610574565b60408051918252519081900360200190f35b61024f6004803603602081101561023f57600080fd5b50356001600160a01b0316610598565b005b61021761060b565b61024f6004803603606081101561026f57600080fd5b506001600160a01b03813581169160208101359091169060400135610611565b6101fb600480360360608110156102a557600080fd5b506001600160a01b03813581169160208101359091169060400135610629565b6102cd6106a1565b6040805160ff9092168252519081900360200190f35b6101fb600480360360408110156102f957600080fd5b506001600160a01b0381351690602001356106a6565b61024f6004803603604081101561032557600080fd5b506001600160a01b0381351690602001356106e2565b61015a6106f8565b6102176004803603602081101561035957600080fd5b50356001600160a01b0316610713565b6102176004803603602081101561037f57600080fd5b50356001600160a01b031661072e565b610397610749565b604080516001600160a01b039092168252519081900360200190f35b61015a610773565b61024f600480360360408110156103d157600080fd5b506001600160a01b038135169060200135610791565b6101fb600480360360408110156103fd57600080fd5b506001600160a01b0381351690602001356107a3565b6101fb6004803603604081101561042957600080fd5b506001600160a01b0381351690602001356107f8565b61024f6004803603606081101561045557600080fd5b506001600160a01b0381358116916020810135909116906040013561080e565b61024f6004803603606081101561048b57600080fd5b506001600160a01b038135811691602081013582169160409091013516610816565b61024f600480360360e08110156104c357600080fd5b506001600160a01b03813581169160208101359091169060408101359060608101359060ff6080820135169060a08101359060c0013561092d565b6102176004803603604081101561051457600080fd5b506001600160a01b0381358116916020013516610b22565b610217610b4d565b60408051808201909152600f81526e2d2aa9a21029ba30b13632b1b7b4b760891b60208201525b90565b600061056b338484610ba2565b50600192915050565b7f6e71edae12b1b97f4d1f60370fef10105fa2faae0126114a169c64845d6126c990565b6105a0610749565b6001600160a01b0316336001600160a01b0316146105ff576040805162461bcd60e51b815260206004820152601760248201527613dddb98589b194e8e881858d8d95cdcc819195b9a5959604a1b604482015290519081900360640190fd5b61060881610c24565b50565b60335490565b610619610cd9565b610624838383610d39565b505050565b600061063483610e1b565b61063f848484610d39565b61069784336106928560405180606001604052806028815260200161161a602891396001600160a01b038a166000908152603a60209081526040808320338452909152902054919063ffffffff610e7716565b610ba2565b5060019392505050565b601290565b336000818152603a602090815260408083206001600160a01b0387168452909152812054909161056b918590610692908663ffffffff610f0e16565b6106ea610f6f565b6106f48282610fb8565b5050565b6040805180820190915260018152603160f81b602082015290565b6001600160a01b031660009081526039602052604090205490565b6001600160a01b031660009081526038602052604090205490565b604080517035b2bc9737bbb730b136329737bbb732b960791b815290519081900360110190205490565b604080518082019091526004815263169554d160e21b602082015290565b61079961104d565b6106f482826110c0565b600061056b3384610692856040518060600160405280602581526020016116eb60259139336000908152603a602090815260408083206001600160a01b038d168452909152902054919063ffffffff610e7716565b600061080383610e1b565b61056b338484610d39565b610619611175565b600054610100900460ff168061082f575061082f6111be565b8061083d575060005460ff16155b6108785760405162461bcd60e51b815260040180806020018281038252602e815260200180611642602e913960400191505060405180910390fd5b600054610100900460ff161580156108a3576000805460ff1961ff0019909116610100171660011790555b6108ab610749565b6001600160a01b0316336001600160a01b03161461090a576040805162461bcd60e51b815260206004820152601760248201527613dddb98589b194e8e881858d8d95cdcc819195b9a5959604a1b604482015290519081900360640190fd5b6109158484846111c4565b8015610927576000805461ff00191690555b50505050565b4284101561097b576040805162461bcd60e51b81526020600482015260166024820152755a5553443a206578706972656420646561646c696e6560501b604482015290519081900360640190fd5b6000610985610b4d565b6001600160a01b03808a1660008181526038602090815260408083208054600180820190925582517f6e71edae12b1b97f4d1f60370fef10105fa2faae0126114a169c64845d6126c98186015280840196909652958e166060860152608085018d905260a085019590955260c08085018c90528151808603909101815260e08501825280519083012061190160f01b6101008601526101028501969096526101228085019690965280518085039096018652610142840180825286519683019690962095839052610162840180825286905260ff8a166101828501526101a284018990526101c284018890525194955090936101e280840193601f198301929081900390910190855afa158015610aa0573d6000803e3d6000fd5b505050602060405103519050886001600160a01b0316816001600160a01b031614610b0c576040805162461bcd60e51b81526020600482015260176024820152765a5553443a20696e76616c6964207369676e617475726560481b604482015290519081900360640190fd5b610b17898989610ba2565b505050505050505050565b6001600160a01b039182166000908152603a6020908152604080832093909416825291909152205490565b6000603554610b5a611398565b1415610b69575060345461055b565b610b9b7f8b73c3c69bb8fe3d512ecc4cf759cc79239f7b179b0ffacaa9a75d522b39400f60001b60365460375461139c565b905061055b565b6001600160a01b038316610bb257fe5b6001600160a01b038216610bc257fe5b6001600160a01b038084166000818152603a6020908152604080832094871680845294825291829020859055815185815291517f8c5be1e5ebec7d5bd14f71427d1e84f3dd0314c0f7b2291e5b200ac8c7c3b9259281900390910190a3505050565b6001600160a01b038116610c695760405162461bcd60e51b81526004018080602001828103825260228152602001806115a46022913960400191505060405180910390fd5b806001600160a01b0316610c7b610749565b6001600160a01b03167f8be0079c531659141344cd1fd0a4f28419497f9722a3daafe3b4186f6b6457e060405160405180910390a3604080517035b2bc9737bbb730b136329737bbb732b960791b8152905190819003601101902055565b603b546001600160a01b0316331480610cfc5750603c546001600160a01b031633145b610d375760405162461bcd60e51b81526004018080602001828103825260368152602001806116b56036913960400191505060405180910390fd5b565b6001600160a01b038316610d4957fe5b6001600160a01b038216610d5957fe5b610d9c81604051806060016040528060268152602001611531602691396001600160a01b038616600090815260396020526040902054919063ffffffff610e7716565b6001600160a01b038085166000908152603960205260408082209390935590841681522054610dd1908263ffffffff610f0e16565b6001600160a01b03808416600081815260396020908152604091829020949094558051858152905191939287169260008051602061169583398151915292918290030190a3505050565b6001600160a01b03811615801590610e3c57506001600160a01b0381163014155b6106085760405162461bcd60e51b81526004018080602001828103825260548152602001806115c66054913960600191505060405180910390fd5b60008184841115610f065760405162461bcd60e51b81526004018080602001828103825283818151815260200191508051906020019080838360005b83811015610ecb578181015183820152602001610eb3565b50505050905090810190601f168015610ef85780820380516001836020036101000a031916815260200191505b509250505060405180910390fd5b505050900390565b600082820183811015610f68576040805162461bcd60e51b815260206004820152601b60248201527f536166654d6174683a206164646974696f6e206f766572666c6f770000000000604482015290519081900360640190fd5b9392505050565b603d546001600160a01b03163314610d375760405162461bcd60e51b815260040180806020018281038252602b815260200180611506602b913960400191505060405180910390fd5b6001600160a01b038216610fc857fe5b603354610fdb908263ffffffff610f0e16565b6033556001600160a01b038216600090815260396020526040902054611007908263ffffffff610f0e16565b6001600160a01b03831660008181526039602090815260408083209490945583518581529351929391926000805160206116958339815191529281900390910190a35050565b603d546001600160a01b03163314806110705750603b546001600160a01b031633145b806110855750603c546001600160a01b031633145b610d375760405162461bcd60e51b815260040180806020018281038252604d815260200180611557604d913960600191505060405180910390fd5b6001600160a01b0382166110d057fe5b611113816040518060600160405280602281526020016114e4602291396001600160a01b038516600090815260396020526040902054919063ffffffff610e7716565b6001600160a01b03831660009081526039602052604090205560335461113f908263ffffffff6113f216565b6033556040805182815290516000916001600160a01b038516916000805160206116958339815191529181900360200190a35050565b603c546001600160a01b03163314610d375760405162461bcd60e51b81526004018080602001828103825260258152602001806116706025913960400191505060405180910390fd5b303b1590565b6111cd83611434565b6111d682611434565b6111df81611434565b603b80546001600160a01b0385166001600160a01b0319909116811790915560408051918252517f143219c9e69b09e07e095fcc889b43d8f46ca892bba65f08dc3a0050869a56789181900360200190a1603c80546001600160a01b0384166001600160a01b0319909116811790915560408051918252517f82966d27eea39b038ee0fa30cd16532bb24f6e65d31cb58fb227aa5766cdcc7f9181900360200190a1603d80546001600160a01b0383166001600160a01b0319909116811790915560408051918252517f3ca631ffcd2a9b5d9ae18543fc82f58eb4ca33af9e6ab01b7a8e95331e6ed9859181900360200190a1604080518082018252600f81526e2d2aa9a21029ba30b13632b1b7b4b760891b602091820152815180830190925260018252603160f81b9101527fd28848e7c3cbededd42b8bfb722b93a1d091c2e7280388a67bb55fc505b758eb60368190557fc89efdaa54c0f20c7adf612882df0950f5a951637e0307cdcb4c672f298b8bc66037819055611360611398565b60355561138e7f8b73c3c69bb8fe3d512ecc4cf759cc79239f7b179b0ffacaa9a75d522b39400f838361139c565b6034555050505050565b4690565b60008383836113a9611398565b6040805160208082019690965280820194909452606084019290925260808301523060a0808401919091528151808403909101815260c090920190528051910120949350505050565b6000610f6883836040518060400160405280601e81526020017f536166654d6174683a207375627472616374696f6e206f766572666c6f770000815250610e77565b6001600160a01b03811661148f576040805162461bcd60e51b815260206004820152601e60248201527f4163636f756e742063616e6e6f74206265207a65726f20616464726573730000604482015290519081900360640190fd5b803b806106f4576040805162461bcd60e51b815260206004820181905260248201527f4163636f756e7420636f64652073697a652063616e6e6f74206265207a65726f604482015290519081900360640190fdfe45524332303a206275726e20616d6f756e7420657863656564732062616c616e63655a555344546f6b656e3a2043616c6c6572206973206e6f7420426f72726f7765724f7065726174696f6e7345524332303a207472616e7366657220616d6f756e7420657863656564732062616c616e63655a5553443a2043616c6c6572206973206e65697468657220426f72726f7765724f7065726174696f6e73206e6f722054726f76654d616e61676572206e6f722053746162696c697479506f6f6c4f776e61626c653a3a7365744f776e65723a20696e76616c696420616464726573735a5553443a2043616e6e6f74207472616e7366657220746f6b656e73206469726563746c7920746f20746865205a55534420746f6b656e20636f6e7472616374206f7220746865207a65726f206164647265737345524332303a207472616e7366657220616d6f756e74206578636565647320616c6c6f77616e6365436f6e747261637420696e7374616e63652068617320616c7265616479206265656e20696e697469616c697a65645a5553443a2043616c6c6572206973206e6f74207468652053746162696c697479506f6f6cddf252ad1be2c89b69c2b068fc378daa952ba7f163c4a11628f55a4df523b3ef5a5553443a2043616c6c6572206973206e6569746865722054726f76654d616e61676572206e6f722053746162696c697479506f6f6c45524332303a2064656372656173656420616c6c6f77616e63652062656c6f77207a65726fa2646970667358221220f50801aa88b31fd77d008212bfb89f94e9589a1713a72c6a58c4d6412ee8a87f64736f6c634300060b00334f776e61626c653a3a7365744f776e65723a20696e76616c69642061646472657373608060405234801561001057600080fd5b50610023336001600160e01b0361002816565b610110565b6001600160a01b03811661006d5760405162461bcd60e51b8152600401808060200182810382526022815260200180610d786022913960400191505060405180910390fd5b6001600160a01b0381166100886001600160e01b036100e616565b6001600160a01b03167f8be0079c531659141344cd1fd0a4f28419497f9722a3daafe3b4186f6b6457e060405160405180910390a3604080517035b2bc9737bbb730b136329737bbb732b960791b8152905190819003601101902055565b604080517035b2bc9737bbb730b136329737bbb732b960791b815290519081900360110190205490565b610c598061011f6000396000f3fe6080604052600436106100a05760003560e01c8063893d20e811610064578063893d20e8146101d55780639b56d6c9146101ea578063a3f4df7e1461021d578063b08bc722146102a7578063b32beb5b146102bc578063b7f8cf9b146102ef576100c5565b806313af4035146100ca57806314f6c3be146100ff578063363bf964146101265780633f10abab1461016b5780635a4d28bb146101a4576100c5565b366100c5576100ad610304565b6003546100c0903463ffffffff61034f16565b600355005b600080fd5b3480156100d657600080fd5b506100fd600480360360208110156100ed57600080fd5b50356001600160a01b03166103b0565b005b34801561010b57600080fd5b50610114610423565b60408051918252519081900360200190f35b34801561013257600080fd5b506100fd6004803603606081101561014957600080fd5b506001600160a01b038135811691602081013582169160409091013516610429565b34801561017757600080fd5b506100fd6004803603604081101561018e57600080fd5b506001600160a01b038135169060200135610595565b3480156101b057600080fd5b506101b9610621565b604080516001600160a01b039092168252519081900360200190f35b3480156101e157600080fd5b506101b9610630565b3480156101f657600080fd5b506101146004803603602081101561020d57600080fd5b50356001600160a01b031661065a565b34801561022957600080fd5b50610232610675565b6040805160208082528351818301528351919283929083019185019080838360005b8381101561026c578181015183820152602001610254565b50505050905090810190601f1680156102995780820380516001836020036101000a031916815260200191505b509250505060405180910390f35b3480156102b357600080fd5b506101b96106a0565b3480156102c857600080fd5b506100fd600480360360208110156102df57600080fd5b50356001600160a01b03166106af565b3480156102fb57600080fd5b506101b9610849565b6002546001600160a01b0316331461034d5760405162461bcd60e51b815260040180806020018281038252602a815260200180610b58602a913960400191505060405180910390fd5b565b6000828201838110156103a9576040805162461bcd60e51b815260206004820152601b60248201527f536166654d6174683a206164646974696f6e206f766572666c6f770000000000604482015290519081900360640190fd5b9392505050565b6103b8610630565b6001600160a01b0316336001600160a01b031614610417576040805162461bcd60e51b815260206004820152601760248201527613dddb98589b194e8e881858d8d95cdcc819195b9a5959604a1b604482015290519081900360640190fd5b61042081610858565b50565b60035490565b610431610630565b6001600160a01b0316336001600160a01b031614610490576040805162461bcd60e51b815260206004820152601760248201527613dddb98589b194e8e881858d8d95cdcc819195b9a5959604a1b604482015290519081900360640190fd5b6104998361090d565b6104a28261090d565b6104ab8161090d565b600080546001600160a01b038086166001600160a01b0319928316811790935560018054868316908416179055600280549185169190921617905560408051918252517f3ca631ffcd2a9b5d9ae18543fc82f58eb4ca33af9e6ab01b7a8e95331e6ed9859181900360200190a1604080516001600160a01b038416815290517f143219c9e69b09e07e095fcc889b43d8f46ca892bba65f08dc3a0050869a56789181900360200190a1604080516001600160a01b038316815290517f78f058b189175430c48dc02699e3a0031ea4ff781536dc2fab847de4babdd8829181900360200190a1505050565b61059d6109c0565b6001600160a01b0382166000908152600460205260408120546105c6908363ffffffff61034f16565b6001600160a01b0384166000818152600460209081526040918290208490558151848152915193945091927ff0393a34d05e6567686ad4e097f9d9d2781565957394f1f0d984e5d8e6378f20929181900390910190a2505050565b6001546001600160a01b031681565b604080517035b2bc9737bbb730b136329737bbb732b960791b815290519081900360110190205490565b6001600160a01b031660009081526004602052604090205490565b6040518060400160405280600f81526020016e10dbdb1b14dd5c9c1b1d5cd41bdbdb608a1b81525081565b6002546001600160a01b031681565b6106b7610a09565b6001600160a01b0381166000908152600460205260409020548061070c5760405162461bcd60e51b8152600401808060200182810382526031815260200180610b276031913960400191505060405180910390fd5b6001600160a01b03821660008181526004602090815260408083208390558051928352517ff0393a34d05e6567686ad4e097f9d9d2781565957394f1f0d984e5d8e6378f209281900390910190a260035461076d908263ffffffff610a5216565b600355604080516001600160a01b03841681526020810183905281517f6109e2559dfa766aaec7118351d48a523f0a4157f49c8d68749c8ac41318ad12929181900390910190a16040516000906001600160a01b0384169083908381818185875af1925050503d80600081146107ff576040519150601f19603f3d011682016040523d82523d6000602084013e610804565b606091505b50509050806108445760405162461bcd60e51b8152600401808060200182810382526023815260200180610ba46023913960400191505060405180910390fd5b505050565b6000546001600160a01b031681565b6001600160a01b03811661089d5760405162461bcd60e51b8152600401808060200182810382526022815260200180610b826022913960400191505060405180910390fd5b806001600160a01b03166108af610630565b6001600160a01b03167f8be0079c531659141344cd1fd0a4f28419497f9722a3daafe3b4186f6b6457e060405160405180910390a3604080517035b2bc9737bbb730b136329737bbb732b960791b8152905190819003601101902055565b6001600160a01b038116610968576040805162461bcd60e51b815260206004820152601e60248201527f4163636f756e742063616e6e6f74206265207a65726f20616464726573730000604482015290519081900360640190fd5b803b806109bc576040805162461bcd60e51b815260206004820181905260248201527f4163636f756e7420636f64652073697a652063616e6e6f74206265207a65726f604482015290519081900360640190fd5b5050565b6001546001600160a01b0316331461034d5760405162461bcd60e51b815260040180806020018281038252602b815260200180610bf9602b913960400191505060405180910390fd5b6000546001600160a01b0316331461034d5760405162461bcd60e51b8152600401808060200182810382526032815260200180610bc76032913960400191505060405180910390fd5b60006103a983836040518060400160405280601e81526020017f536166654d6174683a207375627472616374696f6e206f766572666c6f77000081525060008184841115610b1e5760405162461bcd60e51b81526004018080602001828103825283818151815260200191508051906020019080838360005b83811015610ae3578181015183820152602001610acb565b50505050905090810190601f168015610b105780820380516001836020036101000a031916815260200191505b509250505060405180910390fd5b50505090039056fe436f6c6c537572706c7573506f6f6c3a204e6f20636f6c6c61746572616c20617661696c61626c6520746f20636c61696d436f6c6c537572706c7573506f6f6c3a2043616c6c6572206973206e6f742041637469766520506f6f6c4f776e61626c653a3a7365744f776e65723a20696e76616c69642061646472657373436f6c6c537572706c7573506f6f6c3a2073656e64696e6720455448206661696c6564436f6c6c537572706c7573506f6f6c3a2043616c6c6572206973206e6f7420426f72726f776572204f7065726174696f6e73436f6c6c537572706c7573506f6f6c3a2043616c6c6572206973206e6f742054726f76654d616e61676572a2646970667358221220ec19e79dbe7180a98cb7d6212d7b49be2e6c8b1fa1ef966e63158e1190ee1e1e64736f6c634300060b00334f776e61626c653a3a7365744f776e65723a20696e76616c696420616464726573736080604052680ad78ebc5ac620000060005534801561001d57600080fd5b5061010e8061002d6000396000f3fe6080604052348015600f57600080fd5b5060043610603c5760003560e01c80630fdb11cf14604157806391b7f5ed14605957806398d5fdca146087575b600080fd5b6047608d565b60408051918252519081900360200190f35b607360048036036020811015606d57600080fd5b503560ca565b604080519115158252519081900360200190f35b604760d2565b6000805460408051918252517f4d29de21de555af78a62fc82dd4bc05e9ae5b0660a37f04729527e0f22780cd39181900360200190a15060005490565b600055600190565b6000549056fea2646970667358221220164ba700becaab6addb0063cb07fd2e3060ebb0990f72b63246d2dc261ecdc9364736f6c634300060b0033608060405234801561001057600080fd5b50610023336001600160e01b0361002816565b610110565b6001600160a01b03811661006d5760405162461bcd60e51b8152600401808060200182810382526022815260200180611b186022913960400191505060405180910390fd5b6001600160a01b0381166100886001600160e01b036100e616565b6001600160a01b03167f8be0079c531659141344cd1fd0a4f28419497f9722a3daafe3b4186f6b6457e060405160405180910390a3604080517035b2bc9737bbb730b136329737bbb732b960791b8152905190819003601101902055565b604080517035b2bc9737bbb730b136329737bbb732b960791b815290519081900360110190205490565b6119f98061011f6000396000f3fe608060405234801561001057600080fd5b50600436106101375760003560e01c806363e1d57c116100b8578063a3f4df7e1161007c578063a3f4df7e14610388578063b72703ac14610405578063b7f8cf9b1461042b578063babd3d9a14610433578063de8fa4311461043b578063f376d7981461044357610137565b806363e1d57c146102fe578063681fe70c1461031857806373d4a13a14610320578063765e01591461035a578063893d20e81461038057610137565b80633fce12d5116100ff5780633fce12d5146101f2578063416980dc1461023a57806346f7cf87146102945780634d622831146102d05780635dbe47e8146102d857610137565b806313af40351461013c5780631e2231431461016457806329092d0e146101885780632be21260146101ae5780633d83908a146101ea575b600080fd5b6101626004803603602081101561015257600080fd5b50356001600160a01b0316610477565b005b61016c6104ea565b604080516001600160a01b039092168252519081900360200190f35b6101626004803603602081101561019e57600080fd5b50356001600160a01b03166104f9565b610162600480360360808110156101c457600080fd5b506001600160a01b0381358116916020810135916040820135811691606001351661050a565b61016c6105bf565b6102266004803603606081101561020857600080fd5b508035906001600160a01b03602082013581169160400135166105ce565b604080519115158252519081900360200190f35b61026e6004803603606081101561025057600080fd5b508035906001600160a01b03602082013581169160400135166105f1565b604080516001600160a01b03938416815291909216602082015281519081900390910190f35b610162600480360360808110156102aa57600080fd5b506001600160a01b0381358116916020810135916040820135811691606001351661061b565b61016c610630565b610226600480360360208110156102ee57600080fd5b50356001600160a01b031661063f565b61030661065d565b60408051918252519081900360200190f35b610226610663565b61032861066a565b604080516001600160a01b03958616815293909416602084015282840191909152606082015290519081900360800190f35b61016c6004803603602081101561037057600080fd5b50356001600160a01b0316610689565b61016c6106ac565b6103906106d6565b6040805160208082528351818301528351919283929083019185019080838360005b838110156103ca5781810151838201526020016103b2565b50505050905090810190601f1680156103f75780820380516001836020036101000a031916815260200191505b509250505060405180910390f35b61016c6004803603602081101561041b57600080fd5b50356001600160a01b03166106fe565b61016c61071f565b61022661072e565b610306610738565b6101626004803603606081101561045957600080fd5b508035906001600160a01b036020820135811691604001351661073e565b61047f6106ac565b6001600160a01b0316336001600160a01b0316146104de576040805162461bcd60e51b815260206004820152601760248201527613dddb98589b194e8e881858d8d95cdcc819195b9a5959604a1b604482015290519081900360640190fd5b6104e78161089c565b50565b6002546001600160a01b031690565b610501610951565b6104e78161099c565b6001546001600160a01b031661051f81610bd0565b6105288561063f565b6105635760405162461bcd60e51b815260040180806020018281038252602a8152602001806118da602a913960400191505060405180910390fd5b600084116105a25760405162461bcd60e51b81526004018080602001828103825260238152602001806119a16023913960400191505060405180910390fd5b6105ab8561099c565b6105b88186868686610c2c565b5050505050565b6001546001600160a01b031681565b6001546000906105e9906001600160a01b0316858585610fb0565b949350505050565b600154600090819061060e906001600160a01b0316868686611257565b915091505b935093915050565b6001546001600160a01b03166105ab81610bd0565b6003546001600160a01b031690565b6001600160a01b031660009081526006602052604090205460ff1690565b60045490565b6005541590565b6002546003546004546005546001600160a01b03938416939092169184565b6001600160a01b0390811660009081526006602052604090205461010090041690565b604080517035b2bc9737bbb730b136329737bbb732b960791b815290519081900360110190205490565b6040518060400160405280600c81526020016b536f7274656454726f76657360a01b81525081565b6001600160a01b039081166000908152600660205260409020600101541690565b6000546001600160a01b031681565b6004546005541490565b60055490565b6107466106ac565b6001600160a01b0316336001600160a01b0316146107a5576040805162461bcd60e51b815260206004820152601760248201527613dddb98589b194e8e881858d8d95cdcc819195b9a5959604a1b604482015290519081900360640190fd5b600083116107e45760405162461bcd60e51b81526004018080602001828103825260228152602001806119046022913960400191505060405180910390fd5b6107ed82611444565b6107f681611444565b6004839055600180546001600160a01b038085166001600160a01b03199283168117909355600080549185169190921617905560408051918252517f143219c9e69b09e07e095fcc889b43d8f46ca892bba65f08dc3a0050869a56789181900360200190a1604080516001600160a01b038316815290517f3ca631ffcd2a9b5d9ae18543fc82f58eb4ca33af9e6ab01b7a8e95331e6ed9859181900360200190a1505050565b6001600160a01b0381166108e15760405162461bcd60e51b81526004018080602001828103825260228152602001806119526022913960400191505060405180910390fd5b806001600160a01b03166108f36106ac565b6001600160a01b03167f8be0079c531659141344cd1fd0a4f28419497f9722a3daafe3b4186f6b6457e060405160405180910390a3604080517035b2bc9737bbb730b136329737bbb732b960791b8152905190819003601101902055565b6001546001600160a01b0316331461099a5760405162461bcd60e51b815260040180806020018281038252602c815260200180611926602c913960400191505060405180910390fd5b565b6109a58161063f565b6109e05760405162461bcd60e51b815260040180806020018281038252602a8152602001806118da602a913960400191505060405180910390fd5b60055460011015610b26576002546001600160a01b0382811691161415610a4f576001600160a01b03818116600090815260066020526040808220546002805461010090920485166001600160a01b031992831617908190559093168252902060010180549091169055610b21565b6003546001600160a01b0382811691161415610ab6576001600160a01b0380821660009081526006602052604080822060010154600380546001600160a01b03191691851691909117908190559092168152208054610100600160a81b0319169055610b21565b6001600160a01b038082166000908152600660205260408082208054600180830180548716865284862080546101009485900489168502610100600160a81b03199091161790555492549190910485168452919092200180546001600160a01b031916919092161790555b610b43565b600280546001600160a01b03199081169091556003805490911690555b6001600160a01b038116600090815260066020526040902080546001600160a81b0319168155600190810180546001600160a01b0319169055600554610b8e9163ffffffff6114f716565b600555604080516001600160a01b038316815290517fcfc24166db4bb677e857cacabd1541fb2b30645021b27c5130419589b84db52b9181900360200190a150565b6000546001600160a01b0316331480610bf15750336001600160a01b038216145b6104e75760405162461bcd60e51b815260040180806020018281038252602d815260200180611974602d913960400191505060405180910390fd5b610c3461072e565b15610c86576040805162461bcd60e51b815260206004820152601a60248201527f536f7274656454726f7665733a204c6973742069732066756c6c000000000000604482015290519081900360640190fd5b610c8f8461063f565b15610ccb5760405162461bcd60e51b815260040180806020018281038252602c8152602001806118ae602c913960400191505060405180910390fd5b6001600160a01b038416610d26576040805162461bcd60e51b815260206004820152601f60248201527f536f7274656454726f7665733a2049642063616e6e6f74206265207a65726f00604482015290519081900360640190fd5b60008311610d655760405162461bcd60e51b81526004018080602001828103825260238152602001806119a16023913960400191505060405180910390fd5b8181610d7387868484610fb0565b610d8957610d8387868484611257565b90925090505b6001600160a01b038087166000908152600660205260409020805460ff191660011790558216158015610dc357506001600160a01b038116155b15610df857600280546001600160a01b0388166001600160a01b03199182168117909255600380549091169091179055610f4c565b6001600160a01b038216610e6c57600280546001600160a01b03888116600081815260066020526040808220805495851661010002610100600160a81b0319909616959095179094558454909216825291902060010180546001600160a01b03199081168317909155825416179055610f4c565b6001600160a01b038116610edc57600380546001600160a01b0388811660008181526006602052604080822060010180549585166001600160a01b031996871617905585549093168152919091208054610100600160a81b03191661010083021790558254909116179055610f4c565b6001600160a01b038087166000818152600660205260408082208054858716610100818102610100600160a81b031993841617845560019384018054988b166001600160a01b0319998a168117909155865284862080549188029190931617909155835291200180549092161790555b600554610f6090600163ffffffff61154016565b600555604080516001600160a01b03881681526020810187905281517fe02b43adbee0c123de070a04554a71877a0007e2fc161466299cae3c094fe82f929181900390910190a150505050505050565b60006001600160a01b038316158015610fd057506001600160a01b038216155b15610fe457610fdd610663565b90506105e9565b6001600160a01b038316611096576002546001600160a01b038381169116148015610fdd5750846001600160a01b031663b0d8e181836040518263ffffffff1660e01b815260040180826001600160a01b03166001600160a01b0316815260200191505060206040518083038186803b15801561106057600080fd5b505afa158015611074573d6000803e3d6000fd5b505050506040513d602081101561108a57600080fd5b505184101590506105e9565b6001600160a01b038216611148576003546001600160a01b038481169116148015610fdd5750846001600160a01b031663b0d8e181846040518263ffffffff1660e01b815260040180826001600160a01b03166001600160a01b0316815260200191505060206040518083038186803b15801561111257600080fd5b505afa158015611126573d6000803e3d6000fd5b505050506040513d602081101561113c57600080fd5b505184111590506105e9565b6001600160a01b03838116600090815260066020526040902054610100900481169083161480156111fa575083856001600160a01b031663b0d8e181856040518263ffffffff1660e01b815260040180826001600160a01b03166001600160a01b0316815260200191505060206040518083038186803b1580156111cb57600080fd5b505afa1580156111df573d6000803e3d6000fd5b505050506040513d60208110156111f557600080fd5b505110155b8015610fdd5750846001600160a01b031663b0d8e181836040518263ffffffff1660e01b815260040180826001600160a01b03166001600160a01b0316815260200191505060206040518083038186803b15801561106057600080fd5b60008083836001600160a01b0382161561130a576112748261063f565b15806113005750876001600160a01b031663b0d8e181836040518263ffffffff1660e01b815260040180826001600160a01b03166001600160a01b0316815260200191505060206040518083038186803b1580156112d157600080fd5b505afa1580156112e5573d6000803e3d6000fd5b505050506040513d60208110156112fb57600080fd5b505187115b1561130a57600091505b6001600160a01b038116156113b7576113228161063f565b15806113ae5750876001600160a01b031663b0d8e181826040518263ffffffff1660e01b815260040180826001600160a01b03166001600160a01b0316815260200191505060206040518083038186803b15801561137f57600080fd5b505afa158015611393573d6000803e3d6000fd5b505050506040513d60208110156113a957600080fd5b505187105b156113b7575060005b6001600160a01b0382161580156113d557506001600160a01b038116155b156113fe576002546113f390899089906001600160a01b031661159a565b93509350505061143b565b6001600160a01b038216611417576113f38888836116db565b6001600160a01b038116611430576113f388888461159a565b6113f388888461159a565b94509492505050565b6001600160a01b03811661149f576040805162461bcd60e51b815260206004820152601e60248201527f4163636f756e742063616e6e6f74206265207a65726f20616464726573730000604482015290519081900360640190fd5b803b806114f3576040805162461bcd60e51b815260206004820181905260248201527f4163636f756e7420636f64652073697a652063616e6e6f74206265207a65726f604482015290519081900360640190fd5b5050565b600061153983836040518060400160405280601e81526020017f536166654d6174683a207375627472616374696f6e206f766572666c6f770000815250611816565b9392505050565b600082820183811015611539576040805162461bcd60e51b815260206004820152601b60248201527f536166654d6174683a206164646974696f6e206f766572666c6f770000000000604482015290519081900360640190fd5b60025460009081906001600160a01b03848116911614801561163d5750846001600160a01b031663b0d8e181846040518263ffffffff1660e01b815260040180826001600160a01b03166001600160a01b0316815260200191505060206040518083038186803b15801561160d57600080fd5b505afa158015611621573d6000803e3d6000fd5b505050506040513d602081101561163757600080fd5b50518410155b1561164d57506000905081610613565b6001600160a01b038084166000908152600660205260409020548491610100909104165b6001600160a01b03821615801590611692575061169087878484610fb0565b155b156116cf57506001600160a01b03908116600090815260066020526040808220546101009081900484168084529190922054909291900416611671565b90969095509350505050565b60035460009081906001600160a01b03848116911614801561177e5750846001600160a01b031663b0d8e181846040518263ffffffff1660e01b815260040180826001600160a01b03166001600160a01b0316815260200191505060206040518083038186803b15801561174e57600080fd5b505afa158015611762573d6000803e3d6000fd5b505050506040513d602081101561177857600080fd5b50518411155b1561178e57508190506000610613565b6001600160a01b038084166000908152600660205260409020600101548491165b6001600160a01b038216158015906117d057506117ce87878385610fb0565b155b1561180b57506001600160a01b03908116600090815260066020526040808220600190810154841680845291909220909101549091166117af565b969095509350505050565b600081848411156118a55760405162461bcd60e51b81526004018080602001828103825283818151815260200191508051906020019080838360005b8381101561186a578181015183820152602001611852565b50505050905090810190601f1680156118975780820380516001836020036101000a031916815260200191505b509250505060405180910390fd5b50505090039056fe536f7274656454726f7665733a204c69737420616c726561647920636f6e7461696e7320746865206e6f6465536f7274656454726f7665733a204c69737420646f6573206e6f7420636f6e7461696e20746865206964536f7274656454726f7665733a2053697a652063616ee2809974206265207a65726f536f7274656454726f7665733a2043616c6c6572206973206e6f74207468652054726f76654d616e616765724f776e61626c653a3a7365744f776e65723a20696e76616c69642061646472657373536f7274656454726f7665733a2043616c6c6572206973206e65697468657220424f206e6f722054726f76654d536f7274656454726f7665733a204e494352206d75737420626520706f736974697665a264697066735822122032b466fa1ae0f54c795858e19523f6f623b02846824d1e4a37750d801b21599064736f6c634300060b00334f776e61626c653a3a7365744f776e65723a20696e76616c69642061646472657373608060405234801561001057600080fd5b50604051610e35380380610e358339818101604052608081101561003357600080fd5b50805160208201516040830151606090930151600080546001600160a01b039485166001600160a01b0319918216179091556001805493851693821693909317909255600280549484169483169490941790935560038054929093169116179055610d92806100a36000396000f3fe6080604052600436106100ed5760003560e01c8063650b559c11610085578063650b559c1461034857806372d76c87146103985780637bbb0f5e146103d9578063911347311461041a578063cc51a6c21461045c578063cf83544f14610495578063d466e4eb146104ce578063d94bcec214610507578063f47a1ea71461054a576100f4565b806332e859b9146100f95780633332b3281461012f57806335b1017914610178578063390b5f27146101d35780634903a3dd146102205780634afbac51146102355780634c36240b146102b25780634d37261f146102eb578063641b09b61461031e576100f4565b366100f457005b600080fd5b61012d6004803603606081101561010f57600080fd5b508035906001600160a01b0360208201358116916040013516610574565b005b34801561013b57600080fd5b5061012d6004803603608081101561015257600080fd5b508035906001600160a01b036020820135811691604081013590911690606001356105eb565b34801561018457600080fd5b5061012d600480360360e081101561019b57600080fd5b508035906001600160a01b03602082013581169160408101358216916060820135169060808101359060a08101359060c0013561064f565b3480156101df57600080fd5b5061020c600480360360408110156101f657600080fd5b506001600160a01b0381351690602001356106e7565b604080519115158252519081900360200190f35b34801561022c57600080fd5b5061012d610773565b34801561024157600080fd5b5061012d6004803603602081101561025857600080fd5b81019060208101813564010000000081111561027357600080fd5b82018360208201111561028557600080fd5b803590602001918460208302840111640100000000831117156102a757600080fd5b5090925090506107dd565b3480156102be57600080fd5b5061012d600480360360408110156102d557600080fd5b50803590602001356001600160a01b0316610876565b3480156102f757600080fd5b5061012d6004803603602081101561030e57600080fd5b50356001600160a01b03166108cb565b34801561032a57600080fd5b5061012d6004803603602081101561034157600080fd5b5035610931565b61012d600480360360e081101561035e57600080fd5b5080359060208101359060408101359060608101351515906001600160a01b03608082013581169160a08101359091169060c0013561097e565b3480156103a457600080fd5b5061012d600480360360608110156103bb57600080fd5b508035906001600160a01b0360208201358116916040013516610a16565b3480156103e557600080fd5b5061012d600480360360608110156103fc57600080fd5b508035906001600160a01b0360208201358116916040013516610a90565b61012d600480360360a081101561043057600080fd5b508035906020810135906001600160a01b03604082013581169160608101359091169060800135610aed565b34801561046857600080fd5b5061020c6004803603604081101561047f57600080fd5b506001600160a01b038135169060200135610b74565b3480156104a157600080fd5b5061020c600480360360408110156104b857600080fd5b506001600160a01b038135169060200135610bcd565b3480156104da57600080fd5b5061020c600480360360408110156104f157600080fd5b506001600160a01b038135169060200135610c26565b34801561051357600080fd5b5061020c6004803603606081101561052a57600080fd5b506001600160a01b03813581169160208101359091169060400135610c7f565b34801561055657600080fd5b5061012d6004803603602081101561056d57600080fd5b5035610d14565b600154604080516368647db160e01b81526001600160a01b0385811660048301528481166024830152915191909216916368647db191869160448082019260009290919082900301818588803b1580156105cd57600080fd5b505af11580156105e1573d6000803e3d6000fd5b5050505050505050565b600154604080516303752b4b60e51b815260048101849052602481018790526001600160a01b038681166044830152858116606483015291519190921691636ea5696091608480830192600092919082900301818387803b1580156105cd57600080fd5b6000805460408051635e69ba9360e11b8152600481018b90526001600160a01b038a81166024830152898116604483015288811660648301526084820188905260a4820187905260c482018690529151919092169263bcd375269260e4808201939182900301818387803b1580156106c657600080fd5b505af11580156106da573d6000803e3d6000fd5b5050505050505050505050565b6003546040805163a9059cbb60e01b81526001600160a01b038581166004830152602482018590529151600093929092169163a9059cbb9160448082019260209290919082900301818787803b15801561074057600080fd5b505af1158015610754573d6000803e3d6000fd5b505050506040513d602081101561076a57600080fd5b50519392505050565b600160009054906101000a90046001600160a01b03166001600160a01b0316630e704d506040518163ffffffff1660e01b8152600401600060405180830381600087803b1580156107c357600080fd5b505af11580156107d7573d6000803e3d6000fd5b50505050565b600054604051631e8b1c2b60e01b8152602060048201818152602483018590526001600160a01b0390931692631e8b1c2b92869286929182916044909101908590850280828437600081840152601f19601f8201169050808301925050509350505050600060405180830381600087803b15801561085a57600080fd5b505af115801561086e573d6000803e3d6000fd5b505050505050565b60025460408051635f788d6560e01b8152600481018590526001600160a01b03848116602483015291519190921691635f788d6591604480830192600092919082900301818387803b15801561085a57600080fd5b60008054604080516305f0caad60e31b81526001600160a01b03858116600483015291519190921692632f865568926024808201939182900301818387803b15801561091657600080fd5b505af115801561092a573d6000803e3d6000fd5b5050505050565b60025460408051632e54bf9560e01b81526004810184905290516001600160a01b0390921691632e54bf959160248082019260009290919082900301818387803b15801561091657600080fd5b60015460408051630635367960e51b815260048101849052602481018990526044810188905286151560648201526001600160a01b03868116608483015285811660a48301529151919092169163c6a6cf20918a9160c48082019260009290919082900301818588803b1580156109f457600080fd5b505af1158015610a08573d6000803e3d6000fd5b505050505050505050505050565b6001546040805163afbc74b560e01b8152600481018690526001600160a01b03858116602483015284811660448301529151919092169163afbc74b591606480830192600092919082900301818387803b158015610a7357600080fd5b505af1158015610a87573d6000803e3d6000fd5b50505050505050565b6001546040805163154c09cf60e21b8152600481018690526001600160a01b038581166024830152848116604483015291519190921691635530273c91606480830192600092919082900301818387803b158015610a7357600080fd5b6001546040805163860665b360e01b815260048101849052602481018790526001600160a01b03868116604483015285811660648301529151919092169163860665b391889160848082019260009290919082900301818588803b158015610b5457600080fd5b505af1158015610b68573d6000803e3d6000fd5b50505050505050505050565b60035460408051633950935160e01b81526001600160a01b038581166004830152602482018590529151600093929092169163395093519160448082019260209290919082900301818787803b15801561074057600080fd5b6003546040805163095ea7b360e01b81526001600160a01b038581166004830152602482018590529151600093929092169163095ea7b39160448082019260209290919082900301818787803b15801561074057600080fd5b6003546040805163a457c2d760e01b81526001600160a01b038581166004830152602482018590529151600093929092169163a457c2d79160448082019260209290919082900301818787803b15801561074057600080fd5b600354604080516323b872dd60e01b81526001600160a01b038681166004830152858116602483015260448201859052915160009392909216916323b872dd9160648082019260209290919082900301818787803b158015610ce057600080fd5b505af1158015610cf4573d6000803e3d6000fd5b505050506040513d6020811015610d0a57600080fd5b5051949350505050565b600080546040805163653d46e760e01b81526004810185905290516001600160a01b039092169263653d46e79260248084019382900301818387803b15801561091657600080fdfea264697066735822122012ac4d1a12df541b01c9dac4edc3b532ed9e20c4b17857d25541d24b0c54a5fb64736f6c634300060b0033",
  "linkReferences": {},
  "deployedLinkReferences": {}
}