{
  "_format": "hh-sol-artifact-1",
  "contractName": "EchidnaProxy",
  "sourceName": "contracts/TestContracts/EchidnaProxy.sol",
  "abi": [
    {
      "inputs": [
        {
          "internalType": "contract TroveManager",
          "name": "_troveManager",
          "type": "address"
        },
        {
          "internalType": "contract BorrowerOperations",
          "name": "_borrowerOperations",
          "type": "address"
        },
        {
          "internalType": "contract StabilityPool",
          "name": "_stabilityPool",
          "type": "address"
        },
        {
          "internalType": "contract ZUSDToken",
          "name": "_zusdToken",
          "type": "address"
        }
      ],
      "stateMutability": "nonpayable",
      "type": "constructor"
    },
    {
      "inputs": [
        {
          "internalType": "uint256",
          "name": "_ETH",
          "type": "uint256"
        },
        {
          "internalType": "address",
          "name": "_upperHint",
          "type": "address"
        },
        {
          "internalType": "address",
          "name": "_lowerHint",
          "type": "address"
        }
      ],
      "name": "addCollPrx",
      "outputs": [],
      "stateMutability": "payable",
      "type": "function"
    },
    {
      "inputs": [
        {
          "internalType": "uint256",
          "name": "_ETH",
          "type": "uint256"
        },
        {
          "internalType": "uint256",
          "name": "_collWithdrawal",
          "type": "uint256"
        },
        {
          "internalType": "uint256",
          "name": "_debtChange",
          "type": "uint256"
        },
        {
          "internalType": "bool",
          "name": "_isDebtIncrease",
          "type": "bool"
        },
        {
          "internalType": "address",
          "name": "_upperHint",
          "type": "address"
        },
        {
          "internalType": "address",
          "name": "_lowerHint",
          "type": "address"
        },
        {
          "internalType": "uint256",
          "name": "_maxFee",
          "type": "uint256"
        }
      ],
      "name": "adjustTrovePrx",
      "outputs": [],
      "stateMutability": "payable",
      "type": "function"
    },
    {
      "inputs": [
        {
          "internalType": "address",
          "name": "spender",
          "type": "address"
        },
        {
          "internalType": "uint256",
          "name": "amount",
          "type": "uint256"
        }
      ],
      "name": "approvePrx",
      "outputs": [
        {
          "internalType": "bool",
          "name": "",
          "type": "bool"
        }
      ],
      "stateMutability": "nonpayable",
      "type": "function"
    },
    {
      "inputs": [
        {
          "internalType": "address[]",
          "name": "_troveArray",
          "type": "address[]"
        }
      ],
      "name": "batchLiquidateTrovesPrx",
      "outputs": [],
      "stateMutability": "nonpayable",
      "type": "function"
    },
    {
      "inputs": [],
      "name": "closeTrovePrx",
      "outputs": [],
      "stateMutability": "nonpayable",
      "type": "function"
    },
    {
      "inputs": [
        {
          "internalType": "address",
          "name": "spender",
          "type": "address"
        },
        {
          "internalType": "uint256",
          "name": "subtractedValue",
          "type": "uint256"
        }
      ],
      "name": "decreaseAllowancePrx",
      "outputs": [
        {
          "internalType": "bool",
          "name": "",
          "type": "bool"
        }
      ],
      "stateMutability": "nonpayable",
      "type": "function"
    },
    {
      "inputs": [
        {
          "internalType": "address",
          "name": "spender",
          "type": "address"
        },
        {
          "internalType": "uint256",
          "name": "addedValue",
          "type": "uint256"
        }
      ],
      "name": "increaseAllowancePrx",
      "outputs": [
        {
          "internalType": "bool",
          "name": "",
          "type": "bool"
        }
      ],
      "stateMutability": "nonpayable",
      "type": "function"
    },
    {
      "inputs": [
        {
          "internalType": "address",
          "name": "_user",
          "type": "address"
        }
      ],
      "name": "liquidatePrx",
      "outputs": [],
      "stateMutability": "nonpayable",
      "type": "function"
    },
    {
      "inputs": [
        {
          "internalType": "uint256",
          "name": "_n",
          "type": "uint256"
        }
      ],
      "name": "liquidateTrovesPrx",
      "outputs": [],
      "stateMutability": "nonpayable",
      "type": "function"
    },
    {
      "inputs": [
        {
          "internalType": "uint256",
          "name": "_ETH",
          "type": "uint256"
        },
        {
          "internalType": "uint256",
          "name": "_ZUSDAmount",
          "type": "uint256"
        },
        {
          "internalType": "address",
          "name": "_upperHint",
          "type": "address"
        },
        {
          "internalType": "address",
          "name": "_lowerHint",
          "type": "address"
        },
        {
          "internalType": "uint256",
          "name": "_maxFee",
          "type": "uint256"
        }
      ],
      "name": "openTrovePrx",
      "outputs": [],
      "stateMutability": "payable",
      "type": "function"
    },
    {
      "inputs": [
        {
          "internalType": "uint256",
          "name": "_amount",
          "type": "uint256"
        },
        {
          "internalType": "address",
          "name": "_frontEndTag",
          "type": "address"
        }
      ],
      "name": "provideToSPPrx",
      "outputs": [],
      "stateMutability": "nonpayable",
      "type": "function"
    },
    {
      "inputs": [
        {
          "internalType": "uint256",
          "name": "_ZUSDAmount",
          "type": "uint256"
        },
        {
          "internalType": "address",
          "name": "_firstRedemptionHint",
          "type": "address"
        },
        {
          "internalType": "address",
          "name": "_upperPartialRedemptionHint",
          "type": "address"
        },
        {
          "internalType": "address",
          "name": "_lowerPartialRedemptionHint",
          "type": "address"
        },
        {
          "internalType": "uint256",
          "name": "_partialRedemptionHintNICR",
          "type": "uint256"
        },
        {
          "internalType": "uint256",
          "name": "_maxIterations",
          "type": "uint256"
        },
        {
          "internalType": "uint256",
          "name": "_maxFee",
          "type": "uint256"
        }
      ],
      "name": "redeemCollateralPrx",
      "outputs": [],
      "stateMutability": "nonpayable",
      "type": "function"
    },
    {
      "inputs": [
        {
          "internalType": "uint256",
          "name": "_amount",
          "type": "uint256"
        },
        {
          "internalType": "address",
          "name": "_upperHint",
          "type": "address"
        },
        {
          "internalType": "address",
          "name": "_lowerHint",
          "type": "address"
        }
      ],
      "name": "repayZUSDPrx",
      "outputs": [],
      "stateMutability": "nonpayable",
      "type": "function"
    },
    {
      "inputs": [
        {
          "internalType": "address",
          "name": "sender",
          "type": "address"
        },
        {
          "internalType": "address",
          "name": "recipient",
          "type": "address"
        },
        {
          "internalType": "uint256",
          "name": "amount",
          "type": "uint256"
        }
      ],
      "name": "transferFromPrx",
      "outputs": [
        {
          "internalType": "bool",
          "name": "",
          "type": "bool"
        }
      ],
      "stateMutability": "nonpayable",
      "type": "function"
    },
    {
      "inputs": [
        {
          "internalType": "address",
          "name": "recipient",
          "type": "address"
        },
        {
          "internalType": "uint256",
          "name": "amount",
          "type": "uint256"
        }
      ],
      "name": "transferPrx",
      "outputs": [
        {
          "internalType": "bool",
          "name": "",
          "type": "bool"
        }
      ],
      "stateMutability": "nonpayable",
      "type": "function"
    },
    {
      "inputs": [
        {
          "internalType": "uint256",
          "name": "_amount",
          "type": "uint256"
        },
        {
          "internalType": "address",
          "name": "_upperHint",
          "type": "address"
        },
        {
          "internalType": "address",
          "name": "_lowerHint",
          "type": "address"
        }
      ],
      "name": "withdrawCollPrx",
      "outputs": [],
      "stateMutability": "nonpayable",
      "type": "function"
    },
    {
      "inputs": [
        {
          "internalType": "uint256",
          "name": "_amount",
          "type": "uint256"
        }
      ],
      "name": "withdrawFromSPPrx",
      "outputs": [],
      "stateMutability": "nonpayable",
      "type": "function"
    },
    {
      "inputs": [
        {
          "internalType": "uint256",
          "name": "_amount",
          "type": "uint256"
        },
        {
          "internalType": "address",
          "name": "_upperHint",
          "type": "address"
        },
        {
          "internalType": "address",
          "name": "_lowerHint",
          "type": "address"
        },
        {
          "internalType": "uint256",
          "name": "_maxFee",
          "type": "uint256"
        }
      ],
      "name": "withdrawZUSDPrx",
      "outputs": [],
      "stateMutability": "nonpayable",
      "type": "function"
    },
    {
      "stateMutability": "payable",
      "type": "receive"
    }
  ],
  "bytecode": "0x608060405234801561001057600080fd5b50604051610e35380380610e358339818101604052608081101561003357600080fd5b50805160208201516040830151606090930151600080546001600160a01b039485166001600160a01b0319918216179091556001805493851693821693909317909255600280549484169483169490941790935560038054929093169116179055610d92806100a36000396000f3fe6080604052600436106100ed5760003560e01c8063650b559c11610085578063650b559c1461034857806372d76c87146103985780637bbb0f5e146103d9578063911347311461041a578063cc51a6c21461045c578063cf83544f14610495578063d466e4eb146104ce578063d94bcec214610507578063f47a1ea71461054a576100f4565b806332e859b9146100f95780633332b3281461012f57806335b1017914610178578063390b5f27146101d35780634903a3dd146102205780634afbac51146102355780634c36240b146102b25780634d37261f146102eb578063641b09b61461031e576100f4565b366100f457005b600080fd5b61012d6004803603606081101561010f57600080fd5b508035906001600160a01b0360208201358116916040013516610574565b005b34801561013b57600080fd5b5061012d6004803603608081101561015257600080fd5b508035906001600160a01b036020820135811691604081013590911690606001356105eb565b34801561018457600080fd5b5061012d600480360360e081101561019b57600080fd5b508035906001600160a01b03602082013581169160408101358216916060820135169060808101359060a08101359060c0013561064f565b3480156101df57600080fd5b5061020c600480360360408110156101f657600080fd5b506001600160a01b0381351690602001356106e7565b604080519115158252519081900360200190f35b34801561022c57600080fd5b5061012d610773565b34801561024157600080fd5b5061012d6004803603602081101561025857600080fd5b81019060208101813564010000000081111561027357600080fd5b82018360208201111561028557600080fd5b803590602001918460208302840111640100000000831117156102a757600080fd5b5090925090506107dd565b3480156102be57600080fd5b5061012d600480360360408110156102d557600080fd5b50803590602001356001600160a01b0316610876565b3480156102f757600080fd5b5061012d6004803603602081101561030e57600080fd5b50356001600160a01b03166108cb565b34801561032a57600080fd5b5061012d6004803603602081101561034157600080fd5b5035610931565b61012d600480360360e081101561035e57600080fd5b5080359060208101359060408101359060608101351515906001600160a01b03608082013581169160a08101359091169060c0013561097e565b3480156103a457600080fd5b5061012d600480360360608110156103bb57600080fd5b508035906001600160a01b0360208201358116916040013516610a16565b3480156103e557600080fd5b5061012d600480360360608110156103fc57600080fd5b508035906001600160a01b0360208201358116916040013516610a90565b61012d600480360360a081101561043057600080fd5b508035906020810135906001600160a01b03604082013581169160608101359091169060800135610aed565b34801561046857600080fd5b5061020c6004803603604081101561047f57600080fd5b506001600160a01b038135169060200135610b74565b3480156104a157600080fd5b5061020c600480360360408110156104b857600080fd5b506001600160a01b038135169060200135610bcd565b3480156104da57600080fd5b5061020c600480360360408110156104f157600080fd5b506001600160a01b038135169060200135610c26565b34801561051357600080fd5b5061020c6004803603606081101561052a57600080fd5b506001600160a01b03813581169160208101359091169060400135610c7f565b34801561055657600080fd5b5061012d6004803603602081101561056d57600080fd5b5035610d14565b600154604080516368647db160e01b81526001600160a01b0385811660048301528481166024830152915191909216916368647db191869160448082019260009290919082900301818588803b1580156105cd57600080fd5b505af11580156105e1573d6000803e3d6000fd5b5050505050505050565b600154604080516303752b4b60e51b815260048101849052602481018790526001600160a01b038681166044830152858116606483015291519190921691636ea5696091608480830192600092919082900301818387803b1580156105cd57600080fd5b6000805460408051635e69ba9360e11b8152600481018b90526001600160a01b038a81166024830152898116604483015288811660648301526084820188905260a4820187905260c482018690529151919092169263bcd375269260e4808201939182900301818387803b1580156106c657600080fd5b505af11580156106da573d6000803e3d6000fd5b5050505050505050505050565b6003546040805163a9059cbb60e01b81526001600160a01b038581166004830152602482018590529151600093929092169163a9059cbb9160448082019260209290919082900301818787803b15801561074057600080fd5b505af1158015610754573d6000803e3d6000fd5b505050506040513d602081101561076a57600080fd5b50519392505050565b600160009054906101000a90046001600160a01b03166001600160a01b0316630e704d506040518163ffffffff1660e01b8152600401600060405180830381600087803b1580156107c357600080fd5b505af11580156107d7573d6000803e3d6000fd5b50505050565b600054604051631e8b1c2b60e01b8152602060048201818152602483018590526001600160a01b0390931692631e8b1c2b92869286929182916044909101908590850280828437600081840152601f19601f8201169050808301925050509350505050600060405180830381600087803b15801561085a57600080fd5b505af115801561086e573d6000803e3d6000fd5b505050505050565b60025460408051635f788d6560e01b8152600481018590526001600160a01b03848116602483015291519190921691635f788d6591604480830192600092919082900301818387803b15801561085a57600080fd5b60008054604080516305f0caad60e31b81526001600160a01b03858116600483015291519190921692632f865568926024808201939182900301818387803b15801561091657600080fd5b505af115801561092a573d6000803e3d6000fd5b5050505050565b60025460408051632e54bf9560e01b81526004810184905290516001600160a01b0390921691632e54bf959160248082019260009290919082900301818387803b15801561091657600080fd5b60015460408051630635367960e51b815260048101849052602481018990526044810188905286151560648201526001600160a01b03868116608483015285811660a48301529151919092169163c6a6cf20918a9160c48082019260009290919082900301818588803b1580156109f457600080fd5b505af1158015610a08573d6000803e3d6000fd5b505050505050505050505050565b6001546040805163afbc74b560e01b8152600481018690526001600160a01b03858116602483015284811660448301529151919092169163afbc74b591606480830192600092919082900301818387803b158015610a7357600080fd5b505af1158015610a87573d6000803e3d6000fd5b50505050505050565b6001546040805163154c09cf60e21b8152600481018690526001600160a01b038581166024830152848116604483015291519190921691635530273c91606480830192600092919082900301818387803b158015610a7357600080fd5b6001546040805163860665b360e01b815260048101849052602481018790526001600160a01b03868116604483015285811660648301529151919092169163860665b391889160848082019260009290919082900301818588803b158015610b5457600080fd5b505af1158015610b68573d6000803e3d6000fd5b50505050505050505050565b60035460408051633950935160e01b81526001600160a01b038581166004830152602482018590529151600093929092169163395093519160448082019260209290919082900301818787803b15801561074057600080fd5b6003546040805163095ea7b360e01b81526001600160a01b038581166004830152602482018590529151600093929092169163095ea7b39160448082019260209290919082900301818787803b15801561074057600080fd5b6003546040805163a457c2d760e01b81526001600160a01b038581166004830152602482018590529151600093929092169163a457c2d79160448082019260209290919082900301818787803b15801561074057600080fd5b600354604080516323b872dd60e01b81526001600160a01b038681166004830152858116602483015260448201859052915160009392909216916323b872dd9160648082019260209290919082900301818787803b158015610ce057600080fd5b505af1158015610cf4573d6000803e3d6000fd5b505050506040513d6020811015610d0a57600080fd5b5051949350505050565b600080546040805163653d46e760e01b81526004810185905290516001600160a01b039092169263653d46e79260248084019382900301818387803b15801561091657600080fdfea264697066735822122012ac4d1a12df541b01c9dac4edc3b532ed9e20c4b17857d25541d24b0c54a5fb64736f6c634300060b0033",
  "linkReferences": {},
  "deployedLinkReferences": {}
}