{
  "_format": "hh-sol-artifact-1",
  "contractName": "ExternalPriceFeedTester",
  "sourceName": "contracts/TestContracts/ExternalPriceFeedTester.sol",
  "abi": [
    {
      "inputs": [],
      "name": "latestAnswer",
      "outputs": [
        {
          "internalType": "uint256",
          "name": "",
          "type": "uint256"
        },
        {
          "internalType": "bool",
          "name": "",
          "type": "bool"
        }
      ],
      "stateMutability": "view",
      "type": "function"
    },
    {
      "inputs": [
        {
          "internalType": "uint256",
          "name": "_price",
          "type": "uint256"
        },
        {
          "internalType": "bool",
          "name": "_success",
          "type": "bool"
        }
      ],
      "name": "setLatestAnswer",
      "outputs": [],
      "stateMutability": "nonpayable",
      "type": "function"
    }
  ],
  "bytecode": "0x608060405234801561001057600080fd5b5060d68061001f6000396000f3fe6080604052348015600f57600080fd5b506004361060325760003560e01c806350d25bcd146037578063c56c4d6c146056575b600080fd5b603d607a565b6040805192835290151560208301528051918290030190f35b607860048036036040811015606a57600080fd5b508035906020013515156087565b005b60005460015460ff169091565b6000919091556001805460ff191691151591909117905556fea26469706673582212208530989d69cf0cd8ccc34297142e5e2b8316a44647be842239f8ffdb9e46a9bc64736f6c634300060b0033",
  "linkReferences": {},
  "deployedLinkReferences": {}
}