{
  "_format": "hh-sol-artifact-1",
  "contractName": "FeeDistributorStorage",
  "sourceName": "contracts/FeeDistributorStorage.sol",
  "abi": [
    {
      "anonymous": false,
      "inputs": [
        {
          "indexed": true,
          "internalType": "address",
          "name": "previousOwner",
          "type": "address"
        },
        {
          "indexed": true,
          "internalType": "address",
          "name": "newOwner",
          "type": "address"
        }
      ],
      "name": "OwnershipTransferred",
      "type": "event"
    },
    {
      "inputs": [],
      "name": "FEE_TO_FEE_SHARING_COLLECTOR",
      "outputs": [
        {
          "internalType": "uint256",
          "name": "",
          "type": "uint256"
        }
      ],
      "stateMutability": "view",
      "type": "function"
    },
    {
      "inputs": [],
      "name": "NAME",
      "outputs": [
        {
          "internalType": "string",
          "name": "",
          "type": "string"
        }
      ],
      "stateMutability": "view",
      "type": "function"
    },
    {
      "inputs": [],
      "name": "activePoolAddress",
      "outputs": [
        {
          "internalType": "address",
          "name": "",
          "type": "address"
        }
      ],
      "stateMutability": "view",
      "type": "function"
    },
    {
      "inputs": [],
      "name": "borrowerOperations",
      "outputs": [
        {
          "internalType": "contract IBorrowerOperations",
          "name": "",
          "type": "address"
        }
      ],
      "stateMutability": "view",
      "type": "function"
    },
    {
      "inputs": [],
      "name": "feeSharingCollector",
      "outputs": [
        {
          "internalType": "contract IFeeSharingCollector",
          "name": "",
          "type": "address"
        }
      ],
      "stateMutability": "view",
      "type": "function"
    },
    {
      "inputs": [],
      "name": "getOwner",
      "outputs": [
        {
          "internalType": "address",
          "name": "_owner",
          "type": "address"
        }
      ],
      "stateMutability": "view",
      "type": "function"
    },
    {
      "inputs": [
        {
          "internalType": "address",
          "name": "_owner",
          "type": "address"
        }
      ],
      "name": "setOwner",
      "outputs": [],
      "stateMutability": "nonpayable",
      "type": "function"
    },
    {
      "inputs": [],
      "name": "troveManager",
      "outputs": [
        {
          "internalType": "contract ITroveManager",
          "name": "",
          "type": "address"
        }
      ],
      "stateMutability": "view",
      "type": "function"
    },
    {
      "inputs": [],
      "name": "wrbtc",
      "outputs": [
        {
          "internalType": "contract IWrbtc",
          "name": "",
          "type": "address"
        }
      ],
      "stateMutability": "view",
      "type": "function"
    },
    {
      "inputs": [],
      "name": "zeroStaking",
      "outputs": [
        {
          "internalType": "contract IZEROStaking",
          "name": "",
          "type": "address"
        }
      ],
      "stateMutability": "view",
      "type": "function"
    },
    {
      "inputs": [],
      "name": "zusdToken",
      "outputs": [
        {
          "internalType": "contract IZUSDToken",
          "name": "",
          "type": "address"
        }
      ],
      "stateMutability": "view",
      "type": "function"
    }
  ],
  "bytecode": "0x608060405234801561001057600080fd5b50610023336001600160e01b0361002816565b610110565b6001600160a01b03811661006d5760405162461bcd60e51b815260040180806020018281038252602281526020018061052b6022913960400191505060405180910390fd5b6001600160a01b0381166100886001600160e01b036100e616565b6001600160a01b03167f8be0079c531659141344cd1fd0a4f28419497f9722a3daafe3b4186f6b6457e060405160405180910390a3604080517035b2bc9737bbb730b136329737bbb732b960791b8152905190819003601101902055565b604080517035b2bc9737bbb730b136329737bbb732b960791b815290519081900360110190205490565b61040c8061011f6000396000f3fe608060405234801561001057600080fd5b50600436106100a95760003560e01c80638e93c649116100715780638e93c64914610112578063a3f4df7e1461012c578063b08bc722146101a9578063d9db1a68146101b1578063ec5472fd146101b9578063ec9f7d46146101c1576100a9565b806313af4035146100ae5780633d83908a146100d65780636b7dbb2d146100fa57806377553ad414610102578063893d20e81461010a575b600080fd5b6100d4600480360360208110156100c457600080fd5b50356001600160a01b03166101c9565b005b6100de61023c565b604080516001600160a01b039092168252519081900360200190f35b6100de61024b565b6100de61025a565b6100de610269565b61011a610293565b60408051918252519081900360200190f35b610134610299565b6040805160208082528351818301528351919283929083019185019080838360005b8381101561016e578181015183820152602001610156565b50505050905090810190601f16801561019b5780820380516001836020036101000a031916815260200191505b509250505060405180910390f35b6100de6102c3565b6100de6102d2565b6100de6102e1565b6100de6102f0565b6101d1610269565b6001600160a01b0316336001600160a01b031614610230576040805162461bcd60e51b815260206004820152601760248201527613dddb98589b194e8e881858d8d95cdcc819195b9a5959604a1b604482015290519081900360640190fd5b610239816102ff565b50565b6003546001600160a01b031681565b6000546001600160a01b031681565b6002546001600160a01b031681565b604080517035b2bc9737bbb730b136329737bbb732b960791b815290519081900360110190205490565b60075481565b6040518060400160405280600e81526020016d2332b2a234b9ba3934b13aba37b960911b81525081565b6006546001600160a01b031681565b6004546001600160a01b031681565b6001546001600160a01b031681565b6005546001600160a01b031681565b6001600160a01b0381166103445760405162461bcd60e51b81526004018080602001828103825260228152602001806103b56022913960400191505060405180910390fd5b806001600160a01b0316610356610269565b6001600160a01b03167f8be0079c531659141344cd1fd0a4f28419497f9722a3daafe3b4186f6b6457e060405160405180910390a3604080517035b2bc9737bbb730b136329737bbb732b960791b815290519081900360110190205556fe4f776e61626c653a3a7365744f776e65723a20696e76616c69642061646472657373a26469706673582212206cfebe73d486b68329906f42a6ec81d233994ac818d87ad7498e1a662459139064736f6c634300060b00334f776e61626c653a3a7365744f776e65723a20696e76616c69642061646472657373",
  "linkReferences": {},
  "deployedLinkReferences": {}
}