{
  "_format": "hh-sol-artifact-1",
  "contractName": "MockFeeSharingCollector",
  "sourceName": "contracts/TestContracts/MockFeeSharingCollector.sol",
  "abi": [
    {
      "inputs": [],
      "name": "transferRBTC",
      "outputs": [],
      "stateMutability": "payable",
      "type": "function"
    },
    {
      "inputs": [
        {
          "internalType": "address",
          "name": "_token",
          "type": "address"
        },
        {
          "internalType": "uint96",
          "name": "_amount",
          "type": "uint96"
        }
      ],
      "name": "transferTokens",
      "outputs": [],
      "stateMutability": "nonpayable",
      "type": "function"
    }
  ],
  "bytecode": "0x608060405234801561001057600080fd5b50610133806100206000396000f3fe60806040526004361060265760003560e01c806322a6fd9514602b578063abe979e1146033575b600080fd5b60316071565b005b348015603e57600080fd5b50603160048036036040811015605357600080fd5b5080356001600160a01b031690602001356001600160601b03166073565b565b604080516323b872dd60e01b81523360048201523060248201526001600160601b038316604482015290516001600160a01b038416916323b872dd9160648083019260209291908290030181600087803b15801560cf57600080fd5b505af115801560e2573d6000803e3d6000fd5b505050506040513d602081101560f757600080fd5b5050505056fea264697066735822122041a1eaed9e2b9a6021fa30c8a9c2e6c66891d8d249f2880ec0bd4039146658fa64736f6c634300060b0033",
  "linkReferences": {},
  "deployedLinkReferences": {}
}