{
  "_format": "hh-sol-artifact-1",
  "contractName": "MoCMedianizer",
  "sourceName": "contracts/Dependencies/PriceFeed/MocMedianizer.sol",
  "abi": [
    {
      "inputs": [
        {
          "internalType": "address",
          "name": "_medianizer",
          "type": "address"
        }
      ],
      "stateMutability": "nonpayable",
      "type": "constructor"
    },
    {
      "inputs": [],
      "name": "latestAnswer",
      "outputs": [
        {
          "internalType": "uint256",
          "name": "",
          "type": "uint256"
        },
        {
          "internalType": "bool",
          "name": "",
          "type": "bool"
        }
      ],
      "stateMutability": "view",
      "type": "function"
    }
  ],
  "bytecode": "0x608060405234801561001057600080fd5b506040516101743803806101748339818101604052602081101561003357600080fd5b5051600080546001600160a01b039092166001600160a01b031990921691909117905561010f806100656000396000f3fe6080604052348015600f57600080fd5b506004361060285760003560e01c806350d25bcd14602d575b600080fd5b6033604c565b6040805192835290151560208301528051918290030190f35b6000806000806000809054906101000a90046001600160a01b03166001600160a01b03166359e02dd76040518163ffffffff1660e01b8152600401604080518083038186803b158015609d57600080fd5b505afa15801560b0573d6000803e3d6000fd5b505050506040513d604081101560c557600080fd5b50805160209091015190945092505050909156fea2646970667358221220177e340fe712b7221ca7b69999a7b933e115feaba9c5d763c7171f9249649cea64736f6c634300060b0033",
  "linkReferences": {},
  "deployedLinkReferences": {}
}