{
  "_format": "hh-sol-artifact-1",
  "contractName": "MultiTroveGetterStorage",
  "sourceName": "contracts/MultiTroveGetterStorage.sol",
  "abi": [
    {
      "anonymous": false,
      "inputs": [
        {
          "indexed": true,
          "internalType": "address",
          "name": "previousOwner",
          "type": "address"
        },
        {
          "indexed": true,
          "internalType": "address",
          "name": "newOwner",
          "type": "address"
        }
      ],
      "name": "OwnershipTransferred",
      "type": "event"
    },
    {
      "inputs": [],
      "name": "getOwner",
      "outputs": [
        {
          "internalType": "address",
          "name": "_owner",
          "type": "address"
        }
      ],
      "stateMutability": "view",
      "type": "function"
    },
    {
      "inputs": [
        {
          "internalType": "address",
          "name": "_owner",
          "type": "address"
        }
      ],
      "name": "setOwner",
      "outputs": [],
      "stateMutability": "nonpayable",
      "type": "function"
    },
    {
      "inputs": [],
      "name": "sortedTroves",
      "outputs": [
        {
          "internalType": "contract ISortedTroves",
          "name": "",
          "type": "address"
        }
      ],
      "stateMutability": "view",
      "type": "function"
    },
    {
      "inputs": [],
      "name": "troveManager",
      "outputs": [
        {
          "internalType": "contract TroveManager",
          "name": "",
          "type": "address"
        }
      ],
      "stateMutability": "view",
      "type": "function"
    }
  ],
  "bytecode": "0x608060405234801561001057600080fd5b50610023336001600160e01b0361002816565b610110565b6001600160a01b03811661006d5760405162461bcd60e51b81526004018080602001828103825260228152602001806103946022913960400191505060405180910390fd5b6001600160a01b0381166100886001600160e01b036100e616565b6001600160a01b03167f8be0079c531659141344cd1fd0a4f28419497f9722a3daafe3b4186f6b6457e060405160405180910390a3604080517035b2bc9737bbb730b136329737bbb732b960791b8152905190819003601101902055565b604080517035b2bc9737bbb730b136329737bbb732b960791b815290519081900360110190205490565b6102758061011f6000396000f3fe608060405234801561001057600080fd5b506004361061004c5760003560e01c806313af4035146100515780633d83908a14610079578063893d20e81461009d578063ae918754146100a5575b600080fd5b6100776004803603602081101561006757600080fd5b50356001600160a01b03166100ad565b005b610081610120565b604080516001600160a01b039092168252519081900360200190f35b61008161012f565b610081610159565b6100b561012f565b6001600160a01b0316336001600160a01b031614610114576040805162461bcd60e51b815260206004820152601760248201527613dddb98589b194e8e881858d8d95cdcc819195b9a5959604a1b604482015290519081900360640190fd5b61011d81610168565b50565b6000546001600160a01b031681565b604080517035b2bc9737bbb730b136329737bbb732b960791b815290519081900360110190205490565b6001546001600160a01b031681565b6001600160a01b0381166101ad5760405162461bcd60e51b815260040180806020018281038252602281526020018061021e6022913960400191505060405180910390fd5b806001600160a01b03166101bf61012f565b6001600160a01b03167f8be0079c531659141344cd1fd0a4f28419497f9722a3daafe3b4186f6b6457e060405160405180910390a3604080517035b2bc9737bbb730b136329737bbb732b960791b815290519081900360110190205556fe4f776e61626c653a3a7365744f776e65723a20696e76616c69642061646472657373a2646970667358221220157adbe3ddac271693837b0122f5ab220db6b3025fbfd145087db45a59f4be4d64736f6c634300060b00334f776e61626c653a3a7365744f776e65723a20696e76616c69642061646472657373",
  "linkReferences": {},
  "deployedLinkReferences": {}
}