{
  "_format": "hh-sol-artifact-1",
  "contractName": "NueMockToken",
  "sourceName": "contracts/TestContracts/MassetManagerTester.sol",
  "abi": [
    {
      "inputs": [],
      "stateMutability": "nonpayable",
      "type": "constructor"
    },
    {
      "anonymous": false,
      "inputs": [
        {
          "indexed": true,
          "internalType": "address",
          "name": "owner",
          "type": "address"
        },
        {
          "indexed": true,
          "internalType": "address",
          "name": "spender",
          "type": "address"
        },
        {
          "indexed": false,
          "internalType": "uint256",
          "name": "value",
          "type": "uint256"
        }
      ],
      "name": "Approval",
      "type": "event"
    },
    {
      "anonymous": false,
      "inputs": [
        {
          "indexed": true,
          "internalType": "address",
          "name": "previousOwner",
          "type": "address"
        },
        {
          "indexed": true,
          "internalType": "address",
          "name": "newOwner",
          "type": "address"
        }
      ],
      "name": "OwnershipTransferred",
      "type": "event"
    },
    {
      "anonymous": false,
      "inputs": [
        {
          "indexed": true,
          "internalType": "address",
          "name": "from",
          "type": "address"
        },
        {
          "indexed": true,
          "internalType": "address",
          "name": "to",
          "type": "address"
        },
        {
          "indexed": false,
          "internalType": "uint256",
          "name": "value",
          "type": "uint256"
        }
      ],
      "name": "Transfer",
      "type": "event"
    },
    {
      "inputs": [],
      "name": "DOMAIN_SEPARATOR",
      "outputs": [
        {
          "internalType": "bytes32",
          "name": "",
          "type": "bytes32"
        }
      ],
      "stateMutability": "view",
      "type": "function"
    },
    {
      "inputs": [
        {
          "internalType": "address",
          "name": "owner",
          "type": "address"
        },
        {
          "internalType": "address",
          "name": "spender",
          "type": "address"
        }
      ],
      "name": "allowance",
      "outputs": [
        {
          "internalType": "uint256",
          "name": "",
          "type": "uint256"
        }
      ],
      "stateMutability": "view",
      "type": "function"
    },
    {
      "inputs": [
        {
          "internalType": "address",
          "name": "spender",
          "type": "address"
        },
        {
          "internalType": "uint256",
          "name": "amount",
          "type": "uint256"
        }
      ],
      "name": "approve",
      "outputs": [
        {
          "internalType": "bool",
          "name": "",
          "type": "bool"
        }
      ],
      "stateMutability": "nonpayable",
      "type": "function"
    },
    {
      "inputs": [
        {
          "internalType": "address",
          "name": "account",
          "type": "address"
        }
      ],
      "name": "balanceOf",
      "outputs": [
        {
          "internalType": "uint256",
          "name": "",
          "type": "uint256"
        }
      ],
      "stateMutability": "view",
      "type": "function"
    },
    {
      "inputs": [
        {
          "internalType": "address",
          "name": "_account",
          "type": "address"
        },
        {
          "internalType": "uint256",
          "name": "_amount",
          "type": "uint256"
        }
      ],
      "name": "burn",
      "outputs": [],
      "stateMutability": "nonpayable",
      "type": "function"
    },
    {
      "inputs": [],
      "name": "decimals",
      "outputs": [
        {
          "internalType": "uint8",
          "name": "",
          "type": "uint8"
        }
      ],
      "stateMutability": "view",
      "type": "function"
    },
    {
      "inputs": [
        {
          "internalType": "address",
          "name": "spender",
          "type": "address"
        },
        {
          "internalType": "uint256",
          "name": "subtractedValue",
          "type": "uint256"
        }
      ],
      "name": "decreaseAllowance",
      "outputs": [
        {
          "internalType": "bool",
          "name": "",
          "type": "bool"
        }
      ],
      "stateMutability": "nonpayable",
      "type": "function"
    },
    {
      "inputs": [],
      "name": "getChainId",
      "outputs": [
        {
          "internalType": "uint256",
          "name": "chainID",
          "type": "uint256"
        }
      ],
      "stateMutability": "pure",
      "type": "function"
    },
    {
      "inputs": [],
      "name": "getOwner",
      "outputs": [
        {
          "internalType": "address",
          "name": "_owner",
          "type": "address"
        }
      ],
      "stateMutability": "view",
      "type": "function"
    },
    {
      "inputs": [
        {
          "internalType": "address",
          "name": "spender",
          "type": "address"
        },
        {
          "internalType": "uint256",
          "name": "addedValue",
          "type": "uint256"
        }
      ],
      "name": "increaseAllowance",
      "outputs": [
        {
          "internalType": "bool",
          "name": "",
          "type": "bool"
        }
      ],
      "stateMutability": "nonpayable",
      "type": "function"
    },
    {
      "inputs": [
        {
          "internalType": "address",
          "name": "_account",
          "type": "address"
        },
        {
          "internalType": "uint256",
          "name": "_amount",
          "type": "uint256"
        }
      ],
      "name": "mint",
      "outputs": [],
      "stateMutability": "nonpayable",
      "type": "function"
    },
    {
      "inputs": [],
      "name": "name",
      "outputs": [
        {
          "internalType": "string",
          "name": "",
          "type": "string"
        }
      ],
      "stateMutability": "view",
      "type": "function"
    },
    {
      "inputs": [
        {
          "internalType": "address",
          "name": "owner",
          "type": "address"
        }
      ],
      "name": "nonces",
      "outputs": [
        {
          "internalType": "uint256",
          "name": "",
          "type": "uint256"
        }
      ],
      "stateMutability": "view",
      "type": "function"
    },
    {
      "inputs": [
        {
          "internalType": "address",
          "name": "owner",
          "type": "address"
        },
        {
          "internalType": "address",
          "name": "spender",
          "type": "address"
        },
        {
          "internalType": "uint256",
          "name": "value",
          "type": "uint256"
        },
        {
          "internalType": "uint256",
          "name": "deadline",
          "type": "uint256"
        },
        {
          "internalType": "uint8",
          "name": "v",
          "type": "uint8"
        },
        {
          "internalType": "bytes32",
          "name": "r",
          "type": "bytes32"
        },
        {
          "internalType": "bytes32",
          "name": "s",
          "type": "bytes32"
        }
      ],
      "name": "permit",
      "outputs": [],
      "stateMutability": "nonpayable",
      "type": "function"
    },
    {
      "inputs": [
        {
          "internalType": "address",
          "name": "_owner",
          "type": "address"
        }
      ],
      "name": "setOwner",
      "outputs": [],
      "stateMutability": "nonpayable",
      "type": "function"
    },
    {
      "inputs": [],
      "name": "symbol",
      "outputs": [
        {
          "internalType": "string",
          "name": "",
          "type": "string"
        }
      ],
      "stateMutability": "view",
      "type": "function"
    },
    {
      "inputs": [],
      "name": "totalSupply",
      "outputs": [
        {
          "internalType": "uint256",
          "name": "",
          "type": "uint256"
        }
      ],
      "stateMutability": "view",
      "type": "function"
    },
    {
      "inputs": [
        {
          "internalType": "address",
          "name": "recipient",
          "type": "address"
        },
        {
          "internalType": "uint256",
          "name": "amount",
          "type": "uint256"
        }
      ],
      "name": "transfer",
      "outputs": [
        {
          "internalType": "bool",
          "name": "",
          "type": "bool"
        }
      ],
      "stateMutability": "nonpayable",
      "type": "function"
    },
    {
      "inputs": [
        {
          "internalType": "address",
          "name": "sender",
          "type": "address"
        },
        {
          "internalType": "address",
          "name": "recipient",
          "type": "address"
        },
        {
          "internalType": "uint256",
          "name": "amount",
          "type": "uint256"
        }
      ],
      "name": "transferFrom",
      "outputs": [
        {
          "internalType": "bool",
          "name": "",
          "type": "bool"
        }
      ],
      "stateMutability": "nonpayable",
      "type": "function"
    },
    {
      "inputs": [
        {
          "internalType": "address",
          "name": "_from",
          "type": "address"
        },
        {
          "internalType": "address",
          "name": "_to",
          "type": "address"
        },
        {
          "internalType": "uint256",
          "name": "_amount",
          "type": "uint256"
        },
        {
          "internalType": "uint256",
          "name": "_deadline",
          "type": "uint256"
        },
        {
          "internalType": "uint8",
          "name": "_v",
          "type": "uint8"
        },
        {
          "internalType": "bytes32",
          "name": "_r",
          "type": "bytes32"
        },
        {
          "internalType": "bytes32",
          "name": "_s",
          "type": "bytes32"
        }
      ],
      "name": "transferWithPermit",
      "outputs": [],
      "stateMutability": "nonpayable",
      "type": "function"
    }
  ],
  "bytecode": "0x610140604081905280605262001a02823960405190819003605201902061012052503480156200002e57600080fd5b50604051806040016040528060078152602001664e75657374726f60c81b81525080604051806040016040528060018152602001603160f81b815250604051806040016040528060078152602001664e75657374726f60c81b815250604051806040016040528060038152602001624e554560e81b8152508160039080519060200190620000be929190620002c7565b508051620000d4906004906020840190620002c7565b50506005805460ff1916601217905550815160208084019190912082519183019190912060405160009080605262001a54823960405190819003605201902060c085905260e084905291506200013490506001600160e01b036200017616565b60a0526200014d8184846001600160e01b036200017a16565b6080526101005250620001709350339250506001600160e01b03620001db169050565b6200036c565b4690565b6000838383620001926001600160e01b036200017616565b6040805160208082019690965280820194909452606084019290925260808301523060a0808401919091528151808403909101815260c090920190528051910120949350505050565b6001600160a01b038116620002225760405162461bcd60e51b8152600401808060200182810382526022815260200180620019e06022913960400191505060405180910390fd5b6001600160a01b0381166200023f6001600160e01b036200029d16565b6001600160a01b03167f8be0079c531659141344cd1fd0a4f28419497f9722a3daafe3b4186f6b6457e060405160405180910390a3604080517035b2bc9737bbb730b136329737bbb732b960791b8152905190819003601101902055565b604080517035b2bc9737bbb730b136329737bbb732b960791b815290519081900360110190205490565b828054600181600116156101000203166002900490600052602060002090601f016020900481019282601f106200030a57805160ff19168380011785556200033a565b828001600101855582156200033a579182015b828111156200033a5782518255916020019190600101906200031d565b50620003489291506200034c565b5090565b6200036991905b8082111562000348576000815560010162000353565b90565b60805160a05160c05160e051610100516101205161162a620003b6600039806109aa525080610f00525080610f42525080610f21525080610ea7525080610ed7525061162a6000f3fe608060405234801561001057600080fd5b506004361061012c5760003560e01c8063605629d6116100ad5780639dc29fac116100715780639dc29fac146103b5578063a457c2d7146103e1578063a9059cbb1461040d578063d505accf14610439578063dd62ed3e1461048a5761012c565b8063605629d6146102ec57806370a082311461033d5780637ecebe0014610363578063893d20e81461038957806395d89b41146103ad5761012c565b8063313ce567116100f4578063313ce567146102665780633408e470146102845780633644e5151461028c578063395093511461029457806340c10f19146102c05761012c565b806306fdde0314610131578063095ea7b3146101ae57806313af4035146101ee57806318160ddd1461021657806323b872dd14610230575b600080fd5b6101396104b8565b6040805160208082528351818301528351919283929083019185019080838360005b8381101561017357818101518382015260200161015b565b50505050905090810190601f1680156101a05780820380516001836020036101000a031916815260200191505b509250505060405180910390f35b6101da600480360360408110156101c457600080fd5b506001600160a01b03813516906020013561054f565b604080519115158252519081900360200190f35b6102146004803603602081101561020457600080fd5b50356001600160a01b031661056c565b005b61021e6105df565b60408051918252519081900360200190f35b6101da6004803603606081101561024657600080fd5b506001600160a01b038135811691602081013590911690604001356105e5565b61026e610672565b6040805160ff9092168252519081900360200190f35b61021e61067b565b61021e61067f565b6101da600480360360408110156102aa57600080fd5b506001600160a01b03813516906020013561068e565b610214600480360360408110156102d657600080fd5b506001600160a01b0381351690602001356106e2565b610214600480360360e081101561030257600080fd5b506001600160a01b03813581169160208101359091169060408101359060608101359060ff6080820135169060a08101359060c00135610757565b61021e6004803603602081101561035357600080fd5b50356001600160a01b031661077b565b61021e6004803603602081101561037957600080fd5b50356001600160a01b0316610796565b6103916107bd565b604080516001600160a01b039092168252519081900360200190f35b6101396107e7565b610214600480360360408110156103cb57600080fd5b506001600160a01b038135169060200135610848565b6101da600480360360408110156103f757600080fd5b506001600160a01b0381351690602001356108b9565b6101da6004803603604081101561042357600080fd5b506001600160a01b038135169060200135610927565b610214600480360360e081101561044f57600080fd5b506001600160a01b03813581169160208101359091169060408101359060608101359060ff6080820135169060a08101359060c0013561093b565b61021e600480360360408110156104a057600080fd5b506001600160a01b0381358116916020013516610ae7565b60038054604080516020601f60026000196101006001881615020190951694909404938401819004810282018101909252828152606093909290918301828280156105445780601f1061051957610100808354040283529160200191610544565b820191906000526020600020905b81548152906001019060200180831161052757829003601f168201915b505050505090505b90565b600061056361055c610b12565b8484610b16565b50600192915050565b6105746107bd565b6001600160a01b0316336001600160a01b0316146105d3576040805162461bcd60e51b815260206004820152601760248201527613dddb98589b194e8e881858d8d95cdcc819195b9a5959604a1b604482015290519081900360640190fd5b6105dc81610c02565b50565b60025490565b60006105f2848484610cb7565b610668846105fe610b12565b6106638560405180606001604052806028815260200161151e602891396001600160a01b038a1660009081526001602052604081209061063c610b12565b6001600160a01b03168152602081019190915260400160002054919063ffffffff610e0c16565b610b16565b5060019392505050565b60055460ff1690565b4690565b6000610689610ea3565b905090565b600061056361069b610b12565b8461066385600160006106ac610b12565b6001600160a01b03908116825260208083019390935260409182016000908120918c16815292529020549063ffffffff610f6d16565b6106ea6107bd565b6001600160a01b0316336001600160a01b031614610749576040805162461bcd60e51b815260206004820152601760248201527613dddb98589b194e8e881858d8d95cdcc819195b9a5959604a1b604482015290519081900360640190fd5b6107538282610fce565b5050565b6107668733878787878761093b565b6107718787876105e5565b5050505050505050565b6001600160a01b031660009081526020819052604090205490565b6001600160a01b03811660009081526006602052604081206107b7906110b8565b92915050565b604080517035b2bc9737bbb730b136329737bbb732b960791b815290519081900360110190205490565b60048054604080516020601f60026000196101006001881615020190951694909404938401819004810282018101909252828152606093909290918301828280156105445780601f1061051957610100808354040283529160200191610544565b6108506107bd565b6001600160a01b0316336001600160a01b0316146108af576040805162461bcd60e51b815260206004820152601760248201527613dddb98589b194e8e881858d8d95cdcc819195b9a5959604a1b604482015290519081900360640190fd5b61075382826110bc565b60006105636108c6610b12565b84610663856040518060600160405280602581526020016115d060259139600160006108f0610b12565b6001600160a01b03908116825260208083019390935260409182016000908120918d1681529252902054919063ffffffff610e0c16565b6000610563610934610b12565b8484610cb7565b83421115610990576040805162461bcd60e51b815260206004820152601d60248201527f45524332305065726d69743a206578706972656420646561646c696e65000000604482015290519081900360640190fd5b6001600160a01b03871660009081526006602052604081207f0000000000000000000000000000000000000000000000000000000000000000908990899089906109d9906110b8565b604080516020808201979097526001600160a01b0395861681830152939094166060840152608083019190915260a082015260c08082018990528251808303909101815260e0909101909152805191012090506000610a37826111b2565b90506000610a47828787876111fe565b9050896001600160a01b0316816001600160a01b031614610aaf576040805162461bcd60e51b815260206004820152601e60248201527f45524332305065726d69743a20696e76616c6964207369676e61747572650000604482015290519081900360640190fd5b6001600160a01b038a166000908152600660205260409020610ad090611369565b610adb8a8a8a610b16565b50505050505050505050565b6001600160a01b03918216600090815260016020908152604080832093909416825291909152205490565b3390565b6001600160a01b038316610b5b5760405162461bcd60e51b81526004018080602001828103825260248152602001806115ac6024913960400191505060405180910390fd5b6001600160a01b038216610ba05760405162461bcd60e51b81526004018080602001828103825260228152602001806114706022913960400191505060405180910390fd5b6001600160a01b03808416600081815260016020908152604080832094871680845294825291829020859055815185815291517f8c5be1e5ebec7d5bd14f71427d1e84f3dd0314c0f7b2291e5b200ac8c7c3b9259281900390910190a3505050565b6001600160a01b038116610c475760405162461bcd60e51b81526004018080602001828103825260228152602001806114da6022913960400191505060405180910390fd5b806001600160a01b0316610c596107bd565b6001600160a01b03167f8be0079c531659141344cd1fd0a4f28419497f9722a3daafe3b4186f6b6457e060405160405180910390a3604080517035b2bc9737bbb730b136329737bbb732b960791b8152905190819003601101902055565b6001600160a01b038316610cfc5760405162461bcd60e51b81526004018080602001828103825260258152602001806115876025913960400191505060405180910390fd5b6001600160a01b038216610d415760405162461bcd60e51b815260040180806020018281038252602381526020018061142b6023913960400191505060405180910390fd5b610d4c838383611372565b610d8f81604051806060016040528060268152602001611492602691396001600160a01b038616600090815260208190526040902054919063ffffffff610e0c16565b6001600160a01b038085166000908152602081905260408082209390935590841681522054610dc4908263ffffffff610f6d16565b6001600160a01b0380841660008181526020818152604091829020949094558051858152905191939287169260008051602061154683398151915292918290030190a3505050565b60008184841115610e9b5760405162461bcd60e51b81526004018080602001828103825283818151815260200191508051906020019080838360005b83811015610e60578181015183820152602001610e48565b50505050905090810190601f168015610e8d5780820380516001836020036101000a031916815260200191505b509250505060405180910390fd5b505050900390565b60007f0000000000000000000000000000000000000000000000000000000000000000610ece61067b565b1415610efb57507f000000000000000000000000000000000000000000000000000000000000000061054c565b610f667f00000000000000000000000000000000000000000000000000000000000000007f00000000000000000000000000000000000000000000000000000000000000007f0000000000000000000000000000000000000000000000000000000000000000611377565b905061054c565b600082820183811015610fc7576040805162461bcd60e51b815260206004820152601b60248201527f536166654d6174683a206164646974696f6e206f766572666c6f770000000000604482015290519081900360640190fd5b9392505050565b6001600160a01b038216611029576040805162461bcd60e51b815260206004820152601f60248201527f45524332303a206d696e7420746f20746865207a65726f206164647265737300604482015290519081900360640190fd5b61103560008383611372565b600254611048908263ffffffff610f6d16565b6002556001600160a01b038216600090815260208190526040902054611074908263ffffffff610f6d16565b6001600160a01b0383166000818152602081815260408083209490945583518581529351929391926000805160206115468339815191529281900390910190a35050565b5490565b6001600160a01b0382166111015760405162461bcd60e51b81526004018080602001828103825260218152602001806115666021913960400191505060405180910390fd5b61110d82600083611372565b6111508160405180606001604052806022815260200161144e602291396001600160a01b038516600090815260208190526040902054919063ffffffff610e0c16565b6001600160a01b03831660009081526020819052604090205560025461117c908263ffffffff6113cd16565b6002556040805182815290516000916001600160a01b038516916000805160206115468339815191529181900360200190a35050565b60006111bc610ea3565b82604051602001808061190160f01b81525060020183815260200182815260200192505050604051602081830303815290604052805190602001209050919050565b60006fa2a8918ca85bafe22016d0b997e4df60600160ff1b038211156112555760405162461bcd60e51b81526004018080602001828103825260228152602001806114b86022913960400191505060405180910390fd5b8360ff16601b148061126a57508360ff16601c145b6112a55760405162461bcd60e51b81526004018080602001828103825260228152602001806114fc6022913960400191505060405180910390fd5b604080516000808252602080830180855289905260ff88168385015260608301879052608083018690529251909260019260a080820193601f1981019281900390910190855afa1580156112fd573d6000803e3d6000fd5b5050604051601f1901519150506001600160a01b038116611360576040805162461bcd60e51b815260206004820152601860248201527745434453413a20696e76616c6964207369676e617475726560401b604482015290519081900360640190fd5b95945050505050565b80546001019055565b505050565b600083838361138461067b565b6040805160208082019690965280820194909452606084019290925260808301523060a0808401919091528151808403909101815260c090920190528051910120949350505050565b600082821115611424576040805162461bcd60e51b815260206004820152601e60248201527f536166654d6174683a207375627472616374696f6e206f766572666c6f770000604482015290519081900360640190fd5b5090039056fe45524332303a207472616e7366657220746f20746865207a65726f206164647265737345524332303a206275726e20616d6f756e7420657863656564732062616c616e636545524332303a20617070726f766520746f20746865207a65726f206164647265737345524332303a207472616e7366657220616d6f756e7420657863656564732062616c616e636545434453413a20696e76616c6964207369676e6174757265202773272076616c75654f776e61626c653a3a7365744f776e65723a20696e76616c6964206164647265737345434453413a20696e76616c6964207369676e6174757265202776272076616c756545524332303a207472616e7366657220616d6f756e74206578636565647320616c6c6f77616e6365ddf252ad1be2c89b69c2b068fc378daa952ba7f163c4a11628f55a4df523b3ef45524332303a206275726e2066726f6d20746865207a65726f206164647265737345524332303a207472616e736665722066726f6d20746865207a65726f206164647265737345524332303a20617070726f76652066726f6d20746865207a65726f206164647265737345524332303a2064656372656173656420616c6c6f77616e63652062656c6f77207a65726fa2646970667358221220fcaf81fe308cd99e0a6d8ddd4221c0cd68860c5571be488af3538234cf7ddc9464736f6c634300060b00334f776e61626c653a3a7365744f776e65723a20696e76616c696420616464726573735065726d69742861646472657373206f776e65722c61646472657373207370656e6465722c75696e743235362076616c75652c75696e74323536206e6f6e63652c75696e7432353620646561646c696e6529454950373132446f6d61696e28737472696e67206e616d652c737472696e672076657273696f6e2c75696e7432353620636861696e49642c6164647265737320766572696679696e67436f6e747261637429",
  "linkReferences": {},
  "deployedLinkReferences": {}
}