{
  "_format": "hh-sol-artifact-1",
  "contractName": "PriceFeedTester",
  "sourceName": "contracts/TestContracts/PriceFeedTester.sol",
  "abi": [
    {
      "anonymous": false,
      "inputs": [
        {
          "indexed": false,
          "internalType": "uint256",
          "name": "_lastGoodPrice",
          "type": "uint256"
        }
      ],
      "name": "LastGoodPriceUpdated",
      "type": "event"
    },
    {
      "anonymous": false,
      "inputs": [
        {
          "indexed": true,
          "internalType": "address",
          "name": "previousOwner",
          "type": "address"
        },
        {
          "indexed": true,
          "internalType": "address",
          "name": "newOwner",
          "type": "address"
        }
      ],
      "name": "OwnershipTransferred",
      "type": "event"
    },
    {
      "anonymous": false,
      "inputs": [
        {
          "indexed": false,
          "internalType": "uint8",
          "name": "index",
          "type": "uint8"
        },
        {
          "indexed": false,
          "internalType": "address",
          "name": "priceFeedAddress",
          "type": "address"
        }
      ],
      "name": "PriceFeedBroken",
      "type": "event"
    },
    {
      "anonymous": false,
      "inputs": [
        {
          "indexed": false,
          "internalType": "uint8",
          "name": "index",
          "type": "uint8"
        },
        {
          "indexed": false,
          "internalType": "address",
          "name": "newPriceFeedAddress",
          "type": "address"
        }
      ],
      "name": "PriceFeedUpdated",
      "type": "event"
    },
    {
      "inputs": [],
      "name": "NAME",
      "outputs": [
        {
          "internalType": "string",
          "name": "",
          "type": "string"
        }
      ],
      "stateMutability": "view",
      "type": "function"
    },
    {
      "inputs": [],
      "name": "fetchPrice",
      "outputs": [
        {
          "internalType": "uint256",
          "name": "",
          "type": "uint256"
        }
      ],
      "stateMutability": "nonpayable",
      "type": "function"
    },
    {
      "inputs": [],
      "name": "getOwner",
      "outputs": [
        {
          "internalType": "address",
          "name": "_owner",
          "type": "address"
        }
      ],
      "stateMutability": "view",
      "type": "function"
    },
    {
      "inputs": [],
      "name": "lastGoodPrice",
      "outputs": [
        {
          "internalType": "uint256",
          "name": "",
          "type": "uint256"
        }
      ],
      "stateMutability": "view",
      "type": "function"
    },
    {
      "inputs": [
        {
          "internalType": "uint8",
          "name": "_index",
          "type": "uint8"
        },
        {
          "internalType": "address",
          "name": "_newPriceFeed",
          "type": "address"
        }
      ],
      "name": "setAddress",
      "outputs": [
        {
          "internalType": "uint256",
          "name": "",
          "type": "uint256"
        }
      ],
      "stateMutability": "nonpayable",
      "type": "function"
    },
    {
      "inputs": [
        {
          "internalType": "address",
          "name": "_mainPriceFeed",
          "type": "address"
        },
        {
          "internalType": "address",
          "name": "_backupPriceFeed",
          "type": "address"
        }
      ],
      "name": "setAddresses",
      "outputs": [],
      "stateMutability": "nonpayable",
      "type": "function"
    },
    {
      "inputs": [
        {
          "internalType": "uint256",
          "name": "_lastGoodPrice",
          "type": "uint256"
        }
      ],
      "name": "setLastGoodPrice",
      "outputs": [],
      "stateMutability": "nonpayable",
      "type": "function"
    },
    {
      "inputs": [
        {
          "internalType": "address",
          "name": "_owner",
          "type": "address"
        }
      ],
      "name": "setOwner",
      "outputs": [],
      "stateMutability": "nonpayable",
      "type": "function"
    }
  ],
  "bytecode": "0x608060405234801561001057600080fd5b50610023336001600160e01b0361002816565b610110565b6001600160a01b03811661006d5760405162461bcd60e51b81526004018080602001828103825260228152602001806109c06022913960400191505060405180910390fd5b6001600160a01b0381166100886001600160e01b036100e616565b6001600160a01b03167f8be0079c531659141344cd1fd0a4f28419497f9722a3daafe3b4186f6b6457e060405160405180910390a3604080517035b2bc9737bbb730b136329737bbb732b960791b8152905190819003601101902055565b604080517035b2bc9737bbb730b136329737bbb732b960791b815290519081900360110190205490565b6108a18061011f6000396000f3fe608060405234801561001057600080fd5b50600436106100785760003560e01c80630490be831461007d5780630589c4e5146100975780630fdb11cf146100c657806313af4035146100ce578063893d20e8146100f657806390107afe1461011a578063a3f4df7e14610148578063c521b3f5146101c5575b600080fd5b6100856101e2565b60408051918252519081900360200190f35b610085600480360360408110156100ad57600080fd5b50803560ff1690602001356001600160a01b03166101e8565b6100856103e1565b6100f4600480360360208110156100e457600080fd5b50356001600160a01b0316610501565b005b6100fe610574565b604080516001600160a01b039092168252519081900360200190f35b6100f46004803603604081101561013057600080fd5b506001600160a01b038135811691602001351661059e565b61015061062e565b6040805160208082528351818301528351919283929083019185019080838360005b8381101561018a578181015183820152602001610172565b50505050905090810190601f1680156101b75780820380516001836020036101000a031916815260200191505b509250505060405180910390f35b6100f4600480360360208110156101db57600080fd5b5035610653565b60025481565b60006101f2610574565b6001600160a01b0316336001600160a01b031614610251576040805162461bcd60e51b815260206004820152601760248201527613dddb98589b194e8e881858d8d95cdcc819195b9a5959604a1b604482015290519081900360640190fd5b60028360ff16106102935760405162461bcd60e51b81526004018080602001828103825260298152602001806107fc6029913960400191505060405180910390fd5b61029c82610658565b8160008460ff16600281106102ad57fe5b0180546001600160a01b0319166001600160a01b03929092169190911790556000808060ff8616600281106102de57fe5b0154604080516350d25bcd60e01b815281516001600160a01b03909316926350d25bcd92600480840193919291829003018186803b15801561031f57600080fd5b505afa158015610333573d6000803e3d6000fd5b505050506040513d604081101561034957600080fd5b5080516020909101519092509050806103935760405162461bcd60e51b81526004018080602001828103825260258152602001806108476025913960400191505060405180910390fd5b6040805160ff871681526001600160a01b038616602082015281517f97f7578becfa7a6013824d8ab1174e8c0522d468cd75e7a7e7fc4bde27338442929181900390910190a1509392505050565b6000805b60028160ff1610156104f85760008060008360ff166002811061040457fe5b0154604080516350d25bcd60e01b815281516001600160a01b03909316926350d25bcd92600480840193919291829003018186803b15801561044557600080fd5b505afa158015610459573d6000803e3d6000fd5b505050506040513d604081101561046f57600080fd5b508051602090910151909250905080156104965761048c8261070b565b5091506104fe9050565b7f19f3630adb38b0aca2b2ad2b9db00888aef6e2b79bbf683a6c4992500998ea708360008560ff16600281106104c857fe5b01546040805160ff90931683526001600160a01b0390911660208301528051918290030190a150506001016103e5565b50506002545b90565b610509610574565b6001600160a01b0316336001600160a01b031614610568576040805162461bcd60e51b815260206004820152601760248201527613dddb98589b194e8e881858d8d95cdcc819195b9a5959604a1b604482015290519081900360640190fd5b61057181610746565b50565b604080517035b2bc9737bbb730b136329737bbb732b960791b815290519081900360110190205490565b6105a6610574565b6001600160a01b0316336001600160a01b031614610605576040805162461bcd60e51b815260206004820152601760248201527613dddb98589b194e8e881858d8d95cdcc819195b9a5959604a1b604482015290519081900360640190fd5b60006106126000846101e8565b905061061f6001836101e8565b506106298161070b565b505050565b60405180604001604052806009815260200168141c9a58d95199595960ba1b81525081565b600255565b6001600160a01b0381166106b3576040805162461bcd60e51b815260206004820152601e60248201527f4163636f756e742063616e6e6f74206265207a65726f20616464726573730000604482015290519081900360640190fd5b803b80610707576040805162461bcd60e51b815260206004820181905260248201527f4163636f756e7420636f64652073697a652063616e6e6f74206265207a65726f604482015290519081900360640190fd5b5050565b60028190556040805182815290517f4d29de21de555af78a62fc82dd4bc05e9ae5b0660a37f04729527e0f22780cd39181900360200190a150565b6001600160a01b03811661078b5760405162461bcd60e51b81526004018080602001828103825260228152602001806108256022913960400191505060405180910390fd5b806001600160a01b031661079d610574565b6001600160a01b03167f8be0079c531659141344cd1fd0a4f28419497f9722a3daafe3b4186f6b6457e060405160405180910390a3604080517035b2bc9737bbb730b136329737bbb732b960791b815290519081900360110190205556fe4f7574206f6620626f756e6473207768656e2073657474696e672074686520707269636520666565644f776e61626c653a3a7365744f776e65723a20696e76616c696420616464726573735072696365466565643a2050726963652066656564206d75737420626520776f726b696e67a2646970667358221220ef036ea581505bc85a10052254a8e4ab79708bfd52f07bb45cc61d45601b9da764736f6c634300060b00334f776e61626c653a3a7365744f776e65723a20696e76616c69642061646472657373",
  "linkReferences": {},
  "deployedLinkReferences": {}
}