{
  "_format": "hh-sol-artifact-1",
  "contractName": "PriceFeedStorage",
  "sourceName": "contracts/PriceFeedStorage.sol",
  "abi": [
    {
      "anonymous": false,
      "inputs": [
        {
          "indexed": true,
          "internalType": "address",
          "name": "previousOwner",
          "type": "address"
        },
        {
          "indexed": true,
          "internalType": "address",
          "name": "newOwner",
          "type": "address"
        }
      ],
      "name": "OwnershipTransferred",
      "type": "event"
    },
    {
      "inputs": [],
      "name": "NAME",
      "outputs": [
        {
          "internalType": "string",
          "name": "",
          "type": "string"
        }
      ],
      "stateMutability": "view",
      "type": "function"
    },
    {
      "inputs": [],
      "name": "getOwner",
      "outputs": [
        {
          "internalType": "address",
          "name": "_owner",
          "type": "address"
        }
      ],
      "stateMutability": "view",
      "type": "function"
    },
    {
      "inputs": [],
      "name": "lastGoodPrice",
      "outputs": [
        {
          "internalType": "uint256",
          "name": "",
          "type": "uint256"
        }
      ],
      "stateMutability": "view",
      "type": "function"
    },
    {
      "inputs": [
        {
          "internalType": "address",
          "name": "_owner",
          "type": "address"
        }
      ],
      "name": "setOwner",
      "outputs": [],
      "stateMutability": "nonpayable",
      "type": "function"
    }
  ],
  "bytecode": "0x608060405234801561001057600080fd5b50610023336001600160e01b0361002816565b610110565b6001600160a01b03811661006d5760405162461bcd60e51b81526004018080602001828103825260228152602001806104286022913960400191505060405180910390fd5b6001600160a01b0381166100886001600160e01b036100e616565b6001600160a01b03167f8be0079c531659141344cd1fd0a4f28419497f9722a3daafe3b4186f6b6457e060405160405180910390a3604080517035b2bc9737bbb730b136329737bbb732b960791b8152905190819003601101902055565b604080517035b2bc9737bbb730b136329737bbb732b960791b815290519081900360110190205490565b6103098061011f6000396000f3fe608060405234801561001057600080fd5b506004361061004c5760003560e01c80630490be831461005157806313af40351461006b578063893d20e814610093578063a3f4df7e146100b7575b600080fd5b610059610134565b60408051918252519081900360200190f35b6100916004803603602081101561008157600080fd5b50356001600160a01b031661013a565b005b61009b6101ad565b604080516001600160a01b039092168252519081900360200190f35b6100bf6101d7565b6040805160208082528351818301528351919283929083019185019080838360005b838110156100f95781810151838201526020016100e1565b50505050905090810190601f1680156101265780820380516001836020036101000a031916815260200191505b509250505060405180910390f35b60025481565b6101426101ad565b6001600160a01b0316336001600160a01b0316146101a1576040805162461bcd60e51b815260206004820152601760248201527613dddb98589b194e8e881858d8d95cdcc819195b9a5959604a1b604482015290519081900360640190fd5b6101aa816101fc565b50565b604080517035b2bc9737bbb730b136329737bbb732b960791b815290519081900360110190205490565b60405180604001604052806009815260200168141c9a58d95199595960ba1b81525081565b6001600160a01b0381166102415760405162461bcd60e51b81526004018080602001828103825260228152602001806102b26022913960400191505060405180910390fd5b806001600160a01b03166102536101ad565b6001600160a01b03167f8be0079c531659141344cd1fd0a4f28419497f9722a3daafe3b4186f6b6457e060405160405180910390a3604080517035b2bc9737bbb730b136329737bbb732b960791b815290519081900360110190205556fe4f776e61626c653a3a7365744f776e65723a20696e76616c69642061646472657373a2646970667358221220850a3957ce660509c32c79d3e8dfef2cedb98b17eadf9a1af3e1d6252e9eb16964736f6c634300060b00334f776e61626c653a3a7365744f776e65723a20696e76616c69642061646472657373",
  "linkReferences": {},
  "deployedLinkReferences": {}
}