{
  "_format": "hh-sol-artifact-1",
  "contractName": "ProxiableContract2",
  "sourceName": "contracts/TestContracts/UpgradableProxyTester.sol",
  "abi": [
    {
      "inputs": [],
      "name": "getAnotherVar",
      "outputs": [
        {
          "internalType": "uint256",
          "name": "",
          "type": "uint256"
        }
      ],
      "stateMutability": "view",
      "type": "function"
    },
    {
      "inputs": [],
      "name": "getSomeVar",
      "outputs": [
        {
          "internalType": "uint256",
          "name": "",
          "type": "uint256"
        }
      ],
      "stateMutability": "view",
      "type": "function"
    },
    {
      "inputs": [],
      "name": "mulVars",
      "outputs": [
        {
          "internalType": "uint256",
          "name": "",
          "type": "uint256"
        }
      ],
      "stateMutability": "view",
      "type": "function"
    },
    {
      "inputs": [
        {
          "internalType": "uint256",
          "name": "value",
          "type": "uint256"
        }
      ],
      "name": "setAnotherVar",
      "outputs": [],
      "stateMutability": "nonpayable",
      "type": "function"
    },
    {
      "inputs": [
        {
          "internalType": "uint256",
          "name": "value",
          "type": "uint256"
        }
      ],
      "name": "setSomeVar",
      "outputs": [],
      "stateMutability": "nonpayable",
      "type": "function"
    }
  ],
  "bytecode": "0x608060405234801561001057600080fd5b50610105806100206000396000f3fe6080604052348015600f57600080fd5b506004361060505760003560e01c806304f03b6a1460555780634be8254314606d578063ab2bf6b5146073578063afd2f403146079578063fdc658e0146095575b600080fd5b605b60af565b60408051918252519081900360200190f35b605b60b5565b605b60bb565b609360048036036020811015608d57600080fd5b503560c5565b005b60936004803603602081101560a957600080fd5b503560ca565b60005490565b60015490565b6001546000540290565b600155565b60005556fea2646970667358221220e5318cb8e056afe87324cbd0339e66389558cb712d1a8bef68d66df343c80aa764736f6c634300060b0033",
  "linkReferences": {},
  "deployedLinkReferences": {}
}