{
  "_format": "hh-sol-artifact-1",
  "contractName": "Proxy",
  "sourceName": "contracts/Proxy/Proxy.sol",
  "abi": [
    {
      "anonymous": false,
      "inputs": [
        {
          "indexed": true,
          "internalType": "address",
          "name": "_oldImplementation",
          "type": "address"
        },
        {
          "indexed": true,
          "internalType": "address",
          "name": "_newImplementation",
          "type": "address"
        }
      ],
      "name": "ImplementationChanged",
      "type": "event"
    },
    {
      "anonymous": false,
      "inputs": [
        {
          "indexed": true,
          "internalType": "address",
          "name": "previousOwner",
          "type": "address"
        },
        {
          "indexed": true,
          "internalType": "address",
          "name": "newOwner",
          "type": "address"
        }
      ],
      "name": "OwnershipTransferred",
      "type": "event"
    },
    {
      "stateMutability": "payable",
      "type": "fallback"
    },
    {
      "inputs": [],
      "name": "getImplementation",
      "outputs": [
        {
          "internalType": "address",
          "name": "_implementation",
          "type": "address"
        }
      ],
      "stateMutability": "view",
      "type": "function"
    },
    {
      "inputs": [],
      "name": "getOwner",
      "outputs": [
        {
          "internalType": "address",
          "name": "_owner",
          "type": "address"
        }
      ],
      "stateMutability": "view",
      "type": "function"
    },
    {
      "inputs": [
        {
          "internalType": "address",
          "name": "_owner",
          "type": "address"
        }
      ],
      "name": "setOwner",
      "outputs": [],
      "stateMutability": "nonpayable",
      "type": "function"
    },
    {
      "stateMutability": "payable",
      "type": "receive"
    }
  ],
  "bytecode": "0x608060405234801561001057600080fd5b50610023336001600160e01b0361002816565b610110565b6001600160a01b03811661006d5760405162461bcd60e51b81526004018080602001828103825260228152602001806104556022913960400191505060405180910390fd5b6001600160a01b0381166100886001600160e01b036100e616565b6001600160a01b03167f8be0079c531659141344cd1fd0a4f28419497f9722a3daafe3b4186f6b6457e060405160405180910390a3604080517035b2bc9737bbb730b136329737bbb732b960791b8152905190819003601101902055565b604080517035b2bc9737bbb730b136329737bbb732b960791b815290519081900360110190205490565b6103368061011f6000396000f3fe6080604052600436106100385760003560e01c806313af40351461004f578063893d20e814610082578063aaf10f42146100b357610047565b36610047576100456100c8565b005b6100456100c8565b34801561005b57600080fd5b506100456004803603602081101561007257600080fd5b50356001600160a01b031661013e565b34801561008e57600080fd5b506100976101b1565b604080516001600160a01b039092168252519081900360200190f35b3480156100bf57600080fd5b506100976101db565b60006100d26101db565b90506001600160a01b0381166101195760405162461bcd60e51b81526004018080602001828103825260238152602001806102de6023913960400191505060405180910390fd5b60405136600082376000803683855af43d806000843e81801561013a578184f35b8184fd5b6101466101b1565b6001600160a01b0316336001600160a01b0316146101a5576040805162461bcd60e51b815260206004820152601760248201527613dddb98589b194e8e881858d8d95cdcc819195b9a5959604a1b604482015290519081900360640190fd5b6101ae81610206565b50565b604080517035b2bc9737bbb730b136329737bbb732b960791b815290519081900360110190205490565b604080517135b2bc9734b6b83632b6b2b73a30ba34b7b760711b815290519081900360120190205490565b6001600160a01b03811661024b5760405162461bcd60e51b81526004018080602001828103825260228152602001806102bc6022913960400191505060405180910390fd5b806001600160a01b031661025d6101b1565b6001600160a01b03167f8be0079c531659141344cd1fd0a4f28419497f9722a3daafe3b4186f6b6457e060405160405180910390a3604080517035b2bc9737bbb730b136329737bbb732b960791b815290519081900360110190205556fe4f776e61626c653a3a7365744f776e65723a20696e76616c6964206164647265737350726f78793a3a28293a20696d706c656d656e746174696f6e206e6f7420666f756e64a2646970667358221220847498cad4cff368610e264fcc4280cc45d1a9930fe2330a276d5af4aa5484ce64736f6c634300060b00334f776e61626c653a3a7365744f776e65723a20696e76616c69642061646472657373",
  "linkReferences": {},
  "deployedLinkReferences": {}
}