{
  "_format": "hh-sol-artifact-1",
  "contractName": "ProxiableContract",
  "sourceName": "contracts/TestContracts/UpgradableProxyTester.sol",
  "abi": [
    {
      "inputs": [],
      "name": "getSomeVar",
      "outputs": [
        {
          "internalType": "uint256",
          "name": "",
          "type": "uint256"
        }
      ],
      "stateMutability": "view",
      "type": "function"
    },
    {
      "inputs": [
        {
          "internalType": "uint256",
          "name": "value",
          "type": "uint256"
        }
      ],
      "name": "setSomeVar",
      "outputs": [],
      "stateMutability": "nonpayable",
      "type": "function"
    }
  ],
  "bytecode": "0x608060405234801561001057600080fd5b5060ac8061001f6000396000f3fe6080604052348015600f57600080fd5b506004361060325760003560e01c806304f03b6a146037578063fdc658e014604f575b600080fd5b603d606b565b60408051918252519081900360200190f35b606960048036036020811015606357600080fd5b50356071565b005b60005490565b60005556fea264697066735822122007b53bc4aa5a32c49415ca7b56f8d434653ad5ae3c41b8b1959dbc19811d708f64736f6c634300060b0033",
  "linkReferences": {},
  "deployedLinkReferences": {}
}