{
  "_format": "hh-sol-artifact-1",
  "contractName": "RskOracle",
  "sourceName": "contracts/Dependencies/PriceFeed/RskOracle.sol",
  "abi": [
    {
      "inputs": [
        {
          "internalType": "address",
          "name": "_address",
          "type": "address"
        }
      ],
      "stateMutability": "nonpayable",
      "type": "constructor"
    },
    {
      "inputs": [],
      "name": "latestAnswer",
      "outputs": [
        {
          "internalType": "uint256",
          "name": "",
          "type": "uint256"
        },
        {
          "internalType": "bool",
          "name": "",
          "type": "bool"
        }
      ],
      "stateMutability": "view",
      "type": "function"
    }
  ],
  "bytecode": "0x608060405234801561001057600080fd5b5060405161015e38038061015e8339818101604052602081101561003357600080fd5b5051600080546001600160a01b039092166001600160a01b031990921691909117905560fa806100646000396000f3fe6080604052348015600f57600080fd5b506004361060285760003560e01c806350d25bcd14602d575b600080fd5b6033604c565b6040805192835290151560208301528051918290030190f35b60008054604080516307169c6760e31b81528151849384936001600160a01b03909116926338b4e3389260048083019392829003018186803b158015609057600080fd5b505afa15801560a3573d6000803e3d6000fd5b505050506040513d604081101560b857600080fd5b5051936001935091505056fea2646970667358221220d437286b4d2232b863f78047e05b4b9db19e3c4988087ec1ac17a59bebd77b0b64736f6c634300060b0033",
  "linkReferences": {},
  "deployedLinkReferences": {}
}