{
  "_format": "hh-sol-artifact-1",
  "contractName": "StabilityPoolTester",
  "sourceName": "contracts/TestContracts/StabilityPoolTester.sol",
  "abi": [
    {
      "anonymous": false,
      "inputs": [
        {
          "indexed": false,
          "internalType": "address",
          "name": "_newActivePoolAddress",
          "type": "address"
        }
      ],
      "name": "ActivePoolAddressChanged",
      "type": "event"
    },
    {
      "anonymous": false,
      "inputs": [
        {
          "indexed": false,
          "internalType": "address",
          "name": "_newBorrowerOperationsAddress",
          "type": "address"
        }
      ],
      "name": "BorrowerOperationsAddressChanged",
      "type": "event"
    },
    {
      "anonymous": false,
      "inputs": [
        {
          "indexed": false,
          "internalType": "address",
          "name": "_newCommunityIssuanceAddress",
          "type": "address"
        }
      ],
      "name": "CommunityIssuanceAddressChanged",
      "type": "event"
    },
    {
      "anonymous": false,
      "inputs": [
        {
          "indexed": false,
          "internalType": "address",
          "name": "_newDefaultPoolAddress",
          "type": "address"
        }
      ],
      "name": "DefaultPoolAddressChanged",
      "type": "event"
    },
    {
      "anonymous": false,
      "inputs": [
        {
          "indexed": true,
          "internalType": "address",
          "name": "_depositor",
          "type": "address"
        },
        {
          "indexed": false,
          "internalType": "uint256",
          "name": "_P",
          "type": "uint256"
        },
        {
          "indexed": false,
          "internalType": "uint256",
          "name": "_S",
          "type": "uint256"
        },
        {
          "indexed": false,
          "internalType": "uint256",
          "name": "_G",
          "type": "uint256"
        }
      ],
      "name": "DepositSnapshotUpdated",
      "type": "event"
    },
    {
      "anonymous": false,
      "inputs": [
        {
          "indexed": true,
          "internalType": "address",
          "name": "_depositor",
          "type": "address"
        },
        {
          "indexed": false,
          "internalType": "uint256",
          "name": "_ETH",
          "type": "uint256"
        },
        {
          "indexed": false,
          "internalType": "uint256",
          "name": "_ZUSDLoss",
          "type": "uint256"
        }
      ],
      "name": "ETHGainWithdrawn",
      "type": "event"
    },
    {
      "anonymous": false,
      "inputs": [
        {
          "indexed": false,
          "internalType": "uint128",
          "name": "_currentEpoch",
          "type": "uint128"
        }
      ],
      "name": "EpochUpdated",
      "type": "event"
    },
    {
      "anonymous": false,
      "inputs": [
        {
          "indexed": false,
          "internalType": "address",
          "name": "_to",
          "type": "address"
        },
        {
          "indexed": false,
          "internalType": "uint256",
          "name": "_amount",
          "type": "uint256"
        }
      ],
      "name": "EtherSent",
      "type": "event"
    },
    {
      "anonymous": false,
      "inputs": [
        {
          "indexed": true,
          "internalType": "address",
          "name": "_frontEnd",
          "type": "address"
        },
        {
          "indexed": false,
          "internalType": "uint256",
          "name": "_kickbackRate",
          "type": "uint256"
        }
      ],
      "name": "FrontEndRegistered",
      "type": "event"
    },
    {
      "anonymous": false,
      "inputs": [
        {
          "indexed": true,
          "internalType": "address",
          "name": "_frontEnd",
          "type": "address"
        },
        {
          "indexed": false,
          "internalType": "uint256",
          "name": "_P",
          "type": "uint256"
        },
        {
          "indexed": false,
          "internalType": "uint256",
          "name": "_G",
          "type": "uint256"
        }
      ],
      "name": "FrontEndSnapshotUpdated",
      "type": "event"
    },
    {
      "anonymous": false,
      "inputs": [
        {
          "indexed": true,
          "internalType": "address",
          "name": "_frontEnd",
          "type": "address"
        },
        {
          "indexed": false,
          "internalType": "uint256",
          "name": "_newFrontEndStake",
          "type": "uint256"
        },
        {
          "indexed": false,
          "internalType": "address",
          "name": "_depositor",
          "type": "address"
        }
      ],
      "name": "FrontEndStakeChanged",
      "type": "event"
    },
    {
      "anonymous": false,
      "inputs": [
        {
          "indexed": true,
          "internalType": "address",
          "name": "_depositor",
          "type": "address"
        },
        {
          "indexed": true,
          "internalType": "address",
          "name": "_frontEnd",
          "type": "address"
        }
      ],
      "name": "FrontEndTagSet",
      "type": "event"
    },
    {
      "anonymous": false,
      "inputs": [
        {
          "indexed": false,
          "internalType": "uint256",
          "name": "_G",
          "type": "uint256"
        },
        {
          "indexed": false,
          "internalType": "uint128",
          "name": "_epoch",
          "type": "uint128"
        },
        {
          "indexed": false,
          "internalType": "uint128",
          "name": "_scale",
          "type": "uint128"
        }
      ],
      "name": "G_Updated",
      "type": "event"
    },
    {
      "anonymous": false,
      "inputs": [
        {
          "indexed": true,
          "internalType": "address",
          "name": "previousOwner",
          "type": "address"
        },
        {
          "indexed": true,
          "internalType": "address",
          "name": "newOwner",
          "type": "address"
        }
      ],
      "name": "OwnershipTransferred",
      "type": "event"
    },
    {
      "anonymous": false,
      "inputs": [
        {
          "indexed": false,
          "internalType": "uint256",
          "name": "_P",
          "type": "uint256"
        }
      ],
      "name": "P_Updated",
      "type": "event"
    },
    {
      "anonymous": false,
      "inputs": [
        {
          "indexed": false,
          "internalType": "address",
          "name": "_newPriceFeedAddress",
          "type": "address"
        }
      ],
      "name": "PriceFeedAddressChanged",
      "type": "event"
    },
    {
      "anonymous": false,
      "inputs": [
        {
          "indexed": false,
          "internalType": "uint256",
          "name": "_S",
          "type": "uint256"
        },
        {
          "indexed": false,
          "internalType": "uint128",
          "name": "_epoch",
          "type": "uint128"
        },
        {
          "indexed": false,
          "internalType": "uint128",
          "name": "_scale",
          "type": "uint128"
        }
      ],
      "name": "S_Updated",
      "type": "event"
    },
    {
      "anonymous": false,
      "inputs": [
        {
          "indexed": false,
          "internalType": "uint128",
          "name": "_currentScale",
          "type": "uint128"
        }
      ],
      "name": "ScaleUpdated",
      "type": "event"
    },
    {
      "anonymous": false,
      "inputs": [
        {
          "indexed": false,
          "internalType": "address",
          "name": "_newSortedTrovesAddress",
          "type": "address"
        }
      ],
      "name": "SortedTrovesAddressChanged",
      "type": "event"
    },
    {
      "anonymous": false,
      "inputs": [
        {
          "indexed": false,
          "internalType": "uint256",
          "name": "_newBalance",
          "type": "uint256"
        }
      ],
      "name": "StabilityPoolETHBalanceUpdated",
      "type": "event"
    },
    {
      "anonymous": false,
      "inputs": [
        {
          "indexed": false,
          "internalType": "uint256",
          "name": "_newBalance",
          "type": "uint256"
        }
      ],
      "name": "StabilityPoolZUSDBalanceUpdated",
      "type": "event"
    },
    {
      "anonymous": false,
      "inputs": [
        {
          "indexed": false,
          "internalType": "address",
          "name": "_newTroveManagerAddress",
          "type": "address"
        }
      ],
      "name": "TroveManagerAddressChanged",
      "type": "event"
    },
    {
      "anonymous": false,
      "inputs": [
        {
          "indexed": true,
          "internalType": "address",
          "name": "_depositor",
          "type": "address"
        },
        {
          "indexed": false,
          "internalType": "uint256",
          "name": "_newDeposit",
          "type": "uint256"
        }
      ],
      "name": "UserDepositChanged",
      "type": "event"
    },
    {
      "anonymous": false,
      "inputs": [
        {
          "indexed": false,
          "internalType": "address",
          "name": "_depositor",
          "type": "address"
        },
        {
          "indexed": false,
          "internalType": "uint256",
          "name": "_zusdAmountRequested",
          "type": "uint256"
        },
        {
          "indexed": false,
          "internalType": "uint256",
          "name": "_dllrAmountReceived",
          "type": "uint256"
        }
      ],
      "name": "WithdrawFromSpAndConvertToDLLR",
      "type": "event"
    },
    {
      "anonymous": false,
      "inputs": [
        {
          "indexed": true,
          "internalType": "address",
          "name": "_depositor",
          "type": "address"
        },
        {
          "indexed": false,
          "internalType": "uint256",
          "name": "_ZERO",
          "type": "uint256"
        }
      ],
      "name": "ZEROPaidToDepositor",
      "type": "event"
    },
    {
      "anonymous": false,
      "inputs": [
        {
          "indexed": true,
          "internalType": "address",
          "name": "_frontEnd",
          "type": "address"
        },
        {
          "indexed": false,
          "internalType": "uint256",
          "name": "_ZERO",
          "type": "uint256"
        }
      ],
      "name": "ZEROPaidToFrontEnd",
      "type": "event"
    },
    {
      "anonymous": false,
      "inputs": [
        {
          "indexed": false,
          "internalType": "address",
          "name": "_newZUSDTokenAddress",
          "type": "address"
        }
      ],
      "name": "ZUSDTokenAddressChanged",
      "type": "event"
    },
    {
      "inputs": [],
      "name": "DECIMAL_PRECISION",
      "outputs": [
        {
          "internalType": "uint256",
          "name": "",
          "type": "uint256"
        }
      ],
      "stateMutability": "view",
      "type": "function"
    },
    {
      "inputs": [],
      "name": "MIN_NET_DEBT",
      "outputs": [
        {
          "internalType": "uint256",
          "name": "",
          "type": "uint256"
        }
      ],
      "stateMutability": "view",
      "type": "function"
    },
    {
      "inputs": [],
      "name": "NAME",
      "outputs": [
        {
          "internalType": "string",
          "name": "",
          "type": "string"
        }
      ],
      "stateMutability": "view",
      "type": "function"
    },
    {
      "inputs": [],
      "name": "P",
      "outputs": [
        {
          "internalType": "uint256",
          "name": "",
          "type": "uint256"
        }
      ],
      "stateMutability": "view",
      "type": "function"
    },
    {
      "inputs": [],
      "name": "SCALE_FACTOR",
      "outputs": [
        {
          "internalType": "uint256",
          "name": "",
          "type": "uint256"
        }
      ],
      "stateMutability": "view",
      "type": "function"
    },
    {
      "inputs": [],
      "name": "ZUSD_GAS_COMPENSATION",
      "outputs": [
        {
          "internalType": "uint256",
          "name": "",
          "type": "uint256"
        }
      ],
      "stateMutability": "view",
      "type": "function"
    },
    {
      "inputs": [],
      "name": "_100pct",
      "outputs": [
        {
          "internalType": "uint256",
          "name": "",
          "type": "uint256"
        }
      ],
      "stateMutability": "view",
      "type": "function"
    },
    {
      "inputs": [],
      "name": "activePool",
      "outputs": [
        {
          "internalType": "contract IActivePool",
          "name": "",
          "type": "address"
        }
      ],
      "stateMutability": "view",
      "type": "function"
    },
    {
      "inputs": [],
      "name": "borrowerOperations",
      "outputs": [
        {
          "internalType": "contract IBorrowerOperations",
          "name": "",
          "type": "address"
        }
      ],
      "stateMutability": "view",
      "type": "function"
    },
    {
      "inputs": [],
      "name": "communityIssuance",
      "outputs": [
        {
          "internalType": "contract ICommunityIssuance",
          "name": "",
          "type": "address"
        }
      ],
      "stateMutability": "view",
      "type": "function"
    },
    {
      "inputs": [],
      "name": "currentEpoch",
      "outputs": [
        {
          "internalType": "uint128",
          "name": "",
          "type": "uint128"
        }
      ],
      "stateMutability": "view",
      "type": "function"
    },
    {
      "inputs": [],
      "name": "currentScale",
      "outputs": [
        {
          "internalType": "uint128",
          "name": "",
          "type": "uint128"
        }
      ],
      "stateMutability": "view",
      "type": "function"
    },
    {
      "inputs": [],
      "name": "defaultPool",
      "outputs": [
        {
          "internalType": "contract IDefaultPool",
          "name": "",
          "type": "address"
        }
      ],
      "stateMutability": "view",
      "type": "function"
    },
    {
      "inputs": [
        {
          "internalType": "address",
          "name": "",
          "type": "address"
        }
      ],
      "name": "depositSnapshots",
      "outputs": [
        {
          "internalType": "uint256",
          "name": "S",
          "type": "uint256"
        },
        {
          "internalType": "uint256",
          "name": "P",
          "type": "uint256"
        },
        {
          "internalType": "uint256",
          "name": "G",
          "type": "uint256"
        },
        {
          "internalType": "uint128",
          "name": "scale",
          "type": "uint128"
        },
        {
          "internalType": "uint128",
          "name": "epoch",
          "type": "uint128"
        }
      ],
      "stateMutability": "view",
      "type": "function"
    },
    {
      "inputs": [
        {
          "internalType": "address",
          "name": "",
          "type": "address"
        }
      ],
      "name": "deposits",
      "outputs": [
        {
          "internalType": "uint256",
          "name": "initialValue",
          "type": "uint256"
        },
        {
          "internalType": "address",
          "name": "frontEndTag",
          "type": "address"
        }
      ],
      "stateMutability": "view",
      "type": "function"
    },
    {
      "inputs": [
        {
          "internalType": "uint128",
          "name": "",
          "type": "uint128"
        },
        {
          "internalType": "uint128",
          "name": "",
          "type": "uint128"
        }
      ],
      "name": "epochToScaleToG",
      "outputs": [
        {
          "internalType": "uint256",
          "name": "",
          "type": "uint256"
        }
      ],
      "stateMutability": "view",
      "type": "function"
    },
    {
      "inputs": [
        {
          "internalType": "uint128",
          "name": "",
          "type": "uint128"
        },
        {
          "internalType": "uint128",
          "name": "",
          "type": "uint128"
        }
      ],
      "name": "epochToScaleToSum",
      "outputs": [
        {
          "internalType": "uint256",
          "name": "",
          "type": "uint256"
        }
      ],
      "stateMutability": "view",
      "type": "function"
    },
    {
      "inputs": [
        {
          "internalType": "address",
          "name": "",
          "type": "address"
        }
      ],
      "name": "frontEndSnapshots",
      "outputs": [
        {
          "internalType": "uint256",
          "name": "S",
          "type": "uint256"
        },
        {
          "internalType": "uint256",
          "name": "P",
          "type": "uint256"
        },
        {
          "internalType": "uint256",
          "name": "G",
          "type": "uint256"
        },
        {
          "internalType": "uint128",
          "name": "scale",
          "type": "uint128"
        },
        {
          "internalType": "uint128",
          "name": "epoch",
          "type": "uint128"
        }
      ],
      "stateMutability": "view",
      "type": "function"
    },
    {
      "inputs": [
        {
          "internalType": "address",
          "name": "",
          "type": "address"
        }
      ],
      "name": "frontEndStakes",
      "outputs": [
        {
          "internalType": "uint256",
          "name": "",
          "type": "uint256"
        }
      ],
      "stateMutability": "view",
      "type": "function"
    },
    {
      "inputs": [
        {
          "internalType": "address",
          "name": "",
          "type": "address"
        }
      ],
      "name": "frontEnds",
      "outputs": [
        {
          "internalType": "uint256",
          "name": "kickbackRate",
          "type": "uint256"
        },
        {
          "internalType": "bool",
          "name": "registered",
          "type": "bool"
        }
      ],
      "stateMutability": "view",
      "type": "function"
    },
    {
      "inputs": [
        {
          "internalType": "address",
          "name": "_frontEnd",
          "type": "address"
        }
      ],
      "name": "getCompoundedFrontEndStake",
      "outputs": [
        {
          "internalType": "uint256",
          "name": "",
          "type": "uint256"
        }
      ],
      "stateMutability": "view",
      "type": "function"
    },
    {
      "inputs": [
        {
          "internalType": "address",
          "name": "_depositor",
          "type": "address"
        }
      ],
      "name": "getCompoundedZUSDDeposit",
      "outputs": [
        {
          "internalType": "uint256",
          "name": "",
          "type": "uint256"
        }
      ],
      "stateMutability": "view",
      "type": "function"
    },
    {
      "inputs": [
        {
          "internalType": "address",
          "name": "_depositor",
          "type": "address"
        }
      ],
      "name": "getDepositorETHGain",
      "outputs": [
        {
          "internalType": "uint256",
          "name": "",
          "type": "uint256"
        }
      ],
      "stateMutability": "view",
      "type": "function"
    },
    {
      "inputs": [
        {
          "internalType": "address",
          "name": "_depositor",
          "type": "address"
        }
      ],
      "name": "getDepositorZEROGain",
      "outputs": [
        {
          "internalType": "uint256",
          "name": "",
          "type": "uint256"
        }
      ],
      "stateMutability": "view",
      "type": "function"
    },
    {
      "inputs": [],
      "name": "getETH",
      "outputs": [
        {
          "internalType": "uint256",
          "name": "",
          "type": "uint256"
        }
      ],
      "stateMutability": "view",
      "type": "function"
    },
    {
      "inputs": [],
      "name": "getEntireSystemColl",
      "outputs": [
        {
          "internalType": "uint256",
          "name": "entireSystemColl",
          "type": "uint256"
        }
      ],
      "stateMutability": "view",
      "type": "function"
    },
    {
      "inputs": [],
      "name": "getEntireSystemDebt",
      "outputs": [
        {
          "internalType": "uint256",
          "name": "entireSystemDebt",
          "type": "uint256"
        }
      ],
      "stateMutability": "view",
      "type": "function"
    },
    {
      "inputs": [
        {
          "internalType": "address",
          "name": "_frontEnd",
          "type": "address"
        }
      ],
      "name": "getFrontEndZEROGain",
      "outputs": [
        {
          "internalType": "uint256",
          "name": "",
          "type": "uint256"
        }
      ],
      "stateMutability": "view",
      "type": "function"
    },
    {
      "inputs": [],
      "name": "getOwner",
      "outputs": [
        {
          "internalType": "address",
          "name": "_owner",
          "type": "address"
        }
      ],
      "stateMutability": "view",
      "type": "function"
    },
    {
      "inputs": [],
      "name": "getTotalZUSDDeposits",
      "outputs": [
        {
          "internalType": "uint256",
          "name": "",
          "type": "uint256"
        }
      ],
      "stateMutability": "view",
      "type": "function"
    },
    {
      "inputs": [],
      "name": "lastETHError_Offset",
      "outputs": [
        {
          "internalType": "uint256",
          "name": "",
          "type": "uint256"
        }
      ],
      "stateMutability": "view",
      "type": "function"
    },
    {
      "inputs": [],
      "name": "lastZEROError",
      "outputs": [
        {
          "internalType": "uint256",
          "name": "",
          "type": "uint256"
        }
      ],
      "stateMutability": "view",
      "type": "function"
    },
    {
      "inputs": [],
      "name": "lastZUSDLossError_Offset",
      "outputs": [
        {
          "internalType": "uint256",
          "name": "",
          "type": "uint256"
        }
      ],
      "stateMutability": "view",
      "type": "function"
    },
    {
      "inputs": [],
      "name": "liquityBaseParams",
      "outputs": [
        {
          "internalType": "contract ILiquityBaseParams",
          "name": "",
          "type": "address"
        }
      ],
      "stateMutability": "view",
      "type": "function"
    },
    {
      "inputs": [
        {
          "internalType": "uint256",
          "name": "_debtToOffset",
          "type": "uint256"
        },
        {
          "internalType": "uint256",
          "name": "_collToAdd",
          "type": "uint256"
        }
      ],
      "name": "offset",
      "outputs": [],
      "stateMutability": "nonpayable",
      "type": "function"
    },
    {
      "inputs": [],
      "name": "priceFeed",
      "outputs": [
        {
          "internalType": "contract IPriceFeed",
          "name": "",
          "type": "address"
        }
      ],
      "stateMutability": "view",
      "type": "function"
    },
    {
      "inputs": [
        {
          "internalType": "uint256",
          "name": "_amount",
          "type": "uint256"
        },
        {
          "internalType": "address",
          "name": "_frontEndTag",
          "type": "address"
        }
      ],
      "name": "provideToSP",
      "outputs": [],
      "stateMutability": "nonpayable",
      "type": "function"
    },
    {
      "inputs": [
        {
          "internalType": "uint256",
          "name": "_dllrAmount",
          "type": "uint256"
        },
        {
          "components": [
            {
              "internalType": "uint256",
              "name": "deadline",
              "type": "uint256"
            },
            {
              "internalType": "uint8",
              "name": "v",
              "type": "uint8"
            },
            {
              "internalType": "bytes32",
              "name": "r",
              "type": "bytes32"
            },
            {
              "internalType": "bytes32",
              "name": "s",
              "type": "bytes32"
            }
          ],
          "internalType": "struct IMassetManager.PermitParams",
          "name": "_permitParams",
          "type": "tuple"
        }
      ],
      "name": "provideToSpFromDLLR",
      "outputs": [],
      "stateMutability": "nonpayable",
      "type": "function"
    },
    {
      "inputs": [
        {
          "internalType": "uint256",
          "name": "_kickbackRate",
          "type": "uint256"
        }
      ],
      "name": "registerFrontEnd",
      "outputs": [],
      "stateMutability": "nonpayable",
      "type": "function"
    },
    {
      "inputs": [
        {
          "internalType": "address",
          "name": "_liquityBaseParamsAddress",
          "type": "address"
        },
        {
          "internalType": "address",
          "name": "_borrowerOperationsAddress",
          "type": "address"
        },
        {
          "internalType": "address",
          "name": "_troveManagerAddress",
          "type": "address"
        },
        {
          "internalType": "address",
          "name": "_activePoolAddress",
          "type": "address"
        },
        {
          "internalType": "address",
          "name": "_zusdTokenAddress",
          "type": "address"
        },
        {
          "internalType": "address",
          "name": "_sortedTrovesAddress",
          "type": "address"
        },
        {
          "internalType": "address",
          "name": "_priceFeedAddress",
          "type": "address"
        },
        {
          "internalType": "address",
          "name": "_communityIssuanceAddress",
          "type": "address"
        }
      ],
      "name": "setAddresses",
      "outputs": [],
      "stateMutability": "nonpayable",
      "type": "function"
    },
    {
      "inputs": [
        {
          "internalType": "address",
          "name": "_owner",
          "type": "address"
        }
      ],
      "name": "setOwner",
      "outputs": [],
      "stateMutability": "nonpayable",
      "type": "function"
    },
    {
      "inputs": [],
      "name": "sortedTroves",
      "outputs": [
        {
          "internalType": "contract ISortedTroves",
          "name": "",
          "type": "address"
        }
      ],
      "stateMutability": "view",
      "type": "function"
    },
    {
      "inputs": [],
      "name": "troveManager",
      "outputs": [
        {
          "internalType": "contract ITroveManager",
          "name": "",
          "type": "address"
        }
      ],
      "stateMutability": "view",
      "type": "function"
    },
    {
      "inputs": [],
      "name": "unprotectedPayable",
      "outputs": [],
      "stateMutability": "payable",
      "type": "function"
    },
    {
      "inputs": [
        {
          "internalType": "address",
          "name": "_upperHint",
          "type": "address"
        },
        {
          "internalType": "address",
          "name": "_lowerHint",
          "type": "address"
        }
      ],
      "name": "withdrawETHGainToTrove",
      "outputs": [],
      "stateMutability": "nonpayable",
      "type": "function"
    },
    {
      "inputs": [
        {
          "internalType": "uint256",
          "name": "_amount",
          "type": "uint256"
        }
      ],
      "name": "withdrawFromSP",
      "outputs": [],
      "stateMutability": "nonpayable",
      "type": "function"
    },
    {
      "inputs": [
        {
          "internalType": "uint256",
          "name": "_zusdAmountRequested",
          "type": "uint256"
        }
      ],
      "name": "withdrawFromSpAndConvertToDLLR",
      "outputs": [],
      "stateMutability": "nonpayable",
      "type": "function"
    },
    {
      "inputs": [],
      "name": "zusdToken",
      "outputs": [
        {
          "internalType": "contract IZUSDToken",
          "name": "",
          "type": "address"
        }
      ],
      "stateMutability": "view",
      "type": "function"
    },
    {
      "stateMutability": "payable",
      "type": "receive"
    }
  ],
  "bytecode": "0x60806040523480156200001157600080fd5b5062000026336001600160e01b036200002c16565b62000150565b6001600160a01b0381166200005e5760405162461bcd60e51b815260040162000055906200010e565b60405180910390fd5b6001600160a01b0381166200007b6001600160e01b03620000d016565b6001600160a01b03167f8be0079c531659141344cd1fd0a4f28419497f9722a3daafe3b4186f6b6457e060405160405180910390a36000604051620000c090620000f1565b6040519081900390209190915550565b600080604051620000e190620000f1565b6040519081900390205492915050565b7035b2bc9737bbb730b136329737bbb732b960791b815260110190565b60208082526022908201527f4f776e61626c653a3a7365744f776e65723a20696e76616c6964206164647265604082015261737360f01b606082015260800190565b61439e80620001606000396000f3fe6080604052600436106102975760003560e01c806386da08241161015a578063b71d3bf3116100c1578063d7fb04431161007a578063d7fb044314610768578063df9cd84f1461077d578063ec9f7d461461079d578063f3af7c3b146107b2578063fc7e286d146107ba578063fda0101a146107e8576102e2565b8063b71d3bf3146106c9578063bdaf37ea146106de578063c0a90828146106f3578063c3a34a0e14610713578063ce4b5bbe14610733578063d733cfd014610748576102e2565b8063a20baee611610113578063a20baee6146104d1578063a3f4df7e1461063a578063a4e59ac81461065c578063a7bfff9714610671578063ae9187541461069f578063b31ee965146106b4576102e2565b806386da0824146105b1578063887105d3146105d1578063893d20e8146105e65780638b8fbd92146105fb57806395fb16bb146106105780639f07067014610625576102e2565b8063556be101116101fe57806376671808116101b7578063766718081461051057806377553ad414610532578063795d26c3146105475780637f7dde4a1461055c57806382e0a574146105715780638692a8a214610591576102e2565b8063556be101146104715780635d2de642146104915780635f788d65146104b157806372fe25aa146104d1578063741bef1a146104e6578063759b3034146104fb576102e2565b80632e54bf95116102505780632e54bf95146103ba578063335525ad146103da578063389e92a5146103fa5780633cc742251461041a5780633d83908a1461043c57806340ed1afd14610451576102e2565b80630fbfe38b146102e757806313af40351461030957806314f6c3be1461032957806316b9d3c5146103545780631bf435551461038557806328a0a04d1461039a576102e2565b366102e2576102a4610808565b6009546102b7903463ffffffff61083d16565b60098190556040516000805160206142e9833981519152916102d891614255565b60405180910390a1005b600080fd5b3480156102f357600080fd5b506103076103023660046138d6565b61086b565b005b34801561031557600080fd5b5061030761032436600461376a565b610a6b565b34801561033557600080fd5b5061033e610aaf565b60405161034b9190614255565b60405180910390f35b34801561036057600080fd5b5061037461036f36600461376a565b610ab5565b60405161034b9594939291906142a4565b34801561039157600080fd5b5061033e610af0565b3480156103a657600080fd5b5061033e6103b53660046138a2565b610afd565b3480156103c657600080fd5b506103076103d53660046138d6565b610b1a565b3480156103e657600080fd5b506103076103f5366004613960565b610b28565b34801561040657600080fd5b5061033e61041536600461376a565b610b8b565b34801561042657600080fd5b5061042f610c33565b60405161034b91906139c2565b34801561044857600080fd5b5061042f610c42565b34801561045d57600080fd5b5061033e61046c36600461376a565b610c51565b34801561047d57600080fd5b5061030761048c3660046138d6565b610cee565b34801561049d57600080fd5b5061033e6104ac36600461376a565b610d66565b3480156104bd57600080fd5b506103076104cc366004613906565b610d78565b3480156104dd57600080fd5b5061033e610d82565b3480156104f257600080fd5b5061042f610d8e565b34801561050757600080fd5b5061033e610d9d565b34801561051c57600080fd5b50610525610daa565b60405161034b9190614241565b34801561053e57600080fd5b5061042f610dc0565b34801561055357600080fd5b5061033e610dcf565b34801561056857600080fd5b5061042f610eee565b34801561057d57600080fd5b5061033e61058c3660046138a2565b610efd565b34801561059d57600080fd5b5061033e6105ac36600461376a565b610f1a565b3480156105bd57600080fd5b506103746105cc36600461376a565b61101e565b3480156105dd57600080fd5b5061033e611059565b3480156105f257600080fd5b5061042f611128565b34801561060757600080fd5b5061033e611147565b34801561061c57600080fd5b5061042f61114d565b34801561063157600080fd5b5061042f61115c565b34801561064657600080fd5b5061064f61116b565b60405161034b9190613adf565b34801561066857600080fd5b50610525611194565b34801561067d57600080fd5b5061069161068c36600461376a565b6111a3565b60405161034b929190614275565b3480156106ab57600080fd5b5061042f6111bf565b3480156106c057600080fd5b5061033e6111ce565b3480156106d557600080fd5b5061033e6111d4565b3480156106ea57600080fd5b5061033e6111da565b3480156106ff57600080fd5b5061033e61070e36600461376a565b6111e0565b34801561071f57600080fd5b5061030761072e36600461392a565b6112dd565b34801561073f57600080fd5b5061033e611381565b34801561075457600080fd5b506103076107633660046137da565b611389565b34801561077457600080fd5b5061033e61161b565b34801561078957600080fd5b5061033e61079836600461376a565b611621565b3480156107a957600080fd5b5061042f6116be565b6103076116cd565b3480156107c657600080fd5b506107da6107d536600461376a565b6116e5565b60405161034b92919061425e565b3480156107f457600080fd5b506103076108033660046137a2565b611707565b6000546001600160a01b0316331461083b5760405162461bcd60e51b815260040161083290613cd7565b60405180910390fd5b565b6000828201838110156108625760405162461bcd60e51b815260040161083290613be7565b90505b92915050565b6000600460009054906101000a90046001600160a01b03166001600160a01b031663e9fc34616040518163ffffffff1660e01b815260040160206040518083038186803b1580156108bb57600080fd5b505afa1580156108cf573d6000803e3d6000fd5b505050506040513d601f19601f820116820180604052508101906108f39190613786565b90506000610901833061194d565b60065460405163095ea7b360e01b81529192506001600160a01b03169063095ea7b3906109349085908590600401613a5e565b602060405180830381600087803b15801561094e57600080fd5b505af1158015610962573d6000803e3d6000fd5b505050506040513d601f19601f820116820180604052508101906109869190613882565b6109a25760405162461bcd60e51b81526004016108329061406e565b60065460405163438b1b4b60e01b81526001600160a01b038481169263438b1b4b926109d8929091169085903390600401613a98565b602060405180830381600087803b1580156109f257600080fd5b505af1158015610a06573d6000803e3d6000fd5b505050506040513d601f19601f82011682018060405250810190610a2a91906138ee565b507f2b0fbec1c4e7e30517f196a714775ffe72770d2348f5d586854bb3c0fdf41df8338483604051610a5e93929190613a77565b60405180910390a1505050565b610a73611128565b6001600160a01b0316336001600160a01b031614610aa35760405162461bcd60e51b815260040161083290613f9c565b610aac81611b18565b50565b60095490565b600f602052600090815260409020805460018201546002830154600390930154919290916001600160801b0380821691600160801b90041685565b6809c2007651b250000081565b601260209081526000928352604080842090915290825290205481565b610b24813361194d565b5050565b610b30611ba3565b600a54801580610b3e575082155b15610b495750610b24565b600854610b5e906001600160a01b0316611bcd565b600080610b6c848685611c4d565b91509150610b7a8282611d46565b610b848486612047565b5050505050565b6001600160a01b0381166000908152600b602052604081205480610bb3576000915050610c2e565b610bbb613712565b506001600160a01b0383166000908152600c60209081526040808320815160a08101835281548152600182015493810193909352600281015491830191909152600301546001600160801b038082166060840152600160801b90910416608082015290610c28838361217d565b93505050505b919050565b6001546001600160a01b031681565b6005546001600160a01b031681565b6001600160a01b0381166000908152600b602052604081205480610c79576000915050610c2e565b610c81613712565b506001600160a01b0383166000908152600c60209081526040808320815160a08101835281548152600182015493810193909352600281015491830191909152600301546001600160801b038082166060840152600160801b90910416608082015290610c28838361226e565b610cf73361236a565b610d00336123a6565b610d09816123dd565b336000818152600d6020526040908190208381556001908101805460ff19169091179055517f19bc932fb9e16a8b5a1e41be9f4c2de59d5ddd7567b8b81405f532ca00a9880e90610d5b908490614255565b60405180910390a250565b600e6020526000908152604090205481565b610b248282612405565b670de0b6b3a764000081565b6002546001600160a01b031681565b6801158e460913d0000081565b601154600160801b90046001600160801b031681565b6004546001600160a01b031681565b60008054604080516272c7d360e71b8152905183926001600160a01b031691633963e980916004808301926020929190829003018186803b158015610e1357600080fd5b505afa158015610e27573d6000803e3d6000fd5b505050506040513d601f19601f82011682018060405250810190610e4b91906138ee565b90506000600160009054906101000a90046001600160a01b03166001600160a01b0316633963e9806040518163ffffffff1660e01b815260040160206040518083038186803b158015610e9d57600080fd5b505afa158015610eb1573d6000803e3d6000fd5b505050506040513d601f19601f82011682018060405250810190610ed591906138ee565b9050610ee7828263ffffffff61083d16565b9250505090565b6000546001600160a01b031681565b601360209081526000928352604080842090915290825290205481565b6001600160a01b0381166000908152600e602052604081205480610f42576000915050610c2e565b6001600160a01b0383166000908152600d602052604081205490610f74670de0b6b3a76400008363ffffffff6125a816565b9050610f7e613712565b506001600160a01b0385166000908152600f60209081526040808320815160a08101835281548152600182015493810193909352600281015491830191909152600301546001600160801b038082166060840152600160801b90910416608082015290611013670de0b6b3a7640000611007610ffa88866125ea565b869063ffffffff61267616565b9063ffffffff6126b016565b979650505050505050565b600c602052600090815260409020805460018201546002830154600390930154919290916001600160801b0380821691600160801b90041685565b6000805460408051630a7b61df60e11b8152905183926001600160a01b0316916314f6c3be916004808301926020929190829003018186803b15801561109e57600080fd5b505afa1580156110b2573d6000803e3d6000fd5b505050506040513d601f19601f820116820180604052508101906110d691906138ee565b90506000600160009054906101000a90046001600160a01b03166001600160a01b03166314f6c3be6040518163ffffffff1660e01b815260040160206040518083038186803b158015610e9d57600080fd5b600080604051611137906139a5565b6040519081900390205492915050565b60105481565b6008546001600160a01b031681565b6003546001600160a01b031681565b6040518060400160405280600d81526020016c14dd18589a5b1a5d1e541bdbdb609a1b81525081565b6011546001600160801b031681565b600d602052600090815260409020805460019091015460ff1682565b6007546001600160a01b031681565b60165481565b60145481565b600a5490565b6001600160a01b0381166000908152600b602052604081205480611208576000915050610c2e565b6001600160a01b038084166000908152600b602052604081206001015490911690811561124d576001600160a01b0382166000908152600d6020526040902054611257565b670de0b6b3a76400005b9050611261613712565b506001600160a01b0385166000908152600c60209081526040808320815160a08101835281548152600182015493810193909352600281015491830191909152600301546001600160801b038082166060840152600160801b90910416608082015290611013670de0b6b3a7640000611007610ffa88866125ea565b600480546040805163e9fc346160e01b8152905160009361136f936001600160a01b03169263e9fc34619281830192602092829003018186803b15801561132357600080fd5b505afa158015611337573d6000803e3d6000fd5b505050506040513d601f19601f8201168201806040525081019061135b9190613786565b60065485906001600160a01b0316856126f2565b905061137c816000612405565b505050565b633b9aca0081565b611391611128565b6001600160a01b0316336001600160a01b0316146113c15760405162461bcd60e51b815260040161083290613f9c565b6113ca88612997565b6113d387612997565b6113dc86612997565b6113e585612997565b6113ee84612997565b6113f783612997565b61140082612997565b61140981612997565b670de0b6b3a7640000601055600380546001600160a01b03199081166001600160a01b038b8116919091179092556004805482168a8416179055600580548216898416179055600080548216888416179055600680548216878416179055600780548216868416179055600280548216858416179055600880549091169183169190911790556040517f3ca631ffcd2a9b5d9ae18543fc82f58eb4ca33af9e6ab01b7a8e95331e6ed985906114bf9089906139c2565b60405180910390a17f143219c9e69b09e07e095fcc889b43d8f46ca892bba65f08dc3a0050869a5678866040516114f691906139c2565b60405180910390a17f78f058b189175430c48dc02699e3a0031ea4ff781536dc2fab847de4babdd8828560405161152d91906139c2565b60405180910390a17fcdf33850c44a1a874b5fefb51dae615ac6afebd581ef90d571f81b06541d8e9d8460405161156491906139c2565b60405180910390a17f65f4cf077bc01e4742eb5ad98326f6e95b63548ea24b17f8d5e823111fe788008360405161159b91906139c2565b60405180910390a17f8c537274438aa850a330284665d81a85dd38267d09e4050d416bfc94142db264826040516115d291906139c2565b60405180910390a17f3055265812fb8447b9ada4a5d804ec43bd528ec40e89c952bbc7b85dc5ac68118160405161160991906139c2565b60405180910390a15050505050505050565b60155481565b6001600160a01b0381166000908152600e602052604081205480611649576000915050610c2e565b611651613712565b506001600160a01b0383166000908152600f60209081526040808320815160a08101835281548152600182015493810193909352600281015491830191909152600301546001600160801b038082166060840152600160801b90910416608082015290610c28838361226e565b6006546001600160a01b031681565b6009546116e0903463ffffffff61083d16565b600955565b600b60205260009081526040902080546001909101546001600160a01b031682565b336000908152600b6020526040902054611720816129dc565b611729336129fc565b61173233612a9b565b6008546001600160a01b031661174781611bcd565b600061175233610b8b565b9050600061175f33610c51565b90506000611773858363ffffffff6125a816565b336000818152600b60205260409020600101549192506001600160a01b03909116906117a190869083612ac8565b60006117ac82611621565b9050806117b98382612c3d565b826001600160a01b031660008051602061434983398151915282336040516117e292919061425e565b60405180910390a26117f43386612d85565b336001600160a01b0316600080516020614329833981519152878660405161181d929190613abb565b60405180910390a2336001600160a01b03166000805160206143098339815191528660405161184c9190614255565b60405180910390a2600954611867908763ffffffff6125a816565b60098190556040516000805160206142e98339815191529161188891614255565b60405180910390a17f6109e2559dfa766aaec7118351d48a523f0a4157f49c8d68749c8ac41318ad1233876040516118c1929190613a5e565b60405180910390a1600460009054906101000a90046001600160a01b03166001600160a01b031663ea9638bf87338d8d6040518563ffffffff1660e01b815260040161190f939291906139d6565b6000604051808303818588803b15801561192857600080fd5b505af115801561193c573d6000803e3d6000fd5b505050505050505050505050505050565b60006001600160a01b0382166119755760405162461bcd60e51b815260040161083290613eb3565b821561198357611983612efa565b336000908152600b602052604090205461199c816129dc565b6008546001600160a01b03166119b181611bcd565b60006119bc33610b8b565b905060006119c933610c51565b905060006119d78883613131565b905060006119eb868463ffffffff6125a816565b336000818152600b60205260409020600101549192506001600160a01b0390911690611a1990879083612ac8565b6000611a2482611621565b90506000611a38828663ffffffff6125a816565b9050611a448382612c3d565b826001600160a01b03166000805160206143498339815191528233604051611a6d92919061425e565b60405180910390a2611a7f8b86613147565b6000611a91878763ffffffff6125a816565b9050611a9d3382612d85565b336001600160a01b031660008051602061430983398151915282604051611ac49190614255565b60405180910390a2336001600160a01b03166000805160206143298339815191528987604051611af5929190613abb565b60405180910390a2611b0788336131c0565b50939b9a5050505050505050505050565b6001600160a01b038116611b3e5760405162461bcd60e51b815260040161083290613d1e565b806001600160a01b0316611b50611128565b6001600160a01b03167f8be0079c531659141344cd1fd0a4f28419497f9722a3daafe3b4186f6b6457e060405160405180910390a36000604051611b93906139a5565b6040519081900390209190915550565b6005546001600160a01b0316331461083b5760405162461bcd60e51b815260040161083290613de8565b6000816001600160a01b031663e59be5866040518163ffffffff1660e01b8152600401602060405180830381600087803b158015611c0a57600080fd5b505af1158015611c1e573d6000803e3d6000fd5b505050506040513d601f19601f82011682018060405250810190611c4291906138ee565b9050610b24816132ef565b6000806000611c7f601554611c73670de0b6b3a76400008961267690919063ffffffff16565b9063ffffffff61083d16565b905083851115611c8b57fe5b83851415611ca8576000601655670de0b6b3a76400009150611d08565b601654600090611cd690611cca88670de0b6b3a764000063ffffffff61267616565b9063ffffffff6125a816565b9050611ced6001611c73838863ffffffff6126b016565b9250611d0381611cca858863ffffffff61267616565b601655505b611d18818563ffffffff6126b016565b9250611d3a611d2d848663ffffffff61267616565b829063ffffffff6125a816565b60155550935093915050565b6010546000670de0b6b3a7640000831115611d5d57fe5b6000611d77670de0b6b3a76400008563ffffffff6125a816565b6011546001600160801b03600160801b820481166000818152601260209081526040808320949095168083529390529283205493945090929091611dbb8988612676565b90506000611dcf838363ffffffff61083d16565b6001600160801b038086166000908152601260209081526040808320938a168352929052819020829055519091507fe12e2cd2c9afa8069203ca07e7eff1edce4a075686d0736a8e7e0d593597b20790611e2e90839087908990614285565b60405180910390a185611f0757611e556001600160801b038516600163ffffffff61340016565b601180546001600160801b03908116600160801b938216840217918290556040517fb50f0f59e7cb5b421dc77581c3a9919e3806e076e5fa78a874c3f120cb7d874d93611ea6930490911690614241565b60405180910390a1601180546001600160801b03191690556040517f1f9dfc70cd666adb18a39d60a797518f7b4febf4b6e24ef37d44f6e1e7219fbe90611eef90600090614241565b60405180910390a1670de0b6b3a76400009650611ff4565b633b9aca00611f28670de0b6b3a76400006110078b8a63ffffffff61267616565b1015611fd557611f5e670de0b6b3a7640000611007633b9aca00611f528c8b63ffffffff61267616565b9063ffffffff61267616565b9650611f7a6001600160801b038616600163ffffffff61340016565b601180546001600160801b0319166001600160801b0392831617908190556040517f1f9dfc70cd666adb18a39d60a797518f7b4febf4b6e24ef37d44f6e1e7219fbe92611fc8921690614241565b60405180910390a1611ff4565b611ff1670de0b6b3a76400006110078a8963ffffffff61267616565b96505b60008711611ffe57fe5b60108790556040517fc1a9618cb59ebca77cbdbc2949f126823c407ff13edb285fd0262519a9c18e8c90612033908990614255565b60405180910390a150505050505050505050565b60005460405163121cbc4d60e11b81526001600160a01b03909116908190632439789a90612079908590600401614255565b600060405180830381600087803b15801561209357600080fd5b505af11580156120a7573d6000803e3d6000fd5b505050506120b482613431565b600654604051632770a7eb60e21b81526001600160a01b0390911690639dc29fac906120e69030908690600401613a5e565b600060405180830381600087803b15801561210057600080fd5b505af1158015612114573d6000803e3d6000fd5b50506040516364a197f360e01b81526001600160a01b03841692506364a197f391506121469030908790600401613a5e565b600060405180830381600087803b15801561216057600080fd5b505af1158015612174573d6000803e3d6000fd5b50505050505050565b6080810151606082015182516020808501516001600160801b038086166000908152601284526040808220928716825291909352822054919493929185906121cb908463ffffffff6125a816565b6001600160801b0380871660009081526012602052604081209293509161222e91633b9aca0091908490612208908a16600163ffffffff61340016565b6001600160801b031681526020810191909152604001600020549063ffffffff6126b016565b90506000612260670de0b6b3a76400006110078681612253888863ffffffff61083d16565b8f9063ffffffff61267616565b9a9950505050505050505050565b6020810151606082015160808301516011546000939291906001600160801b03600160801b909104811690821610156122ad5760009350505050610865565b60115460009081906122ce906001600160801b03168563ffffffff61348b16565b90506001600160801b0381166122fe576122f7856110076010548b61267690919063ffffffff16565b9150612336565b806001600160801b031660011415612331576122f7633b9aca00611007876110076010548d61267690919063ffffffff16565b600091505b61234a88633b9aca0063ffffffff6126b016565b82101561235f57600095505050505050610865565b509695505050505050565b6001600160a01b0381166000908152600d602052604090206001015460ff1615610aac5760405162461bcd60e51b815260040161083290613fcd565b6001600160a01b0381166000908152600b60205260409020548015610b245760405162461bcd60e51b815260040161083290614026565b670de0b6b3a7640000811115610aac5760405162461bcd60e51b815260040161083290613f03565b61240e816134c5565b6124173361236a565b61242082613512565b336000908152600b60205260409020546008546001600160a01b031661244581611bcd565b81612454576124543384613532565b600061245f33610b8b565b9050600061246c33610c51565b90506000612480858363ffffffff6125a816565b336000818152600b60205260409020600101549192506001600160a01b03909116906124ae90869083612ac8565b60006124b982611621565b905060006124cd828b63ffffffff61083d16565b90506124d98382612c3d565b826001600160a01b0316600080516020614349833981519152823360405161250292919061425e565b60405180910390a2612514338b61358c565b6000612526868c63ffffffff61083d16565b90506125323382612d85565b336001600160a01b0316600080516020614309833981519152826040516125599190614255565b60405180910390a2336001600160a01b0316600080516020614329833981519152888760405161258a929190613abb565b60405180910390a261259b87613640565b5050505050505050505050565b600061086283836040518060400160405280601e81526020017f536166654d6174683a207375627472616374696f6e206f766572666c6f77000081525061364a565b608081015160608201516040808401516020808601516001600160801b03808716600090815260138452858120918716815292529281205490949392908590612639908463ffffffff6125a816565b6001600160801b0380871660009081526013602052604081209293509161222e91633b9aca0091908490612208908a16600163ffffffff61340016565b60008261268557506000610865565b8282028284828161269257fe5b04146108625760405162461bcd60e51b815260040161083290613e72565b600061086283836040518060400160405280601a81526020017f536166654d6174683a206469766973696f6e206279207a65726f000000000000815250613676565b600080856001600160a01b03166321df0da76040518163ffffffff1660e01b815260040160206040518083038186803b15801561272e57600080fd5b505afa158015612742573d6000803e3d6000fd5b505050506040513d601f19601f820116820180604052508101906127669190613786565b90506000816001600160a01b03166370a08231306040518263ffffffff1660e01b815260040161279691906139c2565b60206040518083038186803b1580156127ae57600080fd5b505afa1580156127c2573d6000803e3d6000fd5b505050506040513d601f19601f820116820180604052508101906127e691906138ee565b9050306001600160a01b03831663605629d633838a893561280d60408c0160208d01613981565b8b604001358c606001356040518863ffffffff1660e01b81526004016128399796959493929190613a1d565b600060405180830381600087803b15801561285357600080fd5b505af1158015612867573d6000803e3d6000fd5b50505050866128ec83856001600160a01b03166370a08231856040518263ffffffff1660e01b815260040161289c91906139c2565b60206040518083038186803b1580156128b457600080fd5b505afa1580156128c8573d6000803e3d6000fd5b505050506040513d601f19601f82011682018060405250810190611cca91906138ee565b146129095760405162461bcd60e51b815260040161083290613b9e565b60405163fb2c922360e01b81526001600160a01b0389169063fb2c9223906129399089908b903390600401613a98565b602060405180830381600087803b15801561295357600080fd5b505af1158015612967573d6000803e3d6000fd5b505050506040513d601f19601f8201168201806040525081019061298b91906138ee565b98975050505050505050565b6001600160a01b0381166129bd5760405162461bcd60e51b815260040161083290613d60565b803b80610b245760405162461bcd60e51b8152600401610832906140c5565b60008111610aac5760405162461bcd60e51b8152600401610832906140fa565b6005546040516321e3780160e01b81526001600160a01b03909116906321e3780190612a2c9084906004016139c2565b60206040518083038186803b158015612a4457600080fd5b505afa158015612a58573d6000803e3d6000fd5b505050506040513d601f19601f82011682018060405250810190612a7c91906138ee565b600114610aac5760405162461bcd60e51b815260040161083290613b32565b6000612aa682610b8b565b905060008111610b245760405162461bcd60e51b815260040161083290613d97565b6001600160a01b03811615612b88576000612ae282610f1a565b6040516306e6c58360e31b81529091506001600160a01b038516906337362c1890612b139085908590600401613a5e565b600060405180830381600087803b158015612b2d57600080fd5b505af1158015612b41573d6000803e3d6000fd5b50505050816001600160a01b03167fea80c5084fc812c1d3ccd3e420d32e85001442759aa2261773ffa052cbd660b682604051612b7e9190614255565b60405180910390a2505b6000612b93836111e0565b6040516306e6c58360e31b81529091506001600160a01b038516906337362c1890612bc49086908590600401613a5e565b600060405180830381600087803b158015612bde57600080fd5b505af1158015612bf2573d6000803e3d6000fd5b50505050826001600160a01b03167fc250d4f5c804eafb4ed97612e247bbc934de6fede0e59e4d263e190fb335193f82604051612c2f9190614255565b60405180910390a250505050565b6001600160a01b0382166000908152600e6020526040902081905580612cc8576001600160a01b0382166000818152600f60205260408082208281556001810183905560028101839055600301829055517fbb1322f85cc7cc8bac4e172a5bc5dcc0c1959007f9a030032abf9258205f0e4591612cbb918190613abb565b60405180910390a2610b24565b6011546010546001600160801b03600160801b80840482166000818152601360209081526040808320978616808452978252808320546001600160a01b038b16808552600f90935292819020600181018890556002810184905560030180546001600160801b0319168917909616948402949094179094559151909392907fbb1322f85cc7cc8bac4e172a5bc5dcc0c1959007f9a030032abf9258205f0e4590612d759085908590613abb565b60405180910390a2505050505050565b6001600160a01b0382166000908152600b6020526040902081905580612e23576001600160a01b0382166000818152600b60209081526040808320600190810180546001600160a01b0319169055600c909252808320838155918201839055600282018390556003909101829055517f2d6cc0bcdf72c9486f6451bde6b80f44066f4558f77f44dbfedbe7d8b295225a91612cbb9181908190613ac9565b6011546010546001600160801b03600160801b8084048216600081815260126020908152604080832097861680845297825280832054848452601383528184208985528352818420546001600160a01b038c16808652600c90945293829020600181018990558181556002810185905560030180546001600160801b0319168a1790971695850295909517909555935191949390917f2d6cc0bcdf72c9486f6451bde6b80f44066f4558f77f44dbfedbe7d8b295225a90612ee990869086908690613ac9565b60405180910390a250505050505050565b60025460408051630fdb11cf60e01b815290516000926001600160a01b031691630fdb11cf91600480830192602092919082900301818787803b158015612f4057600080fd5b505af1158015612f54573d6000803e3d6000fd5b505050506040513d601f19601f82011682018060405250810190612f7891906138ee565b90506000600760009054906101000a90046001600160a01b03166001600160a01b0316634d6228316040518163ffffffff1660e01b815260040160206040518083038186803b158015612fca57600080fd5b505afa158015612fde573d6000803e3d6000fd5b505050506040513d601f19601f820116820180604052508101906130029190613786565b600554604051630d293c7160e41b81529192506000916001600160a01b039091169063d293c7109061303a9085908790600401613a5e565b60206040518083038186803b15801561305257600080fd5b505afa158015613066573d6000803e3d6000fd5b505050506040513d601f19601f8201168201806040525081019061308a91906138ee565b9050600360009054906101000a90046001600160a01b03166001600160a01b031663794e57246040518163ffffffff1660e01b815260040160206040518083038186803b1580156130da57600080fd5b505afa1580156130ee573d6000803e3d6000fd5b505050506040513d601f19601f8201168201806040525081019061311291906138ee565b81101561137c5760405162461bcd60e51b8152600401610832906141d7565b60008183106131405781610862565b5090919050565b8061315157610b24565b600654604051631062c15f60e11b81526001600160a01b03909116906320c582be90613185903090869086906004016139f9565b600060405180830381600087803b15801561319f57600080fd5b505af11580156131b3573d6000803e3d6000fd5b50505050610b2481613431565b6001600160a01b0381166131e65760405162461bcd60e51b815260040161083290613c1e565b816131f057610b24565b600954600090613206908463ffffffff6125a816565b9050806009819055506000805160206142e98339815191528160405161322c9190614255565b60405180910390a17f6109e2559dfa766aaec7118351d48a523f0a4157f49c8d68749c8ac41318ad123384604051613265929190613a5e565b60405180910390a16000336001600160a01b031684604051613286906139a2565b60006040518083038185875af1925050503d80600081146132c3576040519150601f19603f3d011682016040523d82523d6000602084013e6132c8565b606091505b50509050806132e95760405162461bcd60e51b815260040161083290613e31565b50505050565b600a548015806132fd575081155b156133085750610aac565b600061331483836136ad565b9050600061332d6010548361267690919063ffffffff16565b6011546001600160801b03600160801b820481166000908152601360209081526040808320939094168252919091522054909150613371908263ffffffff61083d16565b601180546001600160801b03600160801b80830482166000908152601360208181526040808420968616845295815285832097909755945491820483168082529486528381209190921680835294528190205490517f2d6127771b164a9cc8827d24b5955db2a77e7a81dac389107ebb8bce9fb64968936133f29391614285565b60405180910390a150505050565b60008282016001600160801b0380851690821610156108625760405162461bcd60e51b815260040161083290614192565b600a54600090613447908363ffffffff6125a816565b905080600a819055507ff3c69a10dcea5d744225cbe910fb39d6f8208bb8e21fff523d6756a7966093c78160405161347f9190614255565b60405180910390a15050565b6000826001600160801b0316826001600160801b031611156134bf5760405162461bcd60e51b81526004016108329061414a565b50900390565b6001600160a01b0381166000908152600d602052604090206001015460ff16806134f657506001600160a01b038116155b610aac5760405162461bcd60e51b815260040161083290613c6b565b60008111610aac5760405162461bcd60e51b815260040161083290613f56565b6001600160a01b038281166000818152600b602052604080822060010180546001600160a01b0319169486169485179055517f094c08e96a8890877a8390b4f967180a7507ad8622244d05fcd0f9f8e086564e9190a35050565b600654604051632ee65eeb60e21b81526001600160a01b039091169063bb997bac906135c0908590309086906004016139f9565b600060405180830381600087803b1580156135da57600080fd5b505af11580156135ee573d6000803e3d6000fd5b5050600a546000925061360891508363ffffffff61083d16565b905080600a819055507ff3c69a10dcea5d744225cbe910fb39d6f8208bb8e21fff523d6756a7966093c781604051610a5e9190614255565b610aac81336131c0565b6000818484111561366e5760405162461bcd60e51b81526004016108329190613adf565b505050900390565b600081836136975760405162461bcd60e51b81526004016108329190613adf565b5060008385816136a357fe5b0495945050505050565b6000806136d1601454611c73670de0b6b3a76400008761267690919063ffffffff16565b905060006136e5828563ffffffff6126b016565b90506137076136fa828663ffffffff61267616565b839063ffffffff6125a816565b601455949350505050565b6040518060a0016040528060008152602001600081526020016000815260200160006001600160801b0316815260200160006001600160801b031681525090565b80356001600160801b038116811461086557600080fd5b60006020828403121561377b578081fd5b8135610862816142d3565b600060208284031215613797578081fd5b8151610862816142d3565b600080604083850312156137b4578081fd5b82356137bf816142d3565b915060208301356137cf816142d3565b809150509250929050565b600080600080600080600080610100898b0312156137f6578384fd5b8835613801816142d3565b97506020890135613811816142d3565b96506040890135613821816142d3565b95506060890135613831816142d3565b94506080890135613841816142d3565b935060a0890135613851816142d3565b925060c0890135613861816142d3565b915060e0890135613871816142d3565b809150509295985092959890939650565b600060208284031215613893578081fd5b81518015158114610862578182fd5b600080604083850312156138b4578182fd5b6138be8484613753565b91506138cd8460208501613753565b90509250929050565b6000602082840312156138e7578081fd5b5035919050565b6000602082840312156138ff578081fd5b5051919050565b60008060408385031215613918578182fd5b8235915060208301356137cf816142d3565b60008082840360a081121561393d578283fd5b833592506080601f1982011215613952578182fd5b506020830190509250929050565b60008060408385031215613972578182fd5b50508035926020909101359150565b600060208284031215613992578081fd5b813560ff81168114610862578182fd5b90565b7035b2bc9737bbb730b136329737bbb732b960791b815260110190565b6001600160a01b0391909116815260200190565b6001600160a01b0393841681529183166020830152909116604082015260600190565b6001600160a01b039384168152919092166020820152604081019190915260600190565b6001600160a01b0397881681529590961660208601526040850193909352606084019190915260ff16608083015260a082015260c081019190915260e00190565b6001600160a01b03929092168252602082015260400190565b6001600160a01b039390931683526020830191909152604082015260600190565b6001600160a01b0393841681526020810192909252909116604082015260600190565b918252602082015260400190565b9283526020830191909152604082015260600190565b6000602080835283518082850152825b81811015613b0b57858101830151858201604001528201613aef565b81811115613b1c5783604083870101525b50601f01601f1916929092016040019392505050565b60208082526046908201527f53746162696c697479506f6f6c3a2063616c6c6572206d75737420686176652060408201527f616e206163746976652074726f766520746f207769746864726177204554484760608201526561696e20746f60d01b608082015260a00190565b60208082526029908201527f444c4c52207472616e7366657272656420616d6f756e742076616c69646174696040820152681bdb8819985a5b195960ba1b606082015260800190565b6020808252601b908201527f536166654d6174683a206164646974696f6e206f766572666c6f770000000000604082015260600190565b6020808252602d908201527f53503a3a5f73656e644554484761696e546f3a205f726563656976657220697360408201526c207a65726f206164647265737360981b606082015260800190565b60208082526046908201527f53746162696c697479506f6f6c3a20546167206d75737420626520612072656760408201527f697374657265642066726f6e7420656e642c206f7220746865207a65726f206160608201526564647265737360d01b608082015260a00190565b60208082526027908201527f53746162696c697479506f6f6c3a2043616c6c6572206973206e6f74204163746040820152661a5d99541bdbdb60ca1b606082015260800190565b60208082526022908201527f4f776e61626c653a3a7365744f776e65723a20696e76616c6964206164647265604082015261737360f01b606082015260800190565b6020808252601e908201527f4163636f756e742063616e6e6f74206265207a65726f20616464726573730000604082015260600190565b60208082526031908201527f53746162696c697479506f6f6c3a2063616c6c6572206d7573742068617665206040820152703737b716bd32b9379022aa241023b0b4b760791b606082015260800190565b60208082526029908201527f53746162696c697479506f6f6c3a2043616c6c6572206973206e6f742054726f6040820152683b32a6b0b730b3b2b960b91b606082015260800190565b60208082526021908201527f53746162696c697479506f6f6c3a2073656e64696e6720455448206661696c656040820152601960fa1b606082015260800190565b60208082526021908201527f536166654d6174683a206d756c7469706c69636174696f6e206f766572666c6f6040820152607760f81b606082015260800190565b60208082526030908201527f53503a3a5f776974686472617746726f6d5370546f3a205f726563656976657260408201526f206973207a65726f206164647265737360801b606082015260800190565b60208082526033908201527f53746162696c697479506f6f6c3a204b69636b6261636b2072617465206d75736040820152727420626520696e2072616e6765205b302c315d60681b606082015260800190565b60208082526026908201527f53746162696c697479506f6f6c3a20416d6f756e74206d757374206265206e6f6040820152656e2d7a65726f60d01b606082015260800190565b60208082526017908201527613dddb98589b194e8e881858d8d95cdcc819195b9a5959604a1b604082015260600190565b60208082526039908201527f53746162696c697479506f6f6c3a206d757374206e6f7420616c72656164792060408201527818994818481c9959da5cdd195c995908199c9bdb9d08195b99603a1b606082015260800190565b60208082526028908201527f53746162696c697479506f6f6c3a2055736572206d7573742068617665206e6f6040820152670819195c1bdcda5d60c21b606082015260800190565b60208082526037908201527f4661696c656420746f20617070726f7665205a55534420616d6f756e7420666f60408201527672204d796e74206d417373657420746f2072656465656d60481b606082015260800190565b6020808252818101527f4163636f756e7420636f64652073697a652063616e6e6f74206265207a65726f604082015260600190565b60208082526030908201527f53746162696c697479506f6f6c3a2055736572206d757374206861766520612060408201526f1b9bdb8b5e995c9bc819195c1bdcda5d60821b606082015260800190565b60208082526028908201527f4c697175697479536166654d6174683132383a207375627472616374696f6e206040820152676f766572666c6f7760c01b606082015260800190565b60208082526025908201527f4c697175697479536166654d6174683132383a206164646974696f6e206f766560408201526472666c6f7760d81b606082015260800190565b60208082526044908201527f53746162696c697479506f6f6c3a2043616e6e6f74207769746864726177207760408201527f68696c65207468657265206172652074726f766573207769746820494352203c6060820152631026a1a960e11b608082015260a00190565b6001600160801b0391909116815260200190565b90815260200190565b9182526001600160a01b0316602082015260400190565b9182521515602082015260400190565b9283526001600160801b03918216602084015216604082015260600190565b948552602085019390935260408401919091526001600160801b03908116606084015216608082015260a00190565b6001600160a01b0381168114610aac57600080fdfeceb6d671277d4354fd29977ada70695fbd93a16612abf765d6b0e25c28dc6db3bce78369dccab09eec1986f4d409ab09ffbb47d65423e5148fcf98411c5111c951457222ebca92c335c9c86e2baa1cc0e40ffaa9084a51452980d5ba8dec2f6399920012339b5a3368d3a04b8606ce412c46ed92b7dcd8602d41fc8862cb8f25a2646970667358221220f8912683a91b4c42a5bc38109aad030673c9f16e7353cc2d048fcf04f2e7bb2c64736f6c634300060b0033",
  "linkReferences": {},
  "deployedLinkReferences": {}
}