{
  "_format": "hh-sol-artifact-1",
  "contractName": "TroveManagerTester",
  "sourceName": "contracts/TestContracts/TroveManagerTester.sol",
  "abi": [
    {
      "anonymous": false,
      "inputs": [
        {
          "indexed": false,
          "internalType": "address",
          "name": "_activePoolAddress",
          "type": "address"
        }
      ],
      "name": "ActivePoolAddressChanged",
      "type": "event"
    },
    {
      "anonymous": false,
      "inputs": [
        {
          "indexed": false,
          "internalType": "uint256",
          "name": "_baseRate",
          "type": "uint256"
        }
      ],
      "name": "BaseRateUpdated",
      "type": "event"
    },
    {
      "anonymous": false,
      "inputs": [
        {
          "indexed": false,
          "internalType": "address",
          "name": "_newBorrowerOperationsAddress",
          "type": "address"
        }
      ],
      "name": "BorrowerOperationsAddressChanged",
      "type": "event"
    },
    {
      "anonymous": false,
      "inputs": [
        {
          "indexed": false,
          "internalType": "address",
          "name": "_collSurplusPoolAddress",
          "type": "address"
        }
      ],
      "name": "CollSurplusPoolAddressChanged",
      "type": "event"
    },
    {
      "anonymous": false,
      "inputs": [
        {
          "indexed": false,
          "internalType": "address",
          "name": "_defaultPoolAddress",
          "type": "address"
        }
      ],
      "name": "DefaultPoolAddressChanged",
      "type": "event"
    },
    {
      "anonymous": false,
      "inputs": [
        {
          "indexed": false,
          "internalType": "address",
          "name": "_feeDistributorAddress",
          "type": "address"
        }
      ],
      "name": "FeeDistributorAddressChanged",
      "type": "event"
    },
    {
      "anonymous": false,
      "inputs": [
        {
          "indexed": false,
          "internalType": "address",
          "name": "_gasPoolAddress",
          "type": "address"
        }
      ],
      "name": "GasPoolAddressChanged",
      "type": "event"
    },
    {
      "anonymous": false,
      "inputs": [
        {
          "indexed": false,
          "internalType": "uint256",
          "name": "_L_ETH",
          "type": "uint256"
        },
        {
          "indexed": false,
          "internalType": "uint256",
          "name": "_L_ZUSDDebt",
          "type": "uint256"
        }
      ],
      "name": "LTermsUpdated",
      "type": "event"
    },
    {
      "anonymous": false,
      "inputs": [
        {
          "indexed": false,
          "internalType": "uint256",
          "name": "_lastFeeOpTime",
          "type": "uint256"
        }
      ],
      "name": "LastFeeOpTimeUpdated",
      "type": "event"
    },
    {
      "anonymous": false,
      "inputs": [
        {
          "indexed": false,
          "internalType": "uint256",
          "name": "_liquidatedDebt",
          "type": "uint256"
        },
        {
          "indexed": false,
          "internalType": "uint256",
          "name": "_liquidatedColl",
          "type": "uint256"
        },
        {
          "indexed": false,
          "internalType": "uint256",
          "name": "_collGasCompensation",
          "type": "uint256"
        },
        {
          "indexed": false,
          "internalType": "uint256",
          "name": "_ZUSDGasCompensation",
          "type": "uint256"
        }
      ],
      "name": "Liquidation",
      "type": "event"
    },
    {
      "anonymous": false,
      "inputs": [
        {
          "indexed": false,
          "internalType": "address",
          "name": "_borrowerOperationsAddress",
          "type": "address"
        }
      ],
      "name": "LiquityBaseParamsAddressChanges",
      "type": "event"
    },
    {
      "anonymous": false,
      "inputs": [
        {
          "indexed": true,
          "internalType": "address",
          "name": "previousOwner",
          "type": "address"
        },
        {
          "indexed": true,
          "internalType": "address",
          "name": "newOwner",
          "type": "address"
        }
      ],
      "name": "OwnershipTransferred",
      "type": "event"
    },
    {
      "anonymous": false,
      "inputs": [
        {
          "indexed": false,
          "internalType": "address",
          "name": "_newPriceFeedAddress",
          "type": "address"
        }
      ],
      "name": "PriceFeedAddressChanged",
      "type": "event"
    },
    {
      "anonymous": false,
      "inputs": [
        {
          "indexed": false,
          "internalType": "uint256",
          "name": "_attemptedZUSDAmount",
          "type": "uint256"
        },
        {
          "indexed": false,
          "internalType": "uint256",
          "name": "_actualZUSDAmount",
          "type": "uint256"
        },
        {
          "indexed": false,
          "internalType": "uint256",
          "name": "_ETHSent",
          "type": "uint256"
        },
        {
          "indexed": false,
          "internalType": "uint256",
          "name": "_ETHFee",
          "type": "uint256"
        }
      ],
      "name": "Redemption",
      "type": "event"
    },
    {
      "anonymous": false,
      "inputs": [
        {
          "indexed": false,
          "internalType": "address",
          "name": "_sortedTrovesAddress",
          "type": "address"
        }
      ],
      "name": "SortedTrovesAddressChanged",
      "type": "event"
    },
    {
      "anonymous": false,
      "inputs": [
        {
          "indexed": false,
          "internalType": "address",
          "name": "_stabilityPoolAddress",
          "type": "address"
        }
      ],
      "name": "StabilityPoolAddressChanged",
      "type": "event"
    },
    {
      "anonymous": false,
      "inputs": [
        {
          "indexed": false,
          "internalType": "uint256",
          "name": "_totalStakesSnapshot",
          "type": "uint256"
        },
        {
          "indexed": false,
          "internalType": "uint256",
          "name": "_totalCollateralSnapshot",
          "type": "uint256"
        }
      ],
      "name": "SystemSnapshotsUpdated",
      "type": "event"
    },
    {
      "anonymous": false,
      "inputs": [
        {
          "indexed": false,
          "internalType": "uint256",
          "name": "_newTotalStakes",
          "type": "uint256"
        }
      ],
      "name": "TotalStakesUpdated",
      "type": "event"
    },
    {
      "anonymous": false,
      "inputs": [
        {
          "indexed": false,
          "internalType": "address",
          "name": "_borrower",
          "type": "address"
        },
        {
          "indexed": false,
          "internalType": "uint256",
          "name": "_newIndex",
          "type": "uint256"
        }
      ],
      "name": "TroveIndexUpdated",
      "type": "event"
    },
    {
      "anonymous": false,
      "inputs": [
        {
          "indexed": true,
          "internalType": "address",
          "name": "_borrower",
          "type": "address"
        },
        {
          "indexed": false,
          "internalType": "uint256",
          "name": "_debt",
          "type": "uint256"
        },
        {
          "indexed": false,
          "internalType": "uint256",
          "name": "_coll",
          "type": "uint256"
        },
        {
          "indexed": false,
          "internalType": "uint8",
          "name": "operation",
          "type": "uint8"
        }
      ],
      "name": "TroveLiquidated",
      "type": "event"
    },
    {
      "anonymous": false,
      "inputs": [
        {
          "indexed": false,
          "internalType": "address",
          "name": "_troveManagerRedeemOps",
          "type": "address"
        }
      ],
      "name": "TroveManagerRedeemOpsAddressChanged",
      "type": "event"
    },
    {
      "anonymous": false,
      "inputs": [
        {
          "indexed": false,
          "internalType": "uint256",
          "name": "_L_ETH",
          "type": "uint256"
        },
        {
          "indexed": false,
          "internalType": "uint256",
          "name": "_L_ZUSDDebt",
          "type": "uint256"
        }
      ],
      "name": "TroveSnapshotsUpdated",
      "type": "event"
    },
    {
      "anonymous": false,
      "inputs": [
        {
          "indexed": true,
          "internalType": "address",
          "name": "_borrower",
          "type": "address"
        },
        {
          "indexed": false,
          "internalType": "uint256",
          "name": "_debt",
          "type": "uint256"
        },
        {
          "indexed": false,
          "internalType": "uint256",
          "name": "_coll",
          "type": "uint256"
        },
        {
          "indexed": false,
          "internalType": "uint256",
          "name": "stake",
          "type": "uint256"
        },
        {
          "indexed": false,
          "internalType": "uint8",
          "name": "operation",
          "type": "uint8"
        }
      ],
      "name": "TroveUpdated",
      "type": "event"
    },
    {
      "anonymous": false,
      "inputs": [
        {
          "indexed": false,
          "internalType": "address",
          "name": "_zeroStakingAddress",
          "type": "address"
        }
      ],
      "name": "ZEROStakingAddressChanged",
      "type": "event"
    },
    {
      "anonymous": false,
      "inputs": [
        {
          "indexed": false,
          "internalType": "address",
          "name": "_zeroTokenAddress",
          "type": "address"
        }
      ],
      "name": "ZEROTokenAddressChanged",
      "type": "event"
    },
    {
      "anonymous": false,
      "inputs": [
        {
          "indexed": false,
          "internalType": "address",
          "name": "_newZUSDTokenAddress",
          "type": "address"
        }
      ],
      "name": "ZUSDTokenAddressChanged",
      "type": "event"
    },
    {
      "inputs": [],
      "name": "BETA",
      "outputs": [
        {
          "internalType": "uint256",
          "name": "",
          "type": "uint256"
        }
      ],
      "stateMutability": "view",
      "type": "function"
    },
    {
      "inputs": [],
      "name": "BOOTSTRAP_PERIOD",
      "outputs": [
        {
          "internalType": "uint256",
          "name": "",
          "type": "uint256"
        }
      ],
      "stateMutability": "view",
      "type": "function"
    },
    {
      "inputs": [],
      "name": "CCR",
      "outputs": [
        {
          "internalType": "uint256",
          "name": "",
          "type": "uint256"
        }
      ],
      "stateMutability": "view",
      "type": "function"
    },
    {
      "inputs": [],
      "name": "DECIMAL_PRECISION",
      "outputs": [
        {
          "internalType": "uint256",
          "name": "",
          "type": "uint256"
        }
      ],
      "stateMutability": "view",
      "type": "function"
    },
    {
      "inputs": [],
      "name": "L_ETH",
      "outputs": [
        {
          "internalType": "uint256",
          "name": "",
          "type": "uint256"
        }
      ],
      "stateMutability": "view",
      "type": "function"
    },
    {
      "inputs": [],
      "name": "L_ZUSDDebt",
      "outputs": [
        {
          "internalType": "uint256",
          "name": "",
          "type": "uint256"
        }
      ],
      "stateMutability": "view",
      "type": "function"
    },
    {
      "inputs": [],
      "name": "MCR",
      "outputs": [
        {
          "internalType": "uint256",
          "name": "",
          "type": "uint256"
        }
      ],
      "stateMutability": "view",
      "type": "function"
    },
    {
      "inputs": [],
      "name": "MINUTE_DECAY_FACTOR",
      "outputs": [
        {
          "internalType": "uint256",
          "name": "",
          "type": "uint256"
        }
      ],
      "stateMutability": "view",
      "type": "function"
    },
    {
      "inputs": [],
      "name": "MIN_NET_DEBT",
      "outputs": [
        {
          "internalType": "uint256",
          "name": "",
          "type": "uint256"
        }
      ],
      "stateMutability": "view",
      "type": "function"
    },
    {
      "inputs": [],
      "name": "NAME",
      "outputs": [
        {
          "internalType": "string",
          "name": "",
          "type": "string"
        }
      ],
      "stateMutability": "view",
      "type": "function"
    },
    {
      "inputs": [],
      "name": "SECONDS_IN_ONE_MINUTE",
      "outputs": [
        {
          "internalType": "uint256",
          "name": "",
          "type": "uint256"
        }
      ],
      "stateMutability": "view",
      "type": "function"
    },
    {
      "inputs": [
        {
          "internalType": "uint256",
          "name": "",
          "type": "uint256"
        }
      ],
      "name": "TroveOwners",
      "outputs": [
        {
          "internalType": "address",
          "name": "",
          "type": "address"
        }
      ],
      "stateMutability": "view",
      "type": "function"
    },
    {
      "inputs": [
        {
          "internalType": "address",
          "name": "",
          "type": "address"
        }
      ],
      "name": "Troves",
      "outputs": [
        {
          "internalType": "uint256",
          "name": "debt",
          "type": "uint256"
        },
        {
          "internalType": "uint256",
          "name": "coll",
          "type": "uint256"
        },
        {
          "internalType": "uint256",
          "name": "stake",
          "type": "uint256"
        },
        {
          "internalType": "enum TroveManagerStorage.Status",
          "name": "status",
          "type": "uint8"
        },
        {
          "internalType": "uint128",
          "name": "arrayIndex",
          "type": "uint128"
        }
      ],
      "stateMutability": "view",
      "type": "function"
    },
    {
      "inputs": [],
      "name": "ZUSD_GAS_COMPENSATION",
      "outputs": [
        {
          "internalType": "uint256",
          "name": "",
          "type": "uint256"
        }
      ],
      "stateMutability": "view",
      "type": "function"
    },
    {
      "inputs": [],
      "name": "_100pct",
      "outputs": [
        {
          "internalType": "uint256",
          "name": "",
          "type": "uint256"
        }
      ],
      "stateMutability": "view",
      "type": "function"
    },
    {
      "inputs": [
        {
          "internalType": "address",
          "name": "_borrower",
          "type": "address"
        },
        {
          "internalType": "uint256",
          "name": "_price",
          "type": "uint256"
        }
      ],
      "name": "_getCurrentICR",
      "outputs": [
        {
          "internalType": "uint256",
          "name": "",
          "type": "uint256"
        }
      ],
      "stateMutability": "view",
      "type": "function"
    },
    {
      "inputs": [
        {
          "internalType": "address",
          "name": "_borrower",
          "type": "address"
        }
      ],
      "name": "_getPendingETHReward",
      "outputs": [
        {
          "internalType": "uint256",
          "name": "",
          "type": "uint256"
        }
      ],
      "stateMutability": "view",
      "type": "function"
    },
    {
      "inputs": [
        {
          "internalType": "address",
          "name": "_borrower",
          "type": "address"
        }
      ],
      "name": "_getPendingZUSDDebtReward",
      "outputs": [
        {
          "internalType": "uint256",
          "name": "",
          "type": "uint256"
        }
      ],
      "stateMutability": "view",
      "type": "function"
    },
    {
      "inputs": [],
      "name": "_getRedemptionRate",
      "outputs": [
        {
          "internalType": "uint256",
          "name": "",
          "type": "uint256"
        }
      ],
      "stateMutability": "view",
      "type": "function"
    },
    {
      "inputs": [
        {
          "internalType": "address",
          "name": "_borrower",
          "type": "address"
        }
      ],
      "name": "_hasPendingRewards",
      "outputs": [
        {
          "internalType": "bool",
          "name": "",
          "type": "bool"
        }
      ],
      "stateMutability": "view",
      "type": "function"
    },
    {
      "inputs": [],
      "name": "_stabilityPool",
      "outputs": [
        {
          "internalType": "contract IStabilityPool",
          "name": "",
          "type": "address"
        }
      ],
      "stateMutability": "view",
      "type": "function"
    },
    {
      "inputs": [],
      "name": "_zeroStaking",
      "outputs": [
        {
          "internalType": "contract IZEROStaking",
          "name": "",
          "type": "address"
        }
      ],
      "stateMutability": "view",
      "type": "function"
    },
    {
      "inputs": [],
      "name": "_zeroToken",
      "outputs": [
        {
          "internalType": "contract IZEROToken",
          "name": "",
          "type": "address"
        }
      ],
      "stateMutability": "view",
      "type": "function"
    },
    {
      "inputs": [],
      "name": "_zusdToken",
      "outputs": [
        {
          "internalType": "contract IZUSDToken",
          "name": "",
          "type": "address"
        }
      ],
      "stateMutability": "view",
      "type": "function"
    },
    {
      "inputs": [],
      "name": "activePool",
      "outputs": [
        {
          "internalType": "contract IActivePool",
          "name": "",
          "type": "address"
        }
      ],
      "stateMutability": "view",
      "type": "function"
    },
    {
      "inputs": [
        {
          "internalType": "address",
          "name": "_borrower",
          "type": "address"
        }
      ],
      "name": "addTroveOwnerToArray",
      "outputs": [
        {
          "internalType": "uint256",
          "name": "index",
          "type": "uint256"
        }
      ],
      "stateMutability": "nonpayable",
      "type": "function"
    },
    {
      "inputs": [
        {
          "internalType": "address",
          "name": "_borrower",
          "type": "address"
        }
      ],
      "name": "applyPendingRewards",
      "outputs": [],
      "stateMutability": "nonpayable",
      "type": "function"
    },
    {
      "inputs": [],
      "name": "baseRate",
      "outputs": [
        {
          "internalType": "uint256",
          "name": "",
          "type": "uint256"
        }
      ],
      "stateMutability": "view",
      "type": "function"
    },
    {
      "inputs": [
        {
          "internalType": "address[]",
          "name": "_troveArray",
          "type": "address[]"
        }
      ],
      "name": "batchLiquidateTroves",
      "outputs": [],
      "stateMutability": "nonpayable",
      "type": "function"
    },
    {
      "inputs": [],
      "name": "borrowerOperationsAddress",
      "outputs": [
        {
          "internalType": "address",
          "name": "",
          "type": "address"
        }
      ],
      "stateMutability": "view",
      "type": "function"
    },
    {
      "inputs": [
        {
          "internalType": "uint256",
          "name": "_ETHDrawn",
          "type": "uint256"
        }
      ],
      "name": "callGetRedemptionFee",
      "outputs": [
        {
          "internalType": "uint256",
          "name": "",
          "type": "uint256"
        }
      ],
      "stateMutability": "view",
      "type": "function"
    },
    {
      "inputs": [
        {
          "internalType": "address",
          "name": "_troveOwner",
          "type": "address"
        }
      ],
      "name": "callInternalRemoveTroveOwner",
      "outputs": [],
      "stateMutability": "nonpayable",
      "type": "function"
    },
    {
      "inputs": [
        {
          "internalType": "uint256",
          "name": "_price",
          "type": "uint256"
        }
      ],
      "name": "checkRecoveryMode",
      "outputs": [
        {
          "internalType": "bool",
          "name": "",
          "type": "bool"
        }
      ],
      "stateMutability": "view",
      "type": "function"
    },
    {
      "inputs": [
        {
          "internalType": "address",
          "name": "_borrower",
          "type": "address"
        }
      ],
      "name": "closeTrove",
      "outputs": [],
      "stateMutability": "nonpayable",
      "type": "function"
    },
    {
      "inputs": [
        {
          "internalType": "uint256",
          "name": "_coll",
          "type": "uint256"
        },
        {
          "internalType": "uint256",
          "name": "_debt",
          "type": "uint256"
        },
        {
          "internalType": "uint256",
          "name": "_price",
          "type": "uint256"
        }
      ],
      "name": "computeICR",
      "outputs": [
        {
          "internalType": "uint256",
          "name": "",
          "type": "uint256"
        }
      ],
      "stateMutability": "pure",
      "type": "function"
    },
    {
      "inputs": [],
      "name": "decayBaseRateFromBorrowing",
      "outputs": [],
      "stateMutability": "nonpayable",
      "type": "function"
    },
    {
      "inputs": [
        {
          "internalType": "address",
          "name": "_borrower",
          "type": "address"
        },
        {
          "internalType": "uint256",
          "name": "_collDecrease",
          "type": "uint256"
        }
      ],
      "name": "decreaseTroveColl",
      "outputs": [
        {
          "internalType": "uint256",
          "name": "",
          "type": "uint256"
        }
      ],
      "stateMutability": "nonpayable",
      "type": "function"
    },
    {
      "inputs": [
        {
          "internalType": "address",
          "name": "_borrower",
          "type": "address"
        },
        {
          "internalType": "uint256",
          "name": "_debtDecrease",
          "type": "uint256"
        }
      ],
      "name": "decreaseTroveDebt",
      "outputs": [
        {
          "internalType": "uint256",
          "name": "",
          "type": "uint256"
        }
      ],
      "stateMutability": "nonpayable",
      "type": "function"
    },
    {
      "inputs": [],
      "name": "defaultPool",
      "outputs": [
        {
          "internalType": "contract IDefaultPool",
          "name": "",
          "type": "address"
        }
      ],
      "stateMutability": "view",
      "type": "function"
    },
    {
      "inputs": [],
      "name": "feeDistributor",
      "outputs": [
        {
          "internalType": "contract IFeeDistributor",
          "name": "",
          "type": "address"
        }
      ],
      "stateMutability": "view",
      "type": "function"
    },
    {
      "inputs": [
        {
          "internalType": "uint256",
          "name": "_debtVal",
          "type": "uint256"
        }
      ],
      "name": "getActualDebtFromComposite",
      "outputs": [
        {
          "internalType": "uint256",
          "name": "",
          "type": "uint256"
        }
      ],
      "stateMutability": "pure",
      "type": "function"
    },
    {
      "inputs": [
        {
          "internalType": "uint256",
          "name": "_ZUSDDebt",
          "type": "uint256"
        }
      ],
      "name": "getBorrowingFee",
      "outputs": [
        {
          "internalType": "uint256",
          "name": "",
          "type": "uint256"
        }
      ],
      "stateMutability": "view",
      "type": "function"
    },
    {
      "inputs": [
        {
          "internalType": "uint256",
          "name": "_ZUSDDebt",
          "type": "uint256"
        }
      ],
      "name": "getBorrowingFeeWithDecay",
      "outputs": [
        {
          "internalType": "uint256",
          "name": "",
          "type": "uint256"
        }
      ],
      "stateMutability": "view",
      "type": "function"
    },
    {
      "inputs": [],
      "name": "getBorrowingRate",
      "outputs": [
        {
          "internalType": "uint256",
          "name": "",
          "type": "uint256"
        }
      ],
      "stateMutability": "view",
      "type": "function"
    },
    {
      "inputs": [],
      "name": "getBorrowingRateWithDecay",
      "outputs": [
        {
          "internalType": "uint256",
          "name": "",
          "type": "uint256"
        }
      ],
      "stateMutability": "view",
      "type": "function"
    },
    {
      "inputs": [
        {
          "internalType": "uint256",
          "name": "_coll",
          "type": "uint256"
        }
      ],
      "name": "getCollGasCompensation",
      "outputs": [
        {
          "internalType": "uint256",
          "name": "",
          "type": "uint256"
        }
      ],
      "stateMutability": "view",
      "type": "function"
    },
    {
      "inputs": [
        {
          "internalType": "uint256",
          "name": "_debt",
          "type": "uint256"
        }
      ],
      "name": "getCompositeDebt",
      "outputs": [
        {
          "internalType": "uint256",
          "name": "",
          "type": "uint256"
        }
      ],
      "stateMutability": "pure",
      "type": "function"
    },
    {
      "inputs": [
        {
          "internalType": "address",
          "name": "_borrower",
          "type": "address"
        },
        {
          "internalType": "uint256",
          "name": "_price",
          "type": "uint256"
        }
      ],
      "name": "getCurrentICR",
      "outputs": [
        {
          "internalType": "uint256",
          "name": "",
          "type": "uint256"
        }
      ],
      "stateMutability": "view",
      "type": "function"
    },
    {
      "inputs": [
        {
          "internalType": "address",
          "name": "_borrower",
          "type": "address"
        }
      ],
      "name": "getEntireDebtAndColl",
      "outputs": [
        {
          "internalType": "uint256",
          "name": "debt",
          "type": "uint256"
        },
        {
          "internalType": "uint256",
          "name": "coll",
          "type": "uint256"
        },
        {
          "internalType": "uint256",
          "name": "pendingZUSDDebtReward",
          "type": "uint256"
        },
        {
          "internalType": "uint256",
          "name": "pendingETHReward",
          "type": "uint256"
        }
      ],
      "stateMutability": "view",
      "type": "function"
    },
    {
      "inputs": [],
      "name": "getEntireSystemColl",
      "outputs": [
        {
          "internalType": "uint256",
          "name": "entireSystemColl",
          "type": "uint256"
        }
      ],
      "stateMutability": "view",
      "type": "function"
    },
    {
      "inputs": [],
      "name": "getEntireSystemDebt",
      "outputs": [
        {
          "internalType": "uint256",
          "name": "entireSystemDebt",
          "type": "uint256"
        }
      ],
      "stateMutability": "view",
      "type": "function"
    },
    {
      "inputs": [
        {
          "internalType": "address",
          "name": "_borrower",
          "type": "address"
        }
      ],
      "name": "getNominalICR",
      "outputs": [
        {
          "internalType": "uint256",
          "name": "",
          "type": "uint256"
        }
      ],
      "stateMutability": "view",
      "type": "function"
    },
    {
      "inputs": [],
      "name": "getOwner",
      "outputs": [
        {
          "internalType": "address",
          "name": "_owner",
          "type": "address"
        }
      ],
      "stateMutability": "view",
      "type": "function"
    },
    {
      "inputs": [
        {
          "internalType": "address",
          "name": "_borrower",
          "type": "address"
        }
      ],
      "name": "getPendingETHReward",
      "outputs": [
        {
          "internalType": "uint256",
          "name": "",
          "type": "uint256"
        }
      ],
      "stateMutability": "view",
      "type": "function"
    },
    {
      "inputs": [
        {
          "internalType": "address",
          "name": "_borrower",
          "type": "address"
        }
      ],
      "name": "getPendingZUSDDebtReward",
      "outputs": [
        {
          "internalType": "uint256",
          "name": "",
          "type": "uint256"
        }
      ],
      "stateMutability": "view",
      "type": "function"
    },
    {
      "inputs": [
        {
          "internalType": "uint256",
          "name": "_ETHDrawn",
          "type": "uint256"
        }
      ],
      "name": "getRedemptionFeeWithDecay",
      "outputs": [
        {
          "internalType": "uint256",
          "name": "",
          "type": "uint256"
        }
      ],
      "stateMutability": "view",
      "type": "function"
    },
    {
      "inputs": [],
      "name": "getRedemptionRate",
      "outputs": [
        {
          "internalType": "uint256",
          "name": "",
          "type": "uint256"
        }
      ],
      "stateMutability": "view",
      "type": "function"
    },
    {
      "inputs": [],
      "name": "getRedemptionRateWithDecay",
      "outputs": [
        {
          "internalType": "uint256",
          "name": "",
          "type": "uint256"
        }
      ],
      "stateMutability": "view",
      "type": "function"
    },
    {
      "inputs": [
        {
          "internalType": "uint256",
          "name": "_price",
          "type": "uint256"
        }
      ],
      "name": "getTCR",
      "outputs": [
        {
          "internalType": "uint256",
          "name": "",
          "type": "uint256"
        }
      ],
      "stateMutability": "view",
      "type": "function"
    },
    {
      "inputs": [
        {
          "internalType": "address",
          "name": "_borrower",
          "type": "address"
        }
      ],
      "name": "getTroveColl",
      "outputs": [
        {
          "internalType": "uint256",
          "name": "",
          "type": "uint256"
        }
      ],
      "stateMutability": "view",
      "type": "function"
    },
    {
      "inputs": [
        {
          "internalType": "address",
          "name": "_borrower",
          "type": "address"
        }
      ],
      "name": "getTroveDebt",
      "outputs": [
        {
          "internalType": "uint256",
          "name": "",
          "type": "uint256"
        }
      ],
      "stateMutability": "view",
      "type": "function"
    },
    {
      "inputs": [
        {
          "internalType": "uint256",
          "name": "_index",
          "type": "uint256"
        }
      ],
      "name": "getTroveFromTroveOwnersArray",
      "outputs": [
        {
          "internalType": "address",
          "name": "",
          "type": "address"
        }
      ],
      "stateMutability": "view",
      "type": "function"
    },
    {
      "inputs": [],
      "name": "getTroveOwnersCount",
      "outputs": [
        {
          "internalType": "uint256",
          "name": "",
          "type": "uint256"
        }
      ],
      "stateMutability": "view",
      "type": "function"
    },
    {
      "inputs": [
        {
          "internalType": "address",
          "name": "_borrower",
          "type": "address"
        }
      ],
      "name": "getTroveStake",
      "outputs": [
        {
          "internalType": "uint256",
          "name": "",
          "type": "uint256"
        }
      ],
      "stateMutability": "view",
      "type": "function"
    },
    {
      "inputs": [
        {
          "internalType": "address",
          "name": "_borrower",
          "type": "address"
        }
      ],
      "name": "getTroveStatus",
      "outputs": [
        {
          "internalType": "uint256",
          "name": "",
          "type": "uint256"
        }
      ],
      "stateMutability": "view",
      "type": "function"
    },
    {
      "inputs": [],
      "name": "getZUSDGasCompensation",
      "outputs": [
        {
          "internalType": "uint256",
          "name": "",
          "type": "uint256"
        }
      ],
      "stateMutability": "pure",
      "type": "function"
    },
    {
      "inputs": [
        {
          "internalType": "address",
          "name": "_borrower",
          "type": "address"
        }
      ],
      "name": "hasPendingRewards",
      "outputs": [
        {
          "internalType": "bool",
          "name": "",
          "type": "bool"
        }
      ],
      "stateMutability": "view",
      "type": "function"
    },
    {
      "inputs": [
        {
          "internalType": "address",
          "name": "_borrower",
          "type": "address"
        },
        {
          "internalType": "uint256",
          "name": "_collIncrease",
          "type": "uint256"
        }
      ],
      "name": "increaseTroveColl",
      "outputs": [
        {
          "internalType": "uint256",
          "name": "",
          "type": "uint256"
        }
      ],
      "stateMutability": "nonpayable",
      "type": "function"
    },
    {
      "inputs": [
        {
          "internalType": "address",
          "name": "_borrower",
          "type": "address"
        },
        {
          "internalType": "uint256",
          "name": "_debtIncrease",
          "type": "uint256"
        }
      ],
      "name": "increaseTroveDebt",
      "outputs": [
        {
          "internalType": "uint256",
          "name": "",
          "type": "uint256"
        }
      ],
      "stateMutability": "nonpayable",
      "type": "function"
    },
    {
      "inputs": [],
      "name": "lastETHError_Redistribution",
      "outputs": [
        {
          "internalType": "uint256",
          "name": "",
          "type": "uint256"
        }
      ],
      "stateMutability": "view",
      "type": "function"
    },
    {
      "inputs": [],
      "name": "lastFeeOperationTime",
      "outputs": [
        {
          "internalType": "uint256",
          "name": "",
          "type": "uint256"
        }
      ],
      "stateMutability": "view",
      "type": "function"
    },
    {
      "inputs": [],
      "name": "lastZUSDDebtError_Redistribution",
      "outputs": [
        {
          "internalType": "uint256",
          "name": "",
          "type": "uint256"
        }
      ],
      "stateMutability": "view",
      "type": "function"
    },
    {
      "inputs": [
        {
          "internalType": "address",
          "name": "_borrower",
          "type": "address"
        }
      ],
      "name": "liquidate",
      "outputs": [],
      "stateMutability": "nonpayable",
      "type": "function"
    },
    {
      "inputs": [
        {
          "internalType": "uint256",
          "name": "_n",
          "type": "uint256"
        }
      ],
      "name": "liquidateTroves",
      "outputs": [],
      "stateMutability": "nonpayable",
      "type": "function"
    },
    {
      "inputs": [],
      "name": "liquityBaseParams",
      "outputs": [
        {
          "internalType": "contract ILiquityBaseParams",
          "name": "",
          "type": "address"
        }
      ],
      "stateMutability": "view",
      "type": "function"
    },
    {
      "inputs": [],
      "name": "minutesPassedSinceLastFeeOp",
      "outputs": [
        {
          "internalType": "uint256",
          "name": "",
          "type": "uint256"
        }
      ],
      "stateMutability": "view",
      "type": "function"
    },
    {
      "inputs": [],
      "name": "priceFeed",
      "outputs": [
        {
          "internalType": "contract IPriceFeed",
          "name": "",
          "type": "address"
        }
      ],
      "stateMutability": "view",
      "type": "function"
    },
    {
      "inputs": [
        {
          "internalType": "uint256",
          "name": "_ZUSDamount",
          "type": "uint256"
        },
        {
          "internalType": "address",
          "name": "_firstRedemptionHint",
          "type": "address"
        },
        {
          "internalType": "address",
          "name": "_upperPartialRedemptionHint",
          "type": "address"
        },
        {
          "internalType": "address",
          "name": "_lowerPartialRedemptionHint",
          "type": "address"
        },
        {
          "internalType": "uint256",
          "name": "_partialRedemptionHintNICR",
          "type": "uint256"
        },
        {
          "internalType": "uint256",
          "name": "_maxIterations",
          "type": "uint256"
        },
        {
          "internalType": "uint256",
          "name": "_maxFeePercentage",
          "type": "uint256"
        }
      ],
      "name": "redeemCollateral",
      "outputs": [],
      "stateMutability": "nonpayable",
      "type": "function"
    },
    {
      "inputs": [
        {
          "internalType": "uint256",
          "name": "_dllrAmount",
          "type": "uint256"
        },
        {
          "internalType": "address",
          "name": "_firstRedemptionHint",
          "type": "address"
        },
        {
          "internalType": "address",
          "name": "_upperPartialRedemptionHint",
          "type": "address"
        },
        {
          "internalType": "address",
          "name": "_lowerPartialRedemptionHint",
          "type": "address"
        },
        {
          "internalType": "uint256",
          "name": "_partialRedemptionHintNICR",
          "type": "uint256"
        },
        {
          "internalType": "uint256",
          "name": "_maxIterations",
          "type": "uint256"
        },
        {
          "internalType": "uint256",
          "name": "_maxFeePercentage",
          "type": "uint256"
        },
        {
          "components": [
            {
              "internalType": "uint256",
              "name": "deadline",
              "type": "uint256"
            },
            {
              "internalType": "uint8",
              "name": "v",
              "type": "uint8"
            },
            {
              "internalType": "bytes32",
              "name": "r",
              "type": "bytes32"
            },
            {
              "internalType": "bytes32",
              "name": "s",
              "type": "bytes32"
            }
          ],
          "internalType": "struct IMassetManager.PermitParams",
          "name": "_permitParams",
          "type": "tuple"
        }
      ],
      "name": "redeemCollateralViaDLLR",
      "outputs": [],
      "stateMutability": "nonpayable",
      "type": "function"
    },
    {
      "inputs": [
        {
          "internalType": "address",
          "name": "_borrower",
          "type": "address"
        }
      ],
      "name": "removeStake",
      "outputs": [],
      "stateMutability": "nonpayable",
      "type": "function"
    },
    {
      "inputs": [
        {
          "internalType": "address",
          "name": "",
          "type": "address"
        }
      ],
      "name": "rewardSnapshots",
      "outputs": [
        {
          "internalType": "uint256",
          "name": "ETH",
          "type": "uint256"
        },
        {
          "internalType": "uint256",
          "name": "ZUSDDebt",
          "type": "uint256"
        }
      ],
      "stateMutability": "view",
      "type": "function"
    },
    {
      "inputs": [
        {
          "components": [
            {
              "internalType": "address",
              "name": "_feeDistributorAddress",
              "type": "address"
            },
            {
              "internalType": "address",
              "name": "_troveManagerRedeemOps",
              "type": "address"
            },
            {
              "internalType": "address",
              "name": "_liquityBaseParamsAddress",
              "type": "address"
            },
            {
              "internalType": "address",
              "name": "_borrowerOperationsAddress",
              "type": "address"
            },
            {
              "internalType": "address",
              "name": "_activePoolAddress",
              "type": "address"
            },
            {
              "internalType": "address",
              "name": "_defaultPoolAddress",
              "type": "address"
            },
            {
              "internalType": "address",
              "name": "_stabilityPoolAddress",
              "type": "address"
            },
            {
              "internalType": "address",
              "name": "_gasPoolAddress",
              "type": "address"
            },
            {
              "internalType": "address",
              "name": "_collSurplusPoolAddress",
              "type": "address"
            },
            {
              "internalType": "address",
              "name": "_priceFeedAddress",
              "type": "address"
            },
            {
              "internalType": "address",
              "name": "_zusdTokenAddress",
              "type": "address"
            },
            {
              "internalType": "address",
              "name": "_sortedTrovesAddress",
              "type": "address"
            },
            {
              "internalType": "address",
              "name": "_zeroTokenAddress",
              "type": "address"
            },
            {
              "internalType": "address",
              "name": "_zeroStakingAddress",
              "type": "address"
            }
          ],
          "internalType": "struct ITroveManager.TroveManagerInitAddressesParams",
          "name": "_troveManagerInitAddressesParams",
          "type": "tuple"
        }
      ],
      "name": "setAddresses",
      "outputs": [],
      "stateMutability": "nonpayable",
      "type": "function"
    },
    {
      "inputs": [
        {
          "internalType": "uint256",
          "name": "_baseRate",
          "type": "uint256"
        }
      ],
      "name": "setBaseRate",
      "outputs": [],
      "stateMutability": "nonpayable",
      "type": "function"
    },
    {
      "inputs": [],
      "name": "setLastFeeOpTimeToNow",
      "outputs": [],
      "stateMutability": "nonpayable",
      "type": "function"
    },
    {
      "inputs": [
        {
          "internalType": "address",
          "name": "_owner",
          "type": "address"
        }
      ],
      "name": "setOwner",
      "outputs": [],
      "stateMutability": "nonpayable",
      "type": "function"
    },
    {
      "inputs": [
        {
          "internalType": "address",
          "name": "_troveManagerRedeemOps",
          "type": "address"
        }
      ],
      "name": "setTroveManagerRedeemOps",
      "outputs": [],
      "stateMutability": "nonpayable",
      "type": "function"
    },
    {
      "inputs": [
        {
          "internalType": "address",
          "name": "_borrower",
          "type": "address"
        },
        {
          "internalType": "uint256",
          "name": "_num",
          "type": "uint256"
        }
      ],
      "name": "setTroveStatus",
      "outputs": [],
      "stateMutability": "nonpayable",
      "type": "function"
    },
    {
      "inputs": [],
      "name": "sortedTroves",
      "outputs": [
        {
          "internalType": "contract ISortedTroves",
          "name": "",
          "type": "address"
        }
      ],
      "stateMutability": "view",
      "type": "function"
    },
    {
      "inputs": [],
      "name": "totalCollateralSnapshot",
      "outputs": [
        {
          "internalType": "uint256",
          "name": "",
          "type": "uint256"
        }
      ],
      "stateMutability": "view",
      "type": "function"
    },
    {
      "inputs": [],
      "name": "totalStakes",
      "outputs": [
        {
          "internalType": "uint256",
          "name": "",
          "type": "uint256"
        }
      ],
      "stateMutability": "view",
      "type": "function"
    },
    {
      "inputs": [],
      "name": "totalStakesSnapshot",
      "outputs": [
        {
          "internalType": "uint256",
          "name": "",
          "type": "uint256"
        }
      ],
      "stateMutability": "view",
      "type": "function"
    },
    {
      "inputs": [],
      "name": "troveManagerRedeemOps",
      "outputs": [
        {
          "internalType": "address",
          "name": "",
          "type": "address"
        }
      ],
      "stateMutability": "view",
      "type": "function"
    },
    {
      "inputs": [],
      "name": "unprotectedDecayBaseRateFromBorrowing",
      "outputs": [
        {
          "internalType": "uint256",
          "name": "",
          "type": "uint256"
        }
      ],
      "stateMutability": "nonpayable",
      "type": "function"
    },
    {
      "inputs": [
        {
          "internalType": "address",
          "name": "_borrower",
          "type": "address"
        }
      ],
      "name": "updateStakeAndTotalStakes",
      "outputs": [
        {
          "internalType": "uint256",
          "name": "",
          "type": "uint256"
        }
      ],
      "stateMutability": "nonpayable",
      "type": "function"
    },
    {
      "inputs": [
        {
          "internalType": "address",
          "name": "_borrower",
          "type": "address"
        }
      ],
      "name": "updateTroveRewardSnapshots",
      "outputs": [],
      "stateMutability": "nonpayable",
      "type": "function"
    }
  ],
  "bytecode": "0x60a06040523480156200001157600080fd5b5062127500806200002b336001600160e01b036200003516565b6080525062000159565b6001600160a01b038116620000675760405162461bcd60e51b81526004016200005e9062000117565b60405180910390fd5b6001600160a01b038116620000846001600160e01b03620000d916565b6001600160a01b03167f8be0079c531659141344cd1fd0a4f28419497f9722a3daafe3b4186f6b6457e060405160405180910390a36000604051620000c990620000fa565b6040519081900390209190915550565b600080604051620000ea90620000fa565b6040519081900390205492915050565b7035b2bc9737bbb730b136329737bbb732b960791b815260110190565b60208082526022908201527f4f776e61626c653a3a7365744f776e65723a20696e76616c6964206164647265604082015261737360f01b606082015260800190565b6080516156bb62000174600039806122bc52506156bb6000f3fe608060405234801561001057600080fd5b50600436106105255760003560e01c8063741bef1a116102af578063b7f8cf9b11610172578063d3d6f843116100d9578063dc62a70211610092578063dc62a70214610a3c578063e056e91814610a4f578063e2ac77b014610a62578063f36b242514610a75578063fe2ba84814610a7d578063febb33de14610a9057610525565b8063d3d6f843146109e0578063d5b35635146109f3578063d66a255314610a06578063d815e8e914610a19578063d9a7244414610a21578063da303f1414610a3457610525565b8063c35bc5501161012b578063c35bc5501461099a578063c52861f2146109a2578063c7b55481146109aa578063cbd138ae146109b2578063d293c710146109c5578063d380a37c146109d857610525565b8063b7f8cf9b14610939578063b82f263d14610941578063b91af97c14610954578063bcd3752614610977578063be4b03341461098a578063bf9befb11461099257610525565b8063887105d311610216578063a20baee6116101cf578063a20baee61461081f578063a3f4df7e146108ee578063a537896f14610903578063ae7bec1914610916578063ae9187541461091e578063b0d8e1811461092657610525565b8063887105d3146108b3578063893d20e8146108bb57806396d711ff146108c35780639976cf45146108cb5780639dd233d2146108de5780639f070670146108e657610525565b80637cf54e40116102685780637cf54e40146108625780637f7dde4a1461086a578063807d138d14610872578063814a0a451461087a57806382fe3eb91461088d57806387436936146108a057610525565b8063741bef1a14610827578063756b253e1461082f578063759b303414610842578063794e57241461084a578063795d26c314610852578063797250e31461085a57610525565b80633a128595116103f75780635d8c96091161035e57806366ca4a211161031757806366ca4a21146107d05780636b444952146107d85780636ef64338146107e0578063716c47e61461080457806372423c171461080c57806372fe25aa1461081f57610525565b80635d8c9609146107745780635dba4c4a1461078757806361ec893d1461078f578063631203b01461079757806364cee260146107aa578063653d46e7146107bd57610525565b80634a767d68116103b05780634a767d68146107005780634e443d9e146107135780634ff814431461073357806354062a45146107465780635733d58f146107595780635d6b480f1461076157610525565b80633a128595146106af5780633cc74225146106b757806342ccf1e4146106bf578063477d66cf146106d2578063480cd578146106e557806349eefeee146106f857610525565b806317c62b171161049b5780631eb08380116104545780631eb08380146106695780631f68f20a1461067157806321e37801146106795780632b11551a1461068c5780632f8655681461069457806331c903b0146106a757610525565b806317c62b171461060257806318f2817a146106155780631a59a50e146106285780631bf435551461063b5780631d08837b146106435780631e8b1c2b1461065657610525565b80630d43e8ad116104ed5780630d43e8ad1461058b578063105bb15c146105a057806312610e92146105a857806313af4035146105bb57806315d549f1146105ce5780631673c79a146105e157610525565b806301f16e181461052a578063043782fb1461053f57806305b6f5ca14610547578063071a75411461055a5780630b07655714610578575b600080fd5b61053d610538366004614e61565b610aa3565b005b61053d611009565b61053d61055536600461502c565b61100f565b6105626110a6565b60405161056f9190615546565b60405180910390f35b61053d610586366004614d6a565b6110ab565b6105936110d3565b60405161056f919061510e565b6105626110e2565b6105626105b6366004614da2565b6110f1565b61053d6105c9366004614d6a565b611149565b6105626105dc366004614d6a565b61118a565b6105f46105ef366004614d6a565b6111ae565b60405161056f92919061554f565b610562610610366004614d6a565b6111c7565b610562610623366004614d6a565b6111d2565b610562610636366004614d6a565b6111e5565b6105626112ab565b61053d610651366004614f8f565b6112b8565b61053d610664366004614dcd565b6112bd565b61056261161e565b61056261162b565b610562610687366004614d6a565b611631565b61056261165b565b61053d6106a2366004614d6a565b611665565b6105626116cb565b6105936116d8565b6105936116e7565b6105626106cd366004614d6a565b6116f6565b6105626106e0366004614f8f565b611727565b6105626106f3366004614d6a565b61173a565b610562611758565b61056261070e366004614da2565b61175e565b610726610721366004614f8f565b61177d565b60405161056f9190615181565b610562610741366004614f8f565b611788565b610562610754366004614f8f565b611793565b61056261179e565b61053d61076f366004614da2565b61181b565b610562610782366004614d6a565b611867565b61053d611872565b6105626118dd565b6105626107a5366004614f8f565b6118e2565b6105626107b8366004614d6a565b6118ef565b61053d6107cb366004614f8f565b61190d565b610562611c97565b610562611ca9565b6107f36107ee366004614d6a565b611caf565b60405161056f959493929190615583565b610593611ce9565b61056261081a366004614da2565b611cf8565b610562611d55565b610593611d61565b61059361083d366004614f8f565b611d70565b610562611d97565b610562611da4565b610562611de9565b610562611f08565b610593611f0e565b610593611f1d565b610562611f2c565b6105626108883660046150b6565b611f32565b61053d61089b366004614d6a565b611f49565b61053d6108ae366004614d6a565b611f5a565b610562611fe6565b6105936120b5565b6105626120d4565b6105626108d9366004614da2565b6120da565b61056261210d565b610593612113565b6108f6612122565b60405161056f91906151b8565b610562610911366004614f8f565b61214a565b610593612155565b610593612164565b610562610934366004614d6a565b612173565b61059361219a565b61056261094f366004614f8f565b6121a9565b610967610962366004614d6a565b6121b4565b60405161056f94939291906155c3565b61053d610985366004614fbf565b612218565b6105626122ae565b6105626122b4565b6105626122ba565b6105626122de565b6105626122f0565b61053d6109c0366004614d6a565b6122fc565b6105626109d3366004614da2565b61230f565b61056261231b565b6105626109ee366004614da2565b612321565b610562610a01366004614f8f565b612357565b610562610a14366004614d6a565b61236a565b610593612385565b610593610a2f366004614f8f565b612394565b6105626123be565b61053d610a4a366004614d6a565b6123ee565b610726610a5d366004614d6a565b6123fb565b610726610a70366004614d6a565b612459565b610562612464565b61053d610a8b366004614d6a565b612471565b610562610a9e366004614f8f565b612482565b610aab6120b5565b6001600160a01b0316336001600160a01b031614610ae45760405162461bcd60e51b8152600401610adb906153a3565b60405180910390fd5b8051610aef90612493565b610afc8160200151612493565b610b098160400151612493565b610b168160600151612493565b610b238160800151612493565b610b308160a00151612493565b610b3d8160c00151612493565b610b4a8160e00151612493565b610b58816101000151612493565b610b66816101200151612493565b610b74816101400151612493565b610b82816101600151612493565b610b90816101800151612493565b610b9e816101a00151612493565b8051600c80546001600160a01b03199081166001600160a01b038085169190911790925560208401516004805483169184169190911790556040808501516003805484169185169190911790556060850151600580548416918516919091179055608085015160008054841691851691909117905560a085015160018054841691851691909117905560c085015160068054841691851691909117905560e0850151600780548416918516919091179055610100850151600880548416918516919091179055610120850151600280548416918516919091179055610140850151600980548416918516919091179055610160850151600d80548416918516919091179055610180850151600a805484169185169190911790556101a0850151600b80549093169316929092179055517f84861842e6a98dd759145eb5e7b48279d0f02ebeabc8a69e5196b2f4c5023db991610cf99161510e565b60405180910390a17f6493041f605f233753d9b16dd158c9f297b8eaca22b2d0dc402a454f5683a5b18160200151604051610d34919061510e565b60405180910390a17fbf65195e6d5213f6fcbce65b1454c925197a45e616dabd2e243542b039b050928160600151604051610d6f919061510e565b60405180910390a17f3ca631ffcd2a9b5d9ae18543fc82f58eb4ca33af9e6ab01b7a8e95331e6ed9858160600151604051610daa919061510e565b60405180910390a17f78f058b189175430c48dc02699e3a0031ea4ff781536dc2fab847de4babdd8828160800151604051610de5919061510e565b60405180910390a17f5ee0cae2f063ed938bb55046f6a932fb6ae792bf43624806bb90abe68a50be9b8160a00151604051610e20919061510e565b60405180910390a17f82966d27eea39b038ee0fa30cd16532bb24f6e65d31cb58fb227aa5766cdcc7f8160c00151604051610e5b919061510e565b60405180910390a17fcfb07d791fcafc032b35837b50eb84b74df518cf4cc287e8084f47630fa70fa08160e00151604051610e96919061510e565b60405180910390a17fe67f36a6e961157d6eff83b91f3af5a62131ceb6f04954ef74f51c1c05e7f88d816101000151604051610ed2919061510e565b60405180910390a17f8c537274438aa850a330284665d81a85dd38267d09e4050d416bfc94142db264816101200151604051610f0e919061510e565b60405180910390a17fcdf33850c44a1a874b5fefb51dae615ac6afebd581ef90d571f81b06541d8e9d816101400151604051610f4a919061510e565b60405180910390a17f65f4cf077bc01e4742eb5ad98326f6e95b63548ea24b17f8d5e823111fe78800816101600151604051610f86919061510e565b60405180910390a17f61e0c29d5028a9e4facaa476a46e78912e99f1ba945c9560b86b82ebe36ee52d816101800151604051610fc2919061510e565b60405180910390a17f7624075ed781e3aa34b0f492d70d1bb5a6fcde04534165e20f990d2e546be4dd816101a00151604051610ffe919061510e565b60405180910390a150565b42600f55565b6004546040516000916060916001600160a01b039091169061103490849036906150e1565b600060405180830381855af49150503d806000811461106f576040519150601f19603f3d011682016040523d82523d6000602084013e611074565b606091505b50915091508181906110995760405162461bcd60e51b8152600401610adb91906151b8565b5050505050505050505050565b600281565b6110b36124d8565b6000546001546110d0916001600160a01b03908116911683612504565b50565b600c546001600160a01b031681565b60006110ec612616565b905090565b60006110fb6124d8565b6001600160a01b038316600090815260106020526040812054611124908463ffffffff61263216565b6001600160a01b03851660009081526010602052604090208190559150505b92915050565b6111516120b5565b6001600160a01b0316336001600160a01b0316146111815760405162461bcd60e51b8152600401610adb906153a3565b6110d081612674565b60006111946124d8565b61119d826126ff565b6001600160801b031690505b919050565b6016602052600090815260409020805460019091015482565b6000611143826116f6565b60006111dc6124d8565b61114382612799565b6001600160a01b0381166000908152601660205260408120546014548290611213908363ffffffff61263216565b905080158061124c575060016001600160a01b03851660009081526010602052604090206003015460ff16600481111561124957fe5b14155b1561125c576000925050506111a9565b6001600160a01b038416600090815260106020526040812060020154906112a1670de0b6b3a7640000611295848663ffffffff61284c16565b9063ffffffff61288616565b9695505050505050565b6809c2007651b250000081565b600e55565b80516112db5760405162461bcd60e51b8152600401610adb906153d4565b6000546001546006546001600160a01b039283169291821691166112fd614c3d565b611305614c6e565b600260009054906101000a90046001600160a01b03166001600160a01b0316630fdb11cf6040518163ffffffff1660e01b8152600401602060405180830381600087803b15801561135557600080fd5b505af1158015611369573d6000803e3d6000fd5b505050506040513d601f19601f8201168201806040525081019061138d9190614fa7565b826000018181525050826001600160a01b031663bdaf37ea6040518163ffffffff1660e01b815260040160206040518083038186803b1580156113cf57600080fd5b505afa1580156113e3573d6000803e3d6000fd5b505050506040513d601f19601f820116820180604052508101906114079190614fa7565b60208301528151611417906128c8565b158015604084015261143f576114388585846000015185602001518a612963565b9050611457565b6114548585846000015185602001518a612c78565b90505b600081602001511161147b5760405162461bcd60e51b8152600401610adb906154b5565b608081015160a082015160405163335525ad60e01b81526001600160a01b0386169263335525ad926114af9260040161554f565b600060405180830381600087803b1580156114c957600080fd5b505af11580156114dd573d6000803e3d6000fd5b505050506114f585858360c001518460e00151612db8565b6101008101511561156c576008546101008201516040516364a197f360e01b81526001600160a01b03888116936364a197f393611539939290911691600401615168565b600060405180830381600087803b15801561155357600080fd5b505af1158015611567573d6000803e3d6000fd5b505050505b61157a85826040015161301c565b60208101516060830152610100810151604082015182516115b292916115a6919063ffffffff61263216565b9063ffffffff61263216565b608083018190526060808401516040808501519285015190517f4152c73dd2614c4f9fc35e8c9cf16013cd588c75b49a4c1673ecffdcbcda9403946115fa94909290916155c3565b60405180910390a161161685338360600151846040015161317d565b505050505050565b6801158e460913d0000090565b600e5481565b6001600160a01b03811660009081526010602052604081206003015460ff16600481111561114357fe5b60006110ec6116cb565b61166e8161325a565b60408051600180825281830190925260609160208083019080368337019050509050818160008151811061169e57fe5b60200260200101906001600160a01b031690816001600160a01b0316815250506116c7816112bd565b5050565b60006110ec600e546132a3565b600b546001600160a01b031681565b6001546001600160a01b031681565b6001600160a01b0381166000908152601660205260408120600101546015548290611213908363ffffffff61263216565b6000611143611734611c97565b83613340565b6001600160a01b031660009081526010602052604090206001015490565b60175490565b600080600061176c8561335e565b9150915060006112a18383876133e4565b6000611143826128c8565b600061114382613414565b60006111438261342f565b60035460408051635733d58f60e01b815290516000926001600160a01b031691635733d58f916004808301926020929190829003018186803b1580156117e357600080fd5b505afa1580156117f7573d6000803e3d6000fd5b505050506040513d601f19601f820116820180604052508101906110ec9190614fa7565b6118236124d8565b80600481111561182f57fe5b6001600160a01b0383166000908152601060205260409020600301805460ff1916600183600481111561185e57fe5b02179055505050565b6000611143826111e5565b61187a6124d8565b600061188461344a565b9050670de0b6b3a764000081111561189857fe5b600e8190556040517fc454ee9b76c52f782a256af821b857ca6e125d1e3333bcede402fec2bed9600c906118cd908390615546565b60405180910390a16110d061348e565b603c81565b6000611143611734612464565b6001600160a01b031660009081526010602052604090206002015490565b611915614cba565b506040805160e081018252600080546001600160a01b0390811683526001548116602084015292820181905260608201819052600d548316608083015260a0820181905260c082015260065490911661196c614c3d565b611974614c6e565b600260009054906101000a90046001600160a01b03166001600160a01b0316630fdb11cf6040518163ffffffff1660e01b8152600401602060405180830381600087803b1580156119c457600080fd5b505af11580156119d8573d6000803e3d6000fd5b505050506040513d601f19601f820116820180604052508101906119fc9190614fa7565b826000018181525050826001600160a01b031663bdaf37ea6040518163ffffffff1660e01b815260040160206040518083038186803b158015611a3e57600080fd5b505afa158015611a52573d6000803e3d6000fd5b505050506040513d601f19601f82011682018060405250810190611a769190614fa7565b60208301528151611a86906128c8565b1580156040840152611aad57611aa68483600001518460200151886134e3565b9050611acd565b611aca84600001518560200151846000015185602001518961398a565b90505b6000816020015111611af15760405162461bcd60e51b8152600401610adb906154b5565b608081015160a082015160405163335525ad60e01b81526001600160a01b0386169263335525ad92611b259260040161554f565b600060405180830381600087803b158015611b3f57600080fd5b505af1158015611b53573d6000803e3d6000fd5b50505050611b73846000015185602001518360c001518460e00151612db8565b61010081015115611bea5783516008546101008301516040516364a197f360e01b81526001600160a01b03938416936364a197f393611bb793911691600401615168565b600060405180830381600087803b158015611bd157600080fd5b505af1158015611be5573d6000803e3d6000fd5b505050505b611bfc8460000151826040015161301c565b6020810151606083015261010081015160408201518251611c2892916115a6919063ffffffff61263216565b608083018190526060808401516040808501519285015190517f4152c73dd2614c4f9fc35e8c9cf16013cd588c75b49a4c1673ecffdcbcda940394611c7094909290916155c3565b60405180910390a1611c908460000151338360600151846040015161317d565b5050505050565b60006110ec611ca461344a565b613b40565b60195481565b60106020526000908152604090208054600182015460028301546003909301549192909160ff81169061010090046001600160801b031685565b6004546001600160a01b031681565b6000611d026124d8565b6001600160a01b038316600090815260106020526040812060010154611d2e908463ffffffff613c2216565b6001600160a01b038516600090815260106020526040902060010181905591505092915050565b670de0b6b3a764000081565b6002546001600160a01b031681565b60178181548110611d7d57fe5b6000918252602090912001546001600160a01b0316905081565b6801158e460913d0000081565b60035460408051631e5395c960e21b815290516000926001600160a01b03169163794e5724916004808301926020929190829003018186803b1580156117e357600080fd5b60008054604080516272c7d360e71b8152905183926001600160a01b031691633963e980916004808301926020929190829003018186803b158015611e2d57600080fd5b505afa158015611e41573d6000803e3d6000fd5b505050506040513d601f19601f82011682018060405250810190611e659190614fa7565b90506000600160009054906101000a90046001600160a01b03166001600160a01b0316633963e9806040518163ffffffff1660e01b815260040160206040518083038186803b158015611eb757600080fd5b505afa158015611ecb573d6000803e3d6000fd5b505050506040513d601f19601f82011682018060405250810190611eef9190614fa7565b9050611f01828263ffffffff613c2216565b9250505090565b60185481565b600a546001600160a01b031681565b6000546001600160a01b031681565b60125481565b6000611f3f8484846133e4565b90505b9392505050565b611f516124d8565b6110d081613c47565b611f626120b5565b6001600160a01b0316336001600160a01b031614611f925760405162461bcd60e51b8152600401610adb906153a3565b611f9b81612493565b600480546001600160a01b0319166001600160a01b0383161790556040517f6493041f605f233753d9b16dd158c9f297b8eaca22b2d0dc402a454f5683a5b190610ffe90839061510e565b6000805460408051630a7b61df60e11b8152905183926001600160a01b0316916314f6c3be916004808301926020929190829003018186803b15801561202b57600080fd5b505afa15801561203f573d6000803e3d6000fd5b505050506040513d601f19601f820116820180604052508101906120639190614fa7565b90506000600160009054906101000a90046001600160a01b03166001600160a01b03166314f6c3be6040518163ffffffff1660e01b815260040160206040518083038186803b158015611eb757600080fd5b6000806040516120c4906150f1565b6040519081900390205492915050565b60135481565b60006120e46124d8565b6001600160a01b038316600090815260106020526040812054611124908463ffffffff613c2216565b60145481565b6003546001600160a01b031681565b6040518060400160405280600c81526020016b2a3937bb32a6b0b730b3b2b960a11b81525081565b600061114382613ca4565b6006546001600160a01b031681565b600d546001600160a01b031681565b60008060006121818461335e565b9150915060006121918383613d30565b95945050505050565b6005546001600160a01b031681565b600061114382613d65565b6001600160a01b038116600090815260106020526040812080546001909101549091806121e0856111c7565b91506121eb85611867565b90506121fd848363ffffffff613c2216565b935061220f838263ffffffff613c2216565b92509193509193565b6004546040516000916060916001600160a01b039091169061223d90849036906150e1565b600060405180830381855af49150503d8060008114612278576040519150601f19603f3d011682016040523d82523d6000602084013e61227d565b606091505b50915091508181906122a25760405162461bcd60e51b8152600401610adb91906151b8565b50505050505050505050565b60155481565b60115481565b7f000000000000000000000000000000000000000000000000000000000000000081565b60006110ec6122eb61344a565b6132a3565b670ddd4b8c6c7d70d881565b6123046124d8565b6110d0816002613d91565b6000611f42838361175e565b600f5481565b600061232b6124d8565b6001600160a01b038316600090815260106020526040812060010154611d2e908463ffffffff61263216565b60006111436123646122de565b83613ea6565b6001600160a01b031660009081526010602052604090205490565b6009546001600160a01b031681565b6000601782815481106123a357fe5b6000918252602090912001546001600160a01b031692915050565b60006123c861344a565b600e55670de0b6b3a7640000600e5411156123df57fe5b6123e761348e565b50600e5490565b6017546116c78282613ee6565b600060016001600160a01b03831660009081526010602052604090206003015460ff16600481111561242957fe5b14612436575060006111a9565b506014546001600160a01b03821660009081526016602052604090205410919050565b6000611143826123fb565b60006110ec600e54613b40565b6124796124d8565b6110d081614087565b600061248d826140d7565b50919050565b6001600160a01b0381166124b95760405162461bcd60e51b8152600401610adb90615284565b803b806116c75760405162461bcd60e51b8152600401610adb9061542a565b6005546001600160a01b031633146125025760405162461bcd60e51b8152600401610adb90615346565b565b61250d816123fb565b156126115761251b8161325a565b6000612526826111e5565b90506000612533836116f6565b6001600160a01b038416600090815260106020526040902060010154909150612562908363ffffffff613c2216565b6001600160a01b0384166000908152601060205260409020600181019190915554612593908263ffffffff613c2216565b6001600160a01b0384166000908152601060205260409020556125b583613c47565b6125c1858583856140e4565b6001600160a01b03831660008181526010602052604080822080546001820154600290920154925160008051602061566683398151915294612606949293929161518c565b60405180910390a250505b505050565b60006110ec603c611295600f544261263290919063ffffffff16565b6000611f4283836040518060400160405280601e81526020017f536166654d6174683a207375627472616374696f6e206f766572666c6f7700008152506141cc565b6001600160a01b03811661269a5760405162461bcd60e51b8152600401610adb90615242565b806001600160a01b03166126ac6120b5565b6001600160a01b03167f8be0079c531659141344cd1fd0a4f28419497f9722a3daafe3b4186f6b6457e060405160405180910390a360006040516126ef906150f1565b6040519081900390209190915550565b601780546001808201835560008381527fc624b66cc0138b8fabc209247f72d758e1cf3343756d543badbf24212bed8c1590920180546001600160a01b0319166001600160a01b0386161790559154909161275a9190612632565b6001600160a01b039290921660009081526010602052604090206003018054610100600160881b0319166101006001600160801b038516021790555090565b6001600160a01b03811660009081526010602052604081206001015481906127c0906141f8565b6001600160a01b03841660009081526010602052604090206002018054908290556011549192509061280a9083906127fe908463ffffffff61263216565b9063ffffffff613c2216565b60118190556040517f6bac5e0eb3c44eb03a60ab11ec3a2c051771616aecadbcfff2630aabae5203829161283d91615546565b60405180910390a15092915050565b60008261285b57506000611143565b8282028284828161286857fe5b0414611f425760405162461bcd60e51b8152600401610adb90615305565b6000611f4283836040518060400160405280601a81526020017f536166654d6174683a206469766973696f6e206279207a65726f000000000000815250614234565b6000806128d483613d65565b9050600360009054906101000a90046001600160a01b03166001600160a01b0316635733d58f6040518163ffffffff1660e01b815260040160206040518083038186803b15801561292457600080fd5b505afa158015612938573d6000803e3d6000fd5b505050506040513d601f19601f8201168201806040525081019061295c9190614fa7565b1192915050565b61296b614c6e565b612973614cf6565b61297b614c6e565b8482526000608083015261298d611de9565b60a083015261299a611fe6565b60c0830152600060208301525b835182602001511015612c6d57838260200151815181106129c457fe5b6020908102919091018101516001600160a01b03166060840181905260009081526010909152604090206003015460019060ff166004811115612a0357fe5b14612a0d57612c5d565b612a1b82606001518761175e565b60408301526080820151612b8257600360009054906101000a90046001600160a01b03166001600160a01b031663794e57246040518163ffffffff1660e01b815260040160206040518083038186803b158015612a7757600080fd5b505afa158015612a8b573d6000803e3d6000fd5b505050506040513d601f19601f82011682018060405250810190612aaf9190614fa7565b826040015110158015612ac157508151155b15612acb57612c5d565b6000612ae08360c001518460a00151896133e4565b9050612afd8989856060015186604001518760000151868d61426b565b60808101518451919350612b17919063ffffffff61263216565b8352608082015160a0840151612b329163ffffffff61263216565b60a08085019190915282015160c0840151612b529163ffffffff61263216565b60c0840152612b618483614641565b9350612b768360c001518460a0015189614758565b15608084015250612c5d565b81608001518015612c1b5750600360009054906101000a90046001600160a01b03166001600160a01b031663794e57246040518163ffffffff1660e01b815260040160206040518083038186803b158015612bdc57600080fd5b505afa158015612bf0573d6000803e3d6000fd5b505050506040513d601f19601f82011682018060405250810190612c149190614fa7565b8260400151105b15612c5d57612c348888846060015185600001516147f7565b60808101518351919250612c4e919063ffffffff61263216565b8252612c5a8382614641565b92505b60208201805160010190526129a7565b505095945050505050565b612c80614c6e565b612c88614cf6565b612c90614c6e565b848252600060208301525b835182602001511015612c6d5783826020015181518110612cb857fe5b60209081029190910101516001600160a01b031660608301819052612cdd908761175e565b6040808401919091526003548151631e5395c960e21b815291516001600160a01b039091169163794e5724916004808301926020929190829003018186803b158015612d2857600080fd5b505afa158015612d3c573d6000803e3d6000fd5b505050506040513d601f19601f82011682018060405250810190612d609190614fa7565b82604001511015612da857612d7f8888846060015185600001516147f7565b60808101518351919250612d99919063ffffffff61263216565b8252612da58382614641565b92505b6020820180516001019052612c9b565b81612dc257613016565b601854600090612de4906127fe84670de0b6b3a764000063ffffffff61284c16565b90506000612e096019546127fe670de0b6b3a76400008761284c90919063ffffffff16565b90506000612e226011548461288690919063ffffffff16565b90506000612e3b6011548461288690919063ffffffff16565b9050612e62612e556011548461284c90919063ffffffff16565b859063ffffffff61263216565b601855601154612e8a90612e7d90839063ffffffff61284c16565b849063ffffffff61263216565b601955601454612ea0908363ffffffff613c2216565b601455601554612eb6908263ffffffff613c2216565b60158190556014546040517f9f8bc8ab0daf5bceef75ecfd2085d1fcc6548c657ea970d9a23a60610d0737e392612eed929161554f565b60405180910390a160405163121cbc4d60e11b81526001600160a01b03891690632439789a90612f21908990600401615546565b600060405180830381600087803b158015612f3b57600080fd5b505af1158015612f4f573d6000803e3d6000fd5b505060405163f2e91d7160e01b81526001600160a01b038a16925063f2e91d719150612f7f908990600401615546565b600060405180830381600087803b158015612f9957600080fd5b505af1158015612fad573d6000803e3d6000fd5b50506040516364a197f360e01b81526001600160a01b038b1692506364a197f39150612fdf908a908990600401615168565b600060405180830381600087803b158015612ff957600080fd5b505af115801561300d573d6000803e3d6000fd5b50505050505050505b50505050565b6011546012819055506000826001600160a01b03166314f6c3be6040518163ffffffff1660e01b815260040160206040518083038186803b15801561306057600080fd5b505afa158015613074573d6000803e3d6000fd5b505050506040513d601f19601f820116820180604052508101906130989190614fa7565b90506000600160009054906101000a90046001600160a01b03166001600160a01b03166314f6c3be6040518163ffffffff1660e01b815260040160206040518083038186803b1580156130ea57600080fd5b505afa1580156130fe573d6000803e3d6000fd5b505050506040513d601f19601f820116820180604052508101906131229190614fa7565b9050613138816127fe848663ffffffff61263216565b60138190556012546040517f51bf4c63ec3cba9d03d43238abbdd979dd91bd16d9895c74ceea9118c7baaf609261316f929161554f565b60405180910390a150505050565b81156131ee57600954600754604051631062c15f60e11b81526001600160a01b03928316926320c582be926131bb9291169087908790600401615122565b600060405180830381600087803b1580156131d557600080fd5b505af11580156131e9573d6000803e3d6000fd5b505050505b8015613016576040516364a197f360e01b81526001600160a01b038516906364a197f3906132229086908590600401615168565b600060405180830381600087803b15801561323c57600080fd5b505af1158015613250573d6000803e3d6000fd5b5050505050505050565b60016001600160a01b03821660009081526010602052604090206003015460ff16600481111561328657fe5b146110d05760405162461bcd60e51b8152600401610adb906154f7565b600061114361333283600360009054906101000a90046001600160a01b03166001600160a01b03166328d28b5b6040518163ffffffff1660e01b815260040160206040518083038186803b1580156132fa57600080fd5b505afa15801561330e573d6000803e3d6000fd5b505050506040513d601f19601f820116820180604052508101906127fe9190614fa7565b670de0b6b3a7640000614929565b6000611f42670de0b6b3a7640000611295858563ffffffff61284c16565b600080600061336c846111e5565b90506000613379856116f6565b6001600160a01b038616600090815260106020526040812060010154919250906133a9908463ffffffff613c2216565b6001600160a01b038716600090815260106020526040812054919250906133d6908463ffffffff613c2216565b919550909350505050915091565b6000821561340b57600061340284611295878663ffffffff61284c16565b9150611f429050565b50600019611f42565b6000611143826801158e460913d0000063ffffffff613c2216565b6000611143826801158e460913d0000063ffffffff61263216565b600080613455612616565b9050600061346b670ddd4b8c6c7d70d88361493f565b9050611f01670de0b6b3a764000061129583600e5461284c90919063ffffffff16565b60006134a5600f544261263290919063ffffffff16565b9050603c81106110d05742600f8190556040517f860f8d2f0c74dd487e89e2883e3b25b8159ce1e1b3433a291cba7b82c508f3bc91610ffe91615546565b6134eb614c6e565b6134f3614cf6565b6134fb614c6e565b8482526000608083015261350d611de9565b60a083015261351a611fe6565b8260c001818152505086608001516001600160a01b0316634d6228316040518163ffffffff1660e01b815260040160206040518083038186803b15801561356057600080fd5b505afa158015613574573d6000803e3d6000fd5b505050506040513d601f19601f820116820180604052508101906135989190614d86565b82606001906001600160a01b031690816001600160a01b031681525050600087608001516001600160a01b0316631e2231436040518163ffffffff1660e01b815260040160206040518083038186803b1580156135f457600080fd5b505afa158015613608573d6000803e3d6000fd5b505050506040513d601f19601f8201168201806040525081019061362c9190614d86565b6000602085015290505b84836020015110801561365f5750806001600160a01b031683606001516001600160a01b031614155b1561397f5760808801516060840151604051632dc9c0eb60e21b81526000926001600160a01b03169163b72703ac9161369b919060040161510e565b60206040518083038186803b1580156136b357600080fd5b505afa1580156136c7573d6000803e3d6000fd5b505050506040513d601f19601f820116820180604052508101906136eb9190614d86565b90506136fb84606001518961175e565b6040850152608084015161387457600360009054906101000a90046001600160a01b03166001600160a01b031663794e57246040518163ffffffff1660e01b815260040160206040518083038186803b15801561375757600080fd5b505afa15801561376b573d6000803e3d6000fd5b505050506040513d601f19601f8201168201806040525081019061378f9190614fa7565b8460400151101580156137a157508351155b156137ac575061397f565b60006137c18560c001518660a001518b6133e4565b8a5160208c01516060880151604089015189519495506137e294868f61426b565b608081015186519195506137fc919063ffffffff61263216565b8552608084015160a08601516138179163ffffffff61263216565b8560a00181815250506138448461010001516115a68660a001518860c0015161263290919063ffffffff16565b60c08601526138538685614641565b95506138688560c001518660a001518b614758565b15608086015250613961565b8360800151801561390d5750600360009054906101000a90046001600160a01b03166001600160a01b031663794e57246040518163ffffffff1660e01b815260040160206040518083038186803b1580156138ce57600080fd5b505afa1580156138e2573d6000803e3d6000fd5b505050506040513d601f19601f820116820180604052508101906139069190614fa7565b8460400151105b1561395b5761392e89600001518a60200151866060015187600001516147f7565b60808101518551919450613948919063ffffffff61263216565b84526139548584614641565b9450613961565b5061397f565b6001600160a01b031660608401526020830180516001019052613636565b505050949350505050565b613992614c6e565b61399a614cf6565b6139a2614c6e565b600d54858352600060208401526001600160a01b03165b8483602001511015613b3457806001600160a01b0316634d6228316040518163ffffffff1660e01b815260040160206040518083038186803b1580156139fe57600080fd5b505afa158015613a12573d6000803e3d6000fd5b505050506040513d601f19601f82011682018060405250810190613a369190614d86565b6001600160a01b031660608401819052613a50908861175e565b6040808501919091526003548151631e5395c960e21b815291516001600160a01b039091169163794e5724916004808301926020929190829003018186803b158015613a9b57600080fd5b505afa158015613aaf573d6000803e3d6000fd5b505050506040513d601f19601f82011682018060405250810190613ad39190614fa7565b83604001511015613b1f57613af28989856060015186600001516147f7565b60808101518451919350613b0c919063ffffffff61263216565b8352613b188483614641565b9350613b24565b613b34565b60208301805160010190526139b9565b50505095945050505050565b6000611143613b9783600360009054906101000a90046001600160a01b03166001600160a01b031663f92d34336040518163ffffffff1660e01b815260040160206040518083038186803b1580156132fa57600080fd5b600360009054906101000a90046001600160a01b03166001600160a01b031663240926696040518163ffffffff1660e01b815260040160206040518083038186803b158015613be557600080fd5b505afa158015613bf9573d6000803e3d6000fd5b505050506040513d601f19601f82011682018060405250810190613c1d9190614fa7565b614929565b600082820183811015611f425760405162461bcd60e51b8152600401610adb9061520b565b601480546001600160a01b038316600090815260166020526040908190209182556015546001909201829055915491517fc437f324d85e369394148dd9d62f98f534b382e01ed3dd2eb98138fb6d3ab49a92610ffe92909161554f565b600354604080516324386ecd60e11b815290516000926001600160a01b031691634870dd9a916004808301926020929190829003018186803b158015613ce957600080fd5b505afa158015613cfd573d6000803e3d6000fd5b505050506040513d601f19601f82011682018060405250810190613d219190614fa7565b8281613d2957fe5b0492915050565b60008115613d5c57613d55826112958568056bc75e2d6310000063ffffffff61284c16565b9050611143565b50600019611143565b600080613d70611fe6565b90506000613d7c611de9565b9050613d898282866133e4565b949350505050565b6000816004811115613d9f57fe5b14158015613db957506001816004811115613db657fe5b14155b613dbf57fe5b601754613dcb816149ea565b6001600160a01b0383166000908152601060205260409020600301805483919060ff19166001836004811115613dfd57fe5b02179055506001600160a01b0383166000908152601060209081526040808320600180820185905590849055601690925282208281550155613e3f8382613ee6565b600d54604051631484968760e11b81526001600160a01b03909116906329092d0e90613e6f90869060040161510e565b600060405180830381600087803b158015613e8957600080fd5b505af1158015613e9d573d6000803e3d6000fd5b50505050505050565b600080613ec5670de0b6b3a7640000611295868663ffffffff61284c16565b9050828110611f425760405162461bcd60e51b8152600401610adb9061545f565b6001600160a01b03821660009081526010602052604081206003015460ff1690816004811115613f1257fe5b14158015613f2c57506001816004811115613f2957fe5b14155b613f3257fe5b6001600160a01b03831660009081526010602052604081206003015461010090046001600160801b0316908390613f6a826001612632565b905080836001600160801b03161115613f7f57fe5b600060178281548110613f8e57fe5b600091825260209091200154601780546001600160a01b03909216925082916001600160801b038716908110613fc057fe5b600091825260208083209190910180546001600160a01b0319166001600160a01b03948516179055918316815260109091526040908190206003018054610100600160881b0319166101006001600160801b03881602179055517f02b04ae5f7be9ca7c103293a2aa15f3c339d15d6eda53b721fef7b0e609c831a906140499083908790615146565b60405180910390a1601780548061405c57fe5b600082815260209020810160001990810180546001600160a01b031916905501905550505050505050565b6001600160a01b0381166000908152601060205260409020600201546011546140b6908263ffffffff61263216565b601155506001600160a01b0316600090815260106020526040812060020155565b60006111436123646116cb565b60405163121cbc4d60e11b81526001600160a01b03841690632439789a90614110908590600401615546565b600060405180830381600087803b15801561412a57600080fd5b505af115801561413e573d6000803e3d6000fd5b505060405163f2e91d7160e01b81526001600160a01b038716925063f2e91d71915061416e908590600401615546565b600060405180830381600087803b15801561418857600080fd5b505af115801561419c573d6000803e3d6000fd5b505060405163be41205f60e01b81526001600160a01b038616925063be41205f9150613222908490600401615546565b600081848411156141f05760405162461bcd60e51b8152600401610adb91906151b8565b505050900390565b6000806013546000141561420d575081611143565b60006012541161421957fe5b611f426013546112956012548661284c90919063ffffffff16565b600081836142555760405162461bcd60e51b8152600401610adb91906151b8565b50600083858161426157fe5b0495945050505050565b614273614c6e565b61427b614d3e565b60175460011061428b5750614636565b614294876121b4565b604085015260208481019190915284018190529083526142b390613ca4565b604083018190526801158e460913d00000606084015260208301516142dd9163ffffffff61263216565b8152670de0b6b3a764000086116143a8576143028989836020015184604001516140e4565b61430b87614087565b60006080830181905260a0830152815160c0830152805160e0830152614332876003613d91565b815160208301516040516001600160a01b038a1692600080516020615646833981519152926143639260029061555d565b60405180910390a2866001600160a01b03166000805160206156668339815191526000806000600260405161439b949392919061518c565b60405180910390a2614634565b670de0b6b3a7640000861180156144435750600360009054906101000a90046001600160a01b03166001600160a01b031663794e57246040518163ffffffff1660e01b815260040160206040518083038186803b15801561440857600080fd5b505afa15801561441c573d6000803e3d6000fd5b505050506040513d601f19601f820116820180604052508101906144409190614fa7565b86105b156144935761445c8989836020015184604001516140e4565b61446587614087565b81518151614474919087614a90565b60e086015260c085015260a08401526080830152614332876003613d91565b600360009054906101000a90046001600160a01b03166001600160a01b031663794e57246040518163ffffffff1660e01b815260040160206040518083038186803b1580156144e157600080fd5b505afa1580156144f5573d6000803e3d6000fd5b505050506040513d601f19601f820116820180604052508101906145199190614fa7565b861015801561452757508386105b8015614534575081518510155b156146235761454d8989836020015184604001516140e4565b8461455457fe5b61455d87614087565b6145708260000151836020015185614afc565b915061457d876003613d91565b610100820151156145f257600854610100830151604051633f10abab60e01b81526001600160a01b0390921691633f10abab916145bf918b9190600401615168565b600060405180830381600087803b1580156145d957600080fd5b505af11580156145ed573d6000803e3d6000fd5b505050505b815160a08301516040516001600160a01b038a1692600080516020615646833981519152926143639260029061555d565b61462b614c6e565b91506146369050565b505b979650505050505050565b614649614c6e565b604080830151908401516146629163ffffffff613c2216565b6040820152606080830151908401516146809163ffffffff613c2216565b60608201528151602084015161469b9163ffffffff613c2216565b60208083019190915282015183516146b89163ffffffff613c2216565b8152608080830151908401516146d39163ffffffff613c2216565b608082015260a080830151908401516146f19163ffffffff613c2216565b60a082015260c0808301519084015161470f9163ffffffff613c2216565b60c082015260e0808301519084015161472d9163ffffffff613c2216565b60e0820152610100808301519084015161474c9163ffffffff613c2216565b61010082015292915050565b6000806147668585856133e4565b9050600360009054906101000a90046001600160a01b03166001600160a01b0316635733d58f6040518163ffffffff1660e01b815260040160206040518083038186803b1580156147b657600080fd5b505afa1580156147ca573d6000803e3d6000fd5b505050506040513d601f19601f820116820180604052508101906147ee9190614fa7565b11949350505050565b6147ff614c6e565b614807614d3e565b614810846121b4565b6040850190815260208581019283528601929092529184529051905161483a9188918891906140e4565b61484384614087565b6148508260200151613ca4565b604083018190526801158e460913d000006060840152602083015160009161487e919063ffffffff61263216565b905061488f83600001518286614a90565b60e087015260c086015260a085015260808401526148ae856003613d91565b825160208401516040516001600160a01b03881692600080516020615646833981519152926148df9260019061555d565b60405180910390a2846001600160a01b031660008051602061566683398151915260008060006001604051614917949392919061518c565b60405180910390a25050949350505050565b60008183106149385781611f42565b5090919050565b6000631f54050082111561495557631f54050091505b816149695750670de0b6b3a7640000611143565b670de0b6b3a764000083835b60018111156149e057600281066149aa576149908283614c0a565b91506149a381600263ffffffff61288616565b90506149db565b6149b48284614c0a565b92506149c08283614c0a565b91506149d8600261129583600163ffffffff61263216565b90505b614975565b6112a18284614c0a565b600181118015614a745750600d546040805163de8fa43160e01b815290516001926001600160a01b03169163de8fa431916004808301926020929190829003018186803b158015614a3a57600080fd5b505afa158015614a4e573d6000803e3d6000fd5b505050506040513d601f19601f82011682018060405250810190614a729190614fa7565b115b6110d05760405162461bcd60e51b8152600401610adb906152bb565b60008080808415614ae657614aa58786614929565b9350614abb87611295888763ffffffff61284c16565b9250614acd878563ffffffff61263216565b9150614adf868463ffffffff61263216565b9050614af3565b5060009250829150859050845b93509350935093565b614b04614c6e565b838152602080820184905260035460408051631e5395c960e21b81529051600093614ba0938793611295936001600160a01b039092169263794e572492600480840193829003018186803b158015614b5b57600080fd5b505afa158015614b6f573d6000803e3d6000fd5b505050506040513d601f19601f82011682018060405250810190614b939190614fa7565b889063ffffffff61284c16565b9050614bab81613ca4565b604083018190526801158e460913d00000606084015260808301869052614bd990829063ffffffff61263216565b60a0830152614bee848263ffffffff61263216565b61010083015250600060c0820181905260e08201529392505050565b600080614c1d848463ffffffff61284c16565b9050613d89670de0b6b3a7640000611295836706f05b59d3b20000613c22565b6040518060a00160405280600081526020016000815260200160001515815260200160008152602001600081525090565b6040518061012001604052806000815260200160008152602001600081526020016000815260200160008152602001600081526020016000815260200160008152602001600081525090565b6040805160e081018252600080825260208201819052918101829052606081018290526080810182905260a0810182905260c081019190915290565b6040518060e0016040528060008152602001600081526020016000815260200160006001600160a01b0316815260200160001515815260200160008152602001600081525090565b60405180606001604052806000815260200160008152602001600081525090565b803561114381615630565b600060208284031215614d7b578081fd5b8135611f4281615630565b600060208284031215614d97578081fd5b8151611f4281615630565b60008060408385031215614db4578081fd5b8235614dbf81615630565b946020939093013593505050565b60006020808385031215614ddf578182fd5b823567ffffffffffffffff811115614df5578283fd5b80840185601f820112614e06578384fd5b80359150614e1b614e1683615605565b6155de565b8281528381019082850185850284018601891015614e37578687fd5b8693505b8484101561463457614e4d8982614d5f565b835260019390930192918501918501614e3b565b60006101c0808385031215614e74578182fd5b614e7d816155de565b614e878585614d5f565b8152614e968560208601614d5f565b6020820152614ea88560408601614d5f565b6040820152614eba8560608601614d5f565b6060820152614ecc8560808601614d5f565b6080820152614ede8560a08601614d5f565b60a0820152614ef08560c08601614d5f565b60c0820152614f028560e08601614d5f565b60e08201526101009150614f1885838601614d5f565b828201526101209150614f2d85838601614d5f565b828201526101409150614f4285838601614d5f565b828201526101609150614f5785838601614d5f565b828201526101809150614f6c85838601614d5f565b828201526101a09150614f8185838601614d5f565b918101919091529392505050565b600060208284031215614fa0578081fd5b5035919050565b600060208284031215614fb8578081fd5b5051919050565b600080600080600080600060e0888a031215614fd9578283fd5b873596506020880135614feb81615630565b95506040880135614ffb81615630565b9450606088013561500b81615630565b9699959850939660808101359560a0820135955060c0909101359350915050565b600080600080600080600080888a03610160811215615049578182fd5b8935985060208a013561505b81615630565b975060408a013561506b81615630565b965060608a013561507b81615630565b955060808a810135955060a08b0135945060c08b0135935060df19820112156150a2578182fd5b5060e0890190509295985092959890939650565b6000806000606084860312156150ca578283fd5b505081359360208301359350604090920135919050565b6000828483379101908152919050565b7035b2bc9737bbb730b136329737bbb732b960791b815260110190565b6001600160a01b0391909116815260200190565b6001600160a01b039384168152919092166020820152604081019190915260600190565b6001600160a01b039290921682526001600160801b0316602082015260400190565b6001600160a01b03929092168252602082015260400190565b901515815260200190565b8481526020810184905260408101839052608081016151aa83615625565b606083015295945050505050565b6000602080835283518082850152825b818110156151e4578581018301518582016040015282016151c8565b818111156151f55783604083870101525b50601f01601f1916929092016040019392505050565b6020808252601b908201527f536166654d6174683a206164646974696f6e206f766572666c6f770000000000604082015260600190565b60208082526022908201527f4f776e61626c653a3a7365744f776e65723a20696e76616c6964206164647265604082015261737360f01b606082015260800190565b6020808252601e908201527f4163636f756e742063616e6e6f74206265207a65726f20616464726573730000604082015260600190565b6020808252602a908201527f54726f76654d616e616765723a204f6e6c79206f6e652074726f766520696e206040820152697468652073797374656d60b01b606082015260800190565b60208082526021908201527f536166654d6174683a206d756c7469706c69636174696f6e206f766572666c6f6040820152607760f81b606082015260800190565b6020808252603b908201527f54726f76654d616e616765723a2043616c6c6572206973206e6f74207468652060408201527f426f72726f7765724f7065726174696f6e7320636f6e74726163740000000000606082015260800190565b60208082526017908201527613dddb98589b194e8e881858d8d95cdcc819195b9a5959604a1b604082015260600190565b60208082526036908201527f54726f76654d616e616765723a2043616c6c646174612061646472657373206160408201527572726179206d757374206e6f7420626520656d70747960501b606082015260800190565b6020808252818101527f4163636f756e7420636f64652073697a652063616e6e6f74206265207a65726f604082015260600190565b60208082526036908201527f54726f76654d616e616765723a2046656520776f756c642065617420757020616040820152751b1b081c995d1d5c9b99590818dbdb1b185d195c985b60521b606082015260800190565b60208082526022908201527f54726f76654d616e616765723a206e6f7468696e6720746f206c697175696461604082015261746560f01b606082015260800190565b6020808252602f908201527f54726f76654d616e616765723a2054726f766520646f6573206e6f742065786960408201526e1cdd081bdc881a5cc818db1bdcd959608a1b606082015260800190565b90815260200190565b918252602082015260400190565b83815260208101839052606081016004831061557557fe5b826040830152949350505050565b858152602081018590526040810184905260a08101600584106155a257fe5b60608201939093526001600160801b03919091166080909101529392505050565b93845260208401929092526040830152606082015260800190565b60405181810167ffffffffffffffff811182821017156155fd57600080fd5b604052919050565b600067ffffffffffffffff82111561561b578081fd5b5060209081020190565b80600481106111a957fe5b6001600160a01b03811681146110d057600080fdfeea67486ed7ebe3eea8ab3390efd4a3c8aae48be5bea27df104a8af786c408434c3770d654ed33aeea6bf11ac8ef05d02a6a04ed4686dd2f624d853bbec43cc8ba2646970667358221220fa638268bd477a34983ec9709b7e8ae76c286d60c7d4262c98e769f0e17c4a4664736f6c634300060b0033",
  "linkReferences": {},
  "deployedLinkReferences": {}
}