{
  "_format": "hh-sol-artifact-1",
  "contractName": "WRBTCTokenTester",
  "sourceName": "contracts/TestContracts/WRBTCTokenTester.sol",
  "abi": [
    {
      "anonymous": false,
      "inputs": [
        {
          "indexed": true,
          "internalType": "address",
          "name": "src",
          "type": "address"
        },
        {
          "indexed": true,
          "internalType": "address",
          "name": "guy",
          "type": "address"
        },
        {
          "indexed": false,
          "internalType": "uint256",
          "name": "wad",
          "type": "uint256"
        }
      ],
      "name": "Approval",
      "type": "event"
    },
    {
      "anonymous": false,
      "inputs": [
        {
          "indexed": true,
          "internalType": "address",
          "name": "dst",
          "type": "address"
        },
        {
          "indexed": false,
          "internalType": "uint256",
          "name": "wad",
          "type": "uint256"
        }
      ],
      "name": "Deposit",
      "type": "event"
    },
    {
      "anonymous": false,
      "inputs": [
        {
          "indexed": true,
          "internalType": "address",
          "name": "src",
          "type": "address"
        },
        {
          "indexed": true,
          "internalType": "address",
          "name": "dst",
          "type": "address"
        },
        {
          "indexed": false,
          "internalType": "uint256",
          "name": "wad",
          "type": "uint256"
        }
      ],
      "name": "Transfer",
      "type": "event"
    },
    {
      "anonymous": false,
      "inputs": [
        {
          "indexed": true,
          "internalType": "address",
          "name": "src",
          "type": "address"
        },
        {
          "indexed": false,
          "internalType": "uint256",
          "name": "wad",
          "type": "uint256"
        }
      ],
      "name": "Withdrawal",
      "type": "event"
    },
    {
      "stateMutability": "payable",
      "type": "fallback"
    },
    {
      "inputs": [
        {
          "internalType": "address",
          "name": "",
          "type": "address"
        },
        {
          "internalType": "address",
          "name": "",
          "type": "address"
        }
      ],
      "name": "allowance",
      "outputs": [
        {
          "internalType": "uint256",
          "name": "",
          "type": "uint256"
        }
      ],
      "stateMutability": "view",
      "type": "function"
    },
    {
      "inputs": [
        {
          "internalType": "address",
          "name": "guy",
          "type": "address"
        },
        {
          "internalType": "uint256",
          "name": "wad",
          "type": "uint256"
        }
      ],
      "name": "approve",
      "outputs": [
        {
          "internalType": "bool",
          "name": "",
          "type": "bool"
        }
      ],
      "stateMutability": "nonpayable",
      "type": "function"
    },
    {
      "inputs": [
        {
          "internalType": "address",
          "name": "",
          "type": "address"
        }
      ],
      "name": "balanceOf",
      "outputs": [
        {
          "internalType": "uint256",
          "name": "",
          "type": "uint256"
        }
      ],
      "stateMutability": "view",
      "type": "function"
    },
    {
      "inputs": [
        {
          "internalType": "address",
          "name": "_who",
          "type": "address"
        },
        {
          "internalType": "uint256",
          "name": "_value",
          "type": "uint256"
        }
      ],
      "name": "burn",
      "outputs": [],
      "stateMutability": "nonpayable",
      "type": "function"
    },
    {
      "inputs": [],
      "name": "decimals",
      "outputs": [
        {
          "internalType": "uint8",
          "name": "",
          "type": "uint8"
        }
      ],
      "stateMutability": "view",
      "type": "function"
    },
    {
      "inputs": [],
      "name": "deposit",
      "outputs": [],
      "stateMutability": "payable",
      "type": "function"
    },
    {
      "inputs": [
        {
          "internalType": "address",
          "name": "_to",
          "type": "address"
        },
        {
          "internalType": "uint256",
          "name": "_value",
          "type": "uint256"
        }
      ],
      "name": "mint",
      "outputs": [],
      "stateMutability": "nonpayable",
      "type": "function"
    },
    {
      "inputs": [],
      "name": "name",
      "outputs": [
        {
          "internalType": "string",
          "name": "",
          "type": "string"
        }
      ],
      "stateMutability": "view",
      "type": "function"
    },
    {
      "inputs": [],
      "name": "symbol",
      "outputs": [
        {
          "internalType": "string",
          "name": "",
          "type": "string"
        }
      ],
      "stateMutability": "view",
      "type": "function"
    },
    {
      "inputs": [],
      "name": "totalSupply",
      "outputs": [
        {
          "internalType": "uint256",
          "name": "",
          "type": "uint256"
        }
      ],
      "stateMutability": "view",
      "type": "function"
    },
    {
      "inputs": [
        {
          "internalType": "address",
          "name": "dst",
          "type": "address"
        },
        {
          "internalType": "uint256",
          "name": "wad",
          "type": "uint256"
        }
      ],
      "name": "transfer",
      "outputs": [
        {
          "internalType": "bool",
          "name": "",
          "type": "bool"
        }
      ],
      "stateMutability": "nonpayable",
      "type": "function"
    },
    {
      "inputs": [
        {
          "internalType": "address",
          "name": "src",
          "type": "address"
        },
        {
          "internalType": "address",
          "name": "dst",
          "type": "address"
        },
        {
          "internalType": "uint256",
          "name": "wad",
          "type": "uint256"
        }
      ],
      "name": "transferFrom",
      "outputs": [
        {
          "internalType": "bool",
          "name": "",
          "type": "bool"
        }
      ],
      "stateMutability": "nonpayable",
      "type": "function"
    },
    {
      "inputs": [
        {
          "internalType": "uint256",
          "name": "wad",
          "type": "uint256"
        }
      ],
      "name": "withdraw",
      "outputs": [],
      "stateMutability": "nonpayable",
      "type": "function"
    }
  ],
  "bytecode": "0x60c0604052600b60808190526a577261707065642042544360a81b60a090815261002c9160009190610079565b5060408051808201909152600580825264575242544360d81b602090920191825261005991600191610079565b506002805460ff1916601217905534801561007357600080fd5b50610114565b828054600181600116156101000203166002900490600052602060002090601f016020900481019282601f106100ba57805160ff19168380011785556100e7565b828001600101855582156100e7579182015b828111156100e75782518255916020019190600101906100cc565b506100f39291506100f7565b5090565b61011191905b808211156100f357600081556001016100fd565b90565b6108b4806101236000396000f3fe6080604052600436106100b25760003560e01c806340c10f191161006f57806340c10f191461025257806370a082311461028b57806395d89b41146102be5780639dc29fac146102d3578063a9059cbb1461030c578063d0e30db0146100b2578063dd62ed3e14610345576100b2565b806306fdde03146100bc578063095ea7b31461014657806318160ddd1461019357806323b872dd146101ba5780632e1a7d4d146101fd578063313ce56714610227575b6100ba610380565b005b3480156100c857600080fd5b506100d16103cf565b6040805160208082528351818301528351919283929083019185019080838360005b8381101561010b5781810151838201526020016100f3565b50505050905090810190601f1680156101385780820380516001836020036101000a031916815260200191505b509250505060405180910390f35b34801561015257600080fd5b5061017f6004803603604081101561016957600080fd5b506001600160a01b03813516906020013561045d565b604080519115158252519081900360200190f35b34801561019f57600080fd5b506101a86104c3565b60408051918252519081900360200190f35b3480156101c657600080fd5b5061017f600480360360608110156101dd57600080fd5b506001600160a01b038135811691602081013590911690604001356104c7565b34801561020957600080fd5b506100ba6004803603602081101561022057600080fd5b50356105e9565b34801561023357600080fd5b5061023c61067e565b6040805160ff9092168252519081900360200190f35b34801561025e57600080fd5b506100ba6004803603604081101561027557600080fd5b506001600160a01b038135169060200135610687565b34801561029757600080fd5b506101a8600480360360208110156102ae57600080fd5b50356001600160a01b0316610719565b3480156102ca57600080fd5b506100d161072b565b3480156102df57600080fd5b506100ba600480360360408110156102f657600080fd5b506001600160a01b038135169060200135610785565b34801561031857600080fd5b5061017f6004803603604081101561032f57600080fd5b506001600160a01b03813516906020013561082d565b34801561035157600080fd5b506101a86004803603604081101561036857600080fd5b506001600160a01b0381358116916020013516610841565b33600081815260036020908152604091829020805434908101909155825190815291517fe1fffcc4923d04b559f4d29a8bfc6cda04eb5b0d3c460751c2402c5c5cc9109c9281900390910190a2565b6000805460408051602060026001851615610100026000190190941693909304601f810184900484028201840190925281815292918301828280156104555780601f1061042a57610100808354040283529160200191610455565b820191906000526020600020905b81548152906001019060200180831161043857829003601f168201915b505050505081565b3360008181526004602090815260408083206001600160a01b038716808552908352818420869055815186815291519394909390927f8c5be1e5ebec7d5bd14f71427d1e84f3dd0314c0f7b2291e5b200ac8c7c3b925928290030190a350600192915050565b4790565b6001600160a01b0383166000908152600360205260408120548211156104ec57600080fd5b6001600160a01b038416331480159061052a57506001600160a01b038416600090815260046020908152604080832033845290915290205460001914155b1561058a576001600160a01b038416600090815260046020908152604080832033845290915290205482111561055f57600080fd5b6001600160a01b03841660009081526004602090815260408083203384529091529020805483900390555b6001600160a01b038085166000818152600360209081526040808320805488900390559387168083529184902080548701905583518681529351919360008051602061085f833981519152929081900390910190a35060019392505050565b3360009081526003602052604090205481111561060557600080fd5b33600081815260036020526040808220805485900390555183156108fc0291849190818181858888f19350505050158015610644573d6000803e3d6000fd5b5060408051828152905133917f7fcf532c15f0a6db0bd6d0e038bea71d30d808c7d98cb3bf7268a95bf5081b65919081900360200190a250565b60025460ff1681565b6001600160a01b0382166106d4576040805162461bcd60e51b815260206004820152600f60248201526e1b9bc8189d5c9b88185b1b1bddd959608a1b604482015290519081900360640190fd5b6001600160a01b03821660008181526003602090815260408083208054860190558051858152905160008051602061085f833981519152929181900390910190a35050565b60036020526000908152604090205481565b60018054604080516020600284861615610100026000190190941693909304601f810184900484028201840190925281815292918301828280156104555780601f1061042a57610100808354040283529160200191610455565b6001600160a01b0382166000908152600360205260409020548111156107e4576040805162461bcd60e51b815260206004820152600f60248201526e62616c616e636520746f6f206c6f7760881b604482015290519081900360640190fd5b6001600160a01b0382166000818152600360209081526040808320805486900390558051858152905192939260008051602061085f833981519152929181900390910190a35050565b600061083a3384846104c7565b9392505050565b60046020908152600092835260408084209091529082529020548156feddf252ad1be2c89b69c2b068fc378daa952ba7f163c4a11628f55a4df523b3efa2646970667358221220162ffe589535e0a8b0bdf192cfefd7becbd7fb0984b535b54ee44a02a922b1ab64736f6c634300060b0033",
  "linkReferences": {},
  "deployedLinkReferences": {}
}