{
  "_format": "hh-sol-artifact-1",
  "contractName": "ZEROTokenTester",
  "sourceName": "contracts/TestContracts/ZEROTokenTester.sol",
  "abi": [
    {
      "inputs": [
        {
          "internalType": "address",
          "name": "_zeroStakingAddress",
          "type": "address"
        },
        {
          "internalType": "address",
          "name": "_marketMakerAddress",
          "type": "address"
        },
        {
          "internalType": "address",
          "name": "_presaleAddress",
          "type": "address"
        }
      ],
      "stateMutability": "nonpayable",
      "type": "constructor"
    },
    {
      "anonymous": false,
      "inputs": [
        {
          "indexed": true,
          "internalType": "address",
          "name": "owner",
          "type": "address"
        },
        {
          "indexed": true,
          "internalType": "address",
          "name": "spender",
          "type": "address"
        },
        {
          "indexed": false,
          "internalType": "uint256",
          "name": "value",
          "type": "uint256"
        }
      ],
      "name": "Approval",
      "type": "event"
    },
    {
      "anonymous": false,
      "inputs": [
        {
          "indexed": true,
          "internalType": "address",
          "name": "from",
          "type": "address"
        },
        {
          "indexed": true,
          "internalType": "address",
          "name": "to",
          "type": "address"
        },
        {
          "indexed": false,
          "internalType": "uint256",
          "name": "value",
          "type": "uint256"
        }
      ],
      "name": "Transfer",
      "type": "event"
    },
    {
      "inputs": [],
      "name": "ONE_YEAR_IN_SECONDS",
      "outputs": [
        {
          "internalType": "uint256",
          "name": "",
          "type": "uint256"
        }
      ],
      "stateMutability": "view",
      "type": "function"
    },
    {
      "inputs": [
        {
          "internalType": "address",
          "name": "owner",
          "type": "address"
        },
        {
          "internalType": "address",
          "name": "spender",
          "type": "address"
        }
      ],
      "name": "allowance",
      "outputs": [
        {
          "internalType": "uint256",
          "name": "",
          "type": "uint256"
        }
      ],
      "stateMutability": "view",
      "type": "function"
    },
    {
      "inputs": [
        {
          "internalType": "address",
          "name": "spender",
          "type": "address"
        },
        {
          "internalType": "uint256",
          "name": "amount",
          "type": "uint256"
        }
      ],
      "name": "approve",
      "outputs": [
        {
          "internalType": "bool",
          "name": "",
          "type": "bool"
        }
      ],
      "stateMutability": "nonpayable",
      "type": "function"
    },
    {
      "inputs": [
        {
          "internalType": "address",
          "name": "account",
          "type": "address"
        }
      ],
      "name": "balanceOf",
      "outputs": [
        {
          "internalType": "uint256",
          "name": "",
          "type": "uint256"
        }
      ],
      "stateMutability": "view",
      "type": "function"
    },
    {
      "inputs": [
        {
          "internalType": "address",
          "name": "account",
          "type": "address"
        },
        {
          "internalType": "uint256",
          "name": "amount",
          "type": "uint256"
        }
      ],
      "name": "burn",
      "outputs": [],
      "stateMutability": "nonpayable",
      "type": "function"
    },
    {
      "inputs": [
        {
          "internalType": "address",
          "name": "owner",
          "type": "address"
        },
        {
          "internalType": "address",
          "name": "spender",
          "type": "address"
        },
        {
          "internalType": "uint256",
          "name": "amount",
          "type": "uint256"
        }
      ],
      "name": "callInternalApprove",
      "outputs": [
        {
          "internalType": "bool",
          "name": "",
          "type": "bool"
        }
      ],
      "stateMutability": "nonpayable",
      "type": "function"
    },
    {
      "inputs": [
        {
          "internalType": "address",
          "name": "sender",
          "type": "address"
        },
        {
          "internalType": "address",
          "name": "recipient",
          "type": "address"
        },
        {
          "internalType": "uint256",
          "name": "amount",
          "type": "uint256"
        }
      ],
      "name": "callInternalTransfer",
      "outputs": [
        {
          "internalType": "bool",
          "name": "",
          "type": "bool"
        }
      ],
      "stateMutability": "nonpayable",
      "type": "function"
    },
    {
      "inputs": [],
      "name": "decimals",
      "outputs": [
        {
          "internalType": "uint8",
          "name": "",
          "type": "uint8"
        }
      ],
      "stateMutability": "view",
      "type": "function"
    },
    {
      "inputs": [
        {
          "internalType": "address",
          "name": "spender",
          "type": "address"
        },
        {
          "internalType": "uint256",
          "name": "subtractedValue",
          "type": "uint256"
        }
      ],
      "name": "decreaseAllowance",
      "outputs": [
        {
          "internalType": "bool",
          "name": "",
          "type": "bool"
        }
      ],
      "stateMutability": "nonpayable",
      "type": "function"
    },
    {
      "inputs": [],
      "name": "domainSeparator",
      "outputs": [
        {
          "internalType": "bytes32",
          "name": "",
          "type": "bytes32"
        }
      ],
      "stateMutability": "view",
      "type": "function"
    },
    {
      "inputs": [],
      "name": "getChainId",
      "outputs": [
        {
          "internalType": "uint256",
          "name": "chainID",
          "type": "uint256"
        }
      ],
      "stateMutability": "pure",
      "type": "function"
    },
    {
      "inputs": [],
      "name": "getDeploymentStartTime",
      "outputs": [
        {
          "internalType": "uint256",
          "name": "",
          "type": "uint256"
        }
      ],
      "stateMutability": "view",
      "type": "function"
    },
    {
      "inputs": [
        {
          "internalType": "address",
          "name": "spender",
          "type": "address"
        },
        {
          "internalType": "uint256",
          "name": "addedValue",
          "type": "uint256"
        }
      ],
      "name": "increaseAllowance",
      "outputs": [
        {
          "internalType": "bool",
          "name": "",
          "type": "bool"
        }
      ],
      "stateMutability": "nonpayable",
      "type": "function"
    },
    {
      "inputs": [
        {
          "internalType": "address",
          "name": "_zeroStakingAddress",
          "type": "address"
        },
        {
          "internalType": "address",
          "name": "_marketMakerAddress",
          "type": "address"
        },
        {
          "internalType": "address",
          "name": "_presaleAddress",
          "type": "address"
        }
      ],
      "name": "initialize",
      "outputs": [],
      "stateMutability": "nonpayable",
      "type": "function"
    },
    {
      "inputs": [],
      "name": "marketMakerAddress",
      "outputs": [
        {
          "internalType": "address",
          "name": "",
          "type": "address"
        }
      ],
      "stateMutability": "view",
      "type": "function"
    },
    {
      "inputs": [
        {
          "internalType": "address",
          "name": "account",
          "type": "address"
        },
        {
          "internalType": "uint256",
          "name": "amount",
          "type": "uint256"
        }
      ],
      "name": "mint",
      "outputs": [],
      "stateMutability": "nonpayable",
      "type": "function"
    },
    {
      "inputs": [],
      "name": "name",
      "outputs": [
        {
          "internalType": "string",
          "name": "",
          "type": "string"
        }
      ],
      "stateMutability": "view",
      "type": "function"
    },
    {
      "inputs": [
        {
          "internalType": "address",
          "name": "owner",
          "type": "address"
        }
      ],
      "name": "nonces",
      "outputs": [
        {
          "internalType": "uint256",
          "name": "",
          "type": "uint256"
        }
      ],
      "stateMutability": "view",
      "type": "function"
    },
    {
      "inputs": [
        {
          "internalType": "address",
          "name": "owner",
          "type": "address"
        },
        {
          "internalType": "address",
          "name": "spender",
          "type": "address"
        },
        {
          "internalType": "uint256",
          "name": "amount",
          "type": "uint256"
        },
        {
          "internalType": "uint256",
          "name": "deadline",
          "type": "uint256"
        },
        {
          "internalType": "uint8",
          "name": "v",
          "type": "uint8"
        },
        {
          "internalType": "bytes32",
          "name": "r",
          "type": "bytes32"
        },
        {
          "internalType": "bytes32",
          "name": "s",
          "type": "bytes32"
        }
      ],
      "name": "permit",
      "outputs": [],
      "stateMutability": "nonpayable",
      "type": "function"
    },
    {
      "inputs": [],
      "name": "permitTypeHash",
      "outputs": [
        {
          "internalType": "bytes32",
          "name": "",
          "type": "bytes32"
        }
      ],
      "stateMutability": "view",
      "type": "function"
    },
    {
      "inputs": [],
      "name": "presale",
      "outputs": [
        {
          "internalType": "contract IBalanceRedirectPresale",
          "name": "",
          "type": "address"
        }
      ],
      "stateMutability": "view",
      "type": "function"
    },
    {
      "inputs": [
        {
          "internalType": "address",
          "name": "_sender",
          "type": "address"
        },
        {
          "internalType": "uint256",
          "name": "_amount",
          "type": "uint256"
        }
      ],
      "name": "sendToZEROStaking",
      "outputs": [],
      "stateMutability": "nonpayable",
      "type": "function"
    },
    {
      "inputs": [],
      "name": "symbol",
      "outputs": [
        {
          "internalType": "string",
          "name": "",
          "type": "string"
        }
      ],
      "stateMutability": "view",
      "type": "function"
    },
    {
      "inputs": [],
      "name": "totalSupply",
      "outputs": [
        {
          "internalType": "uint256",
          "name": "",
          "type": "uint256"
        }
      ],
      "stateMutability": "view",
      "type": "function"
    },
    {
      "inputs": [
        {
          "internalType": "address",
          "name": "recipient",
          "type": "address"
        },
        {
          "internalType": "uint256",
          "name": "amount",
          "type": "uint256"
        }
      ],
      "name": "transfer",
      "outputs": [
        {
          "internalType": "bool",
          "name": "",
          "type": "bool"
        }
      ],
      "stateMutability": "nonpayable",
      "type": "function"
    },
    {
      "inputs": [
        {
          "internalType": "address",
          "name": "sender",
          "type": "address"
        },
        {
          "internalType": "address",
          "name": "recipient",
          "type": "address"
        },
        {
          "internalType": "uint256",
          "name": "amount",
          "type": "uint256"
        }
      ],
      "name": "transferFrom",
      "outputs": [
        {
          "internalType": "bool",
          "name": "",
          "type": "bool"
        }
      ],
      "stateMutability": "nonpayable",
      "type": "function"
    },
    {
      "inputs": [
        {
          "internalType": "address",
          "name": "account",
          "type": "address"
        },
        {
          "internalType": "uint256",
          "name": "amount",
          "type": "uint256"
        }
      ],
      "name": "unprotectedMint",
      "outputs": [],
      "stateMutability": "nonpayable",
      "type": "function"
    },
    {
      "inputs": [
        {
          "internalType": "address",
          "name": "_sender",
          "type": "address"
        },
        {
          "internalType": "uint256",
          "name": "_amount",
          "type": "uint256"
        }
      ],
      "name": "unprotectedSendToZEROStaking",
      "outputs": [],
      "stateMutability": "nonpayable",
      "type": "function"
    },
    {
      "inputs": [],
      "name": "version",
      "outputs": [
        {
          "internalType": "string",
          "name": "",
          "type": "string"
        }
      ],
      "stateMutability": "view",
      "type": "function"
    },
    {
      "inputs": [],
      "name": "zeroStakingAddress",
      "outputs": [
        {
          "internalType": "address",
          "name": "",
          "type": "address"
        }
      ],
      "stateMutability": "view",
      "type": "function"
    }
  ],
  "bytecode": "0x60806040523480156200001157600080fd5b506040516200146438038062001464833981810160405260608110156200003757600080fd5b50805160208201516040909201519091906200005e8383836001600160e01b036200006716565b50505062000295565b600054610100900460ff16806200008c57506200008c6001600160e01b036200022a16565b806200009b575060005460ff16155b620000d85760405162461bcd60e51b815260040180806020018281038252602e81526020018062001436602e913960400191505060405180910390fd5b600054610100900460ff1615801562000104576000805460ff1961ff0019909116610100171660011790555b42603b55603c80546001600160a01b038087166001600160a01b031992831617909255603d8054868416908316179055603e80549285169290911691909117905560408051808201825260048152635a45524f60e01b602091820152815180830190925260018252603160f81b9101527f2f1c95f5699b1388b3fa2230461010fd3feef63c25f1cc630151d42efc1108b260388190557fc89efdaa54c0f20c7adf612882df0950f5a951637e0307cdcb4c672f298b8bc66039819055620001d36001600160e01b036200023016565b6037556200020c7f8b73c3c69bb8fe3d512ecc4cf759cc79239f7b179b0ffacaa9a75d522b39400f83836001600160e01b036200023416565b6036555050801562000224576000805461ff00191690555b50505050565b303b1590565b4690565b60008383836200024c6001600160e01b036200023016565b6040805160208082019690965280820194909452606084019290925260808301523060a0808401919091528151808403909101815260c090920190528051910120949350505050565b61119180620002a56000396000f3fe608060405234801561001057600080fd5b506004361061019a5760003560e01c80635099f99f116100e4578063a9059cbb11610092578063a9059cbb146104fc578063c0c53b8b14610528578063cc91058814610560578063d505accf14610568578063dd62ed3e146105b9578063e7c8fed4146105e7578063f698da25146105ef578063fdea8e0b146105f75761019a565b80635099f99f1461042457806354fd4d501461045057806370a08231146104585780637ecebe001461047e57806395d89b41146101e95780639dc29fac146104a4578063a457c2d7146104d05761019a565b80632c685c841161014c5780632c685c841461030e578063313ce5671461033c5780633408e4701461035a578063387a54d91461036257806339509351146103985780633c5fdd9e146103c45780633c84b7c2146103f057806340c10f19146103f85761019a565b806303d999461461019f57806306fdde03146101e9578063095ea7b3146102665780630ff9a5121461029257806310ce43bd146102b657806318160ddd146102d057806323b872dd146102d8575b600080fd5b6101d5600480360360608110156101b557600080fd5b506001600160a01b038135811691602081013590911690604001356105ff565b604080519115158252519081900360200190f35b6101f1610613565b6040805160208082528351818301528351919283929083019185019080838360005b8381101561022b578181015183820152602001610213565b50505050905090810190601f1680156102585780820380516001836020036101000a031916815260200191505b509250505060405180910390f35b6101d56004803603604081101561027c57600080fd5b506001600160a01b038135169060200135610632565b61029a610648565b604080516001600160a01b039092168252519081900360200190f35b6102be610657565b60408051918252519081900360200190f35b6102be61067b565b6101d5600480360360608110156102ee57600080fd5b506001600160a01b03813581169160208101359091169060400135610681565b61033a6004803603604081101561032457600080fd5b506001600160a01b0381351690602001356106f9565b005b610344610715565b6040805160ff9092168252519081900360200190f35b6102be61071a565b6101d56004803603606081101561037857600080fd5b506001600160a01b0381358116916020810135909116906040013561071e565b6101d5600480360360408110156103ae57600080fd5b506001600160a01b03813516906020013561072b565b61033a600480360360408110156103da57600080fd5b506001600160a01b038135169060200135610767565b6102be61076f565b61033a6004803603604081101561040e57600080fd5b506001600160a01b038135169060200135610775565b61033a6004803603604081101561043a57600080fd5b506001600160a01b0381351690602001356107da565b6101f16107e4565b6102be6004803603602081101561046e57600080fd5b50356001600160a01b03166107ff565b6102be6004803603602081101561049457600080fd5b50356001600160a01b031661081a565b61033a600480360360408110156104ba57600080fd5b506001600160a01b038135169060200135610835565b6101d5600480360360408110156104e657600080fd5b506001600160a01b038135169060200135610885565b6101d56004803603604081101561051257600080fd5b506001600160a01b0381351690602001356108da565b61033a6004803603606081101561053e57600080fd5b506001600160a01b0381358116916020810135821691604090910135166108f0565b61029a610a8c565b61033a600480360360e081101561057e57600080fd5b506001600160a01b03813581169160208101359091169060408101359060608101359060ff6080820135169060a08101359060c00135610a9b565b6102be600480360360408110156105cf57600080fd5b506001600160a01b0381358116916020013516610c90565b6102be610cbb565b6102be610cc3565b61029a610d18565b600061060c848484610d27565b9392505050565b6040805180820190915260048152635a45524f60e01b60208201525b90565b600061063f338484610d27565b50600192915050565b603c546001600160a01b031681565b7f6e71edae12b1b97f4d1f60370fef10105fa2faae0126114a169c64845d6126c990565b60355490565b600061068c83610e13565b610697848484610e72565b6106ef84336106ea85604051806060016040528060288152602001611069602891396001600160a01b038a166000908152603460209081526040808320338452909152902054919063ffffffff610e7716565b610d27565b5060019392505050565b603c546107119083906001600160a01b031683610e72565b5050565b601290565b4690565b600061060c848484610e72565b3360008181526034602090815260408083206001600160a01b0387168452909152812054909161063f9185906106ea908663ffffffff610f0e16565b6106f9610f68565b603b5490565b603d546001600160a01b03163314806107985750603e546001600160a01b031633145b6107da576040805162461bcd60e51b815260206004820152600e60248201526d24b73b30b634b21031b0b63632b960911b604482015290519081900360640190fd5b6107118282610fb3565b6040805180820190915260018152603160f81b602082015290565b6001600160a01b031660009081526033602052604090205490565b6001600160a01b03166000908152603a602052604090205490565b603d546001600160a01b031633146107da576040805162461bcd60e51b815260206004820152600e60248201526d24b73b30b634b21031b0b63632b960911b604482015290519081900360640190fd5b600061063f33846106ea85604051806060016040528060258152602001611137602591393360009081526034602090815260408083206001600160a01b038d168452909152902054919063ffffffff610e7716565b60006108e583610e13565b61063f338484610e72565b600054610100900460ff16806109095750610909610fb8565b80610917575060005460ff16155b6109525760405162461bcd60e51b815260040180806020018281038252602e815260200180611091602e913960400191505060405180910390fd5b600054610100900460ff1615801561097d576000805460ff1961ff0019909116610100171660011790555b42603b55603c80546001600160a01b038087166001600160a01b031992831617909255603d8054868416908316179055603e80549285169290911691909117905560408051808201825260048152635a45524f60e01b602091820152815180830190925260018252603160f81b9101527f2f1c95f5699b1388b3fa2230461010fd3feef63c25f1cc630151d42efc1108b260388190557fc89efdaa54c0f20c7adf612882df0950f5a951637e0307cdcb4c672f298b8bc66039819055610a4161071a565b603755610a6f7f8b73c3c69bb8fe3d512ecc4cf759cc79239f7b179b0ffacaa9a75d522b39400f8383610fbe565b60365550508015610a86576000805461ff00191690555b50505050565b603d546001600160a01b031681565b42841015610ae9576040805162461bcd60e51b81526020600482015260166024820152755a45524f3a206578706972656420646561646c696e6560501b604482015290519081900360640190fd5b6000610af3610cc3565b6001600160a01b03808a166000818152603a602090815260408083208054600180820190925582517f6e71edae12b1b97f4d1f60370fef10105fa2faae0126114a169c64845d6126c98186015280840196909652958e166060860152608085018d905260a085019590955260c08085018c90528151808603909101815260e08501825280519083012061190160f01b6101008601526101028501969096526101228085019690965280518085039096018652610142840180825286519683019690962095839052610162840180825286905260ff8a166101828501526101a284018990526101c284018890525194955090936101e280840193601f198301929081900390910190855afa158015610c0e573d6000803e3d6000fd5b505050602060405103519050886001600160a01b0316816001600160a01b031614610c7a576040805162461bcd60e51b81526020600482015260176024820152765a45524f3a20696e76616c6964207369676e617475726560481b604482015290519081900360640190fd5b610c85898989610d27565b505050505050505050565b6001600160a01b03918216600090815260346020908152604080832093909416825291909152205490565b6301e1338081565b6000603754610cd061071a565b1415610cdf575060365461062f565b610d117f8b73c3c69bb8fe3d512ecc4cf759cc79239f7b179b0ffacaa9a75d522b39400f60001b603854603954610fbe565b905061062f565b603e546001600160a01b031681565b6001600160a01b038316610d6c5760405162461bcd60e51b81526004018080602001828103825260248152602001806110bf6024913960400191505060405180910390fd5b6001600160a01b038216610db15760405162461bcd60e51b81526004018080602001828103825260228152602001806110156022913960400191505060405180910390fd5b6001600160a01b03808416600081815260346020908152604080832094871680845294825291829020859055815185815291517f8c5be1e5ebec7d5bd14f71427d1e84f3dd0314c0f7b2291e5b200ac8c7c3b9259281900390910190a3505050565b6001600160a01b03811615801590610e3457506001600160a01b0381163014155b610e6f5760405162461bcd60e51b81526004018080602001828103825260548152602001806110e36054913960600191505060405180910390fd5b50565b505050565b60008184841115610f065760405162461bcd60e51b81526004018080602001828103825283818151815260200191508051906020019080838360005b83811015610ecb578181015183820152602001610eb3565b50505050905090810190601f168015610ef85780820380516001836020036101000a031916815260200191505b509250505060405180910390fd5b505050900390565b60008282018381101561060c576040805162461bcd60e51b815260206004820152601b60248201527f536166654d6174683a206164646974696f6e206f766572666c6f770000000000604482015290519081900360640190fd5b603c546001600160a01b03163314610fb15760405162461bcd60e51b81526004018080602001828103825260328152602001806110376032913960400191505060405180910390fd5b565b610711565b303b1590565b6000838383610fcb61071a565b6040805160208082019690965280820194909452606084019290925260808301523060a0808401919091528151808403909101815260c09092019052805191012094935050505056fe45524332303a20617070726f766520746f20746865207a65726f20616464726573735a45524f546f6b656e3a2063616c6c6572206d75737420626520746865205a45524f5374616b696e6720636f6e747261637445524332303a207472616e7366657220616d6f756e74206578636565647320616c6c6f77616e6365436f6e747261637420696e7374616e63652068617320616c7265616479206265656e20696e697469616c697a656445524332303a20617070726f76652066726f6d20746865207a65726f20616464726573735a45524f3a2043616e6e6f74207472616e7366657220746f6b656e73206469726563746c7920746f20746865205a45524f20746f6b656e20636f6e7472616374206f7220746865207a65726f206164647265737345524332303a2064656372656173656420616c6c6f77616e63652062656c6f77207a65726fa2646970667358221220db53999c1b95a2172b23c13e26af38a9485ea7e07468975fe67e731cae23dc6864736f6c634300060b0033436f6e747261637420696e7374616e63652068617320616c7265616479206265656e20696e697469616c697a6564",
  "linkReferences": {},
  "deployedLinkReferences": {}
}