{
  "_format": "hh-sol-artifact-1",
  "contractName": "ZEROStakingTester",
  "sourceName": "contracts/TestContracts/ZEROStakingTester.sol",
  "abi": [
    {
      "anonymous": false,
      "inputs": [
        {
          "indexed": false,
          "internalType": "address",
          "name": "_activePoolAddress",
          "type": "address"
        }
      ],
      "name": "ActivePoolAddressSet",
      "type": "event"
    },
    {
      "anonymous": false,
      "inputs": [
        {
          "indexed": false,
          "internalType": "address",
          "name": "_account",
          "type": "address"
        },
        {
          "indexed": false,
          "internalType": "uint256",
          "name": "_amount",
          "type": "uint256"
        }
      ],
      "name": "EtherSent",
      "type": "event"
    },
    {
      "anonymous": false,
      "inputs": [
        {
          "indexed": false,
          "internalType": "uint256",
          "name": "_F_ETH",
          "type": "uint256"
        }
      ],
      "name": "F_ETHUpdated",
      "type": "event"
    },
    {
      "anonymous": false,
      "inputs": [
        {
          "indexed": false,
          "internalType": "uint256",
          "name": "_F_ZUSD",
          "type": "uint256"
        }
      ],
      "name": "F_ZUSDUpdated",
      "type": "event"
    },
    {
      "anonymous": false,
      "inputs": [
        {
          "indexed": false,
          "internalType": "address",
          "name": "_feeDistributorAddress",
          "type": "address"
        }
      ],
      "name": "FeeDistributorAddressAddressSet",
      "type": "event"
    },
    {
      "anonymous": false,
      "inputs": [
        {
          "indexed": false,
          "internalType": "address",
          "name": "_feeDistributorAddress",
          "type": "address"
        }
      ],
      "name": "FeeDistributorAddressSet",
      "type": "event"
    },
    {
      "anonymous": false,
      "inputs": [
        {
          "indexed": true,
          "internalType": "address",
          "name": "previousOwner",
          "type": "address"
        },
        {
          "indexed": true,
          "internalType": "address",
          "name": "newOwner",
          "type": "address"
        }
      ],
      "name": "OwnershipTransferred",
      "type": "event"
    },
    {
      "anonymous": false,
      "inputs": [
        {
          "indexed": true,
          "internalType": "address",
          "name": "staker",
          "type": "address"
        },
        {
          "indexed": false,
          "internalType": "uint256",
          "name": "newStake",
          "type": "uint256"
        }
      ],
      "name": "StakeChanged",
      "type": "event"
    },
    {
      "anonymous": false,
      "inputs": [
        {
          "indexed": false,
          "internalType": "address",
          "name": "_staker",
          "type": "address"
        },
        {
          "indexed": false,
          "internalType": "uint256",
          "name": "_F_ETH",
          "type": "uint256"
        },
        {
          "indexed": false,
          "internalType": "uint256",
          "name": "_F_ZUSD",
          "type": "uint256"
        }
      ],
      "name": "StakerSnapshotsUpdated",
      "type": "event"
    },
    {
      "anonymous": false,
      "inputs": [
        {
          "indexed": true,
          "internalType": "address",
          "name": "staker",
          "type": "address"
        },
        {
          "indexed": false,
          "internalType": "uint256",
          "name": "ZUSDGain",
          "type": "uint256"
        },
        {
          "indexed": false,
          "internalType": "uint256",
          "name": "ETHGain",
          "type": "uint256"
        }
      ],
      "name": "StakingGainsWithdrawn",
      "type": "event"
    },
    {
      "anonymous": false,
      "inputs": [
        {
          "indexed": false,
          "internalType": "uint256",
          "name": "_totalZEROStaked",
          "type": "uint256"
        }
      ],
      "name": "TotalZEROStakedUpdated",
      "type": "event"
    },
    {
      "anonymous": false,
      "inputs": [
        {
          "indexed": false,
          "internalType": "address",
          "name": "_zeroTokenAddress",
          "type": "address"
        }
      ],
      "name": "ZEROTokenAddressSet",
      "type": "event"
    },
    {
      "anonymous": false,
      "inputs": [
        {
          "indexed": false,
          "internalType": "address",
          "name": "_zusdTokenAddress",
          "type": "address"
        }
      ],
      "name": "ZUSDTokenAddressSet",
      "type": "event"
    },
    {
      "inputs": [],
      "name": "DECIMAL_PRECISION",
      "outputs": [
        {
          "internalType": "uint256",
          "name": "",
          "type": "uint256"
        }
      ],
      "stateMutability": "view",
      "type": "function"
    },
    {
      "inputs": [],
      "name": "F_ETH",
      "outputs": [
        {
          "internalType": "uint256",
          "name": "",
          "type": "uint256"
        }
      ],
      "stateMutability": "view",
      "type": "function"
    },
    {
      "inputs": [],
      "name": "F_ZUSD",
      "outputs": [
        {
          "internalType": "uint256",
          "name": "",
          "type": "uint256"
        }
      ],
      "stateMutability": "view",
      "type": "function"
    },
    {
      "inputs": [],
      "name": "NAME",
      "outputs": [
        {
          "internalType": "string",
          "name": "",
          "type": "string"
        }
      ],
      "stateMutability": "view",
      "type": "function"
    },
    {
      "inputs": [],
      "name": "activePoolAddress",
      "outputs": [
        {
          "internalType": "address",
          "name": "",
          "type": "address"
        }
      ],
      "stateMutability": "view",
      "type": "function"
    },
    {
      "inputs": [],
      "name": "feeDistributorAddress",
      "outputs": [
        {
          "internalType": "address",
          "name": "",
          "type": "address"
        }
      ],
      "stateMutability": "view",
      "type": "function"
    },
    {
      "inputs": [],
      "name": "getOwner",
      "outputs": [
        {
          "internalType": "address",
          "name": "_owner",
          "type": "address"
        }
      ],
      "stateMutability": "view",
      "type": "function"
    },
    {
      "inputs": [
        {
          "internalType": "address",
          "name": "_user",
          "type": "address"
        }
      ],
      "name": "getPendingETHGain",
      "outputs": [
        {
          "internalType": "uint256",
          "name": "",
          "type": "uint256"
        }
      ],
      "stateMutability": "view",
      "type": "function"
    },
    {
      "inputs": [
        {
          "internalType": "address",
          "name": "_user",
          "type": "address"
        }
      ],
      "name": "getPendingZUSDGain",
      "outputs": [
        {
          "internalType": "uint256",
          "name": "",
          "type": "uint256"
        }
      ],
      "stateMutability": "view",
      "type": "function"
    },
    {
      "inputs": [
        {
          "internalType": "uint256",
          "name": "_ETHFee",
          "type": "uint256"
        }
      ],
      "name": "increaseF_ETH",
      "outputs": [],
      "stateMutability": "nonpayable",
      "type": "function"
    },
    {
      "inputs": [
        {
          "internalType": "uint256",
          "name": "_ZUSDFee",
          "type": "uint256"
        }
      ],
      "name": "increaseF_ZUSD",
      "outputs": [],
      "stateMutability": "nonpayable",
      "type": "function"
    },
    {
      "inputs": [],
      "name": "requireCallerIsFeeDistributor",
      "outputs": [],
      "stateMutability": "view",
      "type": "function"
    },
    {
      "inputs": [
        {
          "internalType": "address",
          "name": "_zeroTokenAddress",
          "type": "address"
        },
        {
          "internalType": "address",
          "name": "_zusdTokenAddress",
          "type": "address"
        },
        {
          "internalType": "address",
          "name": "_feeDistributorAddress",
          "type": "address"
        },
        {
          "internalType": "address",
          "name": "_activePoolAddress",
          "type": "address"
        }
      ],
      "name": "setAddresses",
      "outputs": [],
      "stateMutability": "nonpayable",
      "type": "function"
    },
    {
      "inputs": [
        {
          "internalType": "address",
          "name": "_owner",
          "type": "address"
        }
      ],
      "name": "setOwner",
      "outputs": [],
      "stateMutability": "nonpayable",
      "type": "function"
    },
    {
      "inputs": [
        {
          "internalType": "address",
          "name": "",
          "type": "address"
        }
      ],
      "name": "snapshots",
      "outputs": [
        {
          "internalType": "uint256",
          "name": "F_ETH_Snapshot",
          "type": "uint256"
        },
        {
          "internalType": "uint256",
          "name": "F_ZUSD_Snapshot",
          "type": "uint256"
        }
      ],
      "stateMutability": "view",
      "type": "function"
    },
    {
      "inputs": [
        {
          "internalType": "uint256",
          "name": "_ZEROamount",
          "type": "uint256"
        }
      ],
      "name": "stake",
      "outputs": [],
      "stateMutability": "nonpayable",
      "type": "function"
    },
    {
      "inputs": [
        {
          "internalType": "address",
          "name": "",
          "type": "address"
        }
      ],
      "name": "stakes",
      "outputs": [
        {
          "internalType": "uint256",
          "name": "",
          "type": "uint256"
        }
      ],
      "stateMutability": "view",
      "type": "function"
    },
    {
      "inputs": [],
      "name": "totalZEROStaked",
      "outputs": [
        {
          "internalType": "uint256",
          "name": "",
          "type": "uint256"
        }
      ],
      "stateMutability": "view",
      "type": "function"
    },
    {
      "inputs": [
        {
          "internalType": "uint256",
          "name": "_ZEROamount",
          "type": "uint256"
        }
      ],
      "name": "unstake",
      "outputs": [],
      "stateMutability": "nonpayable",
      "type": "function"
    },
    {
      "inputs": [],
      "name": "zeroToken",
      "outputs": [
        {
          "internalType": "contract IZEROToken",
          "name": "",
          "type": "address"
        }
      ],
      "stateMutability": "view",
      "type": "function"
    },
    {
      "inputs": [],
      "name": "zusdToken",
      "outputs": [
        {
          "internalType": "contract IZUSDToken",
          "name": "",
          "type": "address"
        }
      ],
      "stateMutability": "view",
      "type": "function"
    },
    {
      "stateMutability": "payable",
      "type": "receive"
    }
  ],
  "bytecode": "0x608060405234801561001057600080fd5b50610023336001600160e01b0361002816565b610110565b6001600160a01b03811661006d5760405162461bcd60e51b81526004018080602001828103825260228152602001806117136022913960400191505060405180910390fd5b6001600160a01b0381166100886001600160e01b036100e616565b6001600160a01b03167f8be0079c531659141344cd1fd0a4f28419497f9722a3daafe3b4186f6b6457e060405160405180910390a3604080517035b2bc9737bbb730b136329737bbb732b960791b8152905190819003601101902055565b604080517035b2bc9737bbb730b136329737bbb732b960791b815290519081900360110190205490565b6115f48061011f6000396000f3fe60806040526004361061012e5760003560e01c8063893d20e8116100ab578063b08bc7221161006f578063b08bc72214610459578063b9bbe00f1461046e578063bc70cd8c14610483578063e6f7a1e714610498578063ec9f7d46146104ad578063f294bd92146104c25761013d565b8063893d20e81461032c5780638b9345ad1461035d578063a20baee614610390578063a3f4df7e146103a5578063a694fc3a1461042f5761013d565b80632e17de78116100f25780632e17de781461020e57806334b3081f146102385780634a945f8d1461028457806361f6ab8c146102cf578063787a149e146102f95761013d565b8063022d5d411461014257806313af40351461015757806316934fc41461018a5780631e3e2a1a146101cf5780631f49119a146101f95761013d565b3661013d5761013b6104d7565b005b600080fd5b34801561014e57600080fd5b5061013b610522565b34801561016357600080fd5b5061013b6004803603602081101561017a57600080fd5b50356001600160a01b031661052a565b34801561019657600080fd5b506101bd600480360360208110156101ad57600080fd5b50356001600160a01b031661059d565b60408051918252519081900360200190f35b3480156101db57600080fd5b5061013b600480360360208110156101f257600080fd5b50356105af565b34801561020557600080fd5b506101bd61063e565b34801561021a57600080fd5b5061013b6004803603602081101561023157600080fd5b5035610644565b34801561024457600080fd5b5061026b6004803603602081101561025b57600080fd5b50356001600160a01b0316610929565b6040805192835260208301919091528051918290030190f35b34801561029057600080fd5b5061013b600480360360808110156102a757600080fd5b506001600160a01b038135811691602081013582169160408201358116916060013516610942565b3480156102db57600080fd5b5061013b600480360360208110156102f257600080fd5b5035610b01565b34801561030557600080fd5b506101bd6004803603602081101561031c57600080fd5b50356001600160a01b0316610b84565b34801561033857600080fd5b50610341610b95565b604080516001600160a01b039092168252519081900360200190f35b34801561036957600080fd5b506101bd6004803603602081101561038057600080fd5b50356001600160a01b0316610bbf565b34801561039c57600080fd5b506101bd610bca565b3480156103b157600080fd5b506103ba610bd6565b6040805160208082528351818301528351919283929083019185019080838360005b838110156103f45781810151838201526020016103dc565b50505050905090810190601f1680156104215780820380516001836020036101000a031916815260200191505b509250505060405180910390f35b34801561043b57600080fd5b5061013b6004803603602081101561045257600080fd5b5035610bfd565b34801561046557600080fd5b50610341610e71565b34801561047a57600080fd5b506101bd610e80565b34801561048f57600080fd5b50610341610e86565b3480156104a457600080fd5b506101bd610e95565b3480156104b957600080fd5b50610341610e9b565b3480156104ce57600080fd5b50610341610eaa565b6007546001600160a01b031633146105205760405162461bcd60e51b81526004018080602001828103825260298152602001806115496029913960400191505060405180910390fd5b565b6105206104d7565b610532610b95565b6001600160a01b0316336001600160a01b031614610591576040805162461bcd60e51b815260206004820152601760248201527613dddb98589b194e8e881858d8d95cdcc819195b9a5959604a1b604482015290519081900360640190fd5b61059a81610eb9565b50565b60006020819052908152604090205481565b6105b76104d7565b600154600090156105f0576001546105ed906105e184670de0b6b3a764000063ffffffff610f6e16565b9063ffffffff610fce16565b90505b600254610603908263ffffffff61101016565b600281905560408051918252517f4c56a0cf74da9899410b818edf6758c8af9b7b3070da97d2dcb6a5b1bf96317e9181900360200190a15050565b60035481565b3360009081526020819052604090205461065d8161106a565b6000610668336110a9565b9050600061067533611116565b905061068033611159565b831561080f57600061069285856111cb565b905060006106a6858363ffffffff6111e116565b3360009081526020819052604090208190556001549091506106ce908363ffffffff6111e116565b600181905560408051918252517f119495b1b01a3979110ba18e2447296d0bf46ef520fc0a3af775e233d7bb12529181900360200190a16005546040805163a9059cbb60e01b81523360048201526024810185905290516001600160a01b039092169163a9059cbb916044808201926020929091908290030181600087803b15801561075957600080fd5b505af115801561076d573d6000803e3d6000fd5b505050506040513d602081101561078357600080fd5b50516107d6576040805162461bcd60e51b815260206004820152601e60248201527f436f756c646e27742065786563757465205a555344207472616e736665720000604482015290519081900360640190fd5b60408051828152905133917f39df0e5286a3ef2f42a0bf52f32cfe2c58e5b0405f47fe512f2c2439e4cfe204919081900360200190a250505b6040805182815260208101849052815133927ff744d34ca1cb25acfa4180df5f09a67306107110a9f4b6ed99bb3be259738215928290030190a26006546040805163a9059cbb60e01b81523360048201526024810184905290516001600160a01b039092169163a9059cbb916044808201926020929091908290030181600087803b15801561089d57600080fd5b505af11580156108b1573d6000803e3d6000fd5b505050506040513d60208110156108c757600080fd5b505161091a576040805162461bcd60e51b815260206004820152601e60248201527f436f756c646e27742065786563757465205a555344207472616e736665720000604482015290519081900360640190fd5b61092382611223565b50505050565b6004602052600090815260409020805460019091015482565b61094a610b95565b6001600160a01b0316336001600160a01b0316146109a9576040805162461bcd60e51b815260206004820152601760248201527613dddb98589b194e8e881858d8d95cdcc819195b9a5959604a1b604482015290519081900360640190fd5b6109b2846112e9565b6109bb836112e9565b6109c4826112e9565b6109cd816112e9565b600580546001600160a01b038087166001600160a01b031992831681179093556006805487831690841617905560078054868316908416179055600880549185169190921617905560408051918252517f7eeded1a6761a0ca57ff60155bdd3e94fbfe5d9e8dc5013b3aa195b8d9e851ea9181900360200190a1604080516001600160a01b038516815290517f7eeded1a6761a0ca57ff60155bdd3e94fbfe5d9e8dc5013b3aa195b8d9e851ea9181900360200190a1604080516001600160a01b038416815290517f8a0d5ec55b7ba4e72b7d97dbd26e71ff52e453e626ce74a96c649e5bc026c4c89181900360200190a1604080516001600160a01b038316815290517f8f6a6e7d20a3233e0a79883272259ffbd7a243734e397bc2b4642c79d7fa8a6d9181900360200190a150505050565b610b096104d7565b60015460009015610b3657600154610b33906105e184670de0b6b3a764000063ffffffff610f6e16565b90505b600354610b49908263ffffffff61101016565b600381905560408051918252517fa7ab0bde92e8afee66c7c5f3592a5b93e7415501b666f15bea395b30d399e1729181900360200190a15050565b6000610b8f82611116565b92915050565b604080517035b2bc9737bbb730b136329737bbb732b960791b815290519081900360110190205490565b6000610b8f826110a9565b670de0b6b3a764000081565b6040518060400160405280600b81526020016a5a45524f5374616b696e6760a81b81525081565b610c0681611398565b3360009081526020819052604081205490808215610c3557610c27336110a9565b9150610c3233611116565b90505b610c3e33611159565b6000610c50848663ffffffff61101016565b336000908152602081905260409020819055600154909150610c78908663ffffffff61101016565b600181905560408051918252517f119495b1b01a3979110ba18e2447296d0bf46ef520fc0a3af775e233d7bb12529181900360200190a160055460408051631e2feecf60e11b81523360048201526024810188905290516001600160a01b0390921691633c5fdd9e9160448082019260009290919082900301818387803b158015610d0257600080fd5b505af1158015610d16573d6000803e3d6000fd5b50506040805184815290513393507f39df0e5286a3ef2f42a0bf52f32cfe2c58e5b0405f47fe512f2c2439e4cfe20492509081900360200190a26040805183815260208101859052815133927ff744d34ca1cb25acfa4180df5f09a67306107110a9f4b6ed99bb3be259738215928290030190a28315610e6a576006546040805163a9059cbb60e01b81523360048201526024810185905290516001600160a01b039092169163a9059cbb916044808201926020929091908290030181600087803b158015610de457600080fd5b505af1158015610df8573d6000803e3d6000fd5b505050506040513d6020811015610e0e57600080fd5b5051610e61576040805162461bcd60e51b815260206004820152601d60248201527f436f75646e27742065786563757465205a555344207472616e73666572000000604482015290519081900360640190fd5b610e6a83611223565b5050505050565b6008546001600160a01b031681565b60025481565b6007546001600160a01b031681565b60015481565b6006546001600160a01b031681565b6005546001600160a01b031681565b6001600160a01b038116610efe5760405162461bcd60e51b81526004018080602001828103825260228152602001806115276022913960400191505060405180910390fd5b806001600160a01b0316610f10610b95565b6001600160a01b03167f8be0079c531659141344cd1fd0a4f28419497f9722a3daafe3b4186f6b6457e060405160405180910390a3604080517035b2bc9737bbb730b136329737bbb732b960791b8152905190819003601101902055565b600082610f7d57506000610b8f565b82820282848281610f8a57fe5b0414610fc75760405162461bcd60e51b815260040180806020018281038252602181526020018061159e6021913960400191505060405180910390fd5b9392505050565b6000610fc783836040518060400160405280601a81526020017f536166654d6174683a206469766973696f6e206279207a65726f0000000000008152506113d7565b600082820183811015610fc7576040805162461bcd60e51b815260206004820152601b60248201527f536166654d6174683a206164646974696f6e206f766572666c6f770000000000604482015290519081900360640190fd5b6000811161059a5760405162461bcd60e51b815260040180806020018281038252602c815260200180611572602c913960400191505060405180910390fd5b6001600160a01b038116600090815260046020526040812054600254829061110e90670de0b6b3a7640000906105e1906110e9908663ffffffff6111e116565b6001600160a01b0388166000908152602081905260409020549063ffffffff610f6e16565b949350505050565b6001600160a01b038116600090815260046020526040812060010154600354829061110e90670de0b6b3a7640000906105e1906110e9908663ffffffff6111e116565b600280546001600160a01b038316600081815260046020908152604091829020938455600354600190940184905593548151928352938201939093528083019190915290517f6b5cf27595af4428271524e0a5abd2b63f6fee1a61e31970490f5a10e257a1cd9181900360600190a150565b60008183106111da5781610fc7565b5090919050565b6000610fc783836040518060400160405280601e81526020017f536166654d6174683a207375627472616374696f6e206f766572666c6f770000815250611479565b604080513381526020810183905281517f6109e2559dfa766aaec7118351d48a523f0a4157f49c8d68749c8ac41318ad12929181900390910190a1604051600090339083908381818185875af1925050503d80600081146112a0576040519150601f19603f3d011682016040523d82523d6000602084013e6112a5565b606091505b50509050806112e55760405162461bcd60e51b815260040180806020018281038252602f8152602001806114d4602f913960400191505060405180910390fd5b5050565b6001600160a01b038116611344576040805162461bcd60e51b815260206004820152601e60248201527f4163636f756e742063616e6e6f74206265207a65726f20616464726573730000604482015290519081900360640190fd5b803b806112e5576040805162461bcd60e51b815260206004820181905260248201527f4163636f756e7420636f64652073697a652063616e6e6f74206265207a65726f604482015290519081900360640190fd5b6000811161059a5760405162461bcd60e51b81526004018080602001828103825260248152602001806115036024913960400191505060405180910390fd5b600081836114635760405162461bcd60e51b81526004018080602001828103825283818151815260200191508051906020019080838360005b83811015611428578181015183820152602001611410565b50505050905090810190601f1680156114555780820380516001836020036101000a031916815260200191505b509250505060405180910390fd5b50600083858161146f57fe5b0495945050505050565b600081848411156114cb5760405162461bcd60e51b8152602060048201818152835160248401528351909283926044909101919085019080838360008315611428578181015183820152602001611410565b50505090039056fe5a45524f5374616b696e673a204661696c656420746f2073656e6420616363756d756c61746564204554484761696e5a45524f5374616b696e673a20416d6f756e74206d757374206265206e6f6e2d7a65726f4f776e61626c653a3a7365744f776e65723a20696e76616c696420616464726573735a45524f5374616b696e673a2063616c6c6572206973206e6f74204665654469737472696275746f725a45524f5374616b696e673a2055736572206d75737420686176652061206e6f6e2d7a65726f207374616b65536166654d6174683a206d756c7469706c69636174696f6e206f766572666c6f77a2646970667358221220549d08e1c2f7f559e0968928209fdc50ff207bce3ae52ac30ef27530781a0e8564736f6c634300060b00334f776e61626c653a3a7365744f776e65723a20696e76616c69642061646472657373",
  "linkReferences": {},
  "deployedLinkReferences": {}
}