{
  "_format": "hh-sol-artifact-1",
  "contractName": "ZUSDTokenTester",
  "sourceName": "contracts/TestContracts/ZUSDTokenTester.sol",
  "abi": [
    {
      "inputs": [
        {
          "internalType": "address",
          "name": "_troveManagerAddress",
          "type": "address"
        },
        {
          "internalType": "address",
          "name": "_stabilityPoolAddress",
          "type": "address"
        },
        {
          "internalType": "address",
          "name": "_borrowerOperationsAddress",
          "type": "address"
        }
      ],
      "stateMutability": "nonpayable",
      "type": "constructor"
    },
    {
      "anonymous": false,
      "inputs": [
        {
          "indexed": true,
          "internalType": "address",
          "name": "owner",
          "type": "address"
        },
        {
          "indexed": true,
          "internalType": "address",
          "name": "spender",
          "type": "address"
        },
        {
          "indexed": false,
          "internalType": "uint256",
          "name": "value",
          "type": "uint256"
        }
      ],
      "name": "Approval",
      "type": "event"
    },
    {
      "anonymous": false,
      "inputs": [
        {
          "indexed": false,
          "internalType": "address",
          "name": "_newBorrowerOperationsAddress",
          "type": "address"
        }
      ],
      "name": "BorrowerOperationsAddressChanged",
      "type": "event"
    },
    {
      "anonymous": false,
      "inputs": [
        {
          "indexed": true,
          "internalType": "address",
          "name": "previousOwner",
          "type": "address"
        },
        {
          "indexed": true,
          "internalType": "address",
          "name": "newOwner",
          "type": "address"
        }
      ],
      "name": "OwnershipTransferred",
      "type": "event"
    },
    {
      "anonymous": false,
      "inputs": [
        {
          "indexed": false,
          "internalType": "address",
          "name": "_newStabilityPoolAddress",
          "type": "address"
        }
      ],
      "name": "StabilityPoolAddressChanged",
      "type": "event"
    },
    {
      "anonymous": false,
      "inputs": [
        {
          "indexed": true,
          "internalType": "address",
          "name": "from",
          "type": "address"
        },
        {
          "indexed": true,
          "internalType": "address",
          "name": "to",
          "type": "address"
        },
        {
          "indexed": false,
          "internalType": "uint256",
          "name": "value",
          "type": "uint256"
        }
      ],
      "name": "Transfer",
      "type": "event"
    },
    {
      "anonymous": false,
      "inputs": [
        {
          "indexed": false,
          "internalType": "address",
          "name": "_troveManagerAddress",
          "type": "address"
        }
      ],
      "name": "TroveManagerAddressChanged",
      "type": "event"
    },
    {
      "anonymous": false,
      "inputs": [
        {
          "indexed": false,
          "internalType": "address",
          "name": "_user",
          "type": "address"
        },
        {
          "indexed": false,
          "internalType": "uint256",
          "name": "_amount",
          "type": "uint256"
        }
      ],
      "name": "ZUSDTokenBalanceUpdated",
      "type": "event"
    },
    {
      "inputs": [
        {
          "internalType": "address",
          "name": "owner",
          "type": "address"
        },
        {
          "internalType": "address",
          "name": "spender",
          "type": "address"
        }
      ],
      "name": "allowance",
      "outputs": [
        {
          "internalType": "uint256",
          "name": "",
          "type": "uint256"
        }
      ],
      "stateMutability": "view",
      "type": "function"
    },
    {
      "inputs": [
        {
          "internalType": "address",
          "name": "spender",
          "type": "address"
        },
        {
          "internalType": "uint256",
          "name": "amount",
          "type": "uint256"
        }
      ],
      "name": "approve",
      "outputs": [
        {
          "internalType": "bool",
          "name": "",
          "type": "bool"
        }
      ],
      "stateMutability": "nonpayable",
      "type": "function"
    },
    {
      "inputs": [
        {
          "internalType": "address",
          "name": "account",
          "type": "address"
        }
      ],
      "name": "balanceOf",
      "outputs": [
        {
          "internalType": "uint256",
          "name": "",
          "type": "uint256"
        }
      ],
      "stateMutability": "view",
      "type": "function"
    },
    {
      "inputs": [
        {
          "internalType": "address",
          "name": "_account",
          "type": "address"
        },
        {
          "internalType": "uint256",
          "name": "_amount",
          "type": "uint256"
        }
      ],
      "name": "burn",
      "outputs": [],
      "stateMutability": "nonpayable",
      "type": "function"
    },
    {
      "inputs": [
        {
          "internalType": "address",
          "name": "owner",
          "type": "address"
        },
        {
          "internalType": "address",
          "name": "spender",
          "type": "address"
        },
        {
          "internalType": "uint256",
          "name": "amount",
          "type": "uint256"
        }
      ],
      "name": "callInternalApprove",
      "outputs": [
        {
          "internalType": "bool",
          "name": "",
          "type": "bool"
        }
      ],
      "stateMutability": "nonpayable",
      "type": "function"
    },
    {
      "inputs": [],
      "name": "decimals",
      "outputs": [
        {
          "internalType": "uint8",
          "name": "",
          "type": "uint8"
        }
      ],
      "stateMutability": "view",
      "type": "function"
    },
    {
      "inputs": [
        {
          "internalType": "address",
          "name": "spender",
          "type": "address"
        },
        {
          "internalType": "uint256",
          "name": "subtractedValue",
          "type": "uint256"
        }
      ],
      "name": "decreaseAllowance",
      "outputs": [
        {
          "internalType": "bool",
          "name": "",
          "type": "bool"
        }
      ],
      "stateMutability": "nonpayable",
      "type": "function"
    },
    {
      "inputs": [],
      "name": "domainSeparator",
      "outputs": [
        {
          "internalType": "bytes32",
          "name": "",
          "type": "bytes32"
        }
      ],
      "stateMutability": "view",
      "type": "function"
    },
    {
      "inputs": [],
      "name": "getChainId",
      "outputs": [
        {
          "internalType": "uint256",
          "name": "chainID",
          "type": "uint256"
        }
      ],
      "stateMutability": "pure",
      "type": "function"
    },
    {
      "inputs": [
        {
          "internalType": "address",
          "name": "owner",
          "type": "address"
        },
        {
          "internalType": "address",
          "name": "spender",
          "type": "address"
        },
        {
          "internalType": "uint256",
          "name": "amount",
          "type": "uint256"
        },
        {
          "internalType": "uint256",
          "name": "nonce",
          "type": "uint256"
        },
        {
          "internalType": "uint256",
          "name": "deadline",
          "type": "uint256"
        }
      ],
      "name": "getDigest",
      "outputs": [
        {
          "internalType": "bytes32",
          "name": "",
          "type": "bytes32"
        }
      ],
      "stateMutability": "view",
      "type": "function"
    },
    {
      "inputs": [],
      "name": "getOwner",
      "outputs": [
        {
          "internalType": "address",
          "name": "_owner",
          "type": "address"
        }
      ],
      "stateMutability": "view",
      "type": "function"
    },
    {
      "inputs": [
        {
          "internalType": "address",
          "name": "spender",
          "type": "address"
        },
        {
          "internalType": "uint256",
          "name": "addedValue",
          "type": "uint256"
        }
      ],
      "name": "increaseAllowance",
      "outputs": [
        {
          "internalType": "bool",
          "name": "",
          "type": "bool"
        }
      ],
      "stateMutability": "nonpayable",
      "type": "function"
    },
    {
      "inputs": [
        {
          "internalType": "address",
          "name": "_troveManagerAddress",
          "type": "address"
        },
        {
          "internalType": "address",
          "name": "_stabilityPoolAddress",
          "type": "address"
        },
        {
          "internalType": "address",
          "name": "_borrowerOperationsAddress",
          "type": "address"
        }
      ],
      "name": "initialize",
      "outputs": [],
      "stateMutability": "nonpayable",
      "type": "function"
    },
    {
      "inputs": [
        {
          "internalType": "address",
          "name": "_account",
          "type": "address"
        },
        {
          "internalType": "uint256",
          "name": "_amount",
          "type": "uint256"
        }
      ],
      "name": "mint",
      "outputs": [],
      "stateMutability": "nonpayable",
      "type": "function"
    },
    {
      "inputs": [],
      "name": "name",
      "outputs": [
        {
          "internalType": "string",
          "name": "",
          "type": "string"
        }
      ],
      "stateMutability": "view",
      "type": "function"
    },
    {
      "inputs": [
        {
          "internalType": "address",
          "name": "owner",
          "type": "address"
        }
      ],
      "name": "nonces",
      "outputs": [
        {
          "internalType": "uint256",
          "name": "",
          "type": "uint256"
        }
      ],
      "stateMutability": "view",
      "type": "function"
    },
    {
      "inputs": [
        {
          "internalType": "address",
          "name": "owner",
          "type": "address"
        },
        {
          "internalType": "address",
          "name": "spender",
          "type": "address"
        },
        {
          "internalType": "uint256",
          "name": "amount",
          "type": "uint256"
        },
        {
          "internalType": "uint256",
          "name": "deadline",
          "type": "uint256"
        },
        {
          "internalType": "uint8",
          "name": "v",
          "type": "uint8"
        },
        {
          "internalType": "bytes32",
          "name": "r",
          "type": "bytes32"
        },
        {
          "internalType": "bytes32",
          "name": "s",
          "type": "bytes32"
        }
      ],
      "name": "permit",
      "outputs": [],
      "stateMutability": "nonpayable",
      "type": "function"
    },
    {
      "inputs": [],
      "name": "permitTypeHash",
      "outputs": [
        {
          "internalType": "bytes32",
          "name": "",
          "type": "bytes32"
        }
      ],
      "stateMutability": "view",
      "type": "function"
    },
    {
      "inputs": [
        {
          "internalType": "bytes32",
          "name": "digest",
          "type": "bytes32"
        },
        {
          "internalType": "uint8",
          "name": "v",
          "type": "uint8"
        },
        {
          "internalType": "bytes32",
          "name": "r",
          "type": "bytes32"
        },
        {
          "internalType": "bytes32",
          "name": "s",
          "type": "bytes32"
        }
      ],
      "name": "recoverAddress",
      "outputs": [
        {
          "internalType": "address",
          "name": "",
          "type": "address"
        }
      ],
      "stateMutability": "pure",
      "type": "function"
    },
    {
      "inputs": [
        {
          "internalType": "address",
          "name": "_poolAddress",
          "type": "address"
        },
        {
          "internalType": "address",
          "name": "_receiver",
          "type": "address"
        },
        {
          "internalType": "uint256",
          "name": "_amount",
          "type": "uint256"
        }
      ],
      "name": "returnFromPool",
      "outputs": [],
      "stateMutability": "nonpayable",
      "type": "function"
    },
    {
      "inputs": [
        {
          "internalType": "address",
          "name": "_sender",
          "type": "address"
        },
        {
          "internalType": "address",
          "name": "_poolAddress",
          "type": "address"
        },
        {
          "internalType": "uint256",
          "name": "_amount",
          "type": "uint256"
        }
      ],
      "name": "sendToPool",
      "outputs": [],
      "stateMutability": "nonpayable",
      "type": "function"
    },
    {
      "inputs": [
        {
          "internalType": "address",
          "name": "_owner",
          "type": "address"
        }
      ],
      "name": "setOwner",
      "outputs": [],
      "stateMutability": "nonpayable",
      "type": "function"
    },
    {
      "inputs": [],
      "name": "symbol",
      "outputs": [
        {
          "internalType": "string",
          "name": "",
          "type": "string"
        }
      ],
      "stateMutability": "view",
      "type": "function"
    },
    {
      "inputs": [],
      "name": "totalSupply",
      "outputs": [
        {
          "internalType": "uint256",
          "name": "",
          "type": "uint256"
        }
      ],
      "stateMutability": "view",
      "type": "function"
    },
    {
      "inputs": [
        {
          "internalType": "address",
          "name": "recipient",
          "type": "address"
        },
        {
          "internalType": "uint256",
          "name": "amount",
          "type": "uint256"
        }
      ],
      "name": "transfer",
      "outputs": [
        {
          "internalType": "bool",
          "name": "",
          "type": "bool"
        }
      ],
      "stateMutability": "nonpayable",
      "type": "function"
    },
    {
      "inputs": [
        {
          "internalType": "address",
          "name": "sender",
          "type": "address"
        },
        {
          "internalType": "address",
          "name": "recipient",
          "type": "address"
        },
        {
          "internalType": "uint256",
          "name": "amount",
          "type": "uint256"
        }
      ],
      "name": "transferFrom",
      "outputs": [
        {
          "internalType": "bool",
          "name": "",
          "type": "bool"
        }
      ],
      "stateMutability": "nonpayable",
      "type": "function"
    },
    {
      "inputs": [
        {
          "internalType": "address",
          "name": "_account",
          "type": "address"
        },
        {
          "internalType": "uint256",
          "name": "_amount",
          "type": "uint256"
        }
      ],
      "name": "unprotectedBurn",
      "outputs": [],
      "stateMutability": "nonpayable",
      "type": "function"
    },
    {
      "inputs": [
        {
          "internalType": "address",
          "name": "_account",
          "type": "address"
        },
        {
          "internalType": "uint256",
          "name": "_amount",
          "type": "uint256"
        }
      ],
      "name": "unprotectedMint",
      "outputs": [],
      "stateMutability": "nonpayable",
      "type": "function"
    },
    {
      "inputs": [
        {
          "internalType": "address",
          "name": "_poolAddress",
          "type": "address"
        },
        {
          "internalType": "address",
          "name": "_receiver",
          "type": "address"
        },
        {
          "internalType": "uint256",
          "name": "_amount",
          "type": "uint256"
        }
      ],
      "name": "unprotectedReturnFromPool",
      "outputs": [],
      "stateMutability": "nonpayable",
      "type": "function"
    },
    {
      "inputs": [
        {
          "internalType": "address",
          "name": "_sender",
          "type": "address"
        },
        {
          "internalType": "address",
          "name": "_poolAddress",
          "type": "address"
        },
        {
          "internalType": "uint256",
          "name": "_amount",
          "type": "uint256"
        }
      ],
      "name": "unprotectedSendToPool",
      "outputs": [],
      "stateMutability": "nonpayable",
      "type": "function"
    },
    {
      "inputs": [],
      "name": "version",
      "outputs": [
        {
          "internalType": "string",
          "name": "",
          "type": "string"
        }
      ],
      "stateMutability": "view",
      "type": "function"
    }
  ],
  "bytecode": "0x60806040523480156200001157600080fd5b506040516200204038038062002040833981810160405260608110156200003757600080fd5b50805160208201516040909201519091906200005c336001600160e01b036200007b16565b620000728383836001600160e01b036200013d16565b505050620005d7565b6001600160a01b038116620000c25760405162461bcd60e51b815260040180806020018281038252602281526020018062001ff06022913960400191505060405180910390fd5b6001600160a01b038116620000df6001600160e01b036200028216565b6001600160a01b03167f8be0079c531659141344cd1fd0a4f28419497f9722a3daafe3b4186f6b6457e060405160405180910390a3604080517035b2bc9737bbb730b136329737bbb732b960791b8152905190819003601101902055565b600054610100900460ff1680620001625750620001626001600160e01b03620002ac16565b8062000171575060005460ff16155b620001ae5760405162461bcd60e51b815260040180806020018281038252602e81526020018062002012602e913960400191505060405180910390fd5b600054610100900460ff16158015620001da576000805460ff1961ff0019909116610100171660011790555b620001ed6001600160e01b036200028216565b6001600160a01b0316336001600160a01b03161462000253576040805162461bcd60e51b815260206004820152601760248201527f4f776e61626c653a3a206163636573732064656e696564000000000000000000604482015290519081900360640190fd5b620002698484846001600160e01b03620002b216565b80156200027c576000805461ff00191690555b50505050565b604080517035b2bc9737bbb730b136329737bbb732b960791b815290519081900360110190205490565b303b1590565b620002c6836001600160e01b03620004bd16565b620002da826001600160e01b03620004bd16565b620002ee816001600160e01b03620004bd16565b603b80546001600160a01b0385166001600160a01b0319909116811790915560408051918252517f143219c9e69b09e07e095fcc889b43d8f46ca892bba65f08dc3a0050869a56789181900360200190a1603c80546001600160a01b0384166001600160a01b0319909116811790915560408051918252517f82966d27eea39b038ee0fa30cd16532bb24f6e65d31cb58fb227aa5766cdcc7f9181900360200190a1603d80546001600160a01b0383166001600160a01b0319909116811790915560408051918252517f3ca631ffcd2a9b5d9ae18543fc82f58eb4ca33af9e6ab01b7a8e95331e6ed9859181900360200190a1604080518082018252600f81526e2d2aa9a21029ba30b13632b1b7b4b760891b602091820152815180830190925260018252603160f81b9101527fd28848e7c3cbededd42b8bfb722b93a1d091c2e7280388a67bb55fc505b758eb60368190557fc89efdaa54c0f20c7adf612882df0950f5a951637e0307cdcb4c672f298b8bc660378190556200047a6001600160e01b036200057216565b603555620004b37f8b73c3c69bb8fe3d512ecc4cf759cc79239f7b179b0ffacaa9a75d522b39400f83836001600160e01b036200057616565b6034555050505050565b6001600160a01b03811662000519576040805162461bcd60e51b815260206004820152601e60248201527f4163636f756e742063616e6e6f74206265207a65726f20616464726573730000604482015290519081900360640190fd5b803b806200056e576040805162461bcd60e51b815260206004820181905260248201527f4163636f756e7420636f64652073697a652063616e6e6f74206265207a65726f604482015290519081900360640190fd5b5050565b4690565b60008383836200058e6001600160e01b036200057216565b6040805160208082019690965280820194909452606084019290925260808301523060a0808401919091528151808403909101815260c090920190528051910120949350505050565b611a0980620005e76000396000f3fe608060405234801561001057600080fd5b50600436106101a55760003560e01c8063519e2cee116100ef578063a457c2d711610092578063a457c2d71461057f578063a9059cbb146105ab578063b655c276146103d1578063bb997bac146105d7578063c0c53b8b1461060d578063d505accf14610645578063dd62ed3e14610696578063f698da25146106c4576101a5565b8063519e2cee1461045f57806354fd4d50146104a157806370a08231146104a95780637ecebe00146104cf5780638428cf83146104f5578063893d20e81461054357806395d89b411461054b5780639dc29fac14610553576101a5565b806323b872dd1161015757806323b872dd1461031d578063313ce567146103535780633408e4701461037157806339509351146103795780633ab60582146103a55780633dc2ea6d146103d157806340c10f19146104075780635099f99f14610433576101a5565b806303d99946146101aa57806306fdde03146101f4578063095ea7b31461027157806310ce43bd1461029d57806313af4035146102b757806318160ddd146102df57806320c582be146102e7575b600080fd5b6101e0600480360360608110156101c057600080fd5b506001600160a01b038135811691602081013590911690604001356106cc565b604080519115158252519081900360200190f35b6101fc6106e0565b6040805160208082528351818301528351919283929083019185019080838360005b8381101561023657818101518382015260200161021e565b50505050905090810190601f1680156102635780820380516001836020036101000a031916815260200191505b509250505060405180910390f35b6101e06004803603604081101561028757600080fd5b506001600160a01b03813516906020013561070a565b6102a5610720565b60408051918252519081900360200190f35b6102dd600480360360208110156102cd57600080fd5b50356001600160a01b0316610732565b005b6102a56107a5565b6102dd600480360360608110156102fd57600080fd5b506001600160a01b038135811691602081013590911690604001356107ab565b6101e06004803603606081101561033357600080fd5b506001600160a01b038135811691602081013590911690604001356107c3565b61035b61083b565b6040805160ff9092168252519081900360200190f35b6102a5610840565b6101e06004803603604081101561038f57600080fd5b506001600160a01b038135169060200135610844565b6102dd600480360360408110156103bb57600080fd5b506001600160a01b038135169060200135610880565b6102dd600480360360608110156103e757600080fd5b506001600160a01b038135811691602081013590911690604001356107b3565b6102dd6004803603604081101561041d57600080fd5b506001600160a01b03813516906020013561088e565b6102dd6004803603604081101561044957600080fd5b506001600160a01b038135169060200135610896565b6102a5600480360360a081101561047557600080fd5b506001600160a01b038135811691602081013590911690604081013590606081013590608001356108a0565b6101fc610957565b6102a5600480360360208110156104bf57600080fd5b50356001600160a01b0316610972565b6102a5600480360360208110156104e557600080fd5b50356001600160a01b031661098d565b6105276004803603608081101561050b57600080fd5b5080359060ff60208201351690604081013590606001356109a8565b604080516001600160a01b039092168252519081900360200190f35b610527610a14565b6101fc610a3e565b6102dd6004803603604081101561056957600080fd5b506001600160a01b038135169060200135610a5c565b6101e06004803603604081101561059557600080fd5b506001600160a01b038135169060200135610a64565b6101e0600480360360408110156105c157600080fd5b506001600160a01b038135169060200135610ab9565b6102dd600480360360608110156105ed57600080fd5b506001600160a01b03813581169160208101359091169060400135610acf565b6102dd6004803603606081101561062357600080fd5b506001600160a01b038135811691602081013582169160409091013516610ad7565b6102dd600480360360e081101561065b57600080fd5b506001600160a01b03813581169160208101359091169060408101359060608101359060ff6080820135169060a08101359060c00135610bee565b6102a5600480360360408110156106ac57600080fd5b506001600160a01b0381358116916020013516610dd1565b6102a5610dfc565b60006106d9848484610e51565b9392505050565b60408051808201909152600f81526e2d2aa9a21029ba30b13632b1b7b4b760891b60208201525b90565b6000610717338484610e51565b50600192915050565b60008051602061195983398151915290565b61073a610a14565b6001600160a01b0316336001600160a01b031614610799576040805162461bcd60e51b815260206004820152601760248201527613dddb98589b194e8e881858d8d95cdcc819195b9a5959604a1b604482015290519081900360640190fd5b6107a281610ed3565b50565b60335490565b6107b3610f88565b6107be838383610fe8565b505050565b60006107ce836110ca565b6107d9848484610fe8565b610831843361082c856040518060600160405280602881526020016118be602891396001600160a01b038a166000908152603a60209081526040808320338452909152902054919063ffffffff61112616565b610e51565b5060019392505050565b601290565b4690565b336000818152603a602090815260408083206001600160a01b0387168452909152812054909161071791859061082c908663ffffffff6111bd16565b61088a8282611217565b5050565b6108966112cc565b61088a8282611315565b60006119016108ad610dfc565b604080516000805160206119598339815191526020808301919091526001600160a01b03808c16838501528a1660608301526080820189905260a0820188905260c08083018890528351808403909101815260e0830184528051908201206001600160f01b031960f09690961b9590951661010083015261010282019390935261012280820194909452815180820390940184526101420190528151910120905095945050505050565b6040805180820190915260018152603160f81b602082015290565b6001600160a01b031660009081526039602052604090205490565b6001600160a01b031660009081526038602052604090205490565b604080516000808252602080830180855288905260ff87168385015260608301869052608083018590529251909260019260a080820193601f1981019281900390910190855afa158015610a00573d6000803e3d6000fd5b5050604051601f1901519695505050505050565b604080517035b2bc9737bbb730b136329737bbb732b960791b815290519081900360110190205490565b604080518082019091526004815263169554d160e21b602082015290565b6108806113aa565b6000610717338461082c856040518060600160405280602581526020016119af60259139336000908152603a602090815260408083206001600160a01b038d168452909152902054919063ffffffff61112616565b6000610ac4836110ca565b610717338484610fe8565b6107b361141d565b600054610100900460ff1680610af05750610af0611466565b80610afe575060005460ff16155b610b395760405162461bcd60e51b815260040180806020018281038252602e8152602001806118e6602e913960400191505060405180910390fd5b600054610100900460ff16158015610b64576000805460ff1961ff0019909116610100171660011790555b610b6c610a14565b6001600160a01b0316336001600160a01b031614610bcb576040805162461bcd60e51b815260206004820152601760248201527613dddb98589b194e8e881858d8d95cdcc819195b9a5959604a1b604482015290519081900360640190fd5b610bd684848461146c565b8015610be8576000805461ff00191690555b50505050565b42841015610c3c576040805162461bcd60e51b81526020600482015260166024820152755a5553443a206578706972656420646561646c696e6560501b604482015290519081900360640190fd5b6000610c46610dfc565b6001600160a01b03808a1660008181526038602090815260408083208054600180820190925582516000805160206119598339815191528186015280840196909652958e166060860152608085018d905260a085019590955260c08085018c90528151808603909101815260e08501825280519083012061190160f01b6101008601526101028501969096526101228085019690965280518085039096018652610142840180825286519683019690962095839052610162840180825286905260ff8a166101828501526101a284018990526101c284018890525194955090936101e280840193601f198301929081900390910190855afa158015610d4f573d6000803e3d6000fd5b505050602060405103519050886001600160a01b0316816001600160a01b031614610dbb576040805162461bcd60e51b81526020600482015260176024820152765a5553443a20696e76616c6964207369676e617475726560481b604482015290519081900360640190fd5b610dc6898989610e51565b505050505050505050565b6001600160a01b039182166000908152603a6020908152604080832093909416825291909152205490565b6000603554610e09610840565b1415610e185750603454610707565b610e4a7f8b73c3c69bb8fe3d512ecc4cf759cc79239f7b179b0ffacaa9a75d522b39400f60001b603654603754611640565b9050610707565b6001600160a01b038316610e6157fe5b6001600160a01b038216610e7157fe5b6001600160a01b038084166000818152603a6020908152604080832094871680845294825291829020859055815185815291517f8c5be1e5ebec7d5bd14f71427d1e84f3dd0314c0f7b2291e5b200ac8c7c3b9259281900390910190a3505050565b6001600160a01b038116610f185760405162461bcd60e51b81526004018080602001828103825260228152602001806118486022913960400191505060405180910390fd5b806001600160a01b0316610f2a610a14565b6001600160a01b03167f8be0079c531659141344cd1fd0a4f28419497f9722a3daafe3b4186f6b6457e060405160405180910390a3604080517035b2bc9737bbb730b136329737bbb732b960791b8152905190819003601101902055565b603b546001600160a01b0316331480610fab5750603c546001600160a01b031633145b610fe65760405162461bcd60e51b81526004018080602001828103825260368152602001806119796036913960400191505060405180910390fd5b565b6001600160a01b038316610ff857fe5b6001600160a01b03821661100857fe5b61104b816040518060600160405280602681526020016117d5602691396001600160a01b038616600090815260396020526040902054919063ffffffff61112616565b6001600160a01b038085166000908152603960205260408082209390935590841681522054611080908263ffffffff6111bd16565b6001600160a01b03808416600081815260396020908152604091829020949094558051858152905191939287169260008051602061193983398151915292918290030190a3505050565b6001600160a01b038116158015906110eb57506001600160a01b0381163014155b6107a25760405162461bcd60e51b815260040180806020018281038252605481526020018061186a6054913960600191505060405180910390fd5b600081848411156111b55760405162461bcd60e51b81526004018080602001828103825283818151815260200191508051906020019080838360005b8381101561117a578181015183820152602001611162565b50505050905090810190601f1680156111a75780820380516001836020036101000a031916815260200191505b509250505060405180910390fd5b505050900390565b6000828201838110156106d9576040805162461bcd60e51b815260206004820152601b60248201527f536166654d6174683a206164646974696f6e206f766572666c6f770000000000604482015290519081900360640190fd5b6001600160a01b03821661122757fe5b61126a81604051806060016040528060228152602001611788602291396001600160a01b038516600090815260396020526040902054919063ffffffff61112616565b6001600160a01b038316600090815260396020526040902055603354611296908263ffffffff61169616565b6033556040805182815290516000916001600160a01b038516916000805160206119398339815191529181900360200190a35050565b603d546001600160a01b03163314610fe65760405162461bcd60e51b815260040180806020018281038252602b8152602001806117aa602b913960400191505060405180910390fd5b6001600160a01b03821661132557fe5b603354611338908263ffffffff6111bd16565b6033556001600160a01b038216600090815260396020526040902054611364908263ffffffff6111bd16565b6001600160a01b03831660008181526039602090815260408083209490945583518581529351929391926000805160206119398339815191529281900390910190a35050565b603d546001600160a01b03163314806113cd5750603b546001600160a01b031633145b806113e25750603c546001600160a01b031633145b610fe65760405162461bcd60e51b815260040180806020018281038252604d8152602001806117fb604d913960600191505060405180910390fd5b603c546001600160a01b03163314610fe65760405162461bcd60e51b81526004018080602001828103825260258152602001806119146025913960400191505060405180910390fd5b303b1590565b611475836116d8565b61147e826116d8565b611487816116d8565b603b80546001600160a01b0385166001600160a01b0319909116811790915560408051918252517f143219c9e69b09e07e095fcc889b43d8f46ca892bba65f08dc3a0050869a56789181900360200190a1603c80546001600160a01b0384166001600160a01b0319909116811790915560408051918252517f82966d27eea39b038ee0fa30cd16532bb24f6e65d31cb58fb227aa5766cdcc7f9181900360200190a1603d80546001600160a01b0383166001600160a01b0319909116811790915560408051918252517f3ca631ffcd2a9b5d9ae18543fc82f58eb4ca33af9e6ab01b7a8e95331e6ed9859181900360200190a1604080518082018252600f81526e2d2aa9a21029ba30b13632b1b7b4b760891b602091820152815180830190925260018252603160f81b9101527fd28848e7c3cbededd42b8bfb722b93a1d091c2e7280388a67bb55fc505b758eb60368190557fc89efdaa54c0f20c7adf612882df0950f5a951637e0307cdcb4c672f298b8bc66037819055611608610840565b6035556116367f8b73c3c69bb8fe3d512ecc4cf759cc79239f7b179b0ffacaa9a75d522b39400f8383611640565b6034555050505050565b600083838361164d610840565b6040805160208082019690965280820194909452606084019290925260808301523060a0808401919091528151808403909101815260c090920190528051910120949350505050565b60006106d983836040518060400160405280601e81526020017f536166654d6174683a207375627472616374696f6e206f766572666c6f770000815250611126565b6001600160a01b038116611733576040805162461bcd60e51b815260206004820152601e60248201527f4163636f756e742063616e6e6f74206265207a65726f20616464726573730000604482015290519081900360640190fd5b803b8061088a576040805162461bcd60e51b815260206004820181905260248201527f4163636f756e7420636f64652073697a652063616e6e6f74206265207a65726f604482015290519081900360640190fdfe45524332303a206275726e20616d6f756e7420657863656564732062616c616e63655a555344546f6b656e3a2043616c6c6572206973206e6f7420426f72726f7765724f7065726174696f6e7345524332303a207472616e7366657220616d6f756e7420657863656564732062616c616e63655a5553443a2043616c6c6572206973206e65697468657220426f72726f7765724f7065726174696f6e73206e6f722054726f76654d616e61676572206e6f722053746162696c697479506f6f6c4f776e61626c653a3a7365744f776e65723a20696e76616c696420616464726573735a5553443a2043616e6e6f74207472616e7366657220746f6b656e73206469726563746c7920746f20746865205a55534420746f6b656e20636f6e7472616374206f7220746865207a65726f206164647265737345524332303a207472616e7366657220616d6f756e74206578636565647320616c6c6f77616e6365436f6e747261637420696e7374616e63652068617320616c7265616479206265656e20696e697469616c697a65645a5553443a2043616c6c6572206973206e6f74207468652053746162696c697479506f6f6cddf252ad1be2c89b69c2b068fc378daa952ba7f163c4a11628f55a4df523b3ef6e71edae12b1b97f4d1f60370fef10105fa2faae0126114a169c64845d6126c95a5553443a2043616c6c6572206973206e6569746865722054726f76654d616e61676572206e6f722053746162696c697479506f6f6c45524332303a2064656372656173656420616c6c6f77616e63652062656c6f77207a65726fa2646970667358221220cf94bdb6eb90c532d4c1cc0b9af6913b9d12393330e376b716cfcf8fc492447664736f6c634300060b00334f776e61626c653a3a7365744f776e65723a20696e76616c69642061646472657373436f6e747261637420696e7374616e63652068617320616c7265616479206265656e20696e697469616c697a6564",
  "linkReferences": {},
  "deployedLinkReferences": {}
}