{
  "address": "0xA328Ab97Be109Ce0b4dFd70DaD773105FB2d81a7",
  "abi": [
    {
      "anonymous": false,
      "inputs": [
        {
          "indexed": false,
          "internalType": "uint256",
          "name": "_APR",
          "type": "uint256"
        }
      ],
      "name": "APRSet",
      "type": "event"
    },
    {
      "anonymous": false,
      "inputs": [
        {
          "indexed": true,
          "internalType": "address",
          "name": "previousOwner",
          "type": "address"
        },
        {
          "indexed": true,
          "internalType": "address",
          "name": "newOwner",
          "type": "address"
        }
      ],
      "name": "OwnershipTransferred",
      "type": "event"
    },
    {
      "anonymous": false,
      "inputs": [
        {
          "indexed": false,
          "internalType": "address",
          "name": "_priceFeed",
          "type": "address"
        }
      ],
      "name": "PriceFeedAddressSet",
      "type": "event"
    },
    {
      "anonymous": false,
      "inputs": [
        {
          "indexed": false,
          "internalType": "address",
          "name": "_rewardManagerAddress",
          "type": "address"
        }
      ],
      "name": "RewardManagerAddressSet",
      "type": "event"
    },
    {
      "anonymous": false,
      "inputs": [
        {
          "indexed": false,
          "internalType": "address",
          "name": "_sovTokenAddress",
          "type": "address"
        }
      ],
      "name": "SOVTokenAddressSet",
      "type": "event"
    },
    {
      "anonymous": false,
      "inputs": [
        {
          "indexed": false,
          "internalType": "address",
          "name": "_stabilityPoolAddress",
          "type": "address"
        }
      ],
      "name": "StabilityPoolAddressSet",
      "type": "event"
    },
    {
      "anonymous": false,
      "inputs": [
        {
          "indexed": false,
          "internalType": "uint256",
          "name": "_latestSOVIssued",
          "type": "uint256"
        }
      ],
      "name": "TotalSOVIssuedUpdated",
      "type": "event"
    },
    {
      "anonymous": false,
      "inputs": [
        {
          "indexed": false,
          "internalType": "address",
          "name": "_zusdTokenAddress",
          "type": "address"
        }
      ],
      "name": "ZUSDTokenAddressSet",
      "type": "event"
    },
    {
      "inputs": [],
      "name": "APR",
      "outputs": [
        {
          "internalType": "uint256",
          "name": "",
          "type": "uint256"
        }
      ],
      "stateMutability": "view",
      "type": "function"
    },
    {
      "inputs": [],
      "name": "DECIMAL_PRECISION",
      "outputs": [
        {
          "internalType": "uint256",
          "name": "",
          "type": "uint256"
        }
      ],
      "stateMutability": "view",
      "type": "function"
    },
    {
      "inputs": [],
      "name": "NAME",
      "outputs": [
        {
          "internalType": "string",
          "name": "",
          "type": "string"
        }
      ],
      "stateMutability": "view",
      "type": "function"
    },
    {
      "inputs": [],
      "name": "getOwner",
      "outputs": [
        {
          "internalType": "address",
          "name": "_owner",
          "type": "address"
        }
      ],
      "stateMutability": "view",
      "type": "function"
    },
    {
      "inputs": [
        {
          "internalType": "address",
          "name": "_sovTokenAddress",
          "type": "address"
        },
        {
          "internalType": "address",
          "name": "_zusdTokenAddress",
          "type": "address"
        },
        {
          "internalType": "address",
          "name": "_stabilityPoolAddress",
          "type": "address"
        },
        {
          "internalType": "address",
          "name": "_priceFeed",
          "type": "address"
        },
        {
          "internalType": "uint256",
          "name": "_APR",
          "type": "uint256"
        }
      ],
      "name": "initialize",
      "outputs": [],
      "stateMutability": "nonpayable",
      "type": "function"
    },
    {
      "inputs": [
        {
          "internalType": "uint256",
          "name": "_totalZUSDDeposits",
          "type": "uint256"
        }
      ],
      "name": "issueSOV",
      "outputs": [
        {
          "internalType": "uint256",
          "name": "",
          "type": "uint256"
        }
      ],
      "stateMutability": "nonpayable",
      "type": "function"
    },
    {
      "inputs": [],
      "name": "lastIssuanceTime",
      "outputs": [
        {
          "internalType": "uint256",
          "name": "",
          "type": "uint256"
        }
      ],
      "stateMutability": "view",
      "type": "function"
    },
    {
      "inputs": [],
      "name": "priceFeed",
      "outputs": [
        {
          "internalType": "contract IPriceFeedSovryn",
          "name": "",
          "type": "address"
        }
      ],
      "stateMutability": "view",
      "type": "function"
    },
    {
      "inputs": [],
      "name": "rewardManager",
      "outputs": [
        {
          "internalType": "address",
          "name": "",
          "type": "address"
        }
      ],
      "stateMutability": "view",
      "type": "function"
    },
    {
      "inputs": [
        {
          "internalType": "address",
          "name": "_account",
          "type": "address"
        },
        {
          "internalType": "uint256",
          "name": "_SOVamount",
          "type": "uint256"
        }
      ],
      "name": "sendSOV",
      "outputs": [],
      "stateMutability": "nonpayable",
      "type": "function"
    },
    {
      "inputs": [
        {
          "internalType": "uint256",
          "name": "_APR",
          "type": "uint256"
        }
      ],
      "name": "setAPR",
      "outputs": [],
      "stateMutability": "nonpayable",
      "type": "function"
    },
    {
      "inputs": [
        {
          "internalType": "address",
          "name": "_owner",
          "type": "address"
        }
      ],
      "name": "setOwner",
      "outputs": [],
      "stateMutability": "nonpayable",
      "type": "function"
    },
    {
      "inputs": [
        {
          "internalType": "address",
          "name": "_priceFeedAddress",
          "type": "address"
        }
      ],
      "name": "setPriceFeed",
      "outputs": [],
      "stateMutability": "nonpayable",
      "type": "function"
    },
    {
      "inputs": [
        {
          "internalType": "address",
          "name": "_rewardManagerAddress",
          "type": "address"
        }
      ],
      "name": "setRewardManager",
      "outputs": [],
      "stateMutability": "nonpayable",
      "type": "function"
    },
    {
      "inputs": [],
      "name": "sovToken",
      "outputs": [
        {
          "internalType": "contract IERC20",
          "name": "",
          "type": "address"
        }
      ],
      "stateMutability": "view",
      "type": "function"
    },
    {
      "inputs": [],
      "name": "stabilityPoolAddress",
      "outputs": [
        {
          "internalType": "address",
          "name": "",
          "type": "address"
        }
      ],
      "stateMutability": "view",
      "type": "function"
    },
    {
      "inputs": [],
      "name": "totalSOVIssued",
      "outputs": [
        {
          "internalType": "uint256",
          "name": "",
          "type": "uint256"
        }
      ],
      "stateMutability": "view",
      "type": "function"
    },
    {
      "inputs": [],
      "name": "zusdToken",
      "outputs": [
        {
          "internalType": "contract IERC20",
          "name": "",
          "type": "address"
        }
      ],
      "stateMutability": "view",
      "type": "function"
    }
  ],
  "transactionHash": "0x1919fc3b620ab6e2196aec2694669e82cd3e43f550bbddcbdf3cc3f32ca6bb60",
  "args": [],
  "numDeployments": 1,
  "solcInputHash": "754dff2eec82e13c98a907fdc90582aa",
  "bytecode": "0x608060405234801561001057600080fd5b50610023336001600160e01b0361002816565b610110565b6001600160a01b03811661006d5760405162461bcd60e51b815260040180806020018281038252602281526020018061115c6022913960400191505060405180910390fd5b6001600160a01b0381166100886001600160e01b036100e616565b6001600160a01b03167f8be0079c531659141344cd1fd0a4f28419497f9722a3daafe3b4186f6b6457e060405160405180910390a3604080517035b2bc9737bbb730b136329737bbb732b960791b8152905190819003601101902055565b604080517035b2bc9737bbb730b136329737bbb732b960791b815290519081900360110190205490565b61103d8061011f6000396000f3fe608060405234801561001057600080fd5b50600436106100f65760003560e01c8063893d20e811610092578063893d20e8146101f757806398afd294146101ff578063a20baee614610207578063a3f4df7e1461020f578063ae601ac11461028c578063bd30558e14610294578063ec9f7d461461029c578063f7013ef6146102a4578063f8c1dc6c146102ea576100f6565b80630b622ab2146100fb5780630f4ef8a61461011f57806313af403514610127578063153ee5541461014f57806360bf03ff146101755780636cbdcf471461018f578063724e78da146101ac578063741bef1a146101d2578063854303cf146101da575b600080fd5b610103610316565b604080516001600160a01b039092168252519081900360200190f35b610103610325565b61014d6004803603602081101561013d57600080fd5b50356001600160a01b0316610334565b005b61014d6004803603602081101561016557600080fd5b50356001600160a01b03166103a7565b61017d6104bd565b60408051918252519081900360200190f35b61017d600480360360208110156101a557600080fd5b50356104c3565b61014d600480360360208110156101c257600080fd5b50356001600160a01b0316610590565b610103610654565b61014d600480360360208110156101f057600080fd5b5035610663565b6101036106f0565b61010361071a565b61017d610729565b610217610735565b6040805160208082528351818301528351919283929083019185019080838360005b83811015610251578181015183820152602001610239565b50505050905090810190601f16801561027e5780820380516001836020036101000a031916815260200191505b509250505060405180910390f35b61017d610762565b61017d610768565b61010361076e565b61014d600480360360a08110156102ba57600080fd5b506001600160a01b038135811691602081013582169160408201358116916060810135909116906080013561077d565b61014d6004803603604081101561030057600080fd5b506001600160a01b0381351690602001356109e6565b6035546001600160a01b031681565b6039546001600160a01b031681565b61033c6106f0565b6001600160a01b0316336001600160a01b03161461039b576040805162461bcd60e51b815260206004820152601760248201527613dddb98589b194e8e881858d8d95cdcc819195b9a5959604a1b604482015290519081900360640190fd5b6103a481610ac2565b50565b6103af6106f0565b6001600160a01b0316336001600160a01b03161461040e576040805162461bcd60e51b815260206004820152601760248201527613dddb98589b194e8e881858d8d95cdcc819195b9a5959604a1b604482015290519081900360640190fd5b6001600160a01b038116610469576040805162461bcd60e51b815260206004820152601e60248201527f4163636f756e742063616e6e6f74206265207a65726f20616464726573730000604482015290519081900360640190fd5b603980546001600160a01b0383166001600160a01b0319909116811790915560408051918252517f1c7e8eeb20c95a47700378fd4dd1a7fe13a6f508d25615c5fb1f3d1099051daa9181900360200190a150565b60375481565b60006104cd610b77565b60006104e460375442610bc290919063ffffffff16565b9050600061052f61052a6301e133806105128561051e6127106105126038548c610c0d90919063ffffffff16565b9063ffffffff610c6616565b9063ffffffff610c0d16565b610ca8565b9050600061054860365483610bc290919063ffffffff16565b6036839055426037556040805184815290519192507f47eb3c2a573d55ee40451cdc91a92eb7fe3dd8bcdb4d19c9acd32ecaa29f2d55919081900360200190a1949350505050565b6105986106f0565b6001600160a01b0316336001600160a01b0316146105f7576040805162461bcd60e51b815260206004820152601760248201527613dddb98589b194e8e881858d8d95cdcc819195b9a5959604a1b604482015290519081900360640190fd5b61060081610d3f565b603a80546001600160a01b0383166001600160a01b0319909116811790915560408051918252517facd42642b5cb91804117282727eb92664d362985a4f353ccd03833d3049d16d99181900360200190a150565b603a546001600160a01b031681565b6039546001600160a01b031633146106ac5760405162461bcd60e51b8152600401808060200182810382526028815260200180610f4c6028913960400191505060405180910390fd5b6106b581610df2565b60388190556040805182815290517fd6b99165a8b6705d5dbba79fccdcac9b98141cb0f6413824ebd39fdfbe611ba69181900360200190a150565b604080517035b2bc9737bbb730b136329737bbb732b960791b815290519081900360110190205490565b6033546001600160a01b031681565b670de0b6b3a764000081565b60405180604001604052806011815260200170436f6d6d756e69747949737375616e636560781b81525081565b60365481565b60385481565b6034546001600160a01b031681565b600054610100900460ff16806107965750610796610e49565b806107a4575060005460ff16155b6107df5760405162461bcd60e51b815260040180806020018281038252602e815260200180610fb7602e913960400191505060405180910390fd5b600054610100900460ff1615801561080a576000805460ff1961ff0019909116610100171660011790555b6108126106f0565b6001600160a01b0316336001600160a01b031614610871576040805162461bcd60e51b815260206004820152601760248201527613dddb98589b194e8e881858d8d95cdcc819195b9a5959604a1b604482015290519081900360640190fd5b61087a86610d3f565b61088385610d3f565b61088c84610d3f565b61089583610d3f565b61089e82610df2565b603380546001600160a01b038089166001600160a01b031992831681179093556034805489831690841617905560358054888316908416179055603a80549187169190921617905560388390554260375560408051918252517f5bce47da81ad81a6d5745ec7a1790bd9213dc36898110fd3681b037768a2b3c69181900360200190a1604080516001600160a01b038616815290517f45c53611bc8ba9e11f4f8173bda9e3faf89c395ddb83f9a55230b156828db3159181900360200190a1604080516001600160a01b038516815290517facd42642b5cb91804117282727eb92664d362985a4f353ccd03833d3049d16d99181900360200190a16040805183815290517fd6b99165a8b6705d5dbba79fccdcac9b98141cb0f6413824ebd39fdfbe611ba69181900360200190a180156109de576000805461ff00191690555b505050505050565b6109ee610b77565b6033546040805163a9059cbb60e01b81526001600160a01b038581166004830152602482018590529151600093929092169163a9059cbb9160448082019260209290919082900301818787803b158015610a4757600080fd5b505af1158015610a5b573d6000803e3d6000fd5b505050506040513d6020811015610a7157600080fd5b5051905080610abd576040805162461bcd60e51b81526020600482015260136024820152724661696c656420746f2073656e64205a45524f60681b604482015290519081900360640190fd5b505050565b6001600160a01b038116610b075760405162461bcd60e51b8152600401808060200182810382526022815260200180610f746022913960400191505060405180910390fd5b806001600160a01b0316610b196106f0565b6001600160a01b03167f8be0079c531659141344cd1fd0a4f28419497f9722a3daafe3b4186f6b6457e060405160405180910390a3604080517035b2bc9737bbb730b136329737bbb732b960791b8152905190819003601101902055565b6035546001600160a01b03163314610bc05760405162461bcd60e51b8152600401808060200182810382526023815260200180610fe56023913960400191505060405180910390fd5b565b6000610c0483836040518060400160405280601e81526020017f536166654d6174683a207375627472616374696f6e206f766572666c6f770000815250610e4f565b90505b92915050565b600082610c1c57506000610c07565b82820282848281610c2957fe5b0414610c045760405162461bcd60e51b8152600401808060200182810382526021815260200180610f966021913960400191505060405180910390fd5b6000610c0483836040518060400160405280601a81526020017f536166654d6174683a206469766973696f6e206279207a65726f000000000000815250610ee6565b603a546034546033546040805163d138f9a160e01b81526001600160a01b03938416600482015291831660248301526044820185905251600093929092169163d138f9a191606480820192602092909190829003018186803b158015610d0d57600080fd5b505afa158015610d21573d6000803e3d6000fd5b505050506040513d6020811015610d3757600080fd5b505192915050565b6001600160a01b038116610d9a576040805162461bcd60e51b815260206004820152601e60248201527f4163636f756e742063616e6e6f74206265207a65726f20616464726573730000604482015290519081900360640190fd5b803b80610dee576040805162461bcd60e51b815260206004820181905260248201527f4163636f756e7420636f64652073697a652063616e6e6f74206265207a65726f604482015290519081900360640190fd5b5050565b6127108111156103a4576040805162461bcd60e51b815260206004820152601b60248201527f415052206d757374206265206c657373207468616e2031303030300000000000604482015290519081900360640190fd5b303b1590565b60008184841115610ede5760405162461bcd60e51b81526004018080602001828103825283818151815260200191508051906020019080838360005b83811015610ea3578181015183820152602001610e8b565b50505050905090810190601f168015610ed05780820380516001836020036101000a031916815260200191505b509250505060405180910390fd5b505050900390565b60008183610f355760405162461bcd60e51b8152602060048201818152835160248401528351909283926044909101919085019080838360008315610ea3578181015183820152602001610e8b565b506000838581610f4157fe5b049594505050505056fe5065726d697373696f6e3a3a7265776172644d616e616765723a206163636573732064656e6965644f776e61626c653a3a7365744f776e65723a20696e76616c69642061646472657373536166654d6174683a206d756c7469706c69636174696f6e206f766572666c6f77436f6e747261637420696e7374616e63652068617320616c7265616479206265656e20696e697469616c697a6564436f6d6d756e69747949737375616e63653a2063616c6c6572206973206e6f74205350a2646970667358221220635837891265c8924f7e1e8bb6de83abb4e32866b16825f4a06348ea7d7e7b3e64736f6c634300060b00334f776e61626c653a3a7365744f776e65723a20696e76616c69642061646472657373",
  "devdoc": {
    "kind": "dev",
    "methods": {
      "getOwner()": {
        "returns": {
          "_owner": "Address of the owner. "
        }
      },
      "initialize(address,address,address,address,uint256)": {
        "details": "initialization function to set configs. can only be initialized by owner.",
        "params": {
          "_APR": "apr in basis points.",
          "_priceFeed": "price feed address.",
          "_sovTokenAddress": "sov token address.",
          "_stabilityPoolAddress": "stability pool address.",
          "_zusdTokenAddress": "zero token address."
        }
      },
      "setAPR(uint256)": {
        "details": "setter function to set the APR value in basis points. can only be called by reward manager.",
        "params": {
          "_APR": "apr value in basis points."
        }
      },
      "setOwner(address)": {
        "params": {
          "_owner": "Address of the owner. "
        }
      },
      "setPriceFeed(address)": {
        "details": "setter function to set the price feed. can only be called by the owner.",
        "params": {
          "_priceFeedAddress": "price feed address."
        }
      },
      "setRewardManager(address)": {
        "details": "setter function to set reward manager. can only be called by the owner.",
        "params": {
          "_rewardManagerAddress": "reward manager address."
        }
      }
    },
    "version": 1
  },
  "userdoc": {
    "kind": "user",
    "methods": {
      "getOwner()": {
        "notice": "Return address of the owner."
      },
      "setOwner(address)": {
        "notice": "Set address of the owner (only owner can call this function)"
      }
    },
    "version": 1
  },
  "storageLayout": {
    "storage": [
      {
        "astId": 5125,
        "contract": "contracts/ZERO/CommunityIssuance.sol:CommunityIssuance",
        "label": "initialized",
        "offset": 0,
        "slot": "0",
        "type": "t_bool"
      },
      {
        "astId": 5128,
        "contract": "contracts/ZERO/CommunityIssuance.sol:CommunityIssuance",
        "label": "initializing",
        "offset": 1,
        "slot": "0",
        "type": "t_bool"
      },
      {
        "astId": 5193,
        "contract": "contracts/ZERO/CommunityIssuance.sol:CommunityIssuance",
        "label": "______gap",
        "offset": 0,
        "slot": "1",
        "type": "t_array(t_uint256)50_storage"
      },
      {
        "astId": 33963,
        "contract": "contracts/ZERO/CommunityIssuance.sol:CommunityIssuance",
        "label": "sovToken",
        "offset": 0,
        "slot": "51",
        "type": "t_contract(IERC20)5074"
      },
      {
        "astId": 33965,
        "contract": "contracts/ZERO/CommunityIssuance.sol:CommunityIssuance",
        "label": "zusdToken",
        "offset": 0,
        "slot": "52",
        "type": "t_contract(IERC20)5074"
      },
      {
        "astId": 33967,
        "contract": "contracts/ZERO/CommunityIssuance.sol:CommunityIssuance",
        "label": "stabilityPoolAddress",
        "offset": 0,
        "slot": "53",
        "type": "t_address"
      },
      {
        "astId": 33969,
        "contract": "contracts/ZERO/CommunityIssuance.sol:CommunityIssuance",
        "label": "totalSOVIssued",
        "offset": 0,
        "slot": "54",
        "type": "t_uint256"
      },
      {
        "astId": 33971,
        "contract": "contracts/ZERO/CommunityIssuance.sol:CommunityIssuance",
        "label": "lastIssuanceTime",
        "offset": 0,
        "slot": "55",
        "type": "t_uint256"
      },
      {
        "astId": 33973,
        "contract": "contracts/ZERO/CommunityIssuance.sol:CommunityIssuance",
        "label": "APR",
        "offset": 0,
        "slot": "56",
        "type": "t_uint256"
      },
      {
        "astId": 33975,
        "contract": "contracts/ZERO/CommunityIssuance.sol:CommunityIssuance",
        "label": "rewardManager",
        "offset": 0,
        "slot": "57",
        "type": "t_address"
      },
      {
        "astId": 33977,
        "contract": "contracts/ZERO/CommunityIssuance.sol:CommunityIssuance",
        "label": "priceFeed",
        "offset": 0,
        "slot": "58",
        "type": "t_contract(IPriceFeedSovryn)19883"
      }
    ],
    "types": {
      "t_address": {
        "encoding": "inplace",
        "label": "address",
        "numberOfBytes": "20"
      },
      "t_array(t_uint256)50_storage": {
        "base": "t_uint256",
        "encoding": "inplace",
        "label": "uint256[50]",
        "numberOfBytes": "1600"
      },
      "t_bool": {
        "encoding": "inplace",
        "label": "bool",
        "numberOfBytes": "1"
      },
      "t_contract(IERC20)5074": {
        "encoding": "inplace",
        "label": "contract IERC20",
        "numberOfBytes": "20"
      },
      "t_contract(IPriceFeedSovryn)19883": {
        "encoding": "inplace",
        "label": "contract IPriceFeedSovryn",
        "numberOfBytes": "20"
      },
      "t_uint256": {
        "encoding": "inplace",
        "label": "uint256",
        "numberOfBytes": "32"
      }
    }
  }
}