{
  "address": "0x176D218CaB70002CEF08e15271476187c37ed25f",
  "abi": [
    {
      "anonymous": false,
      "inputs": [
        {
          "indexed": false,
          "internalType": "address",
          "name": "_newActivePoolAddress",
          "type": "address"
        }
      ],
      "name": "ActivePoolAddressChanged",
      "type": "event"
    },
    {
      "anonymous": false,
      "inputs": [
        {
          "indexed": false,
          "internalType": "address",
          "name": "_newBorrowerOperationsAddress",
          "type": "address"
        }
      ],
      "name": "BorrowerOperationsAddressChanged",
      "type": "event"
    },
    {
      "anonymous": false,
      "inputs": [
        {
          "indexed": false,
          "internalType": "address",
          "name": "_newCommunityIssuanceAddress",
          "type": "address"
        }
      ],
      "name": "CommunityIssuanceAddressChanged",
      "type": "event"
    },
    {
      "anonymous": false,
      "inputs": [
        {
          "indexed": false,
          "internalType": "address",
          "name": "_newDefaultPoolAddress",
          "type": "address"
        }
      ],
      "name": "DefaultPoolAddressChanged",
      "type": "event"
    },
    {
      "anonymous": false,
      "inputs": [
        {
          "indexed": true,
          "internalType": "address",
          "name": "_depositor",
          "type": "address"
        },
        {
          "indexed": false,
          "internalType": "uint256",
          "name": "_P",
          "type": "uint256"
        },
        {
          "indexed": false,
          "internalType": "uint256",
          "name": "_S",
          "type": "uint256"
        },
        {
          "indexed": false,
          "internalType": "uint256",
          "name": "_G",
          "type": "uint256"
        }
      ],
      "name": "DepositSnapshotUpdated",
      "type": "event"
    },
    {
      "anonymous": false,
      "inputs": [
        {
          "indexed": true,
          "internalType": "address",
          "name": "_depositor",
          "type": "address"
        },
        {
          "indexed": false,
          "internalType": "uint256",
          "name": "_ETH",
          "type": "uint256"
        },
        {
          "indexed": false,
          "internalType": "uint256",
          "name": "_ZUSDLoss",
          "type": "uint256"
        }
      ],
      "name": "ETHGainWithdrawn",
      "type": "event"
    },
    {
      "anonymous": false,
      "inputs": [
        {
          "indexed": false,
          "internalType": "uint128",
          "name": "_currentEpoch",
          "type": "uint128"
        }
      ],
      "name": "EpochUpdated",
      "type": "event"
    },
    {
      "anonymous": false,
      "inputs": [
        {
          "indexed": false,
          "internalType": "address",
          "name": "_to",
          "type": "address"
        },
        {
          "indexed": false,
          "internalType": "uint256",
          "name": "_amount",
          "type": "uint256"
        }
      ],
      "name": "EtherSent",
      "type": "event"
    },
    {
      "anonymous": false,
      "inputs": [
        {
          "indexed": true,
          "internalType": "address",
          "name": "_frontEnd",
          "type": "address"
        },
        {
          "indexed": false,
          "internalType": "uint256",
          "name": "_kickbackRate",
          "type": "uint256"
        }
      ],
      "name": "FrontEndRegistered",
      "type": "event"
    },
    {
      "anonymous": false,
      "inputs": [
        {
          "indexed": true,
          "internalType": "address",
          "name": "_frontEnd",
          "type": "address"
        },
        {
          "indexed": false,
          "internalType": "uint256",
          "name": "_P",
          "type": "uint256"
        },
        {
          "indexed": false,
          "internalType": "uint256",
          "name": "_G",
          "type": "uint256"
        }
      ],
      "name": "FrontEndSnapshotUpdated",
      "type": "event"
    },
    {
      "anonymous": false,
      "inputs": [
        {
          "indexed": true,
          "internalType": "address",
          "name": "_frontEnd",
          "type": "address"
        },
        {
          "indexed": false,
          "internalType": "uint256",
          "name": "_newFrontEndStake",
          "type": "uint256"
        },
        {
          "indexed": false,
          "internalType": "address",
          "name": "_depositor",
          "type": "address"
        }
      ],
      "name": "FrontEndStakeChanged",
      "type": "event"
    },
    {
      "anonymous": false,
      "inputs": [
        {
          "indexed": true,
          "internalType": "address",
          "name": "_depositor",
          "type": "address"
        },
        {
          "indexed": true,
          "internalType": "address",
          "name": "_frontEnd",
          "type": "address"
        }
      ],
      "name": "FrontEndTagSet",
      "type": "event"
    },
    {
      "anonymous": false,
      "inputs": [
        {
          "indexed": false,
          "internalType": "uint256",
          "name": "_G",
          "type": "uint256"
        },
        {
          "indexed": false,
          "internalType": "uint128",
          "name": "_epoch",
          "type": "uint128"
        },
        {
          "indexed": false,
          "internalType": "uint128",
          "name": "_scale",
          "type": "uint128"
        }
      ],
      "name": "G_Updated",
      "type": "event"
    },
    {
      "anonymous": false,
      "inputs": [
        {
          "indexed": true,
          "internalType": "address",
          "name": "previousOwner",
          "type": "address"
        },
        {
          "indexed": true,
          "internalType": "address",
          "name": "newOwner",
          "type": "address"
        }
      ],
      "name": "OwnershipTransferred",
      "type": "event"
    },
    {
      "anonymous": false,
      "inputs": [
        {
          "indexed": false,
          "internalType": "uint256",
          "name": "_P",
          "type": "uint256"
        }
      ],
      "name": "P_Updated",
      "type": "event"
    },
    {
      "anonymous": false,
      "inputs": [
        {
          "indexed": false,
          "internalType": "address",
          "name": "_newPriceFeedAddress",
          "type": "address"
        }
      ],
      "name": "PriceFeedAddressChanged",
      "type": "event"
    },
    {
      "anonymous": false,
      "inputs": [
        {
          "indexed": false,
          "internalType": "uint256",
          "name": "_S",
          "type": "uint256"
        },
        {
          "indexed": false,
          "internalType": "uint128",
          "name": "_epoch",
          "type": "uint128"
        },
        {
          "indexed": false,
          "internalType": "uint128",
          "name": "_scale",
          "type": "uint128"
        }
      ],
      "name": "S_Updated",
      "type": "event"
    },
    {
      "anonymous": false,
      "inputs": [
        {
          "indexed": false,
          "internalType": "uint128",
          "name": "_currentScale",
          "type": "uint128"
        }
      ],
      "name": "ScaleUpdated",
      "type": "event"
    },
    {
      "anonymous": false,
      "inputs": [
        {
          "indexed": false,
          "internalType": "address",
          "name": "_newSortedTrovesAddress",
          "type": "address"
        }
      ],
      "name": "SortedTrovesAddressChanged",
      "type": "event"
    },
    {
      "anonymous": false,
      "inputs": [
        {
          "indexed": false,
          "internalType": "uint256",
          "name": "_newBalance",
          "type": "uint256"
        }
      ],
      "name": "StabilityPoolETHBalanceUpdated",
      "type": "event"
    },
    {
      "anonymous": false,
      "inputs": [
        {
          "indexed": false,
          "internalType": "uint256",
          "name": "_newBalance",
          "type": "uint256"
        }
      ],
      "name": "StabilityPoolZUSDBalanceUpdated",
      "type": "event"
    },
    {
      "anonymous": false,
      "inputs": [
        {
          "indexed": false,
          "internalType": "address",
          "name": "_newTroveManagerAddress",
          "type": "address"
        }
      ],
      "name": "TroveManagerAddressChanged",
      "type": "event"
    },
    {
      "anonymous": false,
      "inputs": [
        {
          "indexed": true,
          "internalType": "address",
          "name": "_depositor",
          "type": "address"
        },
        {
          "indexed": false,
          "internalType": "uint256",
          "name": "_newDeposit",
          "type": "uint256"
        }
      ],
      "name": "UserDepositChanged",
      "type": "event"
    },
    {
      "anonymous": false,
      "inputs": [
        {
          "indexed": false,
          "internalType": "address",
          "name": "_depositor",
          "type": "address"
        },
        {
          "indexed": false,
          "internalType": "uint256",
          "name": "_zusdAmountRequested",
          "type": "uint256"
        },
        {
          "indexed": false,
          "internalType": "uint256",
          "name": "_dllrAmountReceived",
          "type": "uint256"
        }
      ],
      "name": "WithdrawFromSpAndConvertToDLLR",
      "type": "event"
    },
    {
      "anonymous": false,
      "inputs": [
        {
          "indexed": true,
          "internalType": "address",
          "name": "_depositor",
          "type": "address"
        },
        {
          "indexed": false,
          "internalType": "uint256",
          "name": "_ZERO",
          "type": "uint256"
        }
      ],
      "name": "ZEROPaidToDepositor",
      "type": "event"
    },
    {
      "anonymous": false,
      "inputs": [
        {
          "indexed": true,
          "internalType": "address",
          "name": "_frontEnd",
          "type": "address"
        },
        {
          "indexed": false,
          "internalType": "uint256",
          "name": "_ZERO",
          "type": "uint256"
        }
      ],
      "name": "ZEROPaidToFrontEnd",
      "type": "event"
    },
    {
      "anonymous": false,
      "inputs": [
        {
          "indexed": false,
          "internalType": "address",
          "name": "_newZUSDTokenAddress",
          "type": "address"
        }
      ],
      "name": "ZUSDTokenAddressChanged",
      "type": "event"
    },
    {
      "inputs": [],
      "name": "DECIMAL_PRECISION",
      "outputs": [
        {
          "internalType": "uint256",
          "name": "",
          "type": "uint256"
        }
      ],
      "stateMutability": "view",
      "type": "function"
    },
    {
      "inputs": [],
      "name": "MIN_NET_DEBT",
      "outputs": [
        {
          "internalType": "uint256",
          "name": "",
          "type": "uint256"
        }
      ],
      "stateMutability": "view",
      "type": "function"
    },
    {
      "inputs": [],
      "name": "NAME",
      "outputs": [
        {
          "internalType": "string",
          "name": "",
          "type": "string"
        }
      ],
      "stateMutability": "view",
      "type": "function"
    },
    {
      "inputs": [],
      "name": "P",
      "outputs": [
        {
          "internalType": "uint256",
          "name": "",
          "type": "uint256"
        }
      ],
      "stateMutability": "view",
      "type": "function"
    },
    {
      "inputs": [],
      "name": "SCALE_FACTOR",
      "outputs": [
        {
          "internalType": "uint256",
          "name": "",
          "type": "uint256"
        }
      ],
      "stateMutability": "view",
      "type": "function"
    },
    {
      "inputs": [],
      "name": "ZUSD_GAS_COMPENSATION",
      "outputs": [
        {
          "internalType": "uint256",
          "name": "",
          "type": "uint256"
        }
      ],
      "stateMutability": "view",
      "type": "function"
    },
    {
      "inputs": [],
      "name": "_100pct",
      "outputs": [
        {
          "internalType": "uint256",
          "name": "",
          "type": "uint256"
        }
      ],
      "stateMutability": "view",
      "type": "function"
    },
    {
      "inputs": [],
      "name": "activePool",
      "outputs": [
        {
          "internalType": "contract IActivePool",
          "name": "",
          "type": "address"
        }
      ],
      "stateMutability": "view",
      "type": "function"
    },
    {
      "inputs": [],
      "name": "borrowerOperations",
      "outputs": [
        {
          "internalType": "contract IBorrowerOperations",
          "name": "",
          "type": "address"
        }
      ],
      "stateMutability": "view",
      "type": "function"
    },
    {
      "inputs": [],
      "name": "communityIssuance",
      "outputs": [
        {
          "internalType": "contract ICommunityIssuance",
          "name": "",
          "type": "address"
        }
      ],
      "stateMutability": "view",
      "type": "function"
    },
    {
      "inputs": [],
      "name": "currentEpoch",
      "outputs": [
        {
          "internalType": "uint128",
          "name": "",
          "type": "uint128"
        }
      ],
      "stateMutability": "view",
      "type": "function"
    },
    {
      "inputs": [],
      "name": "currentScale",
      "outputs": [
        {
          "internalType": "uint128",
          "name": "",
          "type": "uint128"
        }
      ],
      "stateMutability": "view",
      "type": "function"
    },
    {
      "inputs": [],
      "name": "defaultPool",
      "outputs": [
        {
          "internalType": "contract IDefaultPool",
          "name": "",
          "type": "address"
        }
      ],
      "stateMutability": "view",
      "type": "function"
    },
    {
      "inputs": [
        {
          "internalType": "address",
          "name": "",
          "type": "address"
        }
      ],
      "name": "depositSnapshots",
      "outputs": [
        {
          "internalType": "uint256",
          "name": "S",
          "type": "uint256"
        },
        {
          "internalType": "uint256",
          "name": "P",
          "type": "uint256"
        },
        {
          "internalType": "uint256",
          "name": "G",
          "type": "uint256"
        },
        {
          "internalType": "uint128",
          "name": "scale",
          "type": "uint128"
        },
        {
          "internalType": "uint128",
          "name": "epoch",
          "type": "uint128"
        }
      ],
      "stateMutability": "view",
      "type": "function"
    },
    {
      "inputs": [
        {
          "internalType": "address",
          "name": "",
          "type": "address"
        }
      ],
      "name": "deposits",
      "outputs": [
        {
          "internalType": "uint256",
          "name": "initialValue",
          "type": "uint256"
        },
        {
          "internalType": "address",
          "name": "frontEndTag",
          "type": "address"
        }
      ],
      "stateMutability": "view",
      "type": "function"
    },
    {
      "inputs": [
        {
          "internalType": "uint128",
          "name": "",
          "type": "uint128"
        },
        {
          "internalType": "uint128",
          "name": "",
          "type": "uint128"
        }
      ],
      "name": "epochToScaleToG",
      "outputs": [
        {
          "internalType": "uint256",
          "name": "",
          "type": "uint256"
        }
      ],
      "stateMutability": "view",
      "type": "function"
    },
    {
      "inputs": [
        {
          "internalType": "uint128",
          "name": "",
          "type": "uint128"
        },
        {
          "internalType": "uint128",
          "name": "",
          "type": "uint128"
        }
      ],
      "name": "epochToScaleToSum",
      "outputs": [
        {
          "internalType": "uint256",
          "name": "",
          "type": "uint256"
        }
      ],
      "stateMutability": "view",
      "type": "function"
    },
    {
      "inputs": [
        {
          "internalType": "address",
          "name": "",
          "type": "address"
        }
      ],
      "name": "frontEndSnapshots",
      "outputs": [
        {
          "internalType": "uint256",
          "name": "S",
          "type": "uint256"
        },
        {
          "internalType": "uint256",
          "name": "P",
          "type": "uint256"
        },
        {
          "internalType": "uint256",
          "name": "G",
          "type": "uint256"
        },
        {
          "internalType": "uint128",
          "name": "scale",
          "type": "uint128"
        },
        {
          "internalType": "uint128",
          "name": "epoch",
          "type": "uint128"
        }
      ],
      "stateMutability": "view",
      "type": "function"
    },
    {
      "inputs": [
        {
          "internalType": "address",
          "name": "",
          "type": "address"
        }
      ],
      "name": "frontEndStakes",
      "outputs": [
        {
          "internalType": "uint256",
          "name": "",
          "type": "uint256"
        }
      ],
      "stateMutability": "view",
      "type": "function"
    },
    {
      "inputs": [
        {
          "internalType": "address",
          "name": "",
          "type": "address"
        }
      ],
      "name": "frontEnds",
      "outputs": [
        {
          "internalType": "uint256",
          "name": "kickbackRate",
          "type": "uint256"
        },
        {
          "internalType": "bool",
          "name": "registered",
          "type": "bool"
        }
      ],
      "stateMutability": "view",
      "type": "function"
    },
    {
      "inputs": [
        {
          "internalType": "address",
          "name": "_frontEnd",
          "type": "address"
        }
      ],
      "name": "getCompoundedFrontEndStake",
      "outputs": [
        {
          "internalType": "uint256",
          "name": "",
          "type": "uint256"
        }
      ],
      "stateMutability": "view",
      "type": "function"
    },
    {
      "inputs": [
        {
          "internalType": "address",
          "name": "_depositor",
          "type": "address"
        }
      ],
      "name": "getCompoundedZUSDDeposit",
      "outputs": [
        {
          "internalType": "uint256",
          "name": "",
          "type": "uint256"
        }
      ],
      "stateMutability": "view",
      "type": "function"
    },
    {
      "inputs": [
        {
          "internalType": "address",
          "name": "_depositor",
          "type": "address"
        }
      ],
      "name": "getDepositorETHGain",
      "outputs": [
        {
          "internalType": "uint256",
          "name": "",
          "type": "uint256"
        }
      ],
      "stateMutability": "view",
      "type": "function"
    },
    {
      "inputs": [
        {
          "internalType": "address",
          "name": "_depositor",
          "type": "address"
        }
      ],
      "name": "getDepositorZEROGain",
      "outputs": [
        {
          "internalType": "uint256",
          "name": "",
          "type": "uint256"
        }
      ],
      "stateMutability": "view",
      "type": "function"
    },
    {
      "inputs": [],
      "name": "getETH",
      "outputs": [
        {
          "internalType": "uint256",
          "name": "",
          "type": "uint256"
        }
      ],
      "stateMutability": "view",
      "type": "function"
    },
    {
      "inputs": [],
      "name": "getEntireSystemColl",
      "outputs": [
        {
          "internalType": "uint256",
          "name": "entireSystemColl",
          "type": "uint256"
        }
      ],
      "stateMutability": "view",
      "type": "function"
    },
    {
      "inputs": [],
      "name": "getEntireSystemDebt",
      "outputs": [
        {
          "internalType": "uint256",
          "name": "entireSystemDebt",
          "type": "uint256"
        }
      ],
      "stateMutability": "view",
      "type": "function"
    },
    {
      "inputs": [
        {
          "internalType": "address",
          "name": "_frontEnd",
          "type": "address"
        }
      ],
      "name": "getFrontEndZEROGain",
      "outputs": [
        {
          "internalType": "uint256",
          "name": "",
          "type": "uint256"
        }
      ],
      "stateMutability": "view",
      "type": "function"
    },
    {
      "inputs": [],
      "name": "getOwner",
      "outputs": [
        {
          "internalType": "address",
          "name": "_owner",
          "type": "address"
        }
      ],
      "stateMutability": "view",
      "type": "function"
    },
    {
      "inputs": [],
      "name": "getTotalZUSDDeposits",
      "outputs": [
        {
          "internalType": "uint256",
          "name": "",
          "type": "uint256"
        }
      ],
      "stateMutability": "view",
      "type": "function"
    },
    {
      "inputs": [],
      "name": "lastETHError_Offset",
      "outputs": [
        {
          "internalType": "uint256",
          "name": "",
          "type": "uint256"
        }
      ],
      "stateMutability": "view",
      "type": "function"
    },
    {
      "inputs": [],
      "name": "lastZEROError",
      "outputs": [
        {
          "internalType": "uint256",
          "name": "",
          "type": "uint256"
        }
      ],
      "stateMutability": "view",
      "type": "function"
    },
    {
      "inputs": [],
      "name": "lastZUSDLossError_Offset",
      "outputs": [
        {
          "internalType": "uint256",
          "name": "",
          "type": "uint256"
        }
      ],
      "stateMutability": "view",
      "type": "function"
    },
    {
      "inputs": [],
      "name": "liquityBaseParams",
      "outputs": [
        {
          "internalType": "contract ILiquityBaseParams",
          "name": "",
          "type": "address"
        }
      ],
      "stateMutability": "view",
      "type": "function"
    },
    {
      "inputs": [
        {
          "internalType": "uint256",
          "name": "_debtToOffset",
          "type": "uint256"
        },
        {
          "internalType": "uint256",
          "name": "_collToAdd",
          "type": "uint256"
        }
      ],
      "name": "offset",
      "outputs": [],
      "stateMutability": "nonpayable",
      "type": "function"
    },
    {
      "inputs": [],
      "name": "priceFeed",
      "outputs": [
        {
          "internalType": "contract IPriceFeed",
          "name": "",
          "type": "address"
        }
      ],
      "stateMutability": "view",
      "type": "function"
    },
    {
      "inputs": [
        {
          "internalType": "uint256",
          "name": "_amount",
          "type": "uint256"
        },
        {
          "internalType": "address",
          "name": "_frontEndTag",
          "type": "address"
        }
      ],
      "name": "provideToSP",
      "outputs": [],
      "stateMutability": "nonpayable",
      "type": "function"
    },
    {
      "inputs": [
        {
          "internalType": "uint256",
          "name": "_dllrAmount",
          "type": "uint256"
        },
        {
          "components": [
            {
              "internalType": "uint256",
              "name": "deadline",
              "type": "uint256"
            },
            {
              "internalType": "uint8",
              "name": "v",
              "type": "uint8"
            },
            {
              "internalType": "bytes32",
              "name": "r",
              "type": "bytes32"
            },
            {
              "internalType": "bytes32",
              "name": "s",
              "type": "bytes32"
            }
          ],
          "internalType": "struct IMassetManager.PermitParams",
          "name": "_permitParams",
          "type": "tuple"
        }
      ],
      "name": "provideToSpFromDLLR",
      "outputs": [],
      "stateMutability": "nonpayable",
      "type": "function"
    },
    {
      "inputs": [
        {
          "internalType": "uint256",
          "name": "_kickbackRate",
          "type": "uint256"
        }
      ],
      "name": "registerFrontEnd",
      "outputs": [],
      "stateMutability": "nonpayable",
      "type": "function"
    },
    {
      "inputs": [
        {
          "internalType": "address",
          "name": "_liquityBaseParamsAddress",
          "type": "address"
        },
        {
          "internalType": "address",
          "name": "_borrowerOperationsAddress",
          "type": "address"
        },
        {
          "internalType": "address",
          "name": "_troveManagerAddress",
          "type": "address"
        },
        {
          "internalType": "address",
          "name": "_activePoolAddress",
          "type": "address"
        },
        {
          "internalType": "address",
          "name": "_zusdTokenAddress",
          "type": "address"
        },
        {
          "internalType": "address",
          "name": "_sortedTrovesAddress",
          "type": "address"
        },
        {
          "internalType": "address",
          "name": "_priceFeedAddress",
          "type": "address"
        },
        {
          "internalType": "address",
          "name": "_communityIssuanceAddress",
          "type": "address"
        }
      ],
      "name": "setAddresses",
      "outputs": [],
      "stateMutability": "nonpayable",
      "type": "function"
    },
    {
      "inputs": [
        {
          "internalType": "address",
          "name": "_owner",
          "type": "address"
        }
      ],
      "name": "setOwner",
      "outputs": [],
      "stateMutability": "nonpayable",
      "type": "function"
    },
    {
      "inputs": [],
      "name": "sortedTroves",
      "outputs": [
        {
          "internalType": "contract ISortedTroves",
          "name": "",
          "type": "address"
        }
      ],
      "stateMutability": "view",
      "type": "function"
    },
    {
      "inputs": [],
      "name": "troveManager",
      "outputs": [
        {
          "internalType": "contract ITroveManager",
          "name": "",
          "type": "address"
        }
      ],
      "stateMutability": "view",
      "type": "function"
    },
    {
      "inputs": [
        {
          "internalType": "address",
          "name": "_upperHint",
          "type": "address"
        },
        {
          "internalType": "address",
          "name": "_lowerHint",
          "type": "address"
        }
      ],
      "name": "withdrawETHGainToTrove",
      "outputs": [],
      "stateMutability": "nonpayable",
      "type": "function"
    },
    {
      "inputs": [
        {
          "internalType": "uint256",
          "name": "_amount",
          "type": "uint256"
        }
      ],
      "name": "withdrawFromSP",
      "outputs": [],
      "stateMutability": "nonpayable",
      "type": "function"
    },
    {
      "inputs": [
        {
          "internalType": "uint256",
          "name": "_zusdAmountRequested",
          "type": "uint256"
        }
      ],
      "name": "withdrawFromSpAndConvertToDLLR",
      "outputs": [],
      "stateMutability": "nonpayable",
      "type": "function"
    },
    {
      "inputs": [],
      "name": "zusdToken",
      "outputs": [
        {
          "internalType": "contract IZUSDToken",
          "name": "",
          "type": "address"
        }
      ],
      "stateMutability": "view",
      "type": "function"
    },
    {
      "stateMutability": "payable",
      "type": "receive"
    }
  ],
  "transactionHash": "0x1c179726acc880ec4da05789bbaa660092490cc2683dea6e073b6dfd25493eb6",
  "numDeployments": 2,
  "bytecode": "0x60806040523480156200001157600080fd5b5062000026336001600160e01b036200002c16565b62000150565b6001600160a01b0381166200005e5760405162461bcd60e51b815260040162000055906200010e565b60405180910390fd5b6001600160a01b0381166200007b6001600160e01b03620000d016565b6001600160a01b03167f8be0079c531659141344cd1fd0a4f28419497f9722a3daafe3b4186f6b6457e060405160405180910390a36000604051620000c090620000f1565b6040519081900390209190915550565b600080604051620000e190620000f1565b6040519081900390205492915050565b7035b2bc9737bbb730b136329737bbb732b960791b815260110190565b60208082526022908201527f4f776e61626c653a3a7365744f776e65723a20696e76616c6964206164647265604082015261737360f01b606082015260800190565b61437380620001606000396000f3fe60806040526004361061028c5760003560e01c80638692a8a21161015a578063b31ee965116100c1578063d733cfd01161007a578063d733cfd01461073d578063d7fb04431461075d578063df9cd84f14610772578063ec9f7d4614610792578063fc7e286d146107a7578063fda0101a146107d5576102d7565b8063b31ee965146106a9578063b71d3bf3146106be578063bdaf37ea146106d3578063c0a90828146106e8578063c3a34a0e14610708578063ce4b5bbe14610728576102d7565b80639f070670116101135780639f0706701461061a578063a20baee6146104c6578063a3f4df7e1461062f578063a4e59ac814610651578063a7bfff9714610666578063ae91875414610694576102d7565b80638692a8a21461058657806386da0824146105a6578063887105d3146105c6578063893d20e8146105db5780638b8fbd92146105f057806395fb16bb14610605576102d7565b806340ed1afd116101fe578063759b3034116101b7578063759b3034146104f0578063766718081461050557806377553ad414610527578063795d26c31461053c5780637f7dde4a1461055157806382e0a57414610566576102d7565b806340ed1afd14610446578063556be101146104665780635d2de642146104865780635f788d65146104a657806372fe25aa146104c6578063741bef1a146104db576102d7565b806328a0a04d1161025057806328a0a04d1461038f5780632e54bf95146103af578063335525ad146103cf578063389e92a5146103ef5780633cc742251461040f5780633d83908a14610431576102d7565b80630fbfe38b146102dc57806313af4035146102fe57806314f6c3be1461031e57806316b9d3c5146103495780631bf435551461037a576102d7565b366102d7576102996107f5565b6009546102ac903463ffffffff61082a16565b60098190556040516000805160206142be833981519152916102cd9161422a565b60405180910390a1005b600080fd5b3480156102e857600080fd5b506102fc6102f73660046138ab565b610858565b005b34801561030a57600080fd5b506102fc61031936600461373f565b610a58565b34801561032a57600080fd5b50610333610a9c565b604051610340919061422a565b60405180910390f35b34801561035557600080fd5b5061036961036436600461373f565b610aa2565b604051610340959493929190614279565b34801561038657600080fd5b50610333610add565b34801561039b57600080fd5b506103336103aa366004613877565b610aea565b3480156103bb57600080fd5b506102fc6103ca3660046138ab565b610b07565b3480156103db57600080fd5b506102fc6103ea366004613935565b610b15565b3480156103fb57600080fd5b5061033361040a36600461373f565b610b78565b34801561041b57600080fd5b50610424610c20565b6040516103409190613997565b34801561043d57600080fd5b50610424610c2f565b34801561045257600080fd5b5061033361046136600461373f565b610c3e565b34801561047257600080fd5b506102fc6104813660046138ab565b610cdb565b34801561049257600080fd5b506103336104a136600461373f565b610d53565b3480156104b257600080fd5b506102fc6104c13660046138db565b610d65565b3480156104d257600080fd5b50610333610d6f565b3480156104e757600080fd5b50610424610d7b565b3480156104fc57600080fd5b50610333610d8a565b34801561051157600080fd5b5061051a610d97565b6040516103409190614216565b34801561053357600080fd5b50610424610dad565b34801561054857600080fd5b50610333610dbc565b34801561055d57600080fd5b50610424610edb565b34801561057257600080fd5b50610333610581366004613877565b610eea565b34801561059257600080fd5b506103336105a136600461373f565b610f07565b3480156105b257600080fd5b506103696105c136600461373f565b61100b565b3480156105d257600080fd5b50610333611046565b3480156105e757600080fd5b50610424611115565b3480156105fc57600080fd5b50610333611134565b34801561061157600080fd5b5061042461113a565b34801561062657600080fd5b50610424611149565b34801561063b57600080fd5b50610644611158565b6040516103409190613ab4565b34801561065d57600080fd5b5061051a611181565b34801561067257600080fd5b5061068661068136600461373f565b611190565b60405161034092919061424a565b3480156106a057600080fd5b506104246111ac565b3480156106b557600080fd5b506103336111bb565b3480156106ca57600080fd5b506103336111c1565b3480156106df57600080fd5b506103336111c7565b3480156106f457600080fd5b5061033361070336600461373f565b6111cd565b34801561071457600080fd5b506102fc6107233660046138ff565b6112ca565b34801561073457600080fd5b5061033361136e565b34801561074957600080fd5b506102fc6107583660046137af565b611376565b34801561076957600080fd5b50610333611608565b34801561077e57600080fd5b5061033361078d36600461373f565b61160e565b34801561079e57600080fd5b506104246116ab565b3480156107b357600080fd5b506107c76107c236600461373f565b6116ba565b604051610340929190614233565b3480156107e157600080fd5b506102fc6107f0366004613777565b6116dc565b6000546001600160a01b031633146108285760405162461bcd60e51b815260040161081f90613cac565b60405180910390fd5b565b60008282018381101561084f5760405162461bcd60e51b815260040161081f90613bbc565b90505b92915050565b6000600460009054906101000a90046001600160a01b03166001600160a01b031663e9fc34616040518163ffffffff1660e01b815260040160206040518083038186803b1580156108a857600080fd5b505afa1580156108bc573d6000803e3d6000fd5b505050506040513d601f19601f820116820180604052508101906108e0919061375b565b905060006108ee8330611922565b60065460405163095ea7b360e01b81529192506001600160a01b03169063095ea7b3906109219085908590600401613a33565b602060405180830381600087803b15801561093b57600080fd5b505af115801561094f573d6000803e3d6000fd5b505050506040513d601f19601f820116820180604052508101906109739190613857565b61098f5760405162461bcd60e51b815260040161081f90614043565b60065460405163438b1b4b60e01b81526001600160a01b038481169263438b1b4b926109c5929091169085903390600401613a6d565b602060405180830381600087803b1580156109df57600080fd5b505af11580156109f3573d6000803e3d6000fd5b505050506040513d601f19601f82011682018060405250810190610a1791906138c3565b507f2b0fbec1c4e7e30517f196a714775ffe72770d2348f5d586854bb3c0fdf41df8338483604051610a4b93929190613a4c565b60405180910390a1505050565b610a60611115565b6001600160a01b0316336001600160a01b031614610a905760405162461bcd60e51b815260040161081f90613f71565b610a9981611aed565b50565b60095490565b600f602052600090815260409020805460018201546002830154600390930154919290916001600160801b0380821691600160801b90041685565b6809c2007651b250000081565b601260209081526000928352604080842090915290825290205481565b610b118133611922565b5050565b610b1d611b78565b600a54801580610b2b575082155b15610b365750610b11565b600854610b4b906001600160a01b0316611ba2565b600080610b59848685611c22565b91509150610b678282611d1b565b610b71848661201c565b5050505050565b6001600160a01b0381166000908152600b602052604081205480610ba0576000915050610c1b565b610ba86136e7565b506001600160a01b0383166000908152600c60209081526040808320815160a08101835281548152600182015493810193909352600281015491830191909152600301546001600160801b038082166060840152600160801b90910416608082015290610c158383612152565b93505050505b919050565b6001546001600160a01b031681565b6005546001600160a01b031681565b6001600160a01b0381166000908152600b602052604081205480610c66576000915050610c1b565b610c6e6136e7565b506001600160a01b0383166000908152600c60209081526040808320815160a08101835281548152600182015493810193909352600281015491830191909152600301546001600160801b038082166060840152600160801b90910416608082015290610c158383612243565b610ce43361233f565b610ced3361237b565b610cf6816123b2565b336000818152600d6020526040908190208381556001908101805460ff19169091179055517f19bc932fb9e16a8b5a1e41be9f4c2de59d5ddd7567b8b81405f532ca00a9880e90610d4890849061422a565b60405180910390a250565b600e6020526000908152604090205481565b610b1182826123da565b670de0b6b3a764000081565b6002546001600160a01b031681565b6801158e460913d0000081565b601154600160801b90046001600160801b031681565b6004546001600160a01b031681565b60008054604080516272c7d360e71b8152905183926001600160a01b031691633963e980916004808301926020929190829003018186803b158015610e0057600080fd5b505afa158015610e14573d6000803e3d6000fd5b505050506040513d601f19601f82011682018060405250810190610e3891906138c3565b90506000600160009054906101000a90046001600160a01b03166001600160a01b0316633963e9806040518163ffffffff1660e01b815260040160206040518083038186803b158015610e8a57600080fd5b505afa158015610e9e573d6000803e3d6000fd5b505050506040513d601f19601f82011682018060405250810190610ec291906138c3565b9050610ed4828263ffffffff61082a16565b9250505090565b6000546001600160a01b031681565b601360209081526000928352604080842090915290825290205481565b6001600160a01b0381166000908152600e602052604081205480610f2f576000915050610c1b565b6001600160a01b0383166000908152600d602052604081205490610f61670de0b6b3a76400008363ffffffff61257d16565b9050610f6b6136e7565b506001600160a01b0385166000908152600f60209081526040808320815160a08101835281548152600182015493810193909352600281015491830191909152600301546001600160801b038082166060840152600160801b90910416608082015290611000670de0b6b3a7640000610ff4610fe788866125bf565b869063ffffffff61264b16565b9063ffffffff61268516565b979650505050505050565b600c602052600090815260409020805460018201546002830154600390930154919290916001600160801b0380821691600160801b90041685565b6000805460408051630a7b61df60e11b8152905183926001600160a01b0316916314f6c3be916004808301926020929190829003018186803b15801561108b57600080fd5b505afa15801561109f573d6000803e3d6000fd5b505050506040513d601f19601f820116820180604052508101906110c391906138c3565b90506000600160009054906101000a90046001600160a01b03166001600160a01b03166314f6c3be6040518163ffffffff1660e01b815260040160206040518083038186803b158015610e8a57600080fd5b6000806040516111249061397a565b6040519081900390205492915050565b60105481565b6008546001600160a01b031681565b6003546001600160a01b031681565b6040518060400160405280600d81526020016c14dd18589a5b1a5d1e541bdbdb609a1b81525081565b6011546001600160801b031681565b600d602052600090815260409020805460019091015460ff1682565b6007546001600160a01b031681565b60165481565b60145481565b600a5490565b6001600160a01b0381166000908152600b6020526040812054806111f5576000915050610c1b565b6001600160a01b038084166000908152600b602052604081206001015490911690811561123a576001600160a01b0382166000908152600d6020526040902054611244565b670de0b6b3a76400005b905061124e6136e7565b506001600160a01b0385166000908152600c60209081526040808320815160a08101835281548152600182015493810193909352600281015491830191909152600301546001600160801b038082166060840152600160801b90910416608082015290611000670de0b6b3a7640000610ff4610fe788866125bf565b600480546040805163e9fc346160e01b8152905160009361135c936001600160a01b03169263e9fc34619281830192602092829003018186803b15801561131057600080fd5b505afa158015611324573d6000803e3d6000fd5b505050506040513d601f19601f82011682018060405250810190611348919061375b565b60065485906001600160a01b0316856126c7565b90506113698160006123da565b505050565b633b9aca0081565b61137e611115565b6001600160a01b0316336001600160a01b0316146113ae5760405162461bcd60e51b815260040161081f90613f71565b6113b78861296c565b6113c08761296c565b6113c98661296c565b6113d28561296c565b6113db8461296c565b6113e48361296c565b6113ed8261296c565b6113f68161296c565b670de0b6b3a7640000601055600380546001600160a01b03199081166001600160a01b038b8116919091179092556004805482168a8416179055600580548216898416179055600080548216888416179055600680548216878416179055600780548216868416179055600280548216858416179055600880549091169183169190911790556040517f3ca631ffcd2a9b5d9ae18543fc82f58eb4ca33af9e6ab01b7a8e95331e6ed985906114ac908990613997565b60405180910390a17f143219c9e69b09e07e095fcc889b43d8f46ca892bba65f08dc3a0050869a5678866040516114e39190613997565b60405180910390a17f78f058b189175430c48dc02699e3a0031ea4ff781536dc2fab847de4babdd8828560405161151a9190613997565b60405180910390a17fcdf33850c44a1a874b5fefb51dae615ac6afebd581ef90d571f81b06541d8e9d846040516115519190613997565b60405180910390a17f65f4cf077bc01e4742eb5ad98326f6e95b63548ea24b17f8d5e823111fe78800836040516115889190613997565b60405180910390a17f8c537274438aa850a330284665d81a85dd38267d09e4050d416bfc94142db264826040516115bf9190613997565b60405180910390a17f3055265812fb8447b9ada4a5d804ec43bd528ec40e89c952bbc7b85dc5ac6811816040516115f69190613997565b60405180910390a15050505050505050565b60155481565b6001600160a01b0381166000908152600e602052604081205480611636576000915050610c1b565b61163e6136e7565b506001600160a01b0383166000908152600f60209081526040808320815160a08101835281548152600182015493810193909352600281015491830191909152600301546001600160801b038082166060840152600160801b90910416608082015290610c158383612243565b6006546001600160a01b031681565b600b60205260009081526040902080546001909101546001600160a01b031682565b336000908152600b60205260409020546116f5816129b1565b6116fe336129d1565b61170733612a70565b6008546001600160a01b031661171c81611ba2565b600061172733610b78565b9050600061173433610c3e565b90506000611748858363ffffffff61257d16565b336000818152600b60205260409020600101549192506001600160a01b039091169061177690869083612a9d565b60006117818261160e565b90508061178e8382612c12565b826001600160a01b031660008051602061431e83398151915282336040516117b7929190614233565b60405180910390a26117c93386612d5a565b336001600160a01b03166000805160206142fe83398151915287866040516117f2929190613a90565b60405180910390a2336001600160a01b03166000805160206142de83398151915286604051611821919061422a565b60405180910390a260095461183c908763ffffffff61257d16565b60098190556040516000805160206142be8339815191529161185d9161422a565b60405180910390a17f6109e2559dfa766aaec7118351d48a523f0a4157f49c8d68749c8ac41318ad123387604051611896929190613a33565b60405180910390a1600460009054906101000a90046001600160a01b03166001600160a01b031663ea9638bf87338d8d6040518563ffffffff1660e01b81526004016118e4939291906139ab565b6000604051808303818588803b1580156118fd57600080fd5b505af1158015611911573d6000803e3d6000fd5b505050505050505050505050505050565b60006001600160a01b03821661194a5760405162461bcd60e51b815260040161081f90613e88565b821561195857611958612ecf565b336000908152600b6020526040902054611971816129b1565b6008546001600160a01b031661198681611ba2565b600061199133610b78565b9050600061199e33610c3e565b905060006119ac8883613106565b905060006119c0868463ffffffff61257d16565b336000818152600b60205260409020600101549192506001600160a01b03909116906119ee90879083612a9d565b60006119f98261160e565b90506000611a0d828663ffffffff61257d16565b9050611a198382612c12565b826001600160a01b031660008051602061431e8339815191528233604051611a42929190614233565b60405180910390a2611a548b8661311c565b6000611a66878763ffffffff61257d16565b9050611a723382612d5a565b336001600160a01b03166000805160206142de83398151915282604051611a99919061422a565b60405180910390a2336001600160a01b03166000805160206142fe8339815191528987604051611aca929190613a90565b60405180910390a2611adc8833613195565b50939b9a5050505050505050505050565b6001600160a01b038116611b135760405162461bcd60e51b815260040161081f90613cf3565b806001600160a01b0316611b25611115565b6001600160a01b03167f8be0079c531659141344cd1fd0a4f28419497f9722a3daafe3b4186f6b6457e060405160405180910390a36000604051611b689061397a565b6040519081900390209190915550565b6005546001600160a01b031633146108285760405162461bcd60e51b815260040161081f90613dbd565b6000816001600160a01b031663e59be5866040518163ffffffff1660e01b8152600401602060405180830381600087803b158015611bdf57600080fd5b505af1158015611bf3573d6000803e3d6000fd5b505050506040513d601f19601f82011682018060405250810190611c1791906138c3565b9050610b11816132c4565b6000806000611c54601554611c48670de0b6b3a76400008961264b90919063ffffffff16565b9063ffffffff61082a16565b905083851115611c6057fe5b83851415611c7d576000601655670de0b6b3a76400009150611cdd565b601654600090611cab90611c9f88670de0b6b3a764000063ffffffff61264b16565b9063ffffffff61257d16565b9050611cc26001611c48838863ffffffff61268516565b9250611cd881611c9f858863ffffffff61264b16565b601655505b611ced818563ffffffff61268516565b9250611d0f611d02848663ffffffff61264b16565b829063ffffffff61257d16565b60155550935093915050565b6010546000670de0b6b3a7640000831115611d3257fe5b6000611d4c670de0b6b3a76400008563ffffffff61257d16565b6011546001600160801b03600160801b820481166000818152601260209081526040808320949095168083529390529283205493945090929091611d90898861264b565b90506000611da4838363ffffffff61082a16565b6001600160801b038086166000908152601260209081526040808320938a168352929052819020829055519091507fe12e2cd2c9afa8069203ca07e7eff1edce4a075686d0736a8e7e0d593597b20790611e039083908790899061425a565b60405180910390a185611edc57611e2a6001600160801b038516600163ffffffff6133d516565b601180546001600160801b03908116600160801b938216840217918290556040517fb50f0f59e7cb5b421dc77581c3a9919e3806e076e5fa78a874c3f120cb7d874d93611e7b930490911690614216565b60405180910390a1601180546001600160801b03191690556040517f1f9dfc70cd666adb18a39d60a797518f7b4febf4b6e24ef37d44f6e1e7219fbe90611ec490600090614216565b60405180910390a1670de0b6b3a76400009650611fc9565b633b9aca00611efd670de0b6b3a7640000610ff48b8a63ffffffff61264b16565b1015611faa57611f33670de0b6b3a7640000610ff4633b9aca00611f278c8b63ffffffff61264b16565b9063ffffffff61264b16565b9650611f4f6001600160801b038616600163ffffffff6133d516565b601180546001600160801b0319166001600160801b0392831617908190556040517f1f9dfc70cd666adb18a39d60a797518f7b4febf4b6e24ef37d44f6e1e7219fbe92611f9d921690614216565b60405180910390a1611fc9565b611fc6670de0b6b3a7640000610ff48a8963ffffffff61264b16565b96505b60008711611fd357fe5b60108790556040517fc1a9618cb59ebca77cbdbc2949f126823c407ff13edb285fd0262519a9c18e8c9061200890899061422a565b60405180910390a150505050505050505050565b60005460405163121cbc4d60e11b81526001600160a01b03909116908190632439789a9061204e90859060040161422a565b600060405180830381600087803b15801561206857600080fd5b505af115801561207c573d6000803e3d6000fd5b5050505061208982613406565b600654604051632770a7eb60e21b81526001600160a01b0390911690639dc29fac906120bb9030908690600401613a33565b600060405180830381600087803b1580156120d557600080fd5b505af11580156120e9573d6000803e3d6000fd5b50506040516364a197f360e01b81526001600160a01b03841692506364a197f3915061211b9030908790600401613a33565b600060405180830381600087803b15801561213557600080fd5b505af1158015612149573d6000803e3d6000fd5b50505050505050565b6080810151606082015182516020808501516001600160801b038086166000908152601284526040808220928716825291909352822054919493929185906121a0908463ffffffff61257d16565b6001600160801b0380871660009081526012602052604081209293509161220391633b9aca00919084906121dd908a16600163ffffffff6133d516565b6001600160801b031681526020810191909152604001600020549063ffffffff61268516565b90506000612235670de0b6b3a7640000610ff48681612228888863ffffffff61082a16565b8f9063ffffffff61264b16565b9a9950505050505050505050565b6020810151606082015160808301516011546000939291906001600160801b03600160801b909104811690821610156122825760009350505050610852565b60115460009081906122a3906001600160801b03168563ffffffff61346016565b90506001600160801b0381166122d3576122cc85610ff46010548b61264b90919063ffffffff16565b915061230b565b806001600160801b031660011415612306576122cc633b9aca00610ff487610ff46010548d61264b90919063ffffffff16565b600091505b61231f88633b9aca0063ffffffff61268516565b82101561233457600095505050505050610852565b509695505050505050565b6001600160a01b0381166000908152600d602052604090206001015460ff1615610a995760405162461bcd60e51b815260040161081f90613fa2565b6001600160a01b0381166000908152600b60205260409020548015610b115760405162461bcd60e51b815260040161081f90613ffb565b670de0b6b3a7640000811115610a995760405162461bcd60e51b815260040161081f90613ed8565b6123e38161349a565b6123ec3361233f565b6123f5826134e7565b336000908152600b60205260409020546008546001600160a01b031661241a81611ba2565b81612429576124293384613507565b600061243433610b78565b9050600061244133610c3e565b90506000612455858363ffffffff61257d16565b336000818152600b60205260409020600101549192506001600160a01b039091169061248390869083612a9d565b600061248e8261160e565b905060006124a2828b63ffffffff61082a16565b90506124ae8382612c12565b826001600160a01b031660008051602061431e83398151915282336040516124d7929190614233565b60405180910390a26124e9338b613561565b60006124fb868c63ffffffff61082a16565b90506125073382612d5a565b336001600160a01b03166000805160206142de8339815191528260405161252e919061422a565b60405180910390a2336001600160a01b03166000805160206142fe833981519152888760405161255f929190613a90565b60405180910390a261257087613615565b5050505050505050505050565b600061084f83836040518060400160405280601e81526020017f536166654d6174683a207375627472616374696f6e206f766572666c6f77000081525061361f565b608081015160608201516040808401516020808601516001600160801b0380871660009081526013845285812091871681529252928120549094939290859061260e908463ffffffff61257d16565b6001600160801b0380871660009081526013602052604081209293509161220391633b9aca00919084906121dd908a16600163ffffffff6133d516565b60008261265a57506000610852565b8282028284828161266757fe5b041461084f5760405162461bcd60e51b815260040161081f90613e47565b600061084f83836040518060400160405280601a81526020017f536166654d6174683a206469766973696f6e206279207a65726f00000000000081525061364b565b600080856001600160a01b03166321df0da76040518163ffffffff1660e01b815260040160206040518083038186803b15801561270357600080fd5b505afa158015612717573d6000803e3d6000fd5b505050506040513d601f19601f8201168201806040525081019061273b919061375b565b90506000816001600160a01b03166370a08231306040518263ffffffff1660e01b815260040161276b9190613997565b60206040518083038186803b15801561278357600080fd5b505afa158015612797573d6000803e3d6000fd5b505050506040513d601f19601f820116820180604052508101906127bb91906138c3565b9050306001600160a01b03831663605629d633838a89356127e260408c0160208d01613956565b8b604001358c606001356040518863ffffffff1660e01b815260040161280e97969594939291906139f2565b600060405180830381600087803b15801561282857600080fd5b505af115801561283c573d6000803e3d6000fd5b50505050866128c183856001600160a01b03166370a08231856040518263ffffffff1660e01b81526004016128719190613997565b60206040518083038186803b15801561288957600080fd5b505afa15801561289d573d6000803e3d6000fd5b505050506040513d601f19601f82011682018060405250810190611c9f91906138c3565b146128de5760405162461bcd60e51b815260040161081f90613b73565b60405163fb2c922360e01b81526001600160a01b0389169063fb2c92239061290e9089908b903390600401613a6d565b602060405180830381600087803b15801561292857600080fd5b505af115801561293c573d6000803e3d6000fd5b505050506040513d601f19601f8201168201806040525081019061296091906138c3565b98975050505050505050565b6001600160a01b0381166129925760405162461bcd60e51b815260040161081f90613d35565b803b80610b115760405162461bcd60e51b815260040161081f9061409a565b60008111610a995760405162461bcd60e51b815260040161081f906140cf565b6005546040516321e3780160e01b81526001600160a01b03909116906321e3780190612a01908490600401613997565b60206040518083038186803b158015612a1957600080fd5b505afa158015612a2d573d6000803e3d6000fd5b505050506040513d601f19601f82011682018060405250810190612a5191906138c3565b600114610a995760405162461bcd60e51b815260040161081f90613b07565b6000612a7b82610b78565b905060008111610b115760405162461bcd60e51b815260040161081f90613d6c565b6001600160a01b03811615612b5d576000612ab782610f07565b6040516306e6c58360e31b81529091506001600160a01b038516906337362c1890612ae89085908590600401613a33565b600060405180830381600087803b158015612b0257600080fd5b505af1158015612b16573d6000803e3d6000fd5b50505050816001600160a01b03167fea80c5084fc812c1d3ccd3e420d32e85001442759aa2261773ffa052cbd660b682604051612b53919061422a565b60405180910390a2505b6000612b68836111cd565b6040516306e6c58360e31b81529091506001600160a01b038516906337362c1890612b999086908590600401613a33565b600060405180830381600087803b158015612bb357600080fd5b505af1158015612bc7573d6000803e3d6000fd5b50505050826001600160a01b03167fc250d4f5c804eafb4ed97612e247bbc934de6fede0e59e4d263e190fb335193f82604051612c04919061422a565b60405180910390a250505050565b6001600160a01b0382166000908152600e6020526040902081905580612c9d576001600160a01b0382166000818152600f60205260408082208281556001810183905560028101839055600301829055517fbb1322f85cc7cc8bac4e172a5bc5dcc0c1959007f9a030032abf9258205f0e4591612c90918190613a90565b60405180910390a2610b11565b6011546010546001600160801b03600160801b80840482166000818152601360209081526040808320978616808452978252808320546001600160a01b038b16808552600f90935292819020600181018890556002810184905560030180546001600160801b0319168917909616948402949094179094559151909392907fbb1322f85cc7cc8bac4e172a5bc5dcc0c1959007f9a030032abf9258205f0e4590612d4a9085908590613a90565b60405180910390a2505050505050565b6001600160a01b0382166000908152600b6020526040902081905580612df8576001600160a01b0382166000818152600b60209081526040808320600190810180546001600160a01b0319169055600c909252808320838155918201839055600282018390556003909101829055517f2d6cc0bcdf72c9486f6451bde6b80f44066f4558f77f44dbfedbe7d8b295225a91612c909181908190613a9e565b6011546010546001600160801b03600160801b8084048216600081815260126020908152604080832097861680845297825280832054848452601383528184208985528352818420546001600160a01b038c16808652600c90945293829020600181018990558181556002810185905560030180546001600160801b0319168a1790971695850295909517909555935191949390917f2d6cc0bcdf72c9486f6451bde6b80f44066f4558f77f44dbfedbe7d8b295225a90612ebe90869086908690613a9e565b60405180910390a250505050505050565b60025460408051630fdb11cf60e01b815290516000926001600160a01b031691630fdb11cf91600480830192602092919082900301818787803b158015612f1557600080fd5b505af1158015612f29573d6000803e3d6000fd5b505050506040513d601f19601f82011682018060405250810190612f4d91906138c3565b90506000600760009054906101000a90046001600160a01b03166001600160a01b0316634d6228316040518163ffffffff1660e01b815260040160206040518083038186803b158015612f9f57600080fd5b505afa158015612fb3573d6000803e3d6000fd5b505050506040513d601f19601f82011682018060405250810190612fd7919061375b565b600554604051630d293c7160e41b81529192506000916001600160a01b039091169063d293c7109061300f9085908790600401613a33565b60206040518083038186803b15801561302757600080fd5b505afa15801561303b573d6000803e3d6000fd5b505050506040513d601f19601f8201168201806040525081019061305f91906138c3565b9050600360009054906101000a90046001600160a01b03166001600160a01b031663794e57246040518163ffffffff1660e01b815260040160206040518083038186803b1580156130af57600080fd5b505afa1580156130c3573d6000803e3d6000fd5b505050506040513d601f19601f820116820180604052508101906130e791906138c3565b8110156113695760405162461bcd60e51b815260040161081f906141ac565b6000818310613115578161084f565b5090919050565b8061312657610b11565b600654604051631062c15f60e11b81526001600160a01b03909116906320c582be9061315a903090869086906004016139ce565b600060405180830381600087803b15801561317457600080fd5b505af1158015613188573d6000803e3d6000fd5b50505050610b1181613406565b6001600160a01b0381166131bb5760405162461bcd60e51b815260040161081f90613bf3565b816131c557610b11565b6009546000906131db908463ffffffff61257d16565b9050806009819055506000805160206142be83398151915281604051613201919061422a565b60405180910390a17f6109e2559dfa766aaec7118351d48a523f0a4157f49c8d68749c8ac41318ad12338460405161323a929190613a33565b60405180910390a16000336001600160a01b03168460405161325b90613977565b60006040518083038185875af1925050503d8060008114613298576040519150601f19603f3d011682016040523d82523d6000602084013e61329d565b606091505b50509050806132be5760405162461bcd60e51b815260040161081f90613e06565b50505050565b600a548015806132d2575081155b156132dd5750610a99565b60006132e98383613682565b905060006133026010548361264b90919063ffffffff16565b6011546001600160801b03600160801b820481166000908152601360209081526040808320939094168252919091522054909150613346908263ffffffff61082a16565b601180546001600160801b03600160801b80830482166000908152601360208181526040808420968616845295815285832097909755945491820483168082529486528381209190921680835294528190205490517f2d6127771b164a9cc8827d24b5955db2a77e7a81dac389107ebb8bce9fb64968936133c7939161425a565b60405180910390a150505050565b60008282016001600160801b03808516908216101561084f5760405162461bcd60e51b815260040161081f90614167565b600a5460009061341c908363ffffffff61257d16565b905080600a819055507ff3c69a10dcea5d744225cbe910fb39d6f8208bb8e21fff523d6756a7966093c781604051613454919061422a565b60405180910390a15050565b6000826001600160801b0316826001600160801b031611156134945760405162461bcd60e51b815260040161081f9061411f565b50900390565b6001600160a01b0381166000908152600d602052604090206001015460ff16806134cb57506001600160a01b038116155b610a995760405162461bcd60e51b815260040161081f90613c40565b60008111610a995760405162461bcd60e51b815260040161081f90613f2b565b6001600160a01b038281166000818152600b602052604080822060010180546001600160a01b0319169486169485179055517f094c08e96a8890877a8390b4f967180a7507ad8622244d05fcd0f9f8e086564e9190a35050565b600654604051632ee65eeb60e21b81526001600160a01b039091169063bb997bac90613595908590309086906004016139ce565b600060405180830381600087803b1580156135af57600080fd5b505af11580156135c3573d6000803e3d6000fd5b5050600a54600092506135dd91508363ffffffff61082a16565b905080600a819055507ff3c69a10dcea5d744225cbe910fb39d6f8208bb8e21fff523d6756a7966093c781604051610a4b919061422a565b610a998133613195565b600081848411156136435760405162461bcd60e51b815260040161081f9190613ab4565b505050900390565b6000818361366c5760405162461bcd60e51b815260040161081f9190613ab4565b50600083858161367857fe5b0495945050505050565b6000806136a6601454611c48670de0b6b3a76400008761264b90919063ffffffff16565b905060006136ba828563ffffffff61268516565b90506136dc6136cf828663ffffffff61264b16565b839063ffffffff61257d16565b601455949350505050565b6040518060a0016040528060008152602001600081526020016000815260200160006001600160801b0316815260200160006001600160801b031681525090565b80356001600160801b038116811461085257600080fd5b600060208284031215613750578081fd5b813561084f816142a8565b60006020828403121561376c578081fd5b815161084f816142a8565b60008060408385031215613789578081fd5b8235613794816142a8565b915060208301356137a4816142a8565b809150509250929050565b600080600080600080600080610100898b0312156137cb578384fd5b88356137d6816142a8565b975060208901356137e6816142a8565b965060408901356137f6816142a8565b95506060890135613806816142a8565b94506080890135613816816142a8565b935060a0890135613826816142a8565b925060c0890135613836816142a8565b915060e0890135613846816142a8565b809150509295985092959890939650565b600060208284031215613868578081fd5b8151801515811461084f578182fd5b60008060408385031215613889578182fd5b6138938484613728565b91506138a28460208501613728565b90509250929050565b6000602082840312156138bc578081fd5b5035919050565b6000602082840312156138d4578081fd5b5051919050565b600080604083850312156138ed578182fd5b8235915060208301356137a4816142a8565b60008082840360a0811215613912578283fd5b833592506080601f1982011215613927578182fd5b506020830190509250929050565b60008060408385031215613947578182fd5b50508035926020909101359150565b600060208284031215613967578081fd5b813560ff8116811461084f578182fd5b90565b7035b2bc9737bbb730b136329737bbb732b960791b815260110190565b6001600160a01b0391909116815260200190565b6001600160a01b0393841681529183166020830152909116604082015260600190565b6001600160a01b039384168152919092166020820152604081019190915260600190565b6001600160a01b0397881681529590961660208601526040850193909352606084019190915260ff16608083015260a082015260c081019190915260e00190565b6001600160a01b03929092168252602082015260400190565b6001600160a01b039390931683526020830191909152604082015260600190565b6001600160a01b0393841681526020810192909252909116604082015260600190565b918252602082015260400190565b9283526020830191909152604082015260600190565b6000602080835283518082850152825b81811015613ae057858101830151858201604001528201613ac4565b81811115613af15783604083870101525b50601f01601f1916929092016040019392505050565b60208082526046908201527f53746162696c697479506f6f6c3a2063616c6c6572206d75737420686176652060408201527f616e206163746976652074726f766520746f207769746864726177204554484760608201526561696e20746f60d01b608082015260a00190565b60208082526029908201527f444c4c52207472616e7366657272656420616d6f756e742076616c69646174696040820152681bdb8819985a5b195960ba1b606082015260800190565b6020808252601b908201527f536166654d6174683a206164646974696f6e206f766572666c6f770000000000604082015260600190565b6020808252602d908201527f53503a3a5f73656e644554484761696e546f3a205f726563656976657220697360408201526c207a65726f206164647265737360981b606082015260800190565b60208082526046908201527f53746162696c697479506f6f6c3a20546167206d75737420626520612072656760408201527f697374657265642066726f6e7420656e642c206f7220746865207a65726f206160608201526564647265737360d01b608082015260a00190565b60208082526027908201527f53746162696c697479506f6f6c3a2043616c6c6572206973206e6f74204163746040820152661a5d99541bdbdb60ca1b606082015260800190565b60208082526022908201527f4f776e61626c653a3a7365744f776e65723a20696e76616c6964206164647265604082015261737360f01b606082015260800190565b6020808252601e908201527f4163636f756e742063616e6e6f74206265207a65726f20616464726573730000604082015260600190565b60208082526031908201527f53746162696c697479506f6f6c3a2063616c6c6572206d7573742068617665206040820152703737b716bd32b9379022aa241023b0b4b760791b606082015260800190565b60208082526029908201527f53746162696c697479506f6f6c3a2043616c6c6572206973206e6f742054726f6040820152683b32a6b0b730b3b2b960b91b606082015260800190565b60208082526021908201527f53746162696c697479506f6f6c3a2073656e64696e6720455448206661696c656040820152601960fa1b606082015260800190565b60208082526021908201527f536166654d6174683a206d756c7469706c69636174696f6e206f766572666c6f6040820152607760f81b606082015260800190565b60208082526030908201527f53503a3a5f776974686472617746726f6d5370546f3a205f726563656976657260408201526f206973207a65726f206164647265737360801b606082015260800190565b60208082526033908201527f53746162696c697479506f6f6c3a204b69636b6261636b2072617465206d75736040820152727420626520696e2072616e6765205b302c315d60681b606082015260800190565b60208082526026908201527f53746162696c697479506f6f6c3a20416d6f756e74206d757374206265206e6f6040820152656e2d7a65726f60d01b606082015260800190565b60208082526017908201527613dddb98589b194e8e881858d8d95cdcc819195b9a5959604a1b604082015260600190565b60208082526039908201527f53746162696c697479506f6f6c3a206d757374206e6f7420616c72656164792060408201527818994818481c9959da5cdd195c995908199c9bdb9d08195b99603a1b606082015260800190565b60208082526028908201527f53746162696c697479506f6f6c3a2055736572206d7573742068617665206e6f6040820152670819195c1bdcda5d60c21b606082015260800190565b60208082526037908201527f4661696c656420746f20617070726f7665205a55534420616d6f756e7420666f60408201527672204d796e74206d417373657420746f2072656465656d60481b606082015260800190565b6020808252818101527f4163636f756e7420636f64652073697a652063616e6e6f74206265207a65726f604082015260600190565b60208082526030908201527f53746162696c697479506f6f6c3a2055736572206d757374206861766520612060408201526f1b9bdb8b5e995c9bc819195c1bdcda5d60821b606082015260800190565b60208082526028908201527f4c697175697479536166654d6174683132383a207375627472616374696f6e206040820152676f766572666c6f7760c01b606082015260800190565b60208082526025908201527f4c697175697479536166654d6174683132383a206164646974696f6e206f766560408201526472666c6f7760d81b606082015260800190565b60208082526044908201527f53746162696c697479506f6f6c3a2043616e6e6f74207769746864726177207760408201527f68696c65207468657265206172652074726f766573207769746820494352203c6060820152631026a1a960e11b608082015260a00190565b6001600160801b0391909116815260200190565b90815260200190565b9182526001600160a01b0316602082015260400190565b9182521515602082015260400190565b9283526001600160801b03918216602084015216604082015260600190565b948552602085019390935260408401919091526001600160801b03908116606084015216608082015260a00190565b6001600160a01b0381168114610a9957600080fdfeceb6d671277d4354fd29977ada70695fbd93a16612abf765d6b0e25c28dc6db3bce78369dccab09eec1986f4d409ab09ffbb47d65423e5148fcf98411c5111c951457222ebca92c335c9c86e2baa1cc0e40ffaa9084a51452980d5ba8dec2f6399920012339b5a3368d3a04b8606ce412c46ed92b7dcd8602d41fc8862cb8f25a2646970667358221220e955fa7f80b9ad38eba52b70ed60457b452eb83b2417f8f09df3b2acb6ae421364736f6c634300060b0033",
  "implementation": "0x86cC28cdc46c515c866426Daa40d6Fc763E1c4Dd"
}