{
    "_format": "hh-sol-artifact-1",
    "contractName": "ZEROToken",
    "sourceName": "contracts/ZERO/ZEROToken.sol",
    "address": "0x340B63294968376FC7Ab4E0c216155b3f61B1f7C",
    "implementation": "0xa7BE6751d404541b5ad15b0cC84c0C98411aA8E4",
    "abi": [
        {
            "anonymous": false,
            "inputs": [
                {
                    "indexed": true,
                    "internalType": "address",
                    "name": "owner",
                    "type": "address"
                },
                {
                    "indexed": true,
                    "internalType": "address",
                    "name": "spender",
                    "type": "address"
                },
                {
                    "indexed": false,
                    "internalType": "uint256",
                    "name": "value",
                    "type": "uint256"
                }
            ],
            "name": "Approval",
            "type": "event"
        },
        {
            "anonymous": false,
            "inputs": [
                {
                    "indexed": true,
                    "internalType": "address",
                    "name": "from",
                    "type": "address"
                },
                {
                    "indexed": true,
                    "internalType": "address",
                    "name": "to",
                    "type": "address"
                },
                {
                    "indexed": false,
                    "internalType": "uint256",
                    "name": "value",
                    "type": "uint256"
                }
            ],
            "name": "Transfer",
            "type": "event"
        },
        {
            "inputs": [],
            "name": "ONE_YEAR_IN_SECONDS",
            "outputs": [
                {
                    "internalType": "uint256",
                    "name": "",
                    "type": "uint256"
                }
            ],
            "stateMutability": "view",
            "type": "function"
        },
        {
            "inputs": [
                {
                    "internalType": "address",
                    "name": "owner",
                    "type": "address"
                },
                {
                    "internalType": "address",
                    "name": "spender",
                    "type": "address"
                }
            ],
            "name": "allowance",
            "outputs": [
                {
                    "internalType": "uint256",
                    "name": "",
                    "type": "uint256"
                }
            ],
            "stateMutability": "view",
            "type": "function"
        },
        {
            "inputs": [
                {
                    "internalType": "address",
                    "name": "spender",
                    "type": "address"
                },
                {
                    "internalType": "uint256",
                    "name": "amount",
                    "type": "uint256"
                }
            ],
            "name": "approve",
            "outputs": [
                {
                    "internalType": "bool",
                    "name": "",
                    "type": "bool"
                }
            ],
            "stateMutability": "nonpayable",
            "type": "function"
        },
        {
            "inputs": [
                {
                    "internalType": "address",
                    "name": "account",
                    "type": "address"
                }
            ],
            "name": "balanceOf",
            "outputs": [
                {
                    "internalType": "uint256",
                    "name": "",
                    "type": "uint256"
                }
            ],
            "stateMutability": "view",
            "type": "function"
        },
        {
            "inputs": [
                {
                    "internalType": "address",
                    "name": "account",
                    "type": "address"
                },
                {
                    "internalType": "uint256",
                    "name": "amount",
                    "type": "uint256"
                }
            ],
            "name": "burn",
            "outputs": [],
            "stateMutability": "nonpayable",
            "type": "function"
        },
        {
            "inputs": [],
            "name": "decimals",
            "outputs": [
                {
                    "internalType": "uint8",
                    "name": "",
                    "type": "uint8"
                }
            ],
            "stateMutability": "view",
            "type": "function"
        },
        {
            "inputs": [
                {
                    "internalType": "address",
                    "name": "spender",
                    "type": "address"
                },
                {
                    "internalType": "uint256",
                    "name": "subtractedValue",
                    "type": "uint256"
                }
            ],
            "name": "decreaseAllowance",
            "outputs": [
                {
                    "internalType": "bool",
                    "name": "",
                    "type": "bool"
                }
            ],
            "stateMutability": "nonpayable",
            "type": "function"
        },
        {
            "inputs": [],
            "name": "domainSeparator",
            "outputs": [
                {
                    "internalType": "bytes32",
                    "name": "",
                    "type": "bytes32"
                }
            ],
            "stateMutability": "view",
            "type": "function"
        },
        {
            "inputs": [],
            "name": "getDeploymentStartTime",
            "outputs": [
                {
                    "internalType": "uint256",
                    "name": "",
                    "type": "uint256"
                }
            ],
            "stateMutability": "view",
            "type": "function"
        },
        {
            "inputs": [
                {
                    "internalType": "address",
                    "name": "spender",
                    "type": "address"
                },
                {
                    "internalType": "uint256",
                    "name": "addedValue",
                    "type": "uint256"
                }
            ],
            "name": "increaseAllowance",
            "outputs": [
                {
                    "internalType": "bool",
                    "name": "",
                    "type": "bool"
                }
            ],
            "stateMutability": "nonpayable",
            "type": "function"
        },
        {
            "inputs": [
                {
                    "internalType": "address",
                    "name": "_zeroStakingAddress",
                    "type": "address"
                },
                {
                    "internalType": "address",
                    "name": "_marketMakerAddress",
                    "type": "address"
                },
                {
                    "internalType": "address",
                    "name": "_presaleAddress",
                    "type": "address"
                }
            ],
            "name": "initialize",
            "outputs": [],
            "stateMutability": "nonpayable",
            "type": "function"
        },
        {
            "inputs": [],
            "name": "marketMakerAddress",
            "outputs": [
                {
                    "internalType": "address",
                    "name": "",
                    "type": "address"
                }
            ],
            "stateMutability": "view",
            "type": "function"
        },
        {
            "inputs": [
                {
                    "internalType": "address",
                    "name": "account",
                    "type": "address"
                },
                {
                    "internalType": "uint256",
                    "name": "amount",
                    "type": "uint256"
                }
            ],
            "name": "mint",
            "outputs": [],
            "stateMutability": "nonpayable",
            "type": "function"
        },
        {
            "inputs": [],
            "name": "name",
            "outputs": [
                {
                    "internalType": "string",
                    "name": "",
                    "type": "string"
                }
            ],
            "stateMutability": "view",
            "type": "function"
        },
        {
            "inputs": [
                {
                    "internalType": "address",
                    "name": "owner",
                    "type": "address"
                }
            ],
            "name": "nonces",
            "outputs": [
                {
                    "internalType": "uint256",
                    "name": "",
                    "type": "uint256"
                }
            ],
            "stateMutability": "view",
            "type": "function"
        },
        {
            "inputs": [
                {
                    "internalType": "address",
                    "name": "owner",
                    "type": "address"
                },
                {
                    "internalType": "address",
                    "name": "spender",
                    "type": "address"
                },
                {
                    "internalType": "uint256",
                    "name": "amount",
                    "type": "uint256"
                },
                {
                    "internalType": "uint256",
                    "name": "deadline",
                    "type": "uint256"
                },
                {
                    "internalType": "uint8",
                    "name": "v",
                    "type": "uint8"
                },
                {
                    "internalType": "bytes32",
                    "name": "r",
                    "type": "bytes32"
                },
                {
                    "internalType": "bytes32",
                    "name": "s",
                    "type": "bytes32"
                }
            ],
            "name": "permit",
            "outputs": [],
            "stateMutability": "nonpayable",
            "type": "function"
        },
        {
            "inputs": [],
            "name": "permitTypeHash",
            "outputs": [
                {
                    "internalType": "bytes32",
                    "name": "",
                    "type": "bytes32"
                }
            ],
            "stateMutability": "view",
            "type": "function"
        },
        {
            "inputs": [],
            "name": "presale",
            "outputs": [
                {
                    "internalType": "contract IBalanceRedirectPresale",
                    "name": "",
                    "type": "address"
                }
            ],
            "stateMutability": "view",
            "type": "function"
        },
        {
            "inputs": [
                {
                    "internalType": "address",
                    "name": "_sender",
                    "type": "address"
                },
                {
                    "internalType": "uint256",
                    "name": "_amount",
                    "type": "uint256"
                }
            ],
            "name": "sendToZEROStaking",
            "outputs": [],
            "stateMutability": "nonpayable",
            "type": "function"
        },
        {
            "inputs": [],
            "name": "symbol",
            "outputs": [
                {
                    "internalType": "string",
                    "name": "",
                    "type": "string"
                }
            ],
            "stateMutability": "view",
            "type": "function"
        },
        {
            "inputs": [],
            "name": "totalSupply",
            "outputs": [
                {
                    "internalType": "uint256",
                    "name": "",
                    "type": "uint256"
                }
            ],
            "stateMutability": "view",
            "type": "function"
        },
        {
            "inputs": [
                {
                    "internalType": "address",
                    "name": "recipient",
                    "type": "address"
                },
                {
                    "internalType": "uint256",
                    "name": "amount",
                    "type": "uint256"
                }
            ],
            "name": "transfer",
            "outputs": [
                {
                    "internalType": "bool",
                    "name": "",
                    "type": "bool"
                }
            ],
            "stateMutability": "nonpayable",
            "type": "function"
        },
        {
            "inputs": [
                {
                    "internalType": "address",
                    "name": "sender",
                    "type": "address"
                },
                {
                    "internalType": "address",
                    "name": "recipient",
                    "type": "address"
                },
                {
                    "internalType": "uint256",
                    "name": "amount",
                    "type": "uint256"
                }
            ],
            "name": "transferFrom",
            "outputs": [
                {
                    "internalType": "bool",
                    "name": "",
                    "type": "bool"
                }
            ],
            "stateMutability": "nonpayable",
            "type": "function"
        },
        {
            "inputs": [],
            "name": "version",
            "outputs": [
                {
                    "internalType": "string",
                    "name": "",
                    "type": "string"
                }
            ],
            "stateMutability": "view",
            "type": "function"
        },
        {
            "inputs": [],
            "name": "zeroStakingAddress",
            "outputs": [
                {
                    "internalType": "address",
                    "name": "",
                    "type": "address"
                }
            ],
            "stateMutability": "view",
            "type": "function"
        }
    ],
    "bytecode": "0x608060405234801561001057600080fd5b50611074806100206000396000f3fe608060405234801561001057600080fd5b50600436106101635760003560e01c806370a08231116100ce578063c0c53b8b11610087578063c0c53b8b14610425578063cc9105881461045d578063d505accf14610465578063dd62ed3e146104b6578063e7c8fed4146104e4578063f698da25146104ec578063fdea8e0b146104f457610163565b806370a08231146103555780637ecebe001461037b57806395d89b41146101685780639dc29fac146103a1578063a457c2d7146103cd578063a9059cbb146103f957610163565b8063313ce56711610120578063313ce567146102a157806339509351146102bf5780633c5fdd9e146102eb5780633c84b7c21461031957806340c10f191461032157806354fd4d501461034d57610163565b806306fdde0314610168578063095ea7b3146101e55780630ff9a5121461022557806310ce43bd1461024957806318160ddd1461026357806323b872dd1461026b575b600080fd5b6101706104fc565b6040805160208082528351818301528351919283929083019185019080838360005b838110156101aa578181015183820152602001610192565b50505050905090810190601f1680156101d75780820380516001836020036101000a031916815260200191505b509250505060405180910390f35b610211600480360360408110156101fb57600080fd5b506001600160a01b03813516906020013561051b565b604080519115158252519081900360200190f35b61022d610531565b604080516001600160a01b039092168252519081900360200190f35b610251610540565b60408051918252519081900360200190f35b610251610564565b6102116004803603606081101561028157600080fd5b506001600160a01b0381358116916020810135909116906040013561056a565b6102a96105e2565b6040805160ff9092168252519081900360200190f35b610211600480360360408110156102d557600080fd5b506001600160a01b0381351690602001356105e7565b6103176004803603604081101561030157600080fd5b506001600160a01b038135169060200135610623565b005b610251610647565b6103176004803603604081101561033757600080fd5b506001600160a01b03813516906020013561064d565b6101706106bc565b6102516004803603602081101561036b57600080fd5b50356001600160a01b03166106d7565b6102516004803603602081101561039157600080fd5b50356001600160a01b03166106f2565b610317600480360360408110156103b757600080fd5b506001600160a01b03813516906020013561070d565b610211600480360360408110156103e357600080fd5b506001600160a01b03813516906020013561075d565b6102116004803603604081101561040f57600080fd5b506001600160a01b0381351690602001356107b2565b6103176004803603606081101561043b57600080fd5b506001600160a01b0381358116916020810135821691604090910135166107c8565b61022d610964565b610317600480360360e081101561047b57600080fd5b506001600160a01b03813581169160208101359091169060408101359060608101359060ff6080820135169060a08101359060c00135610973565b610251600480360360408110156104cc57600080fd5b506001600160a01b0381358116916020013516610b68565b610251610b93565b610251610b9b565b61022d610bf0565b6040805180820190915260048152635a45524f60e01b60208201525b90565b6000610528338484610bff565b50600192915050565b603c546001600160a01b031681565b7f6e71edae12b1b97f4d1f60370fef10105fa2faae0126114a169c64845d6126c990565b60355490565b600061057583610ceb565b610580848484610d4a565b6105d884336105d385604051806060016040528060288152602001610f4c602891396001600160a01b038a166000908152603460209081526040808320338452909152902054919063ffffffff610d4f16565b610bff565b5060019392505050565b601290565b3360008181526034602090815260408083206001600160a01b038716845290915281205490916105289185906105d3908663ffffffff610de616565b61062b610e47565b603c546106439083906001600160a01b031683610d4a565b5050565b603b5490565b603d546001600160a01b03163314806106705750603e546001600160a01b031633145b6106b2576040805162461bcd60e51b815260206004820152600e60248201526d24b73b30b634b21031b0b63632b960911b604482015290519081900360640190fd5b6106438282610e92565b6040805180820190915260018152603160f81b602082015290565b6001600160a01b031660009081526033602052604090205490565b6001600160a01b03166000908152603a602052604090205490565b603d546001600160a01b031633146106b2576040805162461bcd60e51b815260206004820152600e60248201526d24b73b30b634b21031b0b63632b960911b604482015290519081900360640190fd5b600061052833846105d38560405180606001604052806025815260200161101a602591393360009081526034602090815260408083206001600160a01b038d168452909152902054919063ffffffff610d4f16565b60006107bd83610ceb565b610528338484610d4a565b600054610100900460ff16806107e157506107e1610e97565b806107ef575060005460ff16155b61082a5760405162461bcd60e51b815260040180806020018281038252602e815260200180610f74602e913960400191505060405180910390fd5b600054610100900460ff16158015610855576000805460ff1961ff0019909116610100171660011790555b42603b55603c80546001600160a01b038087166001600160a01b031992831617909255603d8054868416908316179055603e80549285169290911691909117905560408051808201825260048152635a45524f60e01b602091820152815180830190925260018252603160f81b9101527f2f1c95f5699b1388b3fa2230461010fd3feef63c25f1cc630151d42efc1108b260388190557fc89efdaa54c0f20c7adf612882df0950f5a951637e0307cdcb4c672f298b8bc66039819055610919610e9d565b6037556109477f8b73c3c69bb8fe3d512ecc4cf759cc79239f7b179b0ffacaa9a75d522b39400f8383610ea1565b6036555050801561095e576000805461ff00191690555b50505050565b603d546001600160a01b031681565b428410156109c1576040805162461bcd60e51b81526020600482015260166024820152755a45524f3a206578706972656420646561646c696e6560501b604482015290519081900360640190fd5b60006109cb610b9b565b6001600160a01b03808a166000818152603a602090815260408083208054600180820190925582517f6e71edae12b1b97f4d1f60370fef10105fa2faae0126114a169c64845d6126c98186015280840196909652958e166060860152608085018d905260a085019590955260c08085018c90528151808603909101815260e08501825280519083012061190160f01b6101008601526101028501969096526101228085019690965280518085039096018652610142840180825286519683019690962095839052610162840180825286905260ff8a166101828501526101a284018990526101c284018890525194955090936101e280840193601f198301929081900390910190855afa158015610ae6573d6000803e3d6000fd5b505050602060405103519050886001600160a01b0316816001600160a01b031614610b52576040805162461bcd60e51b81526020600482015260176024820152765a45524f3a20696e76616c6964207369676e617475726560481b604482015290519081900360640190fd5b610b5d898989610bff565b505050505050505050565b6001600160a01b03918216600090815260346020908152604080832093909416825291909152205490565b6301e1338081565b6000603754610ba8610e9d565b1415610bb75750603654610518565b610be97f8b73c3c69bb8fe3d512ecc4cf759cc79239f7b179b0ffacaa9a75d522b39400f60001b603854603954610ea1565b9050610518565b603e546001600160a01b031681565b6001600160a01b038316610c445760405162461bcd60e51b8152600401808060200182810382526024815260200180610fa26024913960400191505060405180910390fd5b6001600160a01b038216610c895760405162461bcd60e51b8152600401808060200182810382526022815260200180610ef86022913960400191505060405180910390fd5b6001600160a01b03808416600081815260346020908152604080832094871680845294825291829020859055815185815291517f8c5be1e5ebec7d5bd14f71427d1e84f3dd0314c0f7b2291e5b200ac8c7c3b9259281900390910190a3505050565b6001600160a01b03811615801590610d0c57506001600160a01b0381163014155b610d475760405162461bcd60e51b8152600401808060200182810382526054815260200180610fc66054913960600191505060405180910390fd5b50565b505050565b60008184841115610dde5760405162461bcd60e51b81526004018080602001828103825283818151815260200191508051906020019080838360005b83811015610da3578181015183820152602001610d8b565b50505050905090810190601f168015610dd05780820380516001836020036101000a031916815260200191505b509250505060405180910390fd5b505050900390565b600082820183811015610e40576040805162461bcd60e51b815260206004820152601b60248201527f536166654d6174683a206164646974696f6e206f766572666c6f770000000000604482015290519081900360640190fd5b9392505050565b603c546001600160a01b03163314610e905760405162461bcd60e51b8152600401808060200182810382526032815260200180610f1a6032913960400191505060405180910390fd5b565b610643565b303b1590565b4690565b6000838383610eae610e9d565b6040805160208082019690965280820194909452606084019290925260808301523060a0808401919091528151808403909101815260c09092019052805191012094935050505056fe45524332303a20617070726f766520746f20746865207a65726f20616464726573735a45524f546f6b656e3a2063616c6c6572206d75737420626520746865205a45524f5374616b696e6720636f6e747261637445524332303a207472616e7366657220616d6f756e74206578636565647320616c6c6f77616e6365436f6e747261637420696e7374616e63652068617320616c7265616479206265656e20696e697469616c697a656445524332303a20617070726f76652066726f6d20746865207a65726f20616464726573735a45524f3a2043616e6e6f74207472616e7366657220746f6b656e73206469726563746c7920746f20746865205a45524f20746f6b656e20636f6e7472616374206f7220746865207a65726f206164647265737345524332303a2064656372656173656420616c6c6f77616e63652062656c6f77207a65726fa264697066735822122025c7c463a2415070379fcea62d59c20b6a6907e1a5e6a780a8468cff25a6ad5764736f6c634300060b0033",
    "linkReferences": {},
    "deployedLinkReferences": {}
}