{
  "contracts/TestContracts/MockBalanceRedirectPresale.sol": {
    "MockBalanceRedirectPresale": {
      "abi": [
        {
          "inputs": [],
          "name": "closePresale",
          "outputs": [],
          "stateMutability": "nonpayable",
          "type": "function"
        },
        {
          "inputs": [],
          "name": "isClosed",
          "outputs": [
            {
              "internalType": "bool",
              "name": "",
              "type": "bool"
            }
          ],
          "stateMutability": "view",
          "type": "function"
        },
        {
          "inputs": [],
          "name": "openPresale",
          "outputs": [],
          "stateMutability": "nonpayable",
          "type": "function"
        }
      ],
      "evm": {
        "bytecode": {
          "linkReferences": {},
          "object": "608060405234801561001057600080fd5b5060c38061001f6000396000f3fe6080604052348015600f57600080fd5b5060043610603c5760003560e01c806363cea4501460415780638dd98312146049578063c2b6b58c14604f575b600080fd5b60476069565b005b60476078565b60556084565b604080519115158252519081900360200190f35b6000805460ff19166001179055565b6000805460ff19169055565b60005460ff168156fea26469706673582212204c26b089cd030fb09a69be0ea185fa0f058e4c78ab13f67b3bae2699657488c864736f6c634300060b0033",
          "opcodes": "PUSH1 0x80 PUSH1 0x40 MSTORE CALLVALUE DUP1 ISZERO PUSH2 0x10 JUMPI PUSH1 0x0 DUP1 REVERT JUMPDEST POP PUSH1 0xC3 DUP1 PUSH2 0x1F PUSH1 0x0 CODECOPY PUSH1 0x0 RETURN INVALID PUSH1 0x80 PUSH1 0x40 MSTORE CALLVALUE DUP1 ISZERO PUSH1 0xF JUMPI PUSH1 0x0 DUP1 REVERT JUMPDEST POP PUSH1 0x4 CALLDATASIZE LT PUSH1 0x3C JUMPI PUSH1 0x0 CALLDATALOAD PUSH1 0xE0 SHR DUP1 PUSH4 0x63CEA450 EQ PUSH1 0x41 JUMPI DUP1 PUSH4 0x8DD98312 EQ PUSH1 0x49 JUMPI DUP1 PUSH4 0xC2B6B58C EQ PUSH1 0x4F JUMPI JUMPDEST PUSH1 0x0 DUP1 REVERT JUMPDEST PUSH1 0x47 PUSH1 0x69 JUMP JUMPDEST STOP JUMPDEST PUSH1 0x47 PUSH1 0x78 JUMP JUMPDEST PUSH1 0x55 PUSH1 0x84 JUMP JUMPDEST PUSH1 0x40 DUP1 MLOAD SWAP2 ISZERO ISZERO DUP3 MSTORE MLOAD SWAP1 DUP2 SWAP1 SUB PUSH1 0x20 ADD SWAP1 RETURN JUMPDEST PUSH1 0x0 DUP1 SLOAD PUSH1 0xFF NOT AND PUSH1 0x1 OR SWAP1 SSTORE JUMP JUMPDEST PUSH1 0x0 DUP1 SLOAD PUSH1 0xFF NOT AND SWAP1 SSTORE JUMP JUMPDEST PUSH1 0x0 SLOAD PUSH1 0xFF AND DUP2 JUMP INVALID LOG2 PUSH5 0x6970667358 0x22 SLT KECCAK256 0x4C 0x26 0xB0 DUP10 0xCD SUB 0xF 0xB0 SWAP11 PUSH10 0xBE0EA185FA0F058E4C78 0xAB SGT 0xF6 PUSH28 0x3BAE2699657488C864736F6C634300060B0033000000000000000000 "
        },
        "methodIdentifiers": {
          "closePresale()": "63cea450",
          "isClosed()": "c2b6b58c",
          "openPresale()": "8dd98312"
        }
      }
    }
  }
}